{
  "_format": "hh-sol-artifact-1",
  "contractName": "MilestoneEscrow",
  "sourceName": "contracts/MilestoneEscrow.sol",
  "abi": [
    {
      "inputs": [
        {
          "internalType": "address",
          "name": "oracle",
          "type": "address"
        }
      ],
      "stateMutability": "nonpayable",
      "type": "constructor"
    },
    {
      "anonymous": false,
      "inputs": [
        {
          "indexed": true,
          "internalType": "bytes32",
          "name": "startupId",
          "type": "bytes32"
        },
        {
          "indexed": false,
          "internalType": "uint256",
          "name": "trustScore",
          "type": "uint256"
        },
        {
          "indexed": false,
          "internalType": "uint256",
          "name": "timestamp",
          "type": "uint256"
        },
        {
          "indexed": false,
          "internalType": "string",
          "name": "reason",
          "type": "string"
        }
      ],
      "name": "FundingFrozen",
      "type": "event"
    },
    {
      "anonymous": false,
      "inputs": [
        {
          "indexed": true,
          "internalType": "bytes32",
          "name": "startupId",
          "type": "bytes32"
        },
        {
          "indexed": false,
          "internalType": "uint256",
          "name": "timestamp",
          "type": "uint256"
        }
      ],
      "name": "FundingRestored",
      "type": "event"
    },
    {
      "anonymous": false,
      "inputs": [
        {
          "indexed": true,
          "internalType": "bytes32",
          "name": "startupId",
          "type": "bytes32"
        },
        {
          "indexed": true,
          "internalType": "address",
          "name": "beneficiary",
          "type": "address"
        },
        {
          "indexed": false,
          "internalType": "uint256",
          "name": "amountWei",
          "type": "uint256"
        },
        {
          "indexed": false,
          "internalType": "uint256",
          "name": "tranche1Released",
          "type": "uint256"
        }
      ],
      "name": "FundsDeposited",
      "type": "event"
    },
    {
      "anonymous": false,
      "inputs": [
        {
          "indexed": true,
          "internalType": "bytes32",
          "name": "startupId",
          "type": "bytes32"
        },
        {
          "indexed": false,
          "internalType": "uint8",
          "name": "trancheId",
          "type": "uint8"
        },
        {
          "indexed": false,
          "internalType": "uint256",
          "name": "trustScore",
          "type": "uint256"
        }
      ],
      "name": "OracleApproval",
      "type": "event"
    },
    {
      "anonymous": false,
      "inputs": [
        {
          "indexed": false,
          "internalType": "address",
          "name": "newOracle",
          "type": "address"
        }
      ],
      "name": "OracleAuthorityUpdated",
      "type": "event"
    },
    {
      "anonymous": false,
      "inputs": [
        {
          "indexed": true,
          "internalType": "bytes32",
          "name": "startupId",
          "type": "bytes32"
        },
        {
          "indexed": false,
          "internalType": "uint8",
          "name": "trancheId",
          "type": "uint8"
        },
        {
          "indexed": false,
          "internalType": "enum MilestoneEscrow.MilestoneType",
          "name": "milestone",
          "type": "uint8"
        },
        {
          "indexed": false,
          "internalType": "uint256",
          "name": "amountWei",
          "type": "uint256"
        },
        {
          "indexed": false,
          "internalType": "bytes32",
          "name": "oracleTxHash",
          "type": "bytes32"
        }
      ],
      "name": "TrancheReleased",
      "type": "event"
    },
    {
      "inputs": [
        {
          "internalType": "bytes32",
          "name": "startupId",
          "type": "bytes32"
        },
        {
          "internalType": "address",
          "name": "beneficiary",
          "type": "address"
        }
      ],
      "name": "depositFunds",
      "outputs": [],
      "stateMutability": "payable",
      "type": "function"
    },
    {
      "inputs": [
        {
          "internalType": "bytes32",
          "name": "startupId",
          "type": "bytes32"
        },
        {
          "internalType": "uint256",
          "name": "trustScore",
          "type": "uint256"
        }
      ],
      "name": "freezeMilestoneFunding",
      "outputs": [],
      "stateMutability": "nonpayable",
      "type": "function"
    },
    {
      "inputs": [
        {
          "internalType": "bytes32",
          "name": "startupId",
          "type": "bytes32"
        }
      ],
      "name": "getEscrow",
      "outputs": [
        {
          "internalType": "address",
          "name": "beneficiary",
          "type": "address"
        },
        {
          "internalType": "uint256",
          "name": "totalDeposited",
          "type": "uint256"
        },
        {
          "internalType": "uint256",
          "name": "totalReleased",
          "type": "uint256"
        },
        {
          "internalType": "bool",
          "name": "frozen",
          "type": "bool"
        },
        {
          "internalType": "uint256",
          "name": "lastTrustScore",
          "type": "uint256"
        }
      ],
      "stateMutability": "view",
      "type": "function"
    },
    {
      "inputs": [
        {
          "internalType": "bytes32",
          "name": "startupId",
          "type": "bytes32"
        },
        {
          "internalType": "uint8",
          "name": "trancheId",
          "type": "uint8"
        }
      ],
      "name": "getTranche",
      "outputs": [
        {
          "components": [
            {
              "internalType": "uint8",
              "name": "trancheId",
              "type": "uint8"
            },
            {
              "internalType": "enum MilestoneEscrow.MilestoneType",
              "name": "milestone",
              "type": "uint8"
            },
            {
              "internalType": "uint256",
              "name": "amountWei",
              "type": "uint256"
            },
            {
              "internalType": "enum MilestoneEscrow.TrancheStatus",
              "name": "status",
              "type": "uint8"
            },
            {
              "internalType": "uint256",
              "name": "releasedAt",
              "type": "uint256"
            },
            {
              "internalType": "bytes32",
              "name": "oracleTxHash",
              "type": "bytes32"
            }
          ],
          "internalType": "struct MilestoneEscrow.Tranche",
          "name": "",
          "type": "tuple"
        }
      ],
      "stateMutability": "view",
      "type": "function"
    },
    {
      "inputs": [
        {
          "internalType": "bytes32",
          "name": "startupId",
          "type": "bytes32"
        }
      ],
      "name": "isFrozen",
      "outputs": [
        {
          "internalType": "bool",
          "name": "",
          "type": "bool"
        }
      ],
      "stateMutability": "view",
      "type": "function"
    },
    {
      "inputs": [
        {
          "internalType": "bytes32",
          "name": "startupId",
          "type": "bytes32"
        },
        {
          "internalType": "uint8",
          "name": "trancheId",
          "type": "uint8"
        },
        {
          "internalType": "uint256",
          "name": "trustScore",
          "type": "uint256"
        },
        {
          "internalType": "bytes32",
          "name": "txHash",
          "type": "bytes32"
        }
      ],
      "name": "oracleApprove",
      "outputs": [],
      "stateMutability": "nonpayable",
      "type": "function"
    },
    {
      "inputs": [],
      "name": "oracleAuthority",
      "outputs": [
        {
          "internalType": "address",
          "name": "",
          "type": "address"
        }
      ],
      "stateMutability": "view",
      "type": "function"
    },
    {
      "inputs": [],
      "name": "owner",
      "outputs": [
        {
          "internalType": "address",
          "name": "",
          "type": "address"
        }
      ],
      "stateMutability": "view",
      "type": "function"
    },
    {
      "inputs": [
        {
          "internalType": "bytes32",
          "name": "startupId",
          "type": "bytes32"
        }
      ],
      "name": "pendingTranches",
      "outputs": [
        {
          "internalType": "uint8[]",
          "name": "pending",
          "type": "uint8[]"
        }
      ],
      "stateMutability": "view",
      "type": "function"
    },
    {
      "inputs": [
        {
          "internalType": "bytes32",
          "name": "startupId",
          "type": "bytes32"
        }
      ],
      "name": "restoreFunding",
      "outputs": [],
      "stateMutability": "nonpayable",
      "type": "function"
    },
    {
      "inputs": [],
      "name": "totalStartups",
      "outputs": [
        {
          "internalType": "uint256",
          "name": "",
          "type": "uint256"
        }
      ],
      "stateMutability": "view",
      "type": "function"
    },
    {
      "inputs": [
        {
          "internalType": "address",
          "name": "newOracle",
          "type": "address"
        }
      ],
      "name": "updateOracleAuthority",
      "outputs": [],
      "stateMutability": "nonpayable",
      "type": "function"
    }
  ],
  "bytecode": "0x60803461007a57601f6113cf38819003918201601f19168301916001600160401b0383118484101761007f5780849260209460405283398101031261007a57516001600160a01b0381169081900361007a5760018060a01b031933816000541617600055600154161760015560405161133990816100968239f35b600080fd5b634e487b7160e01b600052604160045260246000fdfe60406080815260048036101561001457600080fd5b600091823560e01c80630227b7f014610aee5780630392e15c14610a765780630bcabc79146108fe578063238afcc5146108d25780633ea96213146107d857806346d4aee9146107b95780636994d20a1461037257806386691a9b146103495780638da5cb5b14610321578063aa255f6314610239578063e9e585a91461011d5763f023b811146100a457600080fd5b34610119576020366003190112610119578060a0938335808252846020526100d160ff8484205416610d53565b8152600260205220600180851b0360018201541692600282015492600660ff600385015493850154169301549381519586526020860152840152151560608301526080820152f35b8280fd5b509034610119578160031936011261011957918261019f60c0943592600785610144610bbc565b928060a0610150610bf1565b828152826020820152828582015282606082015282608082015201528681528560205260ff96610184888484205416610d53565b6101918789871610610daf565b815260026020522001610c4d565b50906101a9610bf1565b93838354818116875260081c1660208601906101c481610bd1565b8152600184015490828701918252856002860154169360608801946101e881610bd1565b85526003860154956080890196875201549560a08801968752835197511687525161021281610bd1565b602087015251908501525161022681610bd1565b60608401525160808301525160a0820152f35b5091903461031d57608036600319011261031d578035610257610bbc565b9161027760018060a01b0380600154163314908115610310575b50610cf9565b8184528060205261028d60ff8686205416610d53565b818452600260205260ff818686200154166102b85750906102b5916064359160443591610e23565b80f35b608490602086519162461bcd60e51b8352820152602c60248201527f4d696c6573746f6e65457363726f773a2066756e64696e672069732066726f7a60448201526b656e206279206f7261636c6560a01b6064820152fd5b9050855416331438610271565b5080fd5b83823461031d578160031936011261031d57905490516001600160a01b039091168152602090f35b83823461031d578160031936011261031d5760015490516001600160a01b039091168152602090f35b5080600319360112610119576001600160a01b03602480358281169480359493918690036107b557341561077357851561071f5784875260209281845260ff85892054166106c9576109c480340290348204036106b757918591896127108a950495898252600288526104e78860168785208d81556001998a8201906bffffffffffffffffffffffff60a01b82541617905534600282015560039580878301558b8983019a60ff199b8c815416905561045461042c610bf1565b848152848882015283838201528460608201528460808201528460a082015260078601610c77565b6104888d610460610bf1565b908082528882015283838201528460608201528460808201528460a0820152600c8601610c77565b6104bd610493610bf1565b6002815260028882015283838201528460608201528460808201528460a082015260118601610c77565b886104c6610bf1565b9681885287015285015280606085015280608085015260a084015201610c77565b8154680100000000000000008110156106a557868101808455811015610693578a907fc2575a0e9e593c00f959f8c92f12db2869c3395a3b0502d05e2516446f71f85b0155898c52838852888c20868682541617905560028852888c209486600987019182541617905542600a86015542600b8601556008850195865492860180549084820180921161068157558501548c9283928392839291165af13d1561067c573d61059c61059782610e07565b610c27565b9081528b883d92013e5b1561062e5750507f617571b14b1217d22f94126f4284931bcf55590b3406befc5292929b1d84ceb060807f26f97417b32fdaf792dabcb9bfae983a94e40f76f1e4a15bdb874283654b0d669695949360ff60078a95015460081c1690548751918c835261061281610bd1565b8783015287820152426060820152a2825191348352820152a380f35b865162461bcd60e51b8152918201869052808201527f4d696c6573746f6e65457363726f773a20455448207472616e736665722066616044820152631a5b195960e21b606482015260849150fd5b6105a6565b634e487b7160e01b8f5260118752858ffd5b634e487b7160e01b8d5260328552838dfd5b634e487b7160e01b8d5260418552838dfd5b50634e487b7160e01b88526011825287fd5b845162461bcd60e51b8152918201849052602b908201527f4d696c6573746f6e65457363726f773a207374617274757020616c726561647960448201526a081c9959da5cdd195c995960aa1b6064820152608490fd5b608490602984602087519362461bcd60e51b85528401528201527f4d696c6573746f6e65457363726f773a207a65726f20616464726573732062656044820152686e656669636961727960b81b6064820152fd5b606490601e84602087519362461bcd60e51b85528401528201527f4d696c6573746f6e65457363726f773a206d7573742073656e642045544800006044820152fd5b8680fd5b83823461031d578160031936011261031d576020906003549051908152f35b5082903461031d576020806003193601126101195783359161080460018060a01b03855416331461112e565b82845284825260ff9461081b868387205416610d53565b838552600280845281838720019660ff1997888154169055865b838282161061086b5787877fa2ae2c54d10ad10bdcd6dbb03014888e60fbb0a927f290529301aa9fecd7e4b3888851428152a280f35b8083868282868161088f8f988f998f84906108aa9c83525260079788912001610c4d565b5001541661089c81610bd1565b146108af575b50505061117a565b610835565b6108c2918b8d52838b52898d2001610c4d565b50018a8154169055838b826108a2565b5082346108fb5760203660031901126108fb57506108f2602092356111a1565b90519015158152f35b80fd5b5082903461031d576020806003193601126101195783359283815284825260ff9261092d848284205416610d53565b8382835b8883821610610a225750169161095561094c610597856111d0565b938085526111d0565b8385019590601f19013687378192825b8281168a8110156109e657898552836002808a52610988846007878a2001610c4d565b5001541661099581610bd1565b156109aa575b506109a59061117a565b610965565b6109b38661117a565b95875185821610156109d35760051b611fe01687018801526109a561099b565b634e487b7160e01b865260328c52602486fd5b5050868386888451948186019282875251809352850193925b828110610a0c5785850386f35b83518716855293810193928101926001016109ff565b909150868452856002808752610a3d83600787892001610c4d565b50015416610a4a81610bd1565b15610a61575b610a599061117a565b908591610931565b90610a6e610a599161117a565b919050610a50565b509034610119576020366003190112610119576001600160a01b03903581811690819003610aea577ff6cb9e85799ca5f925e726245fdba5a8a3ced5f5aba91bc2ca6dc7a41108493392610ad0602093865416331461112e565b600180546001600160a01b0319168317905551908152a180f35b8380fd5b5082903461031d578060031936011261031d57600154833590610b2590336001600160a01b0391821614908115610baf5750610cf9565b80835283602052610b3b60ff8385205416610d53565b8151916060830183811067ffffffffffffffff821117610b9c578152602583527f4f7261636c653a204149206465746563746564207269736b2073636f7265203c60208401526420302e333560d81b908301526102b59190602435906111e8565b634e487b7160e01b855260418652602485fd5b9050845416331486610271565b6024359060ff82168203610bcc57565b600080fd5b60041115610bdb57565b634e487b7160e01b600052602160045260246000fd5b6040519060c0820182811067ffffffffffffffff821117610c1157604052565b634e487b7160e01b600052604160045260246000fd5b6040519190601f01601f1916820167ffffffffffffffff811183821017610c1157604052565b906004811015610c61576005020190600090565b634e487b7160e01b600052603260045260246000fd5b9060a060049160ff815116845460ff19918083831617875561ff006020850151610ca081610bd1565b610ca981610bd1565b60081b169161ffff19161717855560408201516001860155600285019060ff606084015191610cd783610bd1565b610ce083610bd1565b8354169116179055608081015160038501550151910155565b15610d0057565b60405162461bcd60e51b815260206004820152602560248201527f4d696c6573746f6e65457363726f773a206e6f74206f7261636c6520617574686044820152646f7269747960d81b6064820152608490fd5b15610d5a57565b60405162461bcd60e51b815260206004820152602760248201527f4d696c6573746f6e65457363726f773a2073746172747570206e6f74207265676044820152661a5cdd195c995960ca1b6064820152608490fd5b15610db657565b60405162461bcd60e51b815260206004820152602360248201527f4d696c6573746f6e65457363726f773a20696e76616c6964207472616e63686560448201526208125160ea1b6064820152608490fd5b67ffffffffffffffff8111610c1157601f01601f191660200190565b919392909360ff851690600492610e3b848410610daf565b6000908582526020916002835260409560ff6002610e5e8c60078b872001610c4d565b50015416610e6b81610bd1565b6110df5760028614611062575b61015e8510610ff35787825260028452610e9e8783209a8660068d015560078c01610c4d565b509160028301600160ff198254161790554260038401558382840155600183019a8b54600382018054918201809211610fe05755600101548b548291829182918291906001600160a01b03165af1903d15610fda573d90610f0161059783610e07565b918252863d92013e5b15610f8b575060808798997f7191507b6d12ef1fa6c78e7b68ac8d8bc8bda9d79fdb953aba41afcedf659961989360ff7f617571b14b1217d22f94126f4284931bcf55590b3406befc5292929b1d84ceb0945460081c169154895192898452610f7281610bd1565b87840152898301526060820152a28351928352820152a2565b865162461bcd60e51b81529081018490526024808201527f4d696c6573746f6e65457363726f773a20455448207472616e736665722066616044820152631a5b195960e21b6064820152608490fd5b50610f0a565b634e487b7160e01b845260118552602484fd5b9850919294959350508451948086019186831067ffffffffffffffff84111761104f575052601a84527f4f7261636c653a2074727573742073636f7265203c20302e33350000000000009084015292935061104d926111e8565b565b634e487b7160e01b815260418952602490fd5b6101f4851015610e7857865162461bcd60e51b8152908101849052604160248201527f4d696c6573746f6e65457363726f773a2074727573742073636f7265203c203060448201527f2e35302c207472616e63686520332063616e6e6f742062652072656c656173656064820152601960fa1b608482015260a490fd5b865162461bcd60e51b81529081018490526024808201527f4d696c6573746f6e65457363726f773a207472616e636865206e6f742070656e60448201526364696e6760e01b6064820152608490fd5b1561113557565b60405162461bcd60e51b815260206004820152601a60248201527f4d696c6573746f6e65457363726f773a206e6f74206f776e65720000000000006044820152606490fd5b60ff1660ff811461118b5760010190565b634e487b7160e01b600052601160045260246000fd5b600052600460205260ff60406000205416156111cb57600260205260ff6004604060002001541690565b600090565b67ffffffffffffffff8111610c115760051b60200190565b91826000526002602090808252604060002060049182820190600193849360ff19938585825416179055426005820155886006820155600760009101955b6112aa575b50505050505060405192835242818401526060604084015281519182606085015260005b8381106112965750505090608081836000837ff5f26870cfc51aa5c27d2feb3732a9e93dca4c31e461b9f5dbfcc1687b4b73d09684010152601f80199101168101030190a2565b81810183015185820160800152820161124f565b60ff908282821610156112fd576112dd91846112c6838a610c4d565b500154166112d381610bd1565b156112e35761117a565b84611226565b836112ee8289610c4d565b5001848682541617905561117a565b5061122b56fea2646970667358221220d9d2e3981c95311fdde4dfec91cc8de4673c68a75303ffa6d57f4afb051e591c64736f6c63430008130033",
  "linkReferences": {},
  "deployedLinkReferences": {}
}