{
  "_format": "hh-sol-artifact-1",
  "contractName": "IntelliStakeToken",
  "sourceName": "contracts/IntelliStakeToken.sol",
  "abi": [
    {
      "inputs": [
        {
          "internalType": "address",
          "name": "_initialOwner",
          "type": "address"
        }
      ],
      "stateMutability": "nonpayable",
      "type": "constructor"
    },
    {
      "inputs": [
        {
          "internalType": "uint256",
          "name": "amount",
          "type": "uint256"
        }
      ],
      "name": "BelowMinInvestment",
      "type": "error"
    },
    {
      "inputs": [
        {
          "internalType": "address",
          "name": "account",
          "type": "address"
        },
        {
          "internalType": "uint256",
          "name": "amount",
          "type": "uint256"
        }
      ],
      "name": "ExceedsMaxHolding",
      "type": "error"
    },
    {
      "inputs": [],
      "name": "InvalidMilestoneProof",
      "type": "error"
    },
    {
      "inputs": [
        {
          "internalType": "address",
          "name": "startupToken",
          "type": "address"
        }
      ],
      "name": "MilestoneFundingCurrentlyFrozen",
      "type": "error"
    },
    {
      "inputs": [
        {
          "internalType": "bytes32",
          "name": "milestoneHash",
          "type": "bytes32"
        }
      ],
      "name": "MilestoneNotVerified",
      "type": "error"
    },
    {
      "inputs": [
        {
          "internalType": "address",
          "name": "account",
          "type": "address"
        }
      ],
      "name": "NotAccredited",
      "type": "error"
    },
    {
      "inputs": [
        {
          "internalType": "address",
          "name": "account",
          "type": "address"
        }
      ],
      "name": "NotIdentityVerified",
      "type": "error"
    },
    {
      "inputs": [
        {
          "internalType": "address",
          "name": "caller",
          "type": "address"
        }
      ],
      "name": "NotOracle",
      "type": "error"
    },
    {
      "inputs": [
        {
          "internalType": "uint256",
          "name": "startupId",
          "type": "uint256"
        },
        {
          "internalType": "uint256",
          "name": "trancheIndex",
          "type": "uint256"
        }
      ],
      "name": "TrancheAlreadyReleased",
      "type": "error"
    },
    {
      "inputs": [
        {
          "internalType": "address",
          "name": "from",
          "type": "address"
        },
        {
          "internalType": "address",
          "name": "to",
          "type": "address"
        }
      ],
      "name": "TransferNotCompliant",
      "type": "error"
    },
    {
      "anonymous": false,
      "inputs": [
        {
          "indexed": true,
          "internalType": "address",
          "name": "investor",
          "type": "address"
        },
        {
          "indexed": false,
          "internalType": "bool",
          "name": "status",
          "type": "bool"
        }
      ],
      "name": "AccreditationUpdated",
      "type": "event"
    },
    {
      "anonymous": false,
      "inputs": [
        {
          "indexed": true,
          "internalType": "address",
          "name": "owner",
          "type": "address"
        },
        {
          "indexed": true,
          "internalType": "address",
          "name": "spender",
          "type": "address"
        },
        {
          "indexed": false,
          "internalType": "uint256",
          "name": "value",
          "type": "uint256"
        }
      ],
      "name": "Approval",
      "type": "event"
    },
    {
      "anonymous": false,
      "inputs": [
        {
          "indexed": true,
          "internalType": "address",
          "name": "compliance",
          "type": "address"
        }
      ],
      "name": "ComplianceSet",
      "type": "event"
    },
    {
      "anonymous": false,
      "inputs": [
        {
          "indexed": true,
          "internalType": "address",
          "name": "registry",
          "type": "address"
        }
      ],
      "name": "IdentityRegistrySet",
      "type": "event"
    },
    {
      "anonymous": false,
      "inputs": [
        {
          "indexed": true,
          "internalType": "address",
          "name": "startupToken",
          "type": "address"
        },
        {
          "indexed": false,
          "internalType": "string",
          "name": "reason",
          "type": "string"
        },
        {
          "indexed": false,
          "internalType": "uint256",
          "name": "timestamp",
          "type": "uint256"
        }
      ],
      "name": "MilestoneFundingFrozen",
      "type": "event"
    },
    {
      "anonymous": false,
      "inputs": [
        {
          "indexed": true,
          "internalType": "address",
          "name": "startupToken",
          "type": "address"
        },
        {
          "indexed": false,
          "internalType": "uint256",
          "name": "timestamp",
          "type": "uint256"
        }
      ],
      "name": "MilestoneFundingRestored",
      "type": "event"
    },
    {
      "anonymous": false,
      "inputs": [
        {
          "indexed": true,
          "internalType": "bytes32",
          "name": "milestoneHash",
          "type": "bytes32"
        },
        {
          "indexed": false,
          "internalType": "uint256",
          "name": "timestamp",
          "type": "uint256"
        }
      ],
      "name": "MilestoneVerified",
      "type": "event"
    },
    {
      "anonymous": false,
      "inputs": [
        {
          "indexed": true,
          "internalType": "address",
          "name": "oracle",
          "type": "address"
        }
      ],
      "name": "OracleAddressSet",
      "type": "event"
    },
    {
      "anonymous": false,
      "inputs": [
        {
          "indexed": true,
          "internalType": "address",
          "name": "previousOwner",
          "type": "address"
        },
        {
          "indexed": true,
          "internalType": "address",
          "name": "newOwner",
          "type": "address"
        }
      ],
      "name": "OwnershipTransferred",
      "type": "event"
    },
    {
      "anonymous": false,
      "inputs": [
        {
          "indexed": false,
          "internalType": "address",
          "name": "account",
          "type": "address"
        }
      ],
      "name": "Paused",
      "type": "event"
    },
    {
      "anonymous": false,
      "inputs": [
        {
          "indexed": true,
          "internalType": "uint256",
          "name": "startupId",
          "type": "uint256"
        },
        {
          "indexed": false,
          "internalType": "uint256",
          "name": "amount",
          "type": "uint256"
        },
        {
          "indexed": false,
          "internalType": "bytes32",
          "name": "milestoneHash",
          "type": "bytes32"
        }
      ],
      "name": "TrancheLocked",
      "type": "event"
    },
    {
      "anonymous": false,
      "inputs": [
        {
          "indexed": true,
          "internalType": "uint256",
          "name": "startupId",
          "type": "uint256"
        },
        {
          "indexed": false,
          "internalType": "uint256",
          "name": "trancheIndex",
          "type": "uint256"
        },
        {
          "indexed": false,
          "internalType": "uint256",
          "name": "amount",
          "type": "uint256"
        }
      ],
      "name": "TrancheReleased",
      "type": "event"
    },
    {
      "anonymous": false,
      "inputs": [
        {
          "indexed": true,
          "internalType": "address",
          "name": "from",
          "type": "address"
        },
        {
          "indexed": true,
          "internalType": "address",
          "name": "to",
          "type": "address"
        },
        {
          "indexed": false,
          "internalType": "uint256",
          "name": "value",
          "type": "uint256"
        }
      ],
      "name": "Transfer",
      "type": "event"
    },
    {
      "anonymous": false,
      "inputs": [
        {
          "indexed": true,
          "internalType": "address",
          "name": "from",
          "type": "address"
        },
        {
          "indexed": true,
          "internalType": "address",
          "name": "to",
          "type": "address"
        },
        {
          "indexed": false,
          "internalType": "uint256",
          "name": "amount",
          "type": "uint256"
        },
        {
          "indexed": false,
          "internalType": "string",
          "name": "reason",
          "type": "string"
        }
      ],
      "name": "TransferRejected",
      "type": "event"
    },
    {
      "anonymous": false,
      "inputs": [
        {
          "indexed": false,
          "internalType": "address",
          "name": "account",
          "type": "address"
        }
      ],
      "name": "Unpaused",
      "type": "event"
    },
    {
      "inputs": [
        {
          "internalType": "address",
          "name": "",
          "type": "address"
        }
      ],
      "name": "accreditedInvestors",
      "outputs": [
        {
          "internalType": "bool",
          "name": "",
          "type": "bool"
        }
      ],
      "stateMutability": "view",
      "type": "function"
    },
    {
      "inputs": [
        {
          "internalType": "address",
          "name": "owner",
          "type": "address"
        },
        {
          "internalType": "address",
          "name": "spender",
          "type": "address"
        }
      ],
      "name": "allowance",
      "outputs": [
        {
          "internalType": "uint256",
          "name": "",
          "type": "uint256"
        }
      ],
      "stateMutability": "view",
      "type": "function"
    },
    {
      "inputs": [
        {
          "internalType": "address",
          "name": "spender",
          "type": "address"
        },
        {
          "internalType": "uint256",
          "name": "amount",
          "type": "uint256"
        }
      ],
      "name": "approve",
      "outputs": [
        {
          "internalType": "bool",
          "name": "",
          "type": "bool"
        }
      ],
      "stateMutability": "nonpayable",
      "type": "function"
    },
    {
      "inputs": [
        {
          "internalType": "address",
          "name": "account",
          "type": "address"
        }
      ],
      "name": "balanceOf",
      "outputs": [
        {
          "internalType": "uint256",
          "name": "",
          "type": "uint256"
        }
      ],
      "stateMutability": "view",
      "type": "function"
    },
    {
      "inputs": [
        {
          "internalType": "address[]",
          "name": "investors",
          "type": "address[]"
        },
        {
          "internalType": "bool[]",
          "name": "statuses",
          "type": "bool[]"
        }
      ],
      "name": "batchSetAccreditedInvestors",
      "outputs": [],
      "stateMutability": "nonpayable",
      "type": "function"
    },
    {
      "inputs": [
        {
          "internalType": "uint256",
          "name": "amount",
          "type": "uint256"
        }
      ],
      "name": "burn",
      "outputs": [],
      "stateMutability": "nonpayable",
      "type": "function"
    },
    {
      "inputs": [
        {
          "internalType": "address",
          "name": "from",
          "type": "address"
        },
        {
          "internalType": "address",
          "name": "to",
          "type": "address"
        },
        {
          "internalType": "uint256",
          "name": "amount",
          "type": "uint256"
        }
      ],
      "name": "canTransfer",
      "outputs": [
        {
          "internalType": "bool",
          "name": "",
          "type": "bool"
        }
      ],
      "stateMutability": "view",
      "type": "function"
    },
    {
      "inputs": [],
      "name": "compliance",
      "outputs": [
        {
          "internalType": "contract ICompliance",
          "name": "",
          "type": "address"
        }
      ],
      "stateMutability": "view",
      "type": "function"
    },
    {
      "inputs": [],
      "name": "decimals",
      "outputs": [
        {
          "internalType": "uint8",
          "name": "",
          "type": "uint8"
        }
      ],
      "stateMutability": "view",
      "type": "function"
    },
    {
      "inputs": [
        {
          "internalType": "address",
          "name": "spender",
          "type": "address"
        },
        {
          "internalType": "uint256",
          "name": "subtractedValue",
          "type": "uint256"
        }
      ],
      "name": "decreaseAllowance",
      "outputs": [
        {
          "internalType": "bool",
          "name": "",
          "type": "bool"
        }
      ],
      "stateMutability": "nonpayable",
      "type": "function"
    },
    {
      "inputs": [
        {
          "internalType": "address",
          "name": "startupToken",
          "type": "address"
        },
        {
          "internalType": "string",
          "name": "reason",
          "type": "string"
        }
      ],
      "name": "freezeMilestoneFunding",
      "outputs": [],
      "stateMutability": "nonpayable",
      "type": "function"
    },
    {
      "inputs": [
        {
          "internalType": "uint256",
          "name": "startupId",
          "type": "uint256"
        }
      ],
      "name": "getLockedAmount",
      "outputs": [
        {
          "internalType": "uint256",
          "name": "",
          "type": "uint256"
        }
      ],
      "stateMutability": "view",
      "type": "function"
    },
    {
      "inputs": [
        {
          "internalType": "address",
          "name": "startupToken",
          "type": "address"
        }
      ],
      "name": "getMilestoneStatus",
      "outputs": [
        {
          "internalType": "bool",
          "name": "frozen",
          "type": "bool"
        }
      ],
      "stateMutability": "view",
      "type": "function"
    },
    {
      "inputs": [
        {
          "internalType": "uint256",
          "name": "startupId",
          "type": "uint256"
        }
      ],
      "name": "getStartupTranches",
      "outputs": [
        {
          "components": [
            {
              "internalType": "uint256",
              "name": "amount",
              "type": "uint256"
            },
            {
              "internalType": "bytes32",
              "name": "milestoneHash",
              "type": "bytes32"
            },
            {
              "internalType": "bool",
              "name": "released",
              "type": "bool"
            },
            {
              "internalType": "uint256",
              "name": "lockTimestamp",
              "type": "uint256"
            },
            {
              "internalType": "address",
              "name": "beneficiary",
              "type": "address"
            }
          ],
          "internalType": "struct IntelliStakeToken.Tranche[]",
          "name": "",
          "type": "tuple[]"
        }
      ],
      "stateMutability": "view",
      "type": "function"
    },
    {
      "inputs": [],
      "name": "identityRegistry",
      "outputs": [
        {
          "internalType": "contract IIdentityRegistry",
          "name": "",
          "type": "address"
        }
      ],
      "stateMutability": "view",
      "type": "function"
    },
    {
      "inputs": [
        {
          "internalType": "address",
          "name": "spender",
          "type": "address"
        },
        {
          "internalType": "uint256",
          "name": "addedValue",
          "type": "uint256"
        }
      ],
      "name": "increaseAllowance",
      "outputs": [
        {
          "internalType": "bool",
          "name": "",
          "type": "bool"
        }
      ],
      "stateMutability": "nonpayable",
      "type": "function"
    },
    {
      "inputs": [
        {
          "internalType": "address",
          "name": "account",
          "type": "address"
        }
      ],
      "name": "isIdentityVerified",
      "outputs": [
        {
          "internalType": "bool",
          "name": "",
          "type": "bool"
        }
      ],
      "stateMutability": "view",
      "type": "function"
    },
    {
      "inputs": [
        {
          "internalType": "uint256",
          "name": "startupId",
          "type": "uint256"
        },
        {
          "internalType": "uint256",
          "name": "amount",
          "type": "uint256"
        },
        {
          "internalType": "bytes32",
          "name": "milestoneHash",
          "type": "bytes32"
        },
        {
          "internalType": "address",
          "name": "beneficiary",
          "type": "address"
        }
      ],
      "name": "lockTranche",
      "outputs": [],
      "stateMutability": "nonpayable",
      "type": "function"
    },
    {
      "inputs": [],
      "name": "maxHoldingPerAddress",
      "outputs": [
        {
          "internalType": "uint256",
          "name": "",
          "type": "uint256"
        }
      ],
      "stateMutability": "view",
      "type": "function"
    },
    {
      "inputs": [
        {
          "internalType": "address",
          "name": "",
          "type": "address"
        }
      ],
      "name": "milestoneFrozen",
      "outputs": [
        {
          "internalType": "bool",
          "name": "",
          "type": "bool"
        }
      ],
      "stateMutability": "view",
      "type": "function"
    },
    {
      "inputs": [],
      "name": "minInvestmentAmount",
      "outputs": [
        {
          "internalType": "uint256",
          "name": "",
          "type": "uint256"
        }
      ],
      "stateMutability": "view",
      "type": "function"
    },
    {
      "inputs": [
        {
          "internalType": "address",
          "name": "to",
          "type": "address"
        },
        {
          "internalType": "uint256",
          "name": "amount",
          "type": "uint256"
        }
      ],
      "name": "mint",
      "outputs": [],
      "stateMutability": "nonpayable",
      "type": "function"
    },
    {
      "inputs": [],
      "name": "name",
      "outputs": [
        {
          "internalType": "string",
          "name": "",
          "type": "string"
        }
      ],
      "stateMutability": "view",
      "type": "function"
    },
    {
      "inputs": [],
      "name": "oracleAddress",
      "outputs": [
        {
          "internalType": "address",
          "name": "",
          "type": "address"
        }
      ],
      "stateMutability": "view",
      "type": "function"
    },
    {
      "inputs": [],
      "name": "owner",
      "outputs": [
        {
          "internalType": "address",
          "name": "",
          "type": "address"
        }
      ],
      "stateMutability": "view",
      "type": "function"
    },
    {
      "inputs": [],
      "name": "pause",
      "outputs": [],
      "stateMutability": "nonpayable",
      "type": "function"
    },
    {
      "inputs": [],
      "name": "paused",
      "outputs": [
        {
          "internalType": "bool",
          "name": "",
          "type": "bool"
        }
      ],
      "stateMutability": "view",
      "type": "function"
    },
    {
      "inputs": [
        {
          "internalType": "address",
          "name": "token",
          "type": "address"
        },
        {
          "internalType": "address",
          "name": "to",
          "type": "address"
        },
        {
          "internalType": "uint256",
          "name": "amount",
          "type": "uint256"
        }
      ],
      "name": "recoverERC20",
      "outputs": [],
      "stateMutability": "nonpayable",
      "type": "function"
    },
    {
      "inputs": [
        {
          "internalType": "uint256",
          "name": "startupId",
          "type": "uint256"
        },
        {
          "internalType": "uint256",
          "name": "trancheIndex",
          "type": "uint256"
        },
        {
          "internalType": "bytes",
          "name": "proof",
          "type": "bytes"
        }
      ],
      "name": "releaseTranche",
      "outputs": [],
      "stateMutability": "nonpayable",
      "type": "function"
    },
    {
      "inputs": [],
      "name": "renounceOwnership",
      "outputs": [],
      "stateMutability": "nonpayable",
      "type": "function"
    },
    {
      "inputs": [
        {
          "internalType": "address",
          "name": "startupToken",
          "type": "address"
        }
      ],
      "name": "restoreMilestoneFunding",
      "outputs": [],
      "stateMutability": "nonpayable",
      "type": "function"
    },
    {
      "inputs": [
        {
          "internalType": "address",
          "name": "investor",
          "type": "address"
        },
        {
          "internalType": "bool",
          "name": "status",
          "type": "bool"
        }
      ],
      "name": "setAccreditedInvestor",
      "outputs": [],
      "stateMutability": "nonpayable",
      "type": "function"
    },
    {
      "inputs": [
        {
          "internalType": "address",
          "name": "_compliance",
          "type": "address"
        }
      ],
      "name": "setCompliance",
      "outputs": [],
      "stateMutability": "nonpayable",
      "type": "function"
    },
    {
      "inputs": [
        {
          "internalType": "address",
          "name": "_identityRegistry",
          "type": "address"
        }
      ],
      "name": "setIdentityRegistry",
      "outputs": [],
      "stateMutability": "nonpayable",
      "type": "function"
    },
    {
      "inputs": [
        {
          "internalType": "uint256",
          "name": "_maxHolding",
          "type": "uint256"
        }
      ],
      "name": "setMaxHolding",
      "outputs": [],
      "stateMutability": "nonpayable",
      "type": "function"
    },
    {
      "inputs": [
        {
          "internalType": "uint256",
          "name": "_minInvestment",
          "type": "uint256"
        }
      ],
      "name": "setMinInvestment",
      "outputs": [],
      "stateMutability": "nonpayable",
      "type": "function"
    },
    {
      "inputs": [
        {
          "internalType": "address",
          "name": "_oracle",
          "type": "address"
        }
      ],
      "name": "setOracleAddress",
      "outputs": [],
      "stateMutability": "nonpayable",
      "type": "function"
    },
    {
      "inputs": [
        {
          "internalType": "uint256",
          "name": "",
          "type": "uint256"
        },
        {
          "internalType": "uint256",
          "name": "",
          "type": "uint256"
        }
      ],
      "name": "startupTranches",
      "outputs": [
        {
          "internalType": "uint256",
          "name": "amount",
          "type": "uint256"
        },
        {
          "internalType": "bytes32",
          "name": "milestoneHash",
          "type": "bytes32"
        },
        {
          "internalType": "bool",
          "name": "released",
          "type": "bool"
        },
        {
          "internalType": "uint256",
          "name": "lockTimestamp",
          "type": "uint256"
        },
        {
          "internalType": "address",
          "name": "beneficiary",
          "type": "address"
        }
      ],
      "stateMutability": "view",
      "type": "function"
    },
    {
      "inputs": [],
      "name": "symbol",
      "outputs": [
        {
          "internalType": "string",
          "name": "",
          "type": "string"
        }
      ],
      "stateMutability": "view",
      "type": "function"
    },
    {
      "inputs": [],
      "name": "totalSupply",
      "outputs": [
        {
          "internalType": "uint256",
          "name": "",
          "type": "uint256"
        }
      ],
      "stateMutability": "view",
      "type": "function"
    },
    {
      "inputs": [
        {
          "internalType": "address",
          "name": "to",
          "type": "address"
        },
        {
          "internalType": "uint256",
          "name": "amount",
          "type": "uint256"
        }
      ],
      "name": "transfer",
      "outputs": [
        {
          "internalType": "bool",
          "name": "",
          "type": "bool"
        }
      ],
      "stateMutability": "nonpayable",
      "type": "function"
    },
    {
      "inputs": [
        {
          "internalType": "address",
          "name": "from",
          "type": "address"
        },
        {
          "internalType": "address",
          "name": "to",
          "type": "address"
        },
        {
          "internalType": "uint256",
          "name": "amount",
          "type": "uint256"
        }
      ],
      "name": "transferFrom",
      "outputs": [
        {
          "internalType": "bool",
          "name": "",
          "type": "bool"
        }
      ],
      "stateMutability": "nonpayable",
      "type": "function"
    },
    {
      "inputs": [
        {
          "internalType": "address",
          "name": "newOwner",
          "type": "address"
        }
      ],
      "name": "transferOwnership",
      "outputs": [],
      "stateMutability": "nonpayable",
      "type": "function"
    },
    {
      "inputs": [],
      "name": "unpause",
      "outputs": [],
      "stateMutability": "nonpayable",
      "type": "function"
    },
    {
      "inputs": [
        {
          "internalType": "bytes32",
          "name": "",
          "type": "bytes32"
        }
      ],
      "name": "verifiedMilestones",
      "outputs": [
        {
          "internalType": "bool",
          "name": "",
          "type": "bool"
        }
      ],
      "stateMutability": "view",
      "type": "function"
    }
  ],
  "bytecode": "0x60803462000466576001600160401b0390601f90601f19620029c63881900384810183168401868111858210176200046b57849282916040528339602093849181010312620004665751936001600160a01b03918286169182870362000466576200006962000481565b91601b83527f496e74656c6c695374616b6520536563757269747920546f6b656e0000000000868401526200009d62000481565b96600497888152634953544b60e01b8882015284519284841162000367576003938454966001978881811c911680156200045b575b8c8210146200044657908b8287859411620003ed575b50508b9086831160011462000388576000926200037c575b505060001982871b1c191690871b1784555b8151948511620003675789548681811c911680156200035c575b8a8210146200034757908184879695949311620002eb575b508992851160011462000283575060009362000277575b505082841b92600019911b1c19161785555b6200017833620004a1565b60065560ff196007541660075515908115620001ba575b69d3c21bcecceda1000000600e55683635c9adc5dea00000600f556040516124db9081620004eb8239f35b339060055416036200023557620001e3575050620001d890620004a1565b38808080806200018f565b60405162461bcd60e51b815291820152602660248201527f4f776e61626c653a206e6577206f776e657220697320746865207a65726f206160448201526564647265737360d01b606482015260849150fd5b60648383806040519262461bcd60e51b845283015260248201527f4f776e61626c653a2063616c6c6572206973206e6f7420746865206f776e65726044820152fd5b0151915038806200015b565b86959392919316928a600052896000209360005b8b828210620002d45750508511620002b9575b50505050811b0185556200016d565b01519060f884600019921b161c1916905538808080620002aa565b838501518755899890960195938401930162000297565b9091929394508a600052896000208480880160051c8201928c89106200033d575b918991899897969594930160051c01915b8281106200032d57505062000144565b600081558897508991016200031d565b925081926200030c565b60228b634e487b7160e01b6000525260246000fd5b90607f16906200012c565b60418a634e487b7160e01b6000525260246000fd5b01519050388062000100565b908c91858b95168960005283600020936000905b828210620003d55750508411620003bc575b505050811b01845562000112565b015160001983891b60f8161c19169055388080620003ae565b8385015186558d979095019493840193018f6200039c565b909192508760005286826000209181860160051c83019386106200043c575b918b91869594930160051c01915b8281106200042c57508d9150620000e8565b600081558594508b91016200041a565b925081926200040c565b60228d634e487b7160e01b6000525260246000fd5b90607f1690620000d2565b600080fd5b634e487b7160e01b600052604160045260246000fd5b60408051919082016001600160401b038111838210176200046b57604052565b600580546001600160a01b039283166001600160a01b0319821681179092559091167f8be0079c531659141344cd1fd0a4f28419497f9722a3daafe3b4186f6b6457e0600080a356fe608060409080825260048036101561001657600080fd5b600091823560e01c90816306fdde03146119fe575080630936c3d3146117de578063095ea7b3146117b45780631171bda9146116bd578063134e18f41461169057806318160ddd14611671578063196513d21461160757806321afda2d14610b9457806323b872dd1461150a578063266bf935146113cd5780632db4c5981461139f578063313ce5671461138357806339509351146113335780633f4ba83a1461129c57806340c10f191461117d57806342966c681461106f5780634c69c00f14610fc45780634d298a0714610fa5578063591aa48314610f205780635c975abb14610efc5780636290865d14610ed357806370a0823114610e9c578063715018a614610e3f57806372110f7114610dc45780638456cb5914610d695780638da5cb5b14610d40578063923be10814610bd257806394c50b7114610b9457806395d89b4114610a915780639bc7c8c014610a21578063a0eb24b5146109e3578063a457c2d71461093f578063a89ae4ba14610916578063a9059cbb14610898578063ba7ed2ff14610877578063c692516a146106ea578063cbf3f86114610623578063d3b9e7dc146104d2578063dd62ed3e1461047e578063e46638e614610462578063ea512cbd14610443578063f2fde38b14610376578063f63ac76214610347578063f8981789146102915763fcb40fd41461021357600080fd5b3461028d57602036600319011261028d573581526009602052818120805490825b828110610245576020848651908152f35b60ff60026102538385611b8f565b500154161561026b575b61026690611e0d565b610234565b926102856102669161027d8685611b8f565b505490611ce8565b93905061025d565b5080fd5b50829034610343576020366003190112610343576102ad611b3f565b6102b5611c20565b6001600160a01b0316918215610300575050600880546001600160a01b031916821790557fa970409706553acbb8c86c1bc79621a1e9decfe2e5f083d3ee9dc215d07cea398280a280f35b906020606492519162461bcd60e51b8352820152601a60248201527f496e76616c696420636f6d706c69616e636520616464726573730000000000006044820152fd5b8280fd5b82843461028d57602036600319011261028d5760209061036d610368611b3f565b611e5a565b90519015158152f35b5082903461034357602036600319011261034357610392611b3f565b9061039b611c20565b6001600160a01b039182169283156103f1575050600554826bffffffffffffffffffffffff60a01b821617600555167f8be0079c531659141344cd1fd0a4f28419497f9722a3daafe3b4186f6b6457e08380a380f35b906020608492519162461bcd60e51b8352820152602660248201527f4f776e61626c653a206e6577206f776e657220697320746865207a65726f206160448201526564647265737360d01b6064820152fd5b82843461028d578160031936011261028d57602090600e549051908152f35b82843461028d5760209061036d61047836611b5a565b91611eee565b82843461028d578060031936011261028d57610498611b3f565b6001600160a01b0360243581811692908390036104ce579160209491849316825260018552828220908252845220549051908152f35b8480fd5b50913461028d578060031936011261028d5767ffffffffffffffff92803584811161061f576105049036908301611bef565b9190946024359081116104ce5761051e9036908301611bef565b91610527611c20565b8284036105e45750845b83811061053c578580f35b80857f18fdfd36fb509f2cced57dada676af65d4138954bf356b40880d3a1b30443ae4886105c061059a858a8e6105bb61058261057d6105df9c8f8f611e1c565b611e2c565b6001600160a01b03998a61059f61059a888888611e1c565b611e39565b168952602098600b8a52209060ff801983541691151516179055565b611e1c565b926105cf61057d868a8a611e1c565b938a5194151585521692a2611e0d565b610531565b606490602086519162461bcd60e51b83528201526015602482015274082e4e4c2f240d8cadccee8d040dad2e6dac2e8c6d605b1b6044820152fd5b8380fd5b508290346103435760203660031901126103435761063f611b3f565b90610648611c20565b6001600160a01b0382169283156106a757505060078054610100600160a81b03191660089290921b610100600160a81b03169190911790557f8aa6172b9dcbe4f05892121059bc535d4743d706ba3ac6cbabf4a40de229e3888280a280f35b906020606492519162461bcd60e51b8352820152601860248201527f496e76616c6964207265676973747279206164647265737300000000000000006044820152fd5b50913461028d57606036600319011261028d5782359060243560443567ffffffffffffffff81116104ce576107229036908701611bc1565b61072a611c20565b6107326120b8565b8486526009602052838620805484101561083c578361075091611b8f565b5091600283019160ff83541661082057610770906001850154928361231f565b1561081057966107fc91600189899a7ff2c471e2eb8d5a61cea66ab82bab6dc0234916165c56d4d3953da6531976d8c5999a52600a602052878b209060ff199183838254161790557fdfab6d57ca95faa91c42574906d1d4c6f78eb5cc2f846c1f898a08a8dd73ee3260208a51428152a28254161790558201548254906001600160a01b0316306121b1565b5482519182526020820152a2600160065580f35b8451631060f16160e01b81528890fd5b60448986898951926321c9d91960e11b84528301526024820152fd5b845162461bcd60e51b81526020818a01526015602482015274092dcecc2d8d2c840e8e4c2dcc6d0ca40d2dcc8caf605b1b6044820152606490fd5b503461028d57602036600319011261028d57610891611c20565b35600f5580f35b50919034610913578160031936011261091357506108b4611b3f565b91602435906108c1612461565b6108cc828533611eee565b156108e657506108df90602093336121b1565b5160018152f35b91516379f913bb60e11b8152339281019283526001600160a01b0390931660208301525081906040010390fd5b80fd5b82843461028d578160031936011261028d57600c5490516001600160a01b039091168152602090f35b509034610913578260031936011261091357610959611b3f565b918360243592338152600160205281812060018060a01b0386168252602052205490828210610992576020856108df8585038733611d0b565b608490602086519162461bcd60e51b8352820152602560248201527f45524332303a2064656372656173656420616c6c6f77616e63652062656c6f77604482015264207a65726f60d81b6064820152fd5b82843461028d57602036600319011261028d5760209160ff9082906001600160a01b03610a0e611b3f565b168152600b855220541690519015158152f35b5082903461034357602036600319011261034357803591610a40611c20565b8215610a4e575050600e5580f35b906020606492519162461bcd60e51b8352820152601c60248201527f4d617820686f6c64696e67206d75737420626520706f736974697665000000006044820152fd5b50913461028d578160031936011261028d57805191809380549160019083821c92828516948515610b8a575b6020958686108114610b7757858952908115610b535750600114610afb575b610af78787610aed828c0383611cc6565b5191829182611b13565b0390f35b81529295507f8a35acfbc15ff81a39ae7d344fd709f28e8600b4aa8c65c6b64bfe7fe36bd19b5b828410610b405750505082610af794610aed92820101943880610adc565b8054868501880152928601928101610b22565b60ff19168887015250505050151560051b8301019250610aed82610af73880610adc565b634e487b7160e01b845260228352602484fd5b93607f1693610abd565b82843461028d57602036600319011261028d5760209160ff9082906001600160a01b03610bbf611b3f565b168152600d855220541690519015158152f35b508234610343578060031936011261034357610bec611b3f565b9060243567ffffffffffffffff81116104ce57610c0c9036908501611bc1565b600c5490936001600160a01b0391821633148015610d33575b15610ce15716938415610c9e57508291827f3b1c53af6d7fe56c23b93c48665fc2cd845aa4c8b085041cb928f8e47c8ab96994606093878952600d602052838920600160ff198254161790558351958487958652850152848401378181018301879052426020830152601f01601f19168101030190a280f35b606490602084519162461bcd60e51b8352820152601d60248201527f496e76616c6964207374617274757020746f6b656e20616464726573730000006044820152fd5b835162461bcd60e51b8152602081880152602660248201527f496e74656c6c695374616b65546f6b656e3a206e6f74206f7261636c65206f726044820152651037bbb732b960d11b6064820152608490fd5b5081600554163314610c25565b82843461028d578160031936011261028d5760055490516001600160a01b039091168152602090f35b82843461028d578160031936011261028d5760207f62e78cea01bee320cd4e420270b5ea74000d11b0c9f74754ebdbfc544b05a25891610da7611c20565b610daf612461565b600160ff19600754161760075551338152a180f35b5082903461034357816003193601126103435760243592813581526009602052828120908154851015610913575060a093610dfe91611b8f565b509081549260018301549260ff60028201541690600381015493600180891b0391015416938251958652602086015215159084015260608301526080820152f35b8234610913578060031936011261091357610e58611c20565b600580546001600160a01b0319811690915581906001600160a01b03167f8be0079c531659141344cd1fd0a4f28419497f9722a3daafe3b4186f6b6457e08280a380f35b82843461028d57602036600319011261028d5760209181906001600160a01b03610ec4611b3f565b16815280845220549051908152f35b82843461028d578160031936011261028d5760085490516001600160a01b039091168152602090f35b82843461028d578160031936011261028d5760209060ff6007541690519015158152f35b82843461028d578060031936011261028d57610f3a611b3f565b90602435918215158084036104ce577f18fdfd36fb509f2cced57dada676af65d4138954bf356b40880d3a1b30443ae492610f9d602093610f79611c20565b60018060a01b031695868852600b85528288209060ff801983541691151516179055565b51908152a280f35b82843461028d578160031936011261028d57602090600f549051908152f35b5082903461034357602036600319011261034357610fe0611b3f565b610fe8611c20565b6001600160a01b0316918215611033575050600c80546001600160a01b031916821790557fdd82bdfc28fcc826c53263dc2a2b6083e27e92699ebfee617227e08e21c202f08280a280f35b906020606492519162461bcd60e51b83528201526016602482015275496e76616c6964206f7261636c65206164647265737360501b6044820152fd5b508234610343576020908160031936011261061f5782359233156111325733855284835281852054908482106110e45750917fddf252ad1be2c89b69c2b068fc378daa952ba7f163c4a11628f55a4df523b3ef918486959433875286845203818620558360025403600255519283523392a380f35b825162461bcd60e51b8152908101849052602260248201527f45524332303a206275726e20616d6f756e7420657863656564732062616c616e604482015261636560f01b6064820152608490fd5b82608492519162461bcd60e51b8352820152602160248201527f45524332303a206275726e2066726f6d20746865207a65726f206164647265736044820152607360f81b6064820152fd5b503461028d578260031936011261028d57611196611b3f565b602435916111a2611c20565b6111aa612461565b6111b382611e5a565b1561127b576001600160a01b038216808552600b6020528585205460ff161561126557808552846020526111ea8487872054611ce8565b600e54106112375784528360205284842054158061122c575b6112155750906112129161210e565b80f35b845163f39c9da560e01b8152908101839052602490fd5b50600f548310611203565b508451632dd7f6f760e21b81526001600160a01b039092169082019081526020810183905281906040010390fd5b855163022b9a4360e41b81529182015260249150fd5b845163c438268160e01b81526001600160a01b039092169082015260249150fd5b508290346103435782600319360112610343576112b7611c20565b6007549060ff8216156112f9575060ff1916600755513381527f5db9ee0a495bf2e6ff9c91a7834c1ba4fdd244a5e8aa4e537bd38aeae4b073aa90602090a180f35b606490602084519162461bcd60e51b8352820152601460248201527314185d5cd8589b194e881b9bdd081c185d5cd95960621b6044820152fd5b82843461028d578060031936011261028d576108df60209261137c611356611b3f565b338352600186528483206001600160a01b03821684528652918490205460243590611ce8565b9033611d0b565b82843461028d578160031936011261028d576020905160128152f35b50829034610343576020366003190112610343578160209360ff92358152600a855220541690519015158152f35b503461028d576020908160031936011261034357803583526009825283832091825467ffffffffffffffff81116114f757855191949260059061141483831b880185611cc6565b82845286840190819686528786209086925b85841061149b57505050505050845193808501918186525180925285850193925b8281106114545785850386f35b835180518652808301518684015287810151151588870152606080820151908701526080908101516001600160a01b03169086015260a09094019392810192600101611447565b848a6001928d809d9a9b9d51906114b182611c78565b87548252858801548483015260ff60028901541615159082015260038701546060820152848060a01b038688015416608082015281520193019301929198969598611426565b634e487b7160e01b855260418352602485fd5b5090346109135761151a36611b5a565b939092611525612461565b611530858585611eee565b156115d8576001600160a01b038316815260016020818152878320338452905290869020549190820161156c575b6020866108df8787876121b1565b848210611595575091839161158a602096956108df95033383611d0b565b91939481935061155e565b606490602087519162461bcd60e51b8352820152601d60248201527f45524332303a20696e73756666696369656e7420616c6c6f77616e63650000006044820152fd5b5084516379f913bb60e11b81526001600160a01b03928316918101918252918316602082015281906040010390fd5b82843461028d57602036600319011261028d577f94609236b230c5f26e301665caa39a97283d2866b100454916a3ff95d2cb0a186020611645611b3f565b61164d611c20565b6001600160a01b0316808552600d8252838520805460ff191690559251428152a280f35b82843461028d578160031936011261028d576020906002549051908152f35b82843461028d578160031936011261028d57600754905160089190911c6001600160a01b03168152602090f35b503461028d576116cc36611b5a565b92916116d6611c20565b6001600160a01b03169130831461177157855163a9059cbb60e01b81526001600160a01b0390921690820190815260208181019490945290928592909184919082908790829060400103925af19081156117685750611733575080f35b6020813d8211611760575b8161174b60209383611cc6565b8101031261028d5761175c90611e4d565b5080f35b3d915061173e565b513d84823e3d90fd5b606490602087519162461bcd60e51b8352820152601b60248201527f43616e6e6f74207265636f766572206e617469766520746f6b656e00000000006044820152fd5b82843461028d578060031936011261028d576020906108df6117d4611b3f565b6024359033611d0b565b50913461028d57608036600319011261028d5760249280359190843590604435906001600160a01b0360643581811692908390036119fa5761181e611c20565b6118266120b8565b82156119c2578415611980578315611945578551986118448a611c78565b858a5260208a0199858b528781019a8a8c526060820191428352608081019687528a8c526009602052898c2080549068010000000000000000821015611933579061189491600182018155611b8f565b94909461192357509b6118e6917f5ecd00b8ea6bc6aae67ac5e2a4d33823434e76868e912a4b0f88b8c5cca63f6c9b9c9d518555516001850155511515600284019060ff801983541691151516179055565b516003820155019151166bffffffffffffffffffffffff60a01b825416179055611910823061210e565b82519182526020820152a2600160065580f35b634e487b7160e01b8d528c86528cfd5b634e487b7160e01b8e5260418752858efd5b60649060168a602089519362461bcd60e51b855284015282015275092dcecc2d8d2c840dad2d8cae6e8dedcca40d0c2e6d60531b6044820152fd5b60649060178a602089519362461bcd60e51b85528401528201527f416d6f756e74206d75737420626520706f7369746976650000000000000000006044820152fd5b60649060138a602089519362461bcd60e51b855284015282015272496e76616c69642062656e656669636961727960681b6044820152fd5b8780fd5b918491503461061f578360031936011261061f57600354600181811c9186908281168015611ae6575b6020958686108214611ad35750848852908115611ab15750600114611a58575b610af78686610aed828b0383611cc6565b929550600383527fc2575a0e9e593c00f959f8c92f12db2869c3395a3b0502d05e2516446f71f85b5b828410611a9e5750505082610af794610aed928201019486611a47565b8054868501880152928601928101611a81565b60ff191687860152505050151560051b8301019250610aed82610af786611a47565b634e487b7160e01b845260229052602483fd5b93607f1693611a27565b60005b838110611b035750506000910152565b8181015183820152602001611af3565b60409160208252611b338151809281602086015260208686019101611af0565b601f01601f1916010190565b600435906001600160a01b0382168203611b5557565b600080fd5b6060906003190112611b55576001600160a01b03906004358281168103611b5557916024359081168103611b55579060443590565b8054821015611bab576000526005602060002091020190600090565b634e487b7160e01b600052603260045260246000fd5b9181601f84011215611b555782359167ffffffffffffffff8311611b555760208381860195010111611b5557565b9181601f84011215611b555782359167ffffffffffffffff8311611b55576020808501948460051b010111611b5557565b6005546001600160a01b03163303611c3457565b606460405162461bcd60e51b815260206004820152602060248201527f4f776e61626c653a2063616c6c6572206973206e6f7420746865206f776e65726044820152fd5b60a0810190811067ffffffffffffffff821117611c9457604052565b634e487b7160e01b600052604160045260246000fd5b6060810190811067ffffffffffffffff821117611c9457604052565b90601f8019910116810190811067ffffffffffffffff821117611c9457604052565b91908201809211611cf557565b634e487b7160e01b600052601160045260246000fd5b6001600160a01b03908116918215611dbc5716918215611d6c5760207f8c5be1e5ebec7d5bd14f71427d1e84f3dd0314c0f7b2291e5b200ac8c7c3b925918360005260018252604060002085600052825280604060002055604051908152a3565b60405162461bcd60e51b815260206004820152602260248201527f45524332303a20617070726f766520746f20746865207a65726f206164647265604482015261737360f01b6064820152608490fd5b60405162461bcd60e51b8152602060048201526024808201527f45524332303a20617070726f76652066726f6d20746865207a65726f206164646044820152637265737360e01b6064820152608490fd5b6000198114611cf55760010190565b9190811015611bab5760051b0190565b358015158103611b555790565b356001600160a01b0381168103611b555790565b51908115158203611b5557565b60075460081c6001600160a01b0390811691908215611ee6576024602092604051948593849263b9209e3360e01b84521660048301525afa908115611eda57600091611ea4575090565b906020823d8211611ed2575b81611ebd60209383611cc6565b810103126109135750611ecf90611e4d565b90565b3d9150611eb0565b6040513d6000823e3d90fd5b505050600190565b9190611ef983611e5a565b156120b057611f0781611e5a565b156120b0576001600160a01b039283169083908215612087575b1691600091838352602093838552604095611f3f8488872054611ce8565b600e54106120725781855284865286852054158061207c575b61207257600d865260ff8786205416612072576008541680611f805750505050505050600190565b84926084918851958694859363dbbc841f60e01b85526004850152602484015260448301523060648301525afa938415612067578294611fc2575b5050505090565b9091929493503d8084843e611fd78184611cc6565b820194818387031261061f57611fec83611e4d565b938184015167ffffffffffffffff9485821161034357019287601f8501121561028d57835194851161205357519661202d601f8601601f1916840189611cc6565b84885282858501011161091357508061204a949596019101611af0565b38808080611fbb565b634e487b7160e01b82526041600452602482fd5b51913d9150823e3d90fd5b5050505091505090565b50600f548410611f58565b908116600052600b60205260ff60406000205416156120a7578390611f21565b50505050600090565b505050600090565b6002600654146120c9576002600655565b60405162461bcd60e51b815260206004820152601f60248201527f5265656e7472616e637947756172643a207265656e7472616e742063616c6c006044820152606490fd5b6001600160a01b031690811561216c577fddf252ad1be2c89b69c2b068fc378daa952ba7f163c4a11628f55a4df523b3ef602082612150600094600254611ce8565b60025584845283825260408420818154019055604051908152a3565b60405162461bcd60e51b815260206004820152601f60248201527f45524332303a206d696e7420746f20746865207a65726f2061646472657373006044820152606490fd5b6001600160a01b039081169182156122cc571691821561227b5760008281528060205260408120549180831061222757604082827fddf252ad1be2c89b69c2b068fc378daa952ba7f163c4a11628f55a4df523b3ef958760209652828652038282205586815220818154019055604051908152a3565b60405162461bcd60e51b815260206004820152602660248201527f45524332303a207472616e7366657220616d6f756e7420657863656564732062604482015265616c616e636560d01b6064820152608490fd5b60405162461bcd60e51b815260206004820152602360248201527f45524332303a207472616e7366657220746f20746865207a65726f206164647260448201526265737360e81b6064820152608490fd5b60405162461bcd60e51b815260206004820152602560248201527f45524332303a207472616e736665722066726f6d20746865207a65726f206164604482015264647265737360d81b6064820152608490fd5b909160410361245a57801561245a57600c546001600160a01b0390811692909190831561245157604091825160208101918252468482015283815261236381611caa565b519020825160208101917f19457468657265756d205369676e6564204d6573736167653a0a3332000000008352603c820152603c81526123a281611caa565b519020908281013560001a601b811061242f575b60ff1690601b82141580612424575b61241957602092836080926000948751938452828401528035878401520135606082015282805260015afa1561240f57506000511690811515918261240957505090565b14919050565b513d6000823e3d90fd5b505050505050600090565b50601c8214156123c5565b601b0160ff8111156123b657634e487b7160e01b600052601160045260246000fd5b50505050600190565b5050600090565b60ff6007541661246d57565b60405162461bcd60e51b815260206004820152601060248201526f14185d5cd8589b194e881c185d5cd95960821b6044820152606490fdfea2646970667358221220d80b1e9b9f2679a9c23716f41d6c206b87ae9c97c711c7d3d57392f13448ea6164736f6c63430008130033",
  "linkReferences": {},
  "deployedLinkReferences": {}
}