{
  "_format": "hh-sol-artifact-1",
  "contractName": "TrustOracle",
  "sourceName": "contracts/TrustOracle.sol",
  "abi": [
    {
      "inputs": [
        {
          "internalType": "address",
          "name": "_oracleSigner",
          "type": "address"
        },
        {
          "internalType": "address",
          "name": "_milestoneEscrow",
          "type": "address"
        },
        {
          "internalType": "address",
          "name": "_complianceRules",
          "type": "address"
        }
      ],
      "stateMutability": "nonpayable",
      "type": "constructor"
    },
    {
      "inputs": [
        {
          "internalType": "address",
          "name": "recovered",
          "type": "address"
        },
        {
          "internalType": "address",
          "name": "expected",
          "type": "address"
        }
      ],
      "name": "InvalidSignature",
      "type": "error"
    },
    {
      "inputs": [
        {
          "internalType": "uint256",
          "name": "score",
          "type": "uint256"
        }
      ],
      "name": "InvalidTrustScore",
      "type": "error"
    },
    {
      "inputs": [
        {
          "internalType": "bytes32",
          "name": "nonce",
          "type": "bytes32"
        }
      ],
      "name": "NonceAlreadyUsed",
      "type": "error"
    },
    {
      "inputs": [
        {
          "internalType": "uint256",
          "name": "dataTimestamp",
          "type": "uint256"
        },
        {
          "internalType": "uint256",
          "name": "currentTime",
          "type": "uint256"
        },
        {
          "internalType": "uint256",
          "name": "maxAge",
          "type": "uint256"
        }
      ],
      "name": "StaleOracleData",
      "type": "error"
    },
    {
      "inputs": [
        {
          "internalType": "address",
          "name": "caller",
          "type": "address"
        }
      ],
      "name": "Unauthorised",
      "type": "error"
    },
    {
      "inputs": [
        {
          "internalType": "bytes32",
          "name": "startupId",
          "type": "bytes32"
        },
        {
          "internalType": "uint256",
          "name": "nextAllowedTime",
          "type": "uint256"
        }
      ],
      "name": "UpdateTooFrequent",
      "type": "error"
    },
    {
      "inputs": [],
      "name": "ZeroAddress",
      "type": "error"
    },
    {
      "anonymous": false,
      "inputs": [
        {
          "indexed": true,
          "internalType": "address",
          "name": "newCompliance",
          "type": "address"
        }
      ],
      "name": "ComplianceRulesUpdated",
      "type": "event"
    },
    {
      "anonymous": false,
      "inputs": [
        {
          "indexed": true,
          "internalType": "bytes32",
          "name": "startupId",
          "type": "bytes32"
        },
        {
          "indexed": false,
          "internalType": "address",
          "name": "startupToken",
          "type": "address"
        },
        {
          "indexed": false,
          "internalType": "uint8",
          "name": "complianceScore",
          "type": "uint8"
        }
      ],
      "name": "ComplianceScoreForwarded",
      "type": "event"
    },
    {
      "anonymous": false,
      "inputs": [
        {
          "indexed": true,
          "internalType": "bytes32",
          "name": "startupId",
          "type": "bytes32"
        },
        {
          "indexed": false,
          "internalType": "uint256",
          "name": "trustScore",
          "type": "uint256"
        },
        {
          "indexed": false,
          "internalType": "string",
          "name": "reason",
          "type": "string"
        }
      ],
      "name": "FreezeTriggered",
      "type": "event"
    },
    {
      "anonymous": false,
      "inputs": [
        {
          "indexed": true,
          "internalType": "address",
          "name": "newEscrow",
          "type": "address"
        }
      ],
      "name": "MilestoneEscrowUpdated",
      "type": "event"
    },
    {
      "anonymous": false,
      "inputs": [
        {
          "indexed": true,
          "internalType": "address",
          "name": "newSigner",
          "type": "address"
        }
      ],
      "name": "OracleSignerUpdated",
      "type": "event"
    },
    {
      "anonymous": false,
      "inputs": [
        {
          "indexed": true,
          "internalType": "bytes32",
          "name": "startupId",
          "type": "bytes32"
        },
        {
          "indexed": false,
          "internalType": "uint8",
          "name": "trancheId",
          "type": "uint8"
        },
        {
          "indexed": false,
          "internalType": "uint256",
          "name": "trustScore",
          "type": "uint256"
        }
      ],
      "name": "TrancheApprovalForwarded",
      "type": "event"
    },
    {
      "anonymous": false,
      "inputs": [
        {
          "indexed": true,
          "internalType": "bytes32",
          "name": "startupId",
          "type": "bytes32"
        },
        {
          "indexed": false,
          "internalType": "uint256",
          "name": "trustScore",
          "type": "uint256"
        },
        {
          "indexed": false,
          "internalType": "uint8",
          "name": "trancheId",
          "type": "uint8"
        },
        {
          "indexed": false,
          "internalType": "address",
          "name": "startupToken",
          "type": "address"
        },
        {
          "indexed": false,
          "internalType": "uint256",
          "name": "timestamp",
          "type": "uint256"
        }
      ],
      "name": "TrustScoreUpdated",
      "type": "event"
    },
    {
      "inputs": [],
      "name": "FREEZE_THRESHOLD",
      "outputs": [
        {
          "internalType": "uint256",
          "name": "",
          "type": "uint256"
        }
      ],
      "stateMutability": "view",
      "type": "function"
    },
    {
      "inputs": [],
      "name": "MAX_DATA_AGE",
      "outputs": [
        {
          "internalType": "uint256",
          "name": "",
          "type": "uint256"
        }
      ],
      "stateMutability": "view",
      "type": "function"
    },
    {
      "inputs": [],
      "name": "TRANCHE_FREEZE_ONLY",
      "outputs": [
        {
          "internalType": "uint8",
          "name": "",
          "type": "uint8"
        }
      ],
      "stateMutability": "view",
      "type": "function"
    },
    {
      "inputs": [],
      "name": "TRUST_SCALE",
      "outputs": [
        {
          "internalType": "uint256",
          "name": "",
          "type": "uint256"
        }
      ],
      "stateMutability": "view",
      "type": "function"
    },
    {
      "inputs": [],
      "name": "UPDATE_INTERVAL",
      "outputs": [
        {
          "internalType": "uint256",
          "name": "",
          "type": "uint256"
        }
      ],
      "stateMutability": "view",
      "type": "function"
    },
    {
      "inputs": [],
      "name": "complianceRules",
      "outputs": [
        {
          "internalType": "contract IComplianceRules",
          "name": "",
          "type": "address"
        }
      ],
      "stateMutability": "view",
      "type": "function"
    },
    {
      "inputs": [
        {
          "internalType": "bytes32",
          "name": "startupId",
          "type": "bytes32"
        },
        {
          "internalType": "string",
          "name": "reason",
          "type": "string"
        }
      ],
      "name": "emergencyFreeze",
      "outputs": [],
      "stateMutability": "nonpayable",
      "type": "function"
    },
    {
      "inputs": [
        {
          "internalType": "bytes32",
          "name": "startupId",
          "type": "bytes32"
        }
      ],
      "name": "getTrustScore",
      "outputs": [
        {
          "internalType": "uint256",
          "name": "score",
          "type": "uint256"
        },
        {
          "internalType": "uint256",
          "name": "updatedAt",
          "type": "uint256"
        }
      ],
      "stateMutability": "view",
      "type": "function"
    },
    {
      "inputs": [
        {
          "internalType": "bytes32",
          "name": "nonce",
          "type": "bytes32"
        }
      ],
      "name": "isNonceUsed",
      "outputs": [
        {
          "internalType": "bool",
          "name": "",
          "type": "bool"
        }
      ],
      "stateMutability": "view",
      "type": "function"
    },
    {
      "inputs": [
        {
          "internalType": "bytes32",
          "name": "",
          "type": "bytes32"
        }
      ],
      "name": "lastTrustScore",
      "outputs": [
        {
          "internalType": "uint256",
          "name": "",
          "type": "uint256"
        }
      ],
      "stateMutability": "view",
      "type": "function"
    },
    {
      "inputs": [
        {
          "internalType": "bytes32",
          "name": "",
          "type": "bytes32"
        }
      ],
      "name": "lastUpdateTime",
      "outputs": [
        {
          "internalType": "uint256",
          "name": "",
          "type": "uint256"
        }
      ],
      "stateMutability": "view",
      "type": "function"
    },
    {
      "inputs": [],
      "name": "milestoneEscrow",
      "outputs": [
        {
          "internalType": "contract IMilestoneEscrow",
          "name": "",
          "type": "address"
        }
      ],
      "stateMutability": "view",
      "type": "function"
    },
    {
      "inputs": [],
      "name": "oracleSigner",
      "outputs": [
        {
          "internalType": "address",
          "name": "",
          "type": "address"
        }
      ],
      "stateMutability": "view",
      "type": "function"
    },
    {
      "inputs": [],
      "name": "owner",
      "outputs": [
        {
          "internalType": "address",
          "name": "",
          "type": "address"
        }
      ],
      "stateMutability": "view",
      "type": "function"
    },
    {
      "inputs": [
        {
          "internalType": "bytes32",
          "name": "startupId",
          "type": "bytes32"
        },
        {
          "internalType": "uint256",
          "name": "trustScore",
          "type": "uint256"
        },
        {
          "internalType": "uint8",
          "name": "trancheId",
          "type": "uint8"
        },
        {
          "internalType": "address",
          "name": "startupToken",
          "type": "address"
        },
        {
          "internalType": "uint256",
          "name": "dataTimestamp",
          "type": "uint256"
        },
        {
          "internalType": "bytes32",
          "name": "nonce",
          "type": "bytes32"
        },
        {
          "internalType": "bytes",
          "name": "signature",
          "type": "bytes"
        }
      ],
      "name": "pushTrustScore",
      "outputs": [],
      "stateMutability": "nonpayable",
      "type": "function"
    },
    {
      "inputs": [
        {
          "internalType": "address",
          "name": "_compliance",
          "type": "address"
        }
      ],
      "name": "setComplianceRules",
      "outputs": [],
      "stateMutability": "nonpayable",
      "type": "function"
    },
    {
      "inputs": [
        {
          "internalType": "address",
          "name": "_escrow",
          "type": "address"
        }
      ],
      "name": "setMilestoneEscrow",
      "outputs": [],
      "stateMutability": "nonpayable",
      "type": "function"
    },
    {
      "inputs": [
        {
          "internalType": "address",
          "name": "_signer",
          "type": "address"
        }
      ],
      "name": "setOracleSigner",
      "outputs": [],
      "stateMutability": "nonpayable",
      "type": "function"
    },
    {
      "inputs": [
        {
          "internalType": "address",
          "name": "newOwner",
          "type": "address"
        }
      ],
      "name": "transferOwnership",
      "outputs": [],
      "stateMutability": "nonpayable",
      "type": "function"
    },
    {
      "inputs": [
        {
          "internalType": "bytes32",
          "name": "",
          "type": "bytes32"
        }
      ],
      "name": "usedNonces",
      "outputs": [
        {
          "internalType": "bool",
          "name": "",
          "type": "bool"
        }
      ],
      "stateMutability": "view",
      "type": "function"
    },
    {
      "inputs": [
        {
          "internalType": "bytes32",
          "name": "startupId",
          "type": "bytes32"
        },
        {
          "internalType": "uint256",
          "name": "trustScore",
          "type": "uint256"
        },
        {
          "internalType": "uint256",
          "name": "dataTimestamp",
          "type": "uint256"
        },
        {
          "internalType": "bytes32",
          "name": "nonce",
          "type": "bytes32"
        },
        {
          "internalType": "bytes",
          "name": "signature",
          "type": "bytes"
        }
      ],
      "name": "verifySignature",
      "outputs": [
        {
          "internalType": "address",
          "name": "signer",
          "type": "address"
        },
        {
          "internalType": "bool",
          "name": "valid",
          "type": "bool"
        }
      ],
      "stateMutability": "view",
      "type": "function"
    }
  ],
  "bytecode": "0x6080346100c457601f610f7f38819003918201601f19168301916001600160401b038311848410176100c9578084926060946040528339810103126100c457610047816100df565b61005f6040610058602085016100df565b93016100df565b6001600160a01b039182169283156100b257829060018060a01b031994338660005416176000558560015416176001551683600254161760025516906003541617600355604051610e8b90816100f48239f35b60405163d92e233d60e01b8152600490fd5b600080fd5b634e487b7160e01b600052604160045260246000fd5b51906001600160a01b03821682036100c45756fe6080604081815260048036101561001557600080fd5b600092833560e01c9081631709a61b1461074457508063173ff77d1461072757806328bff9db146106a0578063313a84d81461062c578063518a9544146106035780635321f047146105e65780635324ba32146105c057806355461f00146105355780636626dda0146105185780636ec58d13146104ef5780637cd43405146104d357806389ac4147146104b65780638da5cb5b1461048e578063995121b514610467578063a2cb50ad14610433578063adf12b221461032b578063b90665e5146102ff578063c13de0a314610222578063c5161ee1146101a6578063f2fde38b146101395763feb617241461010a57600080fd5b34610135576020366003190112610135578160209360ff923581526006855220541690519015158152f35b8280fd5b503461013557602036600319011261013557610153610769565b835491906001600160a01b0390818416330361019057169283156101835750506001600160a01b03191617815580f35b5163d92e233d60e01b8152fd5b845163570870ef60e11b81523381850152602490fd5b83823461021e5760e036600319011261021e576044359060ff82168203610135576064356001600160a01b03811681036102195760c4359267ffffffffffffffff8411610215576101fd610212943690850161077f565b93909260a43592608435926024359035610815565b80f35b8480fd5b600080fd5b5080fd5b5082346102fc5760a03660031901126102fc576084359067ffffffffffffffff82116102fc57509061025a6102dd923690830161077f565b845192356020840190815260243560408501526044356060850152606435608085015290926102968160a081015b03601f1981018352826107f3565b519020845160208101917f19457468657265756d205369676e6564204d6573736167653a0a3332000000008352603c820152603c81526102d5816107d7565b519020610d24565b60015482516001600160a01b0392831680825291909216146020820152f35b80fd5b5034610135576020366003190112610135578160209360ff923581526006855220541690519015158152f35b50903461013557806003193601126101355781359060243567ffffffffffffffff81116102155761035f903690850161077f565b85546001600160a01b0392908316330361041d57937f34de707675b1b7aa9fce9da263e4b501a3701170e51f46b15d140b4a7538239382606089978796958598519384928b8452896020850152818a8501528484013781810183018a9052601f01601f19168101030190a26002541693846103d8578380f35b843b15610419578360449251958694859362227b7f60e41b85528401528160248401525af161040a575b818180808380f35b610413906107ad565b38610402565b8380fd5b835163570870ef60e11b81523381880152602490fd5b5082903461021e57602036600319011261021e57803582526020528180822054916005602052205482519182526020820152f35b50346101355760203660031901126101355760209282913581526005845220549051908152f35b50503461021e578160031936011261021e57905490516001600160a01b039091168152602090f35b50503461021e578160031936011261021e5760209051610e108152f35b50503461021e578160031936011261021e576020905160ff8152f35b50503461021e578160031936011261021e5760035490516001600160a01b039091168152602090f35b50503461021e578160031936011261021e576020905161015e8152f35b50346101355760203660031901126101355761054f610769565b83546001600160a01b039391929190841633036105a957505016806bffffffffffffffffffffffff60a01b60035416176003557fc49efeecbee17783c3763c02b45f43fb52b20da929358ce165f05be94513ed608280a280f35b60249250519063570870ef60e11b82523390820152fd5b503461013557602036600319011261013557602092818392358252845220549051908152f35b50503461021e578160031936011261021e57602090516154608152f35b50503461021e578160031936011261021e5760025490516001600160a01b039091168152602090f35b503461013557602036600319011261013557610646610769565b83546001600160a01b039391929190841633036105a957505016806bffffffffffffffffffffffff60a01b60025416176002557fc9b944aaf2d0e95a44d2333e83b669781149a9ec382f998a42591a46a68109928280a280f35b5034610135576020366003190112610135576106ba610769565b83546001600160a01b039190821633036107115716918215610183575050600180546001600160a01b031916821790557f9787ad339c4bc9e4b4743a2e50da52ee5b40e7096843872095b8280a501522468280a280f35b835163570870ef60e11b81523381850152602490fd5b50503461021e578160031936011261021e57602090516103e88152f35b84903461021e578160031936011261021e576001546001600160a01b03168152602090f35b600435906001600160a01b038216820361021957565b9181601f840112156102195782359167ffffffffffffffff8311610219576020838186019501011161021957565b67ffffffffffffffff81116107c157604052565b634e487b7160e01b600052604160045260246000fd5b6060810190811067ffffffffffffffff8211176107c157604052565b90601f8019910116810190811067ffffffffffffffff8211176107c157604052565b969490919293956103e88311610cc8576000958287526020916006835260409860ff8a8a205416610cb057615460808201808311610c9c574211610c7957508a89526005845289892054610e108101809111610c6557804210610c48575089518481018c8152602081018890526040810192909252606082018690526108e3939291906108a58160808401610288565b5190208a51858101917f19457468657265756d205369676e6564204d6573736167653a0a3332000000008352603c820152603c81526102d5816107d7565b6001546001600160a01b0393918416908416808203610c2b575050865260068152868620600160ff1982541617905587865260048152828787205560058152428787205586519383855260ff8116908183870152897f32c99bec8988cf351ce8d70fa76a5939adba145cf0b7f9278d5216695c790d416080868a1698898d820152426060820152a28961015e8610610b6b575060ff82141580610b5e575b610a62575b50505060035416918215159081610a58575b506109a6575b505050505050565b6109af90610ce1565b92813b156102fc578451635425bba360e11b81526001600160a01b038416600482015260ff851660248201529181908390604490829084905af19182610a44575b50506109fe575b808061099e565b91516001600160a01b03909216825260ff1660208201527f073cc469b5f81cf39b9be4bef8e4cd569296fb51bdbdfe69c8c36153ef0c9bf990604090a2388080806109f7565b610a4e82916107ad565b6102fc57806109f0565b9050151538610998565b8851838101918b835260ff60f81b9060f81b168a8201524260418201524360618201526061815260a081019181831067ffffffffffffffff8411176107c157828b5281519020856002541691823b15610b5a57928a80828f9897958f97836084928e9861010486948f63aa255f6360e01b875260a48201528c60c48201528b60e482015201525af19182610b34575b5050610aff575b5050610986565b7fddb499ce5b18cff56793b166a9efc4b24d77f5693b5a7ed0e285843b77b0fd4e938351928352820152a28638878185610af8565b91945092949550610b4591506107ad565b610b5657899291858a928a38610af1565b8780fd5b8a80fd5b5083600254161515610981565b927f34de707675b1b7aa9fce9da263e4b501a3701170e51f46b15d140b4a753823939250608091508980519187835282015260128a8201527174727573745f73636f7265203c20302e333560701b6060820152a2806002541680610be6575b5060035416918215159081610a5857506109a657505050505050565b803b15610c2757858091604489518094819362227b7f60e41b83528d60048401528860248401525af115610bca57610c20909591956107ad565b9338610bca565b8580fd5b604492508951916310b5d43760e21b835260048301526024820152fd5b8b6044918c51916325360ccd60e21b835260048301526024820152fd5b634e487b7160e01b8a52601160045260248afd5b606492508a519163e2b0644d60e01b835260048301524260248301526044820152fd5b634e487b7160e01b8b52601160045260248bfd5b8951638c24228560e01b815260048101869052602490fd5b60405163478ae04960e01b815260048101849052602490fd5b606481029080820460641490151715610d0e576103e890046064811115610d085750606490565b60ff1690565b634e487b7160e01b600052601160045260246000fd5b91604103610e0257604081013560001a601b8110610de0575b60ff1690601b82148015610dd6575b15610d91576020928360809260009460405193845282840152803560408401520135606082015282805260015afa15610d855760005190565b6040513d6000823e3d90fd5b60405162461bcd60e51b815260206004820152601c60248201527f54727573744f7261636c653a20696e76616c696420762076616c7565000000006044820152606490fd5b50601c8214610d4c565b601b0160ff811115610d3d57634e487b7160e01b600052601160045260246000fd5b60405162461bcd60e51b815260206004820152602560248201527f54727573744f7261636c653a20696e76616c6964207369676e6174757265206c6044820152640cadccee8d60db1b6064820152608490fdfea26469706673582212204a8f7f1f5aae5adff9bdb8871fdfdb326a0b8f6e6976f960d1b0ebc163bcfa3764736f6c63430008130033",
  "linkReferences": {},
  "deployedLinkReferences": {}
}