{
  "_format": "hh-sol-artifact-1",
  "contractName": "ComplianceRules",
  "sourceName": "contracts/ComplianceRules.sol",
  "abi": [
    {
      "inputs": [
        {
          "internalType": "address",
          "name": "_identityRegistry",
          "type": "address"
        },
        {
          "internalType": "address",
          "name": "_complianceModule",
          "type": "address"
        }
      ],
      "stateMutability": "nonpayable",
      "type": "constructor"
    },
    {
      "inputs": [
        {
          "internalType": "uint256",
          "name": "amount",
          "type": "uint256"
        },
        {
          "internalType": "uint256",
          "name": "minimum",
          "type": "uint256"
        }
      ],
      "name": "AmountBelowMinimum",
      "type": "error"
    },
    {
      "inputs": [
        {
          "internalType": "address",
          "name": "startupToken",
          "type": "address"
        },
        {
          "internalType": "uint8",
          "name": "score",
          "type": "uint8"
        }
      ],
      "name": "ComplianceScoreTooLow",
      "type": "error"
    },
    {
      "inputs": [
        {
          "internalType": "address",
          "name": "from",
          "type": "address"
        },
        {
          "internalType": "address",
          "name": "to",
          "type": "address"
        }
      ],
      "name": "ExternalComplianceFailed",
      "type": "error"
    },
    {
      "inputs": [
        {
          "internalType": "address",
          "name": "investor",
          "type": "address"
        }
      ],
      "name": "KYCNotVerified",
      "type": "error"
    },
    {
      "inputs": [
        {
          "internalType": "address",
          "name": "investor",
          "type": "address"
        }
      ],
      "name": "NotAccredited",
      "type": "error"
    },
    {
      "inputs": [
        {
          "internalType": "address",
          "name": "caller",
          "type": "address"
        }
      ],
      "name": "NotOracleOrOwner",
      "type": "error"
    },
    {
      "inputs": [
        {
          "internalType": "address",
          "name": "startupToken",
          "type": "address"
        }
      ],
      "name": "TransfersFrozen",
      "type": "error"
    },
    {
      "inputs": [
        {
          "internalType": "address",
          "name": "caller",
          "type": "address"
        }
      ],
      "name": "Unauthorised",
      "type": "error"
    },
    {
      "anonymous": false,
      "inputs": [
        {
          "indexed": true,
          "internalType": "address",
          "name": "investor",
          "type": "address"
        },
        {
          "indexed": false,
          "internalType": "bool",
          "name": "accredited",
          "type": "bool"
        },
        {
          "indexed": true,
          "internalType": "address",
          "name": "updatedBy",
          "type": "address"
        }
      ],
      "name": "AccreditationUpdated",
      "type": "event"
    },
    {
      "anonymous": false,
      "inputs": [
        {
          "indexed": true,
          "internalType": "address",
          "name": "startupToken",
          "type": "address"
        },
        {
          "indexed": false,
          "internalType": "uint8",
          "name": "newScore",
          "type": "uint8"
        },
        {
          "indexed": true,
          "internalType": "address",
          "name": "oracle",
          "type": "address"
        }
      ],
      "name": "ComplianceScoreUpdated",
      "type": "event"
    },
    {
      "anonymous": false,
      "inputs": [
        {
          "indexed": true,
          "internalType": "address",
          "name": "investor",
          "type": "address"
        },
        {
          "indexed": false,
          "internalType": "bool",
          "name": "verified",
          "type": "bool"
        },
        {
          "indexed": true,
          "internalType": "address",
          "name": "updatedBy",
          "type": "address"
        }
      ],
      "name": "KYCStatusUpdated",
      "type": "event"
    },
    {
      "anonymous": false,
      "inputs": [
        {
          "indexed": true,
          "internalType": "address",
          "name": "oracle",
          "type": "address"
        },
        {
          "indexed": false,
          "internalType": "bool",
          "name": "authorised",
          "type": "bool"
        }
      ],
      "name": "OracleAuthorisationUpdated",
      "type": "event"
    },
    {
      "anonymous": false,
      "inputs": [
        {
          "indexed": true,
          "internalType": "address",
          "name": "startupToken",
          "type": "address"
        },
        {
          "indexed": false,
          "internalType": "bool",
          "name": "enabled",
          "type": "bool"
        },
        {
          "indexed": false,
          "internalType": "string",
          "name": "reason",
          "type": "string"
        }
      ],
      "name": "TransferFreezeToggled",
      "type": "event"
    },
    {
      "anonymous": false,
      "inputs": [
        {
          "indexed": true,
          "internalType": "address",
          "name": "from",
          "type": "address"
        },
        {
          "indexed": true,
          "internalType": "address",
          "name": "to",
          "type": "address"
        },
        {
          "indexed": false,
          "internalType": "uint256",
          "name": "amount",
          "type": "uint256"
        },
        {
          "indexed": false,
          "internalType": "bool",
          "name": "allowed",
          "type": "bool"
        },
        {
          "indexed": false,
          "internalType": "string",
          "name": "reason",
          "type": "string"
        }
      ],
      "name": "TransferPolicyEvaluated",
      "type": "event"
    },
    {
      "anonymous": false,
      "inputs": [
        {
          "indexed": true,
          "internalType": "address",
          "name": "from",
          "type": "address"
        },
        {
          "indexed": true,
          "internalType": "address",
          "name": "to",
          "type": "address"
        },
        {
          "indexed": false,
          "internalType": "uint256",
          "name": "amount",
          "type": "uint256"
        },
        {
          "indexed": false,
          "internalType": "string",
          "name": "reason",
          "type": "string"
        }
      ],
      "name": "UnauthorisedTransferBlocked",
      "type": "event"
    },
    {
      "inputs": [
        {
          "internalType": "address",
          "name": "oracle",
          "type": "address"
        }
      ],
      "name": "addOracle",
      "outputs": [],
      "stateMutability": "nonpayable",
      "type": "function"
    },
    {
      "inputs": [
        {
          "internalType": "address",
          "name": "",
          "type": "address"
        }
      ],
      "name": "authorisedOracles",
      "outputs": [
        {
          "internalType": "bool",
          "name": "",
          "type": "bool"
        }
      ],
      "stateMutability": "view",
      "type": "function"
    },
    {
      "inputs": [
        {
          "internalType": "address[]",
          "name": "investors",
          "type": "address[]"
        },
        {
          "internalType": "bool[]",
          "name": "kycStatuses",
          "type": "bool[]"
        },
        {
          "internalType": "bool[]",
          "name": "accreditStatuses",
          "type": "bool[]"
        }
      ],
      "name": "batchVerifyInvestors",
      "outputs": [],
      "stateMutability": "nonpayable",
      "type": "function"
    },
    {
      "inputs": [
        {
          "internalType": "address",
          "name": "from",
          "type": "address"
        },
        {
          "internalType": "address",
          "name": "to",
          "type": "address"
        },
        {
          "internalType": "uint256",
          "name": "amount",
          "type": "uint256"
        },
        {
          "internalType": "address",
          "name": "startupToken",
          "type": "address"
        }
      ],
      "name": "canTransfer",
      "outputs": [
        {
          "internalType": "bool",
          "name": "allowed",
          "type": "bool"
        },
        {
          "internalType": "string",
          "name": "reason",
          "type": "string"
        }
      ],
      "stateMutability": "view",
      "type": "function"
    },
    {
      "inputs": [],
      "name": "complianceModule",
      "outputs": [
        {
          "internalType": "contract ICompliance",
          "name": "",
          "type": "address"
        }
      ],
      "stateMutability": "view",
      "type": "function"
    },
    {
      "inputs": [
        {
          "internalType": "address",
          "name": "",
          "type": "address"
        }
      ],
      "name": "complianceScore",
      "outputs": [
        {
          "internalType": "uint8",
          "name": "",
          "type": "uint8"
        }
      ],
      "stateMutability": "view",
      "type": "function"
    },
    {
      "inputs": [
        {
          "internalType": "address",
          "name": "investor",
          "type": "address"
        }
      ],
      "name": "getInvestorStatus",
      "outputs": [
        {
          "internalType": "bool",
          "name": "kyc",
          "type": "bool"
        },
        {
          "internalType": "bool",
          "name": "accredited",
          "type": "bool"
        },
        {
          "internalType": "bool",
          "name": "fullPass",
          "type": "bool"
        }
      ],
      "stateMutability": "view",
      "type": "function"
    },
    {
      "inputs": [
        {
          "internalType": "address",
          "name": "startupToken",
          "type": "address"
        }
      ],
      "name": "getStartupCompliance",
      "outputs": [
        {
          "internalType": "bool",
          "name": "enabled",
          "type": "bool"
        },
        {
          "internalType": "uint8",
          "name": "score",
          "type": "uint8"
        },
        {
          "internalType": "bool",
          "name": "healthy",
          "type": "bool"
        }
      ],
      "stateMutability": "view",
      "type": "function"
    },
    {
      "inputs": [],
      "name": "identityRegistry",
      "outputs": [
        {
          "internalType": "contract IIdentityRegistry",
          "name": "",
          "type": "address"
        }
      ],
      "stateMutability": "view",
      "type": "function"
    },
    {
      "inputs": [
        {
          "internalType": "address",
          "name": "",
          "type": "address"
        }
      ],
      "name": "isAccredited",
      "outputs": [
        {
          "internalType": "bool",
          "name": "",
          "type": "bool"
        }
      ],
      "stateMutability": "view",
      "type": "function"
    },
    {
      "inputs": [
        {
          "internalType": "address",
          "name": "",
          "type": "address"
        }
      ],
      "name": "isKYCVerified",
      "outputs": [
        {
          "internalType": "bool",
          "name": "",
          "type": "bool"
        }
      ],
      "stateMutability": "view",
      "type": "function"
    },
    {
      "inputs": [],
      "name": "maxHoldingBps",
      "outputs": [
        {
          "internalType": "uint16",
          "name": "",
          "type": "uint16"
        }
      ],
      "stateMutability": "view",
      "type": "function"
    },
    {
      "inputs": [],
      "name": "minTransferAmount",
      "outputs": [
        {
          "internalType": "uint256",
          "name": "",
          "type": "uint256"
        }
      ],
      "stateMutability": "view",
      "type": "function"
    },
    {
      "inputs": [],
      "name": "owner",
      "outputs": [
        {
          "internalType": "address",
          "name": "",
          "type": "address"
        }
      ],
      "stateMutability": "view",
      "type": "function"
    },
    {
      "inputs": [
        {
          "internalType": "address",
          "name": "oracle",
          "type": "address"
        }
      ],
      "name": "removeOracle",
      "outputs": [],
      "stateMutability": "nonpayable",
      "type": "function"
    },
    {
      "inputs": [
        {
          "internalType": "address",
          "name": "investor",
          "type": "address"
        },
        {
          "internalType": "bool",
          "name": "accredited",
          "type": "bool"
        }
      ],
      "name": "setAccredited",
      "outputs": [],
      "stateMutability": "nonpayable",
      "type": "function"
    },
    {
      "inputs": [
        {
          "internalType": "address",
          "name": "newModule",
          "type": "address"
        }
      ],
      "name": "setComplianceModule",
      "outputs": [],
      "stateMutability": "nonpayable",
      "type": "function"
    },
    {
      "inputs": [
        {
          "internalType": "address",
          "name": "investor",
          "type": "address"
        },
        {
          "internalType": "bool",
          "name": "verified",
          "type": "bool"
        }
      ],
      "name": "setKYCVerified",
      "outputs": [],
      "stateMutability": "nonpayable",
      "type": "function"
    },
    {
      "inputs": [
        {
          "internalType": "uint16",
          "name": "bps",
          "type": "uint16"
        }
      ],
      "name": "setMaxHoldingBps",
      "outputs": [],
      "stateMutability": "nonpayable",
      "type": "function"
    },
    {
      "inputs": [
        {
          "internalType": "uint256",
          "name": "newMin",
          "type": "uint256"
        }
      ],
      "name": "setMinTransferAmount",
      "outputs": [],
      "stateMutability": "nonpayable",
      "type": "function"
    },
    {
      "inputs": [
        {
          "internalType": "address",
          "name": "startupToken",
          "type": "address"
        },
        {
          "internalType": "bool",
          "name": "enabled",
          "type": "bool"
        },
        {
          "internalType": "string",
          "name": "reason",
          "type": "string"
        }
      ],
      "name": "setTransferEnabled",
      "outputs": [],
      "stateMutability": "nonpayable",
      "type": "function"
    },
    {
      "inputs": [
        {
          "internalType": "address",
          "name": "newOwner",
          "type": "address"
        }
      ],
      "name": "transferOwnership",
      "outputs": [],
      "stateMutability": "nonpayable",
      "type": "function"
    },
    {
      "inputs": [
        {
          "internalType": "address",
          "name": "",
          "type": "address"
        }
      ],
      "name": "transfersEnabled",
      "outputs": [
        {
          "internalType": "bool",
          "name": "",
          "type": "bool"
        }
      ],
      "stateMutability": "view",
      "type": "function"
    },
    {
      "inputs": [
        {
          "internalType": "address",
          "name": "startupToken",
          "type": "address"
        },
        {
          "internalType": "uint8",
          "name": "score",
          "type": "uint8"
        }
      ],
      "name": "updateComplianceScore",
      "outputs": [],
      "stateMutability": "nonpayable",
      "type": "function"
    }
  ],
  "bytecode": "0x6080346100ae57601f61139438819003918201601f19168301916001600160401b038311848410176100b35780849260409485528339810103126100ae57610052602061004b836100c9565b92016100c9565b906107d061ffff196008541617600855683635c9adc5dea0000060095560018060a01b0319913383600054161760005560018060a01b03809216836001541617600155169060025416176002556040516112b690816100de8239f35b600080fd5b634e487b7160e01b600052604160045260246000fd5b51906001600160a01b03821682036100ae5756fe6080604081815260048036101561001557600080fd5b600092833560e01c9081630370f65514610bd257508063134e18f414610ba95780632d598d7b14610b6d57806334eeedba14610ae5578063423db9c714610a9657806344168e3f14610a7357806354b7636e14610a35578063577902d4146109105780635caa1f8c146108d257806368841431146108b35780636a93316c1461084e57806381a7f03d1461081257806382a9f1451461078c5780638da5cb5b14610764578063a84b77461461055c578063aba8724a1461051e578063b92e6396146104db578063c1ac79ae146104b2578063d3e9a8de14610449578063dbbc841f146103a5578063df5dd1a5146102e4578063f2fde38b14610241578063f40ed0d8146101b55763fdc85fc41461012b57600080fd5b346101b15760203660031901126101b157610144610e51565b83546001600160a01b0392908316330361019a57507f4aafb670c23a6ed0ff144c20271de5fd95cc8c16334143fda88dc8825649e4ea9160209116928385526007825280852060ff19815416905551848152a280f35b60249084519063570870ef60e11b82523390820152fd5b8280fd5b5090346101b157806003193601126101b1576101cf610e51565b916101d8610e67565b845490936001600160a01b039290918316330361019a575016908184526003602052610212838286209060ff801983541691151516179055565b5191151582527f24a8961e762fdb5b58e46e6d14dd1b5c261b610bf3bf440130bdabbfc699116a60203393a380f35b50346101b15760203660031901126101b15761025b610e51565b835491906001600160a01b039081841633036102ce571692831561028b5750506001600160a01b03191617815580f35b906020606492519162461bcd60e51b8352820152601860248201527f5a65726f2061646472657373206e6f7420616c6c6f77656400000000000000006044820152fd5b845163570870ef60e11b81523381850152602490fd5b5090346101b15760203660031901126101b1576102ff610e51565b83546001600160a01b0391908216330361038f571691821561035e575060207f4aafb670c23a6ed0ff144c20271de5fd95cc8c16334143fda88dc8825649e4ea9183855260078252808520600160ff198254161790555160018152a280f35b6020606492519162461bcd60e51b8352820152600c60248201526b5a65726f206164647265737360a01b6044820152fd5b825163570870ef60e11b81523381860152602490fd5b505034610445576080366003190112610445576103c0610e51565b602435906001600160a01b03908183168303610441576064359182168203610441576103ef9260443591610eef565b918051938492151583526020828185015284518093850152815b83811061042a57505060608094508284010152601f80199101168101030190f35b808601820151878201606001528694508101610409565b8480fd5b5080fd5b5050346104455760203660031901126104455760609181906001600160a01b03610471610e51565b168152600560205260ff8083832054169384926006602052205416816104a6575b825193151584526020840152151590820152f35b601e8110159150610492565b50503461044557816003193601126104455760025490516001600160a01b039091168152602090f35b5090346101b15760203660031901126101b15782546001600160a01b0316330361050757503560095580f35b60249250519063570870ef60e11b82523390820152fd5b5050346104455760203660031901126104455760209160ff9082906001600160a01b03610549610e51565b1681526005855220541690519015158152f35b50346101b157816003193601126101b157610575610e51565b906024359160ff83168093036104415784546001600160a01b03929083163314158061074e575b6107375750169182845260209160068352601e8286209160ff199281848254161790558351818152867f35000dbb8d60941c4efb400ad422faeb50778db8ad1e5401e2b84316f9588702873393a3108080610723575b15610672575091602260a0927f853b25f1d7c6595e18d87d0b22b394edef64253d51ebdf6096e2805c312806389486885260058452818820908154169055808051938885528401528201527f4175746f2d66726f7a656e3a20636f6d706c69616e63652073636f7265203c20606082015261033360f41b6080820152a280f35b929092158061070e575b610688575b5050505080f35b602560a0927f853b25f1d7c6595e18d87d0b22b394edef64253d51ebdf6096e2805c31280638948688526005845260018289209182541617905580805193600185528401528201527f4175746f2d756e66726f7a656e3a20636f6d706c69616e63652073636f72652060608201526403e3d2033360dc1b6080820152a238808080610681565b508385526005815260ff82862054161561067c565b508486526005845260ff83872054166105f2565b60249085519063706da30360e01b82523390820152fd5b50338652600760205260ff85872054161561059c565b505034610445578160031936011261044557905490516001600160a01b039091168152602090f35b50346101b157816003193601126101b1576107a5610e51565b916107ae610e67565b845490936001600160a01b03918216330361038f5716918285526020526107e3838286209060ff801983541691151516179055565b5191151582527f4044abff324342d4e3c04efb6ad280abd4bb27da95af09feffd9c05b96a490ee60203393a380f35b5050346104455760203660031901126104455760209160ff9082906001600160a01b0361083d610e51565b168152600685522054169051908152f35b50919034610445576020366003190112610445576060926001600160a01b03610875610e51565b168352600360205260ff82818186205416948593602052205416816108ab575b8251931515845215156020840152151590820152f35b905080610895565b5050346104455781600319360112610445576020906009549051908152f35b5050346104455760203660031901126104455760209160ff9082906001600160a01b036108fd610e51565b1681526007855220541690519015158152f35b5090346101b15760603660031901126101b15761092b610e51565b610933610e67565b906044359367ffffffffffffffff91828611610a315736602387011215610a315785820135928311610a31573660248488010111610a315786546001600160a01b039290831633141580610a1b575b610a045750918060247f853b25f1d7c6595e18d87d0b22b394edef64253d51ebdf6096e2805c312806389695936060951697888a5260056020526109d485888c209060ff801983541691151516179055565b8287519788961515875280602088015286015201848401378181018301879052601f01601f19168101030190a280f35b60249086519063706da30360e01b82523390820152fd5b50338852600760205260ff868920541615610982565b8680fd5b5050346104455760203660031901126104455760209160ff9082906001600160a01b03610a60610e51565b1681526003855220541690519015158152f35b50503461044557816003193601126104455760209061ffff600854169051908152f35b50346101b15760203660031901126101b157610ab0610e51565b83546001600160a01b03939192919084163303610507575050166bffffffffffffffffffffffff60a01b600254161760025580f35b50346101b15760203660031901126101b15780359161ffff8316809303610b695783546001600160a01b03163303610507576127108311610b3157505061ffff19600854161760085580f35b906020606492519162461bcd60e51b8352820152601260248201527143616e6e6f7420657863656564203130302560701b6044820152fd5b8380fd5b50346101b15760203660031901126101b15760209260ff918391906001600160a01b03610b98610e51565b168252855220541690519015158152f35b50503461044557816003193601126104455760015490516001600160a01b039091168152602090f35b9192905034610b69576060366003190112610b695767ffffffffffffffff918335838111610e1757610c079036908601610e1b565b9390602435828111610e1357610c209036908801610e1b565b959092604435908111610e0f57610c3a9036908901610e1b565b96909360018060a01b0395868b54163303610dfb575081831480610df2575b15610db757895b838110610c6b578a80f35b610c76818484610e76565b610c7f90610e9c565b87610c8b838789610e76565b610c9490610ea9565b168c5260209060038252898d2090610cb7919060ff801983541691151516179055565b610cc2828b89610e76565b610ccb90610e9c565b88610cd784888a610e76565b610ce090610ea9565b168d528b8252898d2090610cff919060ff801983541691151516179055565b610d0a828688610e76565b610d1390610ea9565b81610d1f848787610e76565b610d2890610e9c565b8b5190151581528a339316917f24a8961e762fdb5b58e46e6d14dd1b5c261b610bf3bf440130bdabbfc699116a91a3610d62828688610e76565b610d6b90610ea9565b90610d77838c8a610e76565b610d8090610e9c565b8a51901515815289339316917f4044abff324342d4e3c04efb6ad280abd4bb27da95af09feffd9c05b96a490ee91a3600101610c60565b865162461bcd60e51b81526020818b01526015602482015274082e4e4c2f240d8cadccee8d040dad2e6dac2e8c6d605b1b6044820152606490fd5b50878314610c59565b63570870ef60e11b8152338a820152602490fd5b8880fd5b8780fd5b8580fd5b9181601f84011215610e4c5782359167ffffffffffffffff8311610e4c576020808501948460051b010111610e4c57565b600080fd5b600435906001600160a01b0382168203610e4c57565b602435908115158203610e4c57565b9190811015610e865760051b0190565b634e487b7160e01b600052603260045260246000fd5b358015158103610e4c5790565b356001600160a01b0381168103610e4c5790565b6040810190811067ffffffffffffffff821117610ed957604052565b634e487b7160e01b600052604160045260246000fd5b9190939260095482106112485760018060a01b038093169160009280845260209485916003835260ff91604099838b89205416156112135781169283885260038552808b89205416156111d457828852600496878652818c8a2054161561119c57848952878652818c8a2054161561115c57821680895260058652818c8a20541615611126578852600685528a882054601e9116106110e857600254169081610fce575b505050505060019480519384019184831067ffffffffffffffff841117610fbb575052815290565b634e487b7160e01b845260419052602483fd5b6064918a5195869485936372331c7360e11b855289850152602484015260448301525afa9081156110de57839161107e575b5015611010573883818080610f93565b9390918294825193606085019185831067ffffffffffffffff84111761106b5750508252602383527f45787465726e616c20636f6d706c69616e6365206d6f64756c652072656a656390830152621d195960ea1b9082015290565b634e487b7160e01b825260419052602490fd5b9050833d85116110d7575b601f8101601f1916820167ffffffffffffffff8111838210176110c457859183918952810103126101b1575180151581036101b15738611000565b634e487b7160e01b855260418452602485fd5b503d611089565b86513d85823e3d90fd5b5050505050507f436f6d706c69616e63652073636f726520746f6f206c6f7700000000000000009093519161111c83610ebd565b6018835282015290565b50505050505050507f53746172747570207472616e73666572732066726f7a656e00000000000000009093519161111c83610ebd565b50505050505050507f5265636569766572206e6f7420616363726564697465640000000000000000009093519161119283610ebd565b6017835282015290565b50505050505050507414d95b99195c881b9bdd081858d8dc99591a5d1959605a1b909351916111ca83610ebd565b6015835282015290565b505050505050507f5265636569766572204b5943206e6f74207665726966696564000000000000009093519161120983610ebd565b6019835282015290565b505050505050507f53656e646572204b5943206e6f742076657269666965640000000000000000009093519161119283610ebd565b505050905060009060405161125c81610ebd565b6014815273416d6f756e742062656c6f77206d696e696d756d60601b60208201529056fea26469706673582212202a340cb09a2088f267bc24c4d179f8007104e60407403c0f23331f483bf921bc64736f6c63430008130033",
  "linkReferences": {},
  "deployedLinkReferences": {}
}