{
  "_format": "hh-sol-artifact-1",
  "contractName": "IntelliStakeInvestment",
  "sourceName": "contracts/IntelliStakeInvestment.sol",
  "abi": [
    {
      "inputs": [],
      "stateMutability": "nonpayable",
      "type": "constructor"
    },
    {
      "anonymous": false,
      "inputs": [
        {
          "indexed": true,
          "internalType": "uint256",
          "name": "dealId",
          "type": "uint256"
        },
        {
          "indexed": true,
          "internalType": "address",
          "name": "investor",
          "type": "address"
        },
        {
          "indexed": true,
          "internalType": "address",
          "name": "startup",
          "type": "address"
        },
        {
          "indexed": false,
          "internalType": "string",
          "name": "startupName",
          "type": "string"
        },
        {
          "indexed": false,
          "internalType": "uint256",
          "name": "amount",
          "type": "uint256"
        },
        {
          "indexed": false,
          "internalType": "uint8",
          "name": "trustScore",
          "type": "uint8"
        }
      ],
      "name": "InvestmentCreated",
      "type": "event"
    },
    {
      "anonymous": false,
      "inputs": [
        {
          "indexed": true,
          "internalType": "uint256",
          "name": "dealId",
          "type": "uint256"
        },
        {
          "indexed": false,
          "internalType": "uint256",
          "name": "amount",
          "type": "uint256"
        }
      ],
      "name": "InvestmentRefunded",
      "type": "event"
    },
    {
      "anonymous": false,
      "inputs": [
        {
          "indexed": true,
          "internalType": "uint256",
          "name": "dealId",
          "type": "uint256"
        },
        {
          "indexed": false,
          "internalType": "uint256",
          "name": "milestoneIndex",
          "type": "uint256"
        },
        {
          "indexed": false,
          "internalType": "uint256",
          "name": "amountReleased",
          "type": "uint256"
        }
      ],
      "name": "MilestoneCompleted",
      "type": "event"
    },
    {
      "anonymous": false,
      "inputs": [
        {
          "indexed": false,
          "internalType": "string",
          "name": "name",
          "type": "string"
        },
        {
          "indexed": false,
          "internalType": "address",
          "name": "wallet",
          "type": "address"
        },
        {
          "indexed": false,
          "internalType": "string",
          "name": "sector",
          "type": "string"
        }
      ],
      "name": "StartupRegistered",
      "type": "event"
    },
    {
      "anonymous": false,
      "inputs": [
        {
          "indexed": true,
          "internalType": "uint256",
          "name": "dealId",
          "type": "uint256"
        },
        {
          "indexed": false,
          "internalType": "uint8",
          "name": "oldScore",
          "type": "uint8"
        },
        {
          "indexed": false,
          "internalType": "uint8",
          "name": "newScore",
          "type": "uint8"
        }
      ],
      "name": "TrustScoreUpdated",
      "type": "event"
    },
    {
      "inputs": [],
      "name": "PLATFORM_FEE_BPS",
      "outputs": [
        {
          "internalType": "uint256",
          "name": "",
          "type": "uint256"
        }
      ],
      "stateMutability": "view",
      "type": "function"
    },
    {
      "inputs": [
        {
          "internalType": "uint256",
          "name": "dealId",
          "type": "uint256"
        },
        {
          "internalType": "uint256",
          "name": "mIdx",
          "type": "uint256"
        }
      ],
      "name": "completeMilestone",
      "outputs": [],
      "stateMutability": "nonpayable",
      "type": "function"
    },
    {
      "inputs": [
        {
          "internalType": "address payable",
          "name": "startupWallet",
          "type": "address"
        },
        {
          "internalType": "string",
          "name": "startupName",
          "type": "string"
        },
        {
          "internalType": "string",
          "name": "sector",
          "type": "string"
        },
        {
          "internalType": "uint8",
          "name": "trustScore",
          "type": "uint8"
        },
        {
          "internalType": "uint256",
          "name": "predictedVal",
          "type": "uint256"
        },
        {
          "internalType": "string[]",
          "name": "milestoneDescs",
          "type": "string[]"
        },
        {
          "internalType": "uint256[]",
          "name": "milestoneAmts",
          "type": "uint256[]"
        },
        {
          "internalType": "uint8[]",
          "name": "trustThresholds",
          "type": "uint8[]"
        }
      ],
      "name": "createInvestment",
      "outputs": [
        {
          "internalType": "uint256",
          "name": "dealId",
          "type": "uint256"
        }
      ],
      "stateMutability": "payable",
      "type": "function"
    },
    {
      "inputs": [],
      "name": "getContractBalance",
      "outputs": [
        {
          "internalType": "uint256",
          "name": "",
          "type": "uint256"
        }
      ],
      "stateMutability": "view",
      "type": "function"
    },
    {
      "inputs": [
        {
          "internalType": "uint256",
          "name": "dealId",
          "type": "uint256"
        }
      ],
      "name": "getDealInfo",
      "outputs": [
        {
          "internalType": "address",
          "name": "investor",
          "type": "address"
        },
        {
          "internalType": "address",
          "name": "startup",
          "type": "address"
        },
        {
          "internalType": "string",
          "name": "startupName",
          "type": "string"
        },
        {
          "internalType": "uint256",
          "name": "totalAmount",
          "type": "uint256"
        },
        {
          "internalType": "uint256",
          "name": "releasedAmount",
          "type": "uint256"
        },
        {
          "internalType": "uint8",
          "name": "trustScore",
          "type": "uint8"
        },
        {
          "internalType": "enum IntelliStakeInvestment.Status",
          "name": "status",
          "type": "uint8"
        },
        {
          "internalType": "uint256",
          "name": "milestoneCount",
          "type": "uint256"
        }
      ],
      "stateMutability": "view",
      "type": "function"
    },
    {
      "inputs": [
        {
          "internalType": "address",
          "name": "investor",
          "type": "address"
        }
      ],
      "name": "getInvestorDeals",
      "outputs": [
        {
          "internalType": "uint256[]",
          "name": "",
          "type": "uint256[]"
        }
      ],
      "stateMutability": "view",
      "type": "function"
    },
    {
      "inputs": [
        {
          "internalType": "uint256",
          "name": "dealId",
          "type": "uint256"
        },
        {
          "internalType": "uint256",
          "name": "mIdx",
          "type": "uint256"
        }
      ],
      "name": "getMilestone",
      "outputs": [
        {
          "internalType": "string",
          "name": "desc",
          "type": "string"
        },
        {
          "internalType": "uint256",
          "name": "amount",
          "type": "uint256"
        },
        {
          "internalType": "uint8",
          "name": "threshold",
          "type": "uint8"
        },
        {
          "internalType": "bool",
          "name": "completed",
          "type": "bool"
        }
      ],
      "stateMutability": "view",
      "type": "function"
    },
    {
      "inputs": [
        {
          "internalType": "uint256",
          "name": "",
          "type": "uint256"
        }
      ],
      "name": "investments",
      "outputs": [
        {
          "internalType": "address payable",
          "name": "investor",
          "type": "address"
        },
        {
          "internalType": "address payable",
          "name": "startup",
          "type": "address"
        },
        {
          "internalType": "string",
          "name": "startupName",
          "type": "string"
        },
        {
          "internalType": "string",
          "name": "sector",
          "type": "string"
        },
        {
          "internalType": "uint256",
          "name": "totalAmount",
          "type": "uint256"
        },
        {
          "internalType": "uint256",
          "name": "releasedAmount",
          "type": "uint256"
        },
        {
          "internalType": "uint8",
          "name": "aiTrustScore",
          "type": "uint8"
        },
        {
          "internalType": "uint256",
          "name": "predictedValuation",
          "type": "uint256"
        },
        {
          "internalType": "enum IntelliStakeInvestment.Status",
          "name": "status",
          "type": "uint8"
        },
        {
          "internalType": "uint256",
          "name": "createdAt",
          "type": "uint256"
        },
        {
          "internalType": "uint256",
          "name": "lastUpdated",
          "type": "uint256"
        }
      ],
      "stateMutability": "view",
      "type": "function"
    },
    {
      "inputs": [
        {
          "internalType": "address",
          "name": "",
          "type": "address"
        },
        {
          "internalType": "uint256",
          "name": "",
          "type": "uint256"
        }
      ],
      "name": "investorDeals",
      "outputs": [
        {
          "internalType": "uint256",
          "name": "",
          "type": "uint256"
        }
      ],
      "stateMutability": "view",
      "type": "function"
    },
    {
      "inputs": [],
      "name": "owner",
      "outputs": [
        {
          "internalType": "address",
          "name": "",
          "type": "address"
        }
      ],
      "stateMutability": "view",
      "type": "function"
    },
    {
      "inputs": [],
      "name": "platformFeeAccrued",
      "outputs": [
        {
          "internalType": "uint256",
          "name": "",
          "type": "uint256"
        }
      ],
      "stateMutability": "view",
      "type": "function"
    },
    {
      "inputs": [
        {
          "internalType": "uint256",
          "name": "dealId",
          "type": "uint256"
        }
      ],
      "name": "refundInvestor",
      "outputs": [],
      "stateMutability": "nonpayable",
      "type": "function"
    },
    {
      "inputs": [
        {
          "internalType": "string",
          "name": "",
          "type": "string"
        }
      ],
      "name": "registeredStartups",
      "outputs": [
        {
          "internalType": "bool",
          "name": "",
          "type": "bool"
        }
      ],
      "stateMutability": "view",
      "type": "function"
    },
    {
      "inputs": [
        {
          "internalType": "address",
          "name": "",
          "type": "address"
        },
        {
          "internalType": "uint256",
          "name": "",
          "type": "uint256"
        }
      ],
      "name": "startupDeals",
      "outputs": [
        {
          "internalType": "uint256",
          "name": "",
          "type": "uint256"
        }
      ],
      "stateMutability": "view",
      "type": "function"
    },
    {
      "inputs": [],
      "name": "totalInvestments",
      "outputs": [
        {
          "internalType": "uint256",
          "name": "",
          "type": "uint256"
        }
      ],
      "stateMutability": "view",
      "type": "function"
    },
    {
      "inputs": [],
      "name": "totalValueLocked",
      "outputs": [
        {
          "internalType": "uint256",
          "name": "",
          "type": "uint256"
        }
      ],
      "stateMutability": "view",
      "type": "function"
    },
    {
      "inputs": [
        {
          "internalType": "uint256",
          "name": "dealId",
          "type": "uint256"
        },
        {
          "internalType": "uint8",
          "name": "newScore",
          "type": "uint8"
        }
      ],
      "name": "updateTrustScore",
      "outputs": [],
      "stateMutability": "nonpayable",
      "type": "function"
    },
    {
      "inputs": [],
      "name": "withdrawPlatformFees",
      "outputs": [],
      "stateMutability": "nonpayable",
      "type": "function"
    },
    {
      "stateMutability": "payable",
      "type": "receive"
    }
  ],
  "bytecode": "0x6080806040523461002857600080546001600160a01b0319163317905561178e908161002e8239f35b600080fdfe60a080604052600436101561001d575b50361561001b57600080fd5b005b60003560e01c908163539aa77f1461134c575080636cd29a5d146113025780636f9fb98a146112e657806370fd37cf146112c857806373a4415c146112135780638d0dcfea146111f55780638da5cb5b146111cc5780638df10469146110215780638ed9895c14610faf578063bdbbc24214610f57578063c0233b061461072e578063d0b7830b146106de578063d79ed7dc14610641578063dfb5b3bd146105cf578063e9ddf5c41461051b578063ec18154e146104fd578063f326206b146101d95763fd345c8a146100f0573861000f565b346101d45760203660031901126101d45760043560005260046020526020604060002060018060a01b0390818154169160018201541661013260028301611513565b916101c461014260038301611513565b93600483015494600584015460ff600686015416906101a460078701549361019660ff60088a01541696600a60098b01549a01549a6040519e8f9e8f908152015260408d61016091829101528d01906113cd565b908b820360608d01526113cd565b9760808a015260a089015260c088015260e08701526101008601906113f2565b6101208401526101408301520390f35b600080fd5b346101d4576101e7366113ff565b6000546001600160a01b0391906102019083163314611697565b600261020f815485106116d8565b836000526020916004835260ff60089481866040600020015416600581101561037b5760011480156104da575b6102459061171a565b8660005260048552604060002090600b82019687548510156104955761026b8589611646565b50958087018054978689851c166104575786600687015416878a161161041257479160018201998a548094106103cd576101009061ff0019161790556003429101556102bc600586019182546115d8565b905542600a850155885460019960005b828110610397575b505050909192939495969760001461039157506003905b830191600582101561037b57600160009594869594869594869560ff19835416911617905561031d89546003546115e5565b600355015416865490828215610372575bf115610366577fd4dbda378623f00b72ef135b4579b7ba064c49645217eb107d663831efac63589260409254908351928352820152a2005b6040513d6000823e3d90fd5b506108fc61032e565b634e487b7160e01b600052602160045260246000fd5b906102eb565b87846103a38385611646565b500154861c16156103bc576103b7906115b9565b6102cc565b5060009a508c9150819050806102d4565b60405162461bcd60e51b8152600481018d9052601d60248201527f496e73756666696369656e7420636f6e74726163742062616c616e63650000006044820152606490fd5b60405162461bcd60e51b8152600481018b9052601b60248201527f54727573742073636f72652062656c6f77207468726573686f6c6400000000006044820152606490fd5b60405162461bcd60e51b8152600481018b905260166024820152754d696c6573746f6e6520616c726561647920646f6e6560501b6044820152606490fd5b60405162461bcd60e51b815260048101889052601760248201527f496e76616c6964206d696c6573746f6e6520696e6465780000000000000000006044820152606490fd5b50866000526004855281866040600020015416600581101561037b57841461023c565b346101d45760003660031901126101d4576020600354604051908152f35b346101d4576020806003193601126101d4576001600160a01b0361053d611366565b1660005260058152604060002060405190818382549182815201908192600052846000209060005b868282106105bb57868661057b82880383611472565b604051928392818401908285525180915260408401929160005b8281106105a457505050500390f35b835185528695509381019392810192600101610595565b835485529093019260019283019201610565565b346101d45760203660031901126101d4576004356001600160401b0381116101d457366023820112156101d45760ff61062b602061061881943690602481600401359101611493565b81604051938285809451938492016113aa565b8101600781520301902054166040519015158152f35b346101d45760403660031901126101d45760043560243560ff81168091036101d45760407fe5583c9d083335054c2ee6fb43c923d0018b35fb5b9667c825337eb59d67ab029161069c60018060a01b03600054163314611697565b6106a960025485106116d8565b836000526004602052816000209060068201918254928260ff198516179055600a4291015560ff8351921682526020820152a2005b346101d45760003660031901126101d457600080548190819081906001600160a01b031661070d338214611697565b6001549082600155828215610725575bf11561036657005b506108fc61071d565b6101003660031901126101d4576004356001600160a01b03811681036101d4576024356001600160401b0381116101d45761076d903690600401611415565b906080526044356001600160401b0381116101d457610790903690600401611415565b916064359160ff831683036101d45760a4356001600160401b0381116101d4576107be903690600401611442565b9060c4356001600160401b0381116101d4576107de903690600401611442565b60e4939193356001600160401b0381116101d457610800903690600401611442565b913415610f2257601e60ff8a1610610edd578315610e985780841480610e8f575b15610e525760009560005b828110610e2d57506032340296348804603203610e17576108516127108904346115e5565b10610dd2576002549a6108638c6115b9565b6002558b6000526004602052604060002098336bffffffffffffffffffffffff60a01b8b5416178a558d60018b019060018060a01b03166bffffffffffffffffffffffff60a01b8254161790556001600160401b038b11610ca7576108d88b6108cf60028d01546114d9565b60028d016115f2565b8a6000601f8211600114610d5c57600091610d4f575b508b60011b906000198d60031b1c19161760028b01555b6001600160401b038211610ca757819061092f828c6003610928818301546114d9565b91016115f2565b600090601f8311600114610cde57600092610cd3575b50508160011b916000199060031b1c19161760038901555b61096b6127108804346115e5565b60048901556000600589015560ff8a1660ff1960068a015416176006890155608435600789015560088801600160ff1982541617905542600989015542600a89015560005b858110610aae5750505050505050602095610a06600487946109f96127107f988044ebd29218e9b39af20a628eac00a43fd569ef341a2dc4a4d1d3516ee01b96046001546115d8565b60015501546003546115d8565b6003553360005260058752610a1f836040600020611662565b60018060a01b03811660005260068752610a3d836040600020611662565b60405184608051823787818681016007815203019020600160ff1982541617905560ff6040519560608752856060880152856080516080890137600060808789010152348988015216604086015260018060a01b0316936080813395601f80199101168101030190a4604051908152f35b8060051b870135601e19883603018112156101d4576001600160401b0381890135116101d4578088013536036020828a0101136101d457610af08285856115c8565b3590610afd8388886115c8565b3560ff811681036101d457604051928360a08101106001600160401b0360a086011117610ca75760a0840160405260ff92610b419036908d01803590602001611493565b845260208401521660408201526000606082015260006080820152600b8a0154600160401b811015610ca757806001610b839201600b8d0155600b8c01611646565b919091610cbd5780518051906001600160401b038211610ca757610bb182610bab86546114d9565b866115f2565b602090601f8311600114610c34579282600393608093610c24989796600092610c29575b50508160011b9160001990861b1c19161784555b602081015160018501556002840160ff60408301511681549061ff006060850151151560081b169161ffff19161717905501519101556115b9565b6109b0565b015190503880610bd5565b908460005260206000209160005b601f1985168110610c8f575083608093610c2498979693600193600397601f19811610610c77575b505050811b018455610be9565b015160001983881b60f8161c19169055388080610c6a565b91926020600181928685015181550194019201610c42565b634e487b7160e01b600052604160045260246000fd5b634e487b7160e01b600052600060045260246000fd5b013590508e80610945565b90925060038b016000526020600020906000935b601f1984168510610d37576001945083601f19811610610d1d575b505050811b01600389015561095d565b0135600019600384901b60f8161c191690558e8080610d0d565b81810135835560209485019460019093019201610cf2565b905060805101358f6108ee565b905060028b016000528b6020600020916000608051925b601f1981168210610db857601f198116109050610d9e575b50505060018b811b0160028b0155610905565b013560001960038e901b60f8161c191690558e8080610d8b565b909193602060018192878701358155019501920190610d73565b60405162461bcd60e51b815260206004820152601c60248201527f4d696c6573746f6e652073756d206578636565647320657363726f77000000006044820152606490fd5b634e487b7160e01b600052601160045260246000fd5b96610e47610e4d91610e408a86866115c8565b35906115d8565b976115b9565b61082c565b60405162461bcd60e51b8152602060048201526015602482015274082e4e4c2f240d8cadccee8d040dad2e6dac2e8c6d605b1b6044820152606490fd5b50828114610821565b60405162461bcd60e51b815260206004820152601b60248201527f4e656564206174206c65617374206f6e65206d696c6573746f6e6500000000006044820152606490fd5b60405162461bcd60e51b815260206004820152601c60248201527f54727573742073636f726520746f6f206c6f7720286d696e20333029000000006044820152606490fd5b60405162461bcd60e51b815260206004820152600d60248201526c09aeae6e840e6cadcc8408aa89609b1b6044820152606490fd5b346101d45760403660031901126101d457610f70611366565b6001600160a01b03166000908152600560205260409020805460243591908210156101d457602091610fa19161137c565b90546040519160031b1c8152f35b346101d457611004610fd9610fc3366113ff565b906000526004602052600b604060002001611646565b50600181015460ff610fef600284015493611513565b926040519485946080865260808601906113cd565b926020850152818116604085015260081c16151560608301520390f35b346101d4576020806003193601126101d457600054600435916001600160a01b03916110509083163314611697565b61105d60025484106116d8565b826000526004815260ff60086040600020015416600581101561037b5760011480156111a6575b61108d9061171a565b826000526004815260406000209160098301546276a7008101809111610e175742111561116a576110c760048401546005850154906115e5565b92831561112e57600080858194846008849601600460ff1982541617905542600a8201556110f7836003546115e5565b600355541682f115610366577f51f68d075df949ed6454f243c9483efe1b52cb67f12ac66e4a0938f8918df4e791604051908152a2005b60405162461bcd60e51b81526004810184905260146024820152734e6f2072656d61696e696e672062616c616e636560601b6044820152606490fd5b60405162461bcd60e51b8152600481018390526014602482015273526566756e64206c6f636b3a203930206461797360601b6044820152606490fd5b50826000526004815260ff60086040600020015416600581101561037b57600214611084565b346101d45760003660031901126101d4576000546040516001600160a01b039091168152602090f35b346101d45760003660031901126101d4576020600154604051908152f35b346101d45760203660031901126101d45760043561123460025482106116d8565b6000526004602052604060002060018060a01b038082541690600183015416916004810154906112bf600582015460ff60068401541660ff600885015416916112a56112876002600b8801549701611513565b604051998a998a5260208a01526101008060408b01528901906113cd565b956060880152608087015260a086015260c08501906113f2565b60e08301520390f35b346101d45760003660031901126101d4576020600254604051908152f35b346101d45760003660031901126101d457602047604051908152f35b346101d45760403660031901126101d45761131b611366565b6001600160a01b03166000908152600660205260409020805460243591908210156101d457602091610fa19161137c565b346101d45760003660031901126101d45780603260209252f35b600435906001600160a01b03821682036101d457565b80548210156113945760005260206000200190600090565b634e487b7160e01b600052603260045260246000fd5b60005b8381106113bd5750506000910152565b81810151838201526020016113ad565b906020916113e6815180928185528580860191016113aa565b601f01601f1916010190565b90600582101561037b5752565b60409060031901126101d4576004359060243590565b9181601f840112156101d4578235916001600160401b0383116101d457602083818601950101116101d457565b9181601f840112156101d4578235916001600160401b0383116101d4576020808501948460051b0101116101d457565b90601f801991011681019081106001600160401b03821117610ca757604052565b9291926001600160401b038211610ca757604051916114bc601f8201601f191660200184611472565b8294818452818301116101d4578281602093846000960137010152565b90600182811c92168015611509575b60208310146114f357565b634e487b7160e01b600052602260045260246000fd5b91607f16916114e8565b9060405191826000825492611527846114d9565b9081845260019485811690816000146115965750600114611553575b505061155192500383611472565b565b9093915060005260209081600020936000915b81831061157e57505061155193508201013880611543565b85548884018501529485019487945091830191611566565b91505061155194506020925060ff191682840152151560051b8201013880611543565b6000198114610e175760010190565b91908110156113945760051b0190565b91908201809211610e1757565b91908203918211610e1757565b90601f811161160057505050565b600091825260208220906020601f850160051c8301941061163c575b601f0160051c01915b82811061163157505050565b818155600101611625565b909250829061161c565b80548210156113945760005260206000209060021b0190600090565b8054600160401b811015610ca75761167f9160018201815561137c565b819291549060031b91821b91600019901b1916179055565b1561169e57565b60405162461bcd60e51b81526020600482015260126024820152712737ba10383630ba3337b9369037bbb732b960711b6044820152606490fd5b156116df57565b60405162461bcd60e51b81526020600482015260136024820152721119585b08191bd95cc81b9bdd08195e1a5cdd606a1b6044820152606490fd5b1561172157565b60405162461bcd60e51b815260206004820152600f60248201526e4465616c206e6f742061637469766560881b6044820152606490fdfea2646970667358221220f64082dc00af0b8a569ae6001fbf8fd276d45965b385d27b23dab04aa3ac566464736f6c63430008130033",
  "linkReferences": {},
  "deployedLinkReferences": {}
}