{
  "_format": "hh-sol-artifact-1",
  "contractName": "IdentityRegistry",
  "sourceName": "contracts/IdentityRegistry.sol",
  "abi": [
    {
      "inputs": [],
      "stateMutability": "nonpayable",
      "type": "constructor"
    },
    {
      "anonymous": false,
      "inputs": [
        {
          "indexed": true,
          "internalType": "address",
          "name": "wallet",
          "type": "address"
        },
        {
          "indexed": false,
          "internalType": "uint256",
          "name": "timestamp",
          "type": "uint256"
        }
      ],
      "name": "IdentityRestored",
      "type": "event"
    },
    {
      "anonymous": false,
      "inputs": [
        {
          "indexed": true,
          "internalType": "address",
          "name": "wallet",
          "type": "address"
        },
        {
          "indexed": false,
          "internalType": "string",
          "name": "reason",
          "type": "string"
        },
        {
          "indexed": false,
          "internalType": "uint256",
          "name": "timestamp",
          "type": "uint256"
        }
      ],
      "name": "IdentityRevoked",
      "type": "event"
    },
    {
      "anonymous": false,
      "inputs": [
        {
          "indexed": true,
          "internalType": "address",
          "name": "wallet",
          "type": "address"
        },
        {
          "indexed": false,
          "internalType": "string",
          "name": "entityName",
          "type": "string"
        },
        {
          "indexed": false,
          "internalType": "uint8",
          "name": "kycLevel",
          "type": "uint8"
        },
        {
          "indexed": false,
          "internalType": "uint256",
          "name": "timestamp",
          "type": "uint256"
        }
      ],
      "name": "InvestorRegistered",
      "type": "event"
    },
    {
      "anonymous": false,
      "inputs": [
        {
          "indexed": true,
          "internalType": "address",
          "name": "wallet",
          "type": "address"
        },
        {
          "indexed": false,
          "internalType": "uint8",
          "name": "oldLevel",
          "type": "uint8"
        },
        {
          "indexed": false,
          "internalType": "uint8",
          "name": "newLevel",
          "type": "uint8"
        }
      ],
      "name": "KycLevelUpdated",
      "type": "event"
    },
    {
      "anonymous": false,
      "inputs": [
        {
          "indexed": true,
          "internalType": "address",
          "name": "operator",
          "type": "address"
        }
      ],
      "name": "OperatorAdded",
      "type": "event"
    },
    {
      "anonymous": false,
      "inputs": [
        {
          "indexed": true,
          "internalType": "address",
          "name": "operator",
          "type": "address"
        }
      ],
      "name": "OperatorRemoved",
      "type": "event"
    },
    {
      "anonymous": false,
      "inputs": [
        {
          "indexed": true,
          "internalType": "address",
          "name": "tokenContract",
          "type": "address"
        }
      ],
      "name": "TokenContractSet",
      "type": "event"
    },
    {
      "inputs": [
        {
          "internalType": "address",
          "name": "op",
          "type": "address"
        }
      ],
      "name": "addOperator",
      "outputs": [],
      "stateMutability": "nonpayable",
      "type": "function"
    },
    {
      "inputs": [
        {
          "internalType": "address[]",
          "name": "wallets",
          "type": "address[]"
        },
        {
          "internalType": "string[]",
          "name": "entityNames",
          "type": "string[]"
        },
        {
          "internalType": "uint8[]",
          "name": "kycLevels",
          "type": "uint8[]"
        },
        {
          "internalType": "string",
          "name": "kycProvider",
          "type": "string"
        }
      ],
      "name": "batchRegister",
      "outputs": [],
      "stateMutability": "nonpayable",
      "type": "function"
    },
    {
      "inputs": [
        {
          "internalType": "address",
          "name": "wallet",
          "type": "address"
        }
      ],
      "name": "getIdentity",
      "outputs": [
        {
          "components": [
            {
              "internalType": "address",
              "name": "wallet",
              "type": "address"
            },
            {
              "internalType": "uint8",
              "name": "kycLevel",
              "type": "uint8"
            },
            {
              "internalType": "string",
              "name": "entityName",
              "type": "string"
            },
            {
              "internalType": "string",
              "name": "kycProvider",
              "type": "string"
            },
            {
              "internalType": "bool",
              "name": "isActive",
              "type": "bool"
            },
            {
              "internalType": "uint256",
              "name": "registeredAt",
              "type": "uint256"
            },
            {
              "internalType": "uint256",
              "name": "lastUpdated",
              "type": "uint256"
            }
          ],
          "internalType": "struct IdentityRegistry.Identity",
          "name": "",
          "type": "tuple"
        }
      ],
      "stateMutability": "view",
      "type": "function"
    },
    {
      "inputs": [],
      "name": "getRegisteredWallets",
      "outputs": [
        {
          "internalType": "address[]",
          "name": "",
          "type": "address[]"
        }
      ],
      "stateMutability": "view",
      "type": "function"
    },
    {
      "inputs": [
        {
          "internalType": "address",
          "name": "wallet",
          "type": "address"
        }
      ],
      "name": "isVerified",
      "outputs": [
        {
          "internalType": "bool",
          "name": "",
          "type": "bool"
        }
      ],
      "stateMutability": "view",
      "type": "function"
    },
    {
      "inputs": [],
      "name": "kycLevelCounts",
      "outputs": [
        {
          "internalType": "uint256",
          "name": "retail",
          "type": "uint256"
        },
        {
          "internalType": "uint256",
          "name": "accredited",
          "type": "uint256"
        },
        {
          "internalType": "uint256",
          "name": "institutional",
          "type": "uint256"
        },
        {
          "internalType": "uint256",
          "name": "revoked",
          "type": "uint256"
        }
      ],
      "stateMutability": "view",
      "type": "function"
    },
    {
      "inputs": [
        {
          "internalType": "address",
          "name": "wallet",
          "type": "address"
        }
      ],
      "name": "kycLevelLabel",
      "outputs": [
        {
          "internalType": "string",
          "name": "",
          "type": "string"
        }
      ],
      "stateMutability": "view",
      "type": "function"
    },
    {
      "inputs": [
        {
          "internalType": "address",
          "name": "wallet",
          "type": "address"
        },
        {
          "internalType": "uint8",
          "name": "minLevel",
          "type": "uint8"
        }
      ],
      "name": "meetsKycLevel",
      "outputs": [
        {
          "internalType": "bool",
          "name": "",
          "type": "bool"
        }
      ],
      "stateMutability": "view",
      "type": "function"
    },
    {
      "inputs": [
        {
          "internalType": "address",
          "name": "",
          "type": "address"
        }
      ],
      "name": "operators",
      "outputs": [
        {
          "internalType": "bool",
          "name": "",
          "type": "bool"
        }
      ],
      "stateMutability": "view",
      "type": "function"
    },
    {
      "inputs": [],
      "name": "owner",
      "outputs": [
        {
          "internalType": "address",
          "name": "",
          "type": "address"
        }
      ],
      "stateMutability": "view",
      "type": "function"
    },
    {
      "inputs": [
        {
          "internalType": "address",
          "name": "wallet",
          "type": "address"
        },
        {
          "internalType": "string",
          "name": "entityName",
          "type": "string"
        },
        {
          "internalType": "uint8",
          "name": "kycLevel",
          "type": "uint8"
        },
        {
          "internalType": "string",
          "name": "kycProvider",
          "type": "string"
        }
      ],
      "name": "registerInvestor",
      "outputs": [],
      "stateMutability": "nonpayable",
      "type": "function"
    },
    {
      "inputs": [
        {
          "internalType": "address",
          "name": "op",
          "type": "address"
        }
      ],
      "name": "removeOperator",
      "outputs": [],
      "stateMutability": "nonpayable",
      "type": "function"
    },
    {
      "inputs": [
        {
          "internalType": "address",
          "name": "wallet",
          "type": "address"
        }
      ],
      "name": "restoreIdentity",
      "outputs": [],
      "stateMutability": "nonpayable",
      "type": "function"
    },
    {
      "inputs": [
        {
          "internalType": "address",
          "name": "wallet",
          "type": "address"
        },
        {
          "internalType": "string",
          "name": "reason",
          "type": "string"
        }
      ],
      "name": "revokeIdentity",
      "outputs": [],
      "stateMutability": "nonpayable",
      "type": "function"
    },
    {
      "inputs": [
        {
          "internalType": "address",
          "name": "token",
          "type": "address"
        }
      ],
      "name": "setTokenContract",
      "outputs": [],
      "stateMutability": "nonpayable",
      "type": "function"
    },
    {
      "inputs": [],
      "name": "tokenContract",
      "outputs": [
        {
          "internalType": "address",
          "name": "",
          "type": "address"
        }
      ],
      "stateMutability": "view",
      "type": "function"
    },
    {
      "inputs": [],
      "name": "totalActive",
      "outputs": [
        {
          "internalType": "uint256",
          "name": "",
          "type": "uint256"
        }
      ],
      "stateMutability": "view",
      "type": "function"
    },
    {
      "inputs": [],
      "name": "totalRegistered",
      "outputs": [
        {
          "internalType": "uint256",
          "name": "",
          "type": "uint256"
        }
      ],
      "stateMutability": "view",
      "type": "function"
    },
    {
      "inputs": [
        {
          "internalType": "address",
          "name": "wallet",
          "type": "address"
        },
        {
          "internalType": "uint8",
          "name": "newLevel",
          "type": "uint8"
        }
      ],
      "name": "updateKycLevel",
      "outputs": [],
      "stateMutability": "nonpayable",
      "type": "function"
    }
  ],
  "bytecode": "0x6080806040523461004057600080546001600160a01b0319163390811782558152600560205260409020805460ff19166001179055611cda90816100468239f35b600080fdfe608080604052600436101561001357600080fd5b60003560e01c90816313e7c9d8146115d25750806326fc759c146115355780632fea7b81146113e9578063409c0f76146112f75780634ea69df014610c6457806355a373d614610c3b5780635775960014610bbb578063736b776f14610abd5780637d23e857146109f55780638628353f146109b95780638da5cb5b146109905780638fcd719414610964578063927416c0146109465780639870d7fe146108d2578063ac8a584a14610861578063b9209e3314610834578063bbcd5bbe146107c0578063d94a1e9f146102435763ddf143a9146100f057600080fd5b3461023e57604036600319011261023e5761010961160d565b6101116116c0565b60005490916001600160a01b0391821633148015610225575b610133906116d0565b169081600052600460205261014f60ff60406000205416611a1c565b60ff811660018110158061021a575b156101c95760008381526002602052604090819020805460ff60a01b19811660a095861b60ff60a01b161782557faea5ec10a4d30752bbdb7e7b8b66399549c8373eaed3fe4f24a0485971c36a18949293921c60ff16919060054291015582519182526020820152a2005b60405162461bcd60e51b815260206004820152602360248201527f4964656e7469747952656769737472793a20696e76616c6964204b5943206c656044820152621d995b60ea1b6064820152608490fd5b50600381111561015e565b503360009081526005602052604090205460ff1661012a565b600080fd5b3461023e57608036600319011261023e5761025c61160d565b6024356001600160401b03811161023e5761027b903690600401611663565b60ff6044351692836044350361023e576064356001600160401b03811161023e576102aa903690600401611663565b92909460018060a01b03938460005416331480156107a7575b6102cc906116d0565b8484161561076257600182101580610757575b1561070057848416600052600460205260ff60406000205416610695576103326040519761030c8961172e565b86861689526020890193845261032336868a611785565b9260408a019384523691611785565b6060880152600160808801524260a08801524260c0880152848416600052600260205261039860ff604060002093878a51166bffffffffffffffffffffffff60a01b8654161785555116839081549060ff60a01b9060a01b169060ff60a01b1916179055565b518051906001600160401b0382116105af5781906103b960018501546117cb565b601f8111610642575b50602090601f83116001146105d0576000926105c5575b50508160011b916000199060031b1c19161760018201555b60608601519586516001600160401b0381116105af5761041460028401546117cb565b601f8111610568575b506020601f82116001146104df576104cf9493928260059360c093600080516020611c858339815191529b9c6000926104d4575b50508160011b916000199060031b1c19161760028501555b61048860808201511515600386019060ff801983541691151516179055565b60a0810151600485015501519101556104a083611852565b83831660005260046020526040600020600160ff198254161790556040519384931695429160443591856118b5565b0390a2005b015190508c80610451565b6002840160005260206000209860005b601f1984168110610550575092600183600080516020611c858339815191529a9b60c0946104cf999897600597601f19811610610537575b505050811b016002850155610469565b015160001960f88460031b161c191690558c8080610527565b828201518b556001909a0199602092830192016104ef565b600284016000526020600020601f830160051c8101602084106105a8575b601f830160051c8201811061059c57505061041d565b60008155600101610586565b5080610586565b634e487b7160e01b600052604160045260246000fd5b0151905088806103d9565b9250600184016000526020600020906000935b601f1984168510610627576001945083601f1981161061060e575b505050811b0160018201556103f1565b015160001960f88460031b161c191690558880806105fe565b818101518355602094850194600190930192909101906105e3565b909150600184016000526020600020601f840160051c81016020851061068e575b90849392915b601f830160051c8201811061067f5750506103c2565b60008155859450600101610669565b5080610663565b60405162461bcd60e51b815260206004820152603860248201527f4964656e7469747952656769737472793a20616c72656164792072656769737460448201527f657265642c20757365207570646174654b79634c6576656c00000000000000006064820152608490fd5b60405162461bcd60e51b815260206004820152602960248201527f4964656e7469747952656769737472793a20696e76616c6964204b5943206c6560448201526876656c2028312d332960b81b6064820152608490fd5b5060038211156102df565b60405162461bcd60e51b815260206004820152601e60248201527f4964656e7469747952656769737472793a207a65726f206164647265737300006044820152606490fd5b503360009081526005602052604090205460ff166102c3565b3461023e57602036600319011261023e576107d961160d565b6000546001600160a01b0391906107f39083163314611c38565b16806bffffffffffffffffffffffff60a01b60015416176001557f9b64004f1a50e51d3c2809b6a8efbae432bfa889e0b4bf67f75e7db8ca816dba600080a2005b3461023e57602036600319011261023e57602061085761085261160d565b611974565b6040519015158152f35b3461023e57602036600319011261023e5761087a61160d565b6000546001600160a01b0391906108949083163314611c38565b16806000526005602052604060002060ff1981541690557f80c0b871b97b595b16a7741c1b06fed0c6f6f558639f18ccbce50724325dc40d600080a2005b3461023e57602036600319011261023e576108eb61160d565b6000546001600160a01b0391906109059083163314611c38565b168060005260056020526040600020600160ff198254161790557fac6fa858e9350a46cec16539926e0fde25b7629f84b5a72bffaae4df888ae86d600080a2005b3461023e57600036600319011261023e576020600354604051908152f35b3461023e57604036600319011261023e57602061085761098261160d565b61098a6116c0565b906119c6565b3461023e57600036600319011261023e576000546040516001600160a01b039091168152602090f35b3461023e57602036600319011261023e576109f16109dd6109d861160d565b611b1e565b604051918291602083526020830190611623565b0390f35b3461023e57600036600319011261023e57604051806003548083526020809301809160036000527fc2575a0e9e593c00f959f8c92f12db2869c3395a3b0502d05e2516446f71f85b9060005b86828210610aa0578686610a5782880383611764565b604051928392818401908285525180915260408401929160005b828110610a8057505050500390f35b83516001600160a01b031685528695509381019392810192600101610a71565b83546001600160a01b031685529093019260019283019201610a41565b3461023e57600036600319011261023e576000806000806000936003948554955b868210610b0257505060809450604051938452602084015260408301526060820152f35b9094610b0d86611805565b60018060a01b03915490841b1c16600052600280602052604060002060ff9081858201541615610ba4575460a01c169060018203610b5f575050610b53610b59916118dc565b956118dc565b90610ade565b919693918103610b7c5750610b76610b59916118dc565b926118dc565b9092908214610b8f575b610b59906118dc565b92610b9c610b59916118dc565b939050610b86565b5050509493610bb5610b59916118dc565b946118dc565b3461023e57600036600319011261023e5760008060038054915b828110610be757602084604051908152f35b610bf081611805565b905490831b1c6001600160a01b0316600090815260026020526040902082015460ff16610c26575b610c21906118dc565b610bd5565b92610c33610c21916118dc565b939050610c18565b3461023e57600036600319011261023e576001546040516001600160a01b039091168152602090f35b3461023e57608036600319011261023e576004356001600160401b03811161023e57610c94903690600401611690565b906024356001600160401b03811161023e57610cb4903690600401611690565b90926044356001600160401b03811161023e57610cd5903690600401611690565b9290916064356001600160401b03811161023e57610cf7903690600401611663565b6000549196916001600160a01b0316331480156112de575b610d18906116d0565b838314806112d5575b156112805760005b838110610d3257005b85906001600160a01b03610d4f610d4a838888611901565b611911565b16600052600460205260ff604060002054168015611262575b61125857898689878760ff610d86610d8188868b611901565b611925565b1615801561123e575b61122f5792610db7610d8187610dbd95610db1610d4a838098610de59b611901565b9a611901565b94611933565b60405195610dca8761172e565b60018060a01b0316865260ff60208701941684523691611785565b60408401908152610df736868d611785565b6060850152600160808501524260a0850181905260c08501526001600160a01b03610e26610d4a858a8a611901565b1660009081526002602052604090208451815493516001600160a81b03199094166001600160a01b03919091161760a09390931b60ff60a01b16929092178255518051906001600160401b0382116105af578190610e8760018501546117cb565b601f81116111dc575b50602090601f831160011461116a5760009261115f575b50508160011b916000199060031b1c19161760018201555b6060830151908151936001600160401b0385116105af578787838f94938d988f97610eee8f97600201546117cb565b601f81116110dc575b50602090601f8311600114611016576110069b97610fd4610d4a8d600080516020611c858339815191529c9a610ffe9a610fe29a600560c0610d819c8c879d610fda9d899d60009261100b575b50508160011b916000199060031b1c19161760028501555b610f7b60808201511515600386019060ff801983541691151516179055565b60a081015160048501550151910155610fa0610f9b610d4a858585611901565b611852565b6001600160a01b03610fb6610d4a858585611901565b1660005260046020526040600020600160ff19825416179055611901565b97611933565b989096611901565b6040516001600160a01b039093169592938493429291856118b5565b0390a26118dc565b610d29565b015190503880610f44565b906002859c9998979c0160005260206000209160005b601f19851681106110a7575096610fd4610d4a8d6110069f610ffe9a610fe29a600080516020611c858339815191529f9e9d60c0610d819c60018d610fda9d899f9d6005968b9f601f1981161061108e575b505050811b016002850155610f5c565b015160001960f88460031b161c1916905538808061107e565b965094995095506020929750829196999a506001908685015181550194019201948b9897948f9792948f97948f968e9661102c565b945094509450949697509450600285016000526020600020601f840160051c810160208510611158575b948c948f9792948f9a9997948e968e965b601f830160051c8201811061112d575050610ef7565b93985094995094509450600191969899506000815501948c948f9792948f9a9997948e968e96611117565b5080611106565b015190508d80610ea7565b9250600184016000526020600020906000935b601f19841685106111c1576001945083601f198116106111a8575b505050811b016001820155610ebf565b015160001960f88460031b161c191690558d8080611198565b8181015183556020948501946001909301929091019061117d565b909150600184016000526020600020601f840160051c810160208510611228575b90849392915b601f830160051c82018110611219575050610e90565b60008155859450600101611203565b50806111fd565b505050505061100691506118dc565b50600360ff611251610d8189878c611901565b1611610d8f565b61100691506118dc565b506001600160a01b03611279610d4a838888611901565b1615610d68565b60405162461bcd60e51b815260206004820152602760248201527f4964656e7469747952656769737472793a206172726179206c656e677468206d6044820152660d2e6dac2e8c6d60cb1b6064820152608490fd5b50858314610d21565b503360009081526005602052604090205460ff16610d0f565b3461023e57604036600319011261023e5761131061160d565b6024356001600160401b03811161023e576113507f5da6e2d39aaac16f62ec221477fb1318d493e476af275a04635c74191caded5f913690600401611663565b60005490936001600160a01b03918216331480156113d0575b611372906116d0565b169283600052600460205261138e60ff60406000205416611a1c565b83600052600260205260406000206003810160ff1981541690556005429101556113c5604051928392604084526040840191611894565b4260208301520390a2005b503360009081526005602052604090205460ff16611369565b3461023e5760208060031936011261023e5761140361160d565b90600060c06040516114148161172e565b8281528284820152606060408201526060808201528260808201528260a0820152015260018060a01b03809216806000526004825261145a60ff60406000205416611a1c565b600052600281526040600020604051916114738361172e565b815491848316845260ff8285019360a01c16835261151c61149660018301611a78565b604086019081526115096114ac60028501611a78565b916060880192835260ff806003870154169760808a019815158952600560048801549760a08c0198895201549760c08b019889526040519b8c9b828d525116908b0152511660408901525160e06060890152610100880190611623565b9051868203601f19016080880152611623565b9251151560a08501525160c08401525160e08301520390f35b3461023e57602036600319011261023e5761154e61160d565b6000546001600160a01b0391906115689083163314611c38565b1680600052600460205261158360ff60406000205416611a1c565b806000526002602052604060002060038101600160ff198254161790556005429101557f567571bc4346d5c6665266bee44f8aa227030e6fbb57762a6cc6787ee01505e16020604051428152a2005b3461023e57602036600319011261023e576020906001600160a01b036115f661160d565b166000526005825260ff6040600020541615158152f35b600435906001600160a01b038216820361023e57565b919082519283825260005b84811061164f575050826000602080949584010152601f8019910116010190565b60208183018101518483018201520161162e565b9181601f8401121561023e578235916001600160401b03831161023e576020838186019501011161023e57565b9181601f8401121561023e578235916001600160401b03831161023e576020808501948460051b01011161023e57565b6024359060ff8216820361023e57565b156116d757565b60405162461bcd60e51b815260206004820152602960248201527f4964656e7469747952656769737472793a206e6f7420617574686f72697365646044820152681037b832b930ba37b960b91b6064820152608490fd5b60e081019081106001600160401b038211176105af57604052565b604081019081106001600160401b038211176105af57604052565b90601f801991011681019081106001600160401b038211176105af57604052565b9291926001600160401b0382116105af57604051916117ae601f8201601f191660200184611764565b82948184528183011161023e578281602093846000960137010152565b90600182811c921680156117fb575b60208310146117e557565b634e487b7160e01b600052602260045260246000fd5b91607f16916117da565b60035481101561183c5760036000527fc2575a0e9e593c00f959f8c92f12db2869c3395a3b0502d05e2516446f71f85b0190600090565b634e487b7160e01b600052603260045260246000fd5b600354680100000000000000008110156105af578060016118769201600355611805565b819291549060031b9160018060a01b03809116831b921b1916179055565b908060209392818452848401376000828201840152601f01601f1916010190565b906118d160ff9160409497969597606085526060850191611894565b951660208201520152565b60001981146118eb5760010190565b634e487b7160e01b600052601160045260246000fd5b919081101561183c5760051b0190565b356001600160a01b038116810361023e5790565b3560ff8116810361023e5790565b919081101561183c5760051b81013590601e198136030182121561023e5701908135916001600160401b03831161023e57602001823603811361023e579190565b6001600160a01b031660009081526004602052604090205460ff16156119c1576002602052604060002060ff60038201541690816119b0575090565b6001915060ff905460a01c16101590565b600090565b6001600160a01b031660009081526004602052604090205460ff1615611a1657600260205260406000209060ff6003830154169182611a0457505090565b5460a01c60ff90811691161115919050565b50600090565b15611a2357565b60405162461bcd60e51b815260206004820152602760248201527f4964656e7469747952656769737472793a2077616c6c6574206e6f74207265676044820152661a5cdd195c995960ca1b6064820152608490fd5b9060405191826000825492611a8c846117cb565b908184526001948581169081600014611afb5750600114611ab8575b5050611ab692500383611764565b565b9093915060005260209081600020936000915b818310611ae3575050611ab693508201013880611aa8565b85548884018501529485019487945091830191611acb565b915050611ab694506020925060ff191682840152151560051b8201013880611aa8565b60018060a01b0316806000526020906004825260409060ff82600020541615611c1d57600052600282528060002060ff600381835460a01c169201541615611c055760018114611be45760028114611bbf57600314611b9857662aa725a727aba760c91b905191611b8e83611749565b6007835282015290565b6c125394d5125515551253d39053609a1b905191611bb583611749565b600d835282015290565b50691050d0d491511255115160b21b905191611bda83611749565b600a835282015290565b506514915510525360d21b905191611bfb83611749565b6006835282015290565b506614915593d2d15160ca1b905191611b8e83611749565b50691553959154925192515160b21b905191611bda83611749565b15611c3f57565b60405162461bcd60e51b815260206004820152601b60248201527f4964656e7469747952656769737472793a206e6f74206f776e657200000000006044820152606490fdfecbce422c6b6427cc0e9730c4131e9a7b907e0803d4b40ab8f797841b9053ca76a2646970667358221220d7d15c88c94c6edac47702b578bddfbd1979d972ccc32470235bbcab572b7b1464736f6c63430008130033",
  "linkReferences": {},
  "deployedLinkReferences": {}
}