{"contracts/ComplianceRules.sol":{"ComplianceRules":{"abi":[{"inputs":[{"internalType":"address","name":"_identityRegistry","type":"address"},{"internalType":"address","name":"_complianceModule","type":"address"}],"stateMutability":"nonpayable","type":"constructor"},{"inputs":[{"internalType":"uint256","name":"amount","type":"uint256"},{"internalType":"uint256","name":"minimum","type":"uint256"}],"name":"AmountBelowMinimum","type":"error"},{"inputs":[{"internalType":"address","name":"startupToken","type":"address"},{"internalType":"uint8","name":"score","type":"uint8"}],"name":"ComplianceScoreTooLow","type":"error"},{"inputs":[{"internalType":"address","name":"from","type":"address"},{"internalType":"address","name":"to","type":"address"}],"name":"ExternalComplianceFailed","type":"error"},{"inputs":[{"internalType":"address","name":"investor","type":"address"}],"name":"KYCNotVerified","type":"error"},{"inputs":[{"internalType":"address","name":"investor","type":"address"}],"name":"NotAccredited","type":"error"},{"inputs":[{"internalType":"address","name":"startupToken","type":"address"}],"name":"TransfersFrozen","type":"error"},{"inputs":[{"internalType":"address","name":"caller","type":"address"}],"name":"Unauthorised","type":"error"},{"anonymous":false,"inputs":[{"indexed":true,"internalType":"address","name":"investor","type":"address"},{"indexed":false,"internalType":"bool","name":"accredited","type":"bool"},{"indexed":true,"internalType":"address","name":"updatedBy","type":"address"}],"name":"AccreditationUpdated","type":"event"},{"anonymous":false,"inputs":[{"indexed":true,"internalType":"address","name":"startupToken","type":"address"},{"indexed":false,"internalType":"uint8","name":"newScore","type":"uint8"},{"indexed":true,"internalType":"address","name":"oracle","type":"address"}],"name":"ComplianceScoreUpdated","type":"event"},{"anonymous":false,"inputs":[{"indexed":true,"internalType":"address","name":"investor","type":"address"},{"indexed":false,"internalType":"bool","name":"verified","type":"bool"},{"indexed":true,"internalType":"address","name":"updatedBy","type":"address"}],"name":"KYCStatusUpdated","type":"event"},{"anonymous":false,"inputs":[{"indexed":true,"internalType":"address","name":"startupToken","type":"address"},{"indexed":false,"internalType":"bool","name":"enabled","type":"bool"},{"indexed":false,"internalType":"string","name":"reason","type":"string"}],"name":"TransferFreezeToggled","type":"event"},{"anonymous":false,"inputs":[{"indexed":true,"internalType":"address","name":"from","type":"address"},{"indexed":true,"internalType":"address","name":"to","type":"address"},{"indexed":false,"internalType":"uint256","name":"amount","type":"uint256"},{"indexed":false,"internalType":"bool","name":"allowed","type":"bool"},{"indexed":false,"internalType":"string","name":"reason","type":"string"}],"name":"TransferPolicyEvaluated","type":"event"},{"anonymous":false,"inputs":[{"indexed":true,"internalType":"address","name":"from","type":"address"},{"indexed":true,"internalType":"address","name":"to","type":"address"},{"indexed":false,"internalType":"uint256","name":"amount","type":"uint256"},{"indexed":false,"internalType":"string","name":"reason","type":"string"}],"name":"UnauthorisedTransferBlocked","type":"event"},{"inputs":[{"internalType":"address[]","name":"investors","type":"address[]"},{"internalType":"bool[]","name":"kycStatuses","type":"bool[]"},{"internalType":"bool[]","name":"accreditStatuses","type":"bool[]"}],"name":"batchVerifyInvestors","outputs":[],"stateMutability":"nonpayable","type":"function"},{"inputs":[{"internalType":"address","name":"from","type":"address"},{"internalType":"address","name":"to","type":"address"},{"internalType":"uint256","name":"amount","type":"uint256"},{"internalType":"address","name":"startupToken","type":"address"}],"name":"canTransfer","outputs":[{"internalType":"bool","name":"allowed","type":"bool"},{"internalType":"string","name":"reason","type":"string"}],"stateMutability":"view","type":"function"},{"inputs":[],"name":"complianceModule","outputs":[{"internalType":"contract ICompliance","name":"","type":"address"}],"stateMutability":"view","type":"function"},{"inputs":[{"internalType":"address","name":"","type":"address"}],"name":"complianceScore","outputs":[{"internalType":"uint8","name":"","type":"uint8"}],"stateMutability":"view","type":"function"},{"inputs":[{"internalType":"address","name":"investor","type":"address"}],"name":"getInvestorStatus","outputs":[{"internalType":"bool","name":"kyc","type":"bool"},{"internalType":"bool","name":"accredited","type":"bool"},{"internalType":"bool","name":"fullPass","type":"bool"}],"stateMutability":"view","type":"function"},{"inputs":[{"internalType":"address","name":"startupToken","type":"address"}],"name":"getStartupCompliance","outputs":[{"internalType":"bool","name":"enabled","type":"bool"},{"internalType":"uint8","name":"score","type":"uint8"},{"internalType":"bool","name":"healthy","type":"bool"}],"stateMutability":"view","type":"function"},{"inputs":[],"name":"identityRegistry","outputs":[{"internalType":"contract IIdentityRegistry","name":"","type":"address"}],"stateMutability":"view","type":"function"},{"inputs":[{"internalType":"address","name":"","type":"address"}],"name":"isAccredited","outputs":[{"internalType":"bool","name":"","type":"bool"}],"stateMutability":"view","type":"function"},{"inputs":[{"internalType":"address","name":"","type":"address"}],"name":"isKYCVerified","outputs":[{"internalType":"bool","name":"","type":"bool"}],"stateMutability":"view","type":"function"},{"inputs":[],"name":"maxHoldingBps","outputs":[{"internalType":"uint16","name":"","type":"uint16"}],"stateMutability":"view","type":"function"},{"inputs":[],"name":"minTransferAmount","outputs":[{"internalType":"uint256","name":"","type":"uint256"}],"stateMutability":"view","type":"function"},{"inputs":[],"name":"owner","outputs":[{"internalType":"address","name":"","type":"address"}],"stateMutability":"view","type":"function"},{"inputs":[{"internalType":"address","name":"investor","type":"address"},{"internalType":"bool","name":"accredited","type":"bool"}],"name":"setAccredited","outputs":[],"stateMutability":"nonpayable","type":"function"},{"inputs":[{"internalType":"address","name":"newModule","type":"address"}],"name":"setComplianceModule","outputs":[],"stateMutability":"nonpayable","type":"function"},{"inputs":[{"internalType":"address","name":"investor","type":"address"},{"internalType":"bool","name":"verified","type":"bool"}],"name":"setKYCVerified","outputs":[],"stateMutability":"nonpayable","type":"function"},{"inputs":[{"internalType":"uint16","name":"bps","type":"uint16"}],"name":"setMaxHoldingBps","outputs":[],"stateMutability":"nonpayable","type":"function"},{"inputs":[{"internalType":"uint256","name":"newMin","type":"uint256"}],"name":"setMinTransferAmount","outputs":[],"stateMutability":"nonpayable","type":"function"},{"inputs":[{"internalType":"address","name":"startupToken","type":"address"},{"internalType":"bool","name":"enabled","type":"bool"},{"internalType":"string","name":"reason","type":"string"}],"name":"setTransferEnabled","outputs":[],"stateMutability":"nonpayable","type":"function"},{"inputs":[{"internalType":"address","name":"newOwner","type":"address"}],"name":"transferOwnership","outputs":[],"stateMutability":"nonpayable","type":"function"},{"inputs":[{"internalType":"address","name":"","type":"address"}],"name":"transfersEnabled","outputs":[{"internalType":"bool","name":"","type":"bool"}],"stateMutability":"view","type":"function"},{"inputs":[{"internalType":"address","name":"startupToken","type":"address"},{"internalType":"uint8","name":"score","type":"uint8"}],"name":"updateComplianceScore","outputs":[],"stateMutability":"nonpayable","type":"function"}],"evm":{"bytecode":{"linkReferences":{},"object":"6080346100ae57601f6111e338819003918201601f19168301916001600160401b038311848410176100b35780849260409485528339810103126100ae57610052602061004b836100c9565b92016100c9565b906107d061ffff196007541617600755683635c9adc5dea0000060085560018060a01b0319913383600054161760005560018060a01b038092168360015416176001551690600254161760025560405161110590816100de8239f35b600080fd5b634e487b7160e01b600052604160045260246000fd5b51906001600160a01b03821682036100ae5756fe608060408181526004908136101561001657600080fd5b600092833560e01c9081630370f65514610a2257508063134e18f4146109f95780632d598d7b146109bc57806334eeedba14610933578063423db9c7146108e357806344168e3f146108c057806354b7636e14610882578063577902d41461077b578063688414311461075c5780636a93316c146106f757806381a7f03d146106bb57806382a9f1451461061e5780638da5cb5b146105f6578063a84b77461461040a578063aba8724a146103cc578063b92e63961461038a578063c1ac79ae14610361578063d3e9a8de146102f8578063dbbc841f14610254578063f2fde38b146101b05763f40ed0d81461010b57600080fd5b346101ac57806003193601126101ac57610123610ca0565b9161012c610cb6565b845490936001600160a01b0392909183163303610195575016908184526003602052610166838286209060ff801983541691151516179055565b5191151582527f24a8961e762fdb5b58e46e6d14dd1b5c261b610bf3bf440130bdabbfc699116a60203393a380f35b60249084519063570870ef60e11b82523390820152fd5b8280fd5b5090346101ac5760203660031901126101ac576101cb610ca0565b835491906001600160a01b0390818416330361023e57169283156101fb5750506001600160a01b03191617815580f35b906020606492519162461bcd60e51b8352820152601860248201527f5a65726f2061646472657373206e6f7420616c6c6f77656400000000000000006044820152fd5b845163570870ef60e11b81523381850152602490fd5b8382346102f45760803660031901126102f45761026f610ca0565b602435906001600160a01b039081831683036102f05760643591821682036102f05761029e9260443591610d3e565b918051938492151583526020828185015284518093850152815b8381106102d957505060608094508284010152601f80199101168101030190f35b8086018201518782016060015286945081016102b8565b8480fd5b5080fd5b8382346102f45760203660031901126102f45760609181906001600160a01b03610320610ca0565b168152600560205260ff808383205416938492600660205220541681610355575b825193151584526020840152151590820152f35b601e8110159150610341565b8382346102f457816003193601126102f45760025490516001600160a01b039091168152602090f35b50346101ac5760203660031901126101ac5782546001600160a01b031633036103b557503560085580f35b60249250519063570870ef60e11b82523390820152fd5b8382346102f45760203660031901126102f45760209160ff9082906001600160a01b036103f7610ca0565b1681526005855220541690519015158152f35b5090346101ac57816003193601126101ac57610424610ca0565b906024359160ff83168093036102f05784546001600160a01b039290831633036105df5750169182845260209160068352601e8286209160ff199281848254161790558351818152867f35000dbb8d60941c4efb400ad422faeb50778db8ad1e5401e2b84316f9588702873393a31080806105cb575b1561051a575091602260a0927f853b25f1d7c6595e18d87d0b22b394edef64253d51ebdf6096e2805c312806389486885260058452818820908154169055808051938885528401528201527f4175746f2d66726f7a656e3a20636f6d706c69616e63652073636f7265203c20606082015261033360f41b6080820152a280f35b92909215806105b6575b610530575b5050505080f35b602560a0927f853b25f1d7c6595e18d87d0b22b394edef64253d51ebdf6096e2805c31280638948688526005845260018289209182541617905580805193600185528401528201527f4175746f2d756e66726f7a656e3a20636f6d706c69616e63652073636f72652060608201526403e3d2033360dc1b6080820152a238808080610529565b508385526005815260ff828620541615610524565b508486526005845260ff838720541661049a565b60249085519063570870ef60e11b82523390820152fd5b8382346102f457816003193601126102f457905490516001600160a01b039091168152602090f35b5090346101ac57816003193601126101ac57610638610ca0565b91610641610cb6565b845490936001600160a01b0391821633036106a5571691828552602052610676838286209060ff801983541691151516179055565b5191151582527f4044abff324342d4e3c04efb6ad280abd4bb27da95af09feffd9c05b96a490ee60203393a380f35b825163570870ef60e11b81523381860152602490fd5b8382346102f45760203660031901126102f45760209160ff9082906001600160a01b036106e6610ca0565b168152600685522054169051908152f35b508290346102f45760203660031901126102f4576060926001600160a01b0361071e610ca0565b168352600360205260ff8281818620541694859360205220541681610754575b8251931515845215156020840152151590820152f35b90508061073e565b8382346102f457816003193601126102f4576020906008549051908152f35b50346101ac5760603660031901126101ac57610795610ca0565b61079d610cb6565b906044359367ffffffffffffffff9182861161087e573660238701121561087e578582013592831161087e57366024848801011161087e5786546001600160a01b039290831633036108675750918060247f853b25f1d7c6595e18d87d0b22b394edef64253d51ebdf6096e2805c312806389695936060951697888a52600560205261083785888c209060ff801983541691151516179055565b8287519788961515875280602088015286015201848401378181018301879052601f01601f19168101030190a280f35b60249086519063570870ef60e11b82523390820152fd5b8680fd5b8382346102f45760203660031901126102f45760209160ff9082906001600160a01b036108ad610ca0565b1681526003855220541690519015158152f35b8382346102f457816003193601126102f45760209061ffff600754169051908152f35b5090346101ac5760203660031901126101ac576108fe610ca0565b83546001600160a01b039391929190841633036103b5575050166bffffffffffffffffffffffff60a01b600254161760025580f35b5090346101ac5760203660031901126101ac5780359161ffff83168093036109b85783546001600160a01b031633036103b557612710831161098057505061ffff19600754161760075580f35b906020606492519162461bcd60e51b8352820152601260248201527143616e6e6f7420657863656564203130302560701b6044820152fd5b8380fd5b5090346101ac5760203660031901126101ac5760209260ff918391906001600160a01b036109e8610ca0565b168252855220541690519015158152f35b8382346102f457816003193601126102f45760015490516001600160a01b039091168152602090f35b919050346109b85760603660031901126109b85767ffffffffffffffff918335838111610c6657610a569036908601610c6a565b9390602435828111610c6257610a6f9036908801610c6a565b959092604435908111610c5e57610a899036908901610c6a565b96909360018060a01b0395868b54163303610c4a575081831480610c41575b15610c0657895b838110610aba578a80f35b610ac5818484610cc5565b610ace90610ceb565b87610ada838789610cc5565b610ae390610cf8565b168c5260209060038252898d2090610b06919060ff801983541691151516179055565b610b11828b89610cc5565b610b1a90610ceb565b88610b2684888a610cc5565b610b2f90610cf8565b168d528b8252898d2090610b4e919060ff801983541691151516179055565b610b59828688610cc5565b610b6290610cf8565b81610b6e848787610cc5565b610b7790610ceb565b8b5190151581528a339316917f24a8961e762fdb5b58e46e6d14dd1b5c261b610bf3bf440130bdabbfc699116a91a3610bb1828688610cc5565b610bba90610cf8565b90610bc6838c8a610cc5565b610bcf90610ceb565b8a51901515815289339316917f4044abff324342d4e3c04efb6ad280abd4bb27da95af09feffd9c05b96a490ee91a3600101610aaf565b865162461bcd60e51b81526020818b01526015602482015274082e4e4c2f240d8cadccee8d040dad2e6dac2e8c6d605b1b6044820152606490fd5b50878314610aa8565b63570870ef60e11b8152338a820152602490fd5b8880fd5b8780fd5b8580fd5b9181601f84011215610c9b5782359167ffffffffffffffff8311610c9b576020808501948460051b010111610c9b57565b600080fd5b600435906001600160a01b0382168203610c9b57565b602435908115158203610c9b57565b9190811015610cd55760051b0190565b634e487b7160e01b600052603260045260246000fd5b358015158103610c9b5790565b356001600160a01b0381168103610c9b5790565b6040810190811067ffffffffffffffff821117610d2857604052565b634e487b7160e01b600052604160045260246000fd5b9190939260085482106110975760018060a01b038093169160009280845260209485916003835260ff91604099838b89205416156110625781169283885260038552808b892054161561102357828852600496878652818c8a20541615610feb57848952878652818c8a20541615610fab57821680895260058652818c8a20541615610f75578852600685528a882054601e911610610f3757600254169081610e1d575b505050505060019480519384019184831067ffffffffffffffff841117610e0a575052815290565b634e487b7160e01b845260419052602483fd5b6064918a5195869485936372331c7360e11b855289850152602484015260448301525afa908115610f2d578391610ecd575b5015610e5f573883818080610de2565b9390918294825193606085019185831067ffffffffffffffff841117610eba5750508252602383527f45787465726e616c20636f6d706c69616e6365206d6f64756c652072656a656390830152621d195960ea1b9082015290565b634e487b7160e01b825260419052602490fd5b9050833d8511610f26575b601f8101601f1916820167ffffffffffffffff811183821017610f1357859183918952810103126101ac575180151581036101ac5738610e4f565b634e487b7160e01b855260418452602485fd5b503d610ed8565b86513d85823e3d90fd5b5050505050507f436f6d706c69616e63652073636f726520746f6f206c6f77000000000000000090935191610f6b83610d0c565b6018835282015290565b50505050505050507f53746172747570207472616e73666572732066726f7a656e000000000000000090935191610f6b83610d0c565b50505050505050507f5265636569766572206e6f74206163637265646974656400000000000000000090935191610fe183610d0c565b6017835282015290565b50505050505050507414d95b99195c881b9bdd081858d8dc99591a5d1959605a1b9093519161101983610d0c565b6015835282015290565b505050505050507f5265636569766572204b5943206e6f74207665726966696564000000000000009093519161105883610d0c565b6019835282015290565b505050505050507f53656e646572204b5943206e6f7420766572696669656400000000000000000090935191610fe183610d0c565b50505090506000906040516110ab81610d0c565b6014815273416d6f756e742062656c6f77206d696e696d756d60601b60208201529056fea26469706673582212200bb2812849b2ed065ab7b4faea4a68cfce1aaa1a0413579e56f73b8701db5d5064736f6c63430008130033","opcodes":"PUSH1 0x80 CALLVALUE PUSH2 0xAE JUMPI PUSH1 0x1F PUSH2 0x11E3 CODESIZE DUP2 SWAP1 SUB SWAP2 DUP3 ADD PUSH1 0x1F NOT AND DUP4 ADD SWAP2 PUSH1 0x1 PUSH1 0x1 PUSH1 0x40 SHL SUB DUP4 GT DUP5 DUP5 LT OR PUSH2 0xB3 JUMPI DUP1 DUP5 SWAP3 PUSH1 0x40 SWAP5 DUP6 MSTORE DUP4 CODECOPY DUP2 ADD SUB SLT PUSH2 0xAE JUMPI PUSH2 0x52 PUSH1 0x20 PUSH2 0x4B DUP4 PUSH2 0xC9 JUMP JUMPDEST SWAP3 ADD PUSH2 0xC9 JUMP JUMPDEST SWAP1 PUSH2 0x7D0 PUSH2 0xFFFF NOT PUSH1 0x7 SLOAD AND OR PUSH1 0x7 SSTORE PUSH9 0x3635C9ADC5DEA00000 PUSH1 0x8 SSTORE PUSH1 0x1 DUP1 PUSH1 0xA0 SHL SUB NOT SWAP2 CALLER DUP4 PUSH1 0x0 SLOAD AND OR PUSH1 0x0 SSTORE PUSH1 0x1 DUP1 PUSH1 0xA0 SHL SUB DUP1 SWAP3 AND DUP4 PUSH1 0x1 SLOAD AND OR PUSH1 0x1 SSTORE AND SWAP1 PUSH1 0x2 SLOAD AND OR PUSH1 0x2 SSTORE PUSH1 0x40 MLOAD PUSH2 0x1105 SWAP1 DUP2 PUSH2 0xDE DUP3 CODECOPY RETURN JUMPDEST PUSH1 0x0 DUP1 REVERT JUMPDEST PUSH4 0x4E487B71 PUSH1 0xE0 SHL PUSH1 0x0 MSTORE PUSH1 0x41 PUSH1 0x4 MSTORE PUSH1 0x24 PUSH1 0x0 REVERT JUMPDEST MLOAD SWAP1 PUSH1 0x1 PUSH1 0x1 PUSH1 0xA0 SHL SUB DUP3 AND DUP3 SUB PUSH2 0xAE JUMPI JUMP INVALID PUSH1 0x80 PUSH1 0x40 DUP2 DUP2 MSTORE PUSH1 0x4 SWAP1 DUP2 CALLDATASIZE LT ISZERO PUSH2 0x16 JUMPI PUSH1 0x0 DUP1 REVERT JUMPDEST PUSH1 0x0 SWAP3 DUP4 CALLDATALOAD PUSH1 0xE0 SHR SWAP1 DUP2 PUSH4 0x370F655 EQ PUSH2 0xA22 JUMPI POP DUP1 PUSH4 0x134E18F4 EQ PUSH2 0x9F9 JUMPI DUP1 PUSH4 0x2D598D7B EQ PUSH2 0x9BC JUMPI DUP1 PUSH4 0x34EEEDBA EQ PUSH2 0x933 JUMPI DUP1 PUSH4 0x423DB9C7 EQ PUSH2 0x8E3 JUMPI DUP1 PUSH4 0x44168E3F EQ PUSH2 0x8C0 JUMPI DUP1 PUSH4 0x54B7636E EQ PUSH2 0x882 JUMPI DUP1 PUSH4 0x577902D4 EQ PUSH2 0x77B JUMPI DUP1 PUSH4 0x68841431 EQ PUSH2 0x75C JUMPI DUP1 PUSH4 0x6A93316C EQ PUSH2 0x6F7 JUMPI DUP1 PUSH4 0x81A7F03D EQ PUSH2 0x6BB JUMPI DUP1 PUSH4 0x82A9F145 EQ PUSH2 0x61E JUMPI DUP1 PUSH4 0x8DA5CB5B EQ PUSH2 0x5F6 JUMPI DUP1 PUSH4 0xA84B7746 EQ PUSH2 0x40A JUMPI DUP1 PUSH4 0xABA8724A EQ PUSH2 0x3CC JUMPI DUP1 PUSH4 0xB92E6396 EQ PUSH2 0x38A JUMPI DUP1 PUSH4 0xC1AC79AE EQ PUSH2 0x361 JUMPI DUP1 PUSH4 0xD3E9A8DE EQ PUSH2 0x2F8 JUMPI DUP1 PUSH4 0xDBBC841F EQ PUSH2 0x254 JUMPI DUP1 PUSH4 0xF2FDE38B EQ PUSH2 0x1B0 JUMPI PUSH4 0xF40ED0D8 EQ PUSH2 0x10B JUMPI PUSH1 0x0 DUP1 REVERT JUMPDEST CALLVALUE PUSH2 0x1AC JUMPI DUP1 PUSH1 0x3 NOT CALLDATASIZE ADD SLT PUSH2 0x1AC JUMPI PUSH2 0x123 PUSH2 0xCA0 JUMP JUMPDEST SWAP2 PUSH2 0x12C PUSH2 0xCB6 JUMP JUMPDEST DUP5 SLOAD SWAP1 SWAP4 PUSH1 0x1 PUSH1 0x1 PUSH1 0xA0 SHL SUB SWAP3 SWAP1 SWAP2 DUP4 AND CALLER SUB PUSH2 0x195 JUMPI POP AND SWAP1 DUP2 DUP5 MSTORE PUSH1 0x3 PUSH1 0x20 MSTORE PUSH2 0x166 DUP4 DUP3 DUP7 KECCAK256 SWAP1 PUSH1 0xFF DUP1 NOT DUP4 SLOAD AND SWAP2 ISZERO ISZERO AND OR SWAP1 SSTORE JUMP JUMPDEST MLOAD SWAP2 ISZERO ISZERO DUP3 MSTORE PUSH32 0x24A8961E762FDB5B58E46E6D14DD1B5C261B610BF3BF440130BDABBFC699116A PUSH1 0x20 CALLER SWAP4 LOG3 DUP1 RETURN JUMPDEST PUSH1 0x24 SWAP1 DUP5 MLOAD SWAP1 PUSH4 0x570870EF PUSH1 0xE1 SHL DUP3 MSTORE CALLER SWAP1 DUP3 ADD MSTORE REVERT JUMPDEST DUP3 DUP1 REVERT JUMPDEST POP SWAP1 CALLVALUE PUSH2 0x1AC JUMPI PUSH1 0x20 CALLDATASIZE PUSH1 0x3 NOT ADD SLT PUSH2 0x1AC JUMPI PUSH2 0x1CB PUSH2 0xCA0 JUMP JUMPDEST DUP4 SLOAD SWAP2 SWAP1 PUSH1 0x1 PUSH1 0x1 PUSH1 0xA0 SHL SUB SWAP1 DUP2 DUP5 AND CALLER SUB PUSH2 0x23E JUMPI AND SWAP3 DUP4 ISZERO PUSH2 0x1FB JUMPI POP POP PUSH1 0x1 PUSH1 0x1 PUSH1 0xA0 SHL SUB NOT AND OR DUP2 SSTORE DUP1 RETURN JUMPDEST SWAP1 PUSH1 0x20 PUSH1 0x64 SWAP3 MLOAD SWAP2 PUSH3 0x461BCD PUSH1 0xE5 SHL DUP4 MSTORE DUP3 ADD MSTORE PUSH1 0x18 PUSH1 0x24 DUP3 ADD MSTORE PUSH32 0x5A65726F2061646472657373206E6F7420616C6C6F7765640000000000000000 PUSH1 0x44 DUP3 ADD MSTORE REVERT JUMPDEST DUP5 MLOAD PUSH4 0x570870EF PUSH1 0xE1 SHL DUP2 MSTORE CALLER DUP2 DUP6 ADD MSTORE PUSH1 0x24 SWAP1 REVERT JUMPDEST DUP4 DUP3 CALLVALUE PUSH2 0x2F4 JUMPI PUSH1 0x80 CALLDATASIZE PUSH1 0x3 NOT ADD SLT PUSH2 0x2F4 JUMPI PUSH2 0x26F PUSH2 0xCA0 JUMP JUMPDEST PUSH1 0x24 CALLDATALOAD SWAP1 PUSH1 0x1 PUSH1 0x1 PUSH1 0xA0 SHL SUB SWAP1 DUP2 DUP4 AND DUP4 SUB PUSH2 0x2F0 JUMPI PUSH1 0x64 CALLDATALOAD SWAP2 DUP3 AND DUP3 SUB PUSH2 0x2F0 JUMPI PUSH2 0x29E SWAP3 PUSH1 0x44 CALLDATALOAD SWAP2 PUSH2 0xD3E JUMP JUMPDEST SWAP2 DUP1 MLOAD SWAP4 DUP5 SWAP3 ISZERO ISZERO DUP4 MSTORE PUSH1 0x20 DUP3 DUP2 DUP6 ADD MSTORE DUP5 MLOAD DUP1 SWAP4 DUP6 ADD MSTORE DUP2 JUMPDEST DUP4 DUP2 LT PUSH2 0x2D9 JUMPI POP POP PUSH1 0x60 DUP1 SWAP5 POP DUP3 DUP5 ADD ADD MSTORE PUSH1 0x1F DUP1 NOT SWAP2 ADD AND DUP2 ADD SUB ADD SWAP1 RETURN JUMPDEST DUP1 DUP7 ADD DUP3 ADD MLOAD DUP8 DUP3 ADD PUSH1 0x60 ADD MSTORE DUP7 SWAP5 POP DUP2 ADD PUSH2 0x2B8 JUMP JUMPDEST DUP5 DUP1 REVERT JUMPDEST POP DUP1 REVERT JUMPDEST DUP4 DUP3 CALLVALUE PUSH2 0x2F4 JUMPI PUSH1 0x20 CALLDATASIZE PUSH1 0x3 NOT ADD SLT PUSH2 0x2F4 JUMPI PUSH1 0x60 SWAP2 DUP2 SWAP1 PUSH1 0x1 PUSH1 0x1 PUSH1 0xA0 SHL SUB PUSH2 0x320 PUSH2 0xCA0 JUMP JUMPDEST AND DUP2 MSTORE PUSH1 0x5 PUSH1 0x20 MSTORE PUSH1 0xFF DUP1 DUP4 DUP4 KECCAK256 SLOAD AND SWAP4 DUP5 SWAP3 PUSH1 0x6 PUSH1 0x20 MSTORE KECCAK256 SLOAD AND DUP2 PUSH2 0x355 JUMPI JUMPDEST DUP3 MLOAD SWAP4 ISZERO ISZERO DUP5 MSTORE PUSH1 0x20 DUP5 ADD MSTORE ISZERO ISZERO SWAP1 DUP3 ADD MSTORE RETURN JUMPDEST PUSH1 0x1E DUP2 LT ISZERO SWAP2 POP PUSH2 0x341 JUMP JUMPDEST DUP4 DUP3 CALLVALUE PUSH2 0x2F4 JUMPI DUP2 PUSH1 0x3 NOT CALLDATASIZE ADD SLT PUSH2 0x2F4 JUMPI PUSH1 0x2 SLOAD SWAP1 MLOAD PUSH1 0x1 PUSH1 0x1 PUSH1 0xA0 SHL SUB SWAP1 SWAP2 AND DUP2 MSTORE PUSH1 0x20 SWAP1 RETURN JUMPDEST POP CALLVALUE PUSH2 0x1AC JUMPI PUSH1 0x20 CALLDATASIZE PUSH1 0x3 NOT ADD SLT PUSH2 0x1AC JUMPI DUP3 SLOAD PUSH1 0x1 PUSH1 0x1 PUSH1 0xA0 SHL SUB AND CALLER SUB PUSH2 0x3B5 JUMPI POP CALLDATALOAD PUSH1 0x8 SSTORE DUP1 RETURN JUMPDEST PUSH1 0x24 SWAP3 POP MLOAD SWAP1 PUSH4 0x570870EF PUSH1 0xE1 SHL DUP3 MSTORE CALLER SWAP1 DUP3 ADD MSTORE REVERT JUMPDEST DUP4 DUP3 CALLVALUE PUSH2 0x2F4 JUMPI PUSH1 0x20 CALLDATASIZE PUSH1 0x3 NOT ADD SLT PUSH2 0x2F4 JUMPI PUSH1 0x20 SWAP2 PUSH1 0xFF SWAP1 DUP3 SWAP1 PUSH1 0x1 PUSH1 0x1 PUSH1 0xA0 SHL SUB PUSH2 0x3F7 PUSH2 0xCA0 JUMP JUMPDEST AND DUP2 MSTORE PUSH1 0x5 DUP6 MSTORE KECCAK256 SLOAD AND SWAP1 MLOAD SWAP1 ISZERO ISZERO DUP2 MSTORE RETURN JUMPDEST POP SWAP1 CALLVALUE PUSH2 0x1AC JUMPI DUP2 PUSH1 0x3 NOT CALLDATASIZE ADD SLT PUSH2 0x1AC JUMPI PUSH2 0x424 PUSH2 0xCA0 JUMP JUMPDEST SWAP1 PUSH1 0x24 CALLDATALOAD SWAP2 PUSH1 0xFF DUP4 AND DUP1 SWAP4 SUB PUSH2 0x2F0 JUMPI DUP5 SLOAD PUSH1 0x1 PUSH1 0x1 PUSH1 0xA0 SHL SUB SWAP3 SWAP1 DUP4 AND CALLER SUB PUSH2 0x5DF JUMPI POP AND SWAP2 DUP3 DUP5 MSTORE PUSH1 0x20 SWAP2 PUSH1 0x6 DUP4 MSTORE PUSH1 0x1E DUP3 DUP7 KECCAK256 SWAP2 PUSH1 0xFF NOT SWAP3 DUP2 DUP5 DUP3 SLOAD AND OR SWAP1 SSTORE DUP4 MLOAD DUP2 DUP2 MSTORE DUP7 PUSH32 0x35000DBB8D60941C4EFB400AD422FAEB50778DB8AD1E5401E2B84316F9588702 DUP8 CALLER SWAP4 LOG3 LT DUP1 DUP1 PUSH2 0x5CB JUMPI JUMPDEST ISZERO PUSH2 0x51A JUMPI POP SWAP2 PUSH1 0x22 PUSH1 0xA0 SWAP3 PUSH32 0x853B25F1D7C6595E18D87D0B22B394EDEF64253D51EBDF6096E2805C31280638 SWAP5 DUP7 DUP9 MSTORE PUSH1 0x5 DUP5 MSTORE DUP2 DUP9 KECCAK256 SWAP1 DUP2 SLOAD AND SWAP1 SSTORE DUP1 DUP1 MLOAD SWAP4 DUP9 DUP6 MSTORE DUP5 ADD MSTORE DUP3 ADD MSTORE PUSH32 0x4175746F2D66726F7A656E3A20636F6D706C69616E63652073636F7265203C20 PUSH1 0x60 DUP3 ADD MSTORE PUSH2 0x333 PUSH1 0xF4 SHL PUSH1 0x80 DUP3 ADD MSTORE LOG2 DUP1 RETURN JUMPDEST SWAP3 SWAP1 SWAP3 ISZERO DUP1 PUSH2 0x5B6 JUMPI JUMPDEST PUSH2 0x530 JUMPI JUMPDEST POP POP POP POP DUP1 RETURN JUMPDEST PUSH1 0x25 PUSH1 0xA0 SWAP3 PUSH32 0x853B25F1D7C6595E18D87D0B22B394EDEF64253D51EBDF6096E2805C31280638 SWAP5 DUP7 DUP9 MSTORE PUSH1 0x5 DUP5 MSTORE PUSH1 0x1 DUP3 DUP10 KECCAK256 SWAP2 DUP3 SLOAD AND OR SWAP1 SSTORE DUP1 DUP1 MLOAD SWAP4 PUSH1 0x1 DUP6 MSTORE DUP5 ADD MSTORE DUP3 ADD MSTORE PUSH32 0x4175746F2D756E66726F7A656E3A20636F6D706C69616E63652073636F726520 PUSH1 0x60 DUP3 ADD MSTORE PUSH5 0x3E3D20333 PUSH1 0xDC SHL PUSH1 0x80 DUP3 ADD MSTORE LOG2 CODESIZE DUP1 DUP1 DUP1 PUSH2 0x529 JUMP JUMPDEST POP DUP4 DUP6 MSTORE PUSH1 0x5 DUP2 MSTORE PUSH1 0xFF DUP3 DUP7 KECCAK256 SLOAD AND ISZERO PUSH2 0x524 JUMP JUMPDEST POP DUP5 DUP7 MSTORE PUSH1 0x5 DUP5 MSTORE PUSH1 0xFF DUP4 DUP8 KECCAK256 SLOAD AND PUSH2 0x49A JUMP JUMPDEST PUSH1 0x24 SWAP1 DUP6 MLOAD SWAP1 PUSH4 0x570870EF PUSH1 0xE1 SHL DUP3 MSTORE CALLER SWAP1 DUP3 ADD MSTORE REVERT JUMPDEST DUP4 DUP3 CALLVALUE PUSH2 0x2F4 JUMPI DUP2 PUSH1 0x3 NOT CALLDATASIZE ADD SLT PUSH2 0x2F4 JUMPI SWAP1 SLOAD SWAP1 MLOAD PUSH1 0x1 PUSH1 0x1 PUSH1 0xA0 SHL SUB SWAP1 SWAP2 AND DUP2 MSTORE PUSH1 0x20 SWAP1 RETURN JUMPDEST POP SWAP1 CALLVALUE PUSH2 0x1AC JUMPI DUP2 PUSH1 0x3 NOT CALLDATASIZE ADD SLT PUSH2 0x1AC JUMPI PUSH2 0x638 PUSH2 0xCA0 JUMP JUMPDEST SWAP2 PUSH2 0x641 PUSH2 0xCB6 JUMP JUMPDEST DUP5 SLOAD SWAP1 SWAP4 PUSH1 0x1 PUSH1 0x1 PUSH1 0xA0 SHL SUB SWAP2 DUP3 AND CALLER SUB PUSH2 0x6A5 JUMPI AND SWAP2 DUP3 DUP6 MSTORE PUSH1 0x20 MSTORE PUSH2 0x676 DUP4 DUP3 DUP7 KECCAK256 SWAP1 PUSH1 0xFF DUP1 NOT DUP4 SLOAD AND SWAP2 ISZERO ISZERO AND OR SWAP1 SSTORE JUMP JUMPDEST MLOAD SWAP2 ISZERO ISZERO DUP3 MSTORE PUSH32 0x4044ABFF324342D4E3C04EFB6AD280ABD4BB27DA95AF09FEFFD9C05B96A490EE PUSH1 0x20 CALLER SWAP4 LOG3 DUP1 RETURN JUMPDEST DUP3 MLOAD PUSH4 0x570870EF PUSH1 0xE1 SHL DUP2 MSTORE CALLER DUP2 DUP7 ADD MSTORE PUSH1 0x24 SWAP1 REVERT JUMPDEST DUP4 DUP3 CALLVALUE PUSH2 0x2F4 JUMPI PUSH1 0x20 CALLDATASIZE PUSH1 0x3 NOT ADD SLT PUSH2 0x2F4 JUMPI PUSH1 0x20 SWAP2 PUSH1 0xFF SWAP1 DUP3 SWAP1 PUSH1 0x1 PUSH1 0x1 PUSH1 0xA0 SHL SUB PUSH2 0x6E6 PUSH2 0xCA0 JUMP JUMPDEST AND DUP2 MSTORE PUSH1 0x6 DUP6 MSTORE KECCAK256 SLOAD AND SWAP1 MLOAD SWAP1 DUP2 MSTORE RETURN JUMPDEST POP DUP3 SWAP1 CALLVALUE PUSH2 0x2F4 JUMPI PUSH1 0x20 CALLDATASIZE PUSH1 0x3 NOT ADD SLT PUSH2 0x2F4 JUMPI PUSH1 0x60 SWAP3 PUSH1 0x1 PUSH1 0x1 PUSH1 0xA0 SHL SUB PUSH2 0x71E PUSH2 0xCA0 JUMP JUMPDEST AND DUP4 MSTORE PUSH1 0x3 PUSH1 0x20 MSTORE PUSH1 0xFF DUP3 DUP2 DUP2 DUP7 KECCAK256 SLOAD AND SWAP5 DUP6 SWAP4 PUSH1 0x20 MSTORE KECCAK256 SLOAD AND DUP2 PUSH2 0x754 JUMPI JUMPDEST DUP3 MLOAD SWAP4 ISZERO ISZERO DUP5 MSTORE ISZERO ISZERO PUSH1 0x20 DUP5 ADD MSTORE ISZERO ISZERO SWAP1 DUP3 ADD MSTORE RETURN JUMPDEST SWAP1 POP DUP1 PUSH2 0x73E JUMP JUMPDEST DUP4 DUP3 CALLVALUE PUSH2 0x2F4 JUMPI DUP2 PUSH1 0x3 NOT CALLDATASIZE ADD SLT PUSH2 0x2F4 JUMPI PUSH1 0x20 SWAP1 PUSH1 0x8 SLOAD SWAP1 MLOAD SWAP1 DUP2 MSTORE RETURN JUMPDEST POP CALLVALUE PUSH2 0x1AC JUMPI PUSH1 0x60 CALLDATASIZE PUSH1 0x3 NOT ADD SLT PUSH2 0x1AC JUMPI PUSH2 0x795 PUSH2 0xCA0 JUMP JUMPDEST PUSH2 0x79D PUSH2 0xCB6 JUMP JUMPDEST SWAP1 PUSH1 0x44 CALLDATALOAD SWAP4 PUSH8 0xFFFFFFFFFFFFFFFF SWAP2 DUP3 DUP7 GT PUSH2 0x87E JUMPI CALLDATASIZE PUSH1 0x23 DUP8 ADD SLT ISZERO PUSH2 0x87E JUMPI DUP6 DUP3 ADD CALLDATALOAD SWAP3 DUP4 GT PUSH2 0x87E JUMPI CALLDATASIZE PUSH1 0x24 DUP5 DUP9 ADD ADD GT PUSH2 0x87E JUMPI DUP7 SLOAD PUSH1 0x1 PUSH1 0x1 PUSH1 0xA0 SHL SUB SWAP3 SWAP1 DUP4 AND CALLER SUB PUSH2 0x867 JUMPI POP SWAP2 DUP1 PUSH1 0x24 PUSH32 0x853B25F1D7C6595E18D87D0B22B394EDEF64253D51EBDF6096E2805C31280638 SWAP7 SWAP6 SWAP4 PUSH1 0x60 SWAP6 AND SWAP8 DUP9 DUP11 MSTORE PUSH1 0x5 PUSH1 0x20 MSTORE PUSH2 0x837 DUP6 DUP9 DUP13 KECCAK256 SWAP1 PUSH1 0xFF DUP1 NOT DUP4 SLOAD AND SWAP2 ISZERO ISZERO AND OR SWAP1 SSTORE JUMP JUMPDEST DUP3 DUP8 MLOAD SWAP8 DUP9 SWAP7 ISZERO ISZERO DUP8 MSTORE DUP1 PUSH1 0x20 DUP9 ADD MSTORE DUP7 ADD MSTORE ADD DUP5 DUP5 ADD CALLDATACOPY DUP2 DUP2 ADD DUP4 ADD DUP8 SWAP1 MSTORE PUSH1 0x1F ADD PUSH1 0x1F NOT AND DUP2 ADD SUB ADD SWAP1 LOG2 DUP1 RETURN JUMPDEST PUSH1 0x24 SWAP1 DUP7 MLOAD SWAP1 PUSH4 0x570870EF PUSH1 0xE1 SHL DUP3 MSTORE CALLER SWAP1 DUP3 ADD MSTORE REVERT JUMPDEST DUP7 DUP1 REVERT JUMPDEST DUP4 DUP3 CALLVALUE PUSH2 0x2F4 JUMPI PUSH1 0x20 CALLDATASIZE PUSH1 0x3 NOT ADD SLT PUSH2 0x2F4 JUMPI PUSH1 0x20 SWAP2 PUSH1 0xFF SWAP1 DUP3 SWAP1 PUSH1 0x1 PUSH1 0x1 PUSH1 0xA0 SHL SUB PUSH2 0x8AD PUSH2 0xCA0 JUMP JUMPDEST AND DUP2 MSTORE PUSH1 0x3 DUP6 MSTORE KECCAK256 SLOAD AND SWAP1 MLOAD SWAP1 ISZERO ISZERO DUP2 MSTORE RETURN JUMPDEST DUP4 DUP3 CALLVALUE PUSH2 0x2F4 JUMPI DUP2 PUSH1 0x3 NOT CALLDATASIZE ADD SLT PUSH2 0x2F4 JUMPI PUSH1 0x20 SWAP1 PUSH2 0xFFFF PUSH1 0x7 SLOAD AND SWAP1 MLOAD SWAP1 DUP2 MSTORE RETURN JUMPDEST POP SWAP1 CALLVALUE PUSH2 0x1AC JUMPI PUSH1 0x20 CALLDATASIZE PUSH1 0x3 NOT ADD SLT PUSH2 0x1AC JUMPI PUSH2 0x8FE PUSH2 0xCA0 JUMP JUMPDEST DUP4 SLOAD PUSH1 0x1 PUSH1 0x1 PUSH1 0xA0 SHL SUB SWAP4 SWAP2 SWAP3 SWAP2 SWAP1 DUP5 AND CALLER SUB PUSH2 0x3B5 JUMPI POP POP AND PUSH12 0xFFFFFFFFFFFFFFFFFFFFFFFF PUSH1 0xA0 SHL PUSH1 0x2 SLOAD AND OR PUSH1 0x2 SSTORE DUP1 RETURN JUMPDEST POP SWAP1 CALLVALUE PUSH2 0x1AC JUMPI PUSH1 0x20 CALLDATASIZE PUSH1 0x3 NOT ADD SLT PUSH2 0x1AC JUMPI DUP1 CALLDATALOAD SWAP2 PUSH2 0xFFFF DUP4 AND DUP1 SWAP4 SUB PUSH2 0x9B8 JUMPI DUP4 SLOAD PUSH1 0x1 PUSH1 0x1 PUSH1 0xA0 SHL SUB AND CALLER SUB PUSH2 0x3B5 JUMPI PUSH2 0x2710 DUP4 GT PUSH2 0x980 JUMPI POP POP PUSH2 0xFFFF NOT PUSH1 0x7 SLOAD AND OR PUSH1 0x7 SSTORE DUP1 RETURN JUMPDEST SWAP1 PUSH1 0x20 PUSH1 0x64 SWAP3 MLOAD SWAP2 PUSH3 0x461BCD PUSH1 0xE5 SHL DUP4 MSTORE DUP3 ADD MSTORE PUSH1 0x12 PUSH1 0x24 DUP3 ADD MSTORE PUSH18 0x43616E6E6F74206578636565642031303025 PUSH1 0x70 SHL PUSH1 0x44 DUP3 ADD MSTORE REVERT JUMPDEST DUP4 DUP1 REVERT JUMPDEST POP SWAP1 CALLVALUE PUSH2 0x1AC JUMPI PUSH1 0x20 CALLDATASIZE PUSH1 0x3 NOT ADD SLT PUSH2 0x1AC JUMPI PUSH1 0x20 SWAP3 PUSH1 0xFF SWAP2 DUP4 SWAP2 SWAP1 PUSH1 0x1 PUSH1 0x1 PUSH1 0xA0 SHL SUB PUSH2 0x9E8 PUSH2 0xCA0 JUMP JUMPDEST AND DUP3 MSTORE DUP6 MSTORE KECCAK256 SLOAD AND SWAP1 MLOAD SWAP1 ISZERO ISZERO DUP2 MSTORE RETURN JUMPDEST DUP4 DUP3 CALLVALUE PUSH2 0x2F4 JUMPI DUP2 PUSH1 0x3 NOT CALLDATASIZE ADD SLT PUSH2 0x2F4 JUMPI PUSH1 0x1 SLOAD SWAP1 MLOAD PUSH1 0x1 PUSH1 0x1 PUSH1 0xA0 SHL SUB SWAP1 SWAP2 AND DUP2 MSTORE PUSH1 0x20 SWAP1 RETURN JUMPDEST SWAP2 SWAP1 POP CALLVALUE PUSH2 0x9B8 JUMPI PUSH1 0x60 CALLDATASIZE PUSH1 0x3 NOT ADD SLT PUSH2 0x9B8 JUMPI PUSH8 0xFFFFFFFFFFFFFFFF SWAP2 DUP4 CALLDATALOAD DUP4 DUP2 GT PUSH2 0xC66 JUMPI PUSH2 0xA56 SWAP1 CALLDATASIZE SWAP1 DUP7 ADD PUSH2 0xC6A JUMP JUMPDEST SWAP4 SWAP1 PUSH1 0x24 CALLDATALOAD DUP3 DUP2 GT PUSH2 0xC62 JUMPI PUSH2 0xA6F SWAP1 CALLDATASIZE SWAP1 DUP9 ADD PUSH2 0xC6A JUMP JUMPDEST SWAP6 SWAP1 SWAP3 PUSH1 0x44 CALLDATALOAD SWAP1 DUP2 GT PUSH2 0xC5E JUMPI PUSH2 0xA89 SWAP1 CALLDATASIZE SWAP1 DUP10 ADD PUSH2 0xC6A JUMP JUMPDEST SWAP7 SWAP1 SWAP4 PUSH1 0x1 DUP1 PUSH1 0xA0 SHL SUB SWAP6 DUP7 DUP12 SLOAD AND CALLER SUB PUSH2 0xC4A JUMPI POP DUP2 DUP4 EQ DUP1 PUSH2 0xC41 JUMPI JUMPDEST ISZERO PUSH2 0xC06 JUMPI DUP10 JUMPDEST DUP4 DUP2 LT PUSH2 0xABA JUMPI DUP11 DUP1 RETURN JUMPDEST PUSH2 0xAC5 DUP2 DUP5 DUP5 PUSH2 0xCC5 JUMP JUMPDEST PUSH2 0xACE SWAP1 PUSH2 0xCEB JUMP JUMPDEST DUP8 PUSH2 0xADA DUP4 DUP8 DUP10 PUSH2 0xCC5 JUMP JUMPDEST PUSH2 0xAE3 SWAP1 PUSH2 0xCF8 JUMP JUMPDEST AND DUP13 MSTORE PUSH1 0x20 SWAP1 PUSH1 0x3 DUP3 MSTORE DUP10 DUP14 KECCAK256 SWAP1 PUSH2 0xB06 SWAP2 SWAP1 PUSH1 0xFF DUP1 NOT DUP4 SLOAD AND SWAP2 ISZERO ISZERO AND OR SWAP1 SSTORE JUMP JUMPDEST PUSH2 0xB11 DUP3 DUP12 DUP10 PUSH2 0xCC5 JUMP JUMPDEST PUSH2 0xB1A SWAP1 PUSH2 0xCEB JUMP JUMPDEST DUP9 PUSH2 0xB26 DUP5 DUP9 DUP11 PUSH2 0xCC5 JUMP JUMPDEST PUSH2 0xB2F SWAP1 PUSH2 0xCF8 JUMP JUMPDEST AND DUP14 MSTORE DUP12 DUP3 MSTORE DUP10 DUP14 KECCAK256 SWAP1 PUSH2 0xB4E SWAP2 SWAP1 PUSH1 0xFF DUP1 NOT DUP4 SLOAD AND SWAP2 ISZERO ISZERO AND OR SWAP1 SSTORE JUMP JUMPDEST PUSH2 0xB59 DUP3 DUP7 DUP9 PUSH2 0xCC5 JUMP JUMPDEST PUSH2 0xB62 SWAP1 PUSH2 0xCF8 JUMP JUMPDEST DUP2 PUSH2 0xB6E DUP5 DUP8 DUP8 PUSH2 0xCC5 JUMP JUMPDEST PUSH2 0xB77 SWAP1 PUSH2 0xCEB JUMP JUMPDEST DUP12 MLOAD SWAP1 ISZERO ISZERO DUP2 MSTORE DUP11 CALLER SWAP4 AND SWAP2 PUSH32 0x24A8961E762FDB5B58E46E6D14DD1B5C261B610BF3BF440130BDABBFC699116A SWAP2 LOG3 PUSH2 0xBB1 DUP3 DUP7 DUP9 PUSH2 0xCC5 JUMP JUMPDEST PUSH2 0xBBA SWAP1 PUSH2 0xCF8 JUMP JUMPDEST SWAP1 PUSH2 0xBC6 DUP4 DUP13 DUP11 PUSH2 0xCC5 JUMP JUMPDEST PUSH2 0xBCF SWAP1 PUSH2 0xCEB JUMP JUMPDEST DUP11 MLOAD SWAP1 ISZERO ISZERO DUP2 MSTORE DUP10 CALLER SWAP4 AND SWAP2 PUSH32 0x4044ABFF324342D4E3C04EFB6AD280ABD4BB27DA95AF09FEFFD9C05B96A490EE SWAP2 LOG3 PUSH1 0x1 ADD PUSH2 0xAAF JUMP JUMPDEST DUP7 MLOAD PUSH3 0x461BCD PUSH1 0xE5 SHL DUP2 MSTORE PUSH1 0x20 DUP2 DUP12 ADD MSTORE PUSH1 0x15 PUSH1 0x24 DUP3 ADD MSTORE PUSH21 0x82E4E4C2F240D8CADCCEE8D040DAD2E6DAC2E8C6D PUSH1 0x5B SHL PUSH1 0x44 DUP3 ADD MSTORE PUSH1 0x64 SWAP1 REVERT JUMPDEST POP DUP8 DUP4 EQ PUSH2 0xAA8 JUMP JUMPDEST PUSH4 0x570870EF PUSH1 0xE1 SHL DUP2 MSTORE CALLER DUP11 DUP3 ADD MSTORE PUSH1 0x24 SWAP1 REVERT JUMPDEST DUP9 DUP1 REVERT JUMPDEST DUP8 DUP1 REVERT JUMPDEST DUP6 DUP1 REVERT JUMPDEST SWAP2 DUP2 PUSH1 0x1F DUP5 ADD SLT ISZERO PUSH2 0xC9B JUMPI DUP3 CALLDATALOAD SWAP2 PUSH8 0xFFFFFFFFFFFFFFFF DUP4 GT PUSH2 0xC9B JUMPI PUSH1 0x20 DUP1 DUP6 ADD SWAP5 DUP5 PUSH1 0x5 SHL ADD ADD GT PUSH2 0xC9B JUMPI JUMP JUMPDEST PUSH1 0x0 DUP1 REVERT JUMPDEST PUSH1 0x4 CALLDATALOAD SWAP1 PUSH1 0x1 PUSH1 0x1 PUSH1 0xA0 SHL SUB DUP3 AND DUP3 SUB PUSH2 0xC9B JUMPI JUMP JUMPDEST PUSH1 0x24 CALLDATALOAD SWAP1 DUP2 ISZERO ISZERO DUP3 SUB PUSH2 0xC9B JUMPI JUMP JUMPDEST SWAP2 SWAP1 DUP2 LT ISZERO PUSH2 0xCD5 JUMPI PUSH1 0x5 SHL ADD SWAP1 JUMP JUMPDEST PUSH4 0x4E487B71 PUSH1 0xE0 SHL PUSH1 0x0 MSTORE PUSH1 0x32 PUSH1 0x4 MSTORE PUSH1 0x24 PUSH1 0x0 REVERT JUMPDEST CALLDATALOAD DUP1 ISZERO ISZERO DUP2 SUB PUSH2 0xC9B JUMPI SWAP1 JUMP JUMPDEST CALLDATALOAD PUSH1 0x1 PUSH1 0x1 PUSH1 0xA0 SHL SUB DUP2 AND DUP2 SUB PUSH2 0xC9B JUMPI SWAP1 JUMP JUMPDEST PUSH1 0x40 DUP2 ADD SWAP1 DUP2 LT PUSH8 0xFFFFFFFFFFFFFFFF DUP3 GT OR PUSH2 0xD28 JUMPI PUSH1 0x40 MSTORE JUMP JUMPDEST PUSH4 0x4E487B71 PUSH1 0xE0 SHL PUSH1 0x0 MSTORE PUSH1 0x41 PUSH1 0x4 MSTORE PUSH1 0x24 PUSH1 0x0 REVERT JUMPDEST SWAP2 SWAP1 SWAP4 SWAP3 PUSH1 0x8 SLOAD DUP3 LT PUSH2 0x1097 JUMPI PUSH1 0x1 DUP1 PUSH1 0xA0 SHL SUB DUP1 SWAP4 AND SWAP2 PUSH1 0x0 SWAP3 DUP1 DUP5 MSTORE PUSH1 0x20 SWAP5 DUP6 SWAP2 PUSH1 0x3 DUP4 MSTORE PUSH1 0xFF SWAP2 PUSH1 0x40 SWAP10 DUP4 DUP12 DUP10 KECCAK256 SLOAD AND ISZERO PUSH2 0x1062 JUMPI DUP2 AND SWAP3 DUP4 DUP9 MSTORE PUSH1 0x3 DUP6 MSTORE DUP1 DUP12 DUP10 KECCAK256 SLOAD AND ISZERO PUSH2 0x1023 JUMPI DUP3 DUP9 MSTORE PUSH1 0x4 SWAP7 DUP8 DUP7 MSTORE DUP2 DUP13 DUP11 KECCAK256 SLOAD AND ISZERO PUSH2 0xFEB JUMPI DUP5 DUP10 MSTORE DUP8 DUP7 MSTORE DUP2 DUP13 DUP11 KECCAK256 SLOAD AND ISZERO PUSH2 0xFAB JUMPI DUP3 AND DUP1 DUP10 MSTORE PUSH1 0x5 DUP7 MSTORE DUP2 DUP13 DUP11 KECCAK256 SLOAD AND ISZERO PUSH2 0xF75 JUMPI DUP9 MSTORE PUSH1 0x6 DUP6 MSTORE DUP11 DUP9 KECCAK256 SLOAD PUSH1 0x1E SWAP2 AND LT PUSH2 0xF37 JUMPI PUSH1 0x2 SLOAD AND SWAP1 DUP2 PUSH2 0xE1D JUMPI JUMPDEST POP POP POP POP POP PUSH1 0x1 SWAP5 DUP1 MLOAD SWAP4 DUP5 ADD SWAP2 DUP5 DUP4 LT PUSH8 0xFFFFFFFFFFFFFFFF DUP5 GT OR PUSH2 0xE0A JUMPI POP MSTORE DUP2 MSTORE SWAP1 JUMP JUMPDEST PUSH4 0x4E487B71 PUSH1 0xE0 SHL DUP5 MSTORE PUSH1 0x41 SWAP1 MSTORE PUSH1 0x24 DUP4 REVERT JUMPDEST PUSH1 0x64 SWAP2 DUP11 MLOAD SWAP6 DUP7 SWAP5 DUP6 SWAP4 PUSH4 0x72331C73 PUSH1 0xE1 SHL DUP6 MSTORE DUP10 DUP6 ADD MSTORE PUSH1 0x24 DUP5 ADD MSTORE PUSH1 0x44 DUP4 ADD MSTORE GAS STATICCALL SWAP1 DUP2 ISZERO PUSH2 0xF2D JUMPI DUP4 SWAP2 PUSH2 0xECD JUMPI JUMPDEST POP ISZERO PUSH2 0xE5F JUMPI CODESIZE DUP4 DUP2 DUP1 DUP1 PUSH2 0xDE2 JUMP JUMPDEST SWAP4 SWAP1 SWAP2 DUP3 SWAP5 DUP3 MLOAD SWAP4 PUSH1 0x60 DUP6 ADD SWAP2 DUP6 DUP4 LT PUSH8 0xFFFFFFFFFFFFFFFF DUP5 GT OR PUSH2 0xEBA JUMPI POP POP DUP3 MSTORE PUSH1 0x23 DUP4 MSTORE PUSH32 0x45787465726E616C20636F6D706C69616E6365206D6F64756C652072656A6563 SWAP1 DUP4 ADD MSTORE PUSH3 0x1D1959 PUSH1 0xEA SHL SWAP1 DUP3 ADD MSTORE SWAP1 JUMP JUMPDEST PUSH4 0x4E487B71 PUSH1 0xE0 SHL DUP3 MSTORE PUSH1 0x41 SWAP1 MSTORE PUSH1 0x24 SWAP1 REVERT JUMPDEST SWAP1 POP DUP4 RETURNDATASIZE DUP6 GT PUSH2 0xF26 JUMPI JUMPDEST PUSH1 0x1F DUP2 ADD PUSH1 0x1F NOT AND DUP3 ADD PUSH8 0xFFFFFFFFFFFFFFFF DUP2 GT DUP4 DUP3 LT OR PUSH2 0xF13 JUMPI DUP6 SWAP2 DUP4 SWAP2 DUP10 MSTORE DUP2 ADD SUB SLT PUSH2 0x1AC JUMPI MLOAD DUP1 ISZERO ISZERO DUP2 SUB PUSH2 0x1AC JUMPI CODESIZE PUSH2 0xE4F JUMP JUMPDEST PUSH4 0x4E487B71 PUSH1 0xE0 SHL DUP6 MSTORE PUSH1 0x41 DUP5 MSTORE PUSH1 0x24 DUP6 REVERT JUMPDEST POP RETURNDATASIZE PUSH2 0xED8 JUMP JUMPDEST DUP7 MLOAD RETURNDATASIZE DUP6 DUP3 RETURNDATACOPY RETURNDATASIZE SWAP1 REVERT JUMPDEST POP POP POP POP POP POP PUSH32 0x436F6D706C69616E63652073636F726520746F6F206C6F770000000000000000 SWAP1 SWAP4 MLOAD SWAP2 PUSH2 0xF6B DUP4 PUSH2 0xD0C JUMP JUMPDEST PUSH1 0x18 DUP4 MSTORE DUP3 ADD MSTORE SWAP1 JUMP JUMPDEST POP POP POP POP POP POP POP POP PUSH32 0x53746172747570207472616E73666572732066726F7A656E0000000000000000 SWAP1 SWAP4 MLOAD SWAP2 PUSH2 0xF6B DUP4 PUSH2 0xD0C JUMP JUMPDEST POP POP POP POP POP POP POP POP PUSH32 0x5265636569766572206E6F742061636372656469746564000000000000000000 SWAP1 SWAP4 MLOAD SWAP2 PUSH2 0xFE1 DUP4 PUSH2 0xD0C JUMP JUMPDEST PUSH1 0x17 DUP4 MSTORE DUP3 ADD MSTORE SWAP1 JUMP JUMPDEST POP POP POP POP POP POP POP POP PUSH21 0x14D95B99195C881B9BDD081858D8DC99591A5D1959 PUSH1 0x5A SHL SWAP1 SWAP4 MLOAD SWAP2 PUSH2 0x1019 DUP4 PUSH2 0xD0C JUMP JUMPDEST PUSH1 0x15 DUP4 MSTORE DUP3 ADD MSTORE SWAP1 JUMP JUMPDEST POP POP POP POP POP POP POP PUSH32 0x5265636569766572204B5943206E6F7420766572696669656400000000000000 SWAP1 SWAP4 MLOAD SWAP2 PUSH2 0x1058 DUP4 PUSH2 0xD0C JUMP JUMPDEST PUSH1 0x19 DUP4 MSTORE DUP3 ADD MSTORE SWAP1 JUMP JUMPDEST POP POP POP POP POP POP POP PUSH32 0x53656E646572204B5943206E6F74207665726966696564000000000000000000 SWAP1 SWAP4 MLOAD SWAP2 PUSH2 0xFE1 DUP4 PUSH2 0xD0C JUMP JUMPDEST POP POP POP SWAP1 POP PUSH1 0x0 SWAP1 PUSH1 0x40 MLOAD PUSH2 0x10AB DUP2 PUSH2 0xD0C JUMP JUMPDEST PUSH1 0x14 DUP2 MSTORE PUSH20 0x416D6F756E742062656C6F77206D696E696D756D PUSH1 0x60 SHL PUSH1 0x20 DUP3 ADD MSTORE SWAP1 JUMP INVALID LOG2 PUSH5 0x6970667358 0x22 SLT KECCAK256 SIGNEXTEND 0xB2 DUP2 0x28 0x49 0xB2 0xED MOD GAS 0xB7 0xB4 STATICCALL 0xEA 0x4A PUSH9 0xCFCE1AAA1A0413579E JUMP 0xF7 EXTCODESIZE DUP8 ADD 0xDB 0x5D POP PUSH5 0x736F6C6343 STOP ADDMOD SGT STOP CALLER "},"methodIdentifiers":{"batchVerifyInvestors(address[],bool[],bool[])":"0370f655","canTransfer(address,address,uint256,address)":"dbbc841f","complianceModule()":"c1ac79ae","complianceScore(address)":"81a7f03d","getInvestorStatus(address)":"6a93316c","getStartupCompliance(address)":"d3e9a8de","identityRegistry()":"134e18f4","isAccredited(address)":"2d598d7b","isKYCVerified(address)":"54b7636e","maxHoldingBps()":"44168e3f","minTransferAmount()":"68841431","owner()":"8da5cb5b","setAccredited(address,bool)":"82a9f145","setComplianceModule(address)":"423db9c7","setKYCVerified(address,bool)":"f40ed0d8","setMaxHoldingBps(uint16)":"34eeedba","setMinTransferAmount(uint256)":"b92e6396","setTransferEnabled(address,bool,string)":"577902d4","transferOwnership(address)":"f2fde38b","transfersEnabled(address)":"aba8724a","updateComplianceScore(address,uint8)":"a84b7746"}}}}}