{"contracts/MilestoneEscrow.sol":{"MilestoneEscrow":{"abi":[{"inputs":[{"internalType":"address","name":"oracle","type":"address"}],"stateMutability":"nonpayable","type":"constructor"},{"anonymous":false,"inputs":[{"indexed":true,"internalType":"bytes32","name":"startupId","type":"bytes32"},{"indexed":false,"internalType":"uint256","name":"trustScore","type":"uint256"},{"indexed":false,"internalType":"uint256","name":"timestamp","type":"uint256"},{"indexed":false,"internalType":"string","name":"reason","type":"string"}],"name":"FundingFrozen","type":"event"},{"anonymous":false,"inputs":[{"indexed":true,"internalType":"bytes32","name":"startupId","type":"bytes32"},{"indexed":false,"internalType":"uint256","name":"timestamp","type":"uint256"}],"name":"FundingRestored","type":"event"},{"anonymous":false,"inputs":[{"indexed":true,"internalType":"bytes32","name":"startupId","type":"bytes32"},{"indexed":true,"internalType":"address","name":"beneficiary","type":"address"},{"indexed":false,"internalType":"uint256","name":"amountWei","type":"uint256"},{"indexed":false,"internalType":"uint256","name":"tranche1Released","type":"uint256"}],"name":"FundsDeposited","type":"event"},{"anonymous":false,"inputs":[{"indexed":true,"internalType":"bytes32","name":"startupId","type":"bytes32"},{"indexed":false,"internalType":"uint8","name":"trancheId","type":"uint8"},{"indexed":false,"internalType":"uint256","name":"trustScore","type":"uint256"}],"name":"OracleApproval","type":"event"},{"anonymous":false,"inputs":[{"indexed":false,"internalType":"address","name":"newOracle","type":"address"}],"name":"OracleAuthorityUpdated","type":"event"},{"anonymous":false,"inputs":[{"indexed":true,"internalType":"bytes32","name":"startupId","type":"bytes32"},{"indexed":false,"internalType":"uint8","name":"trancheId","type":"uint8"},{"indexed":false,"internalType":"enum MilestoneEscrow.MilestoneType","name":"milestone","type":"uint8"},{"indexed":false,"internalType":"uint256","name":"amountWei","type":"uint256"},{"indexed":false,"internalType":"bytes32","name":"oracleTxHash","type":"bytes32"}],"name":"TrancheReleased","type":"event"},{"inputs":[{"internalType":"bytes32","name":"startupId","type":"bytes32"},{"internalType":"address","name":"beneficiary","type":"address"}],"name":"depositFunds","outputs":[],"stateMutability":"payable","type":"function"},{"inputs":[{"internalType":"bytes32","name":"startupId","type":"bytes32"},{"internalType":"uint256","name":"trustScore","type":"uint256"}],"name":"freezeMilestoneFunding","outputs":[],"stateMutability":"nonpayable","type":"function"},{"inputs":[{"internalType":"bytes32","name":"startupId","type":"bytes32"}],"name":"getEscrow","outputs":[{"internalType":"address","name":"beneficiary","type":"address"},{"internalType":"uint256","name":"totalDeposited","type":"uint256"},{"internalType":"uint256","name":"totalReleased","type":"uint256"},{"internalType":"bool","name":"frozen","type":"bool"},{"internalType":"uint256","name":"lastTrustScore","type":"uint256"}],"stateMutability":"view","type":"function"},{"inputs":[{"internalType":"bytes32","name":"startupId","type":"bytes32"},{"internalType":"uint8","name":"trancheId","type":"uint8"}],"name":"getTranche","outputs":[{"components":[{"internalType":"uint8","name":"trancheId","type":"uint8"},{"internalType":"enum MilestoneEscrow.MilestoneType","name":"milestone","type":"uint8"},{"internalType":"uint256","name":"amountWei","type":"uint256"},{"internalType":"enum MilestoneEscrow.TrancheStatus","name":"status","type":"uint8"},{"internalType":"uint256","name":"releasedAt","type":"uint256"},{"internalType":"bytes32","name":"oracleTxHash","type":"bytes32"}],"internalType":"struct MilestoneEscrow.Tranche","name":"","type":"tuple"}],"stateMutability":"view","type":"function"},{"inputs":[{"internalType":"bytes32","name":"startupId","type":"bytes32"}],"name":"isFrozen","outputs":[{"internalType":"bool","name":"","type":"bool"}],"stateMutability":"view","type":"function"},{"inputs":[{"internalType":"bytes32","name":"startupId","type":"bytes32"},{"internalType":"uint8","name":"trancheId","type":"uint8"},{"internalType":"uint256","name":"trustScore","type":"uint256"},{"internalType":"bytes32","name":"txHash","type":"bytes32"}],"name":"oracleApprove","outputs":[],"stateMutability":"nonpayable","type":"function"},{"inputs":[],"name":"oracleAuthority","outputs":[{"internalType":"address","name":"","type":"address"}],"stateMutability":"view","type":"function"},{"inputs":[],"name":"owner","outputs":[{"internalType":"address","name":"","type":"address"}],"stateMutability":"view","type":"function"},{"inputs":[{"internalType":"bytes32","name":"startupId","type":"bytes32"}],"name":"pendingTranches","outputs":[{"internalType":"uint8[]","name":"pending","type":"uint8[]"}],"stateMutability":"view","type":"function"},{"inputs":[{"internalType":"bytes32","name":"startupId","type":"bytes32"}],"name":"restoreFunding","outputs":[],"stateMutability":"nonpayable","type":"function"},{"inputs":[],"name":"totalStartups","outputs":[{"internalType":"uint256","name":"","type":"uint256"}],"stateMutability":"view","type":"function"},{"inputs":[{"internalType":"address","name":"newOracle","type":"address"}],"name":"updateOracleAuthority","outputs":[],"stateMutability":"nonpayable","type":"function"}],"evm":{"bytecode":{"linkReferences":{},"object":"60803461007a57601f6113cf38819003918201601f19168301916001600160401b0383118484101761007f5780849260209460405283398101031261007a57516001600160a01b0381169081900361007a5760018060a01b031933816000541617600055600154161760015560405161133990816100968239f35b600080fd5b634e487b7160e01b600052604160045260246000fdfe60406080815260048036101561001457600080fd5b600091823560e01c80630227b7f014610aee5780630392e15c14610a765780630bcabc79146108fe578063238afcc5146108d25780633ea96213146107d857806346d4aee9146107b95780636994d20a1461037257806386691a9b146103495780638da5cb5b14610321578063aa255f6314610239578063e9e585a91461011d5763f023b811146100a457600080fd5b34610119576020366003190112610119578060a0938335808252846020526100d160ff8484205416610d53565b8152600260205220600180851b0360018201541692600282015492600660ff600385015493850154169301549381519586526020860152840152151560608301526080820152f35b8280fd5b509034610119578160031936011261011957918261019f60c0943592600785610144610bbc565b928060a0610150610bf1565b828152826020820152828582015282606082015282608082015201528681528560205260ff96610184888484205416610d53565b6101918789871610610daf565b815260026020522001610c4d565b50906101a9610bf1565b93838354818116875260081c1660208601906101c481610bd1565b8152600184015490828701918252856002860154169360608801946101e881610bd1565b85526003860154956080890196875201549560a08801968752835197511687525161021281610bd1565b602087015251908501525161022681610bd1565b60608401525160808301525160a0820152f35b5091903461031d57608036600319011261031d578035610257610bbc565b9161027760018060a01b0380600154163314908115610310575b50610cf9565b8184528060205261028d60ff8686205416610d53565b818452600260205260ff818686200154166102b85750906102b5916064359160443591610e23565b80f35b608490602086519162461bcd60e51b8352820152602c60248201527f4d696c6573746f6e65457363726f773a2066756e64696e672069732066726f7a60448201526b656e206279206f7261636c6560a01b6064820152fd5b9050855416331438610271565b5080fd5b83823461031d578160031936011261031d57905490516001600160a01b039091168152602090f35b83823461031d578160031936011261031d5760015490516001600160a01b039091168152602090f35b5080600319360112610119576001600160a01b03602480358281169480359493918690036107b557341561077357851561071f5784875260209281845260ff85892054166106c9576109c480340290348204036106b757918591896127108a950495898252600288526104e78860168785208d81556001998a8201906bffffffffffffffffffffffff60a01b82541617905534600282015560039580878301558b8983019a60ff199b8c815416905561045461042c610bf1565b848152848882015283838201528460608201528460808201528460a082015260078601610c77565b6104888d610460610bf1565b908082528882015283838201528460608201528460808201528460a0820152600c8601610c77565b6104bd610493610bf1565b6002815260028882015283838201528460608201528460808201528460a082015260118601610c77565b886104c6610bf1565b9681885287015285015280606085015280608085015260a084015201610c77565b8154680100000000000000008110156106a557868101808455811015610693578a907fc2575a0e9e593c00f959f8c92f12db2869c3395a3b0502d05e2516446f71f85b0155898c52838852888c20868682541617905560028852888c209486600987019182541617905542600a86015542600b8601556008850195865492860180549084820180921161068157558501548c9283928392839291165af13d1561067c573d61059c61059782610e07565b610c27565b9081528b883d92013e5b1561062e5750507f617571b14b1217d22f94126f4284931bcf55590b3406befc5292929b1d84ceb060807f26f97417b32fdaf792dabcb9bfae983a94e40f76f1e4a15bdb874283654b0d669695949360ff60078a95015460081c1690548751918c835261061281610bd1565b8783015287820152426060820152a2825191348352820152a380f35b865162461bcd60e51b8152918201869052808201527f4d696c6573746f6e65457363726f773a20455448207472616e736665722066616044820152631a5b195960e21b606482015260849150fd5b6105a6565b634e487b7160e01b8f5260118752858ffd5b634e487b7160e01b8d5260328552838dfd5b634e487b7160e01b8d5260418552838dfd5b50634e487b7160e01b88526011825287fd5b845162461bcd60e51b8152918201849052602b908201527f4d696c6573746f6e65457363726f773a207374617274757020616c726561647960448201526a081c9959da5cdd195c995960aa1b6064820152608490fd5b608490602984602087519362461bcd60e51b85528401528201527f4d696c6573746f6e65457363726f773a207a65726f20616464726573732062656044820152686e656669636961727960b81b6064820152fd5b606490601e84602087519362461bcd60e51b85528401528201527f4d696c6573746f6e65457363726f773a206d7573742073656e642045544800006044820152fd5b8680fd5b83823461031d578160031936011261031d576020906003549051908152f35b5082903461031d576020806003193601126101195783359161080460018060a01b03855416331461112e565b82845284825260ff9461081b868387205416610d53565b838552600280845281838720019660ff1997888154169055865b838282161061086b5787877fa2ae2c54d10ad10bdcd6dbb03014888e60fbb0a927f290529301aa9fecd7e4b3888851428152a280f35b8083868282868161088f8f988f998f84906108aa9c83525260079788912001610c4d565b5001541661089c81610bd1565b146108af575b50505061117a565b610835565b6108c2918b8d52838b52898d2001610c4d565b50018a8154169055838b826108a2565b5082346108fb5760203660031901126108fb57506108f2602092356111a1565b90519015158152f35b80fd5b5082903461031d576020806003193601126101195783359283815284825260ff9261092d848284205416610d53565b8382835b8883821610610a225750169161095561094c610597856111d0565b938085526111d0565b8385019590601f19013687378192825b8281168a8110156109e657898552836002808a52610988846007878a2001610c4d565b5001541661099581610bd1565b156109aa575b506109a59061117a565b610965565b6109b38661117a565b95875185821610156109d35760051b611fe01687018801526109a561099b565b634e487b7160e01b865260328c52602486fd5b5050868386888451948186019282875251809352850193925b828110610a0c5785850386f35b83518716855293810193928101926001016109ff565b909150868452856002808752610a3d83600787892001610c4d565b50015416610a4a81610bd1565b15610a61575b610a599061117a565b908591610931565b90610a6e610a599161117a565b919050610a50565b509034610119576020366003190112610119576001600160a01b03903581811690819003610aea577ff6cb9e85799ca5f925e726245fdba5a8a3ced5f5aba91bc2ca6dc7a41108493392610ad0602093865416331461112e565b600180546001600160a01b0319168317905551908152a180f35b8380fd5b5082903461031d578060031936011261031d57600154833590610b2590336001600160a01b0391821614908115610baf5750610cf9565b80835283602052610b3b60ff8385205416610d53565b8151916060830183811067ffffffffffffffff821117610b9c578152602583527f4f7261636c653a204149206465746563746564207269736b2073636f7265203c60208401526420302e333560d81b908301526102b59190602435906111e8565b634e487b7160e01b855260418652602485fd5b9050845416331486610271565b6024359060ff82168203610bcc57565b600080fd5b60041115610bdb57565b634e487b7160e01b600052602160045260246000fd5b6040519060c0820182811067ffffffffffffffff821117610c1157604052565b634e487b7160e01b600052604160045260246000fd5b6040519190601f01601f1916820167ffffffffffffffff811183821017610c1157604052565b906004811015610c61576005020190600090565b634e487b7160e01b600052603260045260246000fd5b9060a060049160ff815116845460ff19918083831617875561ff006020850151610ca081610bd1565b610ca981610bd1565b60081b169161ffff19161717855560408201516001860155600285019060ff606084015191610cd783610bd1565b610ce083610bd1565b8354169116179055608081015160038501550151910155565b15610d0057565b60405162461bcd60e51b815260206004820152602560248201527f4d696c6573746f6e65457363726f773a206e6f74206f7261636c6520617574686044820152646f7269747960d81b6064820152608490fd5b15610d5a57565b60405162461bcd60e51b815260206004820152602760248201527f4d696c6573746f6e65457363726f773a2073746172747570206e6f74207265676044820152661a5cdd195c995960ca1b6064820152608490fd5b15610db657565b60405162461bcd60e51b815260206004820152602360248201527f4d696c6573746f6e65457363726f773a20696e76616c6964207472616e63686560448201526208125160ea1b6064820152608490fd5b67ffffffffffffffff8111610c1157601f01601f191660200190565b919392909360ff851690600492610e3b848410610daf565b6000908582526020916002835260409560ff6002610e5e8c60078b872001610c4d565b50015416610e6b81610bd1565b6110df5760028614611062575b61015e8510610ff35787825260028452610e9e8783209a8660068d015560078c01610c4d565b509160028301600160ff198254161790554260038401558382840155600183019a8b54600382018054918201809211610fe05755600101548b548291829182918291906001600160a01b03165af1903d15610fda573d90610f0161059783610e07565b918252863d92013e5b15610f8b575060808798997f7191507b6d12ef1fa6c78e7b68ac8d8bc8bda9d79fdb953aba41afcedf659961989360ff7f617571b14b1217d22f94126f4284931bcf55590b3406befc5292929b1d84ceb0945460081c169154895192898452610f7281610bd1565b87840152898301526060820152a28351928352820152a2565b865162461bcd60e51b81529081018490526024808201527f4d696c6573746f6e65457363726f773a20455448207472616e736665722066616044820152631a5b195960e21b6064820152608490fd5b50610f0a565b634e487b7160e01b845260118552602484fd5b9850919294959350508451948086019186831067ffffffffffffffff84111761104f575052601a84527f4f7261636c653a2074727573742073636f7265203c20302e33350000000000009084015292935061104d926111e8565b565b634e487b7160e01b815260418952602490fd5b6101f4851015610e7857865162461bcd60e51b8152908101849052604160248201527f4d696c6573746f6e65457363726f773a2074727573742073636f7265203c203060448201527f2e35302c207472616e63686520332063616e6e6f742062652072656c656173656064820152601960fa1b608482015260a490fd5b865162461bcd60e51b81529081018490526024808201527f4d696c6573746f6e65457363726f773a207472616e636865206e6f742070656e60448201526364696e6760e01b6064820152608490fd5b1561113557565b60405162461bcd60e51b815260206004820152601a60248201527f4d696c6573746f6e65457363726f773a206e6f74206f776e65720000000000006044820152606490fd5b60ff1660ff811461118b5760010190565b634e487b7160e01b600052601160045260246000fd5b600052600460205260ff60406000205416156111cb57600260205260ff6004604060002001541690565b600090565b67ffffffffffffffff8111610c115760051b60200190565b91826000526002602090808252604060002060049182820190600193849360ff19938585825416179055426005820155886006820155600760009101955b6112aa575b50505050505060405192835242818401526060604084015281519182606085015260005b8381106112965750505090608081836000837ff5f26870cfc51aa5c27d2feb3732a9e93dca4c31e461b9f5dbfcc1687b4b73d09684010152601f80199101168101030190a2565b81810183015185820160800152820161124f565b60ff908282821610156112fd576112dd91846112c6838a610c4d565b500154166112d381610bd1565b156112e35761117a565b84611226565b836112ee8289610c4d565b5001848682541617905561117a565b5061122b56fea2646970667358221220d9d2e3981c95311fdde4dfec91cc8de4673c68a75303ffa6d57f4afb051e591c64736f6c63430008130033","opcodes":"PUSH1 0x80 CALLVALUE PUSH2 0x7A JUMPI PUSH1 0x1F PUSH2 0x13CF CODESIZE DUP2 SWAP1 SUB SWAP2 DUP3 ADD PUSH1 0x1F NOT AND DUP4 ADD SWAP2 PUSH1 0x1 PUSH1 0x1 PUSH1 0x40 SHL SUB DUP4 GT DUP5 DUP5 LT OR PUSH2 0x7F JUMPI DUP1 DUP5 SWAP3 PUSH1 0x20 SWAP5 PUSH1 0x40 MSTORE DUP4 CODECOPY DUP2 ADD SUB SLT PUSH2 0x7A JUMPI MLOAD PUSH1 0x1 PUSH1 0x1 PUSH1 0xA0 SHL SUB DUP2 AND SWAP1 DUP2 SWAP1 SUB PUSH2 0x7A JUMPI PUSH1 0x1 DUP1 PUSH1 0xA0 SHL SUB NOT CALLER DUP2 PUSH1 0x0 SLOAD AND OR PUSH1 0x0 SSTORE PUSH1 0x1 SLOAD AND OR PUSH1 0x1 SSTORE PUSH1 0x40 MLOAD PUSH2 0x1339 SWAP1 DUP2 PUSH2 0x96 DUP3 CODECOPY RETURN JUMPDEST PUSH1 0x0 DUP1 REVERT JUMPDEST PUSH4 0x4E487B71 PUSH1 0xE0 SHL PUSH1 0x0 MSTORE PUSH1 0x41 PUSH1 0x4 MSTORE PUSH1 0x24 PUSH1 0x0 REVERT INVALID PUSH1 0x40 PUSH1 0x80 DUP2 MSTORE PUSH1 0x4 DUP1 CALLDATASIZE LT ISZERO PUSH2 0x14 JUMPI PUSH1 0x0 DUP1 REVERT JUMPDEST PUSH1 0x0 SWAP2 DUP3 CALLDATALOAD PUSH1 0xE0 SHR DUP1 PUSH4 0x227B7F0 EQ PUSH2 0xAEE JUMPI DUP1 PUSH4 0x392E15C EQ PUSH2 0xA76 JUMPI DUP1 PUSH4 0xBCABC79 EQ PUSH2 0x8FE JUMPI DUP1 PUSH4 0x238AFCC5 EQ PUSH2 0x8D2 JUMPI DUP1 PUSH4 0x3EA96213 EQ PUSH2 0x7D8 JUMPI DUP1 PUSH4 0x46D4AEE9 EQ PUSH2 0x7B9 JUMPI DUP1 PUSH4 0x6994D20A EQ PUSH2 0x372 JUMPI DUP1 PUSH4 0x86691A9B EQ PUSH2 0x349 JUMPI DUP1 PUSH4 0x8DA5CB5B EQ PUSH2 0x321 JUMPI DUP1 PUSH4 0xAA255F63 EQ PUSH2 0x239 JUMPI DUP1 PUSH4 0xE9E585A9 EQ PUSH2 0x11D JUMPI PUSH4 0xF023B811 EQ PUSH2 0xA4 JUMPI PUSH1 0x0 DUP1 REVERT JUMPDEST CALLVALUE PUSH2 0x119 JUMPI PUSH1 0x20 CALLDATASIZE PUSH1 0x3 NOT ADD SLT PUSH2 0x119 JUMPI DUP1 PUSH1 0xA0 SWAP4 DUP4 CALLDATALOAD DUP1 DUP3 MSTORE DUP5 PUSH1 0x20 MSTORE PUSH2 0xD1 PUSH1 0xFF DUP5 DUP5 KECCAK256 SLOAD AND PUSH2 0xD53 JUMP JUMPDEST DUP2 MSTORE PUSH1 0x2 PUSH1 0x20 MSTORE KECCAK256 PUSH1 0x1 DUP1 DUP6 SHL SUB PUSH1 0x1 DUP3 ADD SLOAD AND SWAP3 PUSH1 0x2 DUP3 ADD SLOAD SWAP3 PUSH1 0x6 PUSH1 0xFF PUSH1 0x3 DUP6 ADD SLOAD SWAP4 DUP6 ADD SLOAD AND SWAP4 ADD SLOAD SWAP4 DUP2 MLOAD SWAP6 DUP7 MSTORE PUSH1 0x20 DUP7 ADD MSTORE DUP5 ADD MSTORE ISZERO ISZERO PUSH1 0x60 DUP4 ADD MSTORE PUSH1 0x80 DUP3 ADD MSTORE RETURN JUMPDEST DUP3 DUP1 REVERT JUMPDEST POP SWAP1 CALLVALUE PUSH2 0x119 JUMPI DUP2 PUSH1 0x3 NOT CALLDATASIZE ADD SLT PUSH2 0x119 JUMPI SWAP2 DUP3 PUSH2 0x19F PUSH1 0xC0 SWAP5 CALLDATALOAD SWAP3 PUSH1 0x7 DUP6 PUSH2 0x144 PUSH2 0xBBC JUMP JUMPDEST SWAP3 DUP1 PUSH1 0xA0 PUSH2 0x150 PUSH2 0xBF1 JUMP JUMPDEST DUP3 DUP2 MSTORE DUP3 PUSH1 0x20 DUP3 ADD MSTORE DUP3 DUP6 DUP3 ADD MSTORE DUP3 PUSH1 0x60 DUP3 ADD MSTORE DUP3 PUSH1 0x80 DUP3 ADD MSTORE ADD MSTORE DUP7 DUP2 MSTORE DUP6 PUSH1 0x20 MSTORE PUSH1 0xFF SWAP7 PUSH2 0x184 DUP9 DUP5 DUP5 KECCAK256 SLOAD AND PUSH2 0xD53 JUMP JUMPDEST PUSH2 0x191 DUP8 DUP10 DUP8 AND LT PUSH2 0xDAF JUMP JUMPDEST DUP2 MSTORE PUSH1 0x2 PUSH1 0x20 MSTORE KECCAK256 ADD PUSH2 0xC4D JUMP JUMPDEST POP SWAP1 PUSH2 0x1A9 PUSH2 0xBF1 JUMP JUMPDEST SWAP4 DUP4 DUP4 SLOAD DUP2 DUP2 AND DUP8 MSTORE PUSH1 0x8 SHR AND PUSH1 0x20 DUP7 ADD SWAP1 PUSH2 0x1C4 DUP2 PUSH2 0xBD1 JUMP JUMPDEST DUP2 MSTORE PUSH1 0x1 DUP5 ADD SLOAD SWAP1 DUP3 DUP8 ADD SWAP2 DUP3 MSTORE DUP6 PUSH1 0x2 DUP7 ADD SLOAD AND SWAP4 PUSH1 0x60 DUP9 ADD SWAP5 PUSH2 0x1E8 DUP2 PUSH2 0xBD1 JUMP JUMPDEST DUP6 MSTORE PUSH1 0x3 DUP7 ADD SLOAD SWAP6 PUSH1 0x80 DUP10 ADD SWAP7 DUP8 MSTORE ADD SLOAD SWAP6 PUSH1 0xA0 DUP9 ADD SWAP7 DUP8 MSTORE DUP4 MLOAD SWAP8 MLOAD AND DUP8 MSTORE MLOAD PUSH2 0x212 DUP2 PUSH2 0xBD1 JUMP JUMPDEST PUSH1 0x20 DUP8 ADD MSTORE MLOAD SWAP1 DUP6 ADD MSTORE MLOAD PUSH2 0x226 DUP2 PUSH2 0xBD1 JUMP JUMPDEST PUSH1 0x60 DUP5 ADD MSTORE MLOAD PUSH1 0x80 DUP4 ADD MSTORE MLOAD PUSH1 0xA0 DUP3 ADD MSTORE RETURN JUMPDEST POP SWAP2 SWAP1 CALLVALUE PUSH2 0x31D JUMPI PUSH1 0x80 CALLDATASIZE PUSH1 0x3 NOT ADD SLT PUSH2 0x31D JUMPI DUP1 CALLDATALOAD PUSH2 0x257 PUSH2 0xBBC JUMP JUMPDEST SWAP2 PUSH2 0x277 PUSH1 0x1 DUP1 PUSH1 0xA0 SHL SUB DUP1 PUSH1 0x1 SLOAD AND CALLER EQ SWAP1 DUP2 ISZERO PUSH2 0x310 JUMPI JUMPDEST POP PUSH2 0xCF9 JUMP JUMPDEST DUP2 DUP5 MSTORE DUP1 PUSH1 0x20 MSTORE PUSH2 0x28D PUSH1 0xFF DUP7 DUP7 KECCAK256 SLOAD AND PUSH2 0xD53 JUMP JUMPDEST DUP2 DUP5 MSTORE PUSH1 0x2 PUSH1 0x20 MSTORE PUSH1 0xFF DUP2 DUP7 DUP7 KECCAK256 ADD SLOAD AND PUSH2 0x2B8 JUMPI POP SWAP1 PUSH2 0x2B5 SWAP2 PUSH1 0x64 CALLDATALOAD SWAP2 PUSH1 0x44 CALLDATALOAD SWAP2 PUSH2 0xE23 JUMP JUMPDEST DUP1 RETURN JUMPDEST PUSH1 0x84 SWAP1 PUSH1 0x20 DUP7 MLOAD SWAP2 PUSH3 0x461BCD PUSH1 0xE5 SHL DUP4 MSTORE DUP3 ADD MSTORE PUSH1 0x2C PUSH1 0x24 DUP3 ADD MSTORE PUSH32 0x4D696C6573746F6E65457363726F773A2066756E64696E672069732066726F7A PUSH1 0x44 DUP3 ADD MSTORE PUSH12 0x656E206279206F7261636C65 PUSH1 0xA0 SHL PUSH1 0x64 DUP3 ADD MSTORE REVERT JUMPDEST SWAP1 POP DUP6 SLOAD AND CALLER EQ CODESIZE PUSH2 0x271 JUMP JUMPDEST POP DUP1 REVERT JUMPDEST DUP4 DUP3 CALLVALUE PUSH2 0x31D JUMPI DUP2 PUSH1 0x3 NOT CALLDATASIZE ADD SLT PUSH2 0x31D JUMPI SWAP1 SLOAD SWAP1 MLOAD PUSH1 0x1 PUSH1 0x1 PUSH1 0xA0 SHL SUB SWAP1 SWAP2 AND DUP2 MSTORE PUSH1 0x20 SWAP1 RETURN JUMPDEST DUP4 DUP3 CALLVALUE PUSH2 0x31D JUMPI DUP2 PUSH1 0x3 NOT CALLDATASIZE ADD SLT PUSH2 0x31D JUMPI PUSH1 0x1 SLOAD SWAP1 MLOAD PUSH1 0x1 PUSH1 0x1 PUSH1 0xA0 SHL SUB SWAP1 SWAP2 AND DUP2 MSTORE PUSH1 0x20 SWAP1 RETURN JUMPDEST POP DUP1 PUSH1 0x3 NOT CALLDATASIZE ADD SLT PUSH2 0x119 JUMPI PUSH1 0x1 PUSH1 0x1 PUSH1 0xA0 SHL SUB PUSH1 0x24 DUP1 CALLDATALOAD DUP3 DUP2 AND SWAP5 DUP1 CALLDATALOAD SWAP5 SWAP4 SWAP2 DUP7 SWAP1 SUB PUSH2 0x7B5 JUMPI CALLVALUE ISZERO PUSH2 0x773 JUMPI DUP6 ISZERO PUSH2 0x71F JUMPI DUP5 DUP8 MSTORE PUSH1 0x20 SWAP3 DUP2 DUP5 MSTORE PUSH1 0xFF DUP6 DUP10 KECCAK256 SLOAD AND PUSH2 0x6C9 JUMPI PUSH2 0x9C4 DUP1 CALLVALUE MUL SWAP1 CALLVALUE DUP3 DIV SUB PUSH2 0x6B7 JUMPI SWAP2 DUP6 SWAP2 DUP10 PUSH2 0x2710 DUP11 SWAP6 DIV SWAP6 DUP10 DUP3 MSTORE PUSH1 0x2 DUP9 MSTORE PUSH2 0x4E7 DUP9 PUSH1 0x16 DUP8 DUP6 KECCAK256 DUP14 DUP2 SSTORE PUSH1 0x1 SWAP10 DUP11 DUP3 ADD SWAP1 PUSH12 0xFFFFFFFFFFFFFFFFFFFFFFFF PUSH1 0xA0 SHL DUP3 SLOAD AND OR SWAP1 SSTORE CALLVALUE PUSH1 0x2 DUP3 ADD SSTORE PUSH1 0x3 SWAP6 DUP1 DUP8 DUP4 ADD SSTORE DUP12 DUP10 DUP4 ADD SWAP11 PUSH1 0xFF NOT SWAP12 DUP13 DUP2 SLOAD AND SWAP1 SSTORE PUSH2 0x454 PUSH2 0x42C PUSH2 0xBF1 JUMP JUMPDEST DUP5 DUP2 MSTORE DUP5 DUP9 DUP3 ADD MSTORE DUP4 DUP4 DUP3 ADD MSTORE DUP5 PUSH1 0x60 DUP3 ADD MSTORE DUP5 PUSH1 0x80 DUP3 ADD MSTORE DUP5 PUSH1 0xA0 DUP3 ADD MSTORE PUSH1 0x7 DUP7 ADD PUSH2 0xC77 JUMP JUMPDEST PUSH2 0x488 DUP14 PUSH2 0x460 PUSH2 0xBF1 JUMP JUMPDEST SWAP1 DUP1 DUP3 MSTORE DUP9 DUP3 ADD MSTORE DUP4 DUP4 DUP3 ADD MSTORE DUP5 PUSH1 0x60 DUP3 ADD MSTORE DUP5 PUSH1 0x80 DUP3 ADD MSTORE DUP5 PUSH1 0xA0 DUP3 ADD MSTORE PUSH1 0xC DUP7 ADD PUSH2 0xC77 JUMP JUMPDEST PUSH2 0x4BD PUSH2 0x493 PUSH2 0xBF1 JUMP JUMPDEST PUSH1 0x2 DUP2 MSTORE PUSH1 0x2 DUP9 DUP3 ADD MSTORE DUP4 DUP4 DUP3 ADD MSTORE DUP5 PUSH1 0x60 DUP3 ADD MSTORE DUP5 PUSH1 0x80 DUP3 ADD MSTORE DUP5 PUSH1 0xA0 DUP3 ADD MSTORE PUSH1 0x11 DUP7 ADD PUSH2 0xC77 JUMP JUMPDEST DUP9 PUSH2 0x4C6 PUSH2 0xBF1 JUMP JUMPDEST SWAP7 DUP2 DUP9 MSTORE DUP8 ADD MSTORE DUP6 ADD MSTORE DUP1 PUSH1 0x60 DUP6 ADD MSTORE DUP1 PUSH1 0x80 DUP6 ADD MSTORE PUSH1 0xA0 DUP5 ADD MSTORE ADD PUSH2 0xC77 JUMP JUMPDEST DUP2 SLOAD PUSH9 0x10000000000000000 DUP2 LT ISZERO PUSH2 0x6A5 JUMPI DUP7 DUP2 ADD DUP1 DUP5 SSTORE DUP2 LT ISZERO PUSH2 0x693 JUMPI DUP11 SWAP1 PUSH32 0xC2575A0E9E593C00F959F8C92F12DB2869C3395A3B0502D05E2516446F71F85B ADD SSTORE DUP10 DUP13 MSTORE DUP4 DUP9 MSTORE DUP9 DUP13 KECCAK256 DUP7 DUP7 DUP3 SLOAD AND OR SWAP1 SSTORE PUSH1 0x2 DUP9 MSTORE DUP9 DUP13 KECCAK256 SWAP5 DUP7 PUSH1 0x9 DUP8 ADD SWAP2 DUP3 SLOAD AND OR SWAP1 SSTORE TIMESTAMP PUSH1 0xA DUP7 ADD SSTORE TIMESTAMP PUSH1 0xB DUP7 ADD SSTORE PUSH1 0x8 DUP6 ADD SWAP6 DUP7 SLOAD SWAP3 DUP7 ADD DUP1 SLOAD SWAP1 DUP5 DUP3 ADD DUP1 SWAP3 GT PUSH2 0x681 JUMPI SSTORE DUP6 ADD SLOAD DUP13 SWAP3 DUP4 SWAP3 DUP4 SWAP3 DUP4 SWAP3 SWAP2 AND GAS CALL RETURNDATASIZE ISZERO PUSH2 0x67C JUMPI RETURNDATASIZE PUSH2 0x59C PUSH2 0x597 DUP3 PUSH2 0xE07 JUMP JUMPDEST PUSH2 0xC27 JUMP JUMPDEST SWAP1 DUP2 MSTORE DUP12 DUP9 RETURNDATASIZE SWAP3 ADD RETURNDATACOPY JUMPDEST ISZERO PUSH2 0x62E JUMPI POP POP PUSH32 0x617571B14B1217D22F94126F4284931BCF55590B3406BEFC5292929B1D84CEB0 PUSH1 0x80 PUSH32 0x26F97417B32FDAF792DABCB9BFAE983A94E40F76F1E4A15BDB874283654B0D66 SWAP7 SWAP6 SWAP5 SWAP4 PUSH1 0xFF PUSH1 0x7 DUP11 SWAP6 ADD SLOAD PUSH1 0x8 SHR AND SWAP1 SLOAD DUP8 MLOAD SWAP2 DUP13 DUP4 MSTORE PUSH2 0x612 DUP2 PUSH2 0xBD1 JUMP JUMPDEST DUP8 DUP4 ADD MSTORE DUP8 DUP3 ADD MSTORE TIMESTAMP PUSH1 0x60 DUP3 ADD MSTORE LOG2 DUP3 MLOAD SWAP2 CALLVALUE DUP4 MSTORE DUP3 ADD MSTORE LOG3 DUP1 RETURN JUMPDEST DUP7 MLOAD PUSH3 0x461BCD PUSH1 0xE5 SHL DUP2 MSTORE SWAP2 DUP3 ADD DUP7 SWAP1 MSTORE DUP1 DUP3 ADD MSTORE PUSH32 0x4D696C6573746F6E65457363726F773A20455448207472616E73666572206661 PUSH1 0x44 DUP3 ADD MSTORE PUSH4 0x1A5B1959 PUSH1 0xE2 SHL PUSH1 0x64 DUP3 ADD MSTORE PUSH1 0x84 SWAP2 POP REVERT JUMPDEST PUSH2 0x5A6 JUMP JUMPDEST PUSH4 0x4E487B71 PUSH1 0xE0 SHL DUP16 MSTORE PUSH1 0x11 DUP8 MSTORE DUP6 DUP16 REVERT JUMPDEST PUSH4 0x4E487B71 PUSH1 0xE0 SHL DUP14 MSTORE PUSH1 0x32 DUP6 MSTORE DUP4 DUP14 REVERT JUMPDEST PUSH4 0x4E487B71 PUSH1 0xE0 SHL DUP14 MSTORE PUSH1 0x41 DUP6 MSTORE DUP4 DUP14 REVERT JUMPDEST POP PUSH4 0x4E487B71 PUSH1 0xE0 SHL DUP9 MSTORE PUSH1 0x11 DUP3 MSTORE DUP8 REVERT JUMPDEST DUP5 MLOAD PUSH3 0x461BCD PUSH1 0xE5 SHL DUP2 MSTORE SWAP2 DUP3 ADD DUP5 SWAP1 MSTORE PUSH1 0x2B SWAP1 DUP3 ADD MSTORE PUSH32 0x4D696C6573746F6E65457363726F773A207374617274757020616C7265616479 PUSH1 0x44 DUP3 ADD MSTORE PUSH11 0x81C9959DA5CDD195C9959 PUSH1 0xAA SHL PUSH1 0x64 DUP3 ADD MSTORE PUSH1 0x84 SWAP1 REVERT JUMPDEST PUSH1 0x84 SWAP1 PUSH1 0x29 DUP5 PUSH1 0x20 DUP8 MLOAD SWAP4 PUSH3 0x461BCD PUSH1 0xE5 SHL DUP6 MSTORE DUP5 ADD MSTORE DUP3 ADD MSTORE PUSH32 0x4D696C6573746F6E65457363726F773A207A65726F2061646472657373206265 PUSH1 0x44 DUP3 ADD MSTORE PUSH9 0x6E6566696369617279 PUSH1 0xB8 SHL PUSH1 0x64 DUP3 ADD MSTORE REVERT JUMPDEST PUSH1 0x64 SWAP1 PUSH1 0x1E DUP5 PUSH1 0x20 DUP8 MLOAD SWAP4 PUSH3 0x461BCD PUSH1 0xE5 SHL DUP6 MSTORE DUP5 ADD MSTORE DUP3 ADD MSTORE PUSH32 0x4D696C6573746F6E65457363726F773A206D7573742073656E64204554480000 PUSH1 0x44 DUP3 ADD MSTORE REVERT JUMPDEST DUP7 DUP1 REVERT JUMPDEST DUP4 DUP3 CALLVALUE PUSH2 0x31D JUMPI DUP2 PUSH1 0x3 NOT CALLDATASIZE ADD SLT PUSH2 0x31D JUMPI PUSH1 0x20 SWAP1 PUSH1 0x3 SLOAD SWAP1 MLOAD SWAP1 DUP2 MSTORE RETURN JUMPDEST POP DUP3 SWAP1 CALLVALUE PUSH2 0x31D JUMPI PUSH1 0x20 DUP1 PUSH1 0x3 NOT CALLDATASIZE ADD SLT PUSH2 0x119 JUMPI DUP4 CALLDATALOAD SWAP2 PUSH2 0x804 PUSH1 0x1 DUP1 PUSH1 0xA0 SHL SUB DUP6 SLOAD AND CALLER EQ PUSH2 0x112E JUMP JUMPDEST DUP3 DUP5 MSTORE DUP5 DUP3 MSTORE PUSH1 0xFF SWAP5 PUSH2 0x81B DUP7 DUP4 DUP8 KECCAK256 SLOAD AND PUSH2 0xD53 JUMP JUMPDEST DUP4 DUP6 MSTORE PUSH1 0x2 DUP1 DUP5 MSTORE DUP2 DUP4 DUP8 KECCAK256 ADD SWAP7 PUSH1 0xFF NOT SWAP8 DUP9 DUP2 SLOAD AND SWAP1 SSTORE DUP7 JUMPDEST DUP4 DUP3 DUP3 AND LT PUSH2 0x86B JUMPI DUP8 DUP8 PUSH32 0xA2AE2C54D10AD10BDCD6DBB03014888E60FBB0A927F290529301AA9FECD7E4B3 DUP9 DUP9 MLOAD TIMESTAMP DUP2 MSTORE LOG2 DUP1 RETURN JUMPDEST DUP1 DUP4 DUP7 DUP3 DUP3 DUP7 DUP2 PUSH2 0x88F DUP16 SWAP9 DUP16 SWAP10 DUP16 DUP5 SWAP1 PUSH2 0x8AA SWAP13 DUP4 MSTORE MSTORE PUSH1 0x7 SWAP8 DUP9 SWAP2 KECCAK256 ADD PUSH2 0xC4D JUMP JUMPDEST POP ADD SLOAD AND PUSH2 0x89C DUP2 PUSH2 0xBD1 JUMP JUMPDEST EQ PUSH2 0x8AF JUMPI JUMPDEST POP POP POP PUSH2 0x117A JUMP JUMPDEST PUSH2 0x835 JUMP JUMPDEST PUSH2 0x8C2 SWAP2 DUP12 DUP14 MSTORE DUP4 DUP12 MSTORE DUP10 DUP14 KECCAK256 ADD PUSH2 0xC4D JUMP JUMPDEST POP ADD DUP11 DUP2 SLOAD AND SWAP1 SSTORE DUP4 DUP12 DUP3 PUSH2 0x8A2 JUMP JUMPDEST POP DUP3 CALLVALUE PUSH2 0x8FB JUMPI PUSH1 0x20 CALLDATASIZE PUSH1 0x3 NOT ADD SLT PUSH2 0x8FB JUMPI POP PUSH2 0x8F2 PUSH1 0x20 SWAP3 CALLDATALOAD PUSH2 0x11A1 JUMP JUMPDEST SWAP1 MLOAD SWAP1 ISZERO ISZERO DUP2 MSTORE RETURN JUMPDEST DUP1 REVERT JUMPDEST POP DUP3 SWAP1 CALLVALUE PUSH2 0x31D JUMPI PUSH1 0x20 DUP1 PUSH1 0x3 NOT CALLDATASIZE ADD SLT PUSH2 0x119 JUMPI DUP4 CALLDATALOAD SWAP3 DUP4 DUP2 MSTORE DUP5 DUP3 MSTORE PUSH1 0xFF SWAP3 PUSH2 0x92D DUP5 DUP3 DUP5 KECCAK256 SLOAD AND PUSH2 0xD53 JUMP JUMPDEST DUP4 DUP3 DUP4 JUMPDEST DUP9 DUP4 DUP3 AND LT PUSH2 0xA22 JUMPI POP AND SWAP2 PUSH2 0x955 PUSH2 0x94C PUSH2 0x597 DUP6 PUSH2 0x11D0 JUMP JUMPDEST SWAP4 DUP1 DUP6 MSTORE PUSH2 0x11D0 JUMP JUMPDEST DUP4 DUP6 ADD SWAP6 SWAP1 PUSH1 0x1F NOT ADD CALLDATASIZE DUP8 CALLDATACOPY DUP2 SWAP3 DUP3 JUMPDEST DUP3 DUP2 AND DUP11 DUP2 LT ISZERO PUSH2 0x9E6 JUMPI DUP10 DUP6 MSTORE DUP4 PUSH1 0x2 DUP1 DUP11 MSTORE PUSH2 0x988 DUP5 PUSH1 0x7 DUP8 DUP11 KECCAK256 ADD PUSH2 0xC4D JUMP JUMPDEST POP ADD SLOAD AND PUSH2 0x995 DUP2 PUSH2 0xBD1 JUMP JUMPDEST ISZERO PUSH2 0x9AA JUMPI JUMPDEST POP PUSH2 0x9A5 SWAP1 PUSH2 0x117A JUMP JUMPDEST PUSH2 0x965 JUMP JUMPDEST PUSH2 0x9B3 DUP7 PUSH2 0x117A JUMP JUMPDEST SWAP6 DUP8 MLOAD DUP6 DUP3 AND LT ISZERO PUSH2 0x9D3 JUMPI PUSH1 0x5 SHL PUSH2 0x1FE0 AND DUP8 ADD DUP9 ADD MSTORE PUSH2 0x9A5 PUSH2 0x99B JUMP JUMPDEST PUSH4 0x4E487B71 PUSH1 0xE0 SHL DUP7 MSTORE PUSH1 0x32 DUP13 MSTORE PUSH1 0x24 DUP7 REVERT JUMPDEST POP POP DUP7 DUP4 DUP7 DUP9 DUP5 MLOAD SWAP5 DUP2 DUP7 ADD SWAP3 DUP3 DUP8 MSTORE MLOAD DUP1 SWAP4 MSTORE DUP6 ADD SWAP4 SWAP3 JUMPDEST DUP3 DUP2 LT PUSH2 0xA0C JUMPI DUP6 DUP6 SUB DUP7 RETURN JUMPDEST DUP4 MLOAD DUP8 AND DUP6 MSTORE SWAP4 DUP2 ADD SWAP4 SWAP3 DUP2 ADD SWAP3 PUSH1 0x1 ADD PUSH2 0x9FF JUMP JUMPDEST SWAP1 SWAP2 POP DUP7 DUP5 MSTORE DUP6 PUSH1 0x2 DUP1 DUP8 MSTORE PUSH2 0xA3D DUP4 PUSH1 0x7 DUP8 DUP10 KECCAK256 ADD PUSH2 0xC4D JUMP JUMPDEST POP ADD SLOAD AND PUSH2 0xA4A DUP2 PUSH2 0xBD1 JUMP JUMPDEST ISZERO PUSH2 0xA61 JUMPI JUMPDEST PUSH2 0xA59 SWAP1 PUSH2 0x117A JUMP JUMPDEST SWAP1 DUP6 SWAP2 PUSH2 0x931 JUMP JUMPDEST SWAP1 PUSH2 0xA6E PUSH2 0xA59 SWAP2 PUSH2 0x117A JUMP JUMPDEST SWAP2 SWAP1 POP PUSH2 0xA50 JUMP JUMPDEST POP SWAP1 CALLVALUE PUSH2 0x119 JUMPI PUSH1 0x20 CALLDATASIZE PUSH1 0x3 NOT ADD SLT PUSH2 0x119 JUMPI PUSH1 0x1 PUSH1 0x1 PUSH1 0xA0 SHL SUB SWAP1 CALLDATALOAD DUP2 DUP2 AND SWAP1 DUP2 SWAP1 SUB PUSH2 0xAEA JUMPI PUSH32 0xF6CB9E85799CA5F925E726245FDBA5A8A3CED5F5ABA91BC2CA6DC7A411084933 SWAP3 PUSH2 0xAD0 PUSH1 0x20 SWAP4 DUP7 SLOAD AND CALLER EQ PUSH2 0x112E JUMP JUMPDEST PUSH1 0x1 DUP1 SLOAD PUSH1 0x1 PUSH1 0x1 PUSH1 0xA0 SHL SUB NOT AND DUP4 OR SWAP1 SSTORE MLOAD SWAP1 DUP2 MSTORE LOG1 DUP1 RETURN JUMPDEST DUP4 DUP1 REVERT JUMPDEST POP DUP3 SWAP1 CALLVALUE PUSH2 0x31D JUMPI DUP1 PUSH1 0x3 NOT CALLDATASIZE ADD SLT PUSH2 0x31D JUMPI PUSH1 0x1 SLOAD DUP4 CALLDATALOAD SWAP1 PUSH2 0xB25 SWAP1 CALLER PUSH1 0x1 PUSH1 0x1 PUSH1 0xA0 SHL SUB SWAP2 DUP3 AND EQ SWAP1 DUP2 ISZERO PUSH2 0xBAF JUMPI POP PUSH2 0xCF9 JUMP JUMPDEST DUP1 DUP4 MSTORE DUP4 PUSH1 0x20 MSTORE PUSH2 0xB3B PUSH1 0xFF DUP4 DUP6 KECCAK256 SLOAD AND PUSH2 0xD53 JUMP JUMPDEST DUP2 MLOAD SWAP2 PUSH1 0x60 DUP4 ADD DUP4 DUP2 LT PUSH8 0xFFFFFFFFFFFFFFFF DUP3 GT OR PUSH2 0xB9C JUMPI DUP2 MSTORE PUSH1 0x25 DUP4 MSTORE PUSH32 0x4F7261636C653A204149206465746563746564207269736B2073636F7265203C PUSH1 0x20 DUP5 ADD MSTORE PUSH5 0x20302E3335 PUSH1 0xD8 SHL SWAP1 DUP4 ADD MSTORE PUSH2 0x2B5 SWAP2 SWAP1 PUSH1 0x24 CALLDATALOAD SWAP1 PUSH2 0x11E8 JUMP JUMPDEST PUSH4 0x4E487B71 PUSH1 0xE0 SHL DUP6 MSTORE PUSH1 0x41 DUP7 MSTORE PUSH1 0x24 DUP6 REVERT JUMPDEST SWAP1 POP DUP5 SLOAD AND CALLER EQ DUP7 PUSH2 0x271 JUMP JUMPDEST PUSH1 0x24 CALLDATALOAD SWAP1 PUSH1 0xFF DUP3 AND DUP3 SUB PUSH2 0xBCC JUMPI JUMP JUMPDEST PUSH1 0x0 DUP1 REVERT JUMPDEST PUSH1 0x4 GT ISZERO PUSH2 0xBDB JUMPI JUMP JUMPDEST PUSH4 0x4E487B71 PUSH1 0xE0 SHL PUSH1 0x0 MSTORE PUSH1 0x21 PUSH1 0x4 MSTORE PUSH1 0x24 PUSH1 0x0 REVERT JUMPDEST PUSH1 0x40 MLOAD SWAP1 PUSH1 0xC0 DUP3 ADD DUP3 DUP2 LT PUSH8 0xFFFFFFFFFFFFFFFF DUP3 GT OR PUSH2 0xC11 JUMPI PUSH1 0x40 MSTORE JUMP JUMPDEST PUSH4 0x4E487B71 PUSH1 0xE0 SHL PUSH1 0x0 MSTORE PUSH1 0x41 PUSH1 0x4 MSTORE PUSH1 0x24 PUSH1 0x0 REVERT JUMPDEST PUSH1 0x40 MLOAD SWAP2 SWAP1 PUSH1 0x1F ADD PUSH1 0x1F NOT AND DUP3 ADD PUSH8 0xFFFFFFFFFFFFFFFF DUP2 GT DUP4 DUP3 LT OR PUSH2 0xC11 JUMPI PUSH1 0x40 MSTORE JUMP JUMPDEST SWAP1 PUSH1 0x4 DUP2 LT ISZERO PUSH2 0xC61 JUMPI PUSH1 0x5 MUL ADD SWAP1 PUSH1 0x0 SWAP1 JUMP JUMPDEST PUSH4 0x4E487B71 PUSH1 0xE0 SHL PUSH1 0x0 MSTORE PUSH1 0x32 PUSH1 0x4 MSTORE PUSH1 0x24 PUSH1 0x0 REVERT JUMPDEST SWAP1 PUSH1 0xA0 PUSH1 0x4 SWAP2 PUSH1 0xFF DUP2 MLOAD AND DUP5 SLOAD PUSH1 0xFF NOT SWAP2 DUP1 DUP4 DUP4 AND OR DUP8 SSTORE PUSH2 0xFF00 PUSH1 0x20 DUP6 ADD MLOAD PUSH2 0xCA0 DUP2 PUSH2 0xBD1 JUMP JUMPDEST PUSH2 0xCA9 DUP2 PUSH2 0xBD1 JUMP JUMPDEST PUSH1 0x8 SHL AND SWAP2 PUSH2 0xFFFF NOT AND OR OR DUP6 SSTORE PUSH1 0x40 DUP3 ADD MLOAD PUSH1 0x1 DUP7 ADD SSTORE PUSH1 0x2 DUP6 ADD SWAP1 PUSH1 0xFF PUSH1 0x60 DUP5 ADD MLOAD SWAP2 PUSH2 0xCD7 DUP4 PUSH2 0xBD1 JUMP JUMPDEST PUSH2 0xCE0 DUP4 PUSH2 0xBD1 JUMP JUMPDEST DUP4 SLOAD AND SWAP2 AND OR SWAP1 SSTORE PUSH1 0x80 DUP2 ADD MLOAD PUSH1 0x3 DUP6 ADD SSTORE ADD MLOAD SWAP2 ADD SSTORE JUMP JUMPDEST ISZERO PUSH2 0xD00 JUMPI JUMP JUMPDEST PUSH1 0x40 MLOAD PUSH3 0x461BCD PUSH1 0xE5 SHL DUP2 MSTORE PUSH1 0x20 PUSH1 0x4 DUP3 ADD MSTORE PUSH1 0x25 PUSH1 0x24 DUP3 ADD MSTORE PUSH32 0x4D696C6573746F6E65457363726F773A206E6F74206F7261636C652061757468 PUSH1 0x44 DUP3 ADD MSTORE PUSH5 0x6F72697479 PUSH1 0xD8 SHL PUSH1 0x64 DUP3 ADD MSTORE PUSH1 0x84 SWAP1 REVERT JUMPDEST ISZERO PUSH2 0xD5A JUMPI JUMP JUMPDEST PUSH1 0x40 MLOAD PUSH3 0x461BCD PUSH1 0xE5 SHL DUP2 MSTORE PUSH1 0x20 PUSH1 0x4 DUP3 ADD MSTORE PUSH1 0x27 PUSH1 0x24 DUP3 ADD MSTORE PUSH32 0x4D696C6573746F6E65457363726F773A2073746172747570206E6F7420726567 PUSH1 0x44 DUP3 ADD MSTORE PUSH7 0x1A5CDD195C9959 PUSH1 0xCA SHL PUSH1 0x64 DUP3 ADD MSTORE PUSH1 0x84 SWAP1 REVERT JUMPDEST ISZERO PUSH2 0xDB6 JUMPI JUMP JUMPDEST PUSH1 0x40 MLOAD PUSH3 0x461BCD PUSH1 0xE5 SHL DUP2 MSTORE PUSH1 0x20 PUSH1 0x4 DUP3 ADD MSTORE PUSH1 0x23 PUSH1 0x24 DUP3 ADD MSTORE PUSH32 0x4D696C6573746F6E65457363726F773A20696E76616C6964207472616E636865 PUSH1 0x44 DUP3 ADD MSTORE PUSH3 0x81251 PUSH1 0xEA SHL PUSH1 0x64 DUP3 ADD MSTORE PUSH1 0x84 SWAP1 REVERT JUMPDEST PUSH8 0xFFFFFFFFFFFFFFFF DUP2 GT PUSH2 0xC11 JUMPI PUSH1 0x1F ADD PUSH1 0x1F NOT AND PUSH1 0x20 ADD SWAP1 JUMP JUMPDEST SWAP2 SWAP4 SWAP3 SWAP1 SWAP4 PUSH1 0xFF DUP6 AND SWAP1 PUSH1 0x4 SWAP3 PUSH2 0xE3B DUP5 DUP5 LT PUSH2 0xDAF JUMP JUMPDEST PUSH1 0x0 SWAP1 DUP6 DUP3 MSTORE PUSH1 0x20 SWAP2 PUSH1 0x2 DUP4 MSTORE PUSH1 0x40 SWAP6 PUSH1 0xFF PUSH1 0x2 PUSH2 0xE5E DUP13 PUSH1 0x7 DUP12 DUP8 KECCAK256 ADD PUSH2 0xC4D JUMP JUMPDEST POP ADD SLOAD AND PUSH2 0xE6B DUP2 PUSH2 0xBD1 JUMP JUMPDEST PUSH2 0x10DF JUMPI PUSH1 0x2 DUP7 EQ PUSH2 0x1062 JUMPI JUMPDEST PUSH2 0x15E DUP6 LT PUSH2 0xFF3 JUMPI DUP8 DUP3 MSTORE PUSH1 0x2 DUP5 MSTORE PUSH2 0xE9E DUP8 DUP4 KECCAK256 SWAP11 DUP7 PUSH1 0x6 DUP14 ADD SSTORE PUSH1 0x7 DUP13 ADD PUSH2 0xC4D JUMP JUMPDEST POP SWAP2 PUSH1 0x2 DUP4 ADD PUSH1 0x1 PUSH1 0xFF NOT DUP3 SLOAD AND OR SWAP1 SSTORE TIMESTAMP PUSH1 0x3 DUP5 ADD SSTORE DUP4 DUP3 DUP5 ADD SSTORE PUSH1 0x1 DUP4 ADD SWAP11 DUP12 SLOAD PUSH1 0x3 DUP3 ADD DUP1 SLOAD SWAP2 DUP3 ADD DUP1 SWAP3 GT PUSH2 0xFE0 JUMPI SSTORE PUSH1 0x1 ADD SLOAD DUP12 SLOAD DUP3 SWAP2 DUP3 SWAP2 DUP3 SWAP2 DUP3 SWAP2 SWAP1 PUSH1 0x1 PUSH1 0x1 PUSH1 0xA0 SHL SUB AND GAS CALL SWAP1 RETURNDATASIZE ISZERO PUSH2 0xFDA JUMPI RETURNDATASIZE SWAP1 PUSH2 0xF01 PUSH2 0x597 DUP4 PUSH2 0xE07 JUMP JUMPDEST SWAP2 DUP3 MSTORE DUP7 RETURNDATASIZE SWAP3 ADD RETURNDATACOPY JUMPDEST ISZERO PUSH2 0xF8B JUMPI POP PUSH1 0x80 DUP8 SWAP9 SWAP10 PUSH32 0x7191507B6D12EF1FA6C78E7B68AC8D8BC8BDA9D79FDB953ABA41AFCEDF659961 SWAP9 SWAP4 PUSH1 0xFF PUSH32 0x617571B14B1217D22F94126F4284931BCF55590B3406BEFC5292929B1D84CEB0 SWAP5 SLOAD PUSH1 0x8 SHR AND SWAP2 SLOAD DUP10 MLOAD SWAP3 DUP10 DUP5 MSTORE PUSH2 0xF72 DUP2 PUSH2 0xBD1 JUMP JUMPDEST DUP8 DUP5 ADD MSTORE DUP10 DUP4 ADD MSTORE PUSH1 0x60 DUP3 ADD MSTORE LOG2 DUP4 MLOAD SWAP3 DUP4 MSTORE DUP3 ADD MSTORE LOG2 JUMP JUMPDEST DUP7 MLOAD PUSH3 0x461BCD PUSH1 0xE5 SHL DUP2 MSTORE SWAP1 DUP2 ADD DUP5 SWAP1 MSTORE PUSH1 0x24 DUP1 DUP3 ADD MSTORE PUSH32 0x4D696C6573746F6E65457363726F773A20455448207472616E73666572206661 PUSH1 0x44 DUP3 ADD MSTORE PUSH4 0x1A5B1959 PUSH1 0xE2 SHL PUSH1 0x64 DUP3 ADD MSTORE PUSH1 0x84 SWAP1 REVERT JUMPDEST POP PUSH2 0xF0A JUMP JUMPDEST PUSH4 0x4E487B71 PUSH1 0xE0 SHL DUP5 MSTORE PUSH1 0x11 DUP6 MSTORE PUSH1 0x24 DUP5 REVERT JUMPDEST SWAP9 POP SWAP2 SWAP3 SWAP5 SWAP6 SWAP4 POP POP DUP5 MLOAD SWAP5 DUP1 DUP7 ADD SWAP2 DUP7 DUP4 LT PUSH8 0xFFFFFFFFFFFFFFFF DUP5 GT OR PUSH2 0x104F JUMPI POP MSTORE PUSH1 0x1A DUP5 MSTORE PUSH32 0x4F7261636C653A2074727573742073636F7265203C20302E3335000000000000 SWAP1 DUP5 ADD MSTORE SWAP3 SWAP4 POP PUSH2 0x104D SWAP3 PUSH2 0x11E8 JUMP JUMPDEST JUMP JUMPDEST PUSH4 0x4E487B71 PUSH1 0xE0 SHL DUP2 MSTORE PUSH1 0x41 DUP10 MSTORE PUSH1 0x24 SWAP1 REVERT JUMPDEST PUSH2 0x1F4 DUP6 LT ISZERO PUSH2 0xE78 JUMPI DUP7 MLOAD PUSH3 0x461BCD PUSH1 0xE5 SHL DUP2 MSTORE SWAP1 DUP2 ADD DUP5 SWAP1 MSTORE PUSH1 0x41 PUSH1 0x24 DUP3 ADD MSTORE PUSH32 0x4D696C6573746F6E65457363726F773A2074727573742073636F7265203C2030 PUSH1 0x44 DUP3 ADD MSTORE PUSH32 0x2E35302C207472616E63686520332063616E6E6F742062652072656C65617365 PUSH1 0x64 DUP3 ADD MSTORE PUSH1 0x19 PUSH1 0xFA SHL PUSH1 0x84 DUP3 ADD MSTORE PUSH1 0xA4 SWAP1 REVERT JUMPDEST DUP7 MLOAD PUSH3 0x461BCD PUSH1 0xE5 SHL DUP2 MSTORE SWAP1 DUP2 ADD DUP5 SWAP1 MSTORE PUSH1 0x24 DUP1 DUP3 ADD MSTORE PUSH32 0x4D696C6573746F6E65457363726F773A207472616E636865206E6F742070656E PUSH1 0x44 DUP3 ADD MSTORE PUSH4 0x64696E67 PUSH1 0xE0 SHL PUSH1 0x64 DUP3 ADD MSTORE PUSH1 0x84 SWAP1 REVERT JUMPDEST ISZERO PUSH2 0x1135 JUMPI JUMP JUMPDEST PUSH1 0x40 MLOAD PUSH3 0x461BCD PUSH1 0xE5 SHL DUP2 MSTORE PUSH1 0x20 PUSH1 0x4 DUP3 ADD MSTORE PUSH1 0x1A PUSH1 0x24 DUP3 ADD MSTORE PUSH32 0x4D696C6573746F6E65457363726F773A206E6F74206F776E6572000000000000 PUSH1 0x44 DUP3 ADD MSTORE PUSH1 0x64 SWAP1 REVERT JUMPDEST PUSH1 0xFF AND PUSH1 0xFF DUP2 EQ PUSH2 0x118B JUMPI PUSH1 0x1 ADD SWAP1 JUMP JUMPDEST PUSH4 0x4E487B71 PUSH1 0xE0 SHL PUSH1 0x0 MSTORE PUSH1 0x11 PUSH1 0x4 MSTORE PUSH1 0x24 PUSH1 0x0 REVERT JUMPDEST PUSH1 0x0 MSTORE PUSH1 0x4 PUSH1 0x20 MSTORE PUSH1 0xFF PUSH1 0x40 PUSH1 0x0 KECCAK256 SLOAD AND ISZERO PUSH2 0x11CB JUMPI PUSH1 0x2 PUSH1 0x20 MSTORE PUSH1 0xFF PUSH1 0x4 PUSH1 0x40 PUSH1 0x0 KECCAK256 ADD SLOAD AND SWAP1 JUMP JUMPDEST PUSH1 0x0 SWAP1 JUMP JUMPDEST PUSH8 0xFFFFFFFFFFFFFFFF DUP2 GT PUSH2 0xC11 JUMPI PUSH1 0x5 SHL PUSH1 0x20 ADD SWAP1 JUMP JUMPDEST SWAP2 DUP3 PUSH1 0x0 MSTORE PUSH1 0x2 PUSH1 0x20 SWAP1 DUP1 DUP3 MSTORE PUSH1 0x40 PUSH1 0x0 KECCAK256 PUSH1 0x4 SWAP2 DUP3 DUP3 ADD SWAP1 PUSH1 0x1 SWAP4 DUP5 SWAP4 PUSH1 0xFF NOT SWAP4 DUP6 DUP6 DUP3 SLOAD AND OR SWAP1 SSTORE TIMESTAMP PUSH1 0x5 DUP3 ADD SSTORE DUP9 PUSH1 0x6 DUP3 ADD SSTORE PUSH1 0x7 PUSH1 0x0 SWAP2 ADD SWAP6 JUMPDEST PUSH2 0x12AA JUMPI JUMPDEST POP POP POP POP POP POP PUSH1 0x40 MLOAD SWAP3 DUP4 MSTORE TIMESTAMP DUP2 DUP5 ADD MSTORE PUSH1 0x60 PUSH1 0x40 DUP5 ADD MSTORE DUP2 MLOAD SWAP2 DUP3 PUSH1 0x60 DUP6 ADD MSTORE PUSH1 0x0 JUMPDEST DUP4 DUP2 LT PUSH2 0x1296 JUMPI POP POP POP SWAP1 PUSH1 0x80 DUP2 DUP4 PUSH1 0x0 DUP4 PUSH32 0xF5F26870CFC51AA5C27D2FEB3732A9E93DCA4C31E461B9F5DBFCC1687B4B73D0 SWAP7 DUP5 ADD ADD MSTORE PUSH1 0x1F DUP1 NOT SWAP2 ADD AND DUP2 ADD SUB ADD SWAP1 LOG2 JUMP JUMPDEST DUP2 DUP2 ADD DUP4 ADD MLOAD DUP6 DUP3 ADD PUSH1 0x80 ADD MSTORE DUP3 ADD PUSH2 0x124F JUMP JUMPDEST PUSH1 0xFF SWAP1 DUP3 DUP3 DUP3 AND LT ISZERO PUSH2 0x12FD JUMPI PUSH2 0x12DD SWAP2 DUP5 PUSH2 0x12C6 DUP4 DUP11 PUSH2 0xC4D JUMP JUMPDEST POP ADD SLOAD AND PUSH2 0x12D3 DUP2 PUSH2 0xBD1 JUMP JUMPDEST ISZERO PUSH2 0x12E3 JUMPI PUSH2 0x117A JUMP JUMPDEST DUP5 PUSH2 0x1226 JUMP JUMPDEST DUP4 PUSH2 0x12EE DUP3 DUP10 PUSH2 0xC4D JUMP JUMPDEST POP ADD DUP5 DUP7 DUP3 SLOAD AND OR SWAP1 SSTORE PUSH2 0x117A JUMP JUMPDEST POP PUSH2 0x122B JUMP INVALID LOG2 PUSH5 0x6970667358 0x22 SLT KECCAK256 0xD9 0xD2 0xE3 SWAP9 SHR SWAP6 BALANCE 0x1F 0xDD 0xE4 0xDF 0xEC SWAP2 0xCC DUP14 0xE4 PUSH8 0x3C68A75303FFA6D5 PUSH32 0x4AFB051E591C64736F6C63430008130033000000000000000000000000000000 "},"methodIdentifiers":{"depositFunds(bytes32,address)":"6994d20a","freezeMilestoneFunding(bytes32,uint256)":"0227b7f0","getEscrow(bytes32)":"f023b811","getTranche(bytes32,uint8)":"e9e585a9","isFrozen(bytes32)":"238afcc5","oracleApprove(bytes32,uint8,uint256,bytes32)":"aa255f63","oracleAuthority()":"86691a9b","owner()":"8da5cb5b","pendingTranches(bytes32)":"0bcabc79","restoreFunding(bytes32)":"3ea96213","totalStartups()":"46d4aee9","updateOracleAuthority(address)":"0392e15c"}}}}}