{"contracts/IntelliStakeToken.sol":{"IntelliStakeToken":{"abi":[{"inputs":[{"internalType":"address","name":"_initialOwner","type":"address"}],"stateMutability":"nonpayable","type":"constructor"},{"inputs":[{"internalType":"uint256","name":"amount","type":"uint256"}],"name":"BelowMinInvestment","type":"error"},{"inputs":[{"internalType":"address","name":"account","type":"address"},{"internalType":"uint256","name":"amount","type":"uint256"}],"name":"ExceedsMaxHolding","type":"error"},{"inputs":[],"name":"InvalidMilestoneProof","type":"error"},{"inputs":[{"internalType":"bytes32","name":"milestoneHash","type":"bytes32"}],"name":"MilestoneNotVerified","type":"error"},{"inputs":[{"internalType":"address","name":"account","type":"address"}],"name":"NotAccredited","type":"error"},{"inputs":[{"internalType":"address","name":"account","type":"address"}],"name":"NotIdentityVerified","type":"error"},{"inputs":[{"internalType":"uint256","name":"startupId","type":"uint256"},{"internalType":"uint256","name":"trancheIndex","type":"uint256"}],"name":"TrancheAlreadyReleased","type":"error"},{"inputs":[{"internalType":"address","name":"from","type":"address"},{"internalType":"address","name":"to","type":"address"}],"name":"TransferNotCompliant","type":"error"},{"anonymous":false,"inputs":[{"indexed":true,"internalType":"address","name":"investor","type":"address"},{"indexed":false,"internalType":"bool","name":"status","type":"bool"}],"name":"AccreditationUpdated","type":"event"},{"anonymous":false,"inputs":[{"indexed":true,"internalType":"address","name":"owner","type":"address"},{"indexed":true,"internalType":"address","name":"spender","type":"address"},{"indexed":false,"internalType":"uint256","name":"value","type":"uint256"}],"name":"Approval","type":"event"},{"anonymous":false,"inputs":[{"indexed":true,"internalType":"address","name":"compliance","type":"address"}],"name":"ComplianceSet","type":"event"},{"anonymous":false,"inputs":[{"indexed":true,"internalType":"address","name":"registry","type":"address"}],"name":"IdentityRegistrySet","type":"event"},{"anonymous":false,"inputs":[{"indexed":true,"internalType":"bytes32","name":"milestoneHash","type":"bytes32"},{"indexed":false,"internalType":"uint256","name":"timestamp","type":"uint256"}],"name":"MilestoneVerified","type":"event"},{"anonymous":false,"inputs":[{"indexed":true,"internalType":"address","name":"previousOwner","type":"address"},{"indexed":true,"internalType":"address","name":"newOwner","type":"address"}],"name":"OwnershipTransferred","type":"event"},{"anonymous":false,"inputs":[{"indexed":false,"internalType":"address","name":"account","type":"address"}],"name":"Paused","type":"event"},{"anonymous":false,"inputs":[{"indexed":true,"internalType":"uint256","name":"startupId","type":"uint256"},{"indexed":false,"internalType":"uint256","name":"amount","type":"uint256"},{"indexed":false,"internalType":"bytes32","name":"milestoneHash","type":"bytes32"}],"name":"TrancheLocked","type":"event"},{"anonymous":false,"inputs":[{"indexed":true,"internalType":"uint256","name":"startupId","type":"uint256"},{"indexed":false,"internalType":"uint256","name":"trancheIndex","type":"uint256"},{"indexed":false,"internalType":"uint256","name":"amount","type":"uint256"}],"name":"TrancheReleased","type":"event"},{"anonymous":false,"inputs":[{"indexed":true,"internalType":"address","name":"from","type":"address"},{"indexed":true,"internalType":"address","name":"to","type":"address"},{"indexed":false,"internalType":"uint256","name":"value","type":"uint256"}],"name":"Transfer","type":"event"},{"anonymous":false,"inputs":[{"indexed":true,"internalType":"address","name":"from","type":"address"},{"indexed":true,"internalType":"address","name":"to","type":"address"},{"indexed":false,"internalType":"uint256","name":"amount","type":"uint256"},{"indexed":false,"internalType":"string","name":"reason","type":"string"}],"name":"TransferRejected","type":"event"},{"anonymous":false,"inputs":[{"indexed":false,"internalType":"address","name":"account","type":"address"}],"name":"Unpaused","type":"event"},{"inputs":[{"internalType":"address","name":"","type":"address"}],"name":"accreditedInvestors","outputs":[{"internalType":"bool","name":"","type":"bool"}],"stateMutability":"view","type":"function"},{"inputs":[{"internalType":"address","name":"owner","type":"address"},{"internalType":"address","name":"spender","type":"address"}],"name":"allowance","outputs":[{"internalType":"uint256","name":"","type":"uint256"}],"stateMutability":"view","type":"function"},{"inputs":[{"internalType":"address","name":"spender","type":"address"},{"internalType":"uint256","name":"amount","type":"uint256"}],"name":"approve","outputs":[{"internalType":"bool","name":"","type":"bool"}],"stateMutability":"nonpayable","type":"function"},{"inputs":[{"internalType":"address","name":"account","type":"address"}],"name":"balanceOf","outputs":[{"internalType":"uint256","name":"","type":"uint256"}],"stateMutability":"view","type":"function"},{"inputs":[{"internalType":"address[]","name":"investors","type":"address[]"},{"internalType":"bool[]","name":"statuses","type":"bool[]"}],"name":"batchSetAccreditedInvestors","outputs":[],"stateMutability":"nonpayable","type":"function"},{"inputs":[{"internalType":"uint256","name":"amount","type":"uint256"}],"name":"burn","outputs":[],"stateMutability":"nonpayable","type":"function"},{"inputs":[{"internalType":"address","name":"from","type":"address"},{"internalType":"address","name":"to","type":"address"},{"internalType":"uint256","name":"amount","type":"uint256"}],"name":"canTransfer","outputs":[{"internalType":"bool","name":"","type":"bool"}],"stateMutability":"view","type":"function"},{"inputs":[],"name":"compliance","outputs":[{"internalType":"contract ICompliance","name":"","type":"address"}],"stateMutability":"view","type":"function"},{"inputs":[],"name":"decimals","outputs":[{"internalType":"uint8","name":"","type":"uint8"}],"stateMutability":"view","type":"function"},{"inputs":[{"internalType":"address","name":"spender","type":"address"},{"internalType":"uint256","name":"subtractedValue","type":"uint256"}],"name":"decreaseAllowance","outputs":[{"internalType":"bool","name":"","type":"bool"}],"stateMutability":"nonpayable","type":"function"},{"inputs":[{"internalType":"uint256","name":"startupId","type":"uint256"}],"name":"getLockedAmount","outputs":[{"internalType":"uint256","name":"","type":"uint256"}],"stateMutability":"view","type":"function"},{"inputs":[{"internalType":"uint256","name":"startupId","type":"uint256"}],"name":"getStartupTranches","outputs":[{"components":[{"internalType":"uint256","name":"amount","type":"uint256"},{"internalType":"bytes32","name":"milestoneHash","type":"bytes32"},{"internalType":"bool","name":"released","type":"bool"},{"internalType":"uint256","name":"lockTimestamp","type":"uint256"},{"internalType":"address","name":"beneficiary","type":"address"}],"internalType":"struct IntelliStakeToken.Tranche[]","name":"","type":"tuple[]"}],"stateMutability":"view","type":"function"},{"inputs":[],"name":"identityRegistry","outputs":[{"internalType":"contract IIdentityRegistry","name":"","type":"address"}],"stateMutability":"view","type":"function"},{"inputs":[{"internalType":"address","name":"spender","type":"address"},{"internalType":"uint256","name":"addedValue","type":"uint256"}],"name":"increaseAllowance","outputs":[{"internalType":"bool","name":"","type":"bool"}],"stateMutability":"nonpayable","type":"function"},{"inputs":[{"internalType":"address","name":"account","type":"address"}],"name":"isIdentityVerified","outputs":[{"internalType":"bool","name":"","type":"bool"}],"stateMutability":"view","type":"function"},{"inputs":[{"internalType":"uint256","name":"startupId","type":"uint256"},{"internalType":"uint256","name":"amount","type":"uint256"},{"internalType":"bytes32","name":"milestoneHash","type":"bytes32"},{"internalType":"address","name":"beneficiary","type":"address"}],"name":"lockTranche","outputs":[],"stateMutability":"nonpayable","type":"function"},{"inputs":[],"name":"maxHoldingPerAddress","outputs":[{"internalType":"uint256","name":"","type":"uint256"}],"stateMutability":"view","type":"function"},{"inputs":[],"name":"minInvestmentAmount","outputs":[{"internalType":"uint256","name":"","type":"uint256"}],"stateMutability":"view","type":"function"},{"inputs":[{"internalType":"address","name":"to","type":"address"},{"internalType":"uint256","name":"amount","type":"uint256"}],"name":"mint","outputs":[],"stateMutability":"nonpayable","type":"function"},{"inputs":[],"name":"name","outputs":[{"internalType":"string","name":"","type":"string"}],"stateMutability":"view","type":"function"},{"inputs":[],"name":"owner","outputs":[{"internalType":"address","name":"","type":"address"}],"stateMutability":"view","type":"function"},{"inputs":[],"name":"pause","outputs":[],"stateMutability":"nonpayable","type":"function"},{"inputs":[],"name":"paused","outputs":[{"internalType":"bool","name":"","type":"bool"}],"stateMutability":"view","type":"function"},{"inputs":[{"internalType":"address","name":"token","type":"address"},{"internalType":"address","name":"to","type":"address"},{"internalType":"uint256","name":"amount","type":"uint256"}],"name":"recoverERC20","outputs":[],"stateMutability":"nonpayable","type":"function"},{"inputs":[{"internalType":"uint256","name":"startupId","type":"uint256"},{"internalType":"uint256","name":"trancheIndex","type":"uint256"},{"internalType":"bytes","name":"proof","type":"bytes"}],"name":"releaseTranche","outputs":[],"stateMutability":"nonpayable","type":"function"},{"inputs":[],"name":"renounceOwnership","outputs":[],"stateMutability":"nonpayable","type":"function"},{"inputs":[{"internalType":"address","name":"investor","type":"address"},{"internalType":"bool","name":"status","type":"bool"}],"name":"setAccreditedInvestor","outputs":[],"stateMutability":"nonpayable","type":"function"},{"inputs":[{"internalType":"address","name":"_compliance","type":"address"}],"name":"setCompliance","outputs":[],"stateMutability":"nonpayable","type":"function"},{"inputs":[{"internalType":"address","name":"_identityRegistry","type":"address"}],"name":"setIdentityRegistry","outputs":[],"stateMutability":"nonpayable","type":"function"},{"inputs":[{"internalType":"uint256","name":"_maxHolding","type":"uint256"}],"name":"setMaxHolding","outputs":[],"stateMutability":"nonpayable","type":"function"},{"inputs":[{"internalType":"uint256","name":"_minInvestment","type":"uint256"}],"name":"setMinInvestment","outputs":[],"stateMutability":"nonpayable","type":"function"},{"inputs":[{"internalType":"uint256","name":"","type":"uint256"},{"internalType":"uint256","name":"","type":"uint256"}],"name":"startupTranches","outputs":[{"internalType":"uint256","name":"amount","type":"uint256"},{"internalType":"bytes32","name":"milestoneHash","type":"bytes32"},{"internalType":"bool","name":"released","type":"bool"},{"internalType":"uint256","name":"lockTimestamp","type":"uint256"},{"internalType":"address","name":"beneficiary","type":"address"}],"stateMutability":"view","type":"function"},{"inputs":[],"name":"symbol","outputs":[{"internalType":"string","name":"","type":"string"}],"stateMutability":"view","type":"function"},{"inputs":[],"name":"totalSupply","outputs":[{"internalType":"uint256","name":"","type":"uint256"}],"stateMutability":"view","type":"function"},{"inputs":[{"internalType":"address","name":"to","type":"address"},{"internalType":"uint256","name":"amount","type":"uint256"}],"name":"transfer","outputs":[{"internalType":"bool","name":"","type":"bool"}],"stateMutability":"nonpayable","type":"function"},{"inputs":[{"internalType":"address","name":"from","type":"address"},{"internalType":"address","name":"to","type":"address"},{"internalType":"uint256","name":"amount","type":"uint256"}],"name":"transferFrom","outputs":[{"internalType":"bool","name":"","type":"bool"}],"stateMutability":"nonpayable","type":"function"},{"inputs":[{"internalType":"address","name":"newOwner","type":"address"}],"name":"transferOwnership","outputs":[],"stateMutability":"nonpayable","type":"function"},{"inputs":[],"name":"unpause","outputs":[],"stateMutability":"nonpayable","type":"function"},{"inputs":[{"internalType":"bytes32","name":"","type":"bytes32"}],"name":"verifiedMilestones","outputs":[{"internalType":"bool","name":"","type":"bool"}],"stateMutability":"view","type":"function"}],"evm":{"bytecode":{"linkReferences":{},"object":"60803462000466576001600160401b0390601f90601f196200244b3881900384810183168401868111858210176200046b57849282916040528339602093849181010312620004665751936001600160a01b03918286169182870362000466576200006962000481565b91601b83527f496e74656c6c695374616b6520536563757269747920546f6b656e0000000000868401526200009d62000481565b96600497888152634953544b60e01b8882015284519284841162000367576003938454966001978881811c911680156200045b575b8c8210146200044657908b8287859411620003ed575b50508b9086831160011462000388576000926200037c575b505060001982871b1c191690871b1784555b8151948511620003675789548681811c911680156200035c575b8a8210146200034757908184879695949311620002eb575b508992851160011462000283575060009362000277575b505082841b92600019911b1c19161785555b6200017833620004a1565b60065560ff196007541660075515908115620001ba575b69d3c21bcecceda1000000600c55683635c9adc5dea00000600d55604051611f609081620004eb8239f35b339060055416036200023557620001e3575050620001d890620004a1565b38808080806200018f565b60405162461bcd60e51b815291820152602660248201527f4f776e61626c653a206e6577206f776e657220697320746865207a65726f206160448201526564647265737360d01b606482015260849150fd5b60648383806040519262461bcd60e51b845283015260248201527f4f776e61626c653a2063616c6c6572206973206e6f7420746865206f776e65726044820152fd5b0151915038806200015b565b86959392919316928a600052896000209360005b8b828210620002d45750508511620002b9575b50505050811b0185556200016d565b01519060f884600019921b161c1916905538808080620002aa565b838501518755899890960195938401930162000297565b9091929394508a600052896000208480880160051c8201928c89106200033d575b918991899897969594930160051c01915b8281106200032d57505062000144565b600081558897508991016200031d565b925081926200030c565b60228b634e487b7160e01b6000525260246000fd5b90607f16906200012c565b60418a634e487b7160e01b6000525260246000fd5b01519050388062000100565b908c91858b95168960005283600020936000905b828210620003d55750508411620003bc575b505050811b01845562000112565b015160001983891b60f8161c19169055388080620003ae565b8385015186558d979095019493840193018f6200039c565b909192508760005286826000209181860160051c83019386106200043c575b918b91869594930160051c01915b8281106200042c57508d9150620000e8565b600081558594508b91016200041a565b925081926200040c565b60228d634e487b7160e01b6000525260246000fd5b90607f1690620000d2565b600080fd5b634e487b7160e01b600052604160045260246000fd5b60408051919082016001600160401b038111838210176200046b57604052565b600580546001600160a01b039283166001600160a01b0319821681179092559091167f8be0079c531659141344cd1fd0a4f28419497f9722a3daafe3b4186f6b6457e0600080a356fe608060409080825260048036101561001657600080fd5b600091823560e01c90816306fdde03146116e9575080630936c3d3146114c9578063095ea7b31461149f5780631171bda9146113b2578063134e18f41461138557806318160ddd1461136657806323b872dd14611269578063266bf9351461112c5780632db4c598146110fe578063313ce567146110e257806339509351146110925780633f4ba83a14610ffb57806340c10f1914610edc57806342966c6814610dce5780634d298a0714610daf578063591aa48314610d2a5780635c975abb14610d065780636290865d14610cdd57806370a0823114610ca6578063715018a614610c4957806372110f7114610bce5780638456cb5914610b735780638da5cb5b14610b4a57806395d89b4114610a475780639bc7c8c0146109d7578063a0eb24b514610999578063a457c2d7146108f5578063a9059cbb14610877578063ba7ed2ff14610856578063c692516a146106a8578063cbf3f861146105e1578063d3b9e7dc14610490578063dd62ed3e1461043c578063e46638e614610420578063ea512cbd14610401578063f2fde38b14610334578063f63ac76214610305578063f89817891461024f5763fcb40fd4146101d157600080fd5b3461024b57602036600319011261024b573581526009602052818120805490825b828110610203576020848651908152f35b60ff60026102118385611874565b5001541615610229575b61022490611aa8565b6101f2565b926102436102249161023b8685611874565b505490611983565b93905061021b565b5080fd5b508290346103015760203660031901126103015761026b611824565b6102736118d7565b6001600160a01b03169182156102be575050600880546001600160a01b031916821790557fa970409706553acbb8c86c1bc79621a1e9decfe2e5f083d3ee9dc215d07cea398280a280f35b906020606492519162461bcd60e51b8352820152601a60248201527f496e76616c696420636f6d706c69616e636520616464726573730000000000006044820152fd5b8280fd5b82843461024b57602036600319011261024b5760209061032b610326611824565b611b00565b90519015158152f35b5082903461030157602036600319011261030157610350611824565b906103596118d7565b6001600160a01b039182169283156103af575050600554826bffffffffffffffffffffffff60a01b821617600555167f8be0079c531659141344cd1fd0a4f28419497f9722a3daafe3b4186f6b6457e08380a380f35b906020608492519162461bcd60e51b8352820152602660248201527f4f776e61626c653a206e6577206f776e657220697320746865207a65726f206160448201526564647265737360d01b6064820152fd5b82843461024b578160031936011261024b57602090600c549051908152f35b82843461024b5760209061032b6104363661183f565b91611b79565b82843461024b578060031936011261024b57610456611824565b6001600160a01b03602435818116929083900361048c579160209491849316825260018552828220908252845220549051908152f35b8480fd5b50913461024b578060031936011261024b5767ffffffffffffffff9280358481116105dd576104c290369083016118a6565b91909460243590811161048c576104dc90369083016118a6565b916104e56118d7565b8284036105a25750845b8381106104fa578580f35b80857f18fdfd36fb509f2cced57dada676af65d4138954bf356b40880d3a1b30443ae48861057e610558858a8e61057961054061053b61059d9c8f8f611ab7565b611ac7565b6001600160a01b03998a61055d610558888888611ab7565b611ad4565b168952602098600b8a52209060ff801983541691151516179055565b611ab7565b9261058d61053b868a8a611ab7565b938a5194151585521692a2611aa8565b6104ef565b606490602086519162461bcd60e51b83528201526015602482015274082e4e4c2f240d8cadccee8d040dad2e6dac2e8c6d605b1b6044820152fd5b8380fd5b50829034610301576020366003190112610301576105fd611824565b906106066118d7565b6001600160a01b03821692831561066557505060078054610100600160a81b03191660089290921b610100600160a81b03169190911790557f8aa6172b9dcbe4f05892121059bc535d4743d706ba3ac6cbabf4a40de229e3888280a280f35b906020606492519162461bcd60e51b8352820152601860248201527f496e76616c6964207265676973747279206164647265737300000000000000006044820152fd5b50913461024b57606036600319011261024b5782359060243567ffffffffffffffff6044358181116108525736602382011215610852578087013591821161085257602482369201011161048c576106fe6118d7565b610706611c7f565b83855260096020528285208054831015610817578261072491611874565b5090600282019060ff8254166107fb576001830154901515806107f2575b156107e257966107ce91600189899a7ff2c471e2eb8d5a61cea66ab82bab6dc0234916165c56d4d3953da6531976d8c5999a52600a602052878b209060ff199183838254161790557fdfab6d57ca95faa91c42574906d1d4c6f78eb5cc2f846c1f898a08a8dd73ee3260208a51428152a28254161790558201548254906001600160a01b031630611d78565b5482519182526020820152a2600160065580f35b8451631060f16160e01b81528890fd5b50801515610742565b60448885888851926321c9d91960e11b84528301526024820152fd5b835162461bcd60e51b81526020818901526015602482015274092dcecc2d8d2c840e8e4c2dcc6d0ca40d2dcc8caf605b1b6044820152606490fd5b8580fd5b503461024b57602036600319011261024b576108706118d7565b35600d5580f35b509190346108f257816003193601126108f25750610893611824565b91602435906108a0611ee6565b6108ab828533611b79565b156108c557506108be9060209333611d78565b5160018152f35b91516379f913bb60e11b8152339281019283526001600160a01b0390931660208301525081906040010390fd5b80fd5b5090346108f257826003193601126108f25761090f611824565b918360243592338152600160205281812060018060a01b0386168252602052205490828210610948576020856108be85850387336119a6565b608490602086519162461bcd60e51b8352820152602560248201527f45524332303a2064656372656173656420616c6c6f77616e63652062656c6f77604482015264207a65726f60d81b6064820152fd5b82843461024b57602036600319011261024b5760209160ff9082906001600160a01b036109c4611824565b168152600b855220541690519015158152f35b50829034610301576020366003190112610301578035916109f66118d7565b8215610a04575050600c5580f35b906020606492519162461bcd60e51b8352820152601c60248201527f4d617820686f6c64696e67206d75737420626520706f736974697665000000006044820152fd5b50913461024b578160031936011261024b57805191809380549160019083821c92828516948515610b40575b6020958686108114610b2d57858952908115610b095750600114610ab1575b610aad8787610aa3828c0383611961565b51918291826117db565b0390f35b81529295507f8a35acfbc15ff81a39ae7d344fd709f28e8600b4aa8c65c6b64bfe7fe36bd19b5b828410610af65750505082610aad94610aa392820101943880610a92565b8054868501880152928601928101610ad8565b60ff19168887015250505050151560051b8301019250610aa382610aad3880610a92565b634e487b7160e01b845260228352602484fd5b93607f1693610a73565b82843461024b578160031936011261024b5760055490516001600160a01b039091168152602090f35b82843461024b578160031936011261024b5760207f62e78cea01bee320cd4e420270b5ea74000d11b0c9f74754ebdbfc544b05a25891610bb16118d7565b610bb9611ee6565b600160ff19600754161760075551338152a180f35b50829034610301578160031936011261030157602435928135815260096020528281209081548510156108f2575060a093610c0891611874565b509081549260018301549260ff60028201541690600381015493600180891b0391015416938251958652602086015215159084015260608301526080820152f35b82346108f257806003193601126108f257610c626118d7565b600580546001600160a01b0319811690915581906001600160a01b03167f8be0079c531659141344cd1fd0a4f28419497f9722a3daafe3b4186f6b6457e08280a380f35b82843461024b57602036600319011261024b5760209181906001600160a01b03610cce611824565b16815280845220549051908152f35b82843461024b578160031936011261024b5760085490516001600160a01b039091168152602090f35b82843461024b578160031936011261024b5760209060ff6007541690519015158152f35b82843461024b578060031936011261024b57610d44611824565b906024359182151580840361048c577f18fdfd36fb509f2cced57dada676af65d4138954bf356b40880d3a1b30443ae492610da7602093610d836118d7565b60018060a01b031695868852600b85528288209060ff801983541691151516179055565b51908152a280f35b82843461024b578160031936011261024b57602090600d549051908152f35b50823461030157602090816003193601126105dd578235923315610e91573385528483528185205490848210610e435750917fddf252ad1be2c89b69c2b068fc378daa952ba7f163c4a11628f55a4df523b3ef918486959433875286845203818620558360025403600255519283523392a380f35b825162461bcd60e51b8152908101849052602260248201527f45524332303a206275726e20616d6f756e7420657863656564732062616c616e604482015261636560f01b6064820152608490fd5b82608492519162461bcd60e51b8352820152602160248201527f45524332303a206275726e2066726f6d20746865207a65726f206164647265736044820152607360f81b6064820152fd5b503461024b578260031936011261024b57610ef5611824565b60243591610f016118d7565b610f09611ee6565b610f1282611b00565b15610fda576001600160a01b038216808552600b6020528585205460ff1615610fc45780855284602052610f498487872054611983565b600c5410610f9657845283602052848420541580610f8b575b610f74575090610f7191611cd5565b80f35b845163f39c9da560e01b8152908101839052602490fd5b50600d548310610f62565b508451632dd7f6f760e21b81526001600160a01b039092169082019081526020810183905281906040010390fd5b855163022b9a4360e41b81529182015260249150fd5b845163c438268160e01b81526001600160a01b039092169082015260249150fd5b508290346103015782600319360112610301576110166118d7565b6007549060ff821615611058575060ff1916600755513381527f5db9ee0a495bf2e6ff9c91a7834c1ba4fdd244a5e8aa4e537bd38aeae4b073aa90602090a180f35b606490602084519162461bcd60e51b8352820152601460248201527314185d5cd8589b194e881b9bdd081c185d5cd95960621b6044820152fd5b82843461024b578060031936011261024b576108be6020926110db6110b5611824565b338352600186528483206001600160a01b03821684528652918490205460243590611983565b90336119a6565b82843461024b578160031936011261024b576020905160128152f35b50829034610301576020366003190112610301578160209360ff92358152600a855220541690519015158152f35b503461024b576020908160031936011261030157803583526009825283832091825467ffffffffffffffff811161125657855191949260059061117383831b880185611961565b82845286840190819686528786209086925b8584106111fa57505050505050845193808501918186525180925285850193925b8281106111b35785850386f35b835180518652808301518684015287810151151588870152606080820151908701526080908101516001600160a01b03169086015260a090940193928101926001016111a6565b848a6001928d809d9a9b9d51906112108261192f565b87548252858801548483015260ff60028901541615159082015260038701546060820152848060a01b038688015416608082015281520193019301929198969598611185565b634e487b7160e01b855260418352602485fd5b5090346108f2576112793661183f565b939092611284611ee6565b61128f858585611b79565b15611337576001600160a01b03831681526001602081815287832033845290529086902054919082016112cb575b6020866108be878787611d78565b8482106112f457509183916112e9602096956108be950333836119a6565b9193948193506112bd565b606490602087519162461bcd60e51b8352820152601d60248201527f45524332303a20696e73756666696369656e7420616c6c6f77616e63650000006044820152fd5b5084516379f913bb60e11b81526001600160a01b03928316918101918252918316602082015281906040010390fd5b82843461024b578160031936011261024b576020906002549051908152f35b82843461024b578160031936011261024b57600754905160089190911c6001600160a01b03168152602090f35b503461024b576113c13661183f565b92916113cb6118d7565b6001600160a01b03169130831461145c57855163a9059cbb60e01b81526001600160a01b0390921690820190815260208181019490945290928592909184919082908790829060400103925af19081156114535750611428575080f35b6114489060203d811161144c575b6114408183611961565b810190611ae8565b5080f35b503d611436565b513d84823e3d90fd5b606490602087519162461bcd60e51b8352820152601b60248201527f43616e6e6f74207265636f766572206e617469766520746f6b656e00000000006044820152fd5b82843461024b578060031936011261024b576020906108be6114bf611824565b60243590336119a6565b50913461024b57608036600319011261024b5760249280359190843590604435906001600160a01b0360643581811692908390036116e5576115096118d7565b611511611c7f565b82156116ad57841561166b5783156116305785519861152f8a61192f565b858a5260208a0199858b528781019a8a8c526060820191428352608081019687528a8c526009602052898c208054906801000000000000000082101561161e579061157f91600182018155611874565b94909461160e57509b6115d1917f5ecd00b8ea6bc6aae67ac5e2a4d33823434e76868e912a4b0f88b8c5cca63f6c9b9c9d518555516001850155511515600284019060ff801983541691151516179055565b516003820155019151166bffffffffffffffffffffffff60a01b8254161790556115fb8230611cd5565b82519182526020820152a2600160065580f35b634e487b7160e01b8d528c86528cfd5b634e487b7160e01b8e5260418752858efd5b60649060168a602089519362461bcd60e51b855284015282015275092dcecc2d8d2c840dad2d8cae6e8dedcca40d0c2e6d60531b6044820152fd5b60649060178a602089519362461bcd60e51b85528401528201527f416d6f756e74206d75737420626520706f7369746976650000000000000000006044820152fd5b60649060138a602089519362461bcd60e51b855284015282015272496e76616c69642062656e656669636961727960681b6044820152fd5b8780fd5b91849150346105dd57836003193601126105dd57600354600181811c91869082811680156117d1575b60209586861082146117be575084885290811561179c5750600114611743575b610aad8686610aa3828b0383611961565b929550600383527fc2575a0e9e593c00f959f8c92f12db2869c3395a3b0502d05e2516446f71f85b5b8284106117895750505082610aad94610aa3928201019486611732565b805486850188015292860192810161176c565b60ff191687860152505050151560051b8301019250610aa382610aad86611732565b634e487b7160e01b845260229052602483fd5b93607f1693611712565b6020808252825181830181905290939260005b82811061181057505060409293506000838284010152601f8019910116010190565b8181018601518482016040015285016117ee565b600435906001600160a01b038216820361183a57565b600080fd5b606090600319011261183a576001600160a01b0390600435828116810361183a5791602435908116810361183a579060443590565b8054821015611890576000526005602060002091020190600090565b634e487b7160e01b600052603260045260246000fd5b9181601f8401121561183a5782359167ffffffffffffffff831161183a576020808501948460051b01011161183a57565b6005546001600160a01b031633036118eb57565b606460405162461bcd60e51b815260206004820152602060248201527f4f776e61626c653a2063616c6c6572206973206e6f7420746865206f776e65726044820152fd5b60a0810190811067ffffffffffffffff82111761194b57604052565b634e487b7160e01b600052604160045260246000fd5b90601f8019910116810190811067ffffffffffffffff82111761194b57604052565b9190820180921161199057565b634e487b7160e01b600052601160045260246000fd5b6001600160a01b03908116918215611a575716918215611a075760207f8c5be1e5ebec7d5bd14f71427d1e84f3dd0314c0f7b2291e5b200ac8c7c3b925918360005260018252604060002085600052825280604060002055604051908152a3565b60405162461bcd60e51b815260206004820152602260248201527f45524332303a20617070726f766520746f20746865207a65726f206164647265604482015261737360f01b6064820152608490fd5b60405162461bcd60e51b8152602060048201526024808201527f45524332303a20617070726f76652066726f6d20746865207a65726f206164646044820152637265737360e01b6064820152608490fd5b60001981146119905760010190565b91908110156118905760051b0190565b35801515810361183a5790565b356001600160a01b038116810361183a5790565b9081602091031261183a5751801515810361183a5790565b60075460081c6001600160a01b0390811691908215611b71576024602092604051948593849263b9209e3360e01b84521660048301525afa908115611b6557600091611b4a575090565b611b62915060203d811161144c576114408183611961565b90565b6040513d6000823e3d90fd5b505050600190565b9190611b8483611b00565b15611c7757611b9281611b00565b15611c77576001600160a01b039283169083908215611c4e575b1660009381855284602052611bc5846040872054611983565b600c5410611c3c578185528460205260408520541580611c43575b611c3c576008541680611bf7575050505050600190565b60209260649160405195869485936372331c7360e11b85526004850152602484015260448301525afa918215611c305791611b4a575090565b604051903d90823e3d90fd5b5050505090565b50600d548410611be0565b908116600052600b60205260ff6040600020541615611c6e578390611bac565b50505050600090565b505050600090565b600260065414611c90576002600655565b60405162461bcd60e51b815260206004820152601f60248201527f5265656e7472616e637947756172643a207265656e7472616e742063616c6c006044820152606490fd5b6001600160a01b0316908115611d33577fddf252ad1be2c89b69c2b068fc378daa952ba7f163c4a11628f55a4df523b3ef602082611d17600094600254611983565b60025584845283825260408420818154019055604051908152a3565b60405162461bcd60e51b815260206004820152601f60248201527f45524332303a206d696e7420746f20746865207a65726f2061646472657373006044820152606490fd5b6001600160a01b03908116918215611e935716918215611e4257600082815280602052604081205491808310611dee57604082827fddf252ad1be2c89b69c2b068fc378daa952ba7f163c4a11628f55a4df523b3ef958760209652828652038282205586815220818154019055604051908152a3565b60405162461bcd60e51b815260206004820152602660248201527f45524332303a207472616e7366657220616d6f756e7420657863656564732062604482015265616c616e636560d01b6064820152608490fd5b60405162461bcd60e51b815260206004820152602360248201527f45524332303a207472616e7366657220746f20746865207a65726f206164647260448201526265737360e81b6064820152608490fd5b60405162461bcd60e51b815260206004820152602560248201527f45524332303a207472616e736665722066726f6d20746865207a65726f206164604482015264647265737360d81b6064820152608490fd5b60ff60075416611ef257565b60405162461bcd60e51b815260206004820152601060248201526f14185d5cd8589b194e881c185d5cd95960821b6044820152606490fdfea2646970667358221220cbe016de26746fe4e6d0e8ff7e8c5e468833f7b278e4cec4b2df4a036027ba0764736f6c63430008130033","opcodes":"PUSH1 0x80 CALLVALUE PUSH3 0x466 JUMPI PUSH1 0x1 PUSH1 0x1 PUSH1 0x40 SHL SUB SWAP1 PUSH1 0x1F SWAP1 PUSH1 0x1F NOT PUSH3 0x244B CODESIZE DUP2 SWAP1 SUB DUP5 DUP2 ADD DUP4 AND DUP5 ADD DUP7 DUP2 GT DUP6 DUP3 LT OR PUSH3 0x46B JUMPI DUP5 SWAP3 DUP3 SWAP2 PUSH1 0x40 MSTORE DUP4 CODECOPY PUSH1 0x20 SWAP4 DUP5 SWAP2 DUP2 ADD SUB SLT PUSH3 0x466 JUMPI MLOAD SWAP4 PUSH1 0x1 PUSH1 0x1 PUSH1 0xA0 SHL SUB SWAP2 DUP3 DUP7 AND SWAP2 DUP3 DUP8 SUB PUSH3 0x466 JUMPI PUSH3 0x69 PUSH3 0x481 JUMP JUMPDEST SWAP2 PUSH1 0x1B DUP4 MSTORE PUSH32 0x496E74656C6C695374616B6520536563757269747920546F6B656E0000000000 DUP7 DUP5 ADD MSTORE PUSH3 0x9D PUSH3 0x481 JUMP JUMPDEST SWAP7 PUSH1 0x4 SWAP8 DUP9 DUP2 MSTORE PUSH4 0x4953544B PUSH1 0xE0 SHL DUP9 DUP3 ADD MSTORE DUP5 MLOAD SWAP3 DUP5 DUP5 GT PUSH3 0x367 JUMPI PUSH1 0x3 SWAP4 DUP5 SLOAD SWAP7 PUSH1 0x1 SWAP8 DUP9 DUP2 DUP2 SHR SWAP2 AND DUP1 ISZERO PUSH3 0x45B JUMPI JUMPDEST DUP13 DUP3 LT EQ PUSH3 0x446 JUMPI SWAP1 DUP12 DUP3 DUP8 DUP6 SWAP5 GT PUSH3 0x3ED JUMPI JUMPDEST POP POP DUP12 SWAP1 DUP7 DUP4 GT PUSH1 0x1 EQ PUSH3 0x388 JUMPI PUSH1 0x0 SWAP3 PUSH3 0x37C JUMPI JUMPDEST POP POP PUSH1 0x0 NOT DUP3 DUP8 SHL SHR NOT AND SWAP1 DUP8 SHL OR DUP5 SSTORE JUMPDEST DUP2 MLOAD SWAP5 DUP6 GT PUSH3 0x367 JUMPI DUP10 SLOAD DUP7 DUP2 DUP2 SHR SWAP2 AND DUP1 ISZERO PUSH3 0x35C JUMPI JUMPDEST DUP11 DUP3 LT EQ PUSH3 0x347 JUMPI SWAP1 DUP2 DUP5 DUP8 SWAP7 SWAP6 SWAP5 SWAP4 GT PUSH3 0x2EB JUMPI JUMPDEST POP DUP10 SWAP3 DUP6 GT PUSH1 0x1 EQ PUSH3 0x283 JUMPI POP PUSH1 0x0 SWAP4 PUSH3 0x277 JUMPI JUMPDEST POP POP DUP3 DUP5 SHL SWAP3 PUSH1 0x0 NOT SWAP2 SHL SHR NOT AND OR DUP6 SSTORE JUMPDEST PUSH3 0x178 CALLER PUSH3 0x4A1 JUMP JUMPDEST PUSH1 0x6 SSTORE PUSH1 0xFF NOT PUSH1 0x7 SLOAD AND PUSH1 0x7 SSTORE ISZERO SWAP1 DUP2 ISZERO PUSH3 0x1BA JUMPI JUMPDEST PUSH10 0xD3C21BCECCEDA1000000 PUSH1 0xC SSTORE PUSH9 0x3635C9ADC5DEA00000 PUSH1 0xD SSTORE PUSH1 0x40 MLOAD PUSH2 0x1F60 SWAP1 DUP2 PUSH3 0x4EB DUP3 CODECOPY RETURN JUMPDEST CALLER SWAP1 PUSH1 0x5 SLOAD AND SUB PUSH3 0x235 JUMPI PUSH3 0x1E3 JUMPI POP POP PUSH3 0x1D8 SWAP1 PUSH3 0x4A1 JUMP JUMPDEST CODESIZE DUP1 DUP1 DUP1 DUP1 PUSH3 0x18F JUMP JUMPDEST PUSH1 0x40 MLOAD PUSH3 0x461BCD PUSH1 0xE5 SHL DUP2 MSTORE SWAP2 DUP3 ADD MSTORE PUSH1 0x26 PUSH1 0x24 DUP3 ADD MSTORE PUSH32 0x4F776E61626C653A206E6577206F776E657220697320746865207A65726F2061 PUSH1 0x44 DUP3 ADD MSTORE PUSH6 0x646472657373 PUSH1 0xD0 SHL PUSH1 0x64 DUP3 ADD MSTORE PUSH1 0x84 SWAP2 POP REVERT JUMPDEST PUSH1 0x64 DUP4 DUP4 DUP1 PUSH1 0x40 MLOAD SWAP3 PUSH3 0x461BCD PUSH1 0xE5 SHL DUP5 MSTORE DUP4 ADD MSTORE PUSH1 0x24 DUP3 ADD MSTORE PUSH32 0x4F776E61626C653A2063616C6C6572206973206E6F7420746865206F776E6572 PUSH1 0x44 DUP3 ADD MSTORE REVERT JUMPDEST ADD MLOAD SWAP2 POP CODESIZE DUP1 PUSH3 0x15B JUMP JUMPDEST DUP7 SWAP6 SWAP4 SWAP3 SWAP2 SWAP4 AND SWAP3 DUP11 PUSH1 0x0 MSTORE DUP10 PUSH1 0x0 KECCAK256 SWAP4 PUSH1 0x0 JUMPDEST DUP12 DUP3 DUP3 LT PUSH3 0x2D4 JUMPI POP POP DUP6 GT PUSH3 0x2B9 JUMPI JUMPDEST POP POP POP POP DUP2 SHL ADD DUP6 SSTORE PUSH3 0x16D JUMP JUMPDEST ADD MLOAD SWAP1 PUSH1 0xF8 DUP5 PUSH1 0x0 NOT SWAP3 SHL AND SHR NOT AND SWAP1 SSTORE CODESIZE DUP1 DUP1 DUP1 PUSH3 0x2AA JUMP JUMPDEST DUP4 DUP6 ADD MLOAD DUP8 SSTORE DUP10 SWAP9 SWAP1 SWAP7 ADD SWAP6 SWAP4 DUP5 ADD SWAP4 ADD PUSH3 0x297 JUMP JUMPDEST SWAP1 SWAP2 SWAP3 SWAP4 SWAP5 POP DUP11 PUSH1 0x0 MSTORE DUP10 PUSH1 0x0 KECCAK256 DUP5 DUP1 DUP9 ADD PUSH1 0x5 SHR DUP3 ADD SWAP3 DUP13 DUP10 LT PUSH3 0x33D JUMPI JUMPDEST SWAP2 DUP10 SWAP2 DUP10 SWAP9 SWAP8 SWAP7 SWAP6 SWAP5 SWAP4 ADD PUSH1 0x5 SHR ADD SWAP2 JUMPDEST DUP3 DUP2 LT PUSH3 0x32D JUMPI POP POP PUSH3 0x144 JUMP JUMPDEST PUSH1 0x0 DUP2 SSTORE DUP9 SWAP8 POP DUP10 SWAP2 ADD PUSH3 0x31D JUMP JUMPDEST SWAP3 POP DUP2 SWAP3 PUSH3 0x30C JUMP JUMPDEST PUSH1 0x22 DUP12 PUSH4 0x4E487B71 PUSH1 0xE0 SHL PUSH1 0x0 MSTORE MSTORE PUSH1 0x24 PUSH1 0x0 REVERT JUMPDEST SWAP1 PUSH1 0x7F AND SWAP1 PUSH3 0x12C JUMP JUMPDEST PUSH1 0x41 DUP11 PUSH4 0x4E487B71 PUSH1 0xE0 SHL PUSH1 0x0 MSTORE MSTORE PUSH1 0x24 PUSH1 0x0 REVERT JUMPDEST ADD MLOAD SWAP1 POP CODESIZE DUP1 PUSH3 0x100 JUMP JUMPDEST SWAP1 DUP13 SWAP2 DUP6 DUP12 SWAP6 AND DUP10 PUSH1 0x0 MSTORE DUP4 PUSH1 0x0 KECCAK256 SWAP4 PUSH1 0x0 SWAP1 JUMPDEST DUP3 DUP3 LT PUSH3 0x3D5 JUMPI POP POP DUP5 GT PUSH3 0x3BC JUMPI JUMPDEST POP POP POP DUP2 SHL ADD DUP5 SSTORE PUSH3 0x112 JUMP JUMPDEST ADD MLOAD PUSH1 0x0 NOT DUP4 DUP10 SHL PUSH1 0xF8 AND SHR NOT AND SWAP1 SSTORE CODESIZE DUP1 DUP1 PUSH3 0x3AE JUMP JUMPDEST DUP4 DUP6 ADD MLOAD DUP7 SSTORE DUP14 SWAP8 SWAP1 SWAP6 ADD SWAP5 SWAP4 DUP5 ADD SWAP4 ADD DUP16 PUSH3 0x39C JUMP JUMPDEST SWAP1 SWAP2 SWAP3 POP DUP8 PUSH1 0x0 MSTORE DUP7 DUP3 PUSH1 0x0 KECCAK256 SWAP2 DUP2 DUP7 ADD PUSH1 0x5 SHR DUP4 ADD SWAP4 DUP7 LT PUSH3 0x43C JUMPI JUMPDEST SWAP2 DUP12 SWAP2 DUP7 SWAP6 SWAP5 SWAP4 ADD PUSH1 0x5 SHR ADD SWAP2 JUMPDEST DUP3 DUP2 LT PUSH3 0x42C JUMPI POP DUP14 SWAP2 POP PUSH3 0xE8 JUMP JUMPDEST PUSH1 0x0 DUP2 SSTORE DUP6 SWAP5 POP DUP12 SWAP2 ADD PUSH3 0x41A JUMP JUMPDEST SWAP3 POP DUP2 SWAP3 PUSH3 0x40C JUMP JUMPDEST PUSH1 0x22 DUP14 PUSH4 0x4E487B71 PUSH1 0xE0 SHL PUSH1 0x0 MSTORE MSTORE PUSH1 0x24 PUSH1 0x0 REVERT JUMPDEST SWAP1 PUSH1 0x7F AND SWAP1 PUSH3 0xD2 JUMP JUMPDEST PUSH1 0x0 DUP1 REVERT JUMPDEST PUSH4 0x4E487B71 PUSH1 0xE0 SHL PUSH1 0x0 MSTORE PUSH1 0x41 PUSH1 0x4 MSTORE PUSH1 0x24 PUSH1 0x0 REVERT JUMPDEST PUSH1 0x40 DUP1 MLOAD SWAP2 SWAP1 DUP3 ADD PUSH1 0x1 PUSH1 0x1 PUSH1 0x40 SHL SUB DUP2 GT DUP4 DUP3 LT OR PUSH3 0x46B JUMPI PUSH1 0x40 MSTORE JUMP JUMPDEST PUSH1 0x5 DUP1 SLOAD PUSH1 0x1 PUSH1 0x1 PUSH1 0xA0 SHL SUB SWAP3 DUP4 AND PUSH1 0x1 PUSH1 0x1 PUSH1 0xA0 SHL SUB NOT DUP3 AND DUP2 OR SWAP1 SWAP3 SSTORE SWAP1 SWAP2 AND PUSH32 0x8BE0079C531659141344CD1FD0A4F28419497F9722A3DAAFE3B4186F6B6457E0 PUSH1 0x0 DUP1 LOG3 JUMP INVALID PUSH1 0x80 PUSH1 0x40 SWAP1 DUP1 DUP3 MSTORE PUSH1 0x4 DUP1 CALLDATASIZE LT ISZERO PUSH2 0x16 JUMPI PUSH1 0x0 DUP1 REVERT JUMPDEST PUSH1 0x0 SWAP2 DUP3 CALLDATALOAD PUSH1 0xE0 SHR SWAP1 DUP2 PUSH4 0x6FDDE03 EQ PUSH2 0x16E9 JUMPI POP DUP1 PUSH4 0x936C3D3 EQ PUSH2 0x14C9 JUMPI DUP1 PUSH4 0x95EA7B3 EQ PUSH2 0x149F JUMPI DUP1 PUSH4 0x1171BDA9 EQ PUSH2 0x13B2 JUMPI DUP1 PUSH4 0x134E18F4 EQ PUSH2 0x1385 JUMPI DUP1 PUSH4 0x18160DDD EQ PUSH2 0x1366 JUMPI DUP1 PUSH4 0x23B872DD EQ PUSH2 0x1269 JUMPI DUP1 PUSH4 0x266BF935 EQ PUSH2 0x112C JUMPI DUP1 PUSH4 0x2DB4C598 EQ PUSH2 0x10FE JUMPI DUP1 PUSH4 0x313CE567 EQ PUSH2 0x10E2 JUMPI DUP1 PUSH4 0x39509351 EQ PUSH2 0x1092 JUMPI DUP1 PUSH4 0x3F4BA83A EQ PUSH2 0xFFB JUMPI DUP1 PUSH4 0x40C10F19 EQ PUSH2 0xEDC JUMPI DUP1 PUSH4 0x42966C68 EQ PUSH2 0xDCE JUMPI DUP1 PUSH4 0x4D298A07 EQ PUSH2 0xDAF JUMPI DUP1 PUSH4 0x591AA483 EQ PUSH2 0xD2A JUMPI DUP1 PUSH4 0x5C975ABB EQ PUSH2 0xD06 JUMPI DUP1 PUSH4 0x6290865D EQ PUSH2 0xCDD JUMPI DUP1 PUSH4 0x70A08231 EQ PUSH2 0xCA6 JUMPI DUP1 PUSH4 0x715018A6 EQ PUSH2 0xC49 JUMPI DUP1 PUSH4 0x72110F71 EQ PUSH2 0xBCE JUMPI DUP1 PUSH4 0x8456CB59 EQ PUSH2 0xB73 JUMPI DUP1 PUSH4 0x8DA5CB5B EQ PUSH2 0xB4A JUMPI DUP1 PUSH4 0x95D89B41 EQ PUSH2 0xA47 JUMPI DUP1 PUSH4 0x9BC7C8C0 EQ PUSH2 0x9D7 JUMPI DUP1 PUSH4 0xA0EB24B5 EQ PUSH2 0x999 JUMPI DUP1 PUSH4 0xA457C2D7 EQ PUSH2 0x8F5 JUMPI DUP1 PUSH4 0xA9059CBB EQ PUSH2 0x877 JUMPI DUP1 PUSH4 0xBA7ED2FF EQ PUSH2 0x856 JUMPI DUP1 PUSH4 0xC692516A EQ PUSH2 0x6A8 JUMPI DUP1 PUSH4 0xCBF3F861 EQ PUSH2 0x5E1 JUMPI DUP1 PUSH4 0xD3B9E7DC EQ PUSH2 0x490 JUMPI DUP1 PUSH4 0xDD62ED3E EQ PUSH2 0x43C JUMPI DUP1 PUSH4 0xE46638E6 EQ PUSH2 0x420 JUMPI DUP1 PUSH4 0xEA512CBD EQ PUSH2 0x401 JUMPI DUP1 PUSH4 0xF2FDE38B EQ PUSH2 0x334 JUMPI DUP1 PUSH4 0xF63AC762 EQ PUSH2 0x305 JUMPI DUP1 PUSH4 0xF8981789 EQ PUSH2 0x24F JUMPI PUSH4 0xFCB40FD4 EQ PUSH2 0x1D1 JUMPI PUSH1 0x0 DUP1 REVERT JUMPDEST CALLVALUE PUSH2 0x24B JUMPI PUSH1 0x20 CALLDATASIZE PUSH1 0x3 NOT ADD SLT PUSH2 0x24B JUMPI CALLDATALOAD DUP2 MSTORE PUSH1 0x9 PUSH1 0x20 MSTORE DUP2 DUP2 KECCAK256 DUP1 SLOAD SWAP1 DUP3 JUMPDEST DUP3 DUP2 LT PUSH2 0x203 JUMPI PUSH1 0x20 DUP5 DUP7 MLOAD SWAP1 DUP2 MSTORE RETURN JUMPDEST PUSH1 0xFF PUSH1 0x2 PUSH2 0x211 DUP4 DUP6 PUSH2 0x1874 JUMP JUMPDEST POP ADD SLOAD AND ISZERO PUSH2 0x229 JUMPI JUMPDEST PUSH2 0x224 SWAP1 PUSH2 0x1AA8 JUMP JUMPDEST PUSH2 0x1F2 JUMP JUMPDEST SWAP3 PUSH2 0x243 PUSH2 0x224 SWAP2 PUSH2 0x23B DUP7 DUP6 PUSH2 0x1874 JUMP JUMPDEST POP SLOAD SWAP1 PUSH2 0x1983 JUMP JUMPDEST SWAP4 SWAP1 POP PUSH2 0x21B JUMP JUMPDEST POP DUP1 REVERT JUMPDEST POP DUP3 SWAP1 CALLVALUE PUSH2 0x301 JUMPI PUSH1 0x20 CALLDATASIZE PUSH1 0x3 NOT ADD SLT PUSH2 0x301 JUMPI PUSH2 0x26B PUSH2 0x1824 JUMP JUMPDEST PUSH2 0x273 PUSH2 0x18D7 JUMP JUMPDEST PUSH1 0x1 PUSH1 0x1 PUSH1 0xA0 SHL SUB AND SWAP2 DUP3 ISZERO PUSH2 0x2BE JUMPI POP POP PUSH1 0x8 DUP1 SLOAD PUSH1 0x1 PUSH1 0x1 PUSH1 0xA0 SHL SUB NOT AND DUP3 OR SWAP1 SSTORE PUSH32 0xA970409706553ACBB8C86C1BC79621A1E9DECFE2E5F083D3EE9DC215D07CEA39 DUP3 DUP1 LOG2 DUP1 RETURN JUMPDEST SWAP1 PUSH1 0x20 PUSH1 0x64 SWAP3 MLOAD SWAP2 PUSH3 0x461BCD PUSH1 0xE5 SHL DUP4 MSTORE DUP3 ADD MSTORE PUSH1 0x1A PUSH1 0x24 DUP3 ADD MSTORE PUSH32 0x496E76616C696420636F6D706C69616E63652061646472657373000000000000 PUSH1 0x44 DUP3 ADD MSTORE REVERT JUMPDEST DUP3 DUP1 REVERT JUMPDEST DUP3 DUP5 CALLVALUE PUSH2 0x24B JUMPI PUSH1 0x20 CALLDATASIZE PUSH1 0x3 NOT ADD SLT PUSH2 0x24B JUMPI PUSH1 0x20 SWAP1 PUSH2 0x32B PUSH2 0x326 PUSH2 0x1824 JUMP JUMPDEST PUSH2 0x1B00 JUMP JUMPDEST SWAP1 MLOAD SWAP1 ISZERO ISZERO DUP2 MSTORE RETURN JUMPDEST POP DUP3 SWAP1 CALLVALUE PUSH2 0x301 JUMPI PUSH1 0x20 CALLDATASIZE PUSH1 0x3 NOT ADD SLT PUSH2 0x301 JUMPI PUSH2 0x350 PUSH2 0x1824 JUMP JUMPDEST SWAP1 PUSH2 0x359 PUSH2 0x18D7 JUMP JUMPDEST PUSH1 0x1 PUSH1 0x1 PUSH1 0xA0 SHL SUB SWAP2 DUP3 AND SWAP3 DUP4 ISZERO PUSH2 0x3AF JUMPI POP POP PUSH1 0x5 SLOAD DUP3 PUSH12 0xFFFFFFFFFFFFFFFFFFFFFFFF PUSH1 0xA0 SHL DUP3 AND OR PUSH1 0x5 SSTORE AND PUSH32 0x8BE0079C531659141344CD1FD0A4F28419497F9722A3DAAFE3B4186F6B6457E0 DUP4 DUP1 LOG3 DUP1 RETURN JUMPDEST SWAP1 PUSH1 0x20 PUSH1 0x84 SWAP3 MLOAD SWAP2 PUSH3 0x461BCD PUSH1 0xE5 SHL DUP4 MSTORE DUP3 ADD MSTORE PUSH1 0x26 PUSH1 0x24 DUP3 ADD MSTORE PUSH32 0x4F776E61626C653A206E6577206F776E657220697320746865207A65726F2061 PUSH1 0x44 DUP3 ADD MSTORE PUSH6 0x646472657373 PUSH1 0xD0 SHL PUSH1 0x64 DUP3 ADD MSTORE REVERT JUMPDEST DUP3 DUP5 CALLVALUE PUSH2 0x24B JUMPI DUP2 PUSH1 0x3 NOT CALLDATASIZE ADD SLT PUSH2 0x24B JUMPI PUSH1 0x20 SWAP1 PUSH1 0xC SLOAD SWAP1 MLOAD SWAP1 DUP2 MSTORE RETURN JUMPDEST DUP3 DUP5 CALLVALUE PUSH2 0x24B JUMPI PUSH1 0x20 SWAP1 PUSH2 0x32B PUSH2 0x436 CALLDATASIZE PUSH2 0x183F JUMP JUMPDEST SWAP2 PUSH2 0x1B79 JUMP JUMPDEST DUP3 DUP5 CALLVALUE PUSH2 0x24B JUMPI DUP1 PUSH1 0x3 NOT CALLDATASIZE ADD SLT PUSH2 0x24B JUMPI PUSH2 0x456 PUSH2 0x1824 JUMP JUMPDEST PUSH1 0x1 PUSH1 0x1 PUSH1 0xA0 SHL SUB PUSH1 0x24 CALLDATALOAD DUP2 DUP2 AND SWAP3 SWAP1 DUP4 SWAP1 SUB PUSH2 0x48C JUMPI SWAP2 PUSH1 0x20 SWAP5 SWAP2 DUP5 SWAP4 AND DUP3 MSTORE PUSH1 0x1 DUP6 MSTORE DUP3 DUP3 KECCAK256 SWAP1 DUP3 MSTORE DUP5 MSTORE KECCAK256 SLOAD SWAP1 MLOAD SWAP1 DUP2 MSTORE RETURN JUMPDEST DUP5 DUP1 REVERT JUMPDEST POP SWAP2 CALLVALUE PUSH2 0x24B JUMPI DUP1 PUSH1 0x3 NOT CALLDATASIZE ADD SLT PUSH2 0x24B JUMPI PUSH8 0xFFFFFFFFFFFFFFFF SWAP3 DUP1 CALLDATALOAD DUP5 DUP2 GT PUSH2 0x5DD JUMPI PUSH2 0x4C2 SWAP1 CALLDATASIZE SWAP1 DUP4 ADD PUSH2 0x18A6 JUMP JUMPDEST SWAP2 SWAP1 SWAP5 PUSH1 0x24 CALLDATALOAD SWAP1 DUP2 GT PUSH2 0x48C JUMPI PUSH2 0x4DC SWAP1 CALLDATASIZE SWAP1 DUP4 ADD PUSH2 0x18A6 JUMP JUMPDEST SWAP2 PUSH2 0x4E5 PUSH2 0x18D7 JUMP JUMPDEST DUP3 DUP5 SUB PUSH2 0x5A2 JUMPI POP DUP5 JUMPDEST DUP4 DUP2 LT PUSH2 0x4FA JUMPI DUP6 DUP1 RETURN JUMPDEST DUP1 DUP6 PUSH32 0x18FDFD36FB509F2CCED57DADA676AF65D4138954BF356B40880D3A1B30443AE4 DUP9 PUSH2 0x57E PUSH2 0x558 DUP6 DUP11 DUP15 PUSH2 0x579 PUSH2 0x540 PUSH2 0x53B PUSH2 0x59D SWAP13 DUP16 DUP16 PUSH2 0x1AB7 JUMP JUMPDEST PUSH2 0x1AC7 JUMP JUMPDEST PUSH1 0x1 PUSH1 0x1 PUSH1 0xA0 SHL SUB SWAP10 DUP11 PUSH2 0x55D PUSH2 0x558 DUP9 DUP9 DUP9 PUSH2 0x1AB7 JUMP JUMPDEST PUSH2 0x1AD4 JUMP JUMPDEST AND DUP10 MSTORE PUSH1 0x20 SWAP9 PUSH1 0xB DUP11 MSTORE KECCAK256 SWAP1 PUSH1 0xFF DUP1 NOT DUP4 SLOAD AND SWAP2 ISZERO ISZERO AND OR SWAP1 SSTORE JUMP JUMPDEST PUSH2 0x1AB7 JUMP JUMPDEST SWAP3 PUSH2 0x58D PUSH2 0x53B DUP7 DUP11 DUP11 PUSH2 0x1AB7 JUMP JUMPDEST SWAP4 DUP11 MLOAD SWAP5 ISZERO ISZERO DUP6 MSTORE AND SWAP3 LOG2 PUSH2 0x1AA8 JUMP JUMPDEST PUSH2 0x4EF JUMP JUMPDEST PUSH1 0x64 SWAP1 PUSH1 0x20 DUP7 MLOAD SWAP2 PUSH3 0x461BCD PUSH1 0xE5 SHL DUP4 MSTORE DUP3 ADD MSTORE PUSH1 0x15 PUSH1 0x24 DUP3 ADD MSTORE PUSH21 0x82E4E4C2F240D8CADCCEE8D040DAD2E6DAC2E8C6D PUSH1 0x5B SHL PUSH1 0x44 DUP3 ADD MSTORE REVERT JUMPDEST DUP4 DUP1 REVERT JUMPDEST POP DUP3 SWAP1 CALLVALUE PUSH2 0x301 JUMPI PUSH1 0x20 CALLDATASIZE PUSH1 0x3 NOT ADD SLT PUSH2 0x301 JUMPI PUSH2 0x5FD PUSH2 0x1824 JUMP JUMPDEST SWAP1 PUSH2 0x606 PUSH2 0x18D7 JUMP JUMPDEST PUSH1 0x1 PUSH1 0x1 PUSH1 0xA0 SHL SUB DUP3 AND SWAP3 DUP4 ISZERO PUSH2 0x665 JUMPI POP POP PUSH1 0x7 DUP1 SLOAD PUSH2 0x100 PUSH1 0x1 PUSH1 0xA8 SHL SUB NOT AND PUSH1 0x8 SWAP3 SWAP1 SWAP3 SHL PUSH2 0x100 PUSH1 0x1 PUSH1 0xA8 SHL SUB AND SWAP2 SWAP1 SWAP2 OR SWAP1 SSTORE PUSH32 0x8AA6172B9DCBE4F05892121059BC535D4743D706BA3AC6CBABF4A40DE229E388 DUP3 DUP1 LOG2 DUP1 RETURN JUMPDEST SWAP1 PUSH1 0x20 PUSH1 0x64 SWAP3 MLOAD SWAP2 PUSH3 0x461BCD PUSH1 0xE5 SHL DUP4 MSTORE DUP3 ADD MSTORE PUSH1 0x18 PUSH1 0x24 DUP3 ADD MSTORE PUSH32 0x496E76616C696420726567697374727920616464726573730000000000000000 PUSH1 0x44 DUP3 ADD MSTORE REVERT JUMPDEST POP SWAP2 CALLVALUE PUSH2 0x24B JUMPI PUSH1 0x60 CALLDATASIZE PUSH1 0x3 NOT ADD SLT PUSH2 0x24B JUMPI DUP3 CALLDATALOAD SWAP1 PUSH1 0x24 CALLDATALOAD PUSH8 0xFFFFFFFFFFFFFFFF PUSH1 0x44 CALLDATALOAD DUP2 DUP2 GT PUSH2 0x852 JUMPI CALLDATASIZE PUSH1 0x23 DUP3 ADD SLT ISZERO PUSH2 0x852 JUMPI DUP1 DUP8 ADD CALLDATALOAD SWAP2 DUP3 GT PUSH2 0x852 JUMPI PUSH1 0x24 DUP3 CALLDATASIZE SWAP3 ADD ADD GT PUSH2 0x48C JUMPI PUSH2 0x6FE PUSH2 0x18D7 JUMP JUMPDEST PUSH2 0x706 PUSH2 0x1C7F JUMP JUMPDEST DUP4 DUP6 MSTORE PUSH1 0x9 PUSH1 0x20 MSTORE DUP3 DUP6 KECCAK256 DUP1 SLOAD DUP4 LT ISZERO PUSH2 0x817 JUMPI DUP3 PUSH2 0x724 SWAP2 PUSH2 0x1874 JUMP JUMPDEST POP SWAP1 PUSH1 0x2 DUP3 ADD SWAP1 PUSH1 0xFF DUP3 SLOAD AND PUSH2 0x7FB JUMPI PUSH1 0x1 DUP4 ADD SLOAD SWAP1 ISZERO ISZERO DUP1 PUSH2 0x7F2 JUMPI JUMPDEST ISZERO PUSH2 0x7E2 JUMPI SWAP7 PUSH2 0x7CE SWAP2 PUSH1 0x1 DUP10 DUP10 SWAP11 PUSH32 0xF2C471E2EB8D5A61CEA66AB82BAB6DC0234916165C56D4D3953DA6531976D8C5 SWAP10 SWAP11 MSTORE PUSH1 0xA PUSH1 0x20 MSTORE DUP8 DUP12 KECCAK256 SWAP1 PUSH1 0xFF NOT SWAP2 DUP4 DUP4 DUP3 SLOAD AND OR SWAP1 SSTORE PUSH32 0xDFAB6D57CA95FAA91C42574906D1D4C6F78EB5CC2F846C1F898A08A8DD73EE32 PUSH1 0x20 DUP11 MLOAD TIMESTAMP DUP2 MSTORE LOG2 DUP3 SLOAD AND OR SWAP1 SSTORE DUP3 ADD SLOAD DUP3 SLOAD SWAP1 PUSH1 0x1 PUSH1 0x1 PUSH1 0xA0 SHL SUB AND ADDRESS PUSH2 0x1D78 JUMP JUMPDEST SLOAD DUP3 MLOAD SWAP2 DUP3 MSTORE PUSH1 0x20 DUP3 ADD MSTORE LOG2 PUSH1 0x1 PUSH1 0x6 SSTORE DUP1 RETURN JUMPDEST DUP5 MLOAD PUSH4 0x1060F161 PUSH1 0xE0 SHL DUP2 MSTORE DUP9 SWAP1 REVERT JUMPDEST POP DUP1 ISZERO ISZERO PUSH2 0x742 JUMP JUMPDEST PUSH1 0x44 DUP9 DUP6 DUP9 DUP9 MLOAD SWAP3 PUSH4 0x21C9D919 PUSH1 0xE1 SHL DUP5 MSTORE DUP4 ADD MSTORE PUSH1 0x24 DUP3 ADD MSTORE REVERT JUMPDEST DUP4 MLOAD PUSH3 0x461BCD PUSH1 0xE5 SHL DUP2 MSTORE PUSH1 0x20 DUP2 DUP10 ADD MSTORE PUSH1 0x15 PUSH1 0x24 DUP3 ADD MSTORE PUSH21 0x92DCECC2D8D2C840E8E4C2DCC6D0CA40D2DCC8CAF PUSH1 0x5B SHL PUSH1 0x44 DUP3 ADD MSTORE PUSH1 0x64 SWAP1 REVERT JUMPDEST DUP6 DUP1 REVERT JUMPDEST POP CALLVALUE PUSH2 0x24B JUMPI PUSH1 0x20 CALLDATASIZE PUSH1 0x3 NOT ADD SLT PUSH2 0x24B JUMPI PUSH2 0x870 PUSH2 0x18D7 JUMP JUMPDEST CALLDATALOAD PUSH1 0xD SSTORE DUP1 RETURN JUMPDEST POP SWAP2 SWAP1 CALLVALUE PUSH2 0x8F2 JUMPI DUP2 PUSH1 0x3 NOT CALLDATASIZE ADD SLT PUSH2 0x8F2 JUMPI POP PUSH2 0x893 PUSH2 0x1824 JUMP JUMPDEST SWAP2 PUSH1 0x24 CALLDATALOAD SWAP1 PUSH2 0x8A0 PUSH2 0x1EE6 JUMP JUMPDEST PUSH2 0x8AB DUP3 DUP6 CALLER PUSH2 0x1B79 JUMP JUMPDEST ISZERO PUSH2 0x8C5 JUMPI POP PUSH2 0x8BE SWAP1 PUSH1 0x20 SWAP4 CALLER PUSH2 0x1D78 JUMP JUMPDEST MLOAD PUSH1 0x1 DUP2 MSTORE RETURN JUMPDEST SWAP2 MLOAD PUSH4 0x79F913BB PUSH1 0xE1 SHL DUP2 MSTORE CALLER SWAP3 DUP2 ADD SWAP3 DUP4 MSTORE PUSH1 0x1 PUSH1 0x1 PUSH1 0xA0 SHL SUB SWAP1 SWAP4 AND PUSH1 0x20 DUP4 ADD MSTORE POP DUP2 SWAP1 PUSH1 0x40 ADD SUB SWAP1 REVERT JUMPDEST DUP1 REVERT JUMPDEST POP SWAP1 CALLVALUE PUSH2 0x8F2 JUMPI DUP3 PUSH1 0x3 NOT CALLDATASIZE ADD SLT PUSH2 0x8F2 JUMPI PUSH2 0x90F PUSH2 0x1824 JUMP JUMPDEST SWAP2 DUP4 PUSH1 0x24 CALLDATALOAD SWAP3 CALLER DUP2 MSTORE PUSH1 0x1 PUSH1 0x20 MSTORE DUP2 DUP2 KECCAK256 PUSH1 0x1 DUP1 PUSH1 0xA0 SHL SUB DUP7 AND DUP3 MSTORE PUSH1 0x20 MSTORE KECCAK256 SLOAD SWAP1 DUP3 DUP3 LT PUSH2 0x948 JUMPI PUSH1 0x20 DUP6 PUSH2 0x8BE DUP6 DUP6 SUB DUP8 CALLER PUSH2 0x19A6 JUMP JUMPDEST PUSH1 0x84 SWAP1 PUSH1 0x20 DUP7 MLOAD SWAP2 PUSH3 0x461BCD PUSH1 0xE5 SHL DUP4 MSTORE DUP3 ADD MSTORE PUSH1 0x25 PUSH1 0x24 DUP3 ADD MSTORE PUSH32 0x45524332303A2064656372656173656420616C6C6F77616E63652062656C6F77 PUSH1 0x44 DUP3 ADD MSTORE PUSH5 0x207A65726F PUSH1 0xD8 SHL PUSH1 0x64 DUP3 ADD MSTORE REVERT JUMPDEST DUP3 DUP5 CALLVALUE PUSH2 0x24B JUMPI PUSH1 0x20 CALLDATASIZE PUSH1 0x3 NOT ADD SLT PUSH2 0x24B JUMPI PUSH1 0x20 SWAP2 PUSH1 0xFF SWAP1 DUP3 SWAP1 PUSH1 0x1 PUSH1 0x1 PUSH1 0xA0 SHL SUB PUSH2 0x9C4 PUSH2 0x1824 JUMP JUMPDEST AND DUP2 MSTORE PUSH1 0xB DUP6 MSTORE KECCAK256 SLOAD AND SWAP1 MLOAD SWAP1 ISZERO ISZERO DUP2 MSTORE RETURN JUMPDEST POP DUP3 SWAP1 CALLVALUE PUSH2 0x301 JUMPI PUSH1 0x20 CALLDATASIZE PUSH1 0x3 NOT ADD SLT PUSH2 0x301 JUMPI DUP1 CALLDATALOAD SWAP2 PUSH2 0x9F6 PUSH2 0x18D7 JUMP JUMPDEST DUP3 ISZERO PUSH2 0xA04 JUMPI POP POP PUSH1 0xC SSTORE DUP1 RETURN JUMPDEST SWAP1 PUSH1 0x20 PUSH1 0x64 SWAP3 MLOAD SWAP2 PUSH3 0x461BCD PUSH1 0xE5 SHL DUP4 MSTORE DUP3 ADD MSTORE PUSH1 0x1C PUSH1 0x24 DUP3 ADD MSTORE PUSH32 0x4D617820686F6C64696E67206D75737420626520706F73697469766500000000 PUSH1 0x44 DUP3 ADD MSTORE REVERT JUMPDEST POP SWAP2 CALLVALUE PUSH2 0x24B JUMPI DUP2 PUSH1 0x3 NOT CALLDATASIZE ADD SLT PUSH2 0x24B JUMPI DUP1 MLOAD SWAP2 DUP1 SWAP4 DUP1 SLOAD SWAP2 PUSH1 0x1 SWAP1 DUP4 DUP3 SHR SWAP3 DUP3 DUP6 AND SWAP5 DUP6 ISZERO PUSH2 0xB40 JUMPI JUMPDEST PUSH1 0x20 SWAP6 DUP7 DUP7 LT DUP2 EQ PUSH2 0xB2D JUMPI DUP6 DUP10 MSTORE SWAP1 DUP2 ISZERO PUSH2 0xB09 JUMPI POP PUSH1 0x1 EQ PUSH2 0xAB1 JUMPI JUMPDEST PUSH2 0xAAD DUP8 DUP8 PUSH2 0xAA3 DUP3 DUP13 SUB DUP4 PUSH2 0x1961 JUMP JUMPDEST MLOAD SWAP2 DUP3 SWAP2 DUP3 PUSH2 0x17DB JUMP JUMPDEST SUB SWAP1 RETURN JUMPDEST DUP2 MSTORE SWAP3 SWAP6 POP PUSH32 0x8A35ACFBC15FF81A39AE7D344FD709F28E8600B4AA8C65C6B64BFE7FE36BD19B JUMPDEST DUP3 DUP5 LT PUSH2 0xAF6 JUMPI POP POP POP DUP3 PUSH2 0xAAD SWAP5 PUSH2 0xAA3 SWAP3 DUP3 ADD ADD SWAP5 CODESIZE DUP1 PUSH2 0xA92 JUMP JUMPDEST DUP1 SLOAD DUP7 DUP6 ADD DUP9 ADD MSTORE SWAP3 DUP7 ADD SWAP3 DUP2 ADD PUSH2 0xAD8 JUMP JUMPDEST PUSH1 0xFF NOT AND DUP9 DUP8 ADD MSTORE POP POP POP POP ISZERO ISZERO PUSH1 0x5 SHL DUP4 ADD ADD SWAP3 POP PUSH2 0xAA3 DUP3 PUSH2 0xAAD CODESIZE DUP1 PUSH2 0xA92 JUMP JUMPDEST PUSH4 0x4E487B71 PUSH1 0xE0 SHL DUP5 MSTORE PUSH1 0x22 DUP4 MSTORE PUSH1 0x24 DUP5 REVERT JUMPDEST SWAP4 PUSH1 0x7F AND SWAP4 PUSH2 0xA73 JUMP JUMPDEST DUP3 DUP5 CALLVALUE PUSH2 0x24B JUMPI DUP2 PUSH1 0x3 NOT CALLDATASIZE ADD SLT PUSH2 0x24B JUMPI PUSH1 0x5 SLOAD SWAP1 MLOAD PUSH1 0x1 PUSH1 0x1 PUSH1 0xA0 SHL SUB SWAP1 SWAP2 AND DUP2 MSTORE PUSH1 0x20 SWAP1 RETURN JUMPDEST DUP3 DUP5 CALLVALUE PUSH2 0x24B JUMPI DUP2 PUSH1 0x3 NOT CALLDATASIZE ADD SLT PUSH2 0x24B JUMPI PUSH1 0x20 PUSH32 0x62E78CEA01BEE320CD4E420270B5EA74000D11B0C9F74754EBDBFC544B05A258 SWAP2 PUSH2 0xBB1 PUSH2 0x18D7 JUMP JUMPDEST PUSH2 0xBB9 PUSH2 0x1EE6 JUMP JUMPDEST PUSH1 0x1 PUSH1 0xFF NOT PUSH1 0x7 SLOAD AND OR PUSH1 0x7 SSTORE MLOAD CALLER DUP2 MSTORE LOG1 DUP1 RETURN JUMPDEST POP DUP3 SWAP1 CALLVALUE PUSH2 0x301 JUMPI DUP2 PUSH1 0x3 NOT CALLDATASIZE ADD SLT PUSH2 0x301 JUMPI PUSH1 0x24 CALLDATALOAD SWAP3 DUP2 CALLDATALOAD DUP2 MSTORE PUSH1 0x9 PUSH1 0x20 MSTORE DUP3 DUP2 KECCAK256 SWAP1 DUP2 SLOAD DUP6 LT ISZERO PUSH2 0x8F2 JUMPI POP PUSH1 0xA0 SWAP4 PUSH2 0xC08 SWAP2 PUSH2 0x1874 JUMP JUMPDEST POP SWAP1 DUP2 SLOAD SWAP3 PUSH1 0x1 DUP4 ADD SLOAD SWAP3 PUSH1 0xFF PUSH1 0x2 DUP3 ADD SLOAD AND SWAP1 PUSH1 0x3 DUP2 ADD SLOAD SWAP4 PUSH1 0x1 DUP1 DUP10 SHL SUB SWAP2 ADD SLOAD AND SWAP4 DUP3 MLOAD SWAP6 DUP7 MSTORE PUSH1 0x20 DUP7 ADD MSTORE ISZERO ISZERO SWAP1 DUP5 ADD MSTORE PUSH1 0x60 DUP4 ADD MSTORE PUSH1 0x80 DUP3 ADD MSTORE RETURN JUMPDEST DUP3 CALLVALUE PUSH2 0x8F2 JUMPI DUP1 PUSH1 0x3 NOT CALLDATASIZE ADD SLT PUSH2 0x8F2 JUMPI PUSH2 0xC62 PUSH2 0x18D7 JUMP JUMPDEST PUSH1 0x5 DUP1 SLOAD PUSH1 0x1 PUSH1 0x1 PUSH1 0xA0 SHL SUB NOT DUP2 AND SWAP1 SWAP2 SSTORE DUP2 SWAP1 PUSH1 0x1 PUSH1 0x1 PUSH1 0xA0 SHL SUB AND PUSH32 0x8BE0079C531659141344CD1FD0A4F28419497F9722A3DAAFE3B4186F6B6457E0 DUP3 DUP1 LOG3 DUP1 RETURN JUMPDEST DUP3 DUP5 CALLVALUE PUSH2 0x24B JUMPI PUSH1 0x20 CALLDATASIZE PUSH1 0x3 NOT ADD SLT PUSH2 0x24B JUMPI PUSH1 0x20 SWAP2 DUP2 SWAP1 PUSH1 0x1 PUSH1 0x1 PUSH1 0xA0 SHL SUB PUSH2 0xCCE PUSH2 0x1824 JUMP JUMPDEST AND DUP2 MSTORE DUP1 DUP5 MSTORE KECCAK256 SLOAD SWAP1 MLOAD SWAP1 DUP2 MSTORE RETURN JUMPDEST DUP3 DUP5 CALLVALUE PUSH2 0x24B JUMPI DUP2 PUSH1 0x3 NOT CALLDATASIZE ADD SLT PUSH2 0x24B JUMPI PUSH1 0x8 SLOAD SWAP1 MLOAD PUSH1 0x1 PUSH1 0x1 PUSH1 0xA0 SHL SUB SWAP1 SWAP2 AND DUP2 MSTORE PUSH1 0x20 SWAP1 RETURN JUMPDEST DUP3 DUP5 CALLVALUE PUSH2 0x24B JUMPI DUP2 PUSH1 0x3 NOT CALLDATASIZE ADD SLT PUSH2 0x24B JUMPI PUSH1 0x20 SWAP1 PUSH1 0xFF PUSH1 0x7 SLOAD AND SWAP1 MLOAD SWAP1 ISZERO ISZERO DUP2 MSTORE RETURN JUMPDEST DUP3 DUP5 CALLVALUE PUSH2 0x24B JUMPI DUP1 PUSH1 0x3 NOT CALLDATASIZE ADD SLT PUSH2 0x24B JUMPI PUSH2 0xD44 PUSH2 0x1824 JUMP JUMPDEST SWAP1 PUSH1 0x24 CALLDATALOAD SWAP2 DUP3 ISZERO ISZERO DUP1 DUP5 SUB PUSH2 0x48C JUMPI PUSH32 0x18FDFD36FB509F2CCED57DADA676AF65D4138954BF356B40880D3A1B30443AE4 SWAP3 PUSH2 0xDA7 PUSH1 0x20 SWAP4 PUSH2 0xD83 PUSH2 0x18D7 JUMP JUMPDEST PUSH1 0x1 DUP1 PUSH1 0xA0 SHL SUB AND SWAP6 DUP7 DUP9 MSTORE PUSH1 0xB DUP6 MSTORE DUP3 DUP9 KECCAK256 SWAP1 PUSH1 0xFF DUP1 NOT DUP4 SLOAD AND SWAP2 ISZERO ISZERO AND OR SWAP1 SSTORE JUMP JUMPDEST MLOAD SWAP1 DUP2 MSTORE LOG2 DUP1 RETURN JUMPDEST DUP3 DUP5 CALLVALUE PUSH2 0x24B JUMPI DUP2 PUSH1 0x3 NOT CALLDATASIZE ADD SLT PUSH2 0x24B JUMPI PUSH1 0x20 SWAP1 PUSH1 0xD SLOAD SWAP1 MLOAD SWAP1 DUP2 MSTORE RETURN JUMPDEST POP DUP3 CALLVALUE PUSH2 0x301 JUMPI PUSH1 0x20 SWAP1 DUP2 PUSH1 0x3 NOT CALLDATASIZE ADD SLT PUSH2 0x5DD JUMPI DUP3 CALLDATALOAD SWAP3 CALLER ISZERO PUSH2 0xE91 JUMPI CALLER DUP6 MSTORE DUP5 DUP4 MSTORE DUP2 DUP6 KECCAK256 SLOAD SWAP1 DUP5 DUP3 LT PUSH2 0xE43 JUMPI POP SWAP2 PUSH32 0xDDF252AD1BE2C89B69C2B068FC378DAA952BA7F163C4A11628F55A4DF523B3EF SWAP2 DUP5 DUP7 SWAP6 SWAP5 CALLER DUP8 MSTORE DUP7 DUP5 MSTORE SUB DUP2 DUP7 KECCAK256 SSTORE DUP4 PUSH1 0x2 SLOAD SUB PUSH1 0x2 SSTORE MLOAD SWAP3 DUP4 MSTORE CALLER SWAP3 LOG3 DUP1 RETURN JUMPDEST DUP3 MLOAD PUSH3 0x461BCD PUSH1 0xE5 SHL DUP2 MSTORE SWAP1 DUP2 ADD DUP5 SWAP1 MSTORE PUSH1 0x22 PUSH1 0x24 DUP3 ADD MSTORE PUSH32 0x45524332303A206275726E20616D6F756E7420657863656564732062616C616E PUSH1 0x44 DUP3 ADD MSTORE PUSH2 0x6365 PUSH1 0xF0 SHL PUSH1 0x64 DUP3 ADD MSTORE PUSH1 0x84 SWAP1 REVERT JUMPDEST DUP3 PUSH1 0x84 SWAP3 MLOAD SWAP2 PUSH3 0x461BCD PUSH1 0xE5 SHL DUP4 MSTORE DUP3 ADD MSTORE PUSH1 0x21 PUSH1 0x24 DUP3 ADD MSTORE PUSH32 0x45524332303A206275726E2066726F6D20746865207A65726F20616464726573 PUSH1 0x44 DUP3 ADD MSTORE PUSH1 0x73 PUSH1 0xF8 SHL PUSH1 0x64 DUP3 ADD MSTORE REVERT JUMPDEST POP CALLVALUE PUSH2 0x24B JUMPI DUP3 PUSH1 0x3 NOT CALLDATASIZE ADD SLT PUSH2 0x24B JUMPI PUSH2 0xEF5 PUSH2 0x1824 JUMP JUMPDEST PUSH1 0x24 CALLDATALOAD SWAP2 PUSH2 0xF01 PUSH2 0x18D7 JUMP JUMPDEST PUSH2 0xF09 PUSH2 0x1EE6 JUMP JUMPDEST PUSH2 0xF12 DUP3 PUSH2 0x1B00 JUMP JUMPDEST ISZERO PUSH2 0xFDA JUMPI PUSH1 0x1 PUSH1 0x1 PUSH1 0xA0 SHL SUB DUP3 AND DUP1 DUP6 MSTORE PUSH1 0xB PUSH1 0x20 MSTORE DUP6 DUP6 KECCAK256 SLOAD PUSH1 0xFF AND ISZERO PUSH2 0xFC4 JUMPI DUP1 DUP6 MSTORE DUP5 PUSH1 0x20 MSTORE PUSH2 0xF49 DUP5 DUP8 DUP8 KECCAK256 SLOAD PUSH2 0x1983 JUMP JUMPDEST PUSH1 0xC SLOAD LT PUSH2 0xF96 JUMPI DUP5 MSTORE DUP4 PUSH1 0x20 MSTORE DUP5 DUP5 KECCAK256 SLOAD ISZERO DUP1 PUSH2 0xF8B JUMPI JUMPDEST PUSH2 0xF74 JUMPI POP SWAP1 PUSH2 0xF71 SWAP2 PUSH2 0x1CD5 JUMP JUMPDEST DUP1 RETURN JUMPDEST DUP5 MLOAD PUSH4 0xF39C9DA5 PUSH1 0xE0 SHL DUP2 MSTORE SWAP1 DUP2 ADD DUP4 SWAP1 MSTORE PUSH1 0x24 SWAP1 REVERT JUMPDEST POP PUSH1 0xD SLOAD DUP4 LT PUSH2 0xF62 JUMP JUMPDEST POP DUP5 MLOAD PUSH4 0x2DD7F6F7 PUSH1 0xE2 SHL DUP2 MSTORE PUSH1 0x1 PUSH1 0x1 PUSH1 0xA0 SHL SUB SWAP1 SWAP3 AND SWAP1 DUP3 ADD SWAP1 DUP2 MSTORE PUSH1 0x20 DUP2 ADD DUP4 SWAP1 MSTORE DUP2 SWAP1 PUSH1 0x40 ADD SUB SWAP1 REVERT JUMPDEST DUP6 MLOAD PUSH4 0x22B9A43 PUSH1 0xE4 SHL DUP2 MSTORE SWAP2 DUP3 ADD MSTORE PUSH1 0x24 SWAP2 POP REVERT JUMPDEST DUP5 MLOAD PUSH4 0xC4382681 PUSH1 0xE0 SHL DUP2 MSTORE PUSH1 0x1 PUSH1 0x1 PUSH1 0xA0 SHL SUB SWAP1 SWAP3 AND SWAP1 DUP3 ADD MSTORE PUSH1 0x24 SWAP2 POP REVERT JUMPDEST POP DUP3 SWAP1 CALLVALUE PUSH2 0x301 JUMPI DUP3 PUSH1 0x3 NOT CALLDATASIZE ADD SLT PUSH2 0x301 JUMPI PUSH2 0x1016 PUSH2 0x18D7 JUMP JUMPDEST PUSH1 0x7 SLOAD SWAP1 PUSH1 0xFF DUP3 AND ISZERO PUSH2 0x1058 JUMPI POP PUSH1 0xFF NOT AND PUSH1 0x7 SSTORE MLOAD CALLER DUP2 MSTORE PUSH32 0x5DB9EE0A495BF2E6FF9C91A7834C1BA4FDD244A5E8AA4E537BD38AEAE4B073AA SWAP1 PUSH1 0x20 SWAP1 LOG1 DUP1 RETURN JUMPDEST PUSH1 0x64 SWAP1 PUSH1 0x20 DUP5 MLOAD SWAP2 PUSH3 0x461BCD PUSH1 0xE5 SHL DUP4 MSTORE DUP3 ADD MSTORE PUSH1 0x14 PUSH1 0x24 DUP3 ADD MSTORE PUSH20 0x14185D5CD8589B194E881B9BDD081C185D5CD959 PUSH1 0x62 SHL PUSH1 0x44 DUP3 ADD MSTORE REVERT JUMPDEST DUP3 DUP5 CALLVALUE PUSH2 0x24B JUMPI DUP1 PUSH1 0x3 NOT CALLDATASIZE ADD SLT PUSH2 0x24B JUMPI PUSH2 0x8BE PUSH1 0x20 SWAP3 PUSH2 0x10DB PUSH2 0x10B5 PUSH2 0x1824 JUMP JUMPDEST CALLER DUP4 MSTORE PUSH1 0x1 DUP7 MSTORE DUP5 DUP4 KECCAK256 PUSH1 0x1 PUSH1 0x1 PUSH1 0xA0 SHL SUB DUP3 AND DUP5 MSTORE DUP7 MSTORE SWAP2 DUP5 SWAP1 KECCAK256 SLOAD PUSH1 0x24 CALLDATALOAD SWAP1 PUSH2 0x1983 JUMP JUMPDEST SWAP1 CALLER PUSH2 0x19A6 JUMP JUMPDEST DUP3 DUP5 CALLVALUE PUSH2 0x24B JUMPI DUP2 PUSH1 0x3 NOT CALLDATASIZE ADD SLT PUSH2 0x24B JUMPI PUSH1 0x20 SWAP1 MLOAD PUSH1 0x12 DUP2 MSTORE RETURN JUMPDEST POP DUP3 SWAP1 CALLVALUE PUSH2 0x301 JUMPI PUSH1 0x20 CALLDATASIZE PUSH1 0x3 NOT ADD SLT PUSH2 0x301 JUMPI DUP2 PUSH1 0x20 SWAP4 PUSH1 0xFF SWAP3 CALLDATALOAD DUP2 MSTORE PUSH1 0xA DUP6 MSTORE KECCAK256 SLOAD AND SWAP1 MLOAD SWAP1 ISZERO ISZERO DUP2 MSTORE RETURN JUMPDEST POP CALLVALUE PUSH2 0x24B JUMPI PUSH1 0x20 SWAP1 DUP2 PUSH1 0x3 NOT CALLDATASIZE ADD SLT PUSH2 0x301 JUMPI DUP1 CALLDATALOAD DUP4 MSTORE PUSH1 0x9 DUP3 MSTORE DUP4 DUP4 KECCAK256 SWAP2 DUP3 SLOAD PUSH8 0xFFFFFFFFFFFFFFFF DUP2 GT PUSH2 0x1256 JUMPI DUP6 MLOAD SWAP2 SWAP5 SWAP3 PUSH1 0x5 SWAP1 PUSH2 0x1173 DUP4 DUP4 SHL DUP9 ADD DUP6 PUSH2 0x1961 JUMP JUMPDEST DUP3 DUP5 MSTORE DUP7 DUP5 ADD SWAP1 DUP2 SWAP7 DUP7 MSTORE DUP8 DUP7 KECCAK256 SWAP1 DUP7 SWAP3 JUMPDEST DUP6 DUP5 LT PUSH2 0x11FA JUMPI POP POP POP POP POP POP DUP5 MLOAD SWAP4 DUP1 DUP6 ADD SWAP2 DUP2 DUP7 MSTORE MLOAD DUP1 SWAP3 MSTORE DUP6 DUP6 ADD SWAP4 SWAP3 JUMPDEST DUP3 DUP2 LT PUSH2 0x11B3 JUMPI DUP6 DUP6 SUB DUP7 RETURN JUMPDEST DUP4 MLOAD DUP1 MLOAD DUP7 MSTORE DUP1 DUP4 ADD MLOAD DUP7 DUP5 ADD MSTORE DUP8 DUP2 ADD MLOAD ISZERO ISZERO DUP9 DUP8 ADD MSTORE PUSH1 0x60 DUP1 DUP3 ADD MLOAD SWAP1 DUP8 ADD MSTORE PUSH1 0x80 SWAP1 DUP2 ADD MLOAD PUSH1 0x1 PUSH1 0x1 PUSH1 0xA0 SHL SUB AND SWAP1 DUP7 ADD MSTORE PUSH1 0xA0 SWAP1 SWAP5 ADD SWAP4 SWAP3 DUP2 ADD SWAP3 PUSH1 0x1 ADD PUSH2 0x11A6 JUMP JUMPDEST DUP5 DUP11 PUSH1 0x1 SWAP3 DUP14 DUP1 SWAP14 SWAP11 SWAP12 SWAP14 MLOAD SWAP1 PUSH2 0x1210 DUP3 PUSH2 0x192F JUMP JUMPDEST DUP8 SLOAD DUP3 MSTORE DUP6 DUP9 ADD SLOAD DUP5 DUP4 ADD MSTORE PUSH1 0xFF PUSH1 0x2 DUP10 ADD SLOAD AND ISZERO ISZERO SWAP1 DUP3 ADD MSTORE PUSH1 0x3 DUP8 ADD SLOAD PUSH1 0x60 DUP3 ADD MSTORE DUP5 DUP1 PUSH1 0xA0 SHL SUB DUP7 DUP9 ADD SLOAD AND PUSH1 0x80 DUP3 ADD MSTORE DUP2 MSTORE ADD SWAP4 ADD SWAP4 ADD SWAP3 SWAP2 SWAP9 SWAP7 SWAP6 SWAP9 PUSH2 0x1185 JUMP JUMPDEST PUSH4 0x4E487B71 PUSH1 0xE0 SHL DUP6 MSTORE PUSH1 0x41 DUP4 MSTORE PUSH1 0x24 DUP6 REVERT JUMPDEST POP SWAP1 CALLVALUE PUSH2 0x8F2 JUMPI PUSH2 0x1279 CALLDATASIZE PUSH2 0x183F JUMP JUMPDEST SWAP4 SWAP1 SWAP3 PUSH2 0x1284 PUSH2 0x1EE6 JUMP JUMPDEST PUSH2 0x128F DUP6 DUP6 DUP6 PUSH2 0x1B79 JUMP JUMPDEST ISZERO PUSH2 0x1337 JUMPI PUSH1 0x1 PUSH1 0x1 PUSH1 0xA0 SHL SUB DUP4 AND DUP2 MSTORE PUSH1 0x1 PUSH1 0x20 DUP2 DUP2 MSTORE DUP8 DUP4 KECCAK256 CALLER DUP5 MSTORE SWAP1 MSTORE SWAP1 DUP7 SWAP1 KECCAK256 SLOAD SWAP2 SWAP1 DUP3 ADD PUSH2 0x12CB JUMPI JUMPDEST PUSH1 0x20 DUP7 PUSH2 0x8BE DUP8 DUP8 DUP8 PUSH2 0x1D78 JUMP JUMPDEST DUP5 DUP3 LT PUSH2 0x12F4 JUMPI POP SWAP2 DUP4 SWAP2 PUSH2 0x12E9 PUSH1 0x20 SWAP7 SWAP6 PUSH2 0x8BE SWAP6 SUB CALLER DUP4 PUSH2 0x19A6 JUMP JUMPDEST SWAP2 SWAP4 SWAP5 DUP2 SWAP4 POP PUSH2 0x12BD JUMP JUMPDEST PUSH1 0x64 SWAP1 PUSH1 0x20 DUP8 MLOAD SWAP2 PUSH3 0x461BCD PUSH1 0xE5 SHL DUP4 MSTORE DUP3 ADD MSTORE PUSH1 0x1D PUSH1 0x24 DUP3 ADD MSTORE PUSH32 0x45524332303A20696E73756666696369656E7420616C6C6F77616E6365000000 PUSH1 0x44 DUP3 ADD MSTORE REVERT JUMPDEST POP DUP5 MLOAD PUSH4 0x79F913BB PUSH1 0xE1 SHL DUP2 MSTORE PUSH1 0x1 PUSH1 0x1 PUSH1 0xA0 SHL SUB SWAP3 DUP4 AND SWAP2 DUP2 ADD SWAP2 DUP3 MSTORE SWAP2 DUP4 AND PUSH1 0x20 DUP3 ADD MSTORE DUP2 SWAP1 PUSH1 0x40 ADD SUB SWAP1 REVERT JUMPDEST DUP3 DUP5 CALLVALUE PUSH2 0x24B JUMPI DUP2 PUSH1 0x3 NOT CALLDATASIZE ADD SLT PUSH2 0x24B JUMPI PUSH1 0x20 SWAP1 PUSH1 0x2 SLOAD SWAP1 MLOAD SWAP1 DUP2 MSTORE RETURN JUMPDEST DUP3 DUP5 CALLVALUE PUSH2 0x24B JUMPI DUP2 PUSH1 0x3 NOT CALLDATASIZE ADD SLT PUSH2 0x24B JUMPI PUSH1 0x7 SLOAD SWAP1 MLOAD PUSH1 0x8 SWAP2 SWAP1 SWAP2 SHR PUSH1 0x1 PUSH1 0x1 PUSH1 0xA0 SHL SUB AND DUP2 MSTORE PUSH1 0x20 SWAP1 RETURN JUMPDEST POP CALLVALUE PUSH2 0x24B JUMPI PUSH2 0x13C1 CALLDATASIZE PUSH2 0x183F JUMP JUMPDEST SWAP3 SWAP2 PUSH2 0x13CB PUSH2 0x18D7 JUMP JUMPDEST PUSH1 0x1 PUSH1 0x1 PUSH1 0xA0 SHL SUB AND SWAP2 ADDRESS DUP4 EQ PUSH2 0x145C JUMPI DUP6 MLOAD PUSH4 0xA9059CBB PUSH1 0xE0 SHL DUP2 MSTORE PUSH1 0x1 PUSH1 0x1 PUSH1 0xA0 SHL SUB SWAP1 SWAP3 AND SWAP1 DUP3 ADD SWAP1 DUP2 MSTORE PUSH1 0x20 DUP2 DUP2 ADD SWAP5 SWAP1 SWAP5 MSTORE SWAP1 SWAP3 DUP6 SWAP3 SWAP1 SWAP2 DUP5 SWAP2 SWAP1 DUP3 SWAP1 DUP8 SWAP1 DUP3 SWAP1 PUSH1 0x40 ADD SUB SWAP3 GAS CALL SWAP1 DUP2 ISZERO PUSH2 0x1453 JUMPI POP PUSH2 0x1428 JUMPI POP DUP1 RETURN JUMPDEST PUSH2 0x1448 SWAP1 PUSH1 0x20 RETURNDATASIZE DUP2 GT PUSH2 0x144C JUMPI JUMPDEST PUSH2 0x1440 DUP2 DUP4 PUSH2 0x1961 JUMP JUMPDEST DUP2 ADD SWAP1 PUSH2 0x1AE8 JUMP JUMPDEST POP DUP1 RETURN JUMPDEST POP RETURNDATASIZE PUSH2 0x1436 JUMP JUMPDEST MLOAD RETURNDATASIZE DUP5 DUP3 RETURNDATACOPY RETURNDATASIZE SWAP1 REVERT JUMPDEST PUSH1 0x64 SWAP1 PUSH1 0x20 DUP8 MLOAD SWAP2 PUSH3 0x461BCD PUSH1 0xE5 SHL DUP4 MSTORE DUP3 ADD MSTORE PUSH1 0x1B PUSH1 0x24 DUP3 ADD MSTORE PUSH32 0x43616E6E6F74207265636F766572206E617469766520746F6B656E0000000000 PUSH1 0x44 DUP3 ADD MSTORE REVERT JUMPDEST DUP3 DUP5 CALLVALUE PUSH2 0x24B JUMPI DUP1 PUSH1 0x3 NOT CALLDATASIZE ADD SLT PUSH2 0x24B JUMPI PUSH1 0x20 SWAP1 PUSH2 0x8BE PUSH2 0x14BF PUSH2 0x1824 JUMP JUMPDEST PUSH1 0x24 CALLDATALOAD SWAP1 CALLER PUSH2 0x19A6 JUMP JUMPDEST POP SWAP2 CALLVALUE PUSH2 0x24B JUMPI PUSH1 0x80 CALLDATASIZE PUSH1 0x3 NOT ADD SLT PUSH2 0x24B JUMPI PUSH1 0x24 SWAP3 DUP1 CALLDATALOAD SWAP2 SWAP1 DUP5 CALLDATALOAD SWAP1 PUSH1 0x44 CALLDATALOAD SWAP1 PUSH1 0x1 PUSH1 0x1 PUSH1 0xA0 SHL SUB PUSH1 0x64 CALLDATALOAD DUP2 DUP2 AND SWAP3 SWAP1 DUP4 SWAP1 SUB PUSH2 0x16E5 JUMPI PUSH2 0x1509 PUSH2 0x18D7 JUMP JUMPDEST PUSH2 0x1511 PUSH2 0x1C7F JUMP JUMPDEST DUP3 ISZERO PUSH2 0x16AD JUMPI DUP5 ISZERO PUSH2 0x166B JUMPI DUP4 ISZERO PUSH2 0x1630 JUMPI DUP6 MLOAD SWAP9 PUSH2 0x152F DUP11 PUSH2 0x192F JUMP JUMPDEST DUP6 DUP11 MSTORE PUSH1 0x20 DUP11 ADD SWAP10 DUP6 DUP12 MSTORE DUP8 DUP2 ADD SWAP11 DUP11 DUP13 MSTORE PUSH1 0x60 DUP3 ADD SWAP2 TIMESTAMP DUP4 MSTORE PUSH1 0x80 DUP2 ADD SWAP7 DUP8 MSTORE DUP11 DUP13 MSTORE PUSH1 0x9 PUSH1 0x20 MSTORE DUP10 DUP13 KECCAK256 DUP1 SLOAD SWAP1 PUSH9 0x10000000000000000 DUP3 LT ISZERO PUSH2 0x161E JUMPI SWAP1 PUSH2 0x157F SWAP2 PUSH1 0x1 DUP3 ADD DUP2 SSTORE PUSH2 0x1874 JUMP JUMPDEST SWAP5 SWAP1 SWAP5 PUSH2 0x160E JUMPI POP SWAP12 PUSH2 0x15D1 SWAP2 PUSH32 0x5ECD00B8EA6BC6AAE67AC5E2A4D33823434E76868E912A4B0F88B8C5CCA63F6C SWAP12 SWAP13 SWAP14 MLOAD DUP6 SSTORE MLOAD PUSH1 0x1 DUP6 ADD SSTORE MLOAD ISZERO ISZERO PUSH1 0x2 DUP5 ADD SWAP1 PUSH1 0xFF DUP1 NOT DUP4 SLOAD AND SWAP2 ISZERO ISZERO AND OR SWAP1 SSTORE JUMP JUMPDEST MLOAD PUSH1 0x3 DUP3 ADD SSTORE ADD SWAP2 MLOAD AND PUSH12 0xFFFFFFFFFFFFFFFFFFFFFFFF PUSH1 0xA0 SHL DUP3 SLOAD AND OR SWAP1 SSTORE PUSH2 0x15FB DUP3 ADDRESS PUSH2 0x1CD5 JUMP JUMPDEST DUP3 MLOAD SWAP2 DUP3 MSTORE PUSH1 0x20 DUP3 ADD MSTORE LOG2 PUSH1 0x1 PUSH1 0x6 SSTORE DUP1 RETURN JUMPDEST PUSH4 0x4E487B71 PUSH1 0xE0 SHL DUP14 MSTORE DUP13 DUP7 MSTORE DUP13 REVERT JUMPDEST PUSH4 0x4E487B71 PUSH1 0xE0 SHL DUP15 MSTORE PUSH1 0x41 DUP8 MSTORE DUP6 DUP15 REVERT JUMPDEST PUSH1 0x64 SWAP1 PUSH1 0x16 DUP11 PUSH1 0x20 DUP10 MLOAD SWAP4 PUSH3 0x461BCD PUSH1 0xE5 SHL DUP6 MSTORE DUP5 ADD MSTORE DUP3 ADD MSTORE PUSH22 0x92DCECC2D8D2C840DAD2D8CAE6E8DEDCCA40D0C2E6D PUSH1 0x53 SHL PUSH1 0x44 DUP3 ADD MSTORE REVERT JUMPDEST PUSH1 0x64 SWAP1 PUSH1 0x17 DUP11 PUSH1 0x20 DUP10 MLOAD SWAP4 PUSH3 0x461BCD PUSH1 0xE5 SHL DUP6 MSTORE DUP5 ADD MSTORE DUP3 ADD MSTORE PUSH32 0x416D6F756E74206D75737420626520706F736974697665000000000000000000 PUSH1 0x44 DUP3 ADD MSTORE REVERT JUMPDEST PUSH1 0x64 SWAP1 PUSH1 0x13 DUP11 PUSH1 0x20 DUP10 MLOAD SWAP4 PUSH3 0x461BCD PUSH1 0xE5 SHL DUP6 MSTORE DUP5 ADD MSTORE DUP3 ADD MSTORE PUSH19 0x496E76616C69642062656E6566696369617279 PUSH1 0x68 SHL PUSH1 0x44 DUP3 ADD MSTORE REVERT JUMPDEST DUP8 DUP1 REVERT JUMPDEST SWAP2 DUP5 SWAP2 POP CALLVALUE PUSH2 0x5DD JUMPI DUP4 PUSH1 0x3 NOT CALLDATASIZE ADD SLT PUSH2 0x5DD JUMPI PUSH1 0x3 SLOAD PUSH1 0x1 DUP2 DUP2 SHR SWAP2 DUP7 SWAP1 DUP3 DUP2 AND DUP1 ISZERO PUSH2 0x17D1 JUMPI JUMPDEST PUSH1 0x20 SWAP6 DUP7 DUP7 LT DUP3 EQ PUSH2 0x17BE JUMPI POP DUP5 DUP9 MSTORE SWAP1 DUP2 ISZERO PUSH2 0x179C JUMPI POP PUSH1 0x1 EQ PUSH2 0x1743 JUMPI JUMPDEST PUSH2 0xAAD DUP7 DUP7 PUSH2 0xAA3 DUP3 DUP12 SUB DUP4 PUSH2 0x1961 JUMP JUMPDEST SWAP3 SWAP6 POP PUSH1 0x3 DUP4 MSTORE PUSH32 0xC2575A0E9E593C00F959F8C92F12DB2869C3395A3B0502D05E2516446F71F85B JUMPDEST DUP3 DUP5 LT PUSH2 0x1789 JUMPI POP POP POP DUP3 PUSH2 0xAAD SWAP5 PUSH2 0xAA3 SWAP3 DUP3 ADD ADD SWAP5 DUP7 PUSH2 0x1732 JUMP JUMPDEST DUP1 SLOAD DUP7 DUP6 ADD DUP9 ADD MSTORE SWAP3 DUP7 ADD SWAP3 DUP2 ADD PUSH2 0x176C JUMP JUMPDEST PUSH1 0xFF NOT AND DUP8 DUP7 ADD MSTORE POP POP POP ISZERO ISZERO PUSH1 0x5 SHL DUP4 ADD ADD SWAP3 POP PUSH2 0xAA3 DUP3 PUSH2 0xAAD DUP7 PUSH2 0x1732 JUMP JUMPDEST PUSH4 0x4E487B71 PUSH1 0xE0 SHL DUP5 MSTORE PUSH1 0x22 SWAP1 MSTORE PUSH1 0x24 DUP4 REVERT JUMPDEST SWAP4 PUSH1 0x7F AND SWAP4 PUSH2 0x1712 JUMP JUMPDEST PUSH1 0x20 DUP1 DUP3 MSTORE DUP3 MLOAD DUP2 DUP4 ADD DUP2 SWAP1 MSTORE SWAP1 SWAP4 SWAP3 PUSH1 0x0 JUMPDEST DUP3 DUP2 LT PUSH2 0x1810 JUMPI POP POP PUSH1 0x40 SWAP3 SWAP4 POP PUSH1 0x0 DUP4 DUP3 DUP5 ADD ADD MSTORE PUSH1 0x1F DUP1 NOT SWAP2 ADD AND ADD ADD SWAP1 JUMP JUMPDEST DUP2 DUP2 ADD DUP7 ADD MLOAD DUP5 DUP3 ADD PUSH1 0x40 ADD MSTORE DUP6 ADD PUSH2 0x17EE JUMP JUMPDEST PUSH1 0x4 CALLDATALOAD SWAP1 PUSH1 0x1 PUSH1 0x1 PUSH1 0xA0 SHL SUB DUP3 AND DUP3 SUB PUSH2 0x183A JUMPI JUMP JUMPDEST PUSH1 0x0 DUP1 REVERT JUMPDEST PUSH1 0x60 SWAP1 PUSH1 0x3 NOT ADD SLT PUSH2 0x183A JUMPI PUSH1 0x1 PUSH1 0x1 PUSH1 0xA0 SHL SUB SWAP1 PUSH1 0x4 CALLDATALOAD DUP3 DUP2 AND DUP2 SUB PUSH2 0x183A JUMPI SWAP2 PUSH1 0x24 CALLDATALOAD SWAP1 DUP2 AND DUP2 SUB PUSH2 0x183A JUMPI SWAP1 PUSH1 0x44 CALLDATALOAD SWAP1 JUMP JUMPDEST DUP1 SLOAD DUP3 LT ISZERO PUSH2 0x1890 JUMPI PUSH1 0x0 MSTORE PUSH1 0x5 PUSH1 0x20 PUSH1 0x0 KECCAK256 SWAP2 MUL ADD SWAP1 PUSH1 0x0 SWAP1 JUMP JUMPDEST PUSH4 0x4E487B71 PUSH1 0xE0 SHL PUSH1 0x0 MSTORE PUSH1 0x32 PUSH1 0x4 MSTORE PUSH1 0x24 PUSH1 0x0 REVERT JUMPDEST SWAP2 DUP2 PUSH1 0x1F DUP5 ADD SLT ISZERO PUSH2 0x183A JUMPI DUP3 CALLDATALOAD SWAP2 PUSH8 0xFFFFFFFFFFFFFFFF DUP4 GT PUSH2 0x183A JUMPI PUSH1 0x20 DUP1 DUP6 ADD SWAP5 DUP5 PUSH1 0x5 SHL ADD ADD GT PUSH2 0x183A JUMPI JUMP JUMPDEST PUSH1 0x5 SLOAD PUSH1 0x1 PUSH1 0x1 PUSH1 0xA0 SHL SUB AND CALLER SUB PUSH2 0x18EB JUMPI JUMP JUMPDEST PUSH1 0x64 PUSH1 0x40 MLOAD PUSH3 0x461BCD PUSH1 0xE5 SHL DUP2 MSTORE PUSH1 0x20 PUSH1 0x4 DUP3 ADD MSTORE PUSH1 0x20 PUSH1 0x24 DUP3 ADD MSTORE PUSH32 0x4F776E61626C653A2063616C6C6572206973206E6F7420746865206F776E6572 PUSH1 0x44 DUP3 ADD MSTORE REVERT JUMPDEST PUSH1 0xA0 DUP2 ADD SWAP1 DUP2 LT PUSH8 0xFFFFFFFFFFFFFFFF DUP3 GT OR PUSH2 0x194B JUMPI PUSH1 0x40 MSTORE JUMP JUMPDEST PUSH4 0x4E487B71 PUSH1 0xE0 SHL PUSH1 0x0 MSTORE PUSH1 0x41 PUSH1 0x4 MSTORE PUSH1 0x24 PUSH1 0x0 REVERT JUMPDEST SWAP1 PUSH1 0x1F DUP1 NOT SWAP2 ADD AND DUP2 ADD SWAP1 DUP2 LT PUSH8 0xFFFFFFFFFFFFFFFF DUP3 GT OR PUSH2 0x194B JUMPI PUSH1 0x40 MSTORE JUMP JUMPDEST SWAP2 SWAP1 DUP3 ADD DUP1 SWAP3 GT PUSH2 0x1990 JUMPI JUMP JUMPDEST PUSH4 0x4E487B71 PUSH1 0xE0 SHL PUSH1 0x0 MSTORE PUSH1 0x11 PUSH1 0x4 MSTORE PUSH1 0x24 PUSH1 0x0 REVERT JUMPDEST PUSH1 0x1 PUSH1 0x1 PUSH1 0xA0 SHL SUB SWAP1 DUP2 AND SWAP2 DUP3 ISZERO PUSH2 0x1A57 JUMPI AND SWAP2 DUP3 ISZERO PUSH2 0x1A07 JUMPI PUSH1 0x20 PUSH32 0x8C5BE1E5EBEC7D5BD14F71427D1E84F3DD0314C0F7B2291E5B200AC8C7C3B925 SWAP2 DUP4 PUSH1 0x0 MSTORE PUSH1 0x1 DUP3 MSTORE PUSH1 0x40 PUSH1 0x0 KECCAK256 DUP6 PUSH1 0x0 MSTORE DUP3 MSTORE DUP1 PUSH1 0x40 PUSH1 0x0 KECCAK256 SSTORE PUSH1 0x40 MLOAD SWAP1 DUP2 MSTORE LOG3 JUMP JUMPDEST PUSH1 0x40 MLOAD PUSH3 0x461BCD PUSH1 0xE5 SHL DUP2 MSTORE PUSH1 0x20 PUSH1 0x4 DUP3 ADD MSTORE PUSH1 0x22 PUSH1 0x24 DUP3 ADD MSTORE PUSH32 0x45524332303A20617070726F766520746F20746865207A65726F206164647265 PUSH1 0x44 DUP3 ADD MSTORE PUSH2 0x7373 PUSH1 0xF0 SHL PUSH1 0x64 DUP3 ADD MSTORE PUSH1 0x84 SWAP1 REVERT JUMPDEST PUSH1 0x40 MLOAD PUSH3 0x461BCD PUSH1 0xE5 SHL DUP2 MSTORE PUSH1 0x20 PUSH1 0x4 DUP3 ADD MSTORE PUSH1 0x24 DUP1 DUP3 ADD MSTORE PUSH32 0x45524332303A20617070726F76652066726F6D20746865207A65726F20616464 PUSH1 0x44 DUP3 ADD MSTORE PUSH4 0x72657373 PUSH1 0xE0 SHL PUSH1 0x64 DUP3 ADD MSTORE PUSH1 0x84 SWAP1 REVERT JUMPDEST PUSH1 0x0 NOT DUP2 EQ PUSH2 0x1990 JUMPI PUSH1 0x1 ADD SWAP1 JUMP JUMPDEST SWAP2 SWAP1 DUP2 LT ISZERO PUSH2 0x1890 JUMPI PUSH1 0x5 SHL ADD SWAP1 JUMP JUMPDEST CALLDATALOAD DUP1 ISZERO ISZERO DUP2 SUB PUSH2 0x183A JUMPI SWAP1 JUMP JUMPDEST CALLDATALOAD PUSH1 0x1 PUSH1 0x1 PUSH1 0xA0 SHL SUB DUP2 AND DUP2 SUB PUSH2 0x183A JUMPI SWAP1 JUMP JUMPDEST SWAP1 DUP2 PUSH1 0x20 SWAP2 SUB SLT PUSH2 0x183A JUMPI MLOAD DUP1 ISZERO ISZERO DUP2 SUB PUSH2 0x183A JUMPI SWAP1 JUMP JUMPDEST PUSH1 0x7 SLOAD PUSH1 0x8 SHR PUSH1 0x1 PUSH1 0x1 PUSH1 0xA0 SHL SUB SWAP1 DUP2 AND SWAP2 SWAP1 DUP3 ISZERO PUSH2 0x1B71 JUMPI PUSH1 0x24 PUSH1 0x20 SWAP3 PUSH1 0x40 MLOAD SWAP5 DUP6 SWAP4 DUP5 SWAP3 PUSH4 0xB9209E33 PUSH1 0xE0 SHL DUP5 MSTORE AND PUSH1 0x4 DUP4 ADD MSTORE GAS STATICCALL SWAP1 DUP2 ISZERO PUSH2 0x1B65 JUMPI PUSH1 0x0 SWAP2 PUSH2 0x1B4A JUMPI POP SWAP1 JUMP JUMPDEST PUSH2 0x1B62 SWAP2 POP PUSH1 0x20 RETURNDATASIZE DUP2 GT PUSH2 0x144C JUMPI PUSH2 0x1440 DUP2 DUP4 PUSH2 0x1961 JUMP JUMPDEST SWAP1 JUMP JUMPDEST PUSH1 0x40 MLOAD RETURNDATASIZE PUSH1 0x0 DUP3 RETURNDATACOPY RETURNDATASIZE SWAP1 REVERT JUMPDEST POP POP POP PUSH1 0x1 SWAP1 JUMP JUMPDEST SWAP2 SWAP1 PUSH2 0x1B84 DUP4 PUSH2 0x1B00 JUMP JUMPDEST ISZERO PUSH2 0x1C77 JUMPI PUSH2 0x1B92 DUP2 PUSH2 0x1B00 JUMP JUMPDEST ISZERO PUSH2 0x1C77 JUMPI PUSH1 0x1 PUSH1 0x1 PUSH1 0xA0 SHL SUB SWAP3 DUP4 AND SWAP1 DUP4 SWAP1 DUP3 ISZERO PUSH2 0x1C4E JUMPI JUMPDEST AND PUSH1 0x0 SWAP4 DUP2 DUP6 MSTORE DUP5 PUSH1 0x20 MSTORE PUSH2 0x1BC5 DUP5 PUSH1 0x40 DUP8 KECCAK256 SLOAD PUSH2 0x1983 JUMP JUMPDEST PUSH1 0xC SLOAD LT PUSH2 0x1C3C JUMPI DUP2 DUP6 MSTORE DUP5 PUSH1 0x20 MSTORE PUSH1 0x40 DUP6 KECCAK256 SLOAD ISZERO DUP1 PUSH2 0x1C43 JUMPI JUMPDEST PUSH2 0x1C3C JUMPI PUSH1 0x8 SLOAD AND DUP1 PUSH2 0x1BF7 JUMPI POP POP POP POP POP PUSH1 0x1 SWAP1 JUMP JUMPDEST PUSH1 0x20 SWAP3 PUSH1 0x64 SWAP2 PUSH1 0x40 MLOAD SWAP6 DUP7 SWAP5 DUP6 SWAP4 PUSH4 0x72331C73 PUSH1 0xE1 SHL DUP6 MSTORE PUSH1 0x4 DUP6 ADD MSTORE PUSH1 0x24 DUP5 ADD MSTORE PUSH1 0x44 DUP4 ADD MSTORE GAS STATICCALL SWAP2 DUP3 ISZERO PUSH2 0x1C30 JUMPI SWAP2 PUSH2 0x1B4A JUMPI POP SWAP1 JUMP JUMPDEST PUSH1 0x40 MLOAD SWAP1 RETURNDATASIZE SWAP1 DUP3 RETURNDATACOPY RETURNDATASIZE SWAP1 REVERT JUMPDEST POP POP POP POP SWAP1 JUMP JUMPDEST POP PUSH1 0xD SLOAD DUP5 LT PUSH2 0x1BE0 JUMP JUMPDEST SWAP1 DUP2 AND PUSH1 0x0 MSTORE PUSH1 0xB PUSH1 0x20 MSTORE PUSH1 0xFF PUSH1 0x40 PUSH1 0x0 KECCAK256 SLOAD AND ISZERO PUSH2 0x1C6E JUMPI DUP4 SWAP1 PUSH2 0x1BAC JUMP JUMPDEST POP POP POP POP PUSH1 0x0 SWAP1 JUMP JUMPDEST POP POP POP PUSH1 0x0 SWAP1 JUMP JUMPDEST PUSH1 0x2 PUSH1 0x6 SLOAD EQ PUSH2 0x1C90 JUMPI PUSH1 0x2 PUSH1 0x6 SSTORE JUMP JUMPDEST PUSH1 0x40 MLOAD PUSH3 0x461BCD PUSH1 0xE5 SHL DUP2 MSTORE PUSH1 0x20 PUSH1 0x4 DUP3 ADD MSTORE PUSH1 0x1F PUSH1 0x24 DUP3 ADD MSTORE PUSH32 0x5265656E7472616E637947756172643A207265656E7472616E742063616C6C00 PUSH1 0x44 DUP3 ADD MSTORE PUSH1 0x64 SWAP1 REVERT JUMPDEST PUSH1 0x1 PUSH1 0x1 PUSH1 0xA0 SHL SUB AND SWAP1 DUP2 ISZERO PUSH2 0x1D33 JUMPI PUSH32 0xDDF252AD1BE2C89B69C2B068FC378DAA952BA7F163C4A11628F55A4DF523B3EF PUSH1 0x20 DUP3 PUSH2 0x1D17 PUSH1 0x0 SWAP5 PUSH1 0x2 SLOAD PUSH2 0x1983 JUMP JUMPDEST PUSH1 0x2 SSTORE DUP5 DUP5 MSTORE DUP4 DUP3 MSTORE PUSH1 0x40 DUP5 KECCAK256 DUP2 DUP2 SLOAD ADD SWAP1 SSTORE PUSH1 0x40 MLOAD SWAP1 DUP2 MSTORE LOG3 JUMP JUMPDEST PUSH1 0x40 MLOAD PUSH3 0x461BCD PUSH1 0xE5 SHL DUP2 MSTORE PUSH1 0x20 PUSH1 0x4 DUP3 ADD MSTORE PUSH1 0x1F PUSH1 0x24 DUP3 ADD MSTORE PUSH32 0x45524332303A206D696E7420746F20746865207A65726F206164647265737300 PUSH1 0x44 DUP3 ADD MSTORE PUSH1 0x64 SWAP1 REVERT JUMPDEST PUSH1 0x1 PUSH1 0x1 PUSH1 0xA0 SHL SUB SWAP1 DUP2 AND SWAP2 DUP3 ISZERO PUSH2 0x1E93 JUMPI AND SWAP2 DUP3 ISZERO PUSH2 0x1E42 JUMPI PUSH1 0x0 DUP3 DUP2 MSTORE DUP1 PUSH1 0x20 MSTORE PUSH1 0x40 DUP2 KECCAK256 SLOAD SWAP2 DUP1 DUP4 LT PUSH2 0x1DEE JUMPI PUSH1 0x40 DUP3 DUP3 PUSH32 0xDDF252AD1BE2C89B69C2B068FC378DAA952BA7F163C4A11628F55A4DF523B3EF SWAP6 DUP8 PUSH1 0x20 SWAP7 MSTORE DUP3 DUP7 MSTORE SUB DUP3 DUP3 KECCAK256 SSTORE DUP7 DUP2 MSTORE KECCAK256 DUP2 DUP2 SLOAD ADD SWAP1 SSTORE PUSH1 0x40 MLOAD SWAP1 DUP2 MSTORE LOG3 JUMP JUMPDEST PUSH1 0x40 MLOAD PUSH3 0x461BCD PUSH1 0xE5 SHL DUP2 MSTORE PUSH1 0x20 PUSH1 0x4 DUP3 ADD MSTORE PUSH1 0x26 PUSH1 0x24 DUP3 ADD MSTORE PUSH32 0x45524332303A207472616E7366657220616D6F756E7420657863656564732062 PUSH1 0x44 DUP3 ADD MSTORE PUSH6 0x616C616E6365 PUSH1 0xD0 SHL PUSH1 0x64 DUP3 ADD MSTORE PUSH1 0x84 SWAP1 REVERT JUMPDEST PUSH1 0x40 MLOAD PUSH3 0x461BCD PUSH1 0xE5 SHL DUP2 MSTORE PUSH1 0x20 PUSH1 0x4 DUP3 ADD MSTORE PUSH1 0x23 PUSH1 0x24 DUP3 ADD MSTORE PUSH32 0x45524332303A207472616E7366657220746F20746865207A65726F2061646472 PUSH1 0x44 DUP3 ADD MSTORE PUSH3 0x657373 PUSH1 0xE8 SHL PUSH1 0x64 DUP3 ADD MSTORE PUSH1 0x84 SWAP1 REVERT JUMPDEST PUSH1 0x40 MLOAD PUSH3 0x461BCD PUSH1 0xE5 SHL DUP2 MSTORE PUSH1 0x20 PUSH1 0x4 DUP3 ADD MSTORE PUSH1 0x25 PUSH1 0x24 DUP3 ADD MSTORE PUSH32 0x45524332303A207472616E736665722066726F6D20746865207A65726F206164 PUSH1 0x44 DUP3 ADD MSTORE PUSH5 0x6472657373 PUSH1 0xD8 SHL PUSH1 0x64 DUP3 ADD MSTORE PUSH1 0x84 SWAP1 REVERT JUMPDEST PUSH1 0xFF PUSH1 0x7 SLOAD AND PUSH2 0x1EF2 JUMPI JUMP JUMPDEST PUSH1 0x40 MLOAD PUSH3 0x461BCD PUSH1 0xE5 SHL DUP2 MSTORE PUSH1 0x20 PUSH1 0x4 DUP3 ADD MSTORE PUSH1 0x10 PUSH1 0x24 DUP3 ADD MSTORE PUSH16 0x14185D5CD8589B194E881C185D5CD959 PUSH1 0x82 SHL PUSH1 0x44 DUP3 ADD MSTORE PUSH1 0x64 SWAP1 REVERT INVALID LOG2 PUSH5 0x6970667358 0x22 SLT KECCAK256 0xCB 0xE0 AND 0xDE 0x26 PUSH21 0x6FE4E6D0E8FF7E8C5E468833F7B278E4CEC4B2DF4A SUB PUSH1 0x27 0xBA SMOD PUSH5 0x736F6C6343 STOP ADDMOD SGT STOP CALLER "},"methodIdentifiers":{"accreditedInvestors(address)":"a0eb24b5","allowance(address,address)":"dd62ed3e","approve(address,uint256)":"095ea7b3","balanceOf(address)":"70a08231","batchSetAccreditedInvestors(address[],bool[])":"d3b9e7dc","burn(uint256)":"42966c68","canTransfer(address,address,uint256)":"e46638e6","compliance()":"6290865d","decimals()":"313ce567","decreaseAllowance(address,uint256)":"a457c2d7","getLockedAmount(uint256)":"fcb40fd4","getStartupTranches(uint256)":"266bf935","identityRegistry()":"134e18f4","increaseAllowance(address,uint256)":"39509351","isIdentityVerified(address)":"f63ac762","lockTranche(uint256,uint256,bytes32,address)":"0936c3d3","maxHoldingPerAddress()":"ea512cbd","minInvestmentAmount()":"4d298a07","mint(address,uint256)":"40c10f19","name()":"06fdde03","owner()":"8da5cb5b","pause()":"8456cb59","paused()":"5c975abb","recoverERC20(address,address,uint256)":"1171bda9","releaseTranche(uint256,uint256,bytes)":"c692516a","renounceOwnership()":"715018a6","setAccreditedInvestor(address,bool)":"591aa483","setCompliance(address)":"f8981789","setIdentityRegistry(address)":"cbf3f861","setMaxHolding(uint256)":"9bc7c8c0","setMinInvestment(uint256)":"ba7ed2ff","startupTranches(uint256,uint256)":"72110f71","symbol()":"95d89b41","totalSupply()":"18160ddd","transfer(address,uint256)":"a9059cbb","transferFrom(address,address,uint256)":"23b872dd","transferOwnership(address)":"f2fde38b","unpause()":"3f4ba83a","verifiedMilestones(bytes32)":"2db4c598"}}}}}