{"contracts/IdentityRegistry.sol":{"IdentityRegistry":{"abi":[{"inputs":[],"stateMutability":"nonpayable","type":"constructor"},{"anonymous":false,"inputs":[{"indexed":true,"internalType":"address","name":"wallet","type":"address"},{"indexed":false,"internalType":"uint256","name":"timestamp","type":"uint256"}],"name":"IdentityRestored","type":"event"},{"anonymous":false,"inputs":[{"indexed":true,"internalType":"address","name":"wallet","type":"address"},{"indexed":false,"internalType":"string","name":"reason","type":"string"},{"indexed":false,"internalType":"uint256","name":"timestamp","type":"uint256"}],"name":"IdentityRevoked","type":"event"},{"anonymous":false,"inputs":[{"indexed":true,"internalType":"address","name":"wallet","type":"address"},{"indexed":false,"internalType":"string","name":"entityName","type":"string"},{"indexed":false,"internalType":"uint8","name":"kycLevel","type":"uint8"},{"indexed":false,"internalType":"uint256","name":"timestamp","type":"uint256"}],"name":"InvestorRegistered","type":"event"},{"anonymous":false,"inputs":[{"indexed":true,"internalType":"address","name":"wallet","type":"address"},{"indexed":false,"internalType":"uint8","name":"oldLevel","type":"uint8"},{"indexed":false,"internalType":"uint8","name":"newLevel","type":"uint8"}],"name":"KycLevelUpdated","type":"event"},{"anonymous":false,"inputs":[{"indexed":true,"internalType":"address","name":"operator","type":"address"}],"name":"OperatorAdded","type":"event"},{"anonymous":false,"inputs":[{"indexed":true,"internalType":"address","name":"operator","type":"address"}],"name":"OperatorRemoved","type":"event"},{"anonymous":false,"inputs":[{"indexed":true,"internalType":"address","name":"tokenContract","type":"address"}],"name":"TokenContractSet","type":"event"},{"inputs":[{"internalType":"address","name":"op","type":"address"}],"name":"addOperator","outputs":[],"stateMutability":"nonpayable","type":"function"},{"inputs":[{"internalType":"address[]","name":"wallets","type":"address[]"},{"internalType":"string[]","name":"entityNames","type":"string[]"},{"internalType":"uint8[]","name":"kycLevels","type":"uint8[]"},{"internalType":"string","name":"kycProvider","type":"string"}],"name":"batchRegister","outputs":[],"stateMutability":"nonpayable","type":"function"},{"inputs":[{"internalType":"address","name":"wallet","type":"address"}],"name":"getIdentity","outputs":[{"components":[{"internalType":"address","name":"wallet","type":"address"},{"internalType":"uint8","name":"kycLevel","type":"uint8"},{"internalType":"string","name":"entityName","type":"string"},{"internalType":"string","name":"kycProvider","type":"string"},{"internalType":"bool","name":"isActive","type":"bool"},{"internalType":"uint256","name":"registeredAt","type":"uint256"},{"internalType":"uint256","name":"lastUpdated","type":"uint256"}],"internalType":"struct IdentityRegistry.Identity","name":"","type":"tuple"}],"stateMutability":"view","type":"function"},{"inputs":[],"name":"getRegisteredWallets","outputs":[{"internalType":"address[]","name":"","type":"address[]"}],"stateMutability":"view","type":"function"},{"inputs":[{"internalType":"address","name":"wallet","type":"address"}],"name":"isVerified","outputs":[{"internalType":"bool","name":"","type":"bool"}],"stateMutability":"view","type":"function"},{"inputs":[],"name":"kycLevelCounts","outputs":[{"internalType":"uint256","name":"retail","type":"uint256"},{"internalType":"uint256","name":"accredited","type":"uint256"},{"internalType":"uint256","name":"institutional","type":"uint256"},{"internalType":"uint256","name":"revoked","type":"uint256"}],"stateMutability":"view","type":"function"},{"inputs":[{"internalType":"address","name":"wallet","type":"address"}],"name":"kycLevelLabel","outputs":[{"internalType":"string","name":"","type":"string"}],"stateMutability":"view","type":"function"},{"inputs":[{"internalType":"address","name":"wallet","type":"address"},{"internalType":"uint8","name":"minLevel","type":"uint8"}],"name":"meetsKycLevel","outputs":[{"internalType":"bool","name":"","type":"bool"}],"stateMutability":"view","type":"function"},{"inputs":[{"internalType":"address","name":"","type":"address"}],"name":"operators","outputs":[{"internalType":"bool","name":"","type":"bool"}],"stateMutability":"view","type":"function"},{"inputs":[],"name":"owner","outputs":[{"internalType":"address","name":"","type":"address"}],"stateMutability":"view","type":"function"},{"inputs":[{"internalType":"address","name":"wallet","type":"address"},{"internalType":"string","name":"entityName","type":"string"},{"internalType":"uint8","name":"kycLevel","type":"uint8"},{"internalType":"string","name":"kycProvider","type":"string"}],"name":"registerInvestor","outputs":[],"stateMutability":"nonpayable","type":"function"},{"inputs":[{"internalType":"address","name":"op","type":"address"}],"name":"removeOperator","outputs":[],"stateMutability":"nonpayable","type":"function"},{"inputs":[{"internalType":"address","name":"wallet","type":"address"}],"name":"restoreIdentity","outputs":[],"stateMutability":"nonpayable","type":"function"},{"inputs":[{"internalType":"address","name":"wallet","type":"address"},{"internalType":"string","name":"reason","type":"string"}],"name":"revokeIdentity","outputs":[],"stateMutability":"nonpayable","type":"function"},{"inputs":[{"internalType":"address","name":"token","type":"address"}],"name":"setTokenContract","outputs":[],"stateMutability":"nonpayable","type":"function"},{"inputs":[],"name":"tokenContract","outputs":[{"internalType":"address","name":"","type":"address"}],"stateMutability":"view","type":"function"},{"inputs":[],"name":"totalActive","outputs":[{"internalType":"uint256","name":"","type":"uint256"}],"stateMutability":"view","type":"function"},{"inputs":[],"name":"totalRegistered","outputs":[{"internalType":"uint256","name":"","type":"uint256"}],"stateMutability":"view","type":"function"},{"inputs":[{"internalType":"address","name":"wallet","type":"address"},{"internalType":"uint8","name":"newLevel","type":"uint8"}],"name":"updateKycLevel","outputs":[],"stateMutability":"nonpayable","type":"function"}],"evm":{"bytecode":{"linkReferences":{},"object":"6080806040523461004057600080546001600160a01b0319163390811782558152600560205260409020805460ff19166001179055611cda90816100468239f35b600080fdfe608080604052600436101561001357600080fd5b60003560e01c90816313e7c9d8146115d25750806326fc759c146115355780632fea7b81146113e9578063409c0f76146112f75780634ea69df014610c6457806355a373d614610c3b5780635775960014610bbb578063736b776f14610abd5780637d23e857146109f55780638628353f146109b95780638da5cb5b146109905780638fcd719414610964578063927416c0146109465780639870d7fe146108d2578063ac8a584a14610861578063b9209e3314610834578063bbcd5bbe146107c0578063d94a1e9f146102435763ddf143a9146100f057600080fd5b3461023e57604036600319011261023e5761010961160d565b6101116116c0565b60005490916001600160a01b0391821633148015610225575b610133906116d0565b169081600052600460205261014f60ff60406000205416611a1c565b60ff811660018110158061021a575b156101c95760008381526002602052604090819020805460ff60a01b19811660a095861b60ff60a01b161782557faea5ec10a4d30752bbdb7e7b8b66399549c8373eaed3fe4f24a0485971c36a18949293921c60ff16919060054291015582519182526020820152a2005b60405162461bcd60e51b815260206004820152602360248201527f4964656e7469747952656769737472793a20696e76616c6964204b5943206c656044820152621d995b60ea1b6064820152608490fd5b50600381111561015e565b503360009081526005602052604090205460ff1661012a565b600080fd5b3461023e57608036600319011261023e5761025c61160d565b6024356001600160401b03811161023e5761027b903690600401611663565b60ff6044351692836044350361023e576064356001600160401b03811161023e576102aa903690600401611663565b92909460018060a01b03938460005416331480156107a7575b6102cc906116d0565b8484161561076257600182101580610757575b1561070057848416600052600460205260ff60406000205416610695576103326040519761030c8961172e565b86861689526020890193845261032336868a611785565b9260408a019384523691611785565b6060880152600160808801524260a08801524260c0880152848416600052600260205261039860ff604060002093878a51166bffffffffffffffffffffffff60a01b8654161785555116839081549060ff60a01b9060a01b169060ff60a01b1916179055565b518051906001600160401b0382116105af5781906103b960018501546117cb565b601f8111610642575b50602090601f83116001146105d0576000926105c5575b50508160011b916000199060031b1c19161760018201555b60608601519586516001600160401b0381116105af5761041460028401546117cb565b601f8111610568575b506020601f82116001146104df576104cf9493928260059360c093600080516020611c858339815191529b9c6000926104d4575b50508160011b916000199060031b1c19161760028501555b61048860808201511515600386019060ff801983541691151516179055565b60a0810151600485015501519101556104a083611852565b83831660005260046020526040600020600160ff198254161790556040519384931695429160443591856118b5565b0390a2005b015190508c80610451565b6002840160005260206000209860005b601f1984168110610550575092600183600080516020611c858339815191529a9b60c0946104cf999897600597601f19811610610537575b505050811b016002850155610469565b015160001960f88460031b161c191690558c8080610527565b828201518b556001909a0199602092830192016104ef565b600284016000526020600020601f830160051c8101602084106105a8575b601f830160051c8201811061059c57505061041d565b60008155600101610586565b5080610586565b634e487b7160e01b600052604160045260246000fd5b0151905088806103d9565b9250600184016000526020600020906000935b601f1984168510610627576001945083601f1981161061060e575b505050811b0160018201556103f1565b015160001960f88460031b161c191690558880806105fe565b818101518355602094850194600190930192909101906105e3565b909150600184016000526020600020601f840160051c81016020851061068e575b90849392915b601f830160051c8201811061067f5750506103c2565b60008155859450600101610669565b5080610663565b60405162461bcd60e51b815260206004820152603860248201527f4964656e7469747952656769737472793a20616c72656164792072656769737460448201527f657265642c20757365207570646174654b79634c6576656c00000000000000006064820152608490fd5b60405162461bcd60e51b815260206004820152602960248201527f4964656e7469747952656769737472793a20696e76616c6964204b5943206c6560448201526876656c2028312d332960b81b6064820152608490fd5b5060038211156102df565b60405162461bcd60e51b815260206004820152601e60248201527f4964656e7469747952656769737472793a207a65726f206164647265737300006044820152606490fd5b503360009081526005602052604090205460ff166102c3565b3461023e57602036600319011261023e576107d961160d565b6000546001600160a01b0391906107f39083163314611c38565b16806bffffffffffffffffffffffff60a01b60015416176001557f9b64004f1a50e51d3c2809b6a8efbae432bfa889e0b4bf67f75e7db8ca816dba600080a2005b3461023e57602036600319011261023e57602061085761085261160d565b611974565b6040519015158152f35b3461023e57602036600319011261023e5761087a61160d565b6000546001600160a01b0391906108949083163314611c38565b16806000526005602052604060002060ff1981541690557f80c0b871b97b595b16a7741c1b06fed0c6f6f558639f18ccbce50724325dc40d600080a2005b3461023e57602036600319011261023e576108eb61160d565b6000546001600160a01b0391906109059083163314611c38565b168060005260056020526040600020600160ff198254161790557fac6fa858e9350a46cec16539926e0fde25b7629f84b5a72bffaae4df888ae86d600080a2005b3461023e57600036600319011261023e576020600354604051908152f35b3461023e57604036600319011261023e57602061085761098261160d565b61098a6116c0565b906119c6565b3461023e57600036600319011261023e576000546040516001600160a01b039091168152602090f35b3461023e57602036600319011261023e576109f16109dd6109d861160d565b611b1e565b604051918291602083526020830190611623565b0390f35b3461023e57600036600319011261023e57604051806003548083526020809301809160036000527fc2575a0e9e593c00f959f8c92f12db2869c3395a3b0502d05e2516446f71f85b9060005b86828210610aa0578686610a5782880383611764565b604051928392818401908285525180915260408401929160005b828110610a8057505050500390f35b83516001600160a01b031685528695509381019392810192600101610a71565b83546001600160a01b031685529093019260019283019201610a41565b3461023e57600036600319011261023e576000806000806000936003948554955b868210610b0257505060809450604051938452602084015260408301526060820152f35b9094610b0d86611805565b60018060a01b03915490841b1c16600052600280602052604060002060ff9081858201541615610ba4575460a01c169060018203610b5f575050610b53610b59916118dc565b956118dc565b90610ade565b919693918103610b7c5750610b76610b59916118dc565b926118dc565b9092908214610b8f575b610b59906118dc565b92610b9c610b59916118dc565b939050610b86565b5050509493610bb5610b59916118dc565b946118dc565b3461023e57600036600319011261023e5760008060038054915b828110610be757602084604051908152f35b610bf081611805565b905490831b1c6001600160a01b0316600090815260026020526040902082015460ff16610c26575b610c21906118dc565b610bd5565b92610c33610c21916118dc565b939050610c18565b3461023e57600036600319011261023e576001546040516001600160a01b039091168152602090f35b3461023e57608036600319011261023e576004356001600160401b03811161023e57610c94903690600401611690565b906024356001600160401b03811161023e57610cb4903690600401611690565b90926044356001600160401b03811161023e57610cd5903690600401611690565b9290916064356001600160401b03811161023e57610cf7903690600401611663565b6000549196916001600160a01b0316331480156112de575b610d18906116d0565b838314806112d5575b156112805760005b838110610d3257005b85906001600160a01b03610d4f610d4a838888611901565b611911565b16600052600460205260ff604060002054168015611262575b61125857898689878760ff610d86610d8188868b611901565b611925565b1615801561123e575b61122f5792610db7610d8187610dbd95610db1610d4a838098610de59b611901565b9a611901565b94611933565b60405195610dca8761172e565b60018060a01b0316865260ff60208701941684523691611785565b60408401908152610df736868d611785565b6060850152600160808501524260a0850181905260c08501526001600160a01b03610e26610d4a858a8a611901565b1660009081526002602052604090208451815493516001600160a81b03199094166001600160a01b03919091161760a09390931b60ff60a01b16929092178255518051906001600160401b0382116105af578190610e8760018501546117cb565b601f81116111dc575b50602090601f831160011461116a5760009261115f575b50508160011b916000199060031b1c19161760018201555b6060830151908151936001600160401b0385116105af578787838f94938d988f97610eee8f97600201546117cb565b601f81116110dc575b50602090601f8311600114611016576110069b97610fd4610d4a8d600080516020611c858339815191529c9a610ffe9a610fe29a600560c0610d819c8c879d610fda9d899d60009261100b575b50508160011b916000199060031b1c19161760028501555b610f7b60808201511515600386019060ff801983541691151516179055565b60a081015160048501550151910155610fa0610f9b610d4a858585611901565b611852565b6001600160a01b03610fb6610d4a858585611901565b1660005260046020526040600020600160ff19825416179055611901565b97611933565b989096611901565b6040516001600160a01b039093169592938493429291856118b5565b0390a26118dc565b610d29565b015190503880610f44565b906002859c9998979c0160005260206000209160005b601f19851681106110a7575096610fd4610d4a8d6110069f610ffe9a610fe29a600080516020611c858339815191529f9e9d60c0610d819c60018d610fda9d899f9d6005968b9f601f1981161061108e575b505050811b016002850155610f5c565b015160001960f88460031b161c1916905538808061107e565b965094995095506020929750829196999a506001908685015181550194019201948b9897948f9792948f97948f968e9661102c565b945094509450949697509450600285016000526020600020601f840160051c810160208510611158575b948c948f9792948f9a9997948e968e965b601f830160051c8201811061112d575050610ef7565b93985094995094509450600191969899506000815501948c948f9792948f9a9997948e968e96611117565b5080611106565b015190508d80610ea7565b9250600184016000526020600020906000935b601f19841685106111c1576001945083601f198116106111a8575b505050811b016001820155610ebf565b015160001960f88460031b161c191690558d8080611198565b8181015183556020948501946001909301929091019061117d565b909150600184016000526020600020601f840160051c810160208510611228575b90849392915b601f830160051c82018110611219575050610e90565b60008155859450600101611203565b50806111fd565b505050505061100691506118dc565b50600360ff611251610d8189878c611901565b1611610d8f565b61100691506118dc565b506001600160a01b03611279610d4a838888611901565b1615610d68565b60405162461bcd60e51b815260206004820152602760248201527f4964656e7469747952656769737472793a206172726179206c656e677468206d6044820152660d2e6dac2e8c6d60cb1b6064820152608490fd5b50858314610d21565b503360009081526005602052604090205460ff16610d0f565b3461023e57604036600319011261023e5761131061160d565b6024356001600160401b03811161023e576113507f5da6e2d39aaac16f62ec221477fb1318d493e476af275a04635c74191caded5f913690600401611663565b60005490936001600160a01b03918216331480156113d0575b611372906116d0565b169283600052600460205261138e60ff60406000205416611a1c565b83600052600260205260406000206003810160ff1981541690556005429101556113c5604051928392604084526040840191611894565b4260208301520390a2005b503360009081526005602052604090205460ff16611369565b3461023e5760208060031936011261023e5761140361160d565b90600060c06040516114148161172e565b8281528284820152606060408201526060808201528260808201528260a0820152015260018060a01b03809216806000526004825261145a60ff60406000205416611a1c565b600052600281526040600020604051916114738361172e565b815491848316845260ff8285019360a01c16835261151c61149660018301611a78565b604086019081526115096114ac60028501611a78565b916060880192835260ff806003870154169760808a019815158952600560048801549760a08c0198895201549760c08b019889526040519b8c9b828d525116908b0152511660408901525160e06060890152610100880190611623565b9051868203601f19016080880152611623565b9251151560a08501525160c08401525160e08301520390f35b3461023e57602036600319011261023e5761154e61160d565b6000546001600160a01b0391906115689083163314611c38565b1680600052600460205261158360ff60406000205416611a1c565b806000526002602052604060002060038101600160ff198254161790556005429101557f567571bc4346d5c6665266bee44f8aa227030e6fbb57762a6cc6787ee01505e16020604051428152a2005b3461023e57602036600319011261023e576020906001600160a01b036115f661160d565b166000526005825260ff6040600020541615158152f35b600435906001600160a01b038216820361023e57565b919082519283825260005b84811061164f575050826000602080949584010152601f8019910116010190565b60208183018101518483018201520161162e565b9181601f8401121561023e578235916001600160401b03831161023e576020838186019501011161023e57565b9181601f8401121561023e578235916001600160401b03831161023e576020808501948460051b01011161023e57565b6024359060ff8216820361023e57565b156116d757565b60405162461bcd60e51b815260206004820152602960248201527f4964656e7469747952656769737472793a206e6f7420617574686f72697365646044820152681037b832b930ba37b960b91b6064820152608490fd5b60e081019081106001600160401b038211176105af57604052565b604081019081106001600160401b038211176105af57604052565b90601f801991011681019081106001600160401b038211176105af57604052565b9291926001600160401b0382116105af57604051916117ae601f8201601f191660200184611764565b82948184528183011161023e578281602093846000960137010152565b90600182811c921680156117fb575b60208310146117e557565b634e487b7160e01b600052602260045260246000fd5b91607f16916117da565b60035481101561183c5760036000527fc2575a0e9e593c00f959f8c92f12db2869c3395a3b0502d05e2516446f71f85b0190600090565b634e487b7160e01b600052603260045260246000fd5b600354680100000000000000008110156105af578060016118769201600355611805565b819291549060031b9160018060a01b03809116831b921b1916179055565b908060209392818452848401376000828201840152601f01601f1916010190565b906118d160ff9160409497969597606085526060850191611894565b951660208201520152565b60001981146118eb5760010190565b634e487b7160e01b600052601160045260246000fd5b919081101561183c5760051b0190565b356001600160a01b038116810361023e5790565b3560ff8116810361023e5790565b919081101561183c5760051b81013590601e198136030182121561023e5701908135916001600160401b03831161023e57602001823603811361023e579190565b6001600160a01b031660009081526004602052604090205460ff16156119c1576002602052604060002060ff60038201541690816119b0575090565b6001915060ff905460a01c16101590565b600090565b6001600160a01b031660009081526004602052604090205460ff1615611a1657600260205260406000209060ff6003830154169182611a0457505090565b5460a01c60ff90811691161115919050565b50600090565b15611a2357565b60405162461bcd60e51b815260206004820152602760248201527f4964656e7469747952656769737472793a2077616c6c6574206e6f74207265676044820152661a5cdd195c995960ca1b6064820152608490fd5b9060405191826000825492611a8c846117cb565b908184526001948581169081600014611afb5750600114611ab8575b5050611ab692500383611764565b565b9093915060005260209081600020936000915b818310611ae3575050611ab693508201013880611aa8565b85548884018501529485019487945091830191611acb565b915050611ab694506020925060ff191682840152151560051b8201013880611aa8565b60018060a01b0316806000526020906004825260409060ff82600020541615611c1d57600052600282528060002060ff600381835460a01c169201541615611c055760018114611be45760028114611bbf57600314611b9857662aa725a727aba760c91b905191611b8e83611749565b6007835282015290565b6c125394d5125515551253d39053609a1b905191611bb583611749565b600d835282015290565b50691050d0d491511255115160b21b905191611bda83611749565b600a835282015290565b506514915510525360d21b905191611bfb83611749565b6006835282015290565b506614915593d2d15160ca1b905191611b8e83611749565b50691553959154925192515160b21b905191611bda83611749565b15611c3f57565b60405162461bcd60e51b815260206004820152601b60248201527f4964656e7469747952656769737472793a206e6f74206f776e657200000000006044820152606490fdfecbce422c6b6427cc0e9730c4131e9a7b907e0803d4b40ab8f797841b9053ca76a2646970667358221220d7d15c88c94c6edac47702b578bddfbd1979d972ccc32470235bbcab572b7b1464736f6c63430008130033","opcodes":"PUSH1 0x80 DUP1 PUSH1 0x40 MSTORE CALLVALUE PUSH2 0x40 JUMPI PUSH1 0x0 DUP1 SLOAD PUSH1 0x1 PUSH1 0x1 PUSH1 0xA0 SHL SUB NOT AND CALLER SWAP1 DUP2 OR DUP3 SSTORE DUP2 MSTORE PUSH1 0x5 PUSH1 0x20 MSTORE PUSH1 0x40 SWAP1 KECCAK256 DUP1 SLOAD PUSH1 0xFF NOT AND PUSH1 0x1 OR SWAP1 SSTORE PUSH2 0x1CDA SWAP1 DUP2 PUSH2 0x46 DUP3 CODECOPY RETURN JUMPDEST PUSH1 0x0 DUP1 REVERT INVALID PUSH1 0x80 DUP1 PUSH1 0x40 MSTORE PUSH1 0x4 CALLDATASIZE LT ISZERO PUSH2 0x13 JUMPI PUSH1 0x0 DUP1 REVERT JUMPDEST PUSH1 0x0 CALLDATALOAD PUSH1 0xE0 SHR SWAP1 DUP2 PUSH4 0x13E7C9D8 EQ PUSH2 0x15D2 JUMPI POP DUP1 PUSH4 0x26FC759C EQ PUSH2 0x1535 JUMPI DUP1 PUSH4 0x2FEA7B81 EQ PUSH2 0x13E9 JUMPI DUP1 PUSH4 0x409C0F76 EQ PUSH2 0x12F7 JUMPI DUP1 PUSH4 0x4EA69DF0 EQ PUSH2 0xC64 JUMPI DUP1 PUSH4 0x55A373D6 EQ PUSH2 0xC3B JUMPI DUP1 PUSH4 0x57759600 EQ PUSH2 0xBBB JUMPI DUP1 PUSH4 0x736B776F EQ PUSH2 0xABD JUMPI DUP1 PUSH4 0x7D23E857 EQ PUSH2 0x9F5 JUMPI DUP1 PUSH4 0x8628353F EQ PUSH2 0x9B9 JUMPI DUP1 PUSH4 0x8DA5CB5B EQ PUSH2 0x990 JUMPI DUP1 PUSH4 0x8FCD7194 EQ PUSH2 0x964 JUMPI DUP1 PUSH4 0x927416C0 EQ PUSH2 0x946 JUMPI DUP1 PUSH4 0x9870D7FE EQ PUSH2 0x8D2 JUMPI DUP1 PUSH4 0xAC8A584A EQ PUSH2 0x861 JUMPI DUP1 PUSH4 0xB9209E33 EQ PUSH2 0x834 JUMPI DUP1 PUSH4 0xBBCD5BBE EQ PUSH2 0x7C0 JUMPI DUP1 PUSH4 0xD94A1E9F EQ PUSH2 0x243 JUMPI PUSH4 0xDDF143A9 EQ PUSH2 0xF0 JUMPI PUSH1 0x0 DUP1 REVERT JUMPDEST CALLVALUE PUSH2 0x23E JUMPI PUSH1 0x40 CALLDATASIZE PUSH1 0x3 NOT ADD SLT PUSH2 0x23E JUMPI PUSH2 0x109 PUSH2 0x160D JUMP JUMPDEST PUSH2 0x111 PUSH2 0x16C0 JUMP JUMPDEST PUSH1 0x0 SLOAD SWAP1 SWAP2 PUSH1 0x1 PUSH1 0x1 PUSH1 0xA0 SHL SUB SWAP2 DUP3 AND CALLER EQ DUP1 ISZERO PUSH2 0x225 JUMPI JUMPDEST PUSH2 0x133 SWAP1 PUSH2 0x16D0 JUMP JUMPDEST AND SWAP1 DUP2 PUSH1 0x0 MSTORE PUSH1 0x4 PUSH1 0x20 MSTORE PUSH2 0x14F PUSH1 0xFF PUSH1 0x40 PUSH1 0x0 KECCAK256 SLOAD AND PUSH2 0x1A1C JUMP JUMPDEST PUSH1 0xFF DUP2 AND PUSH1 0x1 DUP2 LT ISZERO DUP1 PUSH2 0x21A JUMPI JUMPDEST ISZERO PUSH2 0x1C9 JUMPI PUSH1 0x0 DUP4 DUP2 MSTORE PUSH1 0x2 PUSH1 0x20 MSTORE PUSH1 0x40 SWAP1 DUP2 SWAP1 KECCAK256 DUP1 SLOAD PUSH1 0xFF PUSH1 0xA0 SHL NOT DUP2 AND PUSH1 0xA0 SWAP6 DUP7 SHL PUSH1 0xFF PUSH1 0xA0 SHL AND OR DUP3 SSTORE PUSH32 0xAEA5EC10A4D30752BBDB7E7B8B66399549C8373EAED3FE4F24A0485971C36A18 SWAP5 SWAP3 SWAP4 SWAP3 SHR PUSH1 0xFF AND SWAP2 SWAP1 PUSH1 0x5 TIMESTAMP SWAP2 ADD SSTORE DUP3 MLOAD SWAP2 DUP3 MSTORE PUSH1 0x20 DUP3 ADD MSTORE LOG2 STOP JUMPDEST PUSH1 0x40 MLOAD PUSH3 0x461BCD PUSH1 0xE5 SHL DUP2 MSTORE PUSH1 0x20 PUSH1 0x4 DUP3 ADD MSTORE PUSH1 0x23 PUSH1 0x24 DUP3 ADD MSTORE PUSH32 0x4964656E7469747952656769737472793A20696E76616C6964204B5943206C65 PUSH1 0x44 DUP3 ADD MSTORE PUSH3 0x1D995B PUSH1 0xEA SHL PUSH1 0x64 DUP3 ADD MSTORE PUSH1 0x84 SWAP1 REVERT JUMPDEST POP PUSH1 0x3 DUP2 GT ISZERO PUSH2 0x15E JUMP JUMPDEST POP CALLER PUSH1 0x0 SWAP1 DUP2 MSTORE PUSH1 0x5 PUSH1 0x20 MSTORE PUSH1 0x40 SWAP1 KECCAK256 SLOAD PUSH1 0xFF AND PUSH2 0x12A JUMP JUMPDEST PUSH1 0x0 DUP1 REVERT JUMPDEST CALLVALUE PUSH2 0x23E JUMPI PUSH1 0x80 CALLDATASIZE PUSH1 0x3 NOT ADD SLT PUSH2 0x23E JUMPI PUSH2 0x25C PUSH2 0x160D JUMP JUMPDEST PUSH1 0x24 CALLDATALOAD PUSH1 0x1 PUSH1 0x1 PUSH1 0x40 SHL SUB DUP2 GT PUSH2 0x23E JUMPI PUSH2 0x27B SWAP1 CALLDATASIZE SWAP1 PUSH1 0x4 ADD PUSH2 0x1663 JUMP JUMPDEST PUSH1 0xFF PUSH1 0x44 CALLDATALOAD AND SWAP3 DUP4 PUSH1 0x44 CALLDATALOAD SUB PUSH2 0x23E JUMPI PUSH1 0x64 CALLDATALOAD PUSH1 0x1 PUSH1 0x1 PUSH1 0x40 SHL SUB DUP2 GT PUSH2 0x23E JUMPI PUSH2 0x2AA SWAP1 CALLDATASIZE SWAP1 PUSH1 0x4 ADD PUSH2 0x1663 JUMP JUMPDEST SWAP3 SWAP1 SWAP5 PUSH1 0x1 DUP1 PUSH1 0xA0 SHL SUB SWAP4 DUP5 PUSH1 0x0 SLOAD AND CALLER EQ DUP1 ISZERO PUSH2 0x7A7 JUMPI JUMPDEST PUSH2 0x2CC SWAP1 PUSH2 0x16D0 JUMP JUMPDEST DUP5 DUP5 AND ISZERO PUSH2 0x762 JUMPI PUSH1 0x1 DUP3 LT ISZERO DUP1 PUSH2 0x757 JUMPI JUMPDEST ISZERO PUSH2 0x700 JUMPI DUP5 DUP5 AND PUSH1 0x0 MSTORE PUSH1 0x4 PUSH1 0x20 MSTORE PUSH1 0xFF PUSH1 0x40 PUSH1 0x0 KECCAK256 SLOAD AND PUSH2 0x695 JUMPI PUSH2 0x332 PUSH1 0x40 MLOAD SWAP8 PUSH2 0x30C DUP10 PUSH2 0x172E JUMP JUMPDEST DUP7 DUP7 AND DUP10 MSTORE PUSH1 0x20 DUP10 ADD SWAP4 DUP5 MSTORE PUSH2 0x323 CALLDATASIZE DUP7 DUP11 PUSH2 0x1785 JUMP JUMPDEST SWAP3 PUSH1 0x40 DUP11 ADD SWAP4 DUP5 MSTORE CALLDATASIZE SWAP2 PUSH2 0x1785 JUMP JUMPDEST PUSH1 0x60 DUP9 ADD MSTORE PUSH1 0x1 PUSH1 0x80 DUP9 ADD MSTORE TIMESTAMP PUSH1 0xA0 DUP9 ADD MSTORE TIMESTAMP PUSH1 0xC0 DUP9 ADD MSTORE DUP5 DUP5 AND PUSH1 0x0 MSTORE PUSH1 0x2 PUSH1 0x20 MSTORE PUSH2 0x398 PUSH1 0xFF PUSH1 0x40 PUSH1 0x0 KECCAK256 SWAP4 DUP8 DUP11 MLOAD AND PUSH12 0xFFFFFFFFFFFFFFFFFFFFFFFF PUSH1 0xA0 SHL DUP7 SLOAD AND OR DUP6 SSTORE MLOAD AND DUP4 SWAP1 DUP2 SLOAD SWAP1 PUSH1 0xFF PUSH1 0xA0 SHL SWAP1 PUSH1 0xA0 SHL AND SWAP1 PUSH1 0xFF PUSH1 0xA0 SHL NOT AND OR SWAP1 SSTORE JUMP JUMPDEST MLOAD DUP1 MLOAD SWAP1 PUSH1 0x1 PUSH1 0x1 PUSH1 0x40 SHL SUB DUP3 GT PUSH2 0x5AF JUMPI DUP2 SWAP1 PUSH2 0x3B9 PUSH1 0x1 DUP6 ADD SLOAD PUSH2 0x17CB JUMP JUMPDEST PUSH1 0x1F DUP2 GT PUSH2 0x642 JUMPI JUMPDEST POP PUSH1 0x20 SWAP1 PUSH1 0x1F DUP4 GT PUSH1 0x1 EQ PUSH2 0x5D0 JUMPI PUSH1 0x0 SWAP3 PUSH2 0x5C5 JUMPI JUMPDEST POP POP DUP2 PUSH1 0x1 SHL SWAP2 PUSH1 0x0 NOT SWAP1 PUSH1 0x3 SHL SHR NOT AND OR PUSH1 0x1 DUP3 ADD SSTORE JUMPDEST PUSH1 0x60 DUP7 ADD MLOAD SWAP6 DUP7 MLOAD PUSH1 0x1 PUSH1 0x1 PUSH1 0x40 SHL SUB DUP2 GT PUSH2 0x5AF JUMPI PUSH2 0x414 PUSH1 0x2 DUP5 ADD SLOAD PUSH2 0x17CB JUMP JUMPDEST PUSH1 0x1F DUP2 GT PUSH2 0x568 JUMPI JUMPDEST POP PUSH1 0x20 PUSH1 0x1F DUP3 GT PUSH1 0x1 EQ PUSH2 0x4DF JUMPI PUSH2 0x4CF SWAP5 SWAP4 SWAP3 DUP3 PUSH1 0x5 SWAP4 PUSH1 0xC0 SWAP4 PUSH1 0x0 DUP1 MLOAD PUSH1 0x20 PUSH2 0x1C85 DUP4 CODECOPY DUP2 MLOAD SWAP2 MSTORE SWAP12 SWAP13 PUSH1 0x0 SWAP3 PUSH2 0x4D4 JUMPI JUMPDEST POP POP DUP2 PUSH1 0x1 SHL SWAP2 PUSH1 0x0 NOT SWAP1 PUSH1 0x3 SHL SHR NOT AND OR PUSH1 0x2 DUP6 ADD SSTORE JUMPDEST PUSH2 0x488 PUSH1 0x80 DUP3 ADD MLOAD ISZERO ISZERO PUSH1 0x3 DUP7 ADD SWAP1 PUSH1 0xFF DUP1 NOT DUP4 SLOAD AND SWAP2 ISZERO ISZERO AND OR SWAP1 SSTORE JUMP JUMPDEST PUSH1 0xA0 DUP2 ADD MLOAD PUSH1 0x4 DUP6 ADD SSTORE ADD MLOAD SWAP2 ADD SSTORE PUSH2 0x4A0 DUP4 PUSH2 0x1852 JUMP JUMPDEST DUP4 DUP4 AND PUSH1 0x0 MSTORE PUSH1 0x4 PUSH1 0x20 MSTORE PUSH1 0x40 PUSH1 0x0 KECCAK256 PUSH1 0x1 PUSH1 0xFF NOT DUP3 SLOAD AND OR SWAP1 SSTORE PUSH1 0x40 MLOAD SWAP4 DUP5 SWAP4 AND SWAP6 TIMESTAMP SWAP2 PUSH1 0x44 CALLDATALOAD SWAP2 DUP6 PUSH2 0x18B5 JUMP JUMPDEST SUB SWAP1 LOG2 STOP JUMPDEST ADD MLOAD SWAP1 POP DUP13 DUP1 PUSH2 0x451 JUMP JUMPDEST PUSH1 0x2 DUP5 ADD PUSH1 0x0 MSTORE PUSH1 0x20 PUSH1 0x0 KECCAK256 SWAP9 PUSH1 0x0 JUMPDEST PUSH1 0x1F NOT DUP5 AND DUP2 LT PUSH2 0x550 JUMPI POP SWAP3 PUSH1 0x1 DUP4 PUSH1 0x0 DUP1 MLOAD PUSH1 0x20 PUSH2 0x1C85 DUP4 CODECOPY DUP2 MLOAD SWAP2 MSTORE SWAP11 SWAP12 PUSH1 0xC0 SWAP5 PUSH2 0x4CF SWAP10 SWAP9 SWAP8 PUSH1 0x5 SWAP8 PUSH1 0x1F NOT DUP2 AND LT PUSH2 0x537 JUMPI JUMPDEST POP POP POP DUP2 SHL ADD PUSH1 0x2 DUP6 ADD SSTORE PUSH2 0x469 JUMP JUMPDEST ADD MLOAD PUSH1 0x0 NOT PUSH1 0xF8 DUP5 PUSH1 0x3 SHL AND SHR NOT AND SWAP1 SSTORE DUP13 DUP1 DUP1 PUSH2 0x527 JUMP JUMPDEST DUP3 DUP3 ADD MLOAD DUP12 SSTORE PUSH1 0x1 SWAP1 SWAP11 ADD SWAP10 PUSH1 0x20 SWAP3 DUP4 ADD SWAP3 ADD PUSH2 0x4EF JUMP JUMPDEST PUSH1 0x2 DUP5 ADD PUSH1 0x0 MSTORE PUSH1 0x20 PUSH1 0x0 KECCAK256 PUSH1 0x1F DUP4 ADD PUSH1 0x5 SHR DUP2 ADD PUSH1 0x20 DUP5 LT PUSH2 0x5A8 JUMPI JUMPDEST PUSH1 0x1F DUP4 ADD PUSH1 0x5 SHR DUP3 ADD DUP2 LT PUSH2 0x59C JUMPI POP POP PUSH2 0x41D JUMP JUMPDEST PUSH1 0x0 DUP2 SSTORE PUSH1 0x1 ADD PUSH2 0x586 JUMP JUMPDEST POP DUP1 PUSH2 0x586 JUMP JUMPDEST PUSH4 0x4E487B71 PUSH1 0xE0 SHL PUSH1 0x0 MSTORE PUSH1 0x41 PUSH1 0x4 MSTORE PUSH1 0x24 PUSH1 0x0 REVERT JUMPDEST ADD MLOAD SWAP1 POP DUP9 DUP1 PUSH2 0x3D9 JUMP JUMPDEST SWAP3 POP PUSH1 0x1 DUP5 ADD PUSH1 0x0 MSTORE PUSH1 0x20 PUSH1 0x0 KECCAK256 SWAP1 PUSH1 0x0 SWAP4 JUMPDEST PUSH1 0x1F NOT DUP5 AND DUP6 LT PUSH2 0x627 JUMPI PUSH1 0x1 SWAP5 POP DUP4 PUSH1 0x1F NOT DUP2 AND LT PUSH2 0x60E JUMPI JUMPDEST POP POP POP DUP2 SHL ADD PUSH1 0x1 DUP3 ADD SSTORE PUSH2 0x3F1 JUMP JUMPDEST ADD MLOAD PUSH1 0x0 NOT PUSH1 0xF8 DUP5 PUSH1 0x3 SHL AND SHR NOT AND SWAP1 SSTORE DUP9 DUP1 DUP1 PUSH2 0x5FE JUMP JUMPDEST DUP2 DUP2 ADD MLOAD DUP4 SSTORE PUSH1 0x20 SWAP5 DUP6 ADD SWAP5 PUSH1 0x1 SWAP1 SWAP4 ADD SWAP3 SWAP1 SWAP2 ADD SWAP1 PUSH2 0x5E3 JUMP JUMPDEST SWAP1 SWAP2 POP PUSH1 0x1 DUP5 ADD PUSH1 0x0 MSTORE PUSH1 0x20 PUSH1 0x0 KECCAK256 PUSH1 0x1F DUP5 ADD PUSH1 0x5 SHR DUP2 ADD PUSH1 0x20 DUP6 LT PUSH2 0x68E JUMPI JUMPDEST SWAP1 DUP5 SWAP4 SWAP3 SWAP2 JUMPDEST PUSH1 0x1F DUP4 ADD PUSH1 0x5 SHR DUP3 ADD DUP2 LT PUSH2 0x67F JUMPI POP POP PUSH2 0x3C2 JUMP JUMPDEST PUSH1 0x0 DUP2 SSTORE DUP6 SWAP5 POP PUSH1 0x1 ADD PUSH2 0x669 JUMP JUMPDEST POP DUP1 PUSH2 0x663 JUMP JUMPDEST PUSH1 0x40 MLOAD PUSH3 0x461BCD PUSH1 0xE5 SHL DUP2 MSTORE PUSH1 0x20 PUSH1 0x4 DUP3 ADD MSTORE PUSH1 0x38 PUSH1 0x24 DUP3 ADD MSTORE PUSH32 0x4964656E7469747952656769737472793A20616C726561647920726567697374 PUSH1 0x44 DUP3 ADD MSTORE PUSH32 0x657265642C20757365207570646174654B79634C6576656C0000000000000000 PUSH1 0x64 DUP3 ADD MSTORE PUSH1 0x84 SWAP1 REVERT JUMPDEST PUSH1 0x40 MLOAD PUSH3 0x461BCD PUSH1 0xE5 SHL DUP2 MSTORE PUSH1 0x20 PUSH1 0x4 DUP3 ADD MSTORE PUSH1 0x29 PUSH1 0x24 DUP3 ADD MSTORE PUSH32 0x4964656E7469747952656769737472793A20696E76616C6964204B5943206C65 PUSH1 0x44 DUP3 ADD MSTORE PUSH9 0x76656C2028312D3329 PUSH1 0xB8 SHL PUSH1 0x64 DUP3 ADD MSTORE PUSH1 0x84 SWAP1 REVERT JUMPDEST POP PUSH1 0x3 DUP3 GT ISZERO PUSH2 0x2DF JUMP JUMPDEST PUSH1 0x40 MLOAD PUSH3 0x461BCD PUSH1 0xE5 SHL DUP2 MSTORE PUSH1 0x20 PUSH1 0x4 DUP3 ADD MSTORE PUSH1 0x1E PUSH1 0x24 DUP3 ADD MSTORE PUSH32 0x4964656E7469747952656769737472793A207A65726F20616464726573730000 PUSH1 0x44 DUP3 ADD MSTORE PUSH1 0x64 SWAP1 REVERT JUMPDEST POP CALLER PUSH1 0x0 SWAP1 DUP2 MSTORE PUSH1 0x5 PUSH1 0x20 MSTORE PUSH1 0x40 SWAP1 KECCAK256 SLOAD PUSH1 0xFF AND PUSH2 0x2C3 JUMP JUMPDEST CALLVALUE PUSH2 0x23E JUMPI PUSH1 0x20 CALLDATASIZE PUSH1 0x3 NOT ADD SLT PUSH2 0x23E JUMPI PUSH2 0x7D9 PUSH2 0x160D JUMP JUMPDEST PUSH1 0x0 SLOAD PUSH1 0x1 PUSH1 0x1 PUSH1 0xA0 SHL SUB SWAP2 SWAP1 PUSH2 0x7F3 SWAP1 DUP4 AND CALLER EQ PUSH2 0x1C38 JUMP JUMPDEST AND DUP1 PUSH12 0xFFFFFFFFFFFFFFFFFFFFFFFF PUSH1 0xA0 SHL PUSH1 0x1 SLOAD AND OR PUSH1 0x1 SSTORE PUSH32 0x9B64004F1A50E51D3C2809B6A8EFBAE432BFA889E0B4BF67F75E7DB8CA816DBA PUSH1 0x0 DUP1 LOG2 STOP JUMPDEST CALLVALUE PUSH2 0x23E JUMPI PUSH1 0x20 CALLDATASIZE PUSH1 0x3 NOT ADD SLT PUSH2 0x23E JUMPI PUSH1 0x20 PUSH2 0x857 PUSH2 0x852 PUSH2 0x160D JUMP JUMPDEST PUSH2 0x1974 JUMP JUMPDEST PUSH1 0x40 MLOAD SWAP1 ISZERO ISZERO DUP2 MSTORE RETURN JUMPDEST CALLVALUE PUSH2 0x23E JUMPI PUSH1 0x20 CALLDATASIZE PUSH1 0x3 NOT ADD SLT PUSH2 0x23E JUMPI PUSH2 0x87A PUSH2 0x160D JUMP JUMPDEST PUSH1 0x0 SLOAD PUSH1 0x1 PUSH1 0x1 PUSH1 0xA0 SHL SUB SWAP2 SWAP1 PUSH2 0x894 SWAP1 DUP4 AND CALLER EQ PUSH2 0x1C38 JUMP JUMPDEST AND DUP1 PUSH1 0x0 MSTORE PUSH1 0x5 PUSH1 0x20 MSTORE PUSH1 0x40 PUSH1 0x0 KECCAK256 PUSH1 0xFF NOT DUP2 SLOAD AND SWAP1 SSTORE PUSH32 0x80C0B871B97B595B16A7741C1B06FED0C6F6F558639F18CCBCE50724325DC40D PUSH1 0x0 DUP1 LOG2 STOP JUMPDEST CALLVALUE PUSH2 0x23E JUMPI PUSH1 0x20 CALLDATASIZE PUSH1 0x3 NOT ADD SLT PUSH2 0x23E JUMPI PUSH2 0x8EB PUSH2 0x160D JUMP JUMPDEST PUSH1 0x0 SLOAD PUSH1 0x1 PUSH1 0x1 PUSH1 0xA0 SHL SUB SWAP2 SWAP1 PUSH2 0x905 SWAP1 DUP4 AND CALLER EQ PUSH2 0x1C38 JUMP JUMPDEST AND DUP1 PUSH1 0x0 MSTORE PUSH1 0x5 PUSH1 0x20 MSTORE PUSH1 0x40 PUSH1 0x0 KECCAK256 PUSH1 0x1 PUSH1 0xFF NOT DUP3 SLOAD AND OR SWAP1 SSTORE PUSH32 0xAC6FA858E9350A46CEC16539926E0FDE25B7629F84B5A72BFFAAE4DF888AE86D PUSH1 0x0 DUP1 LOG2 STOP JUMPDEST CALLVALUE PUSH2 0x23E JUMPI PUSH1 0x0 CALLDATASIZE PUSH1 0x3 NOT ADD SLT PUSH2 0x23E JUMPI PUSH1 0x20 PUSH1 0x3 SLOAD PUSH1 0x40 MLOAD SWAP1 DUP2 MSTORE RETURN JUMPDEST CALLVALUE PUSH2 0x23E JUMPI PUSH1 0x40 CALLDATASIZE PUSH1 0x3 NOT ADD SLT PUSH2 0x23E JUMPI PUSH1 0x20 PUSH2 0x857 PUSH2 0x982 PUSH2 0x160D JUMP JUMPDEST PUSH2 0x98A PUSH2 0x16C0 JUMP JUMPDEST SWAP1 PUSH2 0x19C6 JUMP JUMPDEST CALLVALUE PUSH2 0x23E JUMPI PUSH1 0x0 CALLDATASIZE PUSH1 0x3 NOT ADD SLT PUSH2 0x23E JUMPI PUSH1 0x0 SLOAD PUSH1 0x40 MLOAD PUSH1 0x1 PUSH1 0x1 PUSH1 0xA0 SHL SUB SWAP1 SWAP2 AND DUP2 MSTORE PUSH1 0x20 SWAP1 RETURN JUMPDEST CALLVALUE PUSH2 0x23E JUMPI PUSH1 0x20 CALLDATASIZE PUSH1 0x3 NOT ADD SLT PUSH2 0x23E JUMPI PUSH2 0x9F1 PUSH2 0x9DD PUSH2 0x9D8 PUSH2 0x160D JUMP JUMPDEST PUSH2 0x1B1E JUMP JUMPDEST PUSH1 0x40 MLOAD SWAP2 DUP3 SWAP2 PUSH1 0x20 DUP4 MSTORE PUSH1 0x20 DUP4 ADD SWAP1 PUSH2 0x1623 JUMP JUMPDEST SUB SWAP1 RETURN JUMPDEST CALLVALUE PUSH2 0x23E JUMPI PUSH1 0x0 CALLDATASIZE PUSH1 0x3 NOT ADD SLT PUSH2 0x23E JUMPI PUSH1 0x40 MLOAD DUP1 PUSH1 0x3 SLOAD DUP1 DUP4 MSTORE PUSH1 0x20 DUP1 SWAP4 ADD DUP1 SWAP2 PUSH1 0x3 PUSH1 0x0 MSTORE PUSH32 0xC2575A0E9E593C00F959F8C92F12DB2869C3395A3B0502D05E2516446F71F85B SWAP1 PUSH1 0x0 JUMPDEST DUP7 DUP3 DUP3 LT PUSH2 0xAA0 JUMPI DUP7 DUP7 PUSH2 0xA57 DUP3 DUP9 SUB DUP4 PUSH2 0x1764 JUMP JUMPDEST PUSH1 0x40 MLOAD SWAP3 DUP4 SWAP3 DUP2 DUP5 ADD SWAP1 DUP3 DUP6 MSTORE MLOAD DUP1 SWAP2 MSTORE PUSH1 0x40 DUP5 ADD SWAP3 SWAP2 PUSH1 0x0 JUMPDEST DUP3 DUP2 LT PUSH2 0xA80 JUMPI POP POP POP POP SUB SWAP1 RETURN JUMPDEST DUP4 MLOAD PUSH1 0x1 PUSH1 0x1 PUSH1 0xA0 SHL SUB AND DUP6 MSTORE DUP7 SWAP6 POP SWAP4 DUP2 ADD SWAP4 SWAP3 DUP2 ADD SWAP3 PUSH1 0x1 ADD PUSH2 0xA71 JUMP JUMPDEST DUP4 SLOAD PUSH1 0x1 PUSH1 0x1 PUSH1 0xA0 SHL SUB AND DUP6 MSTORE SWAP1 SWAP4 ADD SWAP3 PUSH1 0x1 SWAP3 DUP4 ADD SWAP3 ADD PUSH2 0xA41 JUMP JUMPDEST CALLVALUE PUSH2 0x23E JUMPI PUSH1 0x0 CALLDATASIZE PUSH1 0x3 NOT ADD SLT PUSH2 0x23E JUMPI PUSH1 0x0 DUP1 PUSH1 0x0 DUP1 PUSH1 0x0 SWAP4 PUSH1 0x3 SWAP5 DUP6 SLOAD SWAP6 JUMPDEST DUP7 DUP3 LT PUSH2 0xB02 JUMPI POP POP PUSH1 0x80 SWAP5 POP PUSH1 0x40 MLOAD SWAP4 DUP5 MSTORE PUSH1 0x20 DUP5 ADD MSTORE PUSH1 0x40 DUP4 ADD MSTORE PUSH1 0x60 DUP3 ADD MSTORE RETURN JUMPDEST SWAP1 SWAP5 PUSH2 0xB0D DUP7 PUSH2 0x1805 JUMP JUMPDEST PUSH1 0x1 DUP1 PUSH1 0xA0 SHL SUB SWAP2 SLOAD SWAP1 DUP5 SHL SHR AND PUSH1 0x0 MSTORE PUSH1 0x2 DUP1 PUSH1 0x20 MSTORE PUSH1 0x40 PUSH1 0x0 KECCAK256 PUSH1 0xFF SWAP1 DUP2 DUP6 DUP3 ADD SLOAD AND ISZERO PUSH2 0xBA4 JUMPI SLOAD PUSH1 0xA0 SHR AND SWAP1 PUSH1 0x1 DUP3 SUB PUSH2 0xB5F JUMPI POP POP PUSH2 0xB53 PUSH2 0xB59 SWAP2 PUSH2 0x18DC JUMP JUMPDEST SWAP6 PUSH2 0x18DC JUMP JUMPDEST SWAP1 PUSH2 0xADE JUMP JUMPDEST SWAP2 SWAP7 SWAP4 SWAP2 DUP2 SUB PUSH2 0xB7C JUMPI POP PUSH2 0xB76 PUSH2 0xB59 SWAP2 PUSH2 0x18DC JUMP JUMPDEST SWAP3 PUSH2 0x18DC JUMP JUMPDEST SWAP1 SWAP3 SWAP1 DUP3 EQ PUSH2 0xB8F JUMPI JUMPDEST PUSH2 0xB59 SWAP1 PUSH2 0x18DC JUMP JUMPDEST SWAP3 PUSH2 0xB9C PUSH2 0xB59 SWAP2 PUSH2 0x18DC JUMP JUMPDEST SWAP4 SWAP1 POP PUSH2 0xB86 JUMP JUMPDEST POP POP POP SWAP5 SWAP4 PUSH2 0xBB5 PUSH2 0xB59 SWAP2 PUSH2 0x18DC JUMP JUMPDEST SWAP5 PUSH2 0x18DC JUMP JUMPDEST CALLVALUE PUSH2 0x23E JUMPI PUSH1 0x0 CALLDATASIZE PUSH1 0x3 NOT ADD SLT PUSH2 0x23E JUMPI PUSH1 0x0 DUP1 PUSH1 0x3 DUP1 SLOAD SWAP2 JUMPDEST DUP3 DUP2 LT PUSH2 0xBE7 JUMPI PUSH1 0x20 DUP5 PUSH1 0x40 MLOAD SWAP1 DUP2 MSTORE RETURN JUMPDEST PUSH2 0xBF0 DUP2 PUSH2 0x1805 JUMP JUMPDEST SWAP1 SLOAD SWAP1 DUP4 SHL SHR PUSH1 0x1 PUSH1 0x1 PUSH1 0xA0 SHL SUB AND PUSH1 0x0 SWAP1 DUP2 MSTORE PUSH1 0x2 PUSH1 0x20 MSTORE PUSH1 0x40 SWAP1 KECCAK256 DUP3 ADD SLOAD PUSH1 0xFF AND PUSH2 0xC26 JUMPI JUMPDEST PUSH2 0xC21 SWAP1 PUSH2 0x18DC JUMP JUMPDEST PUSH2 0xBD5 JUMP JUMPDEST SWAP3 PUSH2 0xC33 PUSH2 0xC21 SWAP2 PUSH2 0x18DC JUMP JUMPDEST SWAP4 SWAP1 POP PUSH2 0xC18 JUMP JUMPDEST CALLVALUE PUSH2 0x23E JUMPI PUSH1 0x0 CALLDATASIZE PUSH1 0x3 NOT ADD SLT PUSH2 0x23E JUMPI PUSH1 0x1 SLOAD PUSH1 0x40 MLOAD PUSH1 0x1 PUSH1 0x1 PUSH1 0xA0 SHL SUB SWAP1 SWAP2 AND DUP2 MSTORE PUSH1 0x20 SWAP1 RETURN JUMPDEST CALLVALUE PUSH2 0x23E JUMPI PUSH1 0x80 CALLDATASIZE PUSH1 0x3 NOT ADD SLT PUSH2 0x23E JUMPI PUSH1 0x4 CALLDATALOAD PUSH1 0x1 PUSH1 0x1 PUSH1 0x40 SHL SUB DUP2 GT PUSH2 0x23E JUMPI PUSH2 0xC94 SWAP1 CALLDATASIZE SWAP1 PUSH1 0x4 ADD PUSH2 0x1690 JUMP JUMPDEST SWAP1 PUSH1 0x24 CALLDATALOAD PUSH1 0x1 PUSH1 0x1 PUSH1 0x40 SHL SUB DUP2 GT PUSH2 0x23E JUMPI PUSH2 0xCB4 SWAP1 CALLDATASIZE SWAP1 PUSH1 0x4 ADD PUSH2 0x1690 JUMP JUMPDEST SWAP1 SWAP3 PUSH1 0x44 CALLDATALOAD PUSH1 0x1 PUSH1 0x1 PUSH1 0x40 SHL SUB DUP2 GT PUSH2 0x23E JUMPI PUSH2 0xCD5 SWAP1 CALLDATASIZE SWAP1 PUSH1 0x4 ADD PUSH2 0x1690 JUMP JUMPDEST SWAP3 SWAP1 SWAP2 PUSH1 0x64 CALLDATALOAD PUSH1 0x1 PUSH1 0x1 PUSH1 0x40 SHL SUB DUP2 GT PUSH2 0x23E JUMPI PUSH2 0xCF7 SWAP1 CALLDATASIZE SWAP1 PUSH1 0x4 ADD PUSH2 0x1663 JUMP JUMPDEST PUSH1 0x0 SLOAD SWAP2 SWAP7 SWAP2 PUSH1 0x1 PUSH1 0x1 PUSH1 0xA0 SHL SUB AND CALLER EQ DUP1 ISZERO PUSH2 0x12DE JUMPI JUMPDEST PUSH2 0xD18 SWAP1 PUSH2 0x16D0 JUMP JUMPDEST DUP4 DUP4 EQ DUP1 PUSH2 0x12D5 JUMPI JUMPDEST ISZERO PUSH2 0x1280 JUMPI PUSH1 0x0 JUMPDEST DUP4 DUP2 LT PUSH2 0xD32 JUMPI STOP JUMPDEST DUP6 SWAP1 PUSH1 0x1 PUSH1 0x1 PUSH1 0xA0 SHL SUB PUSH2 0xD4F PUSH2 0xD4A DUP4 DUP9 DUP9 PUSH2 0x1901 JUMP JUMPDEST PUSH2 0x1911 JUMP JUMPDEST AND PUSH1 0x0 MSTORE PUSH1 0x4 PUSH1 0x20 MSTORE PUSH1 0xFF PUSH1 0x40 PUSH1 0x0 KECCAK256 SLOAD AND DUP1 ISZERO PUSH2 0x1262 JUMPI JUMPDEST PUSH2 0x1258 JUMPI DUP10 DUP7 DUP10 DUP8 DUP8 PUSH1 0xFF PUSH2 0xD86 PUSH2 0xD81 DUP9 DUP7 DUP12 PUSH2 0x1901 JUMP JUMPDEST PUSH2 0x1925 JUMP JUMPDEST AND ISZERO DUP1 ISZERO PUSH2 0x123E JUMPI JUMPDEST PUSH2 0x122F JUMPI SWAP3 PUSH2 0xDB7 PUSH2 0xD81 DUP8 PUSH2 0xDBD SWAP6 PUSH2 0xDB1 PUSH2 0xD4A DUP4 DUP1 SWAP9 PUSH2 0xDE5 SWAP12 PUSH2 0x1901 JUMP JUMPDEST SWAP11 PUSH2 0x1901 JUMP JUMPDEST SWAP5 PUSH2 0x1933 JUMP JUMPDEST PUSH1 0x40 MLOAD SWAP6 PUSH2 0xDCA DUP8 PUSH2 0x172E JUMP JUMPDEST PUSH1 0x1 DUP1 PUSH1 0xA0 SHL SUB AND DUP7 MSTORE PUSH1 0xFF PUSH1 0x20 DUP8 ADD SWAP5 AND DUP5 MSTORE CALLDATASIZE SWAP2 PUSH2 0x1785 JUMP JUMPDEST PUSH1 0x40 DUP5 ADD SWAP1 DUP2 MSTORE PUSH2 0xDF7 CALLDATASIZE DUP7 DUP14 PUSH2 0x1785 JUMP JUMPDEST PUSH1 0x60 DUP6 ADD MSTORE PUSH1 0x1 PUSH1 0x80 DUP6 ADD MSTORE TIMESTAMP PUSH1 0xA0 DUP6 ADD DUP2 SWAP1 MSTORE PUSH1 0xC0 DUP6 ADD MSTORE PUSH1 0x1 PUSH1 0x1 PUSH1 0xA0 SHL SUB PUSH2 0xE26 PUSH2 0xD4A DUP6 DUP11 DUP11 PUSH2 0x1901 JUMP JUMPDEST AND PUSH1 0x0 SWAP1 DUP2 MSTORE PUSH1 0x2 PUSH1 0x20 MSTORE PUSH1 0x40 SWAP1 KECCAK256 DUP5 MLOAD DUP2 SLOAD SWAP4 MLOAD PUSH1 0x1 PUSH1 0x1 PUSH1 0xA8 SHL SUB NOT SWAP1 SWAP5 AND PUSH1 0x1 PUSH1 0x1 PUSH1 0xA0 SHL SUB SWAP2 SWAP1 SWAP2 AND OR PUSH1 0xA0 SWAP4 SWAP1 SWAP4 SHL PUSH1 0xFF PUSH1 0xA0 SHL AND SWAP3 SWAP1 SWAP3 OR DUP3 SSTORE MLOAD DUP1 MLOAD SWAP1 PUSH1 0x1 PUSH1 0x1 PUSH1 0x40 SHL SUB DUP3 GT PUSH2 0x5AF JUMPI DUP2 SWAP1 PUSH2 0xE87 PUSH1 0x1 DUP6 ADD SLOAD PUSH2 0x17CB JUMP JUMPDEST PUSH1 0x1F DUP2 GT PUSH2 0x11DC JUMPI JUMPDEST POP PUSH1 0x20 SWAP1 PUSH1 0x1F DUP4 GT PUSH1 0x1 EQ PUSH2 0x116A JUMPI PUSH1 0x0 SWAP3 PUSH2 0x115F JUMPI JUMPDEST POP POP DUP2 PUSH1 0x1 SHL SWAP2 PUSH1 0x0 NOT SWAP1 PUSH1 0x3 SHL SHR NOT AND OR PUSH1 0x1 DUP3 ADD SSTORE JUMPDEST PUSH1 0x60 DUP4 ADD MLOAD SWAP1 DUP2 MLOAD SWAP4 PUSH1 0x1 PUSH1 0x1 PUSH1 0x40 SHL SUB DUP6 GT PUSH2 0x5AF JUMPI DUP8 DUP8 DUP4 DUP16 SWAP5 SWAP4 DUP14 SWAP9 DUP16 SWAP8 PUSH2 0xEEE DUP16 SWAP8 PUSH1 0x2 ADD SLOAD PUSH2 0x17CB JUMP JUMPDEST PUSH1 0x1F DUP2 GT PUSH2 0x10DC JUMPI JUMPDEST POP PUSH1 0x20 SWAP1 PUSH1 0x1F DUP4 GT PUSH1 0x1 EQ PUSH2 0x1016 JUMPI PUSH2 0x1006 SWAP12 SWAP8 PUSH2 0xFD4 PUSH2 0xD4A DUP14 PUSH1 0x0 DUP1 MLOAD PUSH1 0x20 PUSH2 0x1C85 DUP4 CODECOPY DUP2 MLOAD SWAP2 MSTORE SWAP13 SWAP11 PUSH2 0xFFE SWAP11 PUSH2 0xFE2 SWAP11 PUSH1 0x5 PUSH1 0xC0 PUSH2 0xD81 SWAP13 DUP13 DUP8 SWAP14 PUSH2 0xFDA SWAP14 DUP10 SWAP14 PUSH1 0x0 SWAP3 PUSH2 0x100B JUMPI JUMPDEST POP POP DUP2 PUSH1 0x1 SHL SWAP2 PUSH1 0x0 NOT SWAP1 PUSH1 0x3 SHL SHR NOT AND OR PUSH1 0x2 DUP6 ADD SSTORE JUMPDEST PUSH2 0xF7B PUSH1 0x80 DUP3 ADD MLOAD ISZERO ISZERO PUSH1 0x3 DUP7 ADD SWAP1 PUSH1 0xFF DUP1 NOT DUP4 SLOAD AND SWAP2 ISZERO ISZERO AND OR SWAP1 SSTORE JUMP JUMPDEST PUSH1 0xA0 DUP2 ADD MLOAD PUSH1 0x4 DUP6 ADD SSTORE ADD MLOAD SWAP2 ADD SSTORE PUSH2 0xFA0 PUSH2 0xF9B PUSH2 0xD4A DUP6 DUP6 DUP6 PUSH2 0x1901 JUMP JUMPDEST PUSH2 0x1852 JUMP JUMPDEST PUSH1 0x1 PUSH1 0x1 PUSH1 0xA0 SHL SUB PUSH2 0xFB6 PUSH2 0xD4A DUP6 DUP6 DUP6 PUSH2 0x1901 JUMP JUMPDEST AND PUSH1 0x0 MSTORE PUSH1 0x4 PUSH1 0x20 MSTORE PUSH1 0x40 PUSH1 0x0 KECCAK256 PUSH1 0x1 PUSH1 0xFF NOT DUP3 SLOAD AND OR SWAP1 SSTORE PUSH2 0x1901 JUMP JUMPDEST SWAP8 PUSH2 0x1933 JUMP JUMPDEST SWAP9 SWAP1 SWAP7 PUSH2 0x1901 JUMP JUMPDEST PUSH1 0x40 MLOAD PUSH1 0x1 PUSH1 0x1 PUSH1 0xA0 SHL SUB SWAP1 SWAP4 AND SWAP6 SWAP3 SWAP4 DUP5 SWAP4 TIMESTAMP SWAP3 SWAP2 DUP6 PUSH2 0x18B5 JUMP JUMPDEST SUB SWAP1 LOG2 PUSH2 0x18DC JUMP JUMPDEST PUSH2 0xD29 JUMP JUMPDEST ADD MLOAD SWAP1 POP CODESIZE DUP1 PUSH2 0xF44 JUMP JUMPDEST SWAP1 PUSH1 0x2 DUP6 SWAP13 SWAP10 SWAP9 SWAP8 SWAP13 ADD PUSH1 0x0 MSTORE PUSH1 0x20 PUSH1 0x0 KECCAK256 SWAP2 PUSH1 0x0 JUMPDEST PUSH1 0x1F NOT DUP6 AND DUP2 LT PUSH2 0x10A7 JUMPI POP SWAP7 PUSH2 0xFD4 PUSH2 0xD4A DUP14 PUSH2 0x1006 SWAP16 PUSH2 0xFFE SWAP11 PUSH2 0xFE2 SWAP11 PUSH1 0x0 DUP1 MLOAD PUSH1 0x20 PUSH2 0x1C85 DUP4 CODECOPY DUP2 MLOAD SWAP2 MSTORE SWAP16 SWAP15 SWAP14 PUSH1 0xC0 PUSH2 0xD81 SWAP13 PUSH1 0x1 DUP14 PUSH2 0xFDA SWAP14 DUP10 SWAP16 SWAP14 PUSH1 0x5 SWAP7 DUP12 SWAP16 PUSH1 0x1F NOT DUP2 AND LT PUSH2 0x108E JUMPI JUMPDEST POP POP POP DUP2 SHL ADD PUSH1 0x2 DUP6 ADD SSTORE PUSH2 0xF5C JUMP JUMPDEST ADD MLOAD PUSH1 0x0 NOT PUSH1 0xF8 DUP5 PUSH1 0x3 SHL AND SHR NOT AND SWAP1 SSTORE CODESIZE DUP1 DUP1 PUSH2 0x107E JUMP JUMPDEST SWAP7 POP SWAP5 SWAP10 POP SWAP6 POP PUSH1 0x20 SWAP3 SWAP8 POP DUP3 SWAP2 SWAP7 SWAP10 SWAP11 POP PUSH1 0x1 SWAP1 DUP7 DUP6 ADD MLOAD DUP2 SSTORE ADD SWAP5 ADD SWAP3 ADD SWAP5 DUP12 SWAP9 SWAP8 SWAP5 DUP16 SWAP8 SWAP3 SWAP5 DUP16 SWAP8 SWAP5 DUP16 SWAP7 DUP15 SWAP7 PUSH2 0x102C JUMP JUMPDEST SWAP5 POP SWAP5 POP SWAP5 POP SWAP5 SWAP7 SWAP8 POP SWAP5 POP PUSH1 0x2 DUP6 ADD PUSH1 0x0 MSTORE PUSH1 0x20 PUSH1 0x0 KECCAK256 PUSH1 0x1F DUP5 ADD PUSH1 0x5 SHR DUP2 ADD PUSH1 0x20 DUP6 LT PUSH2 0x1158 JUMPI JUMPDEST SWAP5 DUP13 SWAP5 DUP16 SWAP8 SWAP3 SWAP5 DUP16 SWAP11 SWAP10 SWAP8 SWAP5 DUP15 SWAP7 DUP15 SWAP7 JUMPDEST PUSH1 0x1F DUP4 ADD PUSH1 0x5 SHR DUP3 ADD DUP2 LT PUSH2 0x112D JUMPI POP POP PUSH2 0xEF7 JUMP JUMPDEST SWAP4 SWAP9 POP SWAP5 SWAP10 POP SWAP5 POP SWAP5 POP PUSH1 0x1 SWAP2 SWAP7 SWAP9 SWAP10 POP PUSH1 0x0 DUP2 SSTORE ADD SWAP5 DUP13 SWAP5 DUP16 SWAP8 SWAP3 SWAP5 DUP16 SWAP11 SWAP10 SWAP8 SWAP5 DUP15 SWAP7 DUP15 SWAP7 PUSH2 0x1117 JUMP JUMPDEST POP DUP1 PUSH2 0x1106 JUMP JUMPDEST ADD MLOAD SWAP1 POP DUP14 DUP1 PUSH2 0xEA7 JUMP JUMPDEST SWAP3 POP PUSH1 0x1 DUP5 ADD PUSH1 0x0 MSTORE PUSH1 0x20 PUSH1 0x0 KECCAK256 SWAP1 PUSH1 0x0 SWAP4 JUMPDEST PUSH1 0x1F NOT DUP5 AND DUP6 LT PUSH2 0x11C1 JUMPI PUSH1 0x1 SWAP5 POP DUP4 PUSH1 0x1F NOT DUP2 AND LT PUSH2 0x11A8 JUMPI JUMPDEST POP POP POP DUP2 SHL ADD PUSH1 0x1 DUP3 ADD SSTORE PUSH2 0xEBF JUMP JUMPDEST ADD MLOAD PUSH1 0x0 NOT PUSH1 0xF8 DUP5 PUSH1 0x3 SHL AND SHR NOT AND SWAP1 SSTORE DUP14 DUP1 DUP1 PUSH2 0x1198 JUMP JUMPDEST DUP2 DUP2 ADD MLOAD DUP4 SSTORE PUSH1 0x20 SWAP5 DUP6 ADD SWAP5 PUSH1 0x1 SWAP1 SWAP4 ADD SWAP3 SWAP1 SWAP2 ADD SWAP1 PUSH2 0x117D JUMP JUMPDEST SWAP1 SWAP2 POP PUSH1 0x1 DUP5 ADD PUSH1 0x0 MSTORE PUSH1 0x20 PUSH1 0x0 KECCAK256 PUSH1 0x1F DUP5 ADD PUSH1 0x5 SHR DUP2 ADD PUSH1 0x20 DUP6 LT PUSH2 0x1228 JUMPI JUMPDEST SWAP1 DUP5 SWAP4 SWAP3 SWAP2 JUMPDEST PUSH1 0x1F DUP4 ADD PUSH1 0x5 SHR DUP3 ADD DUP2 LT PUSH2 0x1219 JUMPI POP POP PUSH2 0xE90 JUMP JUMPDEST PUSH1 0x0 DUP2 SSTORE DUP6 SWAP5 POP PUSH1 0x1 ADD PUSH2 0x1203 JUMP JUMPDEST POP DUP1 PUSH2 0x11FD JUMP JUMPDEST POP POP POP POP POP PUSH2 0x1006 SWAP2 POP PUSH2 0x18DC JUMP JUMPDEST POP PUSH1 0x3 PUSH1 0xFF PUSH2 0x1251 PUSH2 0xD81 DUP10 DUP8 DUP13 PUSH2 0x1901 JUMP JUMPDEST AND GT PUSH2 0xD8F JUMP JUMPDEST PUSH2 0x1006 SWAP2 POP PUSH2 0x18DC JUMP JUMPDEST POP PUSH1 0x1 PUSH1 0x1 PUSH1 0xA0 SHL SUB PUSH2 0x1279 PUSH2 0xD4A DUP4 DUP9 DUP9 PUSH2 0x1901 JUMP JUMPDEST AND ISZERO PUSH2 0xD68 JUMP JUMPDEST PUSH1 0x40 MLOAD PUSH3 0x461BCD PUSH1 0xE5 SHL DUP2 MSTORE PUSH1 0x20 PUSH1 0x4 DUP3 ADD MSTORE PUSH1 0x27 PUSH1 0x24 DUP3 ADD MSTORE PUSH32 0x4964656E7469747952656769737472793A206172726179206C656E677468206D PUSH1 0x44 DUP3 ADD MSTORE PUSH7 0xD2E6DAC2E8C6D PUSH1 0xCB SHL PUSH1 0x64 DUP3 ADD MSTORE PUSH1 0x84 SWAP1 REVERT JUMPDEST POP DUP6 DUP4 EQ PUSH2 0xD21 JUMP JUMPDEST POP CALLER PUSH1 0x0 SWAP1 DUP2 MSTORE PUSH1 0x5 PUSH1 0x20 MSTORE PUSH1 0x40 SWAP1 KECCAK256 SLOAD PUSH1 0xFF AND PUSH2 0xD0F JUMP JUMPDEST CALLVALUE PUSH2 0x23E JUMPI PUSH1 0x40 CALLDATASIZE PUSH1 0x3 NOT ADD SLT PUSH2 0x23E JUMPI PUSH2 0x1310 PUSH2 0x160D JUMP JUMPDEST PUSH1 0x24 CALLDATALOAD PUSH1 0x1 PUSH1 0x1 PUSH1 0x40 SHL SUB DUP2 GT PUSH2 0x23E JUMPI PUSH2 0x1350 PUSH32 0x5DA6E2D39AAAC16F62EC221477FB1318D493E476AF275A04635C74191CADED5F SWAP2 CALLDATASIZE SWAP1 PUSH1 0x4 ADD PUSH2 0x1663 JUMP JUMPDEST PUSH1 0x0 SLOAD SWAP1 SWAP4 PUSH1 0x1 PUSH1 0x1 PUSH1 0xA0 SHL SUB SWAP2 DUP3 AND CALLER EQ DUP1 ISZERO PUSH2 0x13D0 JUMPI JUMPDEST PUSH2 0x1372 SWAP1 PUSH2 0x16D0 JUMP JUMPDEST AND SWAP3 DUP4 PUSH1 0x0 MSTORE PUSH1 0x4 PUSH1 0x20 MSTORE PUSH2 0x138E PUSH1 0xFF PUSH1 0x40 PUSH1 0x0 KECCAK256 SLOAD AND PUSH2 0x1A1C JUMP JUMPDEST DUP4 PUSH1 0x0 MSTORE PUSH1 0x2 PUSH1 0x20 MSTORE PUSH1 0x40 PUSH1 0x0 KECCAK256 PUSH1 0x3 DUP2 ADD PUSH1 0xFF NOT DUP2 SLOAD AND SWAP1 SSTORE PUSH1 0x5 TIMESTAMP SWAP2 ADD SSTORE PUSH2 0x13C5 PUSH1 0x40 MLOAD SWAP3 DUP4 SWAP3 PUSH1 0x40 DUP5 MSTORE PUSH1 0x40 DUP5 ADD SWAP2 PUSH2 0x1894 JUMP JUMPDEST TIMESTAMP PUSH1 0x20 DUP4 ADD MSTORE SUB SWAP1 LOG2 STOP JUMPDEST POP CALLER PUSH1 0x0 SWAP1 DUP2 MSTORE PUSH1 0x5 PUSH1 0x20 MSTORE PUSH1 0x40 SWAP1 KECCAK256 SLOAD PUSH1 0xFF AND PUSH2 0x1369 JUMP JUMPDEST CALLVALUE PUSH2 0x23E JUMPI PUSH1 0x20 DUP1 PUSH1 0x3 NOT CALLDATASIZE ADD SLT PUSH2 0x23E JUMPI PUSH2 0x1403 PUSH2 0x160D JUMP JUMPDEST SWAP1 PUSH1 0x0 PUSH1 0xC0 PUSH1 0x40 MLOAD PUSH2 0x1414 DUP2 PUSH2 0x172E JUMP JUMPDEST DUP3 DUP2 MSTORE DUP3 DUP5 DUP3 ADD MSTORE PUSH1 0x60 PUSH1 0x40 DUP3 ADD MSTORE PUSH1 0x60 DUP1 DUP3 ADD MSTORE DUP3 PUSH1 0x80 DUP3 ADD MSTORE DUP3 PUSH1 0xA0 DUP3 ADD MSTORE ADD MSTORE PUSH1 0x1 DUP1 PUSH1 0xA0 SHL SUB DUP1 SWAP3 AND DUP1 PUSH1 0x0 MSTORE PUSH1 0x4 DUP3 MSTORE PUSH2 0x145A PUSH1 0xFF PUSH1 0x40 PUSH1 0x0 KECCAK256 SLOAD AND PUSH2 0x1A1C JUMP JUMPDEST PUSH1 0x0 MSTORE PUSH1 0x2 DUP2 MSTORE PUSH1 0x40 PUSH1 0x0 KECCAK256 PUSH1 0x40 MLOAD SWAP2 PUSH2 0x1473 DUP4 PUSH2 0x172E JUMP JUMPDEST DUP2 SLOAD SWAP2 DUP5 DUP4 AND DUP5 MSTORE PUSH1 0xFF DUP3 DUP6 ADD SWAP4 PUSH1 0xA0 SHR AND DUP4 MSTORE PUSH2 0x151C PUSH2 0x1496 PUSH1 0x1 DUP4 ADD PUSH2 0x1A78 JUMP JUMPDEST PUSH1 0x40 DUP7 ADD SWAP1 DUP2 MSTORE PUSH2 0x1509 PUSH2 0x14AC PUSH1 0x2 DUP6 ADD PUSH2 0x1A78 JUMP JUMPDEST SWAP2 PUSH1 0x60 DUP9 ADD SWAP3 DUP4 MSTORE PUSH1 0xFF DUP1 PUSH1 0x3 DUP8 ADD SLOAD AND SWAP8 PUSH1 0x80 DUP11 ADD SWAP9 ISZERO ISZERO DUP10 MSTORE PUSH1 0x5 PUSH1 0x4 DUP9 ADD SLOAD SWAP8 PUSH1 0xA0 DUP13 ADD SWAP9 DUP10 MSTORE ADD SLOAD SWAP8 PUSH1 0xC0 DUP12 ADD SWAP9 DUP10 MSTORE PUSH1 0x40 MLOAD SWAP12 DUP13 SWAP12 DUP3 DUP14 MSTORE MLOAD AND SWAP1 DUP12 ADD MSTORE MLOAD AND PUSH1 0x40 DUP10 ADD MSTORE MLOAD PUSH1 0xE0 PUSH1 0x60 DUP10 ADD MSTORE PUSH2 0x100 DUP9 ADD SWAP1 PUSH2 0x1623 JUMP JUMPDEST SWAP1 MLOAD DUP7 DUP3 SUB PUSH1 0x1F NOT ADD PUSH1 0x80 DUP9 ADD MSTORE PUSH2 0x1623 JUMP JUMPDEST SWAP3 MLOAD ISZERO ISZERO PUSH1 0xA0 DUP6 ADD MSTORE MLOAD PUSH1 0xC0 DUP5 ADD MSTORE MLOAD PUSH1 0xE0 DUP4 ADD MSTORE SUB SWAP1 RETURN JUMPDEST CALLVALUE PUSH2 0x23E JUMPI PUSH1 0x20 CALLDATASIZE PUSH1 0x3 NOT ADD SLT PUSH2 0x23E JUMPI PUSH2 0x154E PUSH2 0x160D JUMP JUMPDEST PUSH1 0x0 SLOAD PUSH1 0x1 PUSH1 0x1 PUSH1 0xA0 SHL SUB SWAP2 SWAP1 PUSH2 0x1568 SWAP1 DUP4 AND CALLER EQ PUSH2 0x1C38 JUMP JUMPDEST AND DUP1 PUSH1 0x0 MSTORE PUSH1 0x4 PUSH1 0x20 MSTORE PUSH2 0x1583 PUSH1 0xFF PUSH1 0x40 PUSH1 0x0 KECCAK256 SLOAD AND PUSH2 0x1A1C JUMP JUMPDEST DUP1 PUSH1 0x0 MSTORE PUSH1 0x2 PUSH1 0x20 MSTORE PUSH1 0x40 PUSH1 0x0 KECCAK256 PUSH1 0x3 DUP2 ADD PUSH1 0x1 PUSH1 0xFF NOT DUP3 SLOAD AND OR SWAP1 SSTORE PUSH1 0x5 TIMESTAMP SWAP2 ADD SSTORE PUSH32 0x567571BC4346D5C6665266BEE44F8AA227030E6FBB57762A6CC6787EE01505E1 PUSH1 0x20 PUSH1 0x40 MLOAD TIMESTAMP DUP2 MSTORE LOG2 STOP JUMPDEST CALLVALUE PUSH2 0x23E JUMPI PUSH1 0x20 CALLDATASIZE PUSH1 0x3 NOT ADD SLT PUSH2 0x23E JUMPI PUSH1 0x20 SWAP1 PUSH1 0x1 PUSH1 0x1 PUSH1 0xA0 SHL SUB PUSH2 0x15F6 PUSH2 0x160D JUMP JUMPDEST AND PUSH1 0x0 MSTORE PUSH1 0x5 DUP3 MSTORE PUSH1 0xFF PUSH1 0x40 PUSH1 0x0 KECCAK256 SLOAD AND ISZERO ISZERO DUP2 MSTORE RETURN JUMPDEST PUSH1 0x4 CALLDATALOAD SWAP1 PUSH1 0x1 PUSH1 0x1 PUSH1 0xA0 SHL SUB DUP3 AND DUP3 SUB PUSH2 0x23E JUMPI JUMP JUMPDEST SWAP2 SWAP1 DUP3 MLOAD SWAP3 DUP4 DUP3 MSTORE PUSH1 0x0 JUMPDEST DUP5 DUP2 LT PUSH2 0x164F JUMPI POP POP DUP3 PUSH1 0x0 PUSH1 0x20 DUP1 SWAP5 SWAP6 DUP5 ADD ADD MSTORE PUSH1 0x1F DUP1 NOT SWAP2 ADD AND ADD ADD SWAP1 JUMP JUMPDEST PUSH1 0x20 DUP2 DUP4 ADD DUP2 ADD MLOAD DUP5 DUP4 ADD DUP3 ADD MSTORE ADD PUSH2 0x162E JUMP JUMPDEST SWAP2 DUP2 PUSH1 0x1F DUP5 ADD SLT ISZERO PUSH2 0x23E JUMPI DUP3 CALLDATALOAD SWAP2 PUSH1 0x1 PUSH1 0x1 PUSH1 0x40 SHL SUB DUP4 GT PUSH2 0x23E JUMPI PUSH1 0x20 DUP4 DUP2 DUP7 ADD SWAP6 ADD ADD GT PUSH2 0x23E JUMPI JUMP JUMPDEST SWAP2 DUP2 PUSH1 0x1F DUP5 ADD SLT ISZERO PUSH2 0x23E JUMPI DUP3 CALLDATALOAD SWAP2 PUSH1 0x1 PUSH1 0x1 PUSH1 0x40 SHL SUB DUP4 GT PUSH2 0x23E JUMPI PUSH1 0x20 DUP1 DUP6 ADD SWAP5 DUP5 PUSH1 0x5 SHL ADD ADD GT PUSH2 0x23E JUMPI JUMP JUMPDEST PUSH1 0x24 CALLDATALOAD SWAP1 PUSH1 0xFF DUP3 AND DUP3 SUB PUSH2 0x23E JUMPI JUMP JUMPDEST ISZERO PUSH2 0x16D7 JUMPI JUMP JUMPDEST PUSH1 0x40 MLOAD PUSH3 0x461BCD PUSH1 0xE5 SHL DUP2 MSTORE PUSH1 0x20 PUSH1 0x4 DUP3 ADD MSTORE PUSH1 0x29 PUSH1 0x24 DUP3 ADD MSTORE PUSH32 0x4964656E7469747952656769737472793A206E6F7420617574686F7269736564 PUSH1 0x44 DUP3 ADD MSTORE PUSH9 0x1037B832B930BA37B9 PUSH1 0xB9 SHL PUSH1 0x64 DUP3 ADD MSTORE PUSH1 0x84 SWAP1 REVERT JUMPDEST PUSH1 0xE0 DUP2 ADD SWAP1 DUP2 LT PUSH1 0x1 PUSH1 0x1 PUSH1 0x40 SHL SUB DUP3 GT OR PUSH2 0x5AF JUMPI PUSH1 0x40 MSTORE JUMP JUMPDEST PUSH1 0x40 DUP2 ADD SWAP1 DUP2 LT PUSH1 0x1 PUSH1 0x1 PUSH1 0x40 SHL SUB DUP3 GT OR PUSH2 0x5AF JUMPI PUSH1 0x40 MSTORE JUMP JUMPDEST SWAP1 PUSH1 0x1F DUP1 NOT SWAP2 ADD AND DUP2 ADD SWAP1 DUP2 LT PUSH1 0x1 PUSH1 0x1 PUSH1 0x40 SHL SUB DUP3 GT OR PUSH2 0x5AF JUMPI PUSH1 0x40 MSTORE JUMP JUMPDEST SWAP3 SWAP2 SWAP3 PUSH1 0x1 PUSH1 0x1 PUSH1 0x40 SHL SUB DUP3 GT PUSH2 0x5AF JUMPI PUSH1 0x40 MLOAD SWAP2 PUSH2 0x17AE PUSH1 0x1F DUP3 ADD PUSH1 0x1F NOT AND PUSH1 0x20 ADD DUP5 PUSH2 0x1764 JUMP JUMPDEST DUP3 SWAP5 DUP2 DUP5 MSTORE DUP2 DUP4 ADD GT PUSH2 0x23E JUMPI DUP3 DUP2 PUSH1 0x20 SWAP4 DUP5 PUSH1 0x0 SWAP7 ADD CALLDATACOPY ADD ADD MSTORE JUMP JUMPDEST SWAP1 PUSH1 0x1 DUP3 DUP2 SHR SWAP3 AND DUP1 ISZERO PUSH2 0x17FB JUMPI JUMPDEST PUSH1 0x20 DUP4 LT EQ PUSH2 0x17E5 JUMPI JUMP JUMPDEST PUSH4 0x4E487B71 PUSH1 0xE0 SHL PUSH1 0x0 MSTORE PUSH1 0x22 PUSH1 0x4 MSTORE PUSH1 0x24 PUSH1 0x0 REVERT JUMPDEST SWAP2 PUSH1 0x7F AND SWAP2 PUSH2 0x17DA JUMP JUMPDEST PUSH1 0x3 SLOAD DUP2 LT ISZERO PUSH2 0x183C JUMPI PUSH1 0x3 PUSH1 0x0 MSTORE PUSH32 0xC2575A0E9E593C00F959F8C92F12DB2869C3395A3B0502D05E2516446F71F85B ADD SWAP1 PUSH1 0x0 SWAP1 JUMP JUMPDEST PUSH4 0x4E487B71 PUSH1 0xE0 SHL PUSH1 0x0 MSTORE PUSH1 0x32 PUSH1 0x4 MSTORE PUSH1 0x24 PUSH1 0x0 REVERT JUMPDEST PUSH1 0x3 SLOAD PUSH9 0x10000000000000000 DUP2 LT ISZERO PUSH2 0x5AF JUMPI DUP1 PUSH1 0x1 PUSH2 0x1876 SWAP3 ADD PUSH1 0x3 SSTORE PUSH2 0x1805 JUMP JUMPDEST DUP2 SWAP3 SWAP2 SLOAD SWAP1 PUSH1 0x3 SHL SWAP2 PUSH1 0x1 DUP1 PUSH1 0xA0 SHL SUB DUP1 SWAP2 AND DUP4 SHL SWAP3 SHL NOT AND OR SWAP1 SSTORE JUMP JUMPDEST SWAP1 DUP1 PUSH1 0x20 SWAP4 SWAP3 DUP2 DUP5 MSTORE DUP5 DUP5 ADD CALLDATACOPY PUSH1 0x0 DUP3 DUP3 ADD DUP5 ADD MSTORE PUSH1 0x1F ADD PUSH1 0x1F NOT AND ADD ADD SWAP1 JUMP JUMPDEST SWAP1 PUSH2 0x18D1 PUSH1 0xFF SWAP2 PUSH1 0x40 SWAP5 SWAP8 SWAP7 SWAP6 SWAP8 PUSH1 0x60 DUP6 MSTORE PUSH1 0x60 DUP6 ADD SWAP2 PUSH2 0x1894 JUMP JUMPDEST SWAP6 AND PUSH1 0x20 DUP3 ADD MSTORE ADD MSTORE JUMP JUMPDEST PUSH1 0x0 NOT DUP2 EQ PUSH2 0x18EB JUMPI PUSH1 0x1 ADD SWAP1 JUMP JUMPDEST PUSH4 0x4E487B71 PUSH1 0xE0 SHL PUSH1 0x0 MSTORE PUSH1 0x11 PUSH1 0x4 MSTORE PUSH1 0x24 PUSH1 0x0 REVERT JUMPDEST SWAP2 SWAP1 DUP2 LT ISZERO PUSH2 0x183C JUMPI PUSH1 0x5 SHL ADD SWAP1 JUMP JUMPDEST CALLDATALOAD PUSH1 0x1 PUSH1 0x1 PUSH1 0xA0 SHL SUB DUP2 AND DUP2 SUB PUSH2 0x23E JUMPI SWAP1 JUMP JUMPDEST CALLDATALOAD PUSH1 0xFF DUP2 AND DUP2 SUB PUSH2 0x23E JUMPI SWAP1 JUMP JUMPDEST SWAP2 SWAP1 DUP2 LT ISZERO PUSH2 0x183C JUMPI PUSH1 0x5 SHL DUP2 ADD CALLDATALOAD SWAP1 PUSH1 0x1E NOT DUP2 CALLDATASIZE SUB ADD DUP3 SLT ISZERO PUSH2 0x23E JUMPI ADD SWAP1 DUP2 CALLDATALOAD SWAP2 PUSH1 0x1 PUSH1 0x1 PUSH1 0x40 SHL SUB DUP4 GT PUSH2 0x23E JUMPI PUSH1 0x20 ADD DUP3 CALLDATASIZE SUB DUP2 SGT PUSH2 0x23E JUMPI SWAP2 SWAP1 JUMP JUMPDEST PUSH1 0x1 PUSH1 0x1 PUSH1 0xA0 SHL SUB AND PUSH1 0x0 SWAP1 DUP2 MSTORE PUSH1 0x4 PUSH1 0x20 MSTORE PUSH1 0x40 SWAP1 KECCAK256 SLOAD PUSH1 0xFF AND ISZERO PUSH2 0x19C1 JUMPI PUSH1 0x2 PUSH1 0x20 MSTORE PUSH1 0x40 PUSH1 0x0 KECCAK256 PUSH1 0xFF PUSH1 0x3 DUP3 ADD SLOAD AND SWAP1 DUP2 PUSH2 0x19B0 JUMPI POP SWAP1 JUMP JUMPDEST PUSH1 0x1 SWAP2 POP PUSH1 0xFF SWAP1 SLOAD PUSH1 0xA0 SHR AND LT ISZERO SWAP1 JUMP JUMPDEST PUSH1 0x0 SWAP1 JUMP JUMPDEST PUSH1 0x1 PUSH1 0x1 PUSH1 0xA0 SHL SUB AND PUSH1 0x0 SWAP1 DUP2 MSTORE PUSH1 0x4 PUSH1 0x20 MSTORE PUSH1 0x40 SWAP1 KECCAK256 SLOAD PUSH1 0xFF AND ISZERO PUSH2 0x1A16 JUMPI PUSH1 0x2 PUSH1 0x20 MSTORE PUSH1 0x40 PUSH1 0x0 KECCAK256 SWAP1 PUSH1 0xFF PUSH1 0x3 DUP4 ADD SLOAD AND SWAP2 DUP3 PUSH2 0x1A04 JUMPI POP POP SWAP1 JUMP JUMPDEST SLOAD PUSH1 0xA0 SHR PUSH1 0xFF SWAP1 DUP2 AND SWAP2 AND GT ISZERO SWAP2 SWAP1 POP JUMP JUMPDEST POP PUSH1 0x0 SWAP1 JUMP JUMPDEST ISZERO PUSH2 0x1A23 JUMPI JUMP JUMPDEST PUSH1 0x40 MLOAD PUSH3 0x461BCD PUSH1 0xE5 SHL DUP2 MSTORE PUSH1 0x20 PUSH1 0x4 DUP3 ADD MSTORE PUSH1 0x27 PUSH1 0x24 DUP3 ADD MSTORE PUSH32 0x4964656E7469747952656769737472793A2077616C6C6574206E6F7420726567 PUSH1 0x44 DUP3 ADD MSTORE PUSH7 0x1A5CDD195C9959 PUSH1 0xCA SHL PUSH1 0x64 DUP3 ADD MSTORE PUSH1 0x84 SWAP1 REVERT JUMPDEST SWAP1 PUSH1 0x40 MLOAD SWAP2 DUP3 PUSH1 0x0 DUP3 SLOAD SWAP3 PUSH2 0x1A8C DUP5 PUSH2 0x17CB JUMP JUMPDEST SWAP1 DUP2 DUP5 MSTORE PUSH1 0x1 SWAP5 DUP6 DUP2 AND SWAP1 DUP2 PUSH1 0x0 EQ PUSH2 0x1AFB JUMPI POP PUSH1 0x1 EQ PUSH2 0x1AB8 JUMPI JUMPDEST POP POP PUSH2 0x1AB6 SWAP3 POP SUB DUP4 PUSH2 0x1764 JUMP JUMPDEST JUMP JUMPDEST SWAP1 SWAP4 SWAP2 POP PUSH1 0x0 MSTORE PUSH1 0x20 SWAP1 DUP2 PUSH1 0x0 KECCAK256 SWAP4 PUSH1 0x0 SWAP2 JUMPDEST DUP2 DUP4 LT PUSH2 0x1AE3 JUMPI POP POP PUSH2 0x1AB6 SWAP4 POP DUP3 ADD ADD CODESIZE DUP1 PUSH2 0x1AA8 JUMP JUMPDEST DUP6 SLOAD DUP9 DUP5 ADD DUP6 ADD MSTORE SWAP5 DUP6 ADD SWAP5 DUP8 SWAP5 POP SWAP2 DUP4 ADD SWAP2 PUSH2 0x1ACB JUMP JUMPDEST SWAP2 POP POP PUSH2 0x1AB6 SWAP5 POP PUSH1 0x20 SWAP3 POP PUSH1 0xFF NOT AND DUP3 DUP5 ADD MSTORE ISZERO ISZERO PUSH1 0x5 SHL DUP3 ADD ADD CODESIZE DUP1 PUSH2 0x1AA8 JUMP JUMPDEST PUSH1 0x1 DUP1 PUSH1 0xA0 SHL SUB AND DUP1 PUSH1 0x0 MSTORE PUSH1 0x20 SWAP1 PUSH1 0x4 DUP3 MSTORE PUSH1 0x40 SWAP1 PUSH1 0xFF DUP3 PUSH1 0x0 KECCAK256 SLOAD AND ISZERO PUSH2 0x1C1D JUMPI PUSH1 0x0 MSTORE PUSH1 0x2 DUP3 MSTORE DUP1 PUSH1 0x0 KECCAK256 PUSH1 0xFF PUSH1 0x3 DUP2 DUP4 SLOAD PUSH1 0xA0 SHR AND SWAP3 ADD SLOAD AND ISZERO PUSH2 0x1C05 JUMPI PUSH1 0x1 DUP2 EQ PUSH2 0x1BE4 JUMPI PUSH1 0x2 DUP2 EQ PUSH2 0x1BBF JUMPI PUSH1 0x3 EQ PUSH2 0x1B98 JUMPI PUSH7 0x2AA725A727ABA7 PUSH1 0xC9 SHL SWAP1 MLOAD SWAP2 PUSH2 0x1B8E DUP4 PUSH2 0x1749 JUMP JUMPDEST PUSH1 0x7 DUP4 MSTORE DUP3 ADD MSTORE SWAP1 JUMP JUMPDEST PUSH13 0x125394D5125515551253D39053 PUSH1 0x9A SHL SWAP1 MLOAD SWAP2 PUSH2 0x1BB5 DUP4 PUSH2 0x1749 JUMP JUMPDEST PUSH1 0xD DUP4 MSTORE DUP3 ADD MSTORE SWAP1 JUMP JUMPDEST POP PUSH10 0x1050D0D4915112551151 PUSH1 0xB2 SHL SWAP1 MLOAD SWAP2 PUSH2 0x1BDA DUP4 PUSH2 0x1749 JUMP JUMPDEST PUSH1 0xA DUP4 MSTORE DUP3 ADD MSTORE SWAP1 JUMP JUMPDEST POP PUSH6 0x149155105253 PUSH1 0xD2 SHL SWAP1 MLOAD SWAP2 PUSH2 0x1BFB DUP4 PUSH2 0x1749 JUMP JUMPDEST PUSH1 0x6 DUP4 MSTORE DUP3 ADD MSTORE SWAP1 JUMP JUMPDEST POP PUSH7 0x14915593D2D151 PUSH1 0xCA SHL SWAP1 MLOAD SWAP2 PUSH2 0x1B8E DUP4 PUSH2 0x1749 JUMP JUMPDEST POP PUSH10 0x15539591549251925151 PUSH1 0xB2 SHL SWAP1 MLOAD SWAP2 PUSH2 0x1BDA DUP4 PUSH2 0x1749 JUMP JUMPDEST ISZERO PUSH2 0x1C3F JUMPI JUMP JUMPDEST PUSH1 0x40 MLOAD PUSH3 0x461BCD PUSH1 0xE5 SHL DUP2 MSTORE PUSH1 0x20 PUSH1 0x4 DUP3 ADD MSTORE PUSH1 0x1B PUSH1 0x24 DUP3 ADD MSTORE PUSH32 0x4964656E7469747952656769737472793A206E6F74206F776E65720000000000 PUSH1 0x44 DUP3 ADD MSTORE PUSH1 0x64 SWAP1 REVERT INVALID 0xCB 0xCE TIMESTAMP 0x2C PUSH12 0x6427CC0E9730C4131E9A7B90 PUSH31 0x803D4B40AB8F797841B9053CA76A2646970667358221220D7D15C88C94C6E 0xDA 0xC4 PUSH24 0x2B578BDDFBD1979D972CCC32470235BBCAB572B7B146473 PUSH16 0x6C634300081300330000000000000000 "},"methodIdentifiers":{"addOperator(address)":"9870d7fe","batchRegister(address[],string[],uint8[],string)":"4ea69df0","getIdentity(address)":"2fea7b81","getRegisteredWallets()":"7d23e857","isVerified(address)":"b9209e33","kycLevelCounts()":"736b776f","kycLevelLabel(address)":"8628353f","meetsKycLevel(address,uint8)":"8fcd7194","operators(address)":"13e7c9d8","owner()":"8da5cb5b","registerInvestor(address,string,uint8,string)":"d94a1e9f","removeOperator(address)":"ac8a584a","restoreIdentity(address)":"26fc759c","revokeIdentity(address,string)":"409c0f76","setTokenContract(address)":"bbcd5bbe","tokenContract()":"55a373d6","totalActive()":"57759600","totalRegistered()":"927416c0","updateKycLevel(address,uint8)":"ddf143a9"}}}}}