{"contracts/AgentVault.sol":{"AgentVault":{"abi":[{"inputs":[{"internalType":"address","name":"_operator","type":"address"},{"internalType":"address","name":"_oracle","type":"address"},{"internalType":"address","name":"_identityRegistry","type":"address"},{"internalType":"address","name":"_milestoneEscrow","type":"address"},{"internalType":"uint256","name":"_minCIS","type":"uint256"},{"internalType":"uint256","name":"_maxAllocationBps","type":"uint256"}],"stateMutability":"nonpayable","type":"constructor"},{"anonymous":false,"inputs":[{"indexed":false,"internalType":"bool","name":"active","type":"bool"},{"indexed":false,"internalType":"address","name":"by","type":"address"}],"name":"AgentToggled","type":"event"},{"anonymous":false,"inputs":[{"indexed":true,"internalType":"address","name":"user","type":"address"},{"indexed":false,"internalType":"uint256","name":"amount","type":"uint256"},{"indexed":false,"internalType":"uint256","name":"newTotal","type":"uint256"}],"name":"Deposited","type":"event"},{"anonymous":false,"inputs":[{"indexed":true,"internalType":"address","name":"owner","type":"address"},{"indexed":false,"internalType":"uint256","name":"amount","type":"uint256"},{"indexed":false,"internalType":"uint256","name":"blockNumber","type":"uint256"}],"name":"EmergencyWithdrawal","type":"event"},{"anonymous":false,"inputs":[{"indexed":true,"internalType":"bytes32","name":"investmentId","type":"bytes32"},{"indexed":true,"internalType":"address","name":"startup","type":"address"},{"indexed":false,"internalType":"uint256","name":"amount","type":"uint256"},{"indexed":false,"internalType":"uint256","name":"cisScore","type":"uint256"},{"indexed":false,"internalType":"string","name":"investmentType","type":"string"},{"indexed":false,"internalType":"string","name":"reason","type":"string"}],"name":"InvestmentExecuted","type":"event"},{"anonymous":false,"inputs":[{"indexed":false,"internalType":"uint256","name":"newMinCIS","type":"uint256"},{"indexed":false,"internalType":"uint256","name":"newMaxAllocationBps","type":"uint256"}],"name":"ParametersUpdated","type":"event"},{"anonymous":false,"inputs":[{"indexed":true,"internalType":"address","name":"startup","type":"address"},{"indexed":false,"internalType":"uint256","name":"amountRecovered","type":"uint256"},{"indexed":false,"internalType":"uint256","name":"riskScore","type":"uint256"}],"name":"RiskTriggeredWithdrawal","type":"event"},{"inputs":[],"name":"agentActive","outputs":[{"internalType":"bool","name":"","type":"bool"}],"stateMutability":"view","type":"function"},{"inputs":[],"name":"available","outputs":[{"internalType":"uint256","name":"","type":"uint256"}],"stateMutability":"view","type":"function"},{"inputs":[],"name":"deposit","outputs":[],"stateMutability":"payable","type":"function"},{"inputs":[],"name":"emergencyFreezeBlock","outputs":[{"internalType":"uint256","name":"","type":"uint256"}],"stateMutability":"view","type":"function"},{"inputs":[],"name":"emergencyWithdraw","outputs":[],"stateMutability":"nonpayable","type":"function"},{"inputs":[{"internalType":"bytes32","name":"id","type":"bytes32"}],"name":"getInvestment","outputs":[{"components":[{"internalType":"bytes32","name":"investmentId","type":"bytes32"},{"internalType":"address","name":"startupWallet","type":"address"},{"internalType":"uint256","name":"amount","type":"uint256"},{"internalType":"uint256","name":"cisScore","type":"uint256"},{"internalType":"string","name":"investmentType","type":"string"},{"internalType":"string","name":"aiReason","type":"string"},{"internalType":"uint256","name":"timestamp","type":"uint256"},{"internalType":"bool","name":"withdrawn","type":"bool"}],"internalType":"struct AgentVault.Investment","name":"","type":"tuple"}],"stateMutability":"view","type":"function"},{"inputs":[],"name":"getInvestmentIds","outputs":[{"internalType":"bytes32[]","name":"","type":"bytes32[]"}],"stateMutability":"view","type":"function"},{"inputs":[],"name":"identityRegistry","outputs":[{"internalType":"address","name":"","type":"address"}],"stateMutability":"view","type":"function"},{"inputs":[{"internalType":"address","name":"startupWallet","type":"address"},{"internalType":"bytes32","name":"startupId","type":"bytes32"},{"internalType":"uint256","name":"amount","type":"uint256"},{"internalType":"uint256","name":"cisScore","type":"uint256"},{"internalType":"string","name":"investmentType","type":"string"},{"internalType":"string","name":"aiReason","type":"string"}],"name":"investTranche","outputs":[],"stateMutability":"nonpayable","type":"function"},{"inputs":[{"internalType":"address","name":"","type":"address"}],"name":"investedPerStartup","outputs":[{"internalType":"uint256","name":"","type":"uint256"}],"stateMutability":"view","type":"function"},{"inputs":[],"name":"investmentCount","outputs":[{"internalType":"uint256","name":"","type":"uint256"}],"stateMutability":"view","type":"function"},{"inputs":[{"internalType":"uint256","name":"","type":"uint256"}],"name":"investmentIds","outputs":[{"internalType":"bytes32","name":"","type":"bytes32"}],"stateMutability":"view","type":"function"},{"inputs":[{"internalType":"bytes32","name":"","type":"bytes32"}],"name":"investments","outputs":[{"internalType":"bytes32","name":"investmentId","type":"bytes32"},{"internalType":"address","name":"startupWallet","type":"address"},{"internalType":"uint256","name":"amount","type":"uint256"},{"internalType":"uint256","name":"cisScore","type":"uint256"},{"internalType":"string","name":"investmentType","type":"string"},{"internalType":"string","name":"aiReason","type":"string"},{"internalType":"uint256","name":"timestamp","type":"uint256"},{"internalType":"bool","name":"withdrawn","type":"bool"}],"stateMutability":"view","type":"function"},{"inputs":[],"name":"maxAllocationBps","outputs":[{"internalType":"uint256","name":"","type":"uint256"}],"stateMutability":"view","type":"function"},{"inputs":[],"name":"milestoneEscrow","outputs":[{"internalType":"address","name":"","type":"address"}],"stateMutability":"view","type":"function"},{"inputs":[],"name":"minCIS","outputs":[{"internalType":"uint256","name":"","type":"uint256"}],"stateMutability":"view","type":"function"},{"inputs":[],"name":"operator","outputs":[{"internalType":"address","name":"","type":"address"}],"stateMutability":"view","type":"function"},{"inputs":[],"name":"oracle","outputs":[{"internalType":"address","name":"","type":"address"}],"stateMutability":"view","type":"function"},{"inputs":[],"name":"owner","outputs":[{"internalType":"address","name":"","type":"address"}],"stateMutability":"view","type":"function"},{"inputs":[],"name":"resetEmergencyFreeze","outputs":[],"stateMutability":"nonpayable","type":"function"},{"inputs":[{"internalType":"address","name":"startupWallet","type":"address"},{"internalType":"uint256","name":"riskScore","type":"uint256"}],"name":"riskTriggeredWithdraw","outputs":[],"stateMutability":"nonpayable","type":"function"},{"inputs":[{"internalType":"address","name":"_operator","type":"address"}],"name":"setOperator","outputs":[],"stateMutability":"nonpayable","type":"function"},{"inputs":[{"internalType":"address","name":"_oracle","type":"address"}],"name":"setOracle","outputs":[],"stateMutability":"nonpayable","type":"function"},{"inputs":[{"internalType":"uint256","name":"_minCIS","type":"uint256"},{"internalType":"uint256","name":"_maxAllocationBps","type":"uint256"}],"name":"setParameters","outputs":[],"stateMutability":"nonpayable","type":"function"},{"inputs":[{"internalType":"bool","name":"active","type":"bool"}],"name":"toggleAgent","outputs":[],"stateMutability":"nonpayable","type":"function"},{"inputs":[],"name":"totalDeposited","outputs":[{"internalType":"uint256","name":"","type":"uint256"}],"stateMutability":"view","type":"function"},{"inputs":[],"name":"totalInvested","outputs":[{"internalType":"uint256","name":"","type":"uint256"}],"stateMutability":"view","type":"function"},{"inputs":[],"name":"vaultBalance","outputs":[{"internalType":"uint256","name":"","type":"uint256"}],"stateMutability":"view","type":"function"},{"inputs":[],"name":"vaultSummary","outputs":[{"internalType":"uint256","name":"balance","type":"uint256"},{"internalType":"uint256","name":"_totalDeposited","type":"uint256"},{"internalType":"uint256","name":"_totalInvested","type":"uint256"},{"internalType":"uint256","name":"count","type":"uint256"},{"internalType":"bool","name":"active","type":"bool"},{"internalType":"uint256","name":"_minCIS","type":"uint256"},{"internalType":"uint256","name":"_maxBps","type":"uint256"}],"stateMutability":"view","type":"function"},{"stateMutability":"payable","type":"receive"}],"evm":{"bytecode":{"linkReferences":{},"object":"60a0346200013057601f62001c5338819003918201601f19168301916001600160401b03831184841017620001355780849260c09460405283398101031262000130576200004d816200014b565b906200005c602082016200014b565b916200006b604083016200014b565b62000079606084016200014b565b60a06080850151940151943360805260018060a01b03928380928160018060a01b03199716876000541617600055168560015416176001551683600254161760025516906003541617600355600455600555600160ff196006541617600655604051611af2908162000161823960805181818161036d015281816103e10152818161060b0152818161066d0152818161075401528181610895015281816108e201528181610b860152818161156601526115af0152f35b600080fd5b634e487b7160e01b600052604160045260246000fd5b51906001600160a01b0382168203620001305756fe608080604052600436101561005f575b50361561001b57600080fd5b610027346007546119a9565b600755476040519034825260208201527f73a19dd210f1a7f902193214c0ee91dd35ee5b4d920cba8d519eca65a7b488ca60403392a2005b600090813560e01c90816303bbecde14611722575080630bf6cc08146116b3578063134e18f4146116f9578063246b0e5c146116db5780632e411a10146116b857806348a0d754146116b35780634f03bd601461165f578063518a9544146116365780635216aeec14611618578063570ca735146115f15780636c4f05661461159857806376b58a0214610bc45780637adbf97314610b5d5780637dc0d1d014610b3457806384425f7d146109f2578063884870c7146108c45780638da5cb5b1461087f578063918eb4ce146107cb5780639babf21c14610792578063b3ab15fb1461072b578063d0e30db01461065b578063d2e1639c146105c1578063d7eb937914610513578063db2e21bc146103b2578063e4ad2f0514610394578063e4e09ecd1461021e578063e83a25c5146101e5578063f1c267b9146101c75763ff50abdc0361000f57346101c457806003193601126101c4576020600754604051908152f35b80fd5b50346101c457806003193601126101c4576020600554604051908152f35b50346101c45760203660031901126101c45760043590600a548210156101c457602061021083611918565b90546040519160031b1c8152f35b50346101c45760403660031901126101c45761023861175f565b6001805490916001600160a01b0391821633148015610369575b1561032b578116919083825b6102a6575b505050808252600c6020527f26e1c85f91352ecefe2dc30df96c5f3987dba184c4ba80b47be7d3a5324d461660408084205481519081526024356020820152a280f35b600a54811015610326576102b981611918565b90549060031b1c8552600b60205260408520848385830154161480610317575b610304575b5060001981146102f05782018261025e565b634e487b7160e01b85526011600452602485fd5b600701805460ff191684179055386102de565b5060ff600782015416156102d9565b610263565b60405162461bcd60e51b81526020600482015260166024820152754167656e745661756c743a206e6f74206f7261636c6560501b6044820152606490fd5b50817f0000000000000000000000000000000000000000000000000000000000000000163314610252565b50346101c457806003193601126101c4576020600454604051908152f35b50346101c457806003193601126101c457600d546103d360ff8216156119cc565b60ff19908116600117600d557f0000000000000000000000000000000000000000000000000000000000000000610414336001600160a01b03831614611965565b479081156104ce578380809381934360095586600654166006556040518281524360208201527f56da9a5ae0bcf6e7c3fdd78a10550e7d0458de1c39bfb7f6e96a3e92dd344a6860403392a25af161046a611a8c565b501561047a57600d5416600d5580f35b60405162461bcd60e51b815260206004820152602660248201527f4167656e745661756c743a207769746864726177616c207472616e736665722060448201526519985a5b195960d21b6064820152608490fd5b60405162461bcd60e51b815260206004820152601760248201527f4167656e745661756c743a207661756c7420656d7074790000000000000000006044820152606490fd5b50346101c45760203660031901126101c4576040906004358152600b60205220805460018060a01b036001830154169160028101546105b060038301546105a261055f60048601611872565b61056b60058701611872565b9260ff600760068901549801541695604051998a998a5260208a0152604089015260608801526101008060808901528701906117a3565b9085820360a08701526117a3565b9160c0840152151560e08301520390f35b50346101c45760203660031901126101c457600435801515809103610657577f2c5d7d87f4f12fcc4fed0227ecbff1d02b0c61b346beb9de58547d868dcb347c90604090610639337f00000000000000000000000000000000000000000000000000000000000000006001600160a01b031614611965565b60ff196006541660ff8216176006558151908152336020820152a180f35b5080fd5b50806003193601126101c45761069b337f00000000000000000000000000000000000000000000000000000000000000006001600160a01b031614611965565b34156106e6576106ad346007546119a9565b600755476040519034825260208201527f73a19dd210f1a7f902193214c0ee91dd35ee5b4d920cba8d519eca65a7b488ca60403392a280f35b60405162461bcd60e51b815260206004820152601860248201527f4167656e745661756c743a207a65726f206465706f73697400000000000000006044820152606490fd5b50346101c45760203660031901126101c45761074561175f565b6001600160a01b039061077b337f0000000000000000000000000000000000000000000000000000000000000000841614611965565b166001600160601b0360a01b600054161760005580f35b50346101c45760203660031901126101c4576020906040906001600160a01b036107ba61175f565b168152600c83522054604051908152f35b50346101c457806003193601126101c4576040518091600a549081835260208093018092600a83527fc65a7bb8d6351c1cf70c95a316cc6a92839c986682d98bc35f958f4883f9d2a890835b81811061086b575050508461082d910385611850565b60405193838594850191818652518092526040850193925b82811061085457505050500390f35b835185528695509381019392810192600101610845565b825484529286019260019283019201610817565b50346101c457806003193601126101c4576040517f00000000000000000000000000000000000000000000000000000000000000006001600160a01b03168152602090f35b50346101c45760403660031901126101c457600435602435610910337f00000000000000000000000000000000000000000000000000000000000000006001600160a01b031614611965565b61271082116109ad57611388811161095d57816040917ffaccb0639ff7851e0e24f3b2d9ab03cd62ffb63f5b4d90aaeff85bb078c1fa48936004558060055582519182526020820152a180f35b60405162461bcd60e51b815260206004820152602260248201527f4167656e745661756c743a206d6178203530252070657220696e766573746d656044820152611b9d60f21b6064820152608490fd5b60405162461bcd60e51b815260206004820152601f60248201527f4167656e745661756c743a20434953206d75737420626520302d3130303030006044820152606490fd5b50346101c457602090816003193601126101c4578060409160e08351610a178161181d565b8281528286820152828582015282606082015260606080820152606060a08201528260c082015201526004358152600b83522060405190610a578261181d565b8054825260018101546001600160a01b03908116848401908152600283015460408501908152600384015460608601908152610b229190610a9a60048701611872565b9160808801928352610aae60058801611872565b9560a0890196875260ff600760068a01549960c08c019a8b520154169560e08a0196151587526040519a8b9a818c5251908b0152511660408901525160608801525160808701525192610b0f610100948560a08901526101208801906117a3565b9051868203601f190160c08801526117a3565b925160e0850152511515908301520390f35b50346101c457806003193601126101c4576001546040516001600160a01b039091168152602090f35b50346101c45760203660031901126101c457610b7761175f565b6001600160a01b0390610bad337f0000000000000000000000000000000000000000000000000000000000000000841614611965565b166001600160601b0360a01b600154161760015580f35b50346101c45760c03660031901126101c457610bde61175f565b9060843567ffffffffffffffff811161065757610bff903690600401611775565b60a49391933567ffffffffffffffff811161159457610c22903690600401611775565b6001600d93929354610c3760ff8216156119cc565b60ff191617600d5584546001600160a01b031633148015611562575b1561151d576009546114cc5760ff60065416156114875760449182351561144357478335116113ff57600454606435106113bb57600554478181029181159183041417156113a7576127109004833511611358576002546001600160a01b031680611274575b506040516001600160601b03198660601b166020820152833560348201526064356054820152426074820152436094820152609481528060c081011067ffffffffffffffff60c0830111176112605760c081016040528051602082012090610d2360c0820161181d565b60c081018290526001600160a01b03871660e08201528435610100820152606435610120820152610d5536848b611a34565b610140820152610d66368588611a34565b61016082015242610180820152876101a0820152818852600b6020526040882060c082015181556001810160018060a01b0360e0840151166001600160601b0360a01b8254161790556101008201516002820155610120820151600382015561014082015180519067ffffffffffffffff8211611180578190610dec60048501546117e3565b601f811161120e575b50602090601f831160011461119f578c92611194575b50508160011b916000199060031b1c19161760048201555b61016082015180519067ffffffffffffffff821161118057610e4860058401546117e3565b601f811161113b575b506020908b601f84116001146110c757926101a094928192600795926110bc575b50508160011b916000199060031b1c19161760058201555b610180840151600682015501910151151560ff80198354169116179055600a54680100000000000000008110156110a857610f618899610ef48360017f5a3cce0073d4529675a3d14916c8f307f63dd4f52bc082a67dbac257e48fd23f959c9b9c01600a55611918565b815460001960039290921b91821b19169086901b1790556001600160a01b038a168952600c602052604089208054610f2e908935906119a9565b9055610f3d87356008546119a9565b60085560405194873586526064356020870152608060408701526080860191611a6b565b83810360608501526001600160a01b03891693908190610f8290878a611a6b565b0390a36003546001600160a01b031615611043576003546001600160a01b0316803b1561103f5760405163098decab60e21b81526001600160a01b0390961660048701526024803590870152606083870152859384928391610fe8916064840191611a6b565b039235905af1801561103457611008575b505b60ff19600d5416600d5580f35b67ffffffffffffffff81116110205760405238610ff9565b634e487b7160e01b82526041600452602482fd5b6040513d84823e3d90fd5b8480fd5b50928280925080918535905af1611058611a8c565b50156110645750610ffb565b6064907f4167656e745661756c743a207472616e73666572206661696c656400000000006040519162461bcd60e51b835260206004840152601b6024840152820152fd5b634e487b7160e01b88526041600452602488fd5b015190503880610e72565b5090600584018c5260208c20918c5b601f19851681106111235750926101a0949260019260079583601f1981161061110a575b505050811b016005820155610e8a565b015160001960f88460031b161c191690553880806110fa565b919260206001819286850151815501940192016110d6565b600584018c5260208c20601f840160051c810160208510611179575b8d601f840160051c8301821061116f57505050610e51565b8155600101611157565b5080611157565b634e487b7160e01b8b52604160045260248bfd5b015190503880610e0b565b9250600484018c5260208c20908c935b601f19841685106111f3576001945083601f198116106111da575b505050811b016004820155610e23565b015160001960f88460031b161c191690553880806111ca565b818101518355602094850194600190930192909101906111af565b909150600484018c5260208c20601f840160051c810160208510611259575b84939291908e5b601f840160051c8301821061124b57505050610df5565b81558594506001018e611234565b508061122d565b634e487b7160e01b87526041600452602487fd5b60405163b9209e3360e01b81526001600160a01b038716600482015290602090829060249082905afa90811561134d57879161130f575b50156112b75738610cb9565b60405162461bcd60e51b815260206004820152602b60248201527f4167656e745661756c743a20737461727475702077616c6c6574206e6f74204b818501526a1650cb5d995c9a599a595960aa1b6064820152608490fd5b90506020813d8211611345575b8161132960209383611850565b810103126113415751801515810361134157386112ab565b8680fd5b3d915061131c565b6040513d89823e3d90fd5b60405162461bcd60e51b815260206004820152602260248201527f4167656e745661756c743a2065786365656473206d617820616c6c6f63617469818501526137b760f11b6064820152608490fd5b634e487b7160e01b87526011600452602487fd5b60405162461bcd60e51b815260206004820152601f60248201527f4167656e745661756c743a204349532062656c6f77207468726573686f6c640081850152606490fd5b60405162461bcd60e51b815260206004820181905260248201527f4167656e745661756c743a20696e73756666696369656e742062616c616e636581850152606490fd5b60405162461bcd60e51b815260206004820152601760248201527f4167656e745661756c743a207a65726f20616d6f756e7400000000000000000081850152606490fd5b60405162461bcd60e51b815260206004820152601b60248201527f4167656e745661756c743a206167656e742069732070617573656400000000006044820152606490fd5b60405162461bcd60e51b815260206004820152602360248201527f4167656e745661756c743a20656d657267656e637920667265657a652061637460448201526269766560e81b6064820152608490fd5b60405162461bcd60e51b815260206004820152601860248201527f4167656e745661756c743a206e6f74206f70657261746f7200000000000000006044820152606490fd5b50337f00000000000000000000000000000000000000000000000000000000000000006001600160a01b031614610c53565b8380fd5b50346101c457806003193601126101c4576115dd337f00000000000000000000000000000000000000000000000000000000000000006001600160a01b031614611965565b80600955600160ff19600654161760065580f35b50346101c457806003193601126101c457546040516001600160a01b039091168152602090f35b50346101c457806003193601126101c4576020600854604051908152f35b50346101c457806003193601126101c4576003546040516001600160a01b039091168152602090f35b50346101c457806003193601126101c45760e047600754600854600a5460ff600654169060045492600554946040519687526020870152604086015260608501521515608084015260a083015260c0820152f35b61173e565b50346101c457806003193601126101c457602060ff600654166040519015158152f35b50346101c457806003193601126101c4576020600a54604051908152f35b50346101c457806003193601126101c4576002546040516001600160a01b039091168152602090f35b9050346106575781600319360112610657576020906009548152f35b3461175a57600036600319011261175a57602047604051908152f35b600080fd5b600435906001600160a01b038216820361175a57565b9181601f8401121561175a5782359167ffffffffffffffff831161175a576020838186019501011161175a57565b919082519283825260005b8481106117cf575050826000602080949584010152601f8019910116010190565b6020818301810151848301820152016117ae565b90600182811c92168015611813575b60208310146117fd57565b634e487b7160e01b600052602260045260246000fd5b91607f16916117f2565b610100810190811067ffffffffffffffff82111761183a57604052565b634e487b7160e01b600052604160045260246000fd5b90601f8019910116810190811067ffffffffffffffff82111761183a57604052565b9060405191826000825492611886846117e3565b9081845260019485811690816000146118f557506001146118b2575b50506118b092500383611850565b565b9093915060005260209081600020936000915b8183106118dd5750506118b0935082010138806118a2565b855488840185015294850194879450918301916118c5565b9150506118b094506020925060ff191682840152151560051b82010138806118a2565b600a5481101561194f57600a6000527fc65a7bb8d6351c1cf70c95a316cc6a92839c986682d98bc35f958f4883f9d2a80190600090565b634e487b7160e01b600052603260045260246000fd5b1561196c57565b60405162461bcd60e51b815260206004820152601560248201527420b3b2b73a2b30bab63a1d103737ba1037bbb732b960591b6044820152606490fd5b919082018092116119b657565b634e487b7160e01b600052601160045260246000fd5b156119d357565b60405162461bcd60e51b815260206004820152601a60248201527f4167656e745661756c743a207265656e7472616e742063616c6c0000000000006044820152606490fd5b67ffffffffffffffff811161183a57601f01601f191660200190565b929192611a4082611a18565b91611a4e6040519384611850565b82948184528183011161175a578281602093846000960137010152565b908060209392818452848401376000828201840152601f01601f1916010190565b3d15611ab7573d90611a9d82611a18565b91611aab6040519384611850565b82523d6000602084013e565b60609056fea264697066735822122070ffe6c5f2c17e269fabf42cb4b691980a9a4c71db47296c640811d1a0ba72b064736f6c63430008130033","opcodes":"PUSH1 0xA0 CALLVALUE PUSH3 0x130 JUMPI PUSH1 0x1F PUSH3 0x1C53 CODESIZE DUP2 SWAP1 SUB SWAP2 DUP3 ADD PUSH1 0x1F NOT AND DUP4 ADD SWAP2 PUSH1 0x1 PUSH1 0x1 PUSH1 0x40 SHL SUB DUP4 GT DUP5 DUP5 LT OR PUSH3 0x135 JUMPI DUP1 DUP5 SWAP3 PUSH1 0xC0 SWAP5 PUSH1 0x40 MSTORE DUP4 CODECOPY DUP2 ADD SUB SLT PUSH3 0x130 JUMPI PUSH3 0x4D DUP2 PUSH3 0x14B JUMP JUMPDEST SWAP1 PUSH3 0x5C PUSH1 0x20 DUP3 ADD PUSH3 0x14B JUMP JUMPDEST SWAP2 PUSH3 0x6B PUSH1 0x40 DUP4 ADD PUSH3 0x14B JUMP JUMPDEST PUSH3 0x79 PUSH1 0x60 DUP5 ADD PUSH3 0x14B JUMP JUMPDEST PUSH1 0xA0 PUSH1 0x80 DUP6 ADD MLOAD SWAP5 ADD MLOAD SWAP5 CALLER PUSH1 0x80 MSTORE PUSH1 0x1 DUP1 PUSH1 0xA0 SHL SUB SWAP3 DUP4 DUP1 SWAP3 DUP2 PUSH1 0x1 DUP1 PUSH1 0xA0 SHL SUB NOT SWAP8 AND DUP8 PUSH1 0x0 SLOAD AND OR PUSH1 0x0 SSTORE AND DUP6 PUSH1 0x1 SLOAD AND OR PUSH1 0x1 SSTORE AND DUP4 PUSH1 0x2 SLOAD AND OR PUSH1 0x2 SSTORE AND SWAP1 PUSH1 0x3 SLOAD AND OR PUSH1 0x3 SSTORE PUSH1 0x4 SSTORE PUSH1 0x5 SSTORE PUSH1 0x1 PUSH1 0xFF NOT PUSH1 0x6 SLOAD AND OR PUSH1 0x6 SSTORE PUSH1 0x40 MLOAD PUSH2 0x1AF2 SWAP1 DUP2 PUSH3 0x161 DUP3 CODECOPY PUSH1 0x80 MLOAD DUP2 DUP2 DUP2 PUSH2 0x36D ADD MSTORE DUP2 DUP2 PUSH2 0x3E1 ADD MSTORE DUP2 DUP2 PUSH2 0x60B ADD MSTORE DUP2 DUP2 PUSH2 0x66D ADD MSTORE DUP2 DUP2 PUSH2 0x754 ADD MSTORE DUP2 DUP2 PUSH2 0x895 ADD MSTORE DUP2 DUP2 PUSH2 0x8E2 ADD MSTORE DUP2 DUP2 PUSH2 0xB86 ADD MSTORE DUP2 DUP2 PUSH2 0x1566 ADD MSTORE PUSH2 0x15AF ADD MSTORE RETURN JUMPDEST PUSH1 0x0 DUP1 REVERT JUMPDEST PUSH4 0x4E487B71 PUSH1 0xE0 SHL PUSH1 0x0 MSTORE PUSH1 0x41 PUSH1 0x4 MSTORE PUSH1 0x24 PUSH1 0x0 REVERT JUMPDEST MLOAD SWAP1 PUSH1 0x1 PUSH1 0x1 PUSH1 0xA0 SHL SUB DUP3 AND DUP3 SUB PUSH3 0x130 JUMPI JUMP INVALID PUSH1 0x80 DUP1 PUSH1 0x40 MSTORE PUSH1 0x4 CALLDATASIZE LT ISZERO PUSH2 0x5F JUMPI JUMPDEST POP CALLDATASIZE ISZERO PUSH2 0x1B JUMPI PUSH1 0x0 DUP1 REVERT JUMPDEST PUSH2 0x27 CALLVALUE PUSH1 0x7 SLOAD PUSH2 0x19A9 JUMP JUMPDEST PUSH1 0x7 SSTORE SELFBALANCE PUSH1 0x40 MLOAD SWAP1 CALLVALUE DUP3 MSTORE PUSH1 0x20 DUP3 ADD MSTORE PUSH32 0x73A19DD210F1A7F902193214C0EE91DD35EE5B4D920CBA8D519ECA65A7B488CA PUSH1 0x40 CALLER SWAP3 LOG2 STOP JUMPDEST PUSH1 0x0 SWAP1 DUP2 CALLDATALOAD PUSH1 0xE0 SHR SWAP1 DUP2 PUSH4 0x3BBECDE EQ PUSH2 0x1722 JUMPI POP DUP1 PUSH4 0xBF6CC08 EQ PUSH2 0x16B3 JUMPI DUP1 PUSH4 0x134E18F4 EQ PUSH2 0x16F9 JUMPI DUP1 PUSH4 0x246B0E5C EQ PUSH2 0x16DB JUMPI DUP1 PUSH4 0x2E411A10 EQ PUSH2 0x16B8 JUMPI DUP1 PUSH4 0x48A0D754 EQ PUSH2 0x16B3 JUMPI DUP1 PUSH4 0x4F03BD60 EQ PUSH2 0x165F JUMPI DUP1 PUSH4 0x518A9544 EQ PUSH2 0x1636 JUMPI DUP1 PUSH4 0x5216AEEC EQ PUSH2 0x1618 JUMPI DUP1 PUSH4 0x570CA735 EQ PUSH2 0x15F1 JUMPI DUP1 PUSH4 0x6C4F0566 EQ PUSH2 0x1598 JUMPI DUP1 PUSH4 0x76B58A02 EQ PUSH2 0xBC4 JUMPI DUP1 PUSH4 0x7ADBF973 EQ PUSH2 0xB5D JUMPI DUP1 PUSH4 0x7DC0D1D0 EQ PUSH2 0xB34 JUMPI DUP1 PUSH4 0x84425F7D EQ PUSH2 0x9F2 JUMPI DUP1 PUSH4 0x884870C7 EQ PUSH2 0x8C4 JUMPI DUP1 PUSH4 0x8DA5CB5B EQ PUSH2 0x87F JUMPI DUP1 PUSH4 0x918EB4CE EQ PUSH2 0x7CB JUMPI DUP1 PUSH4 0x9BABF21C EQ PUSH2 0x792 JUMPI DUP1 PUSH4 0xB3AB15FB EQ PUSH2 0x72B JUMPI DUP1 PUSH4 0xD0E30DB0 EQ PUSH2 0x65B JUMPI DUP1 PUSH4 0xD2E1639C EQ PUSH2 0x5C1 JUMPI DUP1 PUSH4 0xD7EB9379 EQ PUSH2 0x513 JUMPI DUP1 PUSH4 0xDB2E21BC EQ PUSH2 0x3B2 JUMPI DUP1 PUSH4 0xE4AD2F05 EQ PUSH2 0x394 JUMPI DUP1 PUSH4 0xE4E09ECD EQ PUSH2 0x21E JUMPI DUP1 PUSH4 0xE83A25C5 EQ PUSH2 0x1E5 JUMPI DUP1 PUSH4 0xF1C267B9 EQ PUSH2 0x1C7 JUMPI PUSH4 0xFF50ABDC SUB PUSH2 0xF JUMPI CALLVALUE PUSH2 0x1C4 JUMPI DUP1 PUSH1 0x3 NOT CALLDATASIZE ADD SLT PUSH2 0x1C4 JUMPI PUSH1 0x20 PUSH1 0x7 SLOAD PUSH1 0x40 MLOAD SWAP1 DUP2 MSTORE RETURN JUMPDEST DUP1 REVERT JUMPDEST POP CALLVALUE PUSH2 0x1C4 JUMPI DUP1 PUSH1 0x3 NOT CALLDATASIZE ADD SLT PUSH2 0x1C4 JUMPI PUSH1 0x20 PUSH1 0x5 SLOAD PUSH1 0x40 MLOAD SWAP1 DUP2 MSTORE RETURN JUMPDEST POP CALLVALUE PUSH2 0x1C4 JUMPI PUSH1 0x20 CALLDATASIZE PUSH1 0x3 NOT ADD SLT PUSH2 0x1C4 JUMPI PUSH1 0x4 CALLDATALOAD SWAP1 PUSH1 0xA SLOAD DUP3 LT ISZERO PUSH2 0x1C4 JUMPI PUSH1 0x20 PUSH2 0x210 DUP4 PUSH2 0x1918 JUMP JUMPDEST SWAP1 SLOAD PUSH1 0x40 MLOAD SWAP2 PUSH1 0x3 SHL SHR DUP2 MSTORE RETURN JUMPDEST POP CALLVALUE PUSH2 0x1C4 JUMPI PUSH1 0x40 CALLDATASIZE PUSH1 0x3 NOT ADD SLT PUSH2 0x1C4 JUMPI PUSH2 0x238 PUSH2 0x175F JUMP JUMPDEST PUSH1 0x1 DUP1 SLOAD SWAP1 SWAP2 PUSH1 0x1 PUSH1 0x1 PUSH1 0xA0 SHL SUB SWAP2 DUP3 AND CALLER EQ DUP1 ISZERO PUSH2 0x369 JUMPI JUMPDEST ISZERO PUSH2 0x32B JUMPI DUP2 AND SWAP2 SWAP1 DUP4 DUP3 JUMPDEST PUSH2 0x2A6 JUMPI JUMPDEST POP POP POP DUP1 DUP3 MSTORE PUSH1 0xC PUSH1 0x20 MSTORE PUSH32 0x26E1C85F91352ECEFE2DC30DF96C5F3987DBA184C4BA80B47BE7D3A5324D4616 PUSH1 0x40 DUP1 DUP5 KECCAK256 SLOAD DUP2 MLOAD SWAP1 DUP2 MSTORE PUSH1 0x24 CALLDATALOAD PUSH1 0x20 DUP3 ADD MSTORE LOG2 DUP1 RETURN JUMPDEST PUSH1 0xA SLOAD DUP2 LT ISZERO PUSH2 0x326 JUMPI PUSH2 0x2B9 DUP2 PUSH2 0x1918 JUMP JUMPDEST SWAP1 SLOAD SWAP1 PUSH1 0x3 SHL SHR DUP6 MSTORE PUSH1 0xB PUSH1 0x20 MSTORE PUSH1 0x40 DUP6 KECCAK256 DUP5 DUP4 DUP6 DUP4 ADD SLOAD AND EQ DUP1 PUSH2 0x317 JUMPI JUMPDEST PUSH2 0x304 JUMPI JUMPDEST POP PUSH1 0x0 NOT DUP2 EQ PUSH2 0x2F0 JUMPI DUP3 ADD DUP3 PUSH2 0x25E JUMP JUMPDEST PUSH4 0x4E487B71 PUSH1 0xE0 SHL DUP6 MSTORE PUSH1 0x11 PUSH1 0x4 MSTORE PUSH1 0x24 DUP6 REVERT JUMPDEST PUSH1 0x7 ADD DUP1 SLOAD PUSH1 0xFF NOT AND DUP5 OR SWAP1 SSTORE CODESIZE PUSH2 0x2DE JUMP JUMPDEST POP PUSH1 0xFF PUSH1 0x7 DUP3 ADD SLOAD AND ISZERO PUSH2 0x2D9 JUMP JUMPDEST PUSH2 0x263 JUMP JUMPDEST PUSH1 0x40 MLOAD PUSH3 0x461BCD PUSH1 0xE5 SHL DUP2 MSTORE PUSH1 0x20 PUSH1 0x4 DUP3 ADD MSTORE PUSH1 0x16 PUSH1 0x24 DUP3 ADD MSTORE PUSH22 0x4167656E745661756C743A206E6F74206F7261636C65 PUSH1 0x50 SHL PUSH1 0x44 DUP3 ADD MSTORE PUSH1 0x64 SWAP1 REVERT JUMPDEST POP DUP2 PUSH32 0x0 AND CALLER EQ PUSH2 0x252 JUMP JUMPDEST POP CALLVALUE PUSH2 0x1C4 JUMPI DUP1 PUSH1 0x3 NOT CALLDATASIZE ADD SLT PUSH2 0x1C4 JUMPI PUSH1 0x20 PUSH1 0x4 SLOAD PUSH1 0x40 MLOAD SWAP1 DUP2 MSTORE RETURN JUMPDEST POP CALLVALUE PUSH2 0x1C4 JUMPI DUP1 PUSH1 0x3 NOT CALLDATASIZE ADD SLT PUSH2 0x1C4 JUMPI PUSH1 0xD SLOAD PUSH2 0x3D3 PUSH1 0xFF DUP3 AND ISZERO PUSH2 0x19CC JUMP JUMPDEST PUSH1 0xFF NOT SWAP1 DUP2 AND PUSH1 0x1 OR PUSH1 0xD SSTORE PUSH32 0x0 PUSH2 0x414 CALLER PUSH1 0x1 PUSH1 0x1 PUSH1 0xA0 SHL SUB DUP4 AND EQ PUSH2 0x1965 JUMP JUMPDEST SELFBALANCE SWAP1 DUP2 ISZERO PUSH2 0x4CE JUMPI DUP4 DUP1 DUP1 SWAP4 DUP2 SWAP4 NUMBER PUSH1 0x9 SSTORE DUP7 PUSH1 0x6 SLOAD AND PUSH1 0x6 SSTORE PUSH1 0x40 MLOAD DUP3 DUP2 MSTORE NUMBER PUSH1 0x20 DUP3 ADD MSTORE PUSH32 0x56DA9A5AE0BCF6E7C3FDD78A10550E7D0458DE1C39BFB7F6E96A3E92DD344A68 PUSH1 0x40 CALLER SWAP3 LOG2 GAS CALL PUSH2 0x46A PUSH2 0x1A8C JUMP JUMPDEST POP ISZERO PUSH2 0x47A JUMPI PUSH1 0xD SLOAD AND PUSH1 0xD SSTORE DUP1 RETURN JUMPDEST PUSH1 0x40 MLOAD PUSH3 0x461BCD PUSH1 0xE5 SHL DUP2 MSTORE PUSH1 0x20 PUSH1 0x4 DUP3 ADD MSTORE PUSH1 0x26 PUSH1 0x24 DUP3 ADD MSTORE PUSH32 0x4167656E745661756C743A207769746864726177616C207472616E7366657220 PUSH1 0x44 DUP3 ADD MSTORE PUSH6 0x19985A5B1959 PUSH1 0xD2 SHL PUSH1 0x64 DUP3 ADD MSTORE PUSH1 0x84 SWAP1 REVERT JUMPDEST PUSH1 0x40 MLOAD PUSH3 0x461BCD PUSH1 0xE5 SHL DUP2 MSTORE PUSH1 0x20 PUSH1 0x4 DUP3 ADD MSTORE PUSH1 0x17 PUSH1 0x24 DUP3 ADD MSTORE PUSH32 0x4167656E745661756C743A207661756C7420656D707479000000000000000000 PUSH1 0x44 DUP3 ADD MSTORE PUSH1 0x64 SWAP1 REVERT JUMPDEST POP CALLVALUE PUSH2 0x1C4 JUMPI PUSH1 0x20 CALLDATASIZE PUSH1 0x3 NOT ADD SLT PUSH2 0x1C4 JUMPI PUSH1 0x40 SWAP1 PUSH1 0x4 CALLDATALOAD DUP2 MSTORE PUSH1 0xB PUSH1 0x20 MSTORE KECCAK256 DUP1 SLOAD PUSH1 0x1 DUP1 PUSH1 0xA0 SHL SUB PUSH1 0x1 DUP4 ADD SLOAD AND SWAP2 PUSH1 0x2 DUP2 ADD SLOAD PUSH2 0x5B0 PUSH1 0x3 DUP4 ADD SLOAD PUSH2 0x5A2 PUSH2 0x55F PUSH1 0x4 DUP7 ADD PUSH2 0x1872 JUMP JUMPDEST PUSH2 0x56B PUSH1 0x5 DUP8 ADD PUSH2 0x1872 JUMP JUMPDEST SWAP3 PUSH1 0xFF PUSH1 0x7 PUSH1 0x6 DUP10 ADD SLOAD SWAP9 ADD SLOAD AND SWAP6 PUSH1 0x40 MLOAD SWAP10 DUP11 SWAP10 DUP11 MSTORE PUSH1 0x20 DUP11 ADD MSTORE PUSH1 0x40 DUP10 ADD MSTORE PUSH1 0x60 DUP9 ADD MSTORE PUSH2 0x100 DUP1 PUSH1 0x80 DUP10 ADD MSTORE DUP8 ADD SWAP1 PUSH2 0x17A3 JUMP JUMPDEST SWAP1 DUP6 DUP3 SUB PUSH1 0xA0 DUP8 ADD MSTORE PUSH2 0x17A3 JUMP JUMPDEST SWAP2 PUSH1 0xC0 DUP5 ADD MSTORE ISZERO ISZERO PUSH1 0xE0 DUP4 ADD MSTORE SUB SWAP1 RETURN JUMPDEST POP CALLVALUE PUSH2 0x1C4 JUMPI PUSH1 0x20 CALLDATASIZE PUSH1 0x3 NOT ADD SLT PUSH2 0x1C4 JUMPI PUSH1 0x4 CALLDATALOAD DUP1 ISZERO ISZERO DUP1 SWAP2 SUB PUSH2 0x657 JUMPI PUSH32 0x2C5D7D87F4F12FCC4FED0227ECBFF1D02B0C61B346BEB9DE58547D868DCB347C SWAP1 PUSH1 0x40 SWAP1 PUSH2 0x639 CALLER PUSH32 0x0 PUSH1 0x1 PUSH1 0x1 PUSH1 0xA0 SHL SUB AND EQ PUSH2 0x1965 JUMP JUMPDEST PUSH1 0xFF NOT PUSH1 0x6 SLOAD AND PUSH1 0xFF DUP3 AND OR PUSH1 0x6 SSTORE DUP2 MLOAD SWAP1 DUP2 MSTORE CALLER PUSH1 0x20 DUP3 ADD MSTORE LOG1 DUP1 RETURN JUMPDEST POP DUP1 REVERT JUMPDEST POP DUP1 PUSH1 0x3 NOT CALLDATASIZE ADD SLT PUSH2 0x1C4 JUMPI PUSH2 0x69B CALLER PUSH32 0x0 PUSH1 0x1 PUSH1 0x1 PUSH1 0xA0 SHL SUB AND EQ PUSH2 0x1965 JUMP JUMPDEST CALLVALUE ISZERO PUSH2 0x6E6 JUMPI PUSH2 0x6AD CALLVALUE PUSH1 0x7 SLOAD PUSH2 0x19A9 JUMP JUMPDEST PUSH1 0x7 SSTORE SELFBALANCE PUSH1 0x40 MLOAD SWAP1 CALLVALUE DUP3 MSTORE PUSH1 0x20 DUP3 ADD MSTORE PUSH32 0x73A19DD210F1A7F902193214C0EE91DD35EE5B4D920CBA8D519ECA65A7B488CA PUSH1 0x40 CALLER SWAP3 LOG2 DUP1 RETURN JUMPDEST PUSH1 0x40 MLOAD PUSH3 0x461BCD PUSH1 0xE5 SHL DUP2 MSTORE PUSH1 0x20 PUSH1 0x4 DUP3 ADD MSTORE PUSH1 0x18 PUSH1 0x24 DUP3 ADD MSTORE PUSH32 0x4167656E745661756C743A207A65726F206465706F7369740000000000000000 PUSH1 0x44 DUP3 ADD MSTORE PUSH1 0x64 SWAP1 REVERT JUMPDEST POP CALLVALUE PUSH2 0x1C4 JUMPI PUSH1 0x20 CALLDATASIZE PUSH1 0x3 NOT ADD SLT PUSH2 0x1C4 JUMPI PUSH2 0x745 PUSH2 0x175F JUMP JUMPDEST PUSH1 0x1 PUSH1 0x1 PUSH1 0xA0 SHL SUB SWAP1 PUSH2 0x77B CALLER PUSH32 0x0 DUP5 AND EQ PUSH2 0x1965 JUMP JUMPDEST AND PUSH1 0x1 PUSH1 0x1 PUSH1 0x60 SHL SUB PUSH1 0xA0 SHL PUSH1 0x0 SLOAD AND OR PUSH1 0x0 SSTORE DUP1 RETURN JUMPDEST POP CALLVALUE PUSH2 0x1C4 JUMPI PUSH1 0x20 CALLDATASIZE PUSH1 0x3 NOT ADD SLT PUSH2 0x1C4 JUMPI PUSH1 0x20 SWAP1 PUSH1 0x40 SWAP1 PUSH1 0x1 PUSH1 0x1 PUSH1 0xA0 SHL SUB PUSH2 0x7BA PUSH2 0x175F JUMP JUMPDEST AND DUP2 MSTORE PUSH1 0xC DUP4 MSTORE KECCAK256 SLOAD PUSH1 0x40 MLOAD SWAP1 DUP2 MSTORE RETURN JUMPDEST POP CALLVALUE PUSH2 0x1C4 JUMPI DUP1 PUSH1 0x3 NOT CALLDATASIZE ADD SLT PUSH2 0x1C4 JUMPI PUSH1 0x40 MLOAD DUP1 SWAP2 PUSH1 0xA SLOAD SWAP1 DUP2 DUP4 MSTORE PUSH1 0x20 DUP1 SWAP4 ADD DUP1 SWAP3 PUSH1 0xA DUP4 MSTORE PUSH32 0xC65A7BB8D6351C1CF70C95A316CC6A92839C986682D98BC35F958F4883F9D2A8 SWAP1 DUP4 JUMPDEST DUP2 DUP2 LT PUSH2 0x86B JUMPI POP POP POP DUP5 PUSH2 0x82D SWAP2 SUB DUP6 PUSH2 0x1850 JUMP JUMPDEST PUSH1 0x40 MLOAD SWAP4 DUP4 DUP6 SWAP5 DUP6 ADD SWAP2 DUP2 DUP7 MSTORE MLOAD DUP1 SWAP3 MSTORE PUSH1 0x40 DUP6 ADD SWAP4 SWAP3 JUMPDEST DUP3 DUP2 LT PUSH2 0x854 JUMPI POP POP POP POP SUB SWAP1 RETURN JUMPDEST DUP4 MLOAD DUP6 MSTORE DUP7 SWAP6 POP SWAP4 DUP2 ADD SWAP4 SWAP3 DUP2 ADD SWAP3 PUSH1 0x1 ADD PUSH2 0x845 JUMP JUMPDEST DUP3 SLOAD DUP5 MSTORE SWAP3 DUP7 ADD SWAP3 PUSH1 0x1 SWAP3 DUP4 ADD SWAP3 ADD PUSH2 0x817 JUMP JUMPDEST POP CALLVALUE PUSH2 0x1C4 JUMPI DUP1 PUSH1 0x3 NOT CALLDATASIZE ADD SLT PUSH2 0x1C4 JUMPI PUSH1 0x40 MLOAD PUSH32 0x0 PUSH1 0x1 PUSH1 0x1 PUSH1 0xA0 SHL SUB AND DUP2 MSTORE PUSH1 0x20 SWAP1 RETURN JUMPDEST POP CALLVALUE PUSH2 0x1C4 JUMPI PUSH1 0x40 CALLDATASIZE PUSH1 0x3 NOT ADD SLT PUSH2 0x1C4 JUMPI PUSH1 0x4 CALLDATALOAD PUSH1 0x24 CALLDATALOAD PUSH2 0x910 CALLER PUSH32 0x0 PUSH1 0x1 PUSH1 0x1 PUSH1 0xA0 SHL SUB AND EQ PUSH2 0x1965 JUMP JUMPDEST PUSH2 0x2710 DUP3 GT PUSH2 0x9AD JUMPI PUSH2 0x1388 DUP2 GT PUSH2 0x95D JUMPI DUP2 PUSH1 0x40 SWAP2 PUSH32 0xFACCB0639FF7851E0E24F3B2D9AB03CD62FFB63F5B4D90AAEFF85BB078C1FA48 SWAP4 PUSH1 0x4 SSTORE DUP1 PUSH1 0x5 SSTORE DUP3 MLOAD SWAP2 DUP3 MSTORE PUSH1 0x20 DUP3 ADD MSTORE LOG1 DUP1 RETURN JUMPDEST PUSH1 0x40 MLOAD PUSH3 0x461BCD PUSH1 0xE5 SHL DUP2 MSTORE PUSH1 0x20 PUSH1 0x4 DUP3 ADD MSTORE PUSH1 0x22 PUSH1 0x24 DUP3 ADD MSTORE PUSH32 0x4167656E745661756C743A206D6178203530252070657220696E766573746D65 PUSH1 0x44 DUP3 ADD MSTORE PUSH2 0x1B9D PUSH1 0xF2 SHL PUSH1 0x64 DUP3 ADD MSTORE PUSH1 0x84 SWAP1 REVERT JUMPDEST PUSH1 0x40 MLOAD PUSH3 0x461BCD PUSH1 0xE5 SHL DUP2 MSTORE PUSH1 0x20 PUSH1 0x4 DUP3 ADD MSTORE PUSH1 0x1F PUSH1 0x24 DUP3 ADD MSTORE PUSH32 0x4167656E745661756C743A20434953206D75737420626520302D313030303000 PUSH1 0x44 DUP3 ADD MSTORE PUSH1 0x64 SWAP1 REVERT JUMPDEST POP CALLVALUE PUSH2 0x1C4 JUMPI PUSH1 0x20 SWAP1 DUP2 PUSH1 0x3 NOT CALLDATASIZE ADD SLT PUSH2 0x1C4 JUMPI DUP1 PUSH1 0x40 SWAP2 PUSH1 0xE0 DUP4 MLOAD PUSH2 0xA17 DUP2 PUSH2 0x181D JUMP JUMPDEST DUP3 DUP2 MSTORE DUP3 DUP7 DUP3 ADD MSTORE DUP3 DUP6 DUP3 ADD MSTORE DUP3 PUSH1 0x60 DUP3 ADD MSTORE PUSH1 0x60 PUSH1 0x80 DUP3 ADD MSTORE PUSH1 0x60 PUSH1 0xA0 DUP3 ADD MSTORE DUP3 PUSH1 0xC0 DUP3 ADD MSTORE ADD MSTORE PUSH1 0x4 CALLDATALOAD DUP2 MSTORE PUSH1 0xB DUP4 MSTORE KECCAK256 PUSH1 0x40 MLOAD SWAP1 PUSH2 0xA57 DUP3 PUSH2 0x181D JUMP JUMPDEST DUP1 SLOAD DUP3 MSTORE PUSH1 0x1 DUP2 ADD SLOAD PUSH1 0x1 PUSH1 0x1 PUSH1 0xA0 SHL SUB SWAP1 DUP2 AND DUP5 DUP5 ADD SWAP1 DUP2 MSTORE PUSH1 0x2 DUP4 ADD SLOAD PUSH1 0x40 DUP6 ADD SWAP1 DUP2 MSTORE PUSH1 0x3 DUP5 ADD SLOAD PUSH1 0x60 DUP7 ADD SWAP1 DUP2 MSTORE PUSH2 0xB22 SWAP2 SWAP1 PUSH2 0xA9A PUSH1 0x4 DUP8 ADD PUSH2 0x1872 JUMP JUMPDEST SWAP2 PUSH1 0x80 DUP9 ADD SWAP3 DUP4 MSTORE PUSH2 0xAAE PUSH1 0x5 DUP9 ADD PUSH2 0x1872 JUMP JUMPDEST SWAP6 PUSH1 0xA0 DUP10 ADD SWAP7 DUP8 MSTORE PUSH1 0xFF PUSH1 0x7 PUSH1 0x6 DUP11 ADD SLOAD SWAP10 PUSH1 0xC0 DUP13 ADD SWAP11 DUP12 MSTORE ADD SLOAD AND SWAP6 PUSH1 0xE0 DUP11 ADD SWAP7 ISZERO ISZERO DUP8 MSTORE PUSH1 0x40 MLOAD SWAP11 DUP12 SWAP11 DUP2 DUP13 MSTORE MLOAD SWAP1 DUP12 ADD MSTORE MLOAD AND PUSH1 0x40 DUP10 ADD MSTORE MLOAD PUSH1 0x60 DUP9 ADD MSTORE MLOAD PUSH1 0x80 DUP8 ADD MSTORE MLOAD SWAP3 PUSH2 0xB0F PUSH2 0x100 SWAP5 DUP6 PUSH1 0xA0 DUP10 ADD MSTORE PUSH2 0x120 DUP9 ADD SWAP1 PUSH2 0x17A3 JUMP JUMPDEST SWAP1 MLOAD DUP7 DUP3 SUB PUSH1 0x1F NOT ADD PUSH1 0xC0 DUP9 ADD MSTORE PUSH2 0x17A3 JUMP JUMPDEST SWAP3 MLOAD PUSH1 0xE0 DUP6 ADD MSTORE MLOAD ISZERO ISZERO SWAP1 DUP4 ADD MSTORE SUB SWAP1 RETURN JUMPDEST POP CALLVALUE PUSH2 0x1C4 JUMPI DUP1 PUSH1 0x3 NOT CALLDATASIZE ADD SLT PUSH2 0x1C4 JUMPI PUSH1 0x1 SLOAD PUSH1 0x40 MLOAD PUSH1 0x1 PUSH1 0x1 PUSH1 0xA0 SHL SUB SWAP1 SWAP2 AND DUP2 MSTORE PUSH1 0x20 SWAP1 RETURN JUMPDEST POP CALLVALUE PUSH2 0x1C4 JUMPI PUSH1 0x20 CALLDATASIZE PUSH1 0x3 NOT ADD SLT PUSH2 0x1C4 JUMPI PUSH2 0xB77 PUSH2 0x175F JUMP JUMPDEST PUSH1 0x1 PUSH1 0x1 PUSH1 0xA0 SHL SUB SWAP1 PUSH2 0xBAD CALLER PUSH32 0x0 DUP5 AND EQ PUSH2 0x1965 JUMP JUMPDEST AND PUSH1 0x1 PUSH1 0x1 PUSH1 0x60 SHL SUB PUSH1 0xA0 SHL PUSH1 0x1 SLOAD AND OR PUSH1 0x1 SSTORE DUP1 RETURN JUMPDEST POP CALLVALUE PUSH2 0x1C4 JUMPI PUSH1 0xC0 CALLDATASIZE PUSH1 0x3 NOT ADD SLT PUSH2 0x1C4 JUMPI PUSH2 0xBDE PUSH2 0x175F JUMP JUMPDEST SWAP1 PUSH1 0x84 CALLDATALOAD PUSH8 0xFFFFFFFFFFFFFFFF DUP2 GT PUSH2 0x657 JUMPI PUSH2 0xBFF SWAP1 CALLDATASIZE SWAP1 PUSH1 0x4 ADD PUSH2 0x1775 JUMP JUMPDEST PUSH1 0xA4 SWAP4 SWAP2 SWAP4 CALLDATALOAD PUSH8 0xFFFFFFFFFFFFFFFF DUP2 GT PUSH2 0x1594 JUMPI PUSH2 0xC22 SWAP1 CALLDATASIZE SWAP1 PUSH1 0x4 ADD PUSH2 0x1775 JUMP JUMPDEST PUSH1 0x1 PUSH1 0xD SWAP4 SWAP3 SWAP4 SLOAD PUSH2 0xC37 PUSH1 0xFF DUP3 AND ISZERO PUSH2 0x19CC JUMP JUMPDEST PUSH1 0xFF NOT AND OR PUSH1 0xD SSTORE DUP5 SLOAD PUSH1 0x1 PUSH1 0x1 PUSH1 0xA0 SHL SUB AND CALLER EQ DUP1 ISZERO PUSH2 0x1562 JUMPI JUMPDEST ISZERO PUSH2 0x151D JUMPI PUSH1 0x9 SLOAD PUSH2 0x14CC JUMPI PUSH1 0xFF PUSH1 0x6 SLOAD AND ISZERO PUSH2 0x1487 JUMPI PUSH1 0x44 SWAP2 DUP3 CALLDATALOAD ISZERO PUSH2 0x1443 JUMPI SELFBALANCE DUP4 CALLDATALOAD GT PUSH2 0x13FF JUMPI PUSH1 0x4 SLOAD PUSH1 0x64 CALLDATALOAD LT PUSH2 0x13BB JUMPI PUSH1 0x5 SLOAD SELFBALANCE DUP2 DUP2 MUL SWAP2 DUP2 ISZERO SWAP2 DUP4 DIV EQ OR ISZERO PUSH2 0x13A7 JUMPI PUSH2 0x2710 SWAP1 DIV DUP4 CALLDATALOAD GT PUSH2 0x1358 JUMPI PUSH1 0x2 SLOAD PUSH1 0x1 PUSH1 0x1 PUSH1 0xA0 SHL SUB AND DUP1 PUSH2 0x1274 JUMPI JUMPDEST POP PUSH1 0x40 MLOAD PUSH1 0x1 PUSH1 0x1 PUSH1 0x60 SHL SUB NOT DUP7 PUSH1 0x60 SHL AND PUSH1 0x20 DUP3 ADD MSTORE DUP4 CALLDATALOAD PUSH1 0x34 DUP3 ADD MSTORE PUSH1 0x64 CALLDATALOAD PUSH1 0x54 DUP3 ADD MSTORE TIMESTAMP PUSH1 0x74 DUP3 ADD MSTORE NUMBER PUSH1 0x94 DUP3 ADD MSTORE PUSH1 0x94 DUP2 MSTORE DUP1 PUSH1 0xC0 DUP2 ADD LT PUSH8 0xFFFFFFFFFFFFFFFF PUSH1 0xC0 DUP4 ADD GT OR PUSH2 0x1260 JUMPI PUSH1 0xC0 DUP2 ADD PUSH1 0x40 MSTORE DUP1 MLOAD PUSH1 0x20 DUP3 ADD KECCAK256 SWAP1 PUSH2 0xD23 PUSH1 0xC0 DUP3 ADD PUSH2 0x181D JUMP JUMPDEST PUSH1 0xC0 DUP2 ADD DUP3 SWAP1 MSTORE PUSH1 0x1 PUSH1 0x1 PUSH1 0xA0 SHL SUB DUP8 AND PUSH1 0xE0 DUP3 ADD MSTORE DUP5 CALLDATALOAD PUSH2 0x100 DUP3 ADD MSTORE PUSH1 0x64 CALLDATALOAD PUSH2 0x120 DUP3 ADD MSTORE PUSH2 0xD55 CALLDATASIZE DUP5 DUP12 PUSH2 0x1A34 JUMP JUMPDEST PUSH2 0x140 DUP3 ADD MSTORE PUSH2 0xD66 CALLDATASIZE DUP6 DUP9 PUSH2 0x1A34 JUMP JUMPDEST PUSH2 0x160 DUP3 ADD MSTORE TIMESTAMP PUSH2 0x180 DUP3 ADD MSTORE DUP8 PUSH2 0x1A0 DUP3 ADD MSTORE DUP2 DUP9 MSTORE PUSH1 0xB PUSH1 0x20 MSTORE PUSH1 0x40 DUP9 KECCAK256 PUSH1 0xC0 DUP3 ADD MLOAD DUP2 SSTORE PUSH1 0x1 DUP2 ADD PUSH1 0x1 DUP1 PUSH1 0xA0 SHL SUB PUSH1 0xE0 DUP5 ADD MLOAD AND PUSH1 0x1 PUSH1 0x1 PUSH1 0x60 SHL SUB PUSH1 0xA0 SHL DUP3 SLOAD AND OR SWAP1 SSTORE PUSH2 0x100 DUP3 ADD MLOAD PUSH1 0x2 DUP3 ADD SSTORE PUSH2 0x120 DUP3 ADD MLOAD PUSH1 0x3 DUP3 ADD SSTORE PUSH2 0x140 DUP3 ADD MLOAD DUP1 MLOAD SWAP1 PUSH8 0xFFFFFFFFFFFFFFFF DUP3 GT PUSH2 0x1180 JUMPI DUP2 SWAP1 PUSH2 0xDEC PUSH1 0x4 DUP6 ADD SLOAD PUSH2 0x17E3 JUMP JUMPDEST PUSH1 0x1F DUP2 GT PUSH2 0x120E JUMPI JUMPDEST POP PUSH1 0x20 SWAP1 PUSH1 0x1F DUP4 GT PUSH1 0x1 EQ PUSH2 0x119F JUMPI DUP13 SWAP3 PUSH2 0x1194 JUMPI JUMPDEST POP POP DUP2 PUSH1 0x1 SHL SWAP2 PUSH1 0x0 NOT SWAP1 PUSH1 0x3 SHL SHR NOT AND OR PUSH1 0x4 DUP3 ADD SSTORE JUMPDEST PUSH2 0x160 DUP3 ADD MLOAD DUP1 MLOAD SWAP1 PUSH8 0xFFFFFFFFFFFFFFFF DUP3 GT PUSH2 0x1180 JUMPI PUSH2 0xE48 PUSH1 0x5 DUP5 ADD SLOAD PUSH2 0x17E3 JUMP JUMPDEST PUSH1 0x1F DUP2 GT PUSH2 0x113B JUMPI JUMPDEST POP PUSH1 0x20 SWAP1 DUP12 PUSH1 0x1F DUP5 GT PUSH1 0x1 EQ PUSH2 0x10C7 JUMPI SWAP3 PUSH2 0x1A0 SWAP5 SWAP3 DUP2 SWAP3 PUSH1 0x7 SWAP6 SWAP3 PUSH2 0x10BC JUMPI JUMPDEST POP POP DUP2 PUSH1 0x1 SHL SWAP2 PUSH1 0x0 NOT SWAP1 PUSH1 0x3 SHL SHR NOT AND OR PUSH1 0x5 DUP3 ADD SSTORE JUMPDEST PUSH2 0x180 DUP5 ADD MLOAD PUSH1 0x6 DUP3 ADD SSTORE ADD SWAP2 ADD MLOAD ISZERO ISZERO PUSH1 0xFF DUP1 NOT DUP4 SLOAD AND SWAP2 AND OR SWAP1 SSTORE PUSH1 0xA SLOAD PUSH9 0x10000000000000000 DUP2 LT ISZERO PUSH2 0x10A8 JUMPI PUSH2 0xF61 DUP9 SWAP10 PUSH2 0xEF4 DUP4 PUSH1 0x1 PUSH32 0x5A3CCE0073D4529675A3D14916C8F307F63DD4F52BC082A67DBAC257E48FD23F SWAP6 SWAP13 SWAP12 SWAP13 ADD PUSH1 0xA SSTORE PUSH2 0x1918 JUMP JUMPDEST DUP2 SLOAD PUSH1 0x0 NOT PUSH1 0x3 SWAP3 SWAP1 SWAP3 SHL SWAP2 DUP3 SHL NOT AND SWAP1 DUP7 SWAP1 SHL OR SWAP1 SSTORE PUSH1 0x1 PUSH1 0x1 PUSH1 0xA0 SHL SUB DUP11 AND DUP10 MSTORE PUSH1 0xC PUSH1 0x20 MSTORE PUSH1 0x40 DUP10 KECCAK256 DUP1 SLOAD PUSH2 0xF2E SWAP1 DUP10 CALLDATALOAD SWAP1 PUSH2 0x19A9 JUMP JUMPDEST SWAP1 SSTORE PUSH2 0xF3D DUP8 CALLDATALOAD PUSH1 0x8 SLOAD PUSH2 0x19A9 JUMP JUMPDEST PUSH1 0x8 SSTORE PUSH1 0x40 MLOAD SWAP5 DUP8 CALLDATALOAD DUP7 MSTORE PUSH1 0x64 CALLDATALOAD PUSH1 0x20 DUP8 ADD MSTORE PUSH1 0x80 PUSH1 0x40 DUP8 ADD MSTORE PUSH1 0x80 DUP7 ADD SWAP2 PUSH2 0x1A6B JUMP JUMPDEST DUP4 DUP2 SUB PUSH1 0x60 DUP6 ADD MSTORE PUSH1 0x1 PUSH1 0x1 PUSH1 0xA0 SHL SUB DUP10 AND SWAP4 SWAP1 DUP2 SWAP1 PUSH2 0xF82 SWAP1 DUP8 DUP11 PUSH2 0x1A6B JUMP JUMPDEST SUB SWAP1 LOG3 PUSH1 0x3 SLOAD PUSH1 0x1 PUSH1 0x1 PUSH1 0xA0 SHL SUB AND ISZERO PUSH2 0x1043 JUMPI PUSH1 0x3 SLOAD PUSH1 0x1 PUSH1 0x1 PUSH1 0xA0 SHL SUB AND DUP1 EXTCODESIZE ISZERO PUSH2 0x103F JUMPI PUSH1 0x40 MLOAD PUSH4 0x98DECAB PUSH1 0xE2 SHL DUP2 MSTORE PUSH1 0x1 PUSH1 0x1 PUSH1 0xA0 SHL SUB SWAP1 SWAP7 AND PUSH1 0x4 DUP8 ADD MSTORE PUSH1 0x24 DUP1 CALLDATALOAD SWAP1 DUP8 ADD MSTORE PUSH1 0x60 DUP4 DUP8 ADD MSTORE DUP6 SWAP4 DUP5 SWAP3 DUP4 SWAP2 PUSH2 0xFE8 SWAP2 PUSH1 0x64 DUP5 ADD SWAP2 PUSH2 0x1A6B JUMP JUMPDEST SUB SWAP3 CALLDATALOAD SWAP1 GAS CALL DUP1 ISZERO PUSH2 0x1034 JUMPI PUSH2 0x1008 JUMPI JUMPDEST POP JUMPDEST PUSH1 0xFF NOT PUSH1 0xD SLOAD AND PUSH1 0xD SSTORE DUP1 RETURN JUMPDEST PUSH8 0xFFFFFFFFFFFFFFFF DUP2 GT PUSH2 0x1020 JUMPI PUSH1 0x40 MSTORE CODESIZE PUSH2 0xFF9 JUMP JUMPDEST PUSH4 0x4E487B71 PUSH1 0xE0 SHL DUP3 MSTORE PUSH1 0x41 PUSH1 0x4 MSTORE PUSH1 0x24 DUP3 REVERT JUMPDEST PUSH1 0x40 MLOAD RETURNDATASIZE DUP5 DUP3 RETURNDATACOPY RETURNDATASIZE SWAP1 REVERT JUMPDEST DUP5 DUP1 REVERT JUMPDEST POP SWAP3 DUP3 DUP1 SWAP3 POP DUP1 SWAP2 DUP6 CALLDATALOAD SWAP1 GAS CALL PUSH2 0x1058 PUSH2 0x1A8C JUMP JUMPDEST POP ISZERO PUSH2 0x1064 JUMPI POP PUSH2 0xFFB JUMP JUMPDEST PUSH1 0x64 SWAP1 PUSH32 0x4167656E745661756C743A207472616E73666572206661696C65640000000000 PUSH1 0x40 MLOAD SWAP2 PUSH3 0x461BCD PUSH1 0xE5 SHL DUP4 MSTORE PUSH1 0x20 PUSH1 0x4 DUP5 ADD MSTORE PUSH1 0x1B PUSH1 0x24 DUP5 ADD MSTORE DUP3 ADD MSTORE REVERT JUMPDEST PUSH4 0x4E487B71 PUSH1 0xE0 SHL DUP9 MSTORE PUSH1 0x41 PUSH1 0x4 MSTORE PUSH1 0x24 DUP9 REVERT JUMPDEST ADD MLOAD SWAP1 POP CODESIZE DUP1 PUSH2 0xE72 JUMP JUMPDEST POP SWAP1 PUSH1 0x5 DUP5 ADD DUP13 MSTORE PUSH1 0x20 DUP13 KECCAK256 SWAP2 DUP13 JUMPDEST PUSH1 0x1F NOT DUP6 AND DUP2 LT PUSH2 0x1123 JUMPI POP SWAP3 PUSH2 0x1A0 SWAP5 SWAP3 PUSH1 0x1 SWAP3 PUSH1 0x7 SWAP6 DUP4 PUSH1 0x1F NOT DUP2 AND LT PUSH2 0x110A JUMPI JUMPDEST POP POP POP DUP2 SHL ADD PUSH1 0x5 DUP3 ADD SSTORE PUSH2 0xE8A JUMP JUMPDEST ADD MLOAD PUSH1 0x0 NOT PUSH1 0xF8 DUP5 PUSH1 0x3 SHL AND SHR NOT AND SWAP1 SSTORE CODESIZE DUP1 DUP1 PUSH2 0x10FA JUMP JUMPDEST SWAP2 SWAP3 PUSH1 0x20 PUSH1 0x1 DUP2 SWAP3 DUP7 DUP6 ADD MLOAD DUP2 SSTORE ADD SWAP5 ADD SWAP3 ADD PUSH2 0x10D6 JUMP JUMPDEST PUSH1 0x5 DUP5 ADD DUP13 MSTORE PUSH1 0x20 DUP13 KECCAK256 PUSH1 0x1F DUP5 ADD PUSH1 0x5 SHR DUP2 ADD PUSH1 0x20 DUP6 LT PUSH2 0x1179 JUMPI JUMPDEST DUP14 PUSH1 0x1F DUP5 ADD PUSH1 0x5 SHR DUP4 ADD DUP3 LT PUSH2 0x116F JUMPI POP POP POP PUSH2 0xE51 JUMP JUMPDEST DUP2 SSTORE PUSH1 0x1 ADD PUSH2 0x1157 JUMP JUMPDEST POP DUP1 PUSH2 0x1157 JUMP JUMPDEST PUSH4 0x4E487B71 PUSH1 0xE0 SHL DUP12 MSTORE PUSH1 0x41 PUSH1 0x4 MSTORE PUSH1 0x24 DUP12 REVERT JUMPDEST ADD MLOAD SWAP1 POP CODESIZE DUP1 PUSH2 0xE0B JUMP JUMPDEST SWAP3 POP PUSH1 0x4 DUP5 ADD DUP13 MSTORE PUSH1 0x20 DUP13 KECCAK256 SWAP1 DUP13 SWAP4 JUMPDEST PUSH1 0x1F NOT DUP5 AND DUP6 LT PUSH2 0x11F3 JUMPI PUSH1 0x1 SWAP5 POP DUP4 PUSH1 0x1F NOT DUP2 AND LT PUSH2 0x11DA JUMPI JUMPDEST POP POP POP DUP2 SHL ADD PUSH1 0x4 DUP3 ADD SSTORE PUSH2 0xE23 JUMP JUMPDEST ADD MLOAD PUSH1 0x0 NOT PUSH1 0xF8 DUP5 PUSH1 0x3 SHL AND SHR NOT AND SWAP1 SSTORE CODESIZE DUP1 DUP1 PUSH2 0x11CA JUMP JUMPDEST DUP2 DUP2 ADD MLOAD DUP4 SSTORE PUSH1 0x20 SWAP5 DUP6 ADD SWAP5 PUSH1 0x1 SWAP1 SWAP4 ADD SWAP3 SWAP1 SWAP2 ADD SWAP1 PUSH2 0x11AF JUMP JUMPDEST SWAP1 SWAP2 POP PUSH1 0x4 DUP5 ADD DUP13 MSTORE PUSH1 0x20 DUP13 KECCAK256 PUSH1 0x1F DUP5 ADD PUSH1 0x5 SHR DUP2 ADD PUSH1 0x20 DUP6 LT PUSH2 0x1259 JUMPI JUMPDEST DUP5 SWAP4 SWAP3 SWAP2 SWAP1 DUP15 JUMPDEST PUSH1 0x1F DUP5 ADD PUSH1 0x5 SHR DUP4 ADD DUP3 LT PUSH2 0x124B JUMPI POP POP POP PUSH2 0xDF5 JUMP JUMPDEST DUP2 SSTORE DUP6 SWAP5 POP PUSH1 0x1 ADD DUP15 PUSH2 0x1234 JUMP JUMPDEST POP DUP1 PUSH2 0x122D JUMP JUMPDEST PUSH4 0x4E487B71 PUSH1 0xE0 SHL DUP8 MSTORE PUSH1 0x41 PUSH1 0x4 MSTORE PUSH1 0x24 DUP8 REVERT JUMPDEST PUSH1 0x40 MLOAD PUSH4 0xB9209E33 PUSH1 0xE0 SHL DUP2 MSTORE PUSH1 0x1 PUSH1 0x1 PUSH1 0xA0 SHL SUB DUP8 AND PUSH1 0x4 DUP3 ADD MSTORE SWAP1 PUSH1 0x20 SWAP1 DUP3 SWAP1 PUSH1 0x24 SWAP1 DUP3 SWAP1 GAS STATICCALL SWAP1 DUP2 ISZERO PUSH2 0x134D JUMPI DUP8 SWAP2 PUSH2 0x130F JUMPI JUMPDEST POP ISZERO PUSH2 0x12B7 JUMPI CODESIZE PUSH2 0xCB9 JUMP JUMPDEST PUSH1 0x40 MLOAD PUSH3 0x461BCD PUSH1 0xE5 SHL DUP2 MSTORE PUSH1 0x20 PUSH1 0x4 DUP3 ADD MSTORE PUSH1 0x2B PUSH1 0x24 DUP3 ADD MSTORE PUSH32 0x4167656E745661756C743A20737461727475702077616C6C6574206E6F74204B DUP2 DUP6 ADD MSTORE PUSH11 0x1650CB5D995C9A599A5959 PUSH1 0xAA SHL PUSH1 0x64 DUP3 ADD MSTORE PUSH1 0x84 SWAP1 REVERT JUMPDEST SWAP1 POP PUSH1 0x20 DUP2 RETURNDATASIZE DUP3 GT PUSH2 0x1345 JUMPI JUMPDEST DUP2 PUSH2 0x1329 PUSH1 0x20 SWAP4 DUP4 PUSH2 0x1850 JUMP JUMPDEST DUP2 ADD SUB SLT PUSH2 0x1341 JUMPI MLOAD DUP1 ISZERO ISZERO DUP2 SUB PUSH2 0x1341 JUMPI CODESIZE PUSH2 0x12AB JUMP JUMPDEST DUP7 DUP1 REVERT JUMPDEST RETURNDATASIZE SWAP2 POP PUSH2 0x131C JUMP JUMPDEST PUSH1 0x40 MLOAD RETURNDATASIZE DUP10 DUP3 RETURNDATACOPY RETURNDATASIZE SWAP1 REVERT JUMPDEST PUSH1 0x40 MLOAD PUSH3 0x461BCD PUSH1 0xE5 SHL DUP2 MSTORE PUSH1 0x20 PUSH1 0x4 DUP3 ADD MSTORE PUSH1 0x22 PUSH1 0x24 DUP3 ADD MSTORE PUSH32 0x4167656E745661756C743A2065786365656473206D617820616C6C6F63617469 DUP2 DUP6 ADD MSTORE PUSH2 0x37B7 PUSH1 0xF1 SHL PUSH1 0x64 DUP3 ADD MSTORE PUSH1 0x84 SWAP1 REVERT JUMPDEST PUSH4 0x4E487B71 PUSH1 0xE0 SHL DUP8 MSTORE PUSH1 0x11 PUSH1 0x4 MSTORE PUSH1 0x24 DUP8 REVERT JUMPDEST PUSH1 0x40 MLOAD PUSH3 0x461BCD PUSH1 0xE5 SHL DUP2 MSTORE PUSH1 0x20 PUSH1 0x4 DUP3 ADD MSTORE PUSH1 0x1F PUSH1 0x24 DUP3 ADD MSTORE PUSH32 0x4167656E745661756C743A204349532062656C6F77207468726573686F6C6400 DUP2 DUP6 ADD MSTORE PUSH1 0x64 SWAP1 REVERT JUMPDEST PUSH1 0x40 MLOAD PUSH3 0x461BCD PUSH1 0xE5 SHL DUP2 MSTORE PUSH1 0x20 PUSH1 0x4 DUP3 ADD DUP2 SWAP1 MSTORE PUSH1 0x24 DUP3 ADD MSTORE PUSH32 0x4167656E745661756C743A20696E73756666696369656E742062616C616E6365 DUP2 DUP6 ADD MSTORE PUSH1 0x64 SWAP1 REVERT JUMPDEST PUSH1 0x40 MLOAD PUSH3 0x461BCD PUSH1 0xE5 SHL DUP2 MSTORE PUSH1 0x20 PUSH1 0x4 DUP3 ADD MSTORE PUSH1 0x17 PUSH1 0x24 DUP3 ADD MSTORE PUSH32 0x4167656E745661756C743A207A65726F20616D6F756E74000000000000000000 DUP2 DUP6 ADD MSTORE PUSH1 0x64 SWAP1 REVERT JUMPDEST PUSH1 0x40 MLOAD PUSH3 0x461BCD PUSH1 0xE5 SHL DUP2 MSTORE PUSH1 0x20 PUSH1 0x4 DUP3 ADD MSTORE PUSH1 0x1B PUSH1 0x24 DUP3 ADD MSTORE PUSH32 0x4167656E745661756C743A206167656E74206973207061757365640000000000 PUSH1 0x44 DUP3 ADD MSTORE PUSH1 0x64 SWAP1 REVERT JUMPDEST PUSH1 0x40 MLOAD PUSH3 0x461BCD PUSH1 0xE5 SHL DUP2 MSTORE PUSH1 0x20 PUSH1 0x4 DUP3 ADD MSTORE PUSH1 0x23 PUSH1 0x24 DUP3 ADD MSTORE PUSH32 0x4167656E745661756C743A20656D657267656E637920667265657A6520616374 PUSH1 0x44 DUP3 ADD MSTORE PUSH3 0x697665 PUSH1 0xE8 SHL PUSH1 0x64 DUP3 ADD MSTORE PUSH1 0x84 SWAP1 REVERT JUMPDEST PUSH1 0x40 MLOAD PUSH3 0x461BCD PUSH1 0xE5 SHL DUP2 MSTORE PUSH1 0x20 PUSH1 0x4 DUP3 ADD MSTORE PUSH1 0x18 PUSH1 0x24 DUP3 ADD MSTORE PUSH32 0x4167656E745661756C743A206E6F74206F70657261746F720000000000000000 PUSH1 0x44 DUP3 ADD MSTORE PUSH1 0x64 SWAP1 REVERT JUMPDEST POP CALLER PUSH32 0x0 PUSH1 0x1 PUSH1 0x1 PUSH1 0xA0 SHL SUB AND EQ PUSH2 0xC53 JUMP JUMPDEST DUP4 DUP1 REVERT JUMPDEST POP CALLVALUE PUSH2 0x1C4 JUMPI DUP1 PUSH1 0x3 NOT CALLDATASIZE ADD SLT PUSH2 0x1C4 JUMPI PUSH2 0x15DD CALLER PUSH32 0x0 PUSH1 0x1 PUSH1 0x1 PUSH1 0xA0 SHL SUB AND EQ PUSH2 0x1965 JUMP JUMPDEST DUP1 PUSH1 0x9 SSTORE PUSH1 0x1 PUSH1 0xFF NOT PUSH1 0x6 SLOAD AND OR PUSH1 0x6 SSTORE DUP1 RETURN JUMPDEST POP CALLVALUE PUSH2 0x1C4 JUMPI DUP1 PUSH1 0x3 NOT CALLDATASIZE ADD SLT PUSH2 0x1C4 JUMPI SLOAD PUSH1 0x40 MLOAD PUSH1 0x1 PUSH1 0x1 PUSH1 0xA0 SHL SUB SWAP1 SWAP2 AND DUP2 MSTORE PUSH1 0x20 SWAP1 RETURN JUMPDEST POP CALLVALUE PUSH2 0x1C4 JUMPI DUP1 PUSH1 0x3 NOT CALLDATASIZE ADD SLT PUSH2 0x1C4 JUMPI PUSH1 0x20 PUSH1 0x8 SLOAD PUSH1 0x40 MLOAD SWAP1 DUP2 MSTORE RETURN JUMPDEST POP CALLVALUE PUSH2 0x1C4 JUMPI DUP1 PUSH1 0x3 NOT CALLDATASIZE ADD SLT PUSH2 0x1C4 JUMPI PUSH1 0x3 SLOAD PUSH1 0x40 MLOAD PUSH1 0x1 PUSH1 0x1 PUSH1 0xA0 SHL SUB SWAP1 SWAP2 AND DUP2 MSTORE PUSH1 0x20 SWAP1 RETURN JUMPDEST POP CALLVALUE PUSH2 0x1C4 JUMPI DUP1 PUSH1 0x3 NOT CALLDATASIZE ADD SLT PUSH2 0x1C4 JUMPI PUSH1 0xE0 SELFBALANCE PUSH1 0x7 SLOAD PUSH1 0x8 SLOAD PUSH1 0xA SLOAD PUSH1 0xFF PUSH1 0x6 SLOAD AND SWAP1 PUSH1 0x4 SLOAD SWAP3 PUSH1 0x5 SLOAD SWAP5 PUSH1 0x40 MLOAD SWAP7 DUP8 MSTORE PUSH1 0x20 DUP8 ADD MSTORE PUSH1 0x40 DUP7 ADD MSTORE PUSH1 0x60 DUP6 ADD MSTORE ISZERO ISZERO PUSH1 0x80 DUP5 ADD MSTORE PUSH1 0xA0 DUP4 ADD MSTORE PUSH1 0xC0 DUP3 ADD MSTORE RETURN JUMPDEST PUSH2 0x173E JUMP JUMPDEST POP CALLVALUE PUSH2 0x1C4 JUMPI DUP1 PUSH1 0x3 NOT CALLDATASIZE ADD SLT PUSH2 0x1C4 JUMPI PUSH1 0x20 PUSH1 0xFF PUSH1 0x6 SLOAD AND PUSH1 0x40 MLOAD SWAP1 ISZERO ISZERO DUP2 MSTORE RETURN JUMPDEST POP CALLVALUE PUSH2 0x1C4 JUMPI DUP1 PUSH1 0x3 NOT CALLDATASIZE ADD SLT PUSH2 0x1C4 JUMPI PUSH1 0x20 PUSH1 0xA SLOAD PUSH1 0x40 MLOAD SWAP1 DUP2 MSTORE RETURN JUMPDEST POP CALLVALUE PUSH2 0x1C4 JUMPI DUP1 PUSH1 0x3 NOT CALLDATASIZE ADD SLT PUSH2 0x1C4 JUMPI PUSH1 0x2 SLOAD PUSH1 0x40 MLOAD PUSH1 0x1 PUSH1 0x1 PUSH1 0xA0 SHL SUB SWAP1 SWAP2 AND DUP2 MSTORE PUSH1 0x20 SWAP1 RETURN JUMPDEST SWAP1 POP CALLVALUE PUSH2 0x657 JUMPI DUP2 PUSH1 0x3 NOT CALLDATASIZE ADD SLT PUSH2 0x657 JUMPI PUSH1 0x20 SWAP1 PUSH1 0x9 SLOAD DUP2 MSTORE RETURN JUMPDEST CALLVALUE PUSH2 0x175A JUMPI PUSH1 0x0 CALLDATASIZE PUSH1 0x3 NOT ADD SLT PUSH2 0x175A JUMPI PUSH1 0x20 SELFBALANCE PUSH1 0x40 MLOAD SWAP1 DUP2 MSTORE RETURN JUMPDEST PUSH1 0x0 DUP1 REVERT JUMPDEST PUSH1 0x4 CALLDATALOAD SWAP1 PUSH1 0x1 PUSH1 0x1 PUSH1 0xA0 SHL SUB DUP3 AND DUP3 SUB PUSH2 0x175A JUMPI JUMP JUMPDEST SWAP2 DUP2 PUSH1 0x1F DUP5 ADD SLT ISZERO PUSH2 0x175A JUMPI DUP3 CALLDATALOAD SWAP2 PUSH8 0xFFFFFFFFFFFFFFFF DUP4 GT PUSH2 0x175A JUMPI PUSH1 0x20 DUP4 DUP2 DUP7 ADD SWAP6 ADD ADD GT PUSH2 0x175A JUMPI JUMP JUMPDEST SWAP2 SWAP1 DUP3 MLOAD SWAP3 DUP4 DUP3 MSTORE PUSH1 0x0 JUMPDEST DUP5 DUP2 LT PUSH2 0x17CF JUMPI POP POP DUP3 PUSH1 0x0 PUSH1 0x20 DUP1 SWAP5 SWAP6 DUP5 ADD ADD MSTORE PUSH1 0x1F DUP1 NOT SWAP2 ADD AND ADD ADD SWAP1 JUMP JUMPDEST PUSH1 0x20 DUP2 DUP4 ADD DUP2 ADD MLOAD DUP5 DUP4 ADD DUP3 ADD MSTORE ADD PUSH2 0x17AE JUMP JUMPDEST SWAP1 PUSH1 0x1 DUP3 DUP2 SHR SWAP3 AND DUP1 ISZERO PUSH2 0x1813 JUMPI JUMPDEST PUSH1 0x20 DUP4 LT EQ PUSH2 0x17FD JUMPI JUMP JUMPDEST PUSH4 0x4E487B71 PUSH1 0xE0 SHL PUSH1 0x0 MSTORE PUSH1 0x22 PUSH1 0x4 MSTORE PUSH1 0x24 PUSH1 0x0 REVERT JUMPDEST SWAP2 PUSH1 0x7F AND SWAP2 PUSH2 0x17F2 JUMP JUMPDEST PUSH2 0x100 DUP2 ADD SWAP1 DUP2 LT PUSH8 0xFFFFFFFFFFFFFFFF DUP3 GT OR PUSH2 0x183A JUMPI PUSH1 0x40 MSTORE JUMP JUMPDEST PUSH4 0x4E487B71 PUSH1 0xE0 SHL PUSH1 0x0 MSTORE PUSH1 0x41 PUSH1 0x4 MSTORE PUSH1 0x24 PUSH1 0x0 REVERT JUMPDEST SWAP1 PUSH1 0x1F DUP1 NOT SWAP2 ADD AND DUP2 ADD SWAP1 DUP2 LT PUSH8 0xFFFFFFFFFFFFFFFF DUP3 GT OR PUSH2 0x183A JUMPI PUSH1 0x40 MSTORE JUMP JUMPDEST SWAP1 PUSH1 0x40 MLOAD SWAP2 DUP3 PUSH1 0x0 DUP3 SLOAD SWAP3 PUSH2 0x1886 DUP5 PUSH2 0x17E3 JUMP JUMPDEST SWAP1 DUP2 DUP5 MSTORE PUSH1 0x1 SWAP5 DUP6 DUP2 AND SWAP1 DUP2 PUSH1 0x0 EQ PUSH2 0x18F5 JUMPI POP PUSH1 0x1 EQ PUSH2 0x18B2 JUMPI JUMPDEST POP POP PUSH2 0x18B0 SWAP3 POP SUB DUP4 PUSH2 0x1850 JUMP JUMPDEST JUMP JUMPDEST SWAP1 SWAP4 SWAP2 POP PUSH1 0x0 MSTORE PUSH1 0x20 SWAP1 DUP2 PUSH1 0x0 KECCAK256 SWAP4 PUSH1 0x0 SWAP2 JUMPDEST DUP2 DUP4 LT PUSH2 0x18DD JUMPI POP POP PUSH2 0x18B0 SWAP4 POP DUP3 ADD ADD CODESIZE DUP1 PUSH2 0x18A2 JUMP JUMPDEST DUP6 SLOAD DUP9 DUP5 ADD DUP6 ADD MSTORE SWAP5 DUP6 ADD SWAP5 DUP8 SWAP5 POP SWAP2 DUP4 ADD SWAP2 PUSH2 0x18C5 JUMP JUMPDEST SWAP2 POP POP PUSH2 0x18B0 SWAP5 POP PUSH1 0x20 SWAP3 POP PUSH1 0xFF NOT AND DUP3 DUP5 ADD MSTORE ISZERO ISZERO PUSH1 0x5 SHL DUP3 ADD ADD CODESIZE DUP1 PUSH2 0x18A2 JUMP JUMPDEST PUSH1 0xA SLOAD DUP2 LT ISZERO PUSH2 0x194F JUMPI PUSH1 0xA PUSH1 0x0 MSTORE PUSH32 0xC65A7BB8D6351C1CF70C95A316CC6A92839C986682D98BC35F958F4883F9D2A8 ADD SWAP1 PUSH1 0x0 SWAP1 JUMP JUMPDEST PUSH4 0x4E487B71 PUSH1 0xE0 SHL PUSH1 0x0 MSTORE PUSH1 0x32 PUSH1 0x4 MSTORE PUSH1 0x24 PUSH1 0x0 REVERT JUMPDEST ISZERO PUSH2 0x196C JUMPI JUMP JUMPDEST PUSH1 0x40 MLOAD PUSH3 0x461BCD PUSH1 0xE5 SHL DUP2 MSTORE PUSH1 0x20 PUSH1 0x4 DUP3 ADD MSTORE PUSH1 0x15 PUSH1 0x24 DUP3 ADD MSTORE PUSH21 0x20B3B2B73A2B30BAB63A1D103737BA1037BBB732B9 PUSH1 0x59 SHL PUSH1 0x44 DUP3 ADD MSTORE PUSH1 0x64 SWAP1 REVERT JUMPDEST SWAP2 SWAP1 DUP3 ADD DUP1 SWAP3 GT PUSH2 0x19B6 JUMPI JUMP JUMPDEST PUSH4 0x4E487B71 PUSH1 0xE0 SHL PUSH1 0x0 MSTORE PUSH1 0x11 PUSH1 0x4 MSTORE PUSH1 0x24 PUSH1 0x0 REVERT JUMPDEST ISZERO PUSH2 0x19D3 JUMPI JUMP JUMPDEST PUSH1 0x40 MLOAD PUSH3 0x461BCD PUSH1 0xE5 SHL DUP2 MSTORE PUSH1 0x20 PUSH1 0x4 DUP3 ADD MSTORE PUSH1 0x1A PUSH1 0x24 DUP3 ADD MSTORE PUSH32 0x4167656E745661756C743A207265656E7472616E742063616C6C000000000000 PUSH1 0x44 DUP3 ADD MSTORE PUSH1 0x64 SWAP1 REVERT JUMPDEST PUSH8 0xFFFFFFFFFFFFFFFF DUP2 GT PUSH2 0x183A JUMPI PUSH1 0x1F ADD PUSH1 0x1F NOT AND PUSH1 0x20 ADD SWAP1 JUMP JUMPDEST SWAP3 SWAP2 SWAP3 PUSH2 0x1A40 DUP3 PUSH2 0x1A18 JUMP JUMPDEST SWAP2 PUSH2 0x1A4E PUSH1 0x40 MLOAD SWAP4 DUP5 PUSH2 0x1850 JUMP JUMPDEST DUP3 SWAP5 DUP2 DUP5 MSTORE DUP2 DUP4 ADD GT PUSH2 0x175A JUMPI DUP3 DUP2 PUSH1 0x20 SWAP4 DUP5 PUSH1 0x0 SWAP7 ADD CALLDATACOPY ADD ADD MSTORE JUMP JUMPDEST SWAP1 DUP1 PUSH1 0x20 SWAP4 SWAP3 DUP2 DUP5 MSTORE DUP5 DUP5 ADD CALLDATACOPY PUSH1 0x0 DUP3 DUP3 ADD DUP5 ADD MSTORE PUSH1 0x1F ADD PUSH1 0x1F NOT AND ADD ADD SWAP1 JUMP JUMPDEST RETURNDATASIZE ISZERO PUSH2 0x1AB7 JUMPI RETURNDATASIZE SWAP1 PUSH2 0x1A9D DUP3 PUSH2 0x1A18 JUMP JUMPDEST SWAP2 PUSH2 0x1AAB PUSH1 0x40 MLOAD SWAP4 DUP5 PUSH2 0x1850 JUMP JUMPDEST DUP3 MSTORE RETURNDATASIZE PUSH1 0x0 PUSH1 0x20 DUP5 ADD RETURNDATACOPY JUMP JUMPDEST PUSH1 0x60 SWAP1 JUMP INVALID LOG2 PUSH5 0x6970667358 0x22 SLT KECCAK256 PUSH17 0xFFE6C5F2C17E269FABF42CB4B691980A9A 0x4C PUSH18 0xDB47296C640811D1A0BA72B064736F6C6343 STOP ADDMOD SGT STOP CALLER "},"methodIdentifiers":{"agentActive()":"2e411a10","available()":"48a0d754","deposit()":"d0e30db0","emergencyFreezeBlock()":"03bbecde","emergencyWithdraw()":"db2e21bc","getInvestment(bytes32)":"84425f7d","getInvestmentIds()":"918eb4ce","identityRegistry()":"134e18f4","investTranche(address,bytes32,uint256,uint256,string,string)":"76b58a02","investedPerStartup(address)":"9babf21c","investmentCount()":"246b0e5c","investmentIds(uint256)":"e83a25c5","investments(bytes32)":"d7eb9379","maxAllocationBps()":"f1c267b9","milestoneEscrow()":"518a9544","minCIS()":"e4ad2f05","operator()":"570ca735","oracle()":"7dc0d1d0","owner()":"8da5cb5b","resetEmergencyFreeze()":"6c4f0566","riskTriggeredWithdraw(address,uint256)":"e4e09ecd","setOperator(address)":"b3ab15fb","setOracle(address)":"7adbf973","setParameters(uint256,uint256)":"884870c7","toggleAgent(bool)":"d2e1639c","totalDeposited()":"ff50abdc","totalInvested()":"5216aeec","vaultBalance()":"0bf6cc08","vaultSummary()":"4f03bd60"}}}}}