{"contracts/IntelliStakeInvestment.sol":{"IntelliStakeInvestment":{"abi":[{"inputs":[],"stateMutability":"nonpayable","type":"constructor"},{"anonymous":false,"inputs":[{"indexed":true,"internalType":"uint256","name":"dealId","type":"uint256"},{"indexed":true,"internalType":"address","name":"investor","type":"address"},{"indexed":true,"internalType":"address","name":"startup","type":"address"},{"indexed":false,"internalType":"string","name":"startupName","type":"string"},{"indexed":false,"internalType":"uint256","name":"amount","type":"uint256"},{"indexed":false,"internalType":"uint8","name":"trustScore","type":"uint8"}],"name":"InvestmentCreated","type":"event"},{"anonymous":false,"inputs":[{"indexed":true,"internalType":"uint256","name":"dealId","type":"uint256"},{"indexed":false,"internalType":"uint256","name":"amount","type":"uint256"}],"name":"InvestmentRefunded","type":"event"},{"anonymous":false,"inputs":[{"indexed":true,"internalType":"uint256","name":"dealId","type":"uint256"},{"indexed":false,"internalType":"uint256","name":"milestoneIndex","type":"uint256"},{"indexed":false,"internalType":"uint256","name":"amountReleased","type":"uint256"}],"name":"MilestoneCompleted","type":"event"},{"anonymous":false,"inputs":[{"indexed":false,"internalType":"string","name":"name","type":"string"},{"indexed":false,"internalType":"address","name":"wallet","type":"address"},{"indexed":false,"internalType":"string","name":"sector","type":"string"}],"name":"StartupRegistered","type":"event"},{"anonymous":false,"inputs":[{"indexed":true,"internalType":"uint256","name":"dealId","type":"uint256"},{"indexed":false,"internalType":"uint8","name":"oldScore","type":"uint8"},{"indexed":false,"internalType":"uint8","name":"newScore","type":"uint8"}],"name":"TrustScoreUpdated","type":"event"},{"inputs":[],"name":"PLATFORM_FEE_BPS","outputs":[{"internalType":"uint256","name":"","type":"uint256"}],"stateMutability":"view","type":"function"},{"inputs":[{"internalType":"uint256","name":"dealId","type":"uint256"},{"internalType":"uint256","name":"mIdx","type":"uint256"}],"name":"completeMilestone","outputs":[],"stateMutability":"nonpayable","type":"function"},{"inputs":[{"internalType":"address payable","name":"startupWallet","type":"address"},{"internalType":"string","name":"startupName","type":"string"},{"internalType":"string","name":"sector","type":"string"},{"internalType":"uint8","name":"trustScore","type":"uint8"},{"internalType":"uint256","name":"predictedVal","type":"uint256"},{"internalType":"string[]","name":"milestoneDescs","type":"string[]"},{"internalType":"uint256[]","name":"milestoneAmts","type":"uint256[]"},{"internalType":"uint8[]","name":"trustThresholds","type":"uint8[]"}],"name":"createInvestment","outputs":[{"internalType":"uint256","name":"dealId","type":"uint256"}],"stateMutability":"payable","type":"function"},{"inputs":[],"name":"getContractBalance","outputs":[{"internalType":"uint256","name":"","type":"uint256"}],"stateMutability":"view","type":"function"},{"inputs":[{"internalType":"uint256","name":"dealId","type":"uint256"}],"name":"getDealInfo","outputs":[{"internalType":"address","name":"investor","type":"address"},{"internalType":"address","name":"startup","type":"address"},{"internalType":"string","name":"startupName","type":"string"},{"internalType":"uint256","name":"totalAmount","type":"uint256"},{"internalType":"uint256","name":"releasedAmount","type":"uint256"},{"internalType":"uint8","name":"trustScore","type":"uint8"},{"internalType":"enum IntelliStakeInvestment.Status","name":"status","type":"uint8"},{"internalType":"uint256","name":"milestoneCount","type":"uint256"}],"stateMutability":"view","type":"function"},{"inputs":[{"internalType":"address","name":"investor","type":"address"}],"name":"getInvestorDeals","outputs":[{"internalType":"uint256[]","name":"","type":"uint256[]"}],"stateMutability":"view","type":"function"},{"inputs":[{"internalType":"uint256","name":"dealId","type":"uint256"},{"internalType":"uint256","name":"mIdx","type":"uint256"}],"name":"getMilestone","outputs":[{"internalType":"string","name":"desc","type":"string"},{"internalType":"uint256","name":"amount","type":"uint256"},{"internalType":"uint8","name":"threshold","type":"uint8"},{"internalType":"bool","name":"completed","type":"bool"}],"stateMutability":"view","type":"function"},{"inputs":[{"internalType":"uint256","name":"","type":"uint256"}],"name":"investments","outputs":[{"internalType":"address payable","name":"investor","type":"address"},{"internalType":"address payable","name":"startup","type":"address"},{"internalType":"string","name":"startupName","type":"string"},{"internalType":"string","name":"sector","type":"string"},{"internalType":"uint256","name":"totalAmount","type":"uint256"},{"internalType":"uint256","name":"releasedAmount","type":"uint256"},{"internalType":"uint8","name":"aiTrustScore","type":"uint8"},{"internalType":"uint256","name":"predictedValuation","type":"uint256"},{"internalType":"enum IntelliStakeInvestment.Status","name":"status","type":"uint8"},{"internalType":"uint256","name":"createdAt","type":"uint256"},{"internalType":"uint256","name":"lastUpdated","type":"uint256"}],"stateMutability":"view","type":"function"},{"inputs":[{"internalType":"address","name":"","type":"address"},{"internalType":"uint256","name":"","type":"uint256"}],"name":"investorDeals","outputs":[{"internalType":"uint256","name":"","type":"uint256"}],"stateMutability":"view","type":"function"},{"inputs":[],"name":"owner","outputs":[{"internalType":"address","name":"","type":"address"}],"stateMutability":"view","type":"function"},{"inputs":[],"name":"platformFeeAccrued","outputs":[{"internalType":"uint256","name":"","type":"uint256"}],"stateMutability":"view","type":"function"},{"inputs":[{"internalType":"uint256","name":"dealId","type":"uint256"}],"name":"refundInvestor","outputs":[],"stateMutability":"nonpayable","type":"function"},{"inputs":[{"internalType":"string","name":"","type":"string"}],"name":"registeredStartups","outputs":[{"internalType":"bool","name":"","type":"bool"}],"stateMutability":"view","type":"function"},{"inputs":[{"internalType":"address","name":"","type":"address"},{"internalType":"uint256","name":"","type":"uint256"}],"name":"startupDeals","outputs":[{"internalType":"uint256","name":"","type":"uint256"}],"stateMutability":"view","type":"function"},{"inputs":[],"name":"totalInvestments","outputs":[{"internalType":"uint256","name":"","type":"uint256"}],"stateMutability":"view","type":"function"},{"inputs":[],"name":"totalValueLocked","outputs":[{"internalType":"uint256","name":"","type":"uint256"}],"stateMutability":"view","type":"function"},{"inputs":[{"internalType":"uint256","name":"dealId","type":"uint256"},{"internalType":"uint8","name":"newScore","type":"uint8"}],"name":"updateTrustScore","outputs":[],"stateMutability":"nonpayable","type":"function"},{"inputs":[],"name":"withdrawPlatformFees","outputs":[],"stateMutability":"nonpayable","type":"function"},{"stateMutability":"payable","type":"receive"}],"evm":{"bytecode":{"linkReferences":{},"object":"6080806040523461002857600080546001600160a01b0319163317905561178e908161002e8239f35b600080fdfe60a080604052600436101561001d575b50361561001b57600080fd5b005b60003560e01c908163539aa77f1461134c575080636cd29a5d146113025780636f9fb98a146112e657806370fd37cf146112c857806373a4415c146112135780638d0dcfea146111f55780638da5cb5b146111cc5780638df10469146110215780638ed9895c14610faf578063bdbbc24214610f57578063c0233b061461072e578063d0b7830b146106de578063d79ed7dc14610641578063dfb5b3bd146105cf578063e9ddf5c41461051b578063ec18154e146104fd578063f326206b146101d95763fd345c8a146100f0573861000f565b346101d45760203660031901126101d45760043560005260046020526020604060002060018060a01b0390818154169160018201541661013260028301611513565b916101c461014260038301611513565b93600483015494600584015460ff600686015416906101a460078701549361019660ff60088a01541696600a60098b01549a01549a6040519e8f9e8f908152015260408d61016091829101528d01906113cd565b908b820360608d01526113cd565b9760808a015260a089015260c088015260e08701526101008601906113f2565b6101208401526101408301520390f35b600080fd5b346101d4576101e7366113ff565b6000546001600160a01b0391906102019083163314611697565b600261020f815485106116d8565b836000526020916004835260ff60089481866040600020015416600581101561037b5760011480156104da575b6102459061171a565b8660005260048552604060002090600b82019687548510156104955761026b8589611646565b50958087018054978689851c166104575786600687015416878a161161041257479160018201998a548094106103cd576101009061ff0019161790556003429101556102bc600586019182546115d8565b905542600a850155885460019960005b828110610397575b505050909192939495969760001461039157506003905b830191600582101561037b57600160009594869594869594869560ff19835416911617905561031d89546003546115e5565b600355015416865490828215610372575bf115610366577fd4dbda378623f00b72ef135b4579b7ba064c49645217eb107d663831efac63589260409254908351928352820152a2005b6040513d6000823e3d90fd5b506108fc61032e565b634e487b7160e01b600052602160045260246000fd5b906102eb565b87846103a38385611646565b500154861c16156103bc576103b7906115b9565b6102cc565b5060009a508c9150819050806102d4565b60405162461bcd60e51b8152600481018d9052601d60248201527f496e73756666696369656e7420636f6e74726163742062616c616e63650000006044820152606490fd5b60405162461bcd60e51b8152600481018b9052601b60248201527f54727573742073636f72652062656c6f77207468726573686f6c6400000000006044820152606490fd5b60405162461bcd60e51b8152600481018b905260166024820152754d696c6573746f6e6520616c726561647920646f6e6560501b6044820152606490fd5b60405162461bcd60e51b815260048101889052601760248201527f496e76616c6964206d696c6573746f6e6520696e6465780000000000000000006044820152606490fd5b50866000526004855281866040600020015416600581101561037b57841461023c565b346101d45760003660031901126101d4576020600354604051908152f35b346101d4576020806003193601126101d4576001600160a01b0361053d611366565b1660005260058152604060002060405190818382549182815201908192600052846000209060005b868282106105bb57868661057b82880383611472565b604051928392818401908285525180915260408401929160005b8281106105a457505050500390f35b835185528695509381019392810192600101610595565b835485529093019260019283019201610565565b346101d45760203660031901126101d4576004356001600160401b0381116101d457366023820112156101d45760ff61062b602061061881943690602481600401359101611493565b81604051938285809451938492016113aa565b8101600781520301902054166040519015158152f35b346101d45760403660031901126101d45760043560243560ff81168091036101d45760407fe5583c9d083335054c2ee6fb43c923d0018b35fb5b9667c825337eb59d67ab029161069c60018060a01b03600054163314611697565b6106a960025485106116d8565b836000526004602052816000209060068201918254928260ff198516179055600a4291015560ff8351921682526020820152a2005b346101d45760003660031901126101d457600080548190819081906001600160a01b031661070d338214611697565b6001549082600155828215610725575bf11561036657005b506108fc61071d565b6101003660031901126101d4576004356001600160a01b03811681036101d4576024356001600160401b0381116101d45761076d903690600401611415565b906080526044356001600160401b0381116101d457610790903690600401611415565b916064359160ff831683036101d45760a4356001600160401b0381116101d4576107be903690600401611442565b9060c4356001600160401b0381116101d4576107de903690600401611442565b60e4939193356001600160401b0381116101d457610800903690600401611442565b913415610f2257601e60ff8a1610610edd578315610e985780841480610e8f575b15610e525760009560005b828110610e2d57506032340296348804603203610e17576108516127108904346115e5565b10610dd2576002549a6108638c6115b9565b6002558b6000526004602052604060002098336bffffffffffffffffffffffff60a01b8b5416178a558d60018b019060018060a01b03166bffffffffffffffffffffffff60a01b8254161790556001600160401b038b11610ca7576108d88b6108cf60028d01546114d9565b60028d016115f2565b8a6000601f8211600114610d5c57600091610d4f575b508b60011b906000198d60031b1c19161760028b01555b6001600160401b038211610ca757819061092f828c6003610928818301546114d9565b91016115f2565b600090601f8311600114610cde57600092610cd3575b50508160011b916000199060031b1c19161760038901555b61096b6127108804346115e5565b60048901556000600589015560ff8a1660ff1960068a015416176006890155608435600789015560088801600160ff1982541617905542600989015542600a89015560005b858110610aae5750505050505050602095610a06600487946109f96127107f988044ebd29218e9b39af20a628eac00a43fd569ef341a2dc4a4d1d3516ee01b96046001546115d8565b60015501546003546115d8565b6003553360005260058752610a1f836040600020611662565b60018060a01b03811660005260068752610a3d836040600020611662565b60405184608051823787818681016007815203019020600160ff1982541617905560ff6040519560608752856060880152856080516080890137600060808789010152348988015216604086015260018060a01b0316936080813395601f80199101168101030190a4604051908152f35b8060051b870135601e19883603018112156101d4576001600160401b0381890135116101d4578088013536036020828a0101136101d457610af08285856115c8565b3590610afd8388886115c8565b3560ff811681036101d457604051928360a08101106001600160401b0360a086011117610ca75760a0840160405260ff92610b419036908d01803590602001611493565b845260208401521660408201526000606082015260006080820152600b8a0154600160401b811015610ca757806001610b839201600b8d0155600b8c01611646565b919091610cbd5780518051906001600160401b038211610ca757610bb182610bab86546114d9565b866115f2565b602090601f8311600114610c34579282600393608093610c24989796600092610c29575b50508160011b9160001990861b1c19161784555b602081015160018501556002840160ff60408301511681549061ff006060850151151560081b169161ffff19161717905501519101556115b9565b6109b0565b015190503880610bd5565b908460005260206000209160005b601f1985168110610c8f575083608093610c2498979693600193600397601f19811610610c77575b505050811b018455610be9565b015160001983881b60f8161c19169055388080610c6a565b91926020600181928685015181550194019201610c42565b634e487b7160e01b600052604160045260246000fd5b634e487b7160e01b600052600060045260246000fd5b013590508e80610945565b90925060038b016000526020600020906000935b601f1984168510610d37576001945083601f19811610610d1d575b505050811b01600389015561095d565b0135600019600384901b60f8161c191690558e8080610d0d565b81810135835560209485019460019093019201610cf2565b905060805101358f6108ee565b905060028b016000528b6020600020916000608051925b601f1981168210610db857601f198116109050610d9e575b50505060018b811b0160028b0155610905565b013560001960038e901b60f8161c191690558e8080610d8b565b909193602060018192878701358155019501920190610d73565b60405162461bcd60e51b815260206004820152601c60248201527f4d696c6573746f6e652073756d206578636565647320657363726f77000000006044820152606490fd5b634e487b7160e01b600052601160045260246000fd5b96610e47610e4d91610e408a86866115c8565b35906115d8565b976115b9565b61082c565b60405162461bcd60e51b8152602060048201526015602482015274082e4e4c2f240d8cadccee8d040dad2e6dac2e8c6d605b1b6044820152606490fd5b50828114610821565b60405162461bcd60e51b815260206004820152601b60248201527f4e656564206174206c65617374206f6e65206d696c6573746f6e6500000000006044820152606490fd5b60405162461bcd60e51b815260206004820152601c60248201527f54727573742073636f726520746f6f206c6f7720286d696e20333029000000006044820152606490fd5b60405162461bcd60e51b815260206004820152600d60248201526c09aeae6e840e6cadcc8408aa89609b1b6044820152606490fd5b346101d45760403660031901126101d457610f70611366565b6001600160a01b03166000908152600560205260409020805460243591908210156101d457602091610fa19161137c565b90546040519160031b1c8152f35b346101d457611004610fd9610fc3366113ff565b906000526004602052600b604060002001611646565b50600181015460ff610fef600284015493611513565b926040519485946080865260808601906113cd565b926020850152818116604085015260081c16151560608301520390f35b346101d4576020806003193601126101d457600054600435916001600160a01b03916110509083163314611697565b61105d60025484106116d8565b826000526004815260ff60086040600020015416600581101561037b5760011480156111a6575b61108d9061171a565b826000526004815260406000209160098301546276a7008101809111610e175742111561116a576110c760048401546005850154906115e5565b92831561112e57600080858194846008849601600460ff1982541617905542600a8201556110f7836003546115e5565b600355541682f115610366577f51f68d075df949ed6454f243c9483efe1b52cb67f12ac66e4a0938f8918df4e791604051908152a2005b60405162461bcd60e51b81526004810184905260146024820152734e6f2072656d61696e696e672062616c616e636560601b6044820152606490fd5b60405162461bcd60e51b8152600481018390526014602482015273526566756e64206c6f636b3a203930206461797360601b6044820152606490fd5b50826000526004815260ff60086040600020015416600581101561037b57600214611084565b346101d45760003660031901126101d4576000546040516001600160a01b039091168152602090f35b346101d45760003660031901126101d4576020600154604051908152f35b346101d45760203660031901126101d45760043561123460025482106116d8565b6000526004602052604060002060018060a01b038082541690600183015416916004810154906112bf600582015460ff60068401541660ff600885015416916112a56112876002600b8801549701611513565b604051998a998a5260208a01526101008060408b01528901906113cd565b956060880152608087015260a086015260c08501906113f2565b60e08301520390f35b346101d45760003660031901126101d4576020600254604051908152f35b346101d45760003660031901126101d457602047604051908152f35b346101d45760403660031901126101d45761131b611366565b6001600160a01b03166000908152600660205260409020805460243591908210156101d457602091610fa19161137c565b346101d45760003660031901126101d45780603260209252f35b600435906001600160a01b03821682036101d457565b80548210156113945760005260206000200190600090565b634e487b7160e01b600052603260045260246000fd5b60005b8381106113bd5750506000910152565b81810151838201526020016113ad565b906020916113e6815180928185528580860191016113aa565b601f01601f1916010190565b90600582101561037b5752565b60409060031901126101d4576004359060243590565b9181601f840112156101d4578235916001600160401b0383116101d457602083818601950101116101d457565b9181601f840112156101d4578235916001600160401b0383116101d4576020808501948460051b0101116101d457565b90601f801991011681019081106001600160401b03821117610ca757604052565b9291926001600160401b038211610ca757604051916114bc601f8201601f191660200184611472565b8294818452818301116101d4578281602093846000960137010152565b90600182811c92168015611509575b60208310146114f357565b634e487b7160e01b600052602260045260246000fd5b91607f16916114e8565b9060405191826000825492611527846114d9565b9081845260019485811690816000146115965750600114611553575b505061155192500383611472565b565b9093915060005260209081600020936000915b81831061157e57505061155193508201013880611543565b85548884018501529485019487945091830191611566565b91505061155194506020925060ff191682840152151560051b8201013880611543565b6000198114610e175760010190565b91908110156113945760051b0190565b91908201809211610e1757565b91908203918211610e1757565b90601f811161160057505050565b600091825260208220906020601f850160051c8301941061163c575b601f0160051c01915b82811061163157505050565b818155600101611625565b909250829061161c565b80548210156113945760005260206000209060021b0190600090565b8054600160401b811015610ca75761167f9160018201815561137c565b819291549060031b91821b91600019901b1916179055565b1561169e57565b60405162461bcd60e51b81526020600482015260126024820152712737ba10383630ba3337b9369037bbb732b960711b6044820152606490fd5b156116df57565b60405162461bcd60e51b81526020600482015260136024820152721119585b08191bd95cc81b9bdd08195e1a5cdd606a1b6044820152606490fd5b1561172157565b60405162461bcd60e51b815260206004820152600f60248201526e4465616c206e6f742061637469766560881b6044820152606490fdfea2646970667358221220f64082dc00af0b8a569ae6001fbf8fd276d45965b385d27b23dab04aa3ac566464736f6c63430008130033","opcodes":"PUSH1 0x80 DUP1 PUSH1 0x40 MSTORE CALLVALUE PUSH2 0x28 JUMPI PUSH1 0x0 DUP1 SLOAD PUSH1 0x1 PUSH1 0x1 PUSH1 0xA0 SHL SUB NOT AND CALLER OR SWAP1 SSTORE PUSH2 0x178E SWAP1 DUP2 PUSH2 0x2E DUP3 CODECOPY RETURN JUMPDEST PUSH1 0x0 DUP1 REVERT INVALID PUSH1 0xA0 DUP1 PUSH1 0x40 MSTORE PUSH1 0x4 CALLDATASIZE LT ISZERO PUSH2 0x1D JUMPI JUMPDEST POP CALLDATASIZE ISZERO PUSH2 0x1B JUMPI PUSH1 0x0 DUP1 REVERT JUMPDEST STOP JUMPDEST PUSH1 0x0 CALLDATALOAD PUSH1 0xE0 SHR SWAP1 DUP2 PUSH4 0x539AA77F EQ PUSH2 0x134C JUMPI POP DUP1 PUSH4 0x6CD29A5D EQ PUSH2 0x1302 JUMPI DUP1 PUSH4 0x6F9FB98A EQ PUSH2 0x12E6 JUMPI DUP1 PUSH4 0x70FD37CF EQ PUSH2 0x12C8 JUMPI DUP1 PUSH4 0x73A4415C EQ PUSH2 0x1213 JUMPI DUP1 PUSH4 0x8D0DCFEA EQ PUSH2 0x11F5 JUMPI DUP1 PUSH4 0x8DA5CB5B EQ PUSH2 0x11CC JUMPI DUP1 PUSH4 0x8DF10469 EQ PUSH2 0x1021 JUMPI DUP1 PUSH4 0x8ED9895C EQ PUSH2 0xFAF JUMPI DUP1 PUSH4 0xBDBBC242 EQ PUSH2 0xF57 JUMPI DUP1 PUSH4 0xC0233B06 EQ PUSH2 0x72E JUMPI DUP1 PUSH4 0xD0B7830B EQ PUSH2 0x6DE JUMPI DUP1 PUSH4 0xD79ED7DC EQ PUSH2 0x641 JUMPI DUP1 PUSH4 0xDFB5B3BD EQ PUSH2 0x5CF JUMPI DUP1 PUSH4 0xE9DDF5C4 EQ PUSH2 0x51B JUMPI DUP1 PUSH4 0xEC18154E EQ PUSH2 0x4FD JUMPI DUP1 PUSH4 0xF326206B EQ PUSH2 0x1D9 JUMPI PUSH4 0xFD345C8A EQ PUSH2 0xF0 JUMPI CODESIZE PUSH2 0xF JUMP JUMPDEST CALLVALUE PUSH2 0x1D4 JUMPI PUSH1 0x20 CALLDATASIZE PUSH1 0x3 NOT ADD SLT PUSH2 0x1D4 JUMPI PUSH1 0x4 CALLDATALOAD PUSH1 0x0 MSTORE PUSH1 0x4 PUSH1 0x20 MSTORE PUSH1 0x20 PUSH1 0x40 PUSH1 0x0 KECCAK256 PUSH1 0x1 DUP1 PUSH1 0xA0 SHL SUB SWAP1 DUP2 DUP2 SLOAD AND SWAP2 PUSH1 0x1 DUP3 ADD SLOAD AND PUSH2 0x132 PUSH1 0x2 DUP4 ADD PUSH2 0x1513 JUMP JUMPDEST SWAP2 PUSH2 0x1C4 PUSH2 0x142 PUSH1 0x3 DUP4 ADD PUSH2 0x1513 JUMP JUMPDEST SWAP4 PUSH1 0x4 DUP4 ADD SLOAD SWAP5 PUSH1 0x5 DUP5 ADD SLOAD PUSH1 0xFF PUSH1 0x6 DUP7 ADD SLOAD AND SWAP1 PUSH2 0x1A4 PUSH1 0x7 DUP8 ADD SLOAD SWAP4 PUSH2 0x196 PUSH1 0xFF PUSH1 0x8 DUP11 ADD SLOAD AND SWAP7 PUSH1 0xA PUSH1 0x9 DUP12 ADD SLOAD SWAP11 ADD SLOAD SWAP11 PUSH1 0x40 MLOAD SWAP15 DUP16 SWAP15 DUP16 SWAP1 DUP2 MSTORE ADD MSTORE PUSH1 0x40 DUP14 PUSH2 0x160 SWAP2 DUP3 SWAP2 ADD MSTORE DUP14 ADD SWAP1 PUSH2 0x13CD JUMP JUMPDEST SWAP1 DUP12 DUP3 SUB PUSH1 0x60 DUP14 ADD MSTORE PUSH2 0x13CD JUMP JUMPDEST SWAP8 PUSH1 0x80 DUP11 ADD MSTORE PUSH1 0xA0 DUP10 ADD MSTORE PUSH1 0xC0 DUP9 ADD MSTORE PUSH1 0xE0 DUP8 ADD MSTORE PUSH2 0x100 DUP7 ADD SWAP1 PUSH2 0x13F2 JUMP JUMPDEST PUSH2 0x120 DUP5 ADD MSTORE PUSH2 0x140 DUP4 ADD MSTORE SUB SWAP1 RETURN JUMPDEST PUSH1 0x0 DUP1 REVERT JUMPDEST CALLVALUE PUSH2 0x1D4 JUMPI PUSH2 0x1E7 CALLDATASIZE PUSH2 0x13FF JUMP JUMPDEST PUSH1 0x0 SLOAD PUSH1 0x1 PUSH1 0x1 PUSH1 0xA0 SHL SUB SWAP2 SWAP1 PUSH2 0x201 SWAP1 DUP4 AND CALLER EQ PUSH2 0x1697 JUMP JUMPDEST PUSH1 0x2 PUSH2 0x20F DUP2 SLOAD DUP6 LT PUSH2 0x16D8 JUMP JUMPDEST DUP4 PUSH1 0x0 MSTORE PUSH1 0x20 SWAP2 PUSH1 0x4 DUP4 MSTORE PUSH1 0xFF PUSH1 0x8 SWAP5 DUP2 DUP7 PUSH1 0x40 PUSH1 0x0 KECCAK256 ADD SLOAD AND PUSH1 0x5 DUP2 LT ISZERO PUSH2 0x37B JUMPI PUSH1 0x1 EQ DUP1 ISZERO PUSH2 0x4DA JUMPI JUMPDEST PUSH2 0x245 SWAP1 PUSH2 0x171A JUMP JUMPDEST DUP7 PUSH1 0x0 MSTORE PUSH1 0x4 DUP6 MSTORE PUSH1 0x40 PUSH1 0x0 KECCAK256 SWAP1 PUSH1 0xB DUP3 ADD SWAP7 DUP8 SLOAD DUP6 LT ISZERO PUSH2 0x495 JUMPI PUSH2 0x26B DUP6 DUP10 PUSH2 0x1646 JUMP JUMPDEST POP SWAP6 DUP1 DUP8 ADD DUP1 SLOAD SWAP8 DUP7 DUP10 DUP6 SHR AND PUSH2 0x457 JUMPI DUP7 PUSH1 0x6 DUP8 ADD SLOAD AND DUP8 DUP11 AND GT PUSH2 0x412 JUMPI SELFBALANCE SWAP2 PUSH1 0x1 DUP3 ADD SWAP10 DUP11 SLOAD DUP1 SWAP5 LT PUSH2 0x3CD JUMPI PUSH2 0x100 SWAP1 PUSH2 0xFF00 NOT AND OR SWAP1 SSTORE PUSH1 0x3 TIMESTAMP SWAP2 ADD SSTORE PUSH2 0x2BC PUSH1 0x5 DUP7 ADD SWAP2 DUP3 SLOAD PUSH2 0x15D8 JUMP JUMPDEST SWAP1 SSTORE TIMESTAMP PUSH1 0xA DUP6 ADD SSTORE DUP9 SLOAD PUSH1 0x1 SWAP10 PUSH1 0x0 JUMPDEST DUP3 DUP2 LT PUSH2 0x397 JUMPI JUMPDEST POP POP POP SWAP1 SWAP2 SWAP3 SWAP4 SWAP5 SWAP6 SWAP7 SWAP8 PUSH1 0x0 EQ PUSH2 0x391 JUMPI POP PUSH1 0x3 SWAP1 JUMPDEST DUP4 ADD SWAP2 PUSH1 0x5 DUP3 LT ISZERO PUSH2 0x37B JUMPI PUSH1 0x1 PUSH1 0x0 SWAP6 SWAP5 DUP7 SWAP6 SWAP5 DUP7 SWAP6 SWAP5 DUP7 SWAP6 PUSH1 0xFF NOT DUP4 SLOAD AND SWAP2 AND OR SWAP1 SSTORE PUSH2 0x31D DUP10 SLOAD PUSH1 0x3 SLOAD PUSH2 0x15E5 JUMP JUMPDEST PUSH1 0x3 SSTORE ADD SLOAD AND DUP7 SLOAD SWAP1 DUP3 DUP3 ISZERO PUSH2 0x372 JUMPI JUMPDEST CALL ISZERO PUSH2 0x366 JUMPI PUSH32 0xD4DBDA378623F00B72EF135B4579B7BA064C49645217EB107D663831EFAC6358 SWAP3 PUSH1 0x40 SWAP3 SLOAD SWAP1 DUP4 MLOAD SWAP3 DUP4 MSTORE DUP3 ADD MSTORE LOG2 STOP JUMPDEST PUSH1 0x40 MLOAD RETURNDATASIZE PUSH1 0x0 DUP3 RETURNDATACOPY RETURNDATASIZE SWAP1 REVERT JUMPDEST POP PUSH2 0x8FC PUSH2 0x32E JUMP JUMPDEST PUSH4 0x4E487B71 PUSH1 0xE0 SHL PUSH1 0x0 MSTORE PUSH1 0x21 PUSH1 0x4 MSTORE PUSH1 0x24 PUSH1 0x0 REVERT JUMPDEST SWAP1 PUSH2 0x2EB JUMP JUMPDEST DUP8 DUP5 PUSH2 0x3A3 DUP4 DUP6 PUSH2 0x1646 JUMP JUMPDEST POP ADD SLOAD DUP7 SHR AND ISZERO PUSH2 0x3BC JUMPI PUSH2 0x3B7 SWAP1 PUSH2 0x15B9 JUMP JUMPDEST PUSH2 0x2CC JUMP JUMPDEST POP PUSH1 0x0 SWAP11 POP DUP13 SWAP2 POP DUP2 SWAP1 POP DUP1 PUSH2 0x2D4 JUMP JUMPDEST PUSH1 0x40 MLOAD PUSH3 0x461BCD PUSH1 0xE5 SHL DUP2 MSTORE PUSH1 0x4 DUP2 ADD DUP14 SWAP1 MSTORE PUSH1 0x1D PUSH1 0x24 DUP3 ADD MSTORE PUSH32 0x496E73756666696369656E7420636F6E74726163742062616C616E6365000000 PUSH1 0x44 DUP3 ADD MSTORE PUSH1 0x64 SWAP1 REVERT JUMPDEST PUSH1 0x40 MLOAD PUSH3 0x461BCD PUSH1 0xE5 SHL DUP2 MSTORE PUSH1 0x4 DUP2 ADD DUP12 SWAP1 MSTORE PUSH1 0x1B PUSH1 0x24 DUP3 ADD MSTORE PUSH32 0x54727573742073636F72652062656C6F77207468726573686F6C640000000000 PUSH1 0x44 DUP3 ADD MSTORE PUSH1 0x64 SWAP1 REVERT JUMPDEST PUSH1 0x40 MLOAD PUSH3 0x461BCD PUSH1 0xE5 SHL DUP2 MSTORE PUSH1 0x4 DUP2 ADD DUP12 SWAP1 MSTORE PUSH1 0x16 PUSH1 0x24 DUP3 ADD MSTORE PUSH22 0x4D696C6573746F6E6520616C726561647920646F6E65 PUSH1 0x50 SHL PUSH1 0x44 DUP3 ADD MSTORE PUSH1 0x64 SWAP1 REVERT JUMPDEST PUSH1 0x40 MLOAD PUSH3 0x461BCD PUSH1 0xE5 SHL DUP2 MSTORE PUSH1 0x4 DUP2 ADD DUP9 SWAP1 MSTORE PUSH1 0x17 PUSH1 0x24 DUP3 ADD MSTORE PUSH32 0x496E76616C6964206D696C6573746F6E6520696E646578000000000000000000 PUSH1 0x44 DUP3 ADD MSTORE PUSH1 0x64 SWAP1 REVERT JUMPDEST POP DUP7 PUSH1 0x0 MSTORE PUSH1 0x4 DUP6 MSTORE DUP2 DUP7 PUSH1 0x40 PUSH1 0x0 KECCAK256 ADD SLOAD AND PUSH1 0x5 DUP2 LT ISZERO PUSH2 0x37B JUMPI DUP5 EQ PUSH2 0x23C JUMP JUMPDEST CALLVALUE PUSH2 0x1D4 JUMPI PUSH1 0x0 CALLDATASIZE PUSH1 0x3 NOT ADD SLT PUSH2 0x1D4 JUMPI PUSH1 0x20 PUSH1 0x3 SLOAD PUSH1 0x40 MLOAD SWAP1 DUP2 MSTORE RETURN JUMPDEST CALLVALUE PUSH2 0x1D4 JUMPI PUSH1 0x20 DUP1 PUSH1 0x3 NOT CALLDATASIZE ADD SLT PUSH2 0x1D4 JUMPI PUSH1 0x1 PUSH1 0x1 PUSH1 0xA0 SHL SUB PUSH2 0x53D PUSH2 0x1366 JUMP JUMPDEST AND PUSH1 0x0 MSTORE PUSH1 0x5 DUP2 MSTORE PUSH1 0x40 PUSH1 0x0 KECCAK256 PUSH1 0x40 MLOAD SWAP1 DUP2 DUP4 DUP3 SLOAD SWAP2 DUP3 DUP2 MSTORE ADD SWAP1 DUP2 SWAP3 PUSH1 0x0 MSTORE DUP5 PUSH1 0x0 KECCAK256 SWAP1 PUSH1 0x0 JUMPDEST DUP7 DUP3 DUP3 LT PUSH2 0x5BB JUMPI DUP7 DUP7 PUSH2 0x57B DUP3 DUP9 SUB DUP4 PUSH2 0x1472 JUMP JUMPDEST PUSH1 0x40 MLOAD SWAP3 DUP4 SWAP3 DUP2 DUP5 ADD SWAP1 DUP3 DUP6 MSTORE MLOAD DUP1 SWAP2 MSTORE PUSH1 0x40 DUP5 ADD SWAP3 SWAP2 PUSH1 0x0 JUMPDEST DUP3 DUP2 LT PUSH2 0x5A4 JUMPI POP POP POP POP SUB SWAP1 RETURN JUMPDEST DUP4 MLOAD DUP6 MSTORE DUP7 SWAP6 POP SWAP4 DUP2 ADD SWAP4 SWAP3 DUP2 ADD SWAP3 PUSH1 0x1 ADD PUSH2 0x595 JUMP JUMPDEST DUP4 SLOAD DUP6 MSTORE SWAP1 SWAP4 ADD SWAP3 PUSH1 0x1 SWAP3 DUP4 ADD SWAP3 ADD PUSH2 0x565 JUMP JUMPDEST CALLVALUE PUSH2 0x1D4 JUMPI PUSH1 0x20 CALLDATASIZE PUSH1 0x3 NOT ADD SLT PUSH2 0x1D4 JUMPI PUSH1 0x4 CALLDATALOAD PUSH1 0x1 PUSH1 0x1 PUSH1 0x40 SHL SUB DUP2 GT PUSH2 0x1D4 JUMPI CALLDATASIZE PUSH1 0x23 DUP3 ADD SLT ISZERO PUSH2 0x1D4 JUMPI PUSH1 0xFF PUSH2 0x62B PUSH1 0x20 PUSH2 0x618 DUP2 SWAP5 CALLDATASIZE SWAP1 PUSH1 0x24 DUP2 PUSH1 0x4 ADD CALLDATALOAD SWAP2 ADD PUSH2 0x1493 JUMP JUMPDEST DUP2 PUSH1 0x40 MLOAD SWAP4 DUP3 DUP6 DUP1 SWAP5 MLOAD SWAP4 DUP5 SWAP3 ADD PUSH2 0x13AA JUMP JUMPDEST DUP2 ADD PUSH1 0x7 DUP2 MSTORE SUB ADD SWAP1 KECCAK256 SLOAD AND PUSH1 0x40 MLOAD SWAP1 ISZERO ISZERO DUP2 MSTORE RETURN JUMPDEST CALLVALUE PUSH2 0x1D4 JUMPI PUSH1 0x40 CALLDATASIZE PUSH1 0x3 NOT ADD SLT PUSH2 0x1D4 JUMPI PUSH1 0x4 CALLDATALOAD PUSH1 0x24 CALLDATALOAD PUSH1 0xFF DUP2 AND DUP1 SWAP2 SUB PUSH2 0x1D4 JUMPI PUSH1 0x40 PUSH32 0xE5583C9D083335054C2EE6FB43C923D0018B35FB5B9667C825337EB59D67AB02 SWAP2 PUSH2 0x69C PUSH1 0x1 DUP1 PUSH1 0xA0 SHL SUB PUSH1 0x0 SLOAD AND CALLER EQ PUSH2 0x1697 JUMP JUMPDEST PUSH2 0x6A9 PUSH1 0x2 SLOAD DUP6 LT PUSH2 0x16D8 JUMP JUMPDEST DUP4 PUSH1 0x0 MSTORE PUSH1 0x4 PUSH1 0x20 MSTORE DUP2 PUSH1 0x0 KECCAK256 SWAP1 PUSH1 0x6 DUP3 ADD SWAP2 DUP3 SLOAD SWAP3 DUP3 PUSH1 0xFF NOT DUP6 AND OR SWAP1 SSTORE PUSH1 0xA TIMESTAMP SWAP2 ADD SSTORE PUSH1 0xFF DUP4 MLOAD SWAP3 AND DUP3 MSTORE PUSH1 0x20 DUP3 ADD MSTORE LOG2 STOP JUMPDEST CALLVALUE PUSH2 0x1D4 JUMPI PUSH1 0x0 CALLDATASIZE PUSH1 0x3 NOT ADD SLT PUSH2 0x1D4 JUMPI PUSH1 0x0 DUP1 SLOAD DUP2 SWAP1 DUP2 SWAP1 DUP2 SWAP1 PUSH1 0x1 PUSH1 0x1 PUSH1 0xA0 SHL SUB AND PUSH2 0x70D CALLER DUP3 EQ PUSH2 0x1697 JUMP JUMPDEST PUSH1 0x1 SLOAD SWAP1 DUP3 PUSH1 0x1 SSTORE DUP3 DUP3 ISZERO PUSH2 0x725 JUMPI JUMPDEST CALL ISZERO PUSH2 0x366 JUMPI STOP JUMPDEST POP PUSH2 0x8FC PUSH2 0x71D JUMP JUMPDEST PUSH2 0x100 CALLDATASIZE PUSH1 0x3 NOT ADD SLT PUSH2 0x1D4 JUMPI PUSH1 0x4 CALLDATALOAD PUSH1 0x1 PUSH1 0x1 PUSH1 0xA0 SHL SUB DUP2 AND DUP2 SUB PUSH2 0x1D4 JUMPI PUSH1 0x24 CALLDATALOAD PUSH1 0x1 PUSH1 0x1 PUSH1 0x40 SHL SUB DUP2 GT PUSH2 0x1D4 JUMPI PUSH2 0x76D SWAP1 CALLDATASIZE SWAP1 PUSH1 0x4 ADD PUSH2 0x1415 JUMP JUMPDEST SWAP1 PUSH1 0x80 MSTORE PUSH1 0x44 CALLDATALOAD PUSH1 0x1 PUSH1 0x1 PUSH1 0x40 SHL SUB DUP2 GT PUSH2 0x1D4 JUMPI PUSH2 0x790 SWAP1 CALLDATASIZE SWAP1 PUSH1 0x4 ADD PUSH2 0x1415 JUMP JUMPDEST SWAP2 PUSH1 0x64 CALLDATALOAD SWAP2 PUSH1 0xFF DUP4 AND DUP4 SUB PUSH2 0x1D4 JUMPI PUSH1 0xA4 CALLDATALOAD PUSH1 0x1 PUSH1 0x1 PUSH1 0x40 SHL SUB DUP2 GT PUSH2 0x1D4 JUMPI PUSH2 0x7BE SWAP1 CALLDATASIZE SWAP1 PUSH1 0x4 ADD PUSH2 0x1442 JUMP JUMPDEST SWAP1 PUSH1 0xC4 CALLDATALOAD PUSH1 0x1 PUSH1 0x1 PUSH1 0x40 SHL SUB DUP2 GT PUSH2 0x1D4 JUMPI PUSH2 0x7DE SWAP1 CALLDATASIZE SWAP1 PUSH1 0x4 ADD PUSH2 0x1442 JUMP JUMPDEST PUSH1 0xE4 SWAP4 SWAP2 SWAP4 CALLDATALOAD PUSH1 0x1 PUSH1 0x1 PUSH1 0x40 SHL SUB DUP2 GT PUSH2 0x1D4 JUMPI PUSH2 0x800 SWAP1 CALLDATASIZE SWAP1 PUSH1 0x4 ADD PUSH2 0x1442 JUMP JUMPDEST SWAP2 CALLVALUE ISZERO PUSH2 0xF22 JUMPI PUSH1 0x1E PUSH1 0xFF DUP11 AND LT PUSH2 0xEDD JUMPI DUP4 ISZERO PUSH2 0xE98 JUMPI DUP1 DUP5 EQ DUP1 PUSH2 0xE8F JUMPI JUMPDEST ISZERO PUSH2 0xE52 JUMPI PUSH1 0x0 SWAP6 PUSH1 0x0 JUMPDEST DUP3 DUP2 LT PUSH2 0xE2D JUMPI POP PUSH1 0x32 CALLVALUE MUL SWAP7 CALLVALUE DUP9 DIV PUSH1 0x32 SUB PUSH2 0xE17 JUMPI PUSH2 0x851 PUSH2 0x2710 DUP10 DIV CALLVALUE PUSH2 0x15E5 JUMP JUMPDEST LT PUSH2 0xDD2 JUMPI PUSH1 0x2 SLOAD SWAP11 PUSH2 0x863 DUP13 PUSH2 0x15B9 JUMP JUMPDEST PUSH1 0x2 SSTORE DUP12 PUSH1 0x0 MSTORE PUSH1 0x4 PUSH1 0x20 MSTORE PUSH1 0x40 PUSH1 0x0 KECCAK256 SWAP9 CALLER PUSH12 0xFFFFFFFFFFFFFFFFFFFFFFFF PUSH1 0xA0 SHL DUP12 SLOAD AND OR DUP11 SSTORE DUP14 PUSH1 0x1 DUP12 ADD SWAP1 PUSH1 0x1 DUP1 PUSH1 0xA0 SHL SUB AND PUSH12 0xFFFFFFFFFFFFFFFFFFFFFFFF PUSH1 0xA0 SHL DUP3 SLOAD AND OR SWAP1 SSTORE PUSH1 0x1 PUSH1 0x1 PUSH1 0x40 SHL SUB DUP12 GT PUSH2 0xCA7 JUMPI PUSH2 0x8D8 DUP12 PUSH2 0x8CF PUSH1 0x2 DUP14 ADD SLOAD PUSH2 0x14D9 JUMP JUMPDEST PUSH1 0x2 DUP14 ADD PUSH2 0x15F2 JUMP JUMPDEST DUP11 PUSH1 0x0 PUSH1 0x1F DUP3 GT PUSH1 0x1 EQ PUSH2 0xD5C JUMPI PUSH1 0x0 SWAP2 PUSH2 0xD4F JUMPI JUMPDEST POP DUP12 PUSH1 0x1 SHL SWAP1 PUSH1 0x0 NOT DUP14 PUSH1 0x3 SHL SHR NOT AND OR PUSH1 0x2 DUP12 ADD SSTORE JUMPDEST PUSH1 0x1 PUSH1 0x1 PUSH1 0x40 SHL SUB DUP3 GT PUSH2 0xCA7 JUMPI DUP2 SWAP1 PUSH2 0x92F DUP3 DUP13 PUSH1 0x3 PUSH2 0x928 DUP2 DUP4 ADD SLOAD PUSH2 0x14D9 JUMP JUMPDEST SWAP2 ADD PUSH2 0x15F2 JUMP JUMPDEST PUSH1 0x0 SWAP1 PUSH1 0x1F DUP4 GT PUSH1 0x1 EQ PUSH2 0xCDE JUMPI PUSH1 0x0 SWAP3 PUSH2 0xCD3 JUMPI JUMPDEST POP POP DUP2 PUSH1 0x1 SHL SWAP2 PUSH1 0x0 NOT SWAP1 PUSH1 0x3 SHL SHR NOT AND OR PUSH1 0x3 DUP10 ADD SSTORE JUMPDEST PUSH2 0x96B PUSH2 0x2710 DUP9 DIV CALLVALUE PUSH2 0x15E5 JUMP JUMPDEST PUSH1 0x4 DUP10 ADD SSTORE PUSH1 0x0 PUSH1 0x5 DUP10 ADD SSTORE PUSH1 0xFF DUP11 AND PUSH1 0xFF NOT PUSH1 0x6 DUP11 ADD SLOAD AND OR PUSH1 0x6 DUP10 ADD SSTORE PUSH1 0x84 CALLDATALOAD PUSH1 0x7 DUP10 ADD SSTORE PUSH1 0x8 DUP9 ADD PUSH1 0x1 PUSH1 0xFF NOT DUP3 SLOAD AND OR SWAP1 SSTORE TIMESTAMP PUSH1 0x9 DUP10 ADD SSTORE TIMESTAMP PUSH1 0xA DUP10 ADD SSTORE PUSH1 0x0 JUMPDEST DUP6 DUP2 LT PUSH2 0xAAE JUMPI POP POP POP POP POP POP POP PUSH1 0x20 SWAP6 PUSH2 0xA06 PUSH1 0x4 DUP8 SWAP5 PUSH2 0x9F9 PUSH2 0x2710 PUSH32 0x988044EBD29218E9B39AF20A628EAC00A43FD569EF341A2DC4A4D1D3516EE01B SWAP7 DIV PUSH1 0x1 SLOAD PUSH2 0x15D8 JUMP JUMPDEST PUSH1 0x1 SSTORE ADD SLOAD PUSH1 0x3 SLOAD PUSH2 0x15D8 JUMP JUMPDEST PUSH1 0x3 SSTORE CALLER PUSH1 0x0 MSTORE PUSH1 0x5 DUP8 MSTORE PUSH2 0xA1F DUP4 PUSH1 0x40 PUSH1 0x0 KECCAK256 PUSH2 0x1662 JUMP JUMPDEST PUSH1 0x1 DUP1 PUSH1 0xA0 SHL SUB DUP2 AND PUSH1 0x0 MSTORE PUSH1 0x6 DUP8 MSTORE PUSH2 0xA3D DUP4 PUSH1 0x40 PUSH1 0x0 KECCAK256 PUSH2 0x1662 JUMP JUMPDEST PUSH1 0x40 MLOAD DUP5 PUSH1 0x80 MLOAD DUP3 CALLDATACOPY DUP8 DUP2 DUP7 DUP2 ADD PUSH1 0x7 DUP2 MSTORE SUB ADD SWAP1 KECCAK256 PUSH1 0x1 PUSH1 0xFF NOT DUP3 SLOAD AND OR SWAP1 SSTORE PUSH1 0xFF PUSH1 0x40 MLOAD SWAP6 PUSH1 0x60 DUP8 MSTORE DUP6 PUSH1 0x60 DUP9 ADD MSTORE DUP6 PUSH1 0x80 MLOAD PUSH1 0x80 DUP10 ADD CALLDATACOPY PUSH1 0x0 PUSH1 0x80 DUP8 DUP10 ADD ADD MSTORE CALLVALUE DUP10 DUP9 ADD MSTORE AND PUSH1 0x40 DUP7 ADD MSTORE PUSH1 0x1 DUP1 PUSH1 0xA0 SHL SUB AND SWAP4 PUSH1 0x80 DUP2 CALLER SWAP6 PUSH1 0x1F DUP1 NOT SWAP2 ADD AND DUP2 ADD SUB ADD SWAP1 LOG4 PUSH1 0x40 MLOAD SWAP1 DUP2 MSTORE RETURN JUMPDEST DUP1 PUSH1 0x5 SHL DUP8 ADD CALLDATALOAD PUSH1 0x1E NOT DUP9 CALLDATASIZE SUB ADD DUP2 SLT ISZERO PUSH2 0x1D4 JUMPI PUSH1 0x1 PUSH1 0x1 PUSH1 0x40 SHL SUB DUP2 DUP10 ADD CALLDATALOAD GT PUSH2 0x1D4 JUMPI DUP1 DUP9 ADD CALLDATALOAD CALLDATASIZE SUB PUSH1 0x20 DUP3 DUP11 ADD ADD SGT PUSH2 0x1D4 JUMPI PUSH2 0xAF0 DUP3 DUP6 DUP6 PUSH2 0x15C8 JUMP JUMPDEST CALLDATALOAD SWAP1 PUSH2 0xAFD DUP4 DUP9 DUP9 PUSH2 0x15C8 JUMP JUMPDEST CALLDATALOAD PUSH1 0xFF DUP2 AND DUP2 SUB PUSH2 0x1D4 JUMPI PUSH1 0x40 MLOAD SWAP3 DUP4 PUSH1 0xA0 DUP2 ADD LT PUSH1 0x1 PUSH1 0x1 PUSH1 0x40 SHL SUB PUSH1 0xA0 DUP7 ADD GT OR PUSH2 0xCA7 JUMPI PUSH1 0xA0 DUP5 ADD PUSH1 0x40 MSTORE PUSH1 0xFF SWAP3 PUSH2 0xB41 SWAP1 CALLDATASIZE SWAP1 DUP14 ADD DUP1 CALLDATALOAD SWAP1 PUSH1 0x20 ADD PUSH2 0x1493 JUMP JUMPDEST DUP5 MSTORE PUSH1 0x20 DUP5 ADD MSTORE AND PUSH1 0x40 DUP3 ADD MSTORE PUSH1 0x0 PUSH1 0x60 DUP3 ADD MSTORE PUSH1 0x0 PUSH1 0x80 DUP3 ADD MSTORE PUSH1 0xB DUP11 ADD SLOAD PUSH1 0x1 PUSH1 0x40 SHL DUP2 LT ISZERO PUSH2 0xCA7 JUMPI DUP1 PUSH1 0x1 PUSH2 0xB83 SWAP3 ADD PUSH1 0xB DUP14 ADD SSTORE PUSH1 0xB DUP13 ADD PUSH2 0x1646 JUMP JUMPDEST SWAP2 SWAP1 SWAP2 PUSH2 0xCBD JUMPI DUP1 MLOAD DUP1 MLOAD SWAP1 PUSH1 0x1 PUSH1 0x1 PUSH1 0x40 SHL SUB DUP3 GT PUSH2 0xCA7 JUMPI PUSH2 0xBB1 DUP3 PUSH2 0xBAB DUP7 SLOAD PUSH2 0x14D9 JUMP JUMPDEST DUP7 PUSH2 0x15F2 JUMP JUMPDEST PUSH1 0x20 SWAP1 PUSH1 0x1F DUP4 GT PUSH1 0x1 EQ PUSH2 0xC34 JUMPI SWAP3 DUP3 PUSH1 0x3 SWAP4 PUSH1 0x80 SWAP4 PUSH2 0xC24 SWAP9 SWAP8 SWAP7 PUSH1 0x0 SWAP3 PUSH2 0xC29 JUMPI JUMPDEST POP POP DUP2 PUSH1 0x1 SHL SWAP2 PUSH1 0x0 NOT SWAP1 DUP7 SHL SHR NOT AND OR DUP5 SSTORE JUMPDEST PUSH1 0x20 DUP2 ADD MLOAD PUSH1 0x1 DUP6 ADD SSTORE PUSH1 0x2 DUP5 ADD PUSH1 0xFF PUSH1 0x40 DUP4 ADD MLOAD AND DUP2 SLOAD SWAP1 PUSH2 0xFF00 PUSH1 0x60 DUP6 ADD MLOAD ISZERO ISZERO PUSH1 0x8 SHL AND SWAP2 PUSH2 0xFFFF NOT AND OR OR SWAP1 SSTORE ADD MLOAD SWAP2 ADD SSTORE PUSH2 0x15B9 JUMP JUMPDEST PUSH2 0x9B0 JUMP JUMPDEST ADD MLOAD SWAP1 POP CODESIZE DUP1 PUSH2 0xBD5 JUMP JUMPDEST SWAP1 DUP5 PUSH1 0x0 MSTORE PUSH1 0x20 PUSH1 0x0 KECCAK256 SWAP2 PUSH1 0x0 JUMPDEST PUSH1 0x1F NOT DUP6 AND DUP2 LT PUSH2 0xC8F JUMPI POP DUP4 PUSH1 0x80 SWAP4 PUSH2 0xC24 SWAP9 SWAP8 SWAP7 SWAP4 PUSH1 0x1 SWAP4 PUSH1 0x3 SWAP8 PUSH1 0x1F NOT DUP2 AND LT PUSH2 0xC77 JUMPI JUMPDEST POP POP POP DUP2 SHL ADD DUP5 SSTORE PUSH2 0xBE9 JUMP JUMPDEST ADD MLOAD PUSH1 0x0 NOT DUP4 DUP9 SHL PUSH1 0xF8 AND SHR NOT AND SWAP1 SSTORE CODESIZE DUP1 DUP1 PUSH2 0xC6A JUMP JUMPDEST SWAP2 SWAP3 PUSH1 0x20 PUSH1 0x1 DUP2 SWAP3 DUP7 DUP6 ADD MLOAD DUP2 SSTORE ADD SWAP5 ADD SWAP3 ADD PUSH2 0xC42 JUMP JUMPDEST PUSH4 0x4E487B71 PUSH1 0xE0 SHL PUSH1 0x0 MSTORE PUSH1 0x41 PUSH1 0x4 MSTORE PUSH1 0x24 PUSH1 0x0 REVERT JUMPDEST PUSH4 0x4E487B71 PUSH1 0xE0 SHL PUSH1 0x0 MSTORE PUSH1 0x0 PUSH1 0x4 MSTORE PUSH1 0x24 PUSH1 0x0 REVERT JUMPDEST ADD CALLDATALOAD SWAP1 POP DUP15 DUP1 PUSH2 0x945 JUMP JUMPDEST SWAP1 SWAP3 POP PUSH1 0x3 DUP12 ADD PUSH1 0x0 MSTORE PUSH1 0x20 PUSH1 0x0 KECCAK256 SWAP1 PUSH1 0x0 SWAP4 JUMPDEST PUSH1 0x1F NOT DUP5 AND DUP6 LT PUSH2 0xD37 JUMPI PUSH1 0x1 SWAP5 POP DUP4 PUSH1 0x1F NOT DUP2 AND LT PUSH2 0xD1D JUMPI JUMPDEST POP POP POP DUP2 SHL ADD PUSH1 0x3 DUP10 ADD SSTORE PUSH2 0x95D JUMP JUMPDEST ADD CALLDATALOAD PUSH1 0x0 NOT PUSH1 0x3 DUP5 SWAP1 SHL PUSH1 0xF8 AND SHR NOT AND SWAP1 SSTORE DUP15 DUP1 DUP1 PUSH2 0xD0D JUMP JUMPDEST DUP2 DUP2 ADD CALLDATALOAD DUP4 SSTORE PUSH1 0x20 SWAP5 DUP6 ADD SWAP5 PUSH1 0x1 SWAP1 SWAP4 ADD SWAP3 ADD PUSH2 0xCF2 JUMP JUMPDEST SWAP1 POP PUSH1 0x80 MLOAD ADD CALLDATALOAD DUP16 PUSH2 0x8EE JUMP JUMPDEST SWAP1 POP PUSH1 0x2 DUP12 ADD PUSH1 0x0 MSTORE DUP12 PUSH1 0x20 PUSH1 0x0 KECCAK256 SWAP2 PUSH1 0x0 PUSH1 0x80 MLOAD SWAP3 JUMPDEST PUSH1 0x1F NOT DUP2 AND DUP3 LT PUSH2 0xDB8 JUMPI PUSH1 0x1F NOT DUP2 AND LT SWAP1 POP PUSH2 0xD9E JUMPI JUMPDEST POP POP POP PUSH1 0x1 DUP12 DUP2 SHL ADD PUSH1 0x2 DUP12 ADD SSTORE PUSH2 0x905 JUMP JUMPDEST ADD CALLDATALOAD PUSH1 0x0 NOT PUSH1 0x3 DUP15 SWAP1 SHL PUSH1 0xF8 AND SHR NOT AND SWAP1 SSTORE DUP15 DUP1 DUP1 PUSH2 0xD8B JUMP JUMPDEST SWAP1 SWAP2 SWAP4 PUSH1 0x20 PUSH1 0x1 DUP2 SWAP3 DUP8 DUP8 ADD CALLDATALOAD DUP2 SSTORE ADD SWAP6 ADD SWAP3 ADD SWAP1 PUSH2 0xD73 JUMP JUMPDEST PUSH1 0x40 MLOAD PUSH3 0x461BCD PUSH1 0xE5 SHL DUP2 MSTORE PUSH1 0x20 PUSH1 0x4 DUP3 ADD MSTORE PUSH1 0x1C PUSH1 0x24 DUP3 ADD MSTORE PUSH32 0x4D696C6573746F6E652073756D206578636565647320657363726F7700000000 PUSH1 0x44 DUP3 ADD MSTORE PUSH1 0x64 SWAP1 REVERT JUMPDEST PUSH4 0x4E487B71 PUSH1 0xE0 SHL PUSH1 0x0 MSTORE PUSH1 0x11 PUSH1 0x4 MSTORE PUSH1 0x24 PUSH1 0x0 REVERT JUMPDEST SWAP7 PUSH2 0xE47 PUSH2 0xE4D SWAP2 PUSH2 0xE40 DUP11 DUP7 DUP7 PUSH2 0x15C8 JUMP JUMPDEST CALLDATALOAD SWAP1 PUSH2 0x15D8 JUMP JUMPDEST SWAP8 PUSH2 0x15B9 JUMP JUMPDEST PUSH2 0x82C JUMP JUMPDEST PUSH1 0x40 MLOAD PUSH3 0x461BCD PUSH1 0xE5 SHL DUP2 MSTORE PUSH1 0x20 PUSH1 0x4 DUP3 ADD MSTORE PUSH1 0x15 PUSH1 0x24 DUP3 ADD MSTORE PUSH21 0x82E4E4C2F240D8CADCCEE8D040DAD2E6DAC2E8C6D PUSH1 0x5B SHL PUSH1 0x44 DUP3 ADD MSTORE PUSH1 0x64 SWAP1 REVERT JUMPDEST POP DUP3 DUP2 EQ PUSH2 0x821 JUMP JUMPDEST PUSH1 0x40 MLOAD PUSH3 0x461BCD PUSH1 0xE5 SHL DUP2 MSTORE PUSH1 0x20 PUSH1 0x4 DUP3 ADD MSTORE PUSH1 0x1B PUSH1 0x24 DUP3 ADD MSTORE PUSH32 0x4E656564206174206C65617374206F6E65206D696C6573746F6E650000000000 PUSH1 0x44 DUP3 ADD MSTORE PUSH1 0x64 SWAP1 REVERT JUMPDEST PUSH1 0x40 MLOAD PUSH3 0x461BCD PUSH1 0xE5 SHL DUP2 MSTORE PUSH1 0x20 PUSH1 0x4 DUP3 ADD MSTORE PUSH1 0x1C PUSH1 0x24 DUP3 ADD MSTORE PUSH32 0x54727573742073636F726520746F6F206C6F7720286D696E2033302900000000 PUSH1 0x44 DUP3 ADD MSTORE PUSH1 0x64 SWAP1 REVERT JUMPDEST PUSH1 0x40 MLOAD PUSH3 0x461BCD PUSH1 0xE5 SHL DUP2 MSTORE PUSH1 0x20 PUSH1 0x4 DUP3 ADD MSTORE PUSH1 0xD PUSH1 0x24 DUP3 ADD MSTORE PUSH13 0x9AEAE6E840E6CADCC8408AA89 PUSH1 0x9B SHL PUSH1 0x44 DUP3 ADD MSTORE PUSH1 0x64 SWAP1 REVERT JUMPDEST CALLVALUE PUSH2 0x1D4 JUMPI PUSH1 0x40 CALLDATASIZE PUSH1 0x3 NOT ADD SLT PUSH2 0x1D4 JUMPI PUSH2 0xF70 PUSH2 0x1366 JUMP JUMPDEST PUSH1 0x1 PUSH1 0x1 PUSH1 0xA0 SHL SUB AND PUSH1 0x0 SWAP1 DUP2 MSTORE PUSH1 0x5 PUSH1 0x20 MSTORE PUSH1 0x40 SWAP1 KECCAK256 DUP1 SLOAD PUSH1 0x24 CALLDATALOAD SWAP2 SWAP1 DUP3 LT ISZERO PUSH2 0x1D4 JUMPI PUSH1 0x20 SWAP2 PUSH2 0xFA1 SWAP2 PUSH2 0x137C JUMP JUMPDEST SWAP1 SLOAD PUSH1 0x40 MLOAD SWAP2 PUSH1 0x3 SHL SHR DUP2 MSTORE RETURN JUMPDEST CALLVALUE PUSH2 0x1D4 JUMPI PUSH2 0x1004 PUSH2 0xFD9 PUSH2 0xFC3 CALLDATASIZE PUSH2 0x13FF JUMP JUMPDEST SWAP1 PUSH1 0x0 MSTORE PUSH1 0x4 PUSH1 0x20 MSTORE PUSH1 0xB PUSH1 0x40 PUSH1 0x0 KECCAK256 ADD PUSH2 0x1646 JUMP JUMPDEST POP PUSH1 0x1 DUP2 ADD SLOAD PUSH1 0xFF PUSH2 0xFEF PUSH1 0x2 DUP5 ADD SLOAD SWAP4 PUSH2 0x1513 JUMP JUMPDEST SWAP3 PUSH1 0x40 MLOAD SWAP5 DUP6 SWAP5 PUSH1 0x80 DUP7 MSTORE PUSH1 0x80 DUP7 ADD SWAP1 PUSH2 0x13CD JUMP JUMPDEST SWAP3 PUSH1 0x20 DUP6 ADD MSTORE DUP2 DUP2 AND PUSH1 0x40 DUP6 ADD MSTORE PUSH1 0x8 SHR AND ISZERO ISZERO PUSH1 0x60 DUP4 ADD MSTORE SUB SWAP1 RETURN JUMPDEST CALLVALUE PUSH2 0x1D4 JUMPI PUSH1 0x20 DUP1 PUSH1 0x3 NOT CALLDATASIZE ADD SLT PUSH2 0x1D4 JUMPI PUSH1 0x0 SLOAD PUSH1 0x4 CALLDATALOAD SWAP2 PUSH1 0x1 PUSH1 0x1 PUSH1 0xA0 SHL SUB SWAP2 PUSH2 0x1050 SWAP1 DUP4 AND CALLER EQ PUSH2 0x1697 JUMP JUMPDEST PUSH2 0x105D PUSH1 0x2 SLOAD DUP5 LT PUSH2 0x16D8 JUMP JUMPDEST DUP3 PUSH1 0x0 MSTORE PUSH1 0x4 DUP2 MSTORE PUSH1 0xFF PUSH1 0x8 PUSH1 0x40 PUSH1 0x0 KECCAK256 ADD SLOAD AND PUSH1 0x5 DUP2 LT ISZERO PUSH2 0x37B JUMPI PUSH1 0x1 EQ DUP1 ISZERO PUSH2 0x11A6 JUMPI JUMPDEST PUSH2 0x108D SWAP1 PUSH2 0x171A JUMP JUMPDEST DUP3 PUSH1 0x0 MSTORE PUSH1 0x4 DUP2 MSTORE PUSH1 0x40 PUSH1 0x0 KECCAK256 SWAP2 PUSH1 0x9 DUP4 ADD SLOAD PUSH3 0x76A700 DUP2 ADD DUP1 SWAP2 GT PUSH2 0xE17 JUMPI TIMESTAMP GT ISZERO PUSH2 0x116A JUMPI PUSH2 0x10C7 PUSH1 0x4 DUP5 ADD SLOAD PUSH1 0x5 DUP6 ADD SLOAD SWAP1 PUSH2 0x15E5 JUMP JUMPDEST SWAP3 DUP4 ISZERO PUSH2 0x112E JUMPI PUSH1 0x0 DUP1 DUP6 DUP2 SWAP5 DUP5 PUSH1 0x8 DUP5 SWAP7 ADD PUSH1 0x4 PUSH1 0xFF NOT DUP3 SLOAD AND OR SWAP1 SSTORE TIMESTAMP PUSH1 0xA DUP3 ADD SSTORE PUSH2 0x10F7 DUP4 PUSH1 0x3 SLOAD PUSH2 0x15E5 JUMP JUMPDEST PUSH1 0x3 SSTORE SLOAD AND DUP3 CALL ISZERO PUSH2 0x366 JUMPI PUSH32 0x51F68D075DF949ED6454F243C9483EFE1B52CB67F12AC66E4A0938F8918DF4E7 SWAP2 PUSH1 0x40 MLOAD SWAP1 DUP2 MSTORE LOG2 STOP JUMPDEST PUSH1 0x40 MLOAD PUSH3 0x461BCD PUSH1 0xE5 SHL DUP2 MSTORE PUSH1 0x4 DUP2 ADD DUP5 SWAP1 MSTORE PUSH1 0x14 PUSH1 0x24 DUP3 ADD MSTORE PUSH20 0x4E6F2072656D61696E696E672062616C616E6365 PUSH1 0x60 SHL PUSH1 0x44 DUP3 ADD MSTORE PUSH1 0x64 SWAP1 REVERT JUMPDEST PUSH1 0x40 MLOAD PUSH3 0x461BCD PUSH1 0xE5 SHL DUP2 MSTORE PUSH1 0x4 DUP2 ADD DUP4 SWAP1 MSTORE PUSH1 0x14 PUSH1 0x24 DUP3 ADD MSTORE PUSH20 0x526566756E64206C6F636B3A2039302064617973 PUSH1 0x60 SHL PUSH1 0x44 DUP3 ADD MSTORE PUSH1 0x64 SWAP1 REVERT JUMPDEST POP DUP3 PUSH1 0x0 MSTORE PUSH1 0x4 DUP2 MSTORE PUSH1 0xFF PUSH1 0x8 PUSH1 0x40 PUSH1 0x0 KECCAK256 ADD SLOAD AND PUSH1 0x5 DUP2 LT ISZERO PUSH2 0x37B JUMPI PUSH1 0x2 EQ PUSH2 0x1084 JUMP JUMPDEST CALLVALUE PUSH2 0x1D4 JUMPI PUSH1 0x0 CALLDATASIZE PUSH1 0x3 NOT ADD SLT PUSH2 0x1D4 JUMPI PUSH1 0x0 SLOAD PUSH1 0x40 MLOAD PUSH1 0x1 PUSH1 0x1 PUSH1 0xA0 SHL SUB SWAP1 SWAP2 AND DUP2 MSTORE PUSH1 0x20 SWAP1 RETURN JUMPDEST CALLVALUE PUSH2 0x1D4 JUMPI PUSH1 0x0 CALLDATASIZE PUSH1 0x3 NOT ADD SLT PUSH2 0x1D4 JUMPI PUSH1 0x20 PUSH1 0x1 SLOAD PUSH1 0x40 MLOAD SWAP1 DUP2 MSTORE RETURN JUMPDEST CALLVALUE PUSH2 0x1D4 JUMPI PUSH1 0x20 CALLDATASIZE PUSH1 0x3 NOT ADD SLT PUSH2 0x1D4 JUMPI PUSH1 0x4 CALLDATALOAD PUSH2 0x1234 PUSH1 0x2 SLOAD DUP3 LT PUSH2 0x16D8 JUMP JUMPDEST PUSH1 0x0 MSTORE PUSH1 0x4 PUSH1 0x20 MSTORE PUSH1 0x40 PUSH1 0x0 KECCAK256 PUSH1 0x1 DUP1 PUSH1 0xA0 SHL SUB DUP1 DUP3 SLOAD AND SWAP1 PUSH1 0x1 DUP4 ADD SLOAD AND SWAP2 PUSH1 0x4 DUP2 ADD SLOAD SWAP1 PUSH2 0x12BF PUSH1 0x5 DUP3 ADD SLOAD PUSH1 0xFF PUSH1 0x6 DUP5 ADD SLOAD AND PUSH1 0xFF PUSH1 0x8 DUP6 ADD SLOAD AND SWAP2 PUSH2 0x12A5 PUSH2 0x1287 PUSH1 0x2 PUSH1 0xB DUP9 ADD SLOAD SWAP8 ADD PUSH2 0x1513 JUMP JUMPDEST PUSH1 0x40 MLOAD SWAP10 DUP11 SWAP10 DUP11 MSTORE PUSH1 0x20 DUP11 ADD MSTORE PUSH2 0x100 DUP1 PUSH1 0x40 DUP12 ADD MSTORE DUP10 ADD SWAP1 PUSH2 0x13CD JUMP JUMPDEST SWAP6 PUSH1 0x60 DUP9 ADD MSTORE PUSH1 0x80 DUP8 ADD MSTORE PUSH1 0xA0 DUP7 ADD MSTORE PUSH1 0xC0 DUP6 ADD SWAP1 PUSH2 0x13F2 JUMP JUMPDEST PUSH1 0xE0 DUP4 ADD MSTORE SUB SWAP1 RETURN JUMPDEST CALLVALUE PUSH2 0x1D4 JUMPI PUSH1 0x0 CALLDATASIZE PUSH1 0x3 NOT ADD SLT PUSH2 0x1D4 JUMPI PUSH1 0x20 PUSH1 0x2 SLOAD PUSH1 0x40 MLOAD SWAP1 DUP2 MSTORE RETURN JUMPDEST CALLVALUE PUSH2 0x1D4 JUMPI PUSH1 0x0 CALLDATASIZE PUSH1 0x3 NOT ADD SLT PUSH2 0x1D4 JUMPI PUSH1 0x20 SELFBALANCE PUSH1 0x40 MLOAD SWAP1 DUP2 MSTORE RETURN JUMPDEST CALLVALUE PUSH2 0x1D4 JUMPI PUSH1 0x40 CALLDATASIZE PUSH1 0x3 NOT ADD SLT PUSH2 0x1D4 JUMPI PUSH2 0x131B PUSH2 0x1366 JUMP JUMPDEST PUSH1 0x1 PUSH1 0x1 PUSH1 0xA0 SHL SUB AND PUSH1 0x0 SWAP1 DUP2 MSTORE PUSH1 0x6 PUSH1 0x20 MSTORE PUSH1 0x40 SWAP1 KECCAK256 DUP1 SLOAD PUSH1 0x24 CALLDATALOAD SWAP2 SWAP1 DUP3 LT ISZERO PUSH2 0x1D4 JUMPI PUSH1 0x20 SWAP2 PUSH2 0xFA1 SWAP2 PUSH2 0x137C JUMP JUMPDEST CALLVALUE PUSH2 0x1D4 JUMPI PUSH1 0x0 CALLDATASIZE PUSH1 0x3 NOT ADD SLT PUSH2 0x1D4 JUMPI DUP1 PUSH1 0x32 PUSH1 0x20 SWAP3 MSTORE RETURN JUMPDEST PUSH1 0x4 CALLDATALOAD SWAP1 PUSH1 0x1 PUSH1 0x1 PUSH1 0xA0 SHL SUB DUP3 AND DUP3 SUB PUSH2 0x1D4 JUMPI JUMP JUMPDEST DUP1 SLOAD DUP3 LT ISZERO PUSH2 0x1394 JUMPI PUSH1 0x0 MSTORE PUSH1 0x20 PUSH1 0x0 KECCAK256 ADD SWAP1 PUSH1 0x0 SWAP1 JUMP JUMPDEST PUSH4 0x4E487B71 PUSH1 0xE0 SHL PUSH1 0x0 MSTORE PUSH1 0x32 PUSH1 0x4 MSTORE PUSH1 0x24 PUSH1 0x0 REVERT JUMPDEST PUSH1 0x0 JUMPDEST DUP4 DUP2 LT PUSH2 0x13BD JUMPI POP POP PUSH1 0x0 SWAP2 ADD MSTORE JUMP JUMPDEST DUP2 DUP2 ADD MLOAD DUP4 DUP3 ADD MSTORE PUSH1 0x20 ADD PUSH2 0x13AD JUMP JUMPDEST SWAP1 PUSH1 0x20 SWAP2 PUSH2 0x13E6 DUP2 MLOAD DUP1 SWAP3 DUP2 DUP6 MSTORE DUP6 DUP1 DUP7 ADD SWAP2 ADD PUSH2 0x13AA JUMP JUMPDEST PUSH1 0x1F ADD PUSH1 0x1F NOT AND ADD ADD SWAP1 JUMP JUMPDEST SWAP1 PUSH1 0x5 DUP3 LT ISZERO PUSH2 0x37B JUMPI MSTORE JUMP JUMPDEST PUSH1 0x40 SWAP1 PUSH1 0x3 NOT ADD SLT PUSH2 0x1D4 JUMPI PUSH1 0x4 CALLDATALOAD SWAP1 PUSH1 0x24 CALLDATALOAD SWAP1 JUMP JUMPDEST SWAP2 DUP2 PUSH1 0x1F DUP5 ADD SLT ISZERO PUSH2 0x1D4 JUMPI DUP3 CALLDATALOAD SWAP2 PUSH1 0x1 PUSH1 0x1 PUSH1 0x40 SHL SUB DUP4 GT PUSH2 0x1D4 JUMPI PUSH1 0x20 DUP4 DUP2 DUP7 ADD SWAP6 ADD ADD GT PUSH2 0x1D4 JUMPI JUMP JUMPDEST SWAP2 DUP2 PUSH1 0x1F DUP5 ADD SLT ISZERO PUSH2 0x1D4 JUMPI DUP3 CALLDATALOAD SWAP2 PUSH1 0x1 PUSH1 0x1 PUSH1 0x40 SHL SUB DUP4 GT PUSH2 0x1D4 JUMPI PUSH1 0x20 DUP1 DUP6 ADD SWAP5 DUP5 PUSH1 0x5 SHL ADD ADD GT PUSH2 0x1D4 JUMPI JUMP JUMPDEST SWAP1 PUSH1 0x1F DUP1 NOT SWAP2 ADD AND DUP2 ADD SWAP1 DUP2 LT PUSH1 0x1 PUSH1 0x1 PUSH1 0x40 SHL SUB DUP3 GT OR PUSH2 0xCA7 JUMPI PUSH1 0x40 MSTORE JUMP JUMPDEST SWAP3 SWAP2 SWAP3 PUSH1 0x1 PUSH1 0x1 PUSH1 0x40 SHL SUB DUP3 GT PUSH2 0xCA7 JUMPI PUSH1 0x40 MLOAD SWAP2 PUSH2 0x14BC PUSH1 0x1F DUP3 ADD PUSH1 0x1F NOT AND PUSH1 0x20 ADD DUP5 PUSH2 0x1472 JUMP JUMPDEST DUP3 SWAP5 DUP2 DUP5 MSTORE DUP2 DUP4 ADD GT PUSH2 0x1D4 JUMPI DUP3 DUP2 PUSH1 0x20 SWAP4 DUP5 PUSH1 0x0 SWAP7 ADD CALLDATACOPY ADD ADD MSTORE JUMP JUMPDEST SWAP1 PUSH1 0x1 DUP3 DUP2 SHR SWAP3 AND DUP1 ISZERO PUSH2 0x1509 JUMPI JUMPDEST PUSH1 0x20 DUP4 LT EQ PUSH2 0x14F3 JUMPI JUMP JUMPDEST PUSH4 0x4E487B71 PUSH1 0xE0 SHL PUSH1 0x0 MSTORE PUSH1 0x22 PUSH1 0x4 MSTORE PUSH1 0x24 PUSH1 0x0 REVERT JUMPDEST SWAP2 PUSH1 0x7F AND SWAP2 PUSH2 0x14E8 JUMP JUMPDEST SWAP1 PUSH1 0x40 MLOAD SWAP2 DUP3 PUSH1 0x0 DUP3 SLOAD SWAP3 PUSH2 0x1527 DUP5 PUSH2 0x14D9 JUMP JUMPDEST SWAP1 DUP2 DUP5 MSTORE PUSH1 0x1 SWAP5 DUP6 DUP2 AND SWAP1 DUP2 PUSH1 0x0 EQ PUSH2 0x1596 JUMPI POP PUSH1 0x1 EQ PUSH2 0x1553 JUMPI JUMPDEST POP POP PUSH2 0x1551 SWAP3 POP SUB DUP4 PUSH2 0x1472 JUMP JUMPDEST JUMP JUMPDEST SWAP1 SWAP4 SWAP2 POP PUSH1 0x0 MSTORE PUSH1 0x20 SWAP1 DUP2 PUSH1 0x0 KECCAK256 SWAP4 PUSH1 0x0 SWAP2 JUMPDEST DUP2 DUP4 LT PUSH2 0x157E JUMPI POP POP PUSH2 0x1551 SWAP4 POP DUP3 ADD ADD CODESIZE DUP1 PUSH2 0x1543 JUMP JUMPDEST DUP6 SLOAD DUP9 DUP5 ADD DUP6 ADD MSTORE SWAP5 DUP6 ADD SWAP5 DUP8 SWAP5 POP SWAP2 DUP4 ADD SWAP2 PUSH2 0x1566 JUMP JUMPDEST SWAP2 POP POP PUSH2 0x1551 SWAP5 POP PUSH1 0x20 SWAP3 POP PUSH1 0xFF NOT AND DUP3 DUP5 ADD MSTORE ISZERO ISZERO PUSH1 0x5 SHL DUP3 ADD ADD CODESIZE DUP1 PUSH2 0x1543 JUMP JUMPDEST PUSH1 0x0 NOT DUP2 EQ PUSH2 0xE17 JUMPI PUSH1 0x1 ADD SWAP1 JUMP JUMPDEST SWAP2 SWAP1 DUP2 LT ISZERO PUSH2 0x1394 JUMPI PUSH1 0x5 SHL ADD SWAP1 JUMP JUMPDEST SWAP2 SWAP1 DUP3 ADD DUP1 SWAP3 GT PUSH2 0xE17 JUMPI JUMP JUMPDEST SWAP2 SWAP1 DUP3 SUB SWAP2 DUP3 GT PUSH2 0xE17 JUMPI JUMP JUMPDEST SWAP1 PUSH1 0x1F DUP2 GT PUSH2 0x1600 JUMPI POP POP POP JUMP JUMPDEST PUSH1 0x0 SWAP2 DUP3 MSTORE PUSH1 0x20 DUP3 KECCAK256 SWAP1 PUSH1 0x20 PUSH1 0x1F DUP6 ADD PUSH1 0x5 SHR DUP4 ADD SWAP5 LT PUSH2 0x163C JUMPI JUMPDEST PUSH1 0x1F ADD PUSH1 0x5 SHR ADD SWAP2 JUMPDEST DUP3 DUP2 LT PUSH2 0x1631 JUMPI POP POP POP JUMP JUMPDEST DUP2 DUP2 SSTORE PUSH1 0x1 ADD PUSH2 0x1625 JUMP JUMPDEST SWAP1 SWAP3 POP DUP3 SWAP1 PUSH2 0x161C JUMP JUMPDEST DUP1 SLOAD DUP3 LT ISZERO PUSH2 0x1394 JUMPI PUSH1 0x0 MSTORE PUSH1 0x20 PUSH1 0x0 KECCAK256 SWAP1 PUSH1 0x2 SHL ADD SWAP1 PUSH1 0x0 SWAP1 JUMP JUMPDEST DUP1 SLOAD PUSH1 0x1 PUSH1 0x40 SHL DUP2 LT ISZERO PUSH2 0xCA7 JUMPI PUSH2 0x167F SWAP2 PUSH1 0x1 DUP3 ADD DUP2 SSTORE PUSH2 0x137C JUMP JUMPDEST DUP2 SWAP3 SWAP2 SLOAD SWAP1 PUSH1 0x3 SHL SWAP2 DUP3 SHL SWAP2 PUSH1 0x0 NOT SWAP1 SHL NOT AND OR SWAP1 SSTORE JUMP JUMPDEST ISZERO PUSH2 0x169E JUMPI JUMP JUMPDEST PUSH1 0x40 MLOAD PUSH3 0x461BCD PUSH1 0xE5 SHL DUP2 MSTORE PUSH1 0x20 PUSH1 0x4 DUP3 ADD MSTORE PUSH1 0x12 PUSH1 0x24 DUP3 ADD MSTORE PUSH18 0x2737BA10383630BA3337B9369037BBB732B9 PUSH1 0x71 SHL PUSH1 0x44 DUP3 ADD MSTORE PUSH1 0x64 SWAP1 REVERT JUMPDEST ISZERO PUSH2 0x16DF JUMPI JUMP JUMPDEST PUSH1 0x40 MLOAD PUSH3 0x461BCD PUSH1 0xE5 SHL DUP2 MSTORE PUSH1 0x20 PUSH1 0x4 DUP3 ADD MSTORE PUSH1 0x13 PUSH1 0x24 DUP3 ADD MSTORE PUSH19 0x1119585B08191BD95CC81B9BDD08195E1A5CDD PUSH1 0x6A SHL PUSH1 0x44 DUP3 ADD MSTORE PUSH1 0x64 SWAP1 REVERT JUMPDEST ISZERO PUSH2 0x1721 JUMPI JUMP JUMPDEST PUSH1 0x40 MLOAD PUSH3 0x461BCD PUSH1 0xE5 SHL DUP2 MSTORE PUSH1 0x20 PUSH1 0x4 DUP3 ADD MSTORE PUSH1 0xF PUSH1 0x24 DUP3 ADD MSTORE PUSH15 0x4465616C206E6F7420616374697665 PUSH1 0x88 SHL PUSH1 0x44 DUP3 ADD MSTORE PUSH1 0x64 SWAP1 REVERT INVALID LOG2 PUSH5 0x6970667358 0x22 SLT KECCAK256 0xF6 BLOCKHASH DUP3 0xDC STOP 0xAF SIGNEXTEND DUP11 JUMP SWAP11 0xE6 STOP 0x1F 0xBF DUP16 0xD2 PUSH23 0xD45965B385D27B23DAB04AA3AC566464736F6C63430008 SGT STOP CALLER "},"methodIdentifiers":{"PLATFORM_FEE_BPS()":"539aa77f","completeMilestone(uint256,uint256)":"f326206b","createInvestment(address,string,string,uint8,uint256,string[],uint256[],uint8[])":"c0233b06","getContractBalance()":"6f9fb98a","getDealInfo(uint256)":"73a4415c","getInvestorDeals(address)":"e9ddf5c4","getMilestone(uint256,uint256)":"8ed9895c","investments(uint256)":"fd345c8a","investorDeals(address,uint256)":"bdbbc242","owner()":"8da5cb5b","platformFeeAccrued()":"8d0dcfea","refundInvestor(uint256)":"8df10469","registeredStartups(string)":"dfb5b3bd","startupDeals(address,uint256)":"6cd29a5d","totalInvestments()":"70fd37cf","totalValueLocked()":"ec18154e","updateTrustScore(uint256,uint8)":"d79ed7dc","withdrawPlatformFees()":"d0b7830b"}}}}}