{"contracts/TrustOracle.sol":{"TrustOracle":{"abi":[{"inputs":[{"internalType":"address","name":"_oracleSigner","type":"address"},{"internalType":"address","name":"_milestoneEscrow","type":"address"},{"internalType":"address","name":"_complianceRules","type":"address"}],"stateMutability":"nonpayable","type":"constructor"},{"inputs":[{"internalType":"address","name":"recovered","type":"address"},{"internalType":"address","name":"expected","type":"address"}],"name":"InvalidSignature","type":"error"},{"inputs":[{"internalType":"uint256","name":"score","type":"uint256"}],"name":"InvalidTrustScore","type":"error"},{"inputs":[{"internalType":"bytes32","name":"nonce","type":"bytes32"}],"name":"NonceAlreadyUsed","type":"error"},{"inputs":[{"internalType":"uint256","name":"dataTimestamp","type":"uint256"},{"internalType":"uint256","name":"currentTime","type":"uint256"},{"internalType":"uint256","name":"maxAge","type":"uint256"}],"name":"StaleOracleData","type":"error"},{"inputs":[{"internalType":"address","name":"caller","type":"address"}],"name":"Unauthorised","type":"error"},{"inputs":[{"internalType":"bytes32","name":"startupId","type":"bytes32"},{"internalType":"uint256","name":"nextAllowedTime","type":"uint256"}],"name":"UpdateTooFrequent","type":"error"},{"inputs":[],"name":"ZeroAddress","type":"error"},{"anonymous":false,"inputs":[{"indexed":true,"internalType":"address","name":"newCompliance","type":"address"}],"name":"ComplianceRulesUpdated","type":"event"},{"anonymous":false,"inputs":[{"indexed":true,"internalType":"bytes32","name":"startupId","type":"bytes32"},{"indexed":false,"internalType":"address","name":"startupToken","type":"address"},{"indexed":false,"internalType":"uint8","name":"complianceScore","type":"uint8"}],"name":"ComplianceScoreForwarded","type":"event"},{"anonymous":false,"inputs":[{"indexed":true,"internalType":"bytes32","name":"startupId","type":"bytes32"},{"indexed":false,"internalType":"uint256","name":"trustScore","type":"uint256"},{"indexed":false,"internalType":"string","name":"reason","type":"string"}],"name":"FreezeTriggered","type":"event"},{"anonymous":false,"inputs":[{"indexed":true,"internalType":"address","name":"newEscrow","type":"address"}],"name":"MilestoneEscrowUpdated","type":"event"},{"anonymous":false,"inputs":[{"indexed":true,"internalType":"address","name":"newSigner","type":"address"}],"name":"OracleSignerUpdated","type":"event"},{"anonymous":false,"inputs":[{"indexed":true,"internalType":"bytes32","name":"startupId","type":"bytes32"},{"indexed":false,"internalType":"uint8","name":"trancheId","type":"uint8"},{"indexed":false,"internalType":"uint256","name":"trustScore","type":"uint256"}],"name":"TrancheApprovalForwarded","type":"event"},{"anonymous":false,"inputs":[{"indexed":true,"internalType":"bytes32","name":"startupId","type":"bytes32"},{"indexed":false,"internalType":"uint256","name":"trustScore","type":"uint256"},{"indexed":false,"internalType":"uint8","name":"trancheId","type":"uint8"},{"indexed":false,"internalType":"address","name":"startupToken","type":"address"},{"indexed":false,"internalType":"uint256","name":"timestamp","type":"uint256"}],"name":"TrustScoreUpdated","type":"event"},{"inputs":[],"name":"FREEZE_THRESHOLD","outputs":[{"internalType":"uint256","name":"","type":"uint256"}],"stateMutability":"view","type":"function"},{"inputs":[],"name":"MAX_DATA_AGE","outputs":[{"internalType":"uint256","name":"","type":"uint256"}],"stateMutability":"view","type":"function"},{"inputs":[],"name":"TRANCHE_FREEZE_ONLY","outputs":[{"internalType":"uint8","name":"","type":"uint8"}],"stateMutability":"view","type":"function"},{"inputs":[],"name":"TRUST_SCALE","outputs":[{"internalType":"uint256","name":"","type":"uint256"}],"stateMutability":"view","type":"function"},{"inputs":[],"name":"UPDATE_INTERVAL","outputs":[{"internalType":"uint256","name":"","type":"uint256"}],"stateMutability":"view","type":"function"},{"inputs":[],"name":"complianceRules","outputs":[{"internalType":"contract IComplianceRules","name":"","type":"address"}],"stateMutability":"view","type":"function"},{"inputs":[{"internalType":"bytes32","name":"startupId","type":"bytes32"},{"internalType":"string","name":"reason","type":"string"}],"name":"emergencyFreeze","outputs":[],"stateMutability":"nonpayable","type":"function"},{"inputs":[{"internalType":"bytes32","name":"startupId","type":"bytes32"}],"name":"getTrustScore","outputs":[{"internalType":"uint256","name":"score","type":"uint256"},{"internalType":"uint256","name":"updatedAt","type":"uint256"}],"stateMutability":"view","type":"function"},{"inputs":[{"internalType":"bytes32","name":"nonce","type":"bytes32"}],"name":"isNonceUsed","outputs":[{"internalType":"bool","name":"","type":"bool"}],"stateMutability":"view","type":"function"},{"inputs":[{"internalType":"bytes32","name":"","type":"bytes32"}],"name":"lastTrustScore","outputs":[{"internalType":"uint256","name":"","type":"uint256"}],"stateMutability":"view","type":"function"},{"inputs":[{"internalType":"bytes32","name":"","type":"bytes32"}],"name":"lastUpdateTime","outputs":[{"internalType":"uint256","name":"","type":"uint256"}],"stateMutability":"view","type":"function"},{"inputs":[],"name":"milestoneEscrow","outputs":[{"internalType":"contract IMilestoneEscrow","name":"","type":"address"}],"stateMutability":"view","type":"function"},{"inputs":[],"name":"oracleSigner","outputs":[{"internalType":"address","name":"","type":"address"}],"stateMutability":"view","type":"function"},{"inputs":[],"name":"owner","outputs":[{"internalType":"address","name":"","type":"address"}],"stateMutability":"view","type":"function"},{"inputs":[{"internalType":"bytes32","name":"startupId","type":"bytes32"},{"internalType":"uint256","name":"trustScore","type":"uint256"},{"internalType":"uint8","name":"trancheId","type":"uint8"},{"internalType":"address","name":"startupToken","type":"address"},{"internalType":"uint256","name":"dataTimestamp","type":"uint256"},{"internalType":"bytes32","name":"nonce","type":"bytes32"},{"internalType":"bytes","name":"signature","type":"bytes"}],"name":"pushTrustScore","outputs":[],"stateMutability":"nonpayable","type":"function"},{"inputs":[{"internalType":"address","name":"_compliance","type":"address"}],"name":"setComplianceRules","outputs":[],"stateMutability":"nonpayable","type":"function"},{"inputs":[{"internalType":"address","name":"_escrow","type":"address"}],"name":"setMilestoneEscrow","outputs":[],"stateMutability":"nonpayable","type":"function"},{"inputs":[{"internalType":"address","name":"_signer","type":"address"}],"name":"setOracleSigner","outputs":[],"stateMutability":"nonpayable","type":"function"},{"inputs":[{"internalType":"address","name":"newOwner","type":"address"}],"name":"transferOwnership","outputs":[],"stateMutability":"nonpayable","type":"function"},{"inputs":[{"internalType":"bytes32","name":"","type":"bytes32"}],"name":"usedNonces","outputs":[{"internalType":"bool","name":"","type":"bool"}],"stateMutability":"view","type":"function"},{"inputs":[{"internalType":"bytes32","name":"startupId","type":"bytes32"},{"internalType":"uint256","name":"trustScore","type":"uint256"},{"internalType":"uint256","name":"dataTimestamp","type":"uint256"},{"internalType":"bytes32","name":"nonce","type":"bytes32"},{"internalType":"bytes","name":"signature","type":"bytes"}],"name":"verifySignature","outputs":[{"internalType":"address","name":"signer","type":"address"},{"internalType":"bool","name":"valid","type":"bool"}],"stateMutability":"view","type":"function"}],"evm":{"bytecode":{"linkReferences":{},"object":"6080346100c457601f610f7f38819003918201601f19168301916001600160401b038311848410176100c9578084926060946040528339810103126100c457610047816100df565b61005f6040610058602085016100df565b93016100df565b6001600160a01b039182169283156100b257829060018060a01b031994338660005416176000558560015416176001551683600254161760025516906003541617600355604051610e8b90816100f48239f35b60405163d92e233d60e01b8152600490fd5b600080fd5b634e487b7160e01b600052604160045260246000fd5b51906001600160a01b03821682036100c45756fe6080604081815260048036101561001557600080fd5b600092833560e01c9081631709a61b1461074457508063173ff77d1461072757806328bff9db146106a0578063313a84d81461062c578063518a9544146106035780635321f047146105e65780635324ba32146105c057806355461f00146105355780636626dda0146105185780636ec58d13146104ef5780637cd43405146104d357806389ac4147146104b65780638da5cb5b1461048e578063995121b514610467578063a2cb50ad14610433578063adf12b221461032b578063b90665e5146102ff578063c13de0a314610222578063c5161ee1146101a6578063f2fde38b146101395763feb617241461010a57600080fd5b34610135576020366003190112610135578160209360ff923581526006855220541690519015158152f35b8280fd5b503461013557602036600319011261013557610153610769565b835491906001600160a01b0390818416330361019057169283156101835750506001600160a01b03191617815580f35b5163d92e233d60e01b8152fd5b845163570870ef60e11b81523381850152602490fd5b83823461021e5760e036600319011261021e576044359060ff82168203610135576064356001600160a01b03811681036102195760c4359267ffffffffffffffff8411610215576101fd610212943690850161077f565b93909260a43592608435926024359035610815565b80f35b8480fd5b600080fd5b5080fd5b5082346102fc5760a03660031901126102fc576084359067ffffffffffffffff82116102fc57509061025a6102dd923690830161077f565b845192356020840190815260243560408501526044356060850152606435608085015290926102968160a081015b03601f1981018352826107f3565b519020845160208101917f19457468657265756d205369676e6564204d6573736167653a0a3332000000008352603c820152603c81526102d5816107d7565b519020610d24565b60015482516001600160a01b0392831680825291909216146020820152f35b80fd5b5034610135576020366003190112610135578160209360ff923581526006855220541690519015158152f35b50903461013557806003193601126101355781359060243567ffffffffffffffff81116102155761035f903690850161077f565b85546001600160a01b0392908316330361041d57937f34de707675b1b7aa9fce9da263e4b501a3701170e51f46b15d140b4a7538239382606089978796958598519384928b8452896020850152818a8501528484013781810183018a9052601f01601f19168101030190a26002541693846103d8578380f35b843b15610419578360449251958694859362227b7f60e41b85528401528160248401525af161040a575b818180808380f35b610413906107ad565b38610402565b8380fd5b835163570870ef60e11b81523381880152602490fd5b5082903461021e57602036600319011261021e57803582526020528180822054916005602052205482519182526020820152f35b50346101355760203660031901126101355760209282913581526005845220549051908152f35b50503461021e578160031936011261021e57905490516001600160a01b039091168152602090f35b50503461021e578160031936011261021e5760209051610e108152f35b50503461021e578160031936011261021e576020905160ff8152f35b50503461021e578160031936011261021e5760035490516001600160a01b039091168152602090f35b50503461021e578160031936011261021e576020905161015e8152f35b50346101355760203660031901126101355761054f610769565b83546001600160a01b039391929190841633036105a957505016806bffffffffffffffffffffffff60a01b60035416176003557fc49efeecbee17783c3763c02b45f43fb52b20da929358ce165f05be94513ed608280a280f35b60249250519063570870ef60e11b82523390820152fd5b503461013557602036600319011261013557602092818392358252845220549051908152f35b50503461021e578160031936011261021e57602090516154608152f35b50503461021e578160031936011261021e5760025490516001600160a01b039091168152602090f35b503461013557602036600319011261013557610646610769565b83546001600160a01b039391929190841633036105a957505016806bffffffffffffffffffffffff60a01b60025416176002557fc9b944aaf2d0e95a44d2333e83b669781149a9ec382f998a42591a46a68109928280a280f35b5034610135576020366003190112610135576106ba610769565b83546001600160a01b039190821633036107115716918215610183575050600180546001600160a01b031916821790557f9787ad339c4bc9e4b4743a2e50da52ee5b40e7096843872095b8280a501522468280a280f35b835163570870ef60e11b81523381850152602490fd5b50503461021e578160031936011261021e57602090516103e88152f35b84903461021e578160031936011261021e576001546001600160a01b03168152602090f35b600435906001600160a01b038216820361021957565b9181601f840112156102195782359167ffffffffffffffff8311610219576020838186019501011161021957565b67ffffffffffffffff81116107c157604052565b634e487b7160e01b600052604160045260246000fd5b6060810190811067ffffffffffffffff8211176107c157604052565b90601f8019910116810190811067ffffffffffffffff8211176107c157604052565b969490919293956103e88311610cc8576000958287526020916006835260409860ff8a8a205416610cb057615460808201808311610c9c574211610c7957508a89526005845289892054610e108101809111610c6557804210610c48575089518481018c8152602081018890526040810192909252606082018690526108e3939291906108a58160808401610288565b5190208a51858101917f19457468657265756d205369676e6564204d6573736167653a0a3332000000008352603c820152603c81526102d5816107d7565b6001546001600160a01b0393918416908416808203610c2b575050865260068152868620600160ff1982541617905587865260048152828787205560058152428787205586519383855260ff8116908183870152897f32c99bec8988cf351ce8d70fa76a5939adba145cf0b7f9278d5216695c790d416080868a1698898d820152426060820152a28961015e8610610b6b575060ff82141580610b5e575b610a62575b50505060035416918215159081610a58575b506109a6575b505050505050565b6109af90610ce1565b92813b156102fc578451635425bba360e11b81526001600160a01b038416600482015260ff851660248201529181908390604490829084905af19182610a44575b50506109fe575b808061099e565b91516001600160a01b03909216825260ff1660208201527f073cc469b5f81cf39b9be4bef8e4cd569296fb51bdbdfe69c8c36153ef0c9bf990604090a2388080806109f7565b610a4e82916107ad565b6102fc57806109f0565b9050151538610998565b8851838101918b835260ff60f81b9060f81b168a8201524260418201524360618201526061815260a081019181831067ffffffffffffffff8411176107c157828b5281519020856002541691823b15610b5a57928a80828f9897958f97836084928e9861010486948f63aa255f6360e01b875260a48201528c60c48201528b60e482015201525af19182610b34575b5050610aff575b5050610986565b7fddb499ce5b18cff56793b166a9efc4b24d77f5693b5a7ed0e285843b77b0fd4e938351928352820152a28638878185610af8565b91945092949550610b4591506107ad565b610b5657899291858a928a38610af1565b8780fd5b8a80fd5b5083600254161515610981565b927f34de707675b1b7aa9fce9da263e4b501a3701170e51f46b15d140b4a753823939250608091508980519187835282015260128a8201527174727573745f73636f7265203c20302e333560701b6060820152a2806002541680610be6575b5060035416918215159081610a5857506109a657505050505050565b803b15610c2757858091604489518094819362227b7f60e41b83528d60048401528860248401525af115610bca57610c20909591956107ad565b9338610bca565b8580fd5b604492508951916310b5d43760e21b835260048301526024820152fd5b8b6044918c51916325360ccd60e21b835260048301526024820152fd5b634e487b7160e01b8a52601160045260248afd5b606492508a519163e2b0644d60e01b835260048301524260248301526044820152fd5b634e487b7160e01b8b52601160045260248bfd5b8951638c24228560e01b815260048101869052602490fd5b60405163478ae04960e01b815260048101849052602490fd5b606481029080820460641490151715610d0e576103e890046064811115610d085750606490565b60ff1690565b634e487b7160e01b600052601160045260246000fd5b91604103610e0257604081013560001a601b8110610de0575b60ff1690601b82148015610dd6575b15610d91576020928360809260009460405193845282840152803560408401520135606082015282805260015afa15610d855760005190565b6040513d6000823e3d90fd5b60405162461bcd60e51b815260206004820152601c60248201527f54727573744f7261636c653a20696e76616c696420762076616c7565000000006044820152606490fd5b50601c8214610d4c565b601b0160ff811115610d3d57634e487b7160e01b600052601160045260246000fd5b60405162461bcd60e51b815260206004820152602560248201527f54727573744f7261636c653a20696e76616c6964207369676e6174757265206c6044820152640cadccee8d60db1b6064820152608490fdfea26469706673582212204a8f7f1f5aae5adff9bdb8871fdfdb326a0b8f6e6976f960d1b0ebc163bcfa3764736f6c63430008130033","opcodes":"PUSH1 0x80 CALLVALUE PUSH2 0xC4 JUMPI PUSH1 0x1F PUSH2 0xF7F CODESIZE DUP2 SWAP1 SUB SWAP2 DUP3 ADD PUSH1 0x1F NOT AND DUP4 ADD SWAP2 PUSH1 0x1 PUSH1 0x1 PUSH1 0x40 SHL SUB DUP4 GT DUP5 DUP5 LT OR PUSH2 0xC9 JUMPI DUP1 DUP5 SWAP3 PUSH1 0x60 SWAP5 PUSH1 0x40 MSTORE DUP4 CODECOPY DUP2 ADD SUB SLT PUSH2 0xC4 JUMPI PUSH2 0x47 DUP2 PUSH2 0xDF JUMP JUMPDEST PUSH2 0x5F PUSH1 0x40 PUSH2 0x58 PUSH1 0x20 DUP6 ADD PUSH2 0xDF JUMP JUMPDEST SWAP4 ADD PUSH2 0xDF JUMP JUMPDEST PUSH1 0x1 PUSH1 0x1 PUSH1 0xA0 SHL SUB SWAP2 DUP3 AND SWAP3 DUP4 ISZERO PUSH2 0xB2 JUMPI DUP3 SWAP1 PUSH1 0x1 DUP1 PUSH1 0xA0 SHL SUB NOT SWAP5 CALLER DUP7 PUSH1 0x0 SLOAD AND OR PUSH1 0x0 SSTORE DUP6 PUSH1 0x1 SLOAD AND OR PUSH1 0x1 SSTORE AND DUP4 PUSH1 0x2 SLOAD AND OR PUSH1 0x2 SSTORE AND SWAP1 PUSH1 0x3 SLOAD AND OR PUSH1 0x3 SSTORE PUSH1 0x40 MLOAD PUSH2 0xE8B SWAP1 DUP2 PUSH2 0xF4 DUP3 CODECOPY RETURN JUMPDEST PUSH1 0x40 MLOAD PUSH4 0xD92E233D PUSH1 0xE0 SHL DUP2 MSTORE PUSH1 0x4 SWAP1 REVERT JUMPDEST PUSH1 0x0 DUP1 REVERT JUMPDEST PUSH4 0x4E487B71 PUSH1 0xE0 SHL PUSH1 0x0 MSTORE PUSH1 0x41 PUSH1 0x4 MSTORE PUSH1 0x24 PUSH1 0x0 REVERT JUMPDEST MLOAD SWAP1 PUSH1 0x1 PUSH1 0x1 PUSH1 0xA0 SHL SUB DUP3 AND DUP3 SUB PUSH2 0xC4 JUMPI JUMP INVALID PUSH1 0x80 PUSH1 0x40 DUP2 DUP2 MSTORE PUSH1 0x4 DUP1 CALLDATASIZE LT ISZERO PUSH2 0x15 JUMPI PUSH1 0x0 DUP1 REVERT JUMPDEST PUSH1 0x0 SWAP3 DUP4 CALLDATALOAD PUSH1 0xE0 SHR SWAP1 DUP2 PUSH4 0x1709A61B EQ PUSH2 0x744 JUMPI POP DUP1 PUSH4 0x173FF77D EQ PUSH2 0x727 JUMPI DUP1 PUSH4 0x28BFF9DB EQ PUSH2 0x6A0 JUMPI DUP1 PUSH4 0x313A84D8 EQ PUSH2 0x62C JUMPI DUP1 PUSH4 0x518A9544 EQ PUSH2 0x603 JUMPI DUP1 PUSH4 0x5321F047 EQ PUSH2 0x5E6 JUMPI DUP1 PUSH4 0x5324BA32 EQ PUSH2 0x5C0 JUMPI DUP1 PUSH4 0x55461F00 EQ PUSH2 0x535 JUMPI DUP1 PUSH4 0x6626DDA0 EQ PUSH2 0x518 JUMPI DUP1 PUSH4 0x6EC58D13 EQ PUSH2 0x4EF JUMPI DUP1 PUSH4 0x7CD43405 EQ PUSH2 0x4D3 JUMPI DUP1 PUSH4 0x89AC4147 EQ PUSH2 0x4B6 JUMPI DUP1 PUSH4 0x8DA5CB5B EQ PUSH2 0x48E JUMPI DUP1 PUSH4 0x995121B5 EQ PUSH2 0x467 JUMPI DUP1 PUSH4 0xA2CB50AD EQ PUSH2 0x433 JUMPI DUP1 PUSH4 0xADF12B22 EQ PUSH2 0x32B JUMPI DUP1 PUSH4 0xB90665E5 EQ PUSH2 0x2FF JUMPI DUP1 PUSH4 0xC13DE0A3 EQ PUSH2 0x222 JUMPI DUP1 PUSH4 0xC5161EE1 EQ PUSH2 0x1A6 JUMPI DUP1 PUSH4 0xF2FDE38B EQ PUSH2 0x139 JUMPI PUSH4 0xFEB61724 EQ PUSH2 0x10A JUMPI PUSH1 0x0 DUP1 REVERT JUMPDEST CALLVALUE PUSH2 0x135 JUMPI PUSH1 0x20 CALLDATASIZE PUSH1 0x3 NOT ADD SLT PUSH2 0x135 JUMPI DUP2 PUSH1 0x20 SWAP4 PUSH1 0xFF SWAP3 CALLDATALOAD DUP2 MSTORE PUSH1 0x6 DUP6 MSTORE KECCAK256 SLOAD AND SWAP1 MLOAD SWAP1 ISZERO ISZERO DUP2 MSTORE RETURN JUMPDEST DUP3 DUP1 REVERT JUMPDEST POP CALLVALUE PUSH2 0x135 JUMPI PUSH1 0x20 CALLDATASIZE PUSH1 0x3 NOT ADD SLT PUSH2 0x135 JUMPI PUSH2 0x153 PUSH2 0x769 JUMP JUMPDEST DUP4 SLOAD SWAP2 SWAP1 PUSH1 0x1 PUSH1 0x1 PUSH1 0xA0 SHL SUB SWAP1 DUP2 DUP5 AND CALLER SUB PUSH2 0x190 JUMPI AND SWAP3 DUP4 ISZERO PUSH2 0x183 JUMPI POP POP PUSH1 0x1 PUSH1 0x1 PUSH1 0xA0 SHL SUB NOT AND OR DUP2 SSTORE DUP1 RETURN JUMPDEST MLOAD PUSH4 0xD92E233D PUSH1 0xE0 SHL DUP2 MSTORE REVERT JUMPDEST DUP5 MLOAD PUSH4 0x570870EF PUSH1 0xE1 SHL DUP2 MSTORE CALLER DUP2 DUP6 ADD MSTORE PUSH1 0x24 SWAP1 REVERT JUMPDEST DUP4 DUP3 CALLVALUE PUSH2 0x21E JUMPI PUSH1 0xE0 CALLDATASIZE PUSH1 0x3 NOT ADD SLT PUSH2 0x21E JUMPI PUSH1 0x44 CALLDATALOAD SWAP1 PUSH1 0xFF DUP3 AND DUP3 SUB PUSH2 0x135 JUMPI PUSH1 0x64 CALLDATALOAD PUSH1 0x1 PUSH1 0x1 PUSH1 0xA0 SHL SUB DUP2 AND DUP2 SUB PUSH2 0x219 JUMPI PUSH1 0xC4 CALLDATALOAD SWAP3 PUSH8 0xFFFFFFFFFFFFFFFF DUP5 GT PUSH2 0x215 JUMPI PUSH2 0x1FD PUSH2 0x212 SWAP5 CALLDATASIZE SWAP1 DUP6 ADD PUSH2 0x77F JUMP JUMPDEST SWAP4 SWAP1 SWAP3 PUSH1 0xA4 CALLDATALOAD SWAP3 PUSH1 0x84 CALLDATALOAD SWAP3 PUSH1 0x24 CALLDATALOAD SWAP1 CALLDATALOAD PUSH2 0x815 JUMP JUMPDEST DUP1 RETURN JUMPDEST DUP5 DUP1 REVERT JUMPDEST PUSH1 0x0 DUP1 REVERT JUMPDEST POP DUP1 REVERT JUMPDEST POP DUP3 CALLVALUE PUSH2 0x2FC JUMPI PUSH1 0xA0 CALLDATASIZE PUSH1 0x3 NOT ADD SLT PUSH2 0x2FC JUMPI PUSH1 0x84 CALLDATALOAD SWAP1 PUSH8 0xFFFFFFFFFFFFFFFF DUP3 GT PUSH2 0x2FC JUMPI POP SWAP1 PUSH2 0x25A PUSH2 0x2DD SWAP3 CALLDATASIZE SWAP1 DUP4 ADD PUSH2 0x77F JUMP JUMPDEST DUP5 MLOAD SWAP3 CALLDATALOAD PUSH1 0x20 DUP5 ADD SWAP1 DUP2 MSTORE PUSH1 0x24 CALLDATALOAD PUSH1 0x40 DUP6 ADD MSTORE PUSH1 0x44 CALLDATALOAD PUSH1 0x60 DUP6 ADD MSTORE PUSH1 0x64 CALLDATALOAD PUSH1 0x80 DUP6 ADD MSTORE SWAP1 SWAP3 PUSH2 0x296 DUP2 PUSH1 0xA0 DUP2 ADD JUMPDEST SUB PUSH1 0x1F NOT DUP2 ADD DUP4 MSTORE DUP3 PUSH2 0x7F3 JUMP JUMPDEST MLOAD SWAP1 KECCAK256 DUP5 MLOAD PUSH1 0x20 DUP2 ADD SWAP2 PUSH32 0x19457468657265756D205369676E6564204D6573736167653A0A333200000000 DUP4 MSTORE PUSH1 0x3C DUP3 ADD MSTORE PUSH1 0x3C DUP2 MSTORE PUSH2 0x2D5 DUP2 PUSH2 0x7D7 JUMP JUMPDEST MLOAD SWAP1 KECCAK256 PUSH2 0xD24 JUMP JUMPDEST PUSH1 0x1 SLOAD DUP3 MLOAD PUSH1 0x1 PUSH1 0x1 PUSH1 0xA0 SHL SUB SWAP3 DUP4 AND DUP1 DUP3 MSTORE SWAP2 SWAP1 SWAP3 AND EQ PUSH1 0x20 DUP3 ADD MSTORE RETURN JUMPDEST DUP1 REVERT JUMPDEST POP CALLVALUE PUSH2 0x135 JUMPI PUSH1 0x20 CALLDATASIZE PUSH1 0x3 NOT ADD SLT PUSH2 0x135 JUMPI DUP2 PUSH1 0x20 SWAP4 PUSH1 0xFF SWAP3 CALLDATALOAD DUP2 MSTORE PUSH1 0x6 DUP6 MSTORE KECCAK256 SLOAD AND SWAP1 MLOAD SWAP1 ISZERO ISZERO DUP2 MSTORE RETURN JUMPDEST POP SWAP1 CALLVALUE PUSH2 0x135 JUMPI DUP1 PUSH1 0x3 NOT CALLDATASIZE ADD SLT PUSH2 0x135 JUMPI DUP2 CALLDATALOAD SWAP1 PUSH1 0x24 CALLDATALOAD PUSH8 0xFFFFFFFFFFFFFFFF DUP2 GT PUSH2 0x215 JUMPI PUSH2 0x35F SWAP1 CALLDATASIZE SWAP1 DUP6 ADD PUSH2 0x77F JUMP JUMPDEST DUP6 SLOAD PUSH1 0x1 PUSH1 0x1 PUSH1 0xA0 SHL SUB SWAP3 SWAP1 DUP4 AND CALLER SUB PUSH2 0x41D JUMPI SWAP4 PUSH32 0x34DE707675B1B7AA9FCE9DA263E4B501A3701170E51F46B15D140B4A75382393 DUP3 PUSH1 0x60 DUP10 SWAP8 DUP8 SWAP7 SWAP6 DUP6 SWAP9 MLOAD SWAP4 DUP5 SWAP3 DUP12 DUP5 MSTORE DUP10 PUSH1 0x20 DUP6 ADD MSTORE DUP2 DUP11 DUP6 ADD MSTORE DUP5 DUP5 ADD CALLDATACOPY DUP2 DUP2 ADD DUP4 ADD DUP11 SWAP1 MSTORE PUSH1 0x1F ADD PUSH1 0x1F NOT AND DUP2 ADD SUB ADD SWAP1 LOG2 PUSH1 0x2 SLOAD AND SWAP4 DUP5 PUSH2 0x3D8 JUMPI DUP4 DUP1 RETURN JUMPDEST DUP5 EXTCODESIZE ISZERO PUSH2 0x419 JUMPI DUP4 PUSH1 0x44 SWAP3 MLOAD SWAP6 DUP7 SWAP5 DUP6 SWAP4 PUSH3 0x227B7F PUSH1 0xE4 SHL DUP6 MSTORE DUP5 ADD MSTORE DUP2 PUSH1 0x24 DUP5 ADD MSTORE GAS CALL PUSH2 0x40A JUMPI JUMPDEST DUP2 DUP2 DUP1 DUP1 DUP4 DUP1 RETURN JUMPDEST PUSH2 0x413 SWAP1 PUSH2 0x7AD JUMP JUMPDEST CODESIZE PUSH2 0x402 JUMP JUMPDEST DUP4 DUP1 REVERT JUMPDEST DUP4 MLOAD PUSH4 0x570870EF PUSH1 0xE1 SHL DUP2 MSTORE CALLER DUP2 DUP9 ADD MSTORE PUSH1 0x24 SWAP1 REVERT JUMPDEST POP DUP3 SWAP1 CALLVALUE PUSH2 0x21E JUMPI PUSH1 0x20 CALLDATASIZE PUSH1 0x3 NOT ADD SLT PUSH2 0x21E JUMPI DUP1 CALLDATALOAD DUP3 MSTORE PUSH1 0x20 MSTORE DUP2 DUP1 DUP3 KECCAK256 SLOAD SWAP2 PUSH1 0x5 PUSH1 0x20 MSTORE KECCAK256 SLOAD DUP3 MLOAD SWAP2 DUP3 MSTORE PUSH1 0x20 DUP3 ADD MSTORE RETURN JUMPDEST POP CALLVALUE PUSH2 0x135 JUMPI PUSH1 0x20 CALLDATASIZE PUSH1 0x3 NOT ADD SLT PUSH2 0x135 JUMPI PUSH1 0x20 SWAP3 DUP3 SWAP2 CALLDATALOAD DUP2 MSTORE PUSH1 0x5 DUP5 MSTORE KECCAK256 SLOAD SWAP1 MLOAD SWAP1 DUP2 MSTORE RETURN JUMPDEST POP POP CALLVALUE PUSH2 0x21E JUMPI DUP2 PUSH1 0x3 NOT CALLDATASIZE ADD SLT PUSH2 0x21E JUMPI SWAP1 SLOAD SWAP1 MLOAD PUSH1 0x1 PUSH1 0x1 PUSH1 0xA0 SHL SUB SWAP1 SWAP2 AND DUP2 MSTORE PUSH1 0x20 SWAP1 RETURN JUMPDEST POP POP CALLVALUE PUSH2 0x21E JUMPI DUP2 PUSH1 0x3 NOT CALLDATASIZE ADD SLT PUSH2 0x21E JUMPI PUSH1 0x20 SWAP1 MLOAD PUSH2 0xE10 DUP2 MSTORE RETURN JUMPDEST POP POP CALLVALUE PUSH2 0x21E JUMPI DUP2 PUSH1 0x3 NOT CALLDATASIZE ADD SLT PUSH2 0x21E JUMPI PUSH1 0x20 SWAP1 MLOAD PUSH1 0xFF DUP2 MSTORE RETURN JUMPDEST POP POP CALLVALUE PUSH2 0x21E JUMPI DUP2 PUSH1 0x3 NOT CALLDATASIZE ADD SLT PUSH2 0x21E JUMPI PUSH1 0x3 SLOAD SWAP1 MLOAD PUSH1 0x1 PUSH1 0x1 PUSH1 0xA0 SHL SUB SWAP1 SWAP2 AND DUP2 MSTORE PUSH1 0x20 SWAP1 RETURN JUMPDEST POP POP CALLVALUE PUSH2 0x21E JUMPI DUP2 PUSH1 0x3 NOT CALLDATASIZE ADD SLT PUSH2 0x21E JUMPI PUSH1 0x20 SWAP1 MLOAD PUSH2 0x15E DUP2 MSTORE RETURN JUMPDEST POP CALLVALUE PUSH2 0x135 JUMPI PUSH1 0x20 CALLDATASIZE PUSH1 0x3 NOT ADD SLT PUSH2 0x135 JUMPI PUSH2 0x54F PUSH2 0x769 JUMP JUMPDEST DUP4 SLOAD PUSH1 0x1 PUSH1 0x1 PUSH1 0xA0 SHL SUB SWAP4 SWAP2 SWAP3 SWAP2 SWAP1 DUP5 AND CALLER SUB PUSH2 0x5A9 JUMPI POP POP AND DUP1 PUSH12 0xFFFFFFFFFFFFFFFFFFFFFFFF PUSH1 0xA0 SHL PUSH1 0x3 SLOAD AND OR PUSH1 0x3 SSTORE PUSH32 0xC49EFEECBEE17783C3763C02B45F43FB52B20DA929358CE165F05BE94513ED60 DUP3 DUP1 LOG2 DUP1 RETURN JUMPDEST PUSH1 0x24 SWAP3 POP MLOAD SWAP1 PUSH4 0x570870EF PUSH1 0xE1 SHL DUP3 MSTORE CALLER SWAP1 DUP3 ADD MSTORE REVERT JUMPDEST POP CALLVALUE PUSH2 0x135 JUMPI PUSH1 0x20 CALLDATASIZE PUSH1 0x3 NOT ADD SLT PUSH2 0x135 JUMPI PUSH1 0x20 SWAP3 DUP2 DUP4 SWAP3 CALLDATALOAD DUP3 MSTORE DUP5 MSTORE KECCAK256 SLOAD SWAP1 MLOAD SWAP1 DUP2 MSTORE RETURN JUMPDEST POP POP CALLVALUE PUSH2 0x21E JUMPI DUP2 PUSH1 0x3 NOT CALLDATASIZE ADD SLT PUSH2 0x21E JUMPI PUSH1 0x20 SWAP1 MLOAD PUSH2 0x5460 DUP2 MSTORE RETURN JUMPDEST POP POP CALLVALUE PUSH2 0x21E JUMPI DUP2 PUSH1 0x3 NOT CALLDATASIZE ADD SLT PUSH2 0x21E JUMPI PUSH1 0x2 SLOAD SWAP1 MLOAD PUSH1 0x1 PUSH1 0x1 PUSH1 0xA0 SHL SUB SWAP1 SWAP2 AND DUP2 MSTORE PUSH1 0x20 SWAP1 RETURN JUMPDEST POP CALLVALUE PUSH2 0x135 JUMPI PUSH1 0x20 CALLDATASIZE PUSH1 0x3 NOT ADD SLT PUSH2 0x135 JUMPI PUSH2 0x646 PUSH2 0x769 JUMP JUMPDEST DUP4 SLOAD PUSH1 0x1 PUSH1 0x1 PUSH1 0xA0 SHL SUB SWAP4 SWAP2 SWAP3 SWAP2 SWAP1 DUP5 AND CALLER SUB PUSH2 0x5A9 JUMPI POP POP AND DUP1 PUSH12 0xFFFFFFFFFFFFFFFFFFFFFFFF PUSH1 0xA0 SHL PUSH1 0x2 SLOAD AND OR PUSH1 0x2 SSTORE PUSH32 0xC9B944AAF2D0E95A44D2333E83B669781149A9EC382F998A42591A46A6810992 DUP3 DUP1 LOG2 DUP1 RETURN JUMPDEST POP CALLVALUE PUSH2 0x135 JUMPI PUSH1 0x20 CALLDATASIZE PUSH1 0x3 NOT ADD SLT PUSH2 0x135 JUMPI PUSH2 0x6BA PUSH2 0x769 JUMP JUMPDEST DUP4 SLOAD PUSH1 0x1 PUSH1 0x1 PUSH1 0xA0 SHL SUB SWAP2 SWAP1 DUP3 AND CALLER SUB PUSH2 0x711 JUMPI AND SWAP2 DUP3 ISZERO PUSH2 0x183 JUMPI POP POP PUSH1 0x1 DUP1 SLOAD PUSH1 0x1 PUSH1 0x1 PUSH1 0xA0 SHL SUB NOT AND DUP3 OR SWAP1 SSTORE PUSH32 0x9787AD339C4BC9E4B4743A2E50DA52EE5B40E7096843872095B8280A50152246 DUP3 DUP1 LOG2 DUP1 RETURN JUMPDEST DUP4 MLOAD PUSH4 0x570870EF PUSH1 0xE1 SHL DUP2 MSTORE CALLER DUP2 DUP6 ADD MSTORE PUSH1 0x24 SWAP1 REVERT JUMPDEST POP POP CALLVALUE PUSH2 0x21E JUMPI DUP2 PUSH1 0x3 NOT CALLDATASIZE ADD SLT PUSH2 0x21E JUMPI PUSH1 0x20 SWAP1 MLOAD PUSH2 0x3E8 DUP2 MSTORE RETURN JUMPDEST DUP5 SWAP1 CALLVALUE PUSH2 0x21E JUMPI DUP2 PUSH1 0x3 NOT CALLDATASIZE ADD SLT PUSH2 0x21E JUMPI PUSH1 0x1 SLOAD PUSH1 0x1 PUSH1 0x1 PUSH1 0xA0 SHL SUB AND DUP2 MSTORE PUSH1 0x20 SWAP1 RETURN JUMPDEST PUSH1 0x4 CALLDATALOAD SWAP1 PUSH1 0x1 PUSH1 0x1 PUSH1 0xA0 SHL SUB DUP3 AND DUP3 SUB PUSH2 0x219 JUMPI JUMP JUMPDEST SWAP2 DUP2 PUSH1 0x1F DUP5 ADD SLT ISZERO PUSH2 0x219 JUMPI DUP3 CALLDATALOAD SWAP2 PUSH8 0xFFFFFFFFFFFFFFFF DUP4 GT PUSH2 0x219 JUMPI PUSH1 0x20 DUP4 DUP2 DUP7 ADD SWAP6 ADD ADD GT PUSH2 0x219 JUMPI JUMP JUMPDEST PUSH8 0xFFFFFFFFFFFFFFFF DUP2 GT PUSH2 0x7C1 JUMPI PUSH1 0x40 MSTORE JUMP JUMPDEST PUSH4 0x4E487B71 PUSH1 0xE0 SHL PUSH1 0x0 MSTORE PUSH1 0x41 PUSH1 0x4 MSTORE PUSH1 0x24 PUSH1 0x0 REVERT JUMPDEST PUSH1 0x60 DUP2 ADD SWAP1 DUP2 LT PUSH8 0xFFFFFFFFFFFFFFFF DUP3 GT OR PUSH2 0x7C1 JUMPI PUSH1 0x40 MSTORE JUMP JUMPDEST SWAP1 PUSH1 0x1F DUP1 NOT SWAP2 ADD AND DUP2 ADD SWAP1 DUP2 LT PUSH8 0xFFFFFFFFFFFFFFFF DUP3 GT OR PUSH2 0x7C1 JUMPI PUSH1 0x40 MSTORE JUMP JUMPDEST SWAP7 SWAP5 SWAP1 SWAP2 SWAP3 SWAP4 SWAP6 PUSH2 0x3E8 DUP4 GT PUSH2 0xCC8 JUMPI PUSH1 0x0 SWAP6 DUP3 DUP8 MSTORE PUSH1 0x20 SWAP2 PUSH1 0x6 DUP4 MSTORE PUSH1 0x40 SWAP9 PUSH1 0xFF DUP11 DUP11 KECCAK256 SLOAD AND PUSH2 0xCB0 JUMPI PUSH2 0x5460 DUP1 DUP3 ADD DUP1 DUP4 GT PUSH2 0xC9C JUMPI TIMESTAMP GT PUSH2 0xC79 JUMPI POP DUP11 DUP10 MSTORE PUSH1 0x5 DUP5 MSTORE DUP10 DUP10 KECCAK256 SLOAD PUSH2 0xE10 DUP2 ADD DUP1 SWAP2 GT PUSH2 0xC65 JUMPI DUP1 TIMESTAMP LT PUSH2 0xC48 JUMPI POP DUP10 MLOAD DUP5 DUP2 ADD DUP13 DUP2 MSTORE PUSH1 0x20 DUP2 ADD DUP9 SWAP1 MSTORE PUSH1 0x40 DUP2 ADD SWAP3 SWAP1 SWAP3 MSTORE PUSH1 0x60 DUP3 ADD DUP7 SWAP1 MSTORE PUSH2 0x8E3 SWAP4 SWAP3 SWAP2 SWAP1 PUSH2 0x8A5 DUP2 PUSH1 0x80 DUP5 ADD PUSH2 0x288 JUMP JUMPDEST MLOAD SWAP1 KECCAK256 DUP11 MLOAD DUP6 DUP2 ADD SWAP2 PUSH32 0x19457468657265756D205369676E6564204D6573736167653A0A333200000000 DUP4 MSTORE PUSH1 0x3C DUP3 ADD MSTORE PUSH1 0x3C DUP2 MSTORE PUSH2 0x2D5 DUP2 PUSH2 0x7D7 JUMP JUMPDEST PUSH1 0x1 SLOAD PUSH1 0x1 PUSH1 0x1 PUSH1 0xA0 SHL SUB SWAP4 SWAP2 DUP5 AND SWAP1 DUP5 AND DUP1 DUP3 SUB PUSH2 0xC2B JUMPI POP POP DUP7 MSTORE PUSH1 0x6 DUP2 MSTORE DUP7 DUP7 KECCAK256 PUSH1 0x1 PUSH1 0xFF NOT DUP3 SLOAD AND OR SWAP1 SSTORE DUP8 DUP7 MSTORE PUSH1 0x4 DUP2 MSTORE DUP3 DUP8 DUP8 KECCAK256 SSTORE PUSH1 0x5 DUP2 MSTORE TIMESTAMP DUP8 DUP8 KECCAK256 SSTORE DUP7 MLOAD SWAP4 DUP4 DUP6 MSTORE PUSH1 0xFF DUP2 AND SWAP1 DUP2 DUP4 DUP8 ADD MSTORE DUP10 PUSH32 0x32C99BEC8988CF351CE8D70FA76A5939ADBA145CF0B7F9278D5216695C790D41 PUSH1 0x80 DUP7 DUP11 AND SWAP9 DUP10 DUP14 DUP3 ADD MSTORE TIMESTAMP PUSH1 0x60 DUP3 ADD MSTORE LOG2 DUP10 PUSH2 0x15E DUP7 LT PUSH2 0xB6B JUMPI POP PUSH1 0xFF DUP3 EQ ISZERO DUP1 PUSH2 0xB5E JUMPI JUMPDEST PUSH2 0xA62 JUMPI JUMPDEST POP POP POP PUSH1 0x3 SLOAD AND SWAP2 DUP3 ISZERO ISZERO SWAP1 DUP2 PUSH2 0xA58 JUMPI JUMPDEST POP PUSH2 0x9A6 JUMPI JUMPDEST POP POP POP POP POP POP JUMP JUMPDEST PUSH2 0x9AF SWAP1 PUSH2 0xCE1 JUMP JUMPDEST SWAP3 DUP2 EXTCODESIZE ISZERO PUSH2 0x2FC JUMPI DUP5 MLOAD PUSH4 0x5425BBA3 PUSH1 0xE1 SHL DUP2 MSTORE PUSH1 0x1 PUSH1 0x1 PUSH1 0xA0 SHL SUB DUP5 AND PUSH1 0x4 DUP3 ADD MSTORE PUSH1 0xFF DUP6 AND PUSH1 0x24 DUP3 ADD MSTORE SWAP2 DUP2 SWAP1 DUP4 SWAP1 PUSH1 0x44 SWAP1 DUP3 SWAP1 DUP5 SWAP1 GAS CALL SWAP2 DUP3 PUSH2 0xA44 JUMPI JUMPDEST POP POP PUSH2 0x9FE JUMPI JUMPDEST DUP1 DUP1 PUSH2 0x99E JUMP JUMPDEST SWAP2 MLOAD PUSH1 0x1 PUSH1 0x1 PUSH1 0xA0 SHL SUB SWAP1 SWAP3 AND DUP3 MSTORE PUSH1 0xFF AND PUSH1 0x20 DUP3 ADD MSTORE PUSH32 0x73CC469B5F81CF39B9BE4BEF8E4CD569296FB51BDBDFE69C8C36153EF0C9BF9 SWAP1 PUSH1 0x40 SWAP1 LOG2 CODESIZE DUP1 DUP1 DUP1 PUSH2 0x9F7 JUMP JUMPDEST PUSH2 0xA4E DUP3 SWAP2 PUSH2 0x7AD JUMP JUMPDEST PUSH2 0x2FC JUMPI DUP1 PUSH2 0x9F0 JUMP JUMPDEST SWAP1 POP ISZERO ISZERO CODESIZE PUSH2 0x998 JUMP JUMPDEST DUP9 MLOAD DUP4 DUP2 ADD SWAP2 DUP12 DUP4 MSTORE PUSH1 0xFF PUSH1 0xF8 SHL SWAP1 PUSH1 0xF8 SHL AND DUP11 DUP3 ADD MSTORE TIMESTAMP PUSH1 0x41 DUP3 ADD MSTORE NUMBER PUSH1 0x61 DUP3 ADD MSTORE PUSH1 0x61 DUP2 MSTORE PUSH1 0xA0 DUP2 ADD SWAP2 DUP2 DUP4 LT PUSH8 0xFFFFFFFFFFFFFFFF DUP5 GT OR PUSH2 0x7C1 JUMPI DUP3 DUP12 MSTORE DUP2 MLOAD SWAP1 KECCAK256 DUP6 PUSH1 0x2 SLOAD AND SWAP2 DUP3 EXTCODESIZE ISZERO PUSH2 0xB5A JUMPI SWAP3 DUP11 DUP1 DUP3 DUP16 SWAP9 SWAP8 SWAP6 DUP16 SWAP8 DUP4 PUSH1 0x84 SWAP3 DUP15 SWAP9 PUSH2 0x104 DUP7 SWAP5 DUP16 PUSH4 0xAA255F63 PUSH1 0xE0 SHL DUP8 MSTORE PUSH1 0xA4 DUP3 ADD MSTORE DUP13 PUSH1 0xC4 DUP3 ADD MSTORE DUP12 PUSH1 0xE4 DUP3 ADD MSTORE ADD MSTORE GAS CALL SWAP2 DUP3 PUSH2 0xB34 JUMPI JUMPDEST POP POP PUSH2 0xAFF JUMPI JUMPDEST POP POP PUSH2 0x986 JUMP JUMPDEST PUSH32 0xDDB499CE5B18CFF56793B166A9EFC4B24D77F5693B5A7ED0E285843B77B0FD4E SWAP4 DUP4 MLOAD SWAP3 DUP4 MSTORE DUP3 ADD MSTORE LOG2 DUP7 CODESIZE DUP8 DUP2 DUP6 PUSH2 0xAF8 JUMP JUMPDEST SWAP2 SWAP5 POP SWAP3 SWAP5 SWAP6 POP PUSH2 0xB45 SWAP2 POP PUSH2 0x7AD JUMP JUMPDEST PUSH2 0xB56 JUMPI DUP10 SWAP3 SWAP2 DUP6 DUP11 SWAP3 DUP11 CODESIZE PUSH2 0xAF1 JUMP JUMPDEST DUP8 DUP1 REVERT JUMPDEST DUP11 DUP1 REVERT JUMPDEST POP DUP4 PUSH1 0x2 SLOAD AND ISZERO ISZERO PUSH2 0x981 JUMP JUMPDEST SWAP3 PUSH32 0x34DE707675B1B7AA9FCE9DA263E4B501A3701170E51F46B15D140B4A75382393 SWAP3 POP PUSH1 0x80 SWAP2 POP DUP10 DUP1 MLOAD SWAP2 DUP8 DUP4 MSTORE DUP3 ADD MSTORE PUSH1 0x12 DUP11 DUP3 ADD MSTORE PUSH18 0x74727573745F73636F7265203C20302E3335 PUSH1 0x70 SHL PUSH1 0x60 DUP3 ADD MSTORE LOG2 DUP1 PUSH1 0x2 SLOAD AND DUP1 PUSH2 0xBE6 JUMPI JUMPDEST POP PUSH1 0x3 SLOAD AND SWAP2 DUP3 ISZERO ISZERO SWAP1 DUP2 PUSH2 0xA58 JUMPI POP PUSH2 0x9A6 JUMPI POP POP POP POP POP POP JUMP JUMPDEST DUP1 EXTCODESIZE ISZERO PUSH2 0xC27 JUMPI DUP6 DUP1 SWAP2 PUSH1 0x44 DUP10 MLOAD DUP1 SWAP5 DUP2 SWAP4 PUSH3 0x227B7F PUSH1 0xE4 SHL DUP4 MSTORE DUP14 PUSH1 0x4 DUP5 ADD MSTORE DUP9 PUSH1 0x24 DUP5 ADD MSTORE GAS CALL ISZERO PUSH2 0xBCA JUMPI PUSH2 0xC20 SWAP1 SWAP6 SWAP2 SWAP6 PUSH2 0x7AD JUMP JUMPDEST SWAP4 CODESIZE PUSH2 0xBCA JUMP JUMPDEST DUP6 DUP1 REVERT JUMPDEST PUSH1 0x44 SWAP3 POP DUP10 MLOAD SWAP2 PUSH4 0x10B5D437 PUSH1 0xE2 SHL DUP4 MSTORE PUSH1 0x4 DUP4 ADD MSTORE PUSH1 0x24 DUP3 ADD MSTORE REVERT JUMPDEST DUP12 PUSH1 0x44 SWAP2 DUP13 MLOAD SWAP2 PUSH4 0x25360CCD PUSH1 0xE2 SHL DUP4 MSTORE PUSH1 0x4 DUP4 ADD MSTORE PUSH1 0x24 DUP3 ADD MSTORE REVERT JUMPDEST PUSH4 0x4E487B71 PUSH1 0xE0 SHL DUP11 MSTORE PUSH1 0x11 PUSH1 0x4 MSTORE PUSH1 0x24 DUP11 REVERT JUMPDEST PUSH1 0x64 SWAP3 POP DUP11 MLOAD SWAP2 PUSH4 0xE2B0644D PUSH1 0xE0 SHL DUP4 MSTORE PUSH1 0x4 DUP4 ADD MSTORE TIMESTAMP PUSH1 0x24 DUP4 ADD MSTORE PUSH1 0x44 DUP3 ADD MSTORE REVERT JUMPDEST PUSH4 0x4E487B71 PUSH1 0xE0 SHL DUP12 MSTORE PUSH1 0x11 PUSH1 0x4 MSTORE PUSH1 0x24 DUP12 REVERT JUMPDEST DUP10 MLOAD PUSH4 0x8C242285 PUSH1 0xE0 SHL DUP2 MSTORE PUSH1 0x4 DUP2 ADD DUP7 SWAP1 MSTORE PUSH1 0x24 SWAP1 REVERT JUMPDEST PUSH1 0x40 MLOAD PUSH4 0x478AE049 PUSH1 0xE0 SHL DUP2 MSTORE PUSH1 0x4 DUP2 ADD DUP5 SWAP1 MSTORE PUSH1 0x24 SWAP1 REVERT JUMPDEST PUSH1 0x64 DUP2 MUL SWAP1 DUP1 DUP3 DIV PUSH1 0x64 EQ SWAP1 ISZERO OR ISZERO PUSH2 0xD0E JUMPI PUSH2 0x3E8 SWAP1 DIV PUSH1 0x64 DUP2 GT ISZERO PUSH2 0xD08 JUMPI POP PUSH1 0x64 SWAP1 JUMP JUMPDEST PUSH1 0xFF AND SWAP1 JUMP JUMPDEST PUSH4 0x4E487B71 PUSH1 0xE0 SHL PUSH1 0x0 MSTORE PUSH1 0x11 PUSH1 0x4 MSTORE PUSH1 0x24 PUSH1 0x0 REVERT JUMPDEST SWAP2 PUSH1 0x41 SUB PUSH2 0xE02 JUMPI PUSH1 0x40 DUP2 ADD CALLDATALOAD PUSH1 0x0 BYTE PUSH1 0x1B DUP2 LT PUSH2 0xDE0 JUMPI JUMPDEST PUSH1 0xFF AND SWAP1 PUSH1 0x1B DUP3 EQ DUP1 ISZERO PUSH2 0xDD6 JUMPI JUMPDEST ISZERO PUSH2 0xD91 JUMPI PUSH1 0x20 SWAP3 DUP4 PUSH1 0x80 SWAP3 PUSH1 0x0 SWAP5 PUSH1 0x40 MLOAD SWAP4 DUP5 MSTORE DUP3 DUP5 ADD MSTORE DUP1 CALLDATALOAD PUSH1 0x40 DUP5 ADD MSTORE ADD CALLDATALOAD PUSH1 0x60 DUP3 ADD MSTORE DUP3 DUP1 MSTORE PUSH1 0x1 GAS STATICCALL ISZERO PUSH2 0xD85 JUMPI PUSH1 0x0 MLOAD SWAP1 JUMP JUMPDEST PUSH1 0x40 MLOAD RETURNDATASIZE PUSH1 0x0 DUP3 RETURNDATACOPY RETURNDATASIZE SWAP1 REVERT JUMPDEST PUSH1 0x40 MLOAD PUSH3 0x461BCD PUSH1 0xE5 SHL DUP2 MSTORE PUSH1 0x20 PUSH1 0x4 DUP3 ADD MSTORE PUSH1 0x1C PUSH1 0x24 DUP3 ADD MSTORE PUSH32 0x54727573744F7261636C653A20696E76616C696420762076616C756500000000 PUSH1 0x44 DUP3 ADD MSTORE PUSH1 0x64 SWAP1 REVERT JUMPDEST POP PUSH1 0x1C DUP3 EQ PUSH2 0xD4C JUMP JUMPDEST PUSH1 0x1B ADD PUSH1 0xFF DUP2 GT ISZERO PUSH2 0xD3D JUMPI PUSH4 0x4E487B71 PUSH1 0xE0 SHL PUSH1 0x0 MSTORE PUSH1 0x11 PUSH1 0x4 MSTORE PUSH1 0x24 PUSH1 0x0 REVERT JUMPDEST PUSH1 0x40 MLOAD PUSH3 0x461BCD PUSH1 0xE5 SHL DUP2 MSTORE PUSH1 0x20 PUSH1 0x4 DUP3 ADD MSTORE PUSH1 0x25 PUSH1 0x24 DUP3 ADD MSTORE PUSH32 0x54727573744F7261636C653A20696E76616C6964207369676E6174757265206C PUSH1 0x44 DUP3 ADD MSTORE PUSH5 0xCADCCEE8D PUSH1 0xDB SHL PUSH1 0x64 DUP3 ADD MSTORE PUSH1 0x84 SWAP1 REVERT INVALID LOG2 PUSH5 0x6970667358 0x22 SLT KECCAK256 0x4A DUP16 PUSH32 0x1F5AAE5ADFF9BDB8871FDFDB326A0B8F6E6976F960D1B0EBC163BCFA3764736F PUSH13 0x63430008130033000000000000 "},"methodIdentifiers":{"FREEZE_THRESHOLD()":"6626dda0","MAX_DATA_AGE()":"5321f047","TRANCHE_FREEZE_ONLY()":"7cd43405","TRUST_SCALE()":"173ff77d","UPDATE_INTERVAL()":"89ac4147","complianceRules()":"6ec58d13","emergencyFreeze(bytes32,string)":"adf12b22","getTrustScore(bytes32)":"a2cb50ad","isNonceUsed(bytes32)":"b90665e5","lastTrustScore(bytes32)":"5324ba32","lastUpdateTime(bytes32)":"995121b5","milestoneEscrow()":"518a9544","oracleSigner()":"1709a61b","owner()":"8da5cb5b","pushTrustScore(bytes32,uint256,uint8,address,uint256,bytes32,bytes)":"c5161ee1","setComplianceRules(address)":"55461f00","setMilestoneEscrow(address)":"313a84d8","setOracleSigner(address)":"28bff9db","transferOwnership(address)":"f2fde38b","usedNonces(bytes32)":"feb61724","verifySignature(bytes32,uint256,uint256,bytes32,bytes)":"c13de0a3"}}}}}