{"contracts/IntelliStakeToken.sol":{"IntelliStakeToken":{"abi":[{"inputs":[{"internalType":"address","name":"_initialOwner","type":"address"}],"stateMutability":"nonpayable","type":"constructor"},{"inputs":[{"internalType":"uint256","name":"amount","type":"uint256"}],"name":"BelowMinInvestment","type":"error"},{"inputs":[{"internalType":"address","name":"account","type":"address"},{"internalType":"uint256","name":"amount","type":"uint256"}],"name":"ExceedsMaxHolding","type":"error"},{"inputs":[],"name":"InvalidMilestoneProof","type":"error"},{"inputs":[{"internalType":"address","name":"startupToken","type":"address"}],"name":"MilestoneFundingCurrentlyFrozen","type":"error"},{"inputs":[{"internalType":"bytes32","name":"milestoneHash","type":"bytes32"}],"name":"MilestoneNotVerified","type":"error"},{"inputs":[{"internalType":"address","name":"account","type":"address"}],"name":"NotAccredited","type":"error"},{"inputs":[{"internalType":"address","name":"account","type":"address"}],"name":"NotIdentityVerified","type":"error"},{"inputs":[{"internalType":"address","name":"caller","type":"address"}],"name":"NotOracle","type":"error"},{"inputs":[{"internalType":"uint256","name":"startupId","type":"uint256"},{"internalType":"uint256","name":"trancheIndex","type":"uint256"}],"name":"TrancheAlreadyReleased","type":"error"},{"inputs":[{"internalType":"address","name":"from","type":"address"},{"internalType":"address","name":"to","type":"address"}],"name":"TransferNotCompliant","type":"error"},{"anonymous":false,"inputs":[{"indexed":true,"internalType":"address","name":"investor","type":"address"},{"indexed":false,"internalType":"bool","name":"status","type":"bool"}],"name":"AccreditationUpdated","type":"event"},{"anonymous":false,"inputs":[{"indexed":true,"internalType":"address","name":"owner","type":"address"},{"indexed":true,"internalType":"address","name":"spender","type":"address"},{"indexed":false,"internalType":"uint256","name":"value","type":"uint256"}],"name":"Approval","type":"event"},{"anonymous":false,"inputs":[{"indexed":true,"internalType":"address","name":"compliance","type":"address"}],"name":"ComplianceSet","type":"event"},{"anonymous":false,"inputs":[{"indexed":true,"internalType":"address","name":"registry","type":"address"}],"name":"IdentityRegistrySet","type":"event"},{"anonymous":false,"inputs":[{"indexed":true,"internalType":"address","name":"startupToken","type":"address"},{"indexed":false,"internalType":"string","name":"reason","type":"string"},{"indexed":false,"internalType":"uint256","name":"timestamp","type":"uint256"}],"name":"MilestoneFundingFrozen","type":"event"},{"anonymous":false,"inputs":[{"indexed":true,"internalType":"address","name":"startupToken","type":"address"},{"indexed":false,"internalType":"uint256","name":"timestamp","type":"uint256"}],"name":"MilestoneFundingRestored","type":"event"},{"anonymous":false,"inputs":[{"indexed":true,"internalType":"bytes32","name":"milestoneHash","type":"bytes32"},{"indexed":false,"internalType":"uint256","name":"timestamp","type":"uint256"}],"name":"MilestoneVerified","type":"event"},{"anonymous":false,"inputs":[{"indexed":true,"internalType":"address","name":"oracle","type":"address"}],"name":"OracleAddressSet","type":"event"},{"anonymous":false,"inputs":[{"indexed":true,"internalType":"address","name":"previousOwner","type":"address"},{"indexed":true,"internalType":"address","name":"newOwner","type":"address"}],"name":"OwnershipTransferred","type":"event"},{"anonymous":false,"inputs":[{"indexed":false,"internalType":"address","name":"account","type":"address"}],"name":"Paused","type":"event"},{"anonymous":false,"inputs":[{"indexed":true,"internalType":"uint256","name":"startupId","type":"uint256"},{"indexed":false,"internalType":"uint256","name":"amount","type":"uint256"},{"indexed":false,"internalType":"bytes32","name":"milestoneHash","type":"bytes32"}],"name":"TrancheLocked","type":"event"},{"anonymous":false,"inputs":[{"indexed":true,"internalType":"uint256","name":"startupId","type":"uint256"},{"indexed":false,"internalType":"uint256","name":"trancheIndex","type":"uint256"},{"indexed":false,"internalType":"uint256","name":"amount","type":"uint256"}],"name":"TrancheReleased","type":"event"},{"anonymous":false,"inputs":[{"indexed":true,"internalType":"address","name":"from","type":"address"},{"indexed":true,"internalType":"address","name":"to","type":"address"},{"indexed":false,"internalType":"uint256","name":"value","type":"uint256"}],"name":"Transfer","type":"event"},{"anonymous":false,"inputs":[{"indexed":true,"internalType":"address","name":"from","type":"address"},{"indexed":true,"internalType":"address","name":"to","type":"address"},{"indexed":false,"internalType":"uint256","name":"amount","type":"uint256"},{"indexed":false,"internalType":"string","name":"reason","type":"string"}],"name":"TransferRejected","type":"event"},{"anonymous":false,"inputs":[{"indexed":false,"internalType":"address","name":"account","type":"address"}],"name":"Unpaused","type":"event"},{"inputs":[{"internalType":"address","name":"","type":"address"}],"name":"accreditedInvestors","outputs":[{"internalType":"bool","name":"","type":"bool"}],"stateMutability":"view","type":"function"},{"inputs":[{"internalType":"address","name":"owner","type":"address"},{"internalType":"address","name":"spender","type":"address"}],"name":"allowance","outputs":[{"internalType":"uint256","name":"","type":"uint256"}],"stateMutability":"view","type":"function"},{"inputs":[{"internalType":"address","name":"spender","type":"address"},{"internalType":"uint256","name":"amount","type":"uint256"}],"name":"approve","outputs":[{"internalType":"bool","name":"","type":"bool"}],"stateMutability":"nonpayable","type":"function"},{"inputs":[{"internalType":"address","name":"account","type":"address"}],"name":"balanceOf","outputs":[{"internalType":"uint256","name":"","type":"uint256"}],"stateMutability":"view","type":"function"},{"inputs":[{"internalType":"address[]","name":"investors","type":"address[]"},{"internalType":"bool[]","name":"statuses","type":"bool[]"}],"name":"batchSetAccreditedInvestors","outputs":[],"stateMutability":"nonpayable","type":"function"},{"inputs":[{"internalType":"uint256","name":"amount","type":"uint256"}],"name":"burn","outputs":[],"stateMutability":"nonpayable","type":"function"},{"inputs":[{"internalType":"address","name":"from","type":"address"},{"internalType":"address","name":"to","type":"address"},{"internalType":"uint256","name":"amount","type":"uint256"}],"name":"canTransfer","outputs":[{"internalType":"bool","name":"","type":"bool"}],"stateMutability":"view","type":"function"},{"inputs":[],"name":"compliance","outputs":[{"internalType":"contract ICompliance","name":"","type":"address"}],"stateMutability":"view","type":"function"},{"inputs":[],"name":"decimals","outputs":[{"internalType":"uint8","name":"","type":"uint8"}],"stateMutability":"view","type":"function"},{"inputs":[{"internalType":"address","name":"spender","type":"address"},{"internalType":"uint256","name":"subtractedValue","type":"uint256"}],"name":"decreaseAllowance","outputs":[{"internalType":"bool","name":"","type":"bool"}],"stateMutability":"nonpayable","type":"function"},{"inputs":[{"internalType":"address","name":"startupToken","type":"address"},{"internalType":"string","name":"reason","type":"string"}],"name":"freezeMilestoneFunding","outputs":[],"stateMutability":"nonpayable","type":"function"},{"inputs":[{"internalType":"uint256","name":"startupId","type":"uint256"}],"name":"getLockedAmount","outputs":[{"internalType":"uint256","name":"","type":"uint256"}],"stateMutability":"view","type":"function"},{"inputs":[{"internalType":"address","name":"startupToken","type":"address"}],"name":"getMilestoneStatus","outputs":[{"internalType":"bool","name":"frozen","type":"bool"}],"stateMutability":"view","type":"function"},{"inputs":[{"internalType":"uint256","name":"startupId","type":"uint256"}],"name":"getStartupTranches","outputs":[{"components":[{"internalType":"uint256","name":"amount","type":"uint256"},{"internalType":"bytes32","name":"milestoneHash","type":"bytes32"},{"internalType":"bool","name":"released","type":"bool"},{"internalType":"uint256","name":"lockTimestamp","type":"uint256"},{"internalType":"address","name":"beneficiary","type":"address"}],"internalType":"struct IntelliStakeToken.Tranche[]","name":"","type":"tuple[]"}],"stateMutability":"view","type":"function"},{"inputs":[],"name":"identityRegistry","outputs":[{"internalType":"contract IIdentityRegistry","name":"","type":"address"}],"stateMutability":"view","type":"function"},{"inputs":[{"internalType":"address","name":"spender","type":"address"},{"internalType":"uint256","name":"addedValue","type":"uint256"}],"name":"increaseAllowance","outputs":[{"internalType":"bool","name":"","type":"bool"}],"stateMutability":"nonpayable","type":"function"},{"inputs":[{"internalType":"address","name":"account","type":"address"}],"name":"isIdentityVerified","outputs":[{"internalType":"bool","name":"","type":"bool"}],"stateMutability":"view","type":"function"},{"inputs":[{"internalType":"uint256","name":"startupId","type":"uint256"},{"internalType":"uint256","name":"amount","type":"uint256"},{"internalType":"bytes32","name":"milestoneHash","type":"bytes32"},{"internalType":"address","name":"beneficiary","type":"address"}],"name":"lockTranche","outputs":[],"stateMutability":"nonpayable","type":"function"},{"inputs":[],"name":"maxHoldingPerAddress","outputs":[{"internalType":"uint256","name":"","type":"uint256"}],"stateMutability":"view","type":"function"},{"inputs":[{"internalType":"address","name":"","type":"address"}],"name":"milestoneFrozen","outputs":[{"internalType":"bool","name":"","type":"bool"}],"stateMutability":"view","type":"function"},{"inputs":[],"name":"minInvestmentAmount","outputs":[{"internalType":"uint256","name":"","type":"uint256"}],"stateMutability":"view","type":"function"},{"inputs":[{"internalType":"address","name":"to","type":"address"},{"internalType":"uint256","name":"amount","type":"uint256"}],"name":"mint","outputs":[],"stateMutability":"nonpayable","type":"function"},{"inputs":[],"name":"name","outputs":[{"internalType":"string","name":"","type":"string"}],"stateMutability":"view","type":"function"},{"inputs":[],"name":"oracleAddress","outputs":[{"internalType":"address","name":"","type":"address"}],"stateMutability":"view","type":"function"},{"inputs":[],"name":"owner","outputs":[{"internalType":"address","name":"","type":"address"}],"stateMutability":"view","type":"function"},{"inputs":[],"name":"pause","outputs":[],"stateMutability":"nonpayable","type":"function"},{"inputs":[],"name":"paused","outputs":[{"internalType":"bool","name":"","type":"bool"}],"stateMutability":"view","type":"function"},{"inputs":[{"internalType":"address","name":"token","type":"address"},{"internalType":"address","name":"to","type":"address"},{"internalType":"uint256","name":"amount","type":"uint256"}],"name":"recoverERC20","outputs":[],"stateMutability":"nonpayable","type":"function"},{"inputs":[{"internalType":"uint256","name":"startupId","type":"uint256"},{"internalType":"uint256","name":"trancheIndex","type":"uint256"},{"internalType":"bytes","name":"proof","type":"bytes"}],"name":"releaseTranche","outputs":[],"stateMutability":"nonpayable","type":"function"},{"inputs":[],"name":"renounceOwnership","outputs":[],"stateMutability":"nonpayable","type":"function"},{"inputs":[{"internalType":"address","name":"startupToken","type":"address"}],"name":"restoreMilestoneFunding","outputs":[],"stateMutability":"nonpayable","type":"function"},{"inputs":[{"internalType":"address","name":"investor","type":"address"},{"internalType":"bool","name":"status","type":"bool"}],"name":"setAccreditedInvestor","outputs":[],"stateMutability":"nonpayable","type":"function"},{"inputs":[{"internalType":"address","name":"_compliance","type":"address"}],"name":"setCompliance","outputs":[],"stateMutability":"nonpayable","type":"function"},{"inputs":[{"internalType":"address","name":"_identityRegistry","type":"address"}],"name":"setIdentityRegistry","outputs":[],"stateMutability":"nonpayable","type":"function"},{"inputs":[{"internalType":"uint256","name":"_maxHolding","type":"uint256"}],"name":"setMaxHolding","outputs":[],"stateMutability":"nonpayable","type":"function"},{"inputs":[{"internalType":"uint256","name":"_minInvestment","type":"uint256"}],"name":"setMinInvestment","outputs":[],"stateMutability":"nonpayable","type":"function"},{"inputs":[{"internalType":"address","name":"_oracle","type":"address"}],"name":"setOracleAddress","outputs":[],"stateMutability":"nonpayable","type":"function"},{"inputs":[{"internalType":"uint256","name":"","type":"uint256"},{"internalType":"uint256","name":"","type":"uint256"}],"name":"startupTranches","outputs":[{"internalType":"uint256","name":"amount","type":"uint256"},{"internalType":"bytes32","name":"milestoneHash","type":"bytes32"},{"internalType":"bool","name":"released","type":"bool"},{"internalType":"uint256","name":"lockTimestamp","type":"uint256"},{"internalType":"address","name":"beneficiary","type":"address"}],"stateMutability":"view","type":"function"},{"inputs":[],"name":"symbol","outputs":[{"internalType":"string","name":"","type":"string"}],"stateMutability":"view","type":"function"},{"inputs":[],"name":"totalSupply","outputs":[{"internalType":"uint256","name":"","type":"uint256"}],"stateMutability":"view","type":"function"},{"inputs":[{"internalType":"address","name":"to","type":"address"},{"internalType":"uint256","name":"amount","type":"uint256"}],"name":"transfer","outputs":[{"internalType":"bool","name":"","type":"bool"}],"stateMutability":"nonpayable","type":"function"},{"inputs":[{"internalType":"address","name":"from","type":"address"},{"internalType":"address","name":"to","type":"address"},{"internalType":"uint256","name":"amount","type":"uint256"}],"name":"transferFrom","outputs":[{"internalType":"bool","name":"","type":"bool"}],"stateMutability":"nonpayable","type":"function"},{"inputs":[{"internalType":"address","name":"newOwner","type":"address"}],"name":"transferOwnership","outputs":[],"stateMutability":"nonpayable","type":"function"},{"inputs":[],"name":"unpause","outputs":[],"stateMutability":"nonpayable","type":"function"},{"inputs":[{"internalType":"bytes32","name":"","type":"bytes32"}],"name":"verifiedMilestones","outputs":[{"internalType":"bool","name":"","type":"bool"}],"stateMutability":"view","type":"function"}],"evm":{"bytecode":{"linkReferences":{},"object":"60803462000466576001600160401b0390601f90601f19620029c63881900384810183168401868111858210176200046b57849282916040528339602093849181010312620004665751936001600160a01b03918286169182870362000466576200006962000481565b91601b83527f496e74656c6c695374616b6520536563757269747920546f6b656e0000000000868401526200009d62000481565b96600497888152634953544b60e01b8882015284519284841162000367576003938454966001978881811c911680156200045b575b8c8210146200044657908b8287859411620003ed575b50508b9086831160011462000388576000926200037c575b505060001982871b1c191690871b1784555b8151948511620003675789548681811c911680156200035c575b8a8210146200034757908184879695949311620002eb575b508992851160011462000283575060009362000277575b505082841b92600019911b1c19161785555b6200017833620004a1565b60065560ff196007541660075515908115620001ba575b69d3c21bcecceda1000000600e55683635c9adc5dea00000600f556040516124db9081620004eb8239f35b339060055416036200023557620001e3575050620001d890620004a1565b38808080806200018f565b60405162461bcd60e51b815291820152602660248201527f4f776e61626c653a206e6577206f776e657220697320746865207a65726f206160448201526564647265737360d01b606482015260849150fd5b60648383806040519262461bcd60e51b845283015260248201527f4f776e61626c653a2063616c6c6572206973206e6f7420746865206f776e65726044820152fd5b0151915038806200015b565b86959392919316928a600052896000209360005b8b828210620002d45750508511620002b9575b50505050811b0185556200016d565b01519060f884600019921b161c1916905538808080620002aa565b838501518755899890960195938401930162000297565b9091929394508a600052896000208480880160051c8201928c89106200033d575b918991899897969594930160051c01915b8281106200032d57505062000144565b600081558897508991016200031d565b925081926200030c565b60228b634e487b7160e01b6000525260246000fd5b90607f16906200012c565b60418a634e487b7160e01b6000525260246000fd5b01519050388062000100565b908c91858b95168960005283600020936000905b828210620003d55750508411620003bc575b505050811b01845562000112565b015160001983891b60f8161c19169055388080620003ae565b8385015186558d979095019493840193018f6200039c565b909192508760005286826000209181860160051c83019386106200043c575b918b91869594930160051c01915b8281106200042c57508d9150620000e8565b600081558594508b91016200041a565b925081926200040c565b60228d634e487b7160e01b6000525260246000fd5b90607f1690620000d2565b600080fd5b634e487b7160e01b600052604160045260246000fd5b60408051919082016001600160401b038111838210176200046b57604052565b600580546001600160a01b039283166001600160a01b0319821681179092559091167f8be0079c531659141344cd1fd0a4f28419497f9722a3daafe3b4186f6b6457e0600080a356fe608060409080825260048036101561001657600080fd5b600091823560e01c90816306fdde03146119fe575080630936c3d3146117de578063095ea7b3146117b45780631171bda9146116bd578063134e18f41461169057806318160ddd14611671578063196513d21461160757806321afda2d14610b9457806323b872dd1461150a578063266bf935146113cd5780632db4c5981461139f578063313ce5671461138357806339509351146113335780633f4ba83a1461129c57806340c10f191461117d57806342966c681461106f5780634c69c00f14610fc45780634d298a0714610fa5578063591aa48314610f205780635c975abb14610efc5780636290865d14610ed357806370a0823114610e9c578063715018a614610e3f57806372110f7114610dc45780638456cb5914610d695780638da5cb5b14610d40578063923be10814610bd257806394c50b7114610b9457806395d89b4114610a915780639bc7c8c014610a21578063a0eb24b5146109e3578063a457c2d71461093f578063a89ae4ba14610916578063a9059cbb14610898578063ba7ed2ff14610877578063c692516a146106ea578063cbf3f86114610623578063d3b9e7dc146104d2578063dd62ed3e1461047e578063e46638e614610462578063ea512cbd14610443578063f2fde38b14610376578063f63ac76214610347578063f8981789146102915763fcb40fd41461021357600080fd5b3461028d57602036600319011261028d573581526009602052818120805490825b828110610245576020848651908152f35b60ff60026102538385611b8f565b500154161561026b575b61026690611e0d565b610234565b926102856102669161027d8685611b8f565b505490611ce8565b93905061025d565b5080fd5b50829034610343576020366003190112610343576102ad611b3f565b6102b5611c20565b6001600160a01b0316918215610300575050600880546001600160a01b031916821790557fa970409706553acbb8c86c1bc79621a1e9decfe2e5f083d3ee9dc215d07cea398280a280f35b906020606492519162461bcd60e51b8352820152601a60248201527f496e76616c696420636f6d706c69616e636520616464726573730000000000006044820152fd5b8280fd5b82843461028d57602036600319011261028d5760209061036d610368611b3f565b611e5a565b90519015158152f35b5082903461034357602036600319011261034357610392611b3f565b9061039b611c20565b6001600160a01b039182169283156103f1575050600554826bffffffffffffffffffffffff60a01b821617600555167f8be0079c531659141344cd1fd0a4f28419497f9722a3daafe3b4186f6b6457e08380a380f35b906020608492519162461bcd60e51b8352820152602660248201527f4f776e61626c653a206e6577206f776e657220697320746865207a65726f206160448201526564647265737360d01b6064820152fd5b82843461028d578160031936011261028d57602090600e549051908152f35b82843461028d5760209061036d61047836611b5a565b91611eee565b82843461028d578060031936011261028d57610498611b3f565b6001600160a01b0360243581811692908390036104ce579160209491849316825260018552828220908252845220549051908152f35b8480fd5b50913461028d578060031936011261028d5767ffffffffffffffff92803584811161061f576105049036908301611bef565b9190946024359081116104ce5761051e9036908301611bef565b91610527611c20565b8284036105e45750845b83811061053c578580f35b80857f18fdfd36fb509f2cced57dada676af65d4138954bf356b40880d3a1b30443ae4886105c061059a858a8e6105bb61058261057d6105df9c8f8f611e1c565b611e2c565b6001600160a01b03998a61059f61059a888888611e1c565b611e39565b168952602098600b8a52209060ff801983541691151516179055565b611e1c565b926105cf61057d868a8a611e1c565b938a5194151585521692a2611e0d565b610531565b606490602086519162461bcd60e51b83528201526015602482015274082e4e4c2f240d8cadccee8d040dad2e6dac2e8c6d605b1b6044820152fd5b8380fd5b508290346103435760203660031901126103435761063f611b3f565b90610648611c20565b6001600160a01b0382169283156106a757505060078054610100600160a81b03191660089290921b610100600160a81b03169190911790557f8aa6172b9dcbe4f05892121059bc535d4743d706ba3ac6cbabf4a40de229e3888280a280f35b906020606492519162461bcd60e51b8352820152601860248201527f496e76616c6964207265676973747279206164647265737300000000000000006044820152fd5b50913461028d57606036600319011261028d5782359060243560443567ffffffffffffffff81116104ce576107229036908701611bc1565b61072a611c20565b6107326120b8565b8486526009602052838620805484101561083c578361075091611b8f565b5091600283019160ff83541661082057610770906001850154928361231f565b1561081057966107fc91600189899a7ff2c471e2eb8d5a61cea66ab82bab6dc0234916165c56d4d3953da6531976d8c5999a52600a602052878b209060ff199183838254161790557fdfab6d57ca95faa91c42574906d1d4c6f78eb5cc2f846c1f898a08a8dd73ee3260208a51428152a28254161790558201548254906001600160a01b0316306121b1565b5482519182526020820152a2600160065580f35b8451631060f16160e01b81528890fd5b60448986898951926321c9d91960e11b84528301526024820152fd5b845162461bcd60e51b81526020818a01526015602482015274092dcecc2d8d2c840e8e4c2dcc6d0ca40d2dcc8caf605b1b6044820152606490fd5b503461028d57602036600319011261028d57610891611c20565b35600f5580f35b50919034610913578160031936011261091357506108b4611b3f565b91602435906108c1612461565b6108cc828533611eee565b156108e657506108df90602093336121b1565b5160018152f35b91516379f913bb60e11b8152339281019283526001600160a01b0390931660208301525081906040010390fd5b80fd5b82843461028d578160031936011261028d57600c5490516001600160a01b039091168152602090f35b509034610913578260031936011261091357610959611b3f565b918360243592338152600160205281812060018060a01b0386168252602052205490828210610992576020856108df8585038733611d0b565b608490602086519162461bcd60e51b8352820152602560248201527f45524332303a2064656372656173656420616c6c6f77616e63652062656c6f77604482015264207a65726f60d81b6064820152fd5b82843461028d57602036600319011261028d5760209160ff9082906001600160a01b03610a0e611b3f565b168152600b855220541690519015158152f35b5082903461034357602036600319011261034357803591610a40611c20565b8215610a4e575050600e5580f35b906020606492519162461bcd60e51b8352820152601c60248201527f4d617820686f6c64696e67206d75737420626520706f736974697665000000006044820152fd5b50913461028d578160031936011261028d57805191809380549160019083821c92828516948515610b8a575b6020958686108114610b7757858952908115610b535750600114610afb575b610af78787610aed828c0383611cc6565b5191829182611b13565b0390f35b81529295507f8a35acfbc15ff81a39ae7d344fd709f28e8600b4aa8c65c6b64bfe7fe36bd19b5b828410610b405750505082610af794610aed92820101943880610adc565b8054868501880152928601928101610b22565b60ff19168887015250505050151560051b8301019250610aed82610af73880610adc565b634e487b7160e01b845260228352602484fd5b93607f1693610abd565b82843461028d57602036600319011261028d5760209160ff9082906001600160a01b03610bbf611b3f565b168152600d855220541690519015158152f35b508234610343578060031936011261034357610bec611b3f565b9060243567ffffffffffffffff81116104ce57610c0c9036908501611bc1565b600c5490936001600160a01b0391821633148015610d33575b15610ce15716938415610c9e57508291827f3b1c53af6d7fe56c23b93c48665fc2cd845aa4c8b085041cb928f8e47c8ab96994606093878952600d602052838920600160ff198254161790558351958487958652850152848401378181018301879052426020830152601f01601f19168101030190a280f35b606490602084519162461bcd60e51b8352820152601d60248201527f496e76616c6964207374617274757020746f6b656e20616464726573730000006044820152fd5b835162461bcd60e51b8152602081880152602660248201527f496e74656c6c695374616b65546f6b656e3a206e6f74206f7261636c65206f726044820152651037bbb732b960d11b6064820152608490fd5b5081600554163314610c25565b82843461028d578160031936011261028d5760055490516001600160a01b039091168152602090f35b82843461028d578160031936011261028d5760207f62e78cea01bee320cd4e420270b5ea74000d11b0c9f74754ebdbfc544b05a25891610da7611c20565b610daf612461565b600160ff19600754161760075551338152a180f35b5082903461034357816003193601126103435760243592813581526009602052828120908154851015610913575060a093610dfe91611b8f565b509081549260018301549260ff60028201541690600381015493600180891b0391015416938251958652602086015215159084015260608301526080820152f35b8234610913578060031936011261091357610e58611c20565b600580546001600160a01b0319811690915581906001600160a01b03167f8be0079c531659141344cd1fd0a4f28419497f9722a3daafe3b4186f6b6457e08280a380f35b82843461028d57602036600319011261028d5760209181906001600160a01b03610ec4611b3f565b16815280845220549051908152f35b82843461028d578160031936011261028d5760085490516001600160a01b039091168152602090f35b82843461028d578160031936011261028d5760209060ff6007541690519015158152f35b82843461028d578060031936011261028d57610f3a611b3f565b90602435918215158084036104ce577f18fdfd36fb509f2cced57dada676af65d4138954bf356b40880d3a1b30443ae492610f9d602093610f79611c20565b60018060a01b031695868852600b85528288209060ff801983541691151516179055565b51908152a280f35b82843461028d578160031936011261028d57602090600f549051908152f35b5082903461034357602036600319011261034357610fe0611b3f565b610fe8611c20565b6001600160a01b0316918215611033575050600c80546001600160a01b031916821790557fdd82bdfc28fcc826c53263dc2a2b6083e27e92699ebfee617227e08e21c202f08280a280f35b906020606492519162461bcd60e51b83528201526016602482015275496e76616c6964206f7261636c65206164647265737360501b6044820152fd5b508234610343576020908160031936011261061f5782359233156111325733855284835281852054908482106110e45750917fddf252ad1be2c89b69c2b068fc378daa952ba7f163c4a11628f55a4df523b3ef918486959433875286845203818620558360025403600255519283523392a380f35b825162461bcd60e51b8152908101849052602260248201527f45524332303a206275726e20616d6f756e7420657863656564732062616c616e604482015261636560f01b6064820152608490fd5b82608492519162461bcd60e51b8352820152602160248201527f45524332303a206275726e2066726f6d20746865207a65726f206164647265736044820152607360f81b6064820152fd5b503461028d578260031936011261028d57611196611b3f565b602435916111a2611c20565b6111aa612461565b6111b382611e5a565b1561127b576001600160a01b038216808552600b6020528585205460ff161561126557808552846020526111ea8487872054611ce8565b600e54106112375784528360205284842054158061122c575b6112155750906112129161210e565b80f35b845163f39c9da560e01b8152908101839052602490fd5b50600f548310611203565b508451632dd7f6f760e21b81526001600160a01b039092169082019081526020810183905281906040010390fd5b855163022b9a4360e41b81529182015260249150fd5b845163c438268160e01b81526001600160a01b039092169082015260249150fd5b508290346103435782600319360112610343576112b7611c20565b6007549060ff8216156112f9575060ff1916600755513381527f5db9ee0a495bf2e6ff9c91a7834c1ba4fdd244a5e8aa4e537bd38aeae4b073aa90602090a180f35b606490602084519162461bcd60e51b8352820152601460248201527314185d5cd8589b194e881b9bdd081c185d5cd95960621b6044820152fd5b82843461028d578060031936011261028d576108df60209261137c611356611b3f565b338352600186528483206001600160a01b03821684528652918490205460243590611ce8565b9033611d0b565b82843461028d578160031936011261028d576020905160128152f35b50829034610343576020366003190112610343578160209360ff92358152600a855220541690519015158152f35b503461028d576020908160031936011261034357803583526009825283832091825467ffffffffffffffff81116114f757855191949260059061141483831b880185611cc6565b82845286840190819686528786209086925b85841061149b57505050505050845193808501918186525180925285850193925b8281106114545785850386f35b835180518652808301518684015287810151151588870152606080820151908701526080908101516001600160a01b03169086015260a09094019392810192600101611447565b848a6001928d809d9a9b9d51906114b182611c78565b87548252858801548483015260ff60028901541615159082015260038701546060820152848060a01b038688015416608082015281520193019301929198969598611426565b634e487b7160e01b855260418352602485fd5b5090346109135761151a36611b5a565b939092611525612461565b611530858585611eee565b156115d8576001600160a01b038316815260016020818152878320338452905290869020549190820161156c575b6020866108df8787876121b1565b848210611595575091839161158a602096956108df95033383611d0b565b91939481935061155e565b606490602087519162461bcd60e51b8352820152601d60248201527f45524332303a20696e73756666696369656e7420616c6c6f77616e63650000006044820152fd5b5084516379f913bb60e11b81526001600160a01b03928316918101918252918316602082015281906040010390fd5b82843461028d57602036600319011261028d577f94609236b230c5f26e301665caa39a97283d2866b100454916a3ff95d2cb0a186020611645611b3f565b61164d611c20565b6001600160a01b0316808552600d8252838520805460ff191690559251428152a280f35b82843461028d578160031936011261028d576020906002549051908152f35b82843461028d578160031936011261028d57600754905160089190911c6001600160a01b03168152602090f35b503461028d576116cc36611b5a565b92916116d6611c20565b6001600160a01b03169130831461177157855163a9059cbb60e01b81526001600160a01b0390921690820190815260208181019490945290928592909184919082908790829060400103925af19081156117685750611733575080f35b6020813d8211611760575b8161174b60209383611cc6565b8101031261028d5761175c90611e4d565b5080f35b3d915061173e565b513d84823e3d90fd5b606490602087519162461bcd60e51b8352820152601b60248201527f43616e6e6f74207265636f766572206e617469766520746f6b656e00000000006044820152fd5b82843461028d578060031936011261028d576020906108df6117d4611b3f565b6024359033611d0b565b50913461028d57608036600319011261028d5760249280359190843590604435906001600160a01b0360643581811692908390036119fa5761181e611c20565b6118266120b8565b82156119c2578415611980578315611945578551986118448a611c78565b858a5260208a0199858b528781019a8a8c526060820191428352608081019687528a8c526009602052898c2080549068010000000000000000821015611933579061189491600182018155611b8f565b94909461192357509b6118e6917f5ecd00b8ea6bc6aae67ac5e2a4d33823434e76868e912a4b0f88b8c5cca63f6c9b9c9d518555516001850155511515600284019060ff801983541691151516179055565b516003820155019151166bffffffffffffffffffffffff60a01b825416179055611910823061210e565b82519182526020820152a2600160065580f35b634e487b7160e01b8d528c86528cfd5b634e487b7160e01b8e5260418752858efd5b60649060168a602089519362461bcd60e51b855284015282015275092dcecc2d8d2c840dad2d8cae6e8dedcca40d0c2e6d60531b6044820152fd5b60649060178a602089519362461bcd60e51b85528401528201527f416d6f756e74206d75737420626520706f7369746976650000000000000000006044820152fd5b60649060138a602089519362461bcd60e51b855284015282015272496e76616c69642062656e656669636961727960681b6044820152fd5b8780fd5b918491503461061f578360031936011261061f57600354600181811c9186908281168015611ae6575b6020958686108214611ad35750848852908115611ab15750600114611a58575b610af78686610aed828b0383611cc6565b929550600383527fc2575a0e9e593c00f959f8c92f12db2869c3395a3b0502d05e2516446f71f85b5b828410611a9e5750505082610af794610aed928201019486611a47565b8054868501880152928601928101611a81565b60ff191687860152505050151560051b8301019250610aed82610af786611a47565b634e487b7160e01b845260229052602483fd5b93607f1693611a27565b60005b838110611b035750506000910152565b8181015183820152602001611af3565b60409160208252611b338151809281602086015260208686019101611af0565b601f01601f1916010190565b600435906001600160a01b0382168203611b5557565b600080fd5b6060906003190112611b55576001600160a01b03906004358281168103611b5557916024359081168103611b55579060443590565b8054821015611bab576000526005602060002091020190600090565b634e487b7160e01b600052603260045260246000fd5b9181601f84011215611b555782359167ffffffffffffffff8311611b555760208381860195010111611b5557565b9181601f84011215611b555782359167ffffffffffffffff8311611b55576020808501948460051b010111611b5557565b6005546001600160a01b03163303611c3457565b606460405162461bcd60e51b815260206004820152602060248201527f4f776e61626c653a2063616c6c6572206973206e6f7420746865206f776e65726044820152fd5b60a0810190811067ffffffffffffffff821117611c9457604052565b634e487b7160e01b600052604160045260246000fd5b6060810190811067ffffffffffffffff821117611c9457604052565b90601f8019910116810190811067ffffffffffffffff821117611c9457604052565b91908201809211611cf557565b634e487b7160e01b600052601160045260246000fd5b6001600160a01b03908116918215611dbc5716918215611d6c5760207f8c5be1e5ebec7d5bd14f71427d1e84f3dd0314c0f7b2291e5b200ac8c7c3b925918360005260018252604060002085600052825280604060002055604051908152a3565b60405162461bcd60e51b815260206004820152602260248201527f45524332303a20617070726f766520746f20746865207a65726f206164647265604482015261737360f01b6064820152608490fd5b60405162461bcd60e51b8152602060048201526024808201527f45524332303a20617070726f76652066726f6d20746865207a65726f206164646044820152637265737360e01b6064820152608490fd5b6000198114611cf55760010190565b9190811015611bab5760051b0190565b358015158103611b555790565b356001600160a01b0381168103611b555790565b51908115158203611b5557565b60075460081c6001600160a01b0390811691908215611ee6576024602092604051948593849263b9209e3360e01b84521660048301525afa908115611eda57600091611ea4575090565b906020823d8211611ed2575b81611ebd60209383611cc6565b810103126109135750611ecf90611e4d565b90565b3d9150611eb0565b6040513d6000823e3d90fd5b505050600190565b9190611ef983611e5a565b156120b057611f0781611e5a565b156120b0576001600160a01b039283169083908215612087575b1691600091838352602093838552604095611f3f8488872054611ce8565b600e54106120725781855284865286852054158061207c575b61207257600d865260ff8786205416612072576008541680611f805750505050505050600190565b84926084918851958694859363dbbc841f60e01b85526004850152602484015260448301523060648301525afa938415612067578294611fc2575b5050505090565b9091929493503d8084843e611fd78184611cc6565b820194818387031261061f57611fec83611e4d565b938184015167ffffffffffffffff9485821161034357019287601f8501121561028d57835194851161205357519661202d601f8601601f1916840189611cc6565b84885282858501011161091357508061204a949596019101611af0565b38808080611fbb565b634e487b7160e01b82526041600452602482fd5b51913d9150823e3d90fd5b5050505091505090565b50600f548410611f58565b908116600052600b60205260ff60406000205416156120a7578390611f21565b50505050600090565b505050600090565b6002600654146120c9576002600655565b60405162461bcd60e51b815260206004820152601f60248201527f5265656e7472616e637947756172643a207265656e7472616e742063616c6c006044820152606490fd5b6001600160a01b031690811561216c577fddf252ad1be2c89b69c2b068fc378daa952ba7f163c4a11628f55a4df523b3ef602082612150600094600254611ce8565b60025584845283825260408420818154019055604051908152a3565b60405162461bcd60e51b815260206004820152601f60248201527f45524332303a206d696e7420746f20746865207a65726f2061646472657373006044820152606490fd5b6001600160a01b039081169182156122cc571691821561227b5760008281528060205260408120549180831061222757604082827fddf252ad1be2c89b69c2b068fc378daa952ba7f163c4a11628f55a4df523b3ef958760209652828652038282205586815220818154019055604051908152a3565b60405162461bcd60e51b815260206004820152602660248201527f45524332303a207472616e7366657220616d6f756e7420657863656564732062604482015265616c616e636560d01b6064820152608490fd5b60405162461bcd60e51b815260206004820152602360248201527f45524332303a207472616e7366657220746f20746865207a65726f206164647260448201526265737360e81b6064820152608490fd5b60405162461bcd60e51b815260206004820152602560248201527f45524332303a207472616e736665722066726f6d20746865207a65726f206164604482015264647265737360d81b6064820152608490fd5b909160410361245a57801561245a57600c546001600160a01b0390811692909190831561245157604091825160208101918252468482015283815261236381611caa565b519020825160208101917f19457468657265756d205369676e6564204d6573736167653a0a3332000000008352603c820152603c81526123a281611caa565b519020908281013560001a601b811061242f575b60ff1690601b82141580612424575b61241957602092836080926000948751938452828401528035878401520135606082015282805260015afa1561240f57506000511690811515918261240957505090565b14919050565b513d6000823e3d90fd5b505050505050600090565b50601c8214156123c5565b601b0160ff8111156123b657634e487b7160e01b600052601160045260246000fd5b50505050600190565b5050600090565b60ff6007541661246d57565b60405162461bcd60e51b815260206004820152601060248201526f14185d5cd8589b194e881c185d5cd95960821b6044820152606490fdfea2646970667358221220d80b1e9b9f2679a9c23716f41d6c206b87ae9c97c711c7d3d57392f13448ea6164736f6c63430008130033","opcodes":"PUSH1 0x80 CALLVALUE PUSH3 0x466 JUMPI PUSH1 0x1 PUSH1 0x1 PUSH1 0x40 SHL SUB SWAP1 PUSH1 0x1F SWAP1 PUSH1 0x1F NOT PUSH3 0x29C6 CODESIZE DUP2 SWAP1 SUB DUP5 DUP2 ADD DUP4 AND DUP5 ADD DUP7 DUP2 GT DUP6 DUP3 LT OR PUSH3 0x46B JUMPI DUP5 SWAP3 DUP3 SWAP2 PUSH1 0x40 MSTORE DUP4 CODECOPY PUSH1 0x20 SWAP4 DUP5 SWAP2 DUP2 ADD SUB SLT PUSH3 0x466 JUMPI MLOAD SWAP4 PUSH1 0x1 PUSH1 0x1 PUSH1 0xA0 SHL SUB SWAP2 DUP3 DUP7 AND SWAP2 DUP3 DUP8 SUB PUSH3 0x466 JUMPI PUSH3 0x69 PUSH3 0x481 JUMP JUMPDEST SWAP2 PUSH1 0x1B DUP4 MSTORE PUSH32 0x496E74656C6C695374616B6520536563757269747920546F6B656E0000000000 DUP7 DUP5 ADD MSTORE PUSH3 0x9D PUSH3 0x481 JUMP JUMPDEST SWAP7 PUSH1 0x4 SWAP8 DUP9 DUP2 MSTORE PUSH4 0x4953544B PUSH1 0xE0 SHL DUP9 DUP3 ADD MSTORE DUP5 MLOAD SWAP3 DUP5 DUP5 GT PUSH3 0x367 JUMPI PUSH1 0x3 SWAP4 DUP5 SLOAD SWAP7 PUSH1 0x1 SWAP8 DUP9 DUP2 DUP2 SHR SWAP2 AND DUP1 ISZERO PUSH3 0x45B JUMPI JUMPDEST DUP13 DUP3 LT EQ PUSH3 0x446 JUMPI SWAP1 DUP12 DUP3 DUP8 DUP6 SWAP5 GT PUSH3 0x3ED JUMPI JUMPDEST POP POP DUP12 SWAP1 DUP7 DUP4 GT PUSH1 0x1 EQ PUSH3 0x388 JUMPI PUSH1 0x0 SWAP3 PUSH3 0x37C JUMPI JUMPDEST POP POP PUSH1 0x0 NOT DUP3 DUP8 SHL SHR NOT AND SWAP1 DUP8 SHL OR DUP5 SSTORE JUMPDEST DUP2 MLOAD SWAP5 DUP6 GT PUSH3 0x367 JUMPI DUP10 SLOAD DUP7 DUP2 DUP2 SHR SWAP2 AND DUP1 ISZERO PUSH3 0x35C JUMPI JUMPDEST DUP11 DUP3 LT EQ PUSH3 0x347 JUMPI SWAP1 DUP2 DUP5 DUP8 SWAP7 SWAP6 SWAP5 SWAP4 GT PUSH3 0x2EB JUMPI JUMPDEST POP DUP10 SWAP3 DUP6 GT PUSH1 0x1 EQ PUSH3 0x283 JUMPI POP PUSH1 0x0 SWAP4 PUSH3 0x277 JUMPI JUMPDEST POP POP DUP3 DUP5 SHL SWAP3 PUSH1 0x0 NOT SWAP2 SHL SHR NOT AND OR DUP6 SSTORE JUMPDEST PUSH3 0x178 CALLER PUSH3 0x4A1 JUMP JUMPDEST PUSH1 0x6 SSTORE PUSH1 0xFF NOT PUSH1 0x7 SLOAD AND PUSH1 0x7 SSTORE ISZERO SWAP1 DUP2 ISZERO PUSH3 0x1BA JUMPI JUMPDEST PUSH10 0xD3C21BCECCEDA1000000 PUSH1 0xE SSTORE PUSH9 0x3635C9ADC5DEA00000 PUSH1 0xF SSTORE PUSH1 0x40 MLOAD PUSH2 0x24DB SWAP1 DUP2 PUSH3 0x4EB DUP3 CODECOPY RETURN JUMPDEST CALLER SWAP1 PUSH1 0x5 SLOAD AND SUB PUSH3 0x235 JUMPI PUSH3 0x1E3 JUMPI POP POP PUSH3 0x1D8 SWAP1 PUSH3 0x4A1 JUMP JUMPDEST CODESIZE DUP1 DUP1 DUP1 DUP1 PUSH3 0x18F JUMP JUMPDEST PUSH1 0x40 MLOAD PUSH3 0x461BCD PUSH1 0xE5 SHL DUP2 MSTORE SWAP2 DUP3 ADD MSTORE PUSH1 0x26 PUSH1 0x24 DUP3 ADD MSTORE PUSH32 0x4F776E61626C653A206E6577206F776E657220697320746865207A65726F2061 PUSH1 0x44 DUP3 ADD MSTORE PUSH6 0x646472657373 PUSH1 0xD0 SHL PUSH1 0x64 DUP3 ADD MSTORE PUSH1 0x84 SWAP2 POP REVERT JUMPDEST PUSH1 0x64 DUP4 DUP4 DUP1 PUSH1 0x40 MLOAD SWAP3 PUSH3 0x461BCD PUSH1 0xE5 SHL DUP5 MSTORE DUP4 ADD MSTORE PUSH1 0x24 DUP3 ADD MSTORE PUSH32 0x4F776E61626C653A2063616C6C6572206973206E6F7420746865206F776E6572 PUSH1 0x44 DUP3 ADD MSTORE REVERT JUMPDEST ADD MLOAD SWAP2 POP CODESIZE DUP1 PUSH3 0x15B JUMP JUMPDEST DUP7 SWAP6 SWAP4 SWAP3 SWAP2 SWAP4 AND SWAP3 DUP11 PUSH1 0x0 MSTORE DUP10 PUSH1 0x0 KECCAK256 SWAP4 PUSH1 0x0 JUMPDEST DUP12 DUP3 DUP3 LT PUSH3 0x2D4 JUMPI POP POP DUP6 GT PUSH3 0x2B9 JUMPI JUMPDEST POP POP POP POP DUP2 SHL ADD DUP6 SSTORE PUSH3 0x16D JUMP JUMPDEST ADD MLOAD SWAP1 PUSH1 0xF8 DUP5 PUSH1 0x0 NOT SWAP3 SHL AND SHR NOT AND SWAP1 SSTORE CODESIZE DUP1 DUP1 DUP1 PUSH3 0x2AA JUMP JUMPDEST DUP4 DUP6 ADD MLOAD DUP8 SSTORE DUP10 SWAP9 SWAP1 SWAP7 ADD SWAP6 SWAP4 DUP5 ADD SWAP4 ADD PUSH3 0x297 JUMP JUMPDEST SWAP1 SWAP2 SWAP3 SWAP4 SWAP5 POP DUP11 PUSH1 0x0 MSTORE DUP10 PUSH1 0x0 KECCAK256 DUP5 DUP1 DUP9 ADD PUSH1 0x5 SHR DUP3 ADD SWAP3 DUP13 DUP10 LT PUSH3 0x33D JUMPI JUMPDEST SWAP2 DUP10 SWAP2 DUP10 SWAP9 SWAP8 SWAP7 SWAP6 SWAP5 SWAP4 ADD PUSH1 0x5 SHR ADD SWAP2 JUMPDEST DUP3 DUP2 LT PUSH3 0x32D JUMPI POP POP PUSH3 0x144 JUMP JUMPDEST PUSH1 0x0 DUP2 SSTORE DUP9 SWAP8 POP DUP10 SWAP2 ADD PUSH3 0x31D JUMP JUMPDEST SWAP3 POP DUP2 SWAP3 PUSH3 0x30C JUMP JUMPDEST PUSH1 0x22 DUP12 PUSH4 0x4E487B71 PUSH1 0xE0 SHL PUSH1 0x0 MSTORE MSTORE PUSH1 0x24 PUSH1 0x0 REVERT JUMPDEST SWAP1 PUSH1 0x7F AND SWAP1 PUSH3 0x12C JUMP JUMPDEST PUSH1 0x41 DUP11 PUSH4 0x4E487B71 PUSH1 0xE0 SHL PUSH1 0x0 MSTORE MSTORE PUSH1 0x24 PUSH1 0x0 REVERT JUMPDEST ADD MLOAD SWAP1 POP CODESIZE DUP1 PUSH3 0x100 JUMP JUMPDEST SWAP1 DUP13 SWAP2 DUP6 DUP12 SWAP6 AND DUP10 PUSH1 0x0 MSTORE DUP4 PUSH1 0x0 KECCAK256 SWAP4 PUSH1 0x0 SWAP1 JUMPDEST DUP3 DUP3 LT PUSH3 0x3D5 JUMPI POP POP DUP5 GT PUSH3 0x3BC JUMPI JUMPDEST POP POP POP DUP2 SHL ADD DUP5 SSTORE PUSH3 0x112 JUMP JUMPDEST ADD MLOAD PUSH1 0x0 NOT DUP4 DUP10 SHL PUSH1 0xF8 AND SHR NOT AND SWAP1 SSTORE CODESIZE DUP1 DUP1 PUSH3 0x3AE JUMP JUMPDEST DUP4 DUP6 ADD MLOAD DUP7 SSTORE DUP14 SWAP8 SWAP1 SWAP6 ADD SWAP5 SWAP4 DUP5 ADD SWAP4 ADD DUP16 PUSH3 0x39C JUMP JUMPDEST SWAP1 SWAP2 SWAP3 POP DUP8 PUSH1 0x0 MSTORE DUP7 DUP3 PUSH1 0x0 KECCAK256 SWAP2 DUP2 DUP7 ADD PUSH1 0x5 SHR DUP4 ADD SWAP4 DUP7 LT PUSH3 0x43C JUMPI JUMPDEST SWAP2 DUP12 SWAP2 DUP7 SWAP6 SWAP5 SWAP4 ADD PUSH1 0x5 SHR ADD SWAP2 JUMPDEST DUP3 DUP2 LT PUSH3 0x42C JUMPI POP DUP14 SWAP2 POP PUSH3 0xE8 JUMP JUMPDEST PUSH1 0x0 DUP2 SSTORE DUP6 SWAP5 POP DUP12 SWAP2 ADD PUSH3 0x41A JUMP JUMPDEST SWAP3 POP DUP2 SWAP3 PUSH3 0x40C JUMP JUMPDEST PUSH1 0x22 DUP14 PUSH4 0x4E487B71 PUSH1 0xE0 SHL PUSH1 0x0 MSTORE MSTORE PUSH1 0x24 PUSH1 0x0 REVERT JUMPDEST SWAP1 PUSH1 0x7F AND SWAP1 PUSH3 0xD2 JUMP JUMPDEST PUSH1 0x0 DUP1 REVERT JUMPDEST PUSH4 0x4E487B71 PUSH1 0xE0 SHL PUSH1 0x0 MSTORE PUSH1 0x41 PUSH1 0x4 MSTORE PUSH1 0x24 PUSH1 0x0 REVERT JUMPDEST PUSH1 0x40 DUP1 MLOAD SWAP2 SWAP1 DUP3 ADD PUSH1 0x1 PUSH1 0x1 PUSH1 0x40 SHL SUB DUP2 GT DUP4 DUP3 LT OR PUSH3 0x46B JUMPI PUSH1 0x40 MSTORE JUMP JUMPDEST PUSH1 0x5 DUP1 SLOAD PUSH1 0x1 PUSH1 0x1 PUSH1 0xA0 SHL SUB SWAP3 DUP4 AND PUSH1 0x1 PUSH1 0x1 PUSH1 0xA0 SHL SUB NOT DUP3 AND DUP2 OR SWAP1 SWAP3 SSTORE SWAP1 SWAP2 AND PUSH32 0x8BE0079C531659141344CD1FD0A4F28419497F9722A3DAAFE3B4186F6B6457E0 PUSH1 0x0 DUP1 LOG3 JUMP INVALID PUSH1 0x80 PUSH1 0x40 SWAP1 DUP1 DUP3 MSTORE PUSH1 0x4 DUP1 CALLDATASIZE LT ISZERO PUSH2 0x16 JUMPI PUSH1 0x0 DUP1 REVERT JUMPDEST PUSH1 0x0 SWAP2 DUP3 CALLDATALOAD PUSH1 0xE0 SHR SWAP1 DUP2 PUSH4 0x6FDDE03 EQ PUSH2 0x19FE JUMPI POP DUP1 PUSH4 0x936C3D3 EQ PUSH2 0x17DE JUMPI DUP1 PUSH4 0x95EA7B3 EQ PUSH2 0x17B4 JUMPI DUP1 PUSH4 0x1171BDA9 EQ PUSH2 0x16BD JUMPI DUP1 PUSH4 0x134E18F4 EQ PUSH2 0x1690 JUMPI DUP1 PUSH4 0x18160DDD EQ PUSH2 0x1671 JUMPI DUP1 PUSH4 0x196513D2 EQ PUSH2 0x1607 JUMPI DUP1 PUSH4 0x21AFDA2D EQ PUSH2 0xB94 JUMPI DUP1 PUSH4 0x23B872DD EQ PUSH2 0x150A JUMPI DUP1 PUSH4 0x266BF935 EQ PUSH2 0x13CD JUMPI DUP1 PUSH4 0x2DB4C598 EQ PUSH2 0x139F JUMPI DUP1 PUSH4 0x313CE567 EQ PUSH2 0x1383 JUMPI DUP1 PUSH4 0x39509351 EQ PUSH2 0x1333 JUMPI DUP1 PUSH4 0x3F4BA83A EQ PUSH2 0x129C JUMPI DUP1 PUSH4 0x40C10F19 EQ PUSH2 0x117D JUMPI DUP1 PUSH4 0x42966C68 EQ PUSH2 0x106F JUMPI DUP1 PUSH4 0x4C69C00F EQ PUSH2 0xFC4 JUMPI DUP1 PUSH4 0x4D298A07 EQ PUSH2 0xFA5 JUMPI DUP1 PUSH4 0x591AA483 EQ PUSH2 0xF20 JUMPI DUP1 PUSH4 0x5C975ABB EQ PUSH2 0xEFC JUMPI DUP1 PUSH4 0x6290865D EQ PUSH2 0xED3 JUMPI DUP1 PUSH4 0x70A08231 EQ PUSH2 0xE9C JUMPI DUP1 PUSH4 0x715018A6 EQ PUSH2 0xE3F JUMPI DUP1 PUSH4 0x72110F71 EQ PUSH2 0xDC4 JUMPI DUP1 PUSH4 0x8456CB59 EQ PUSH2 0xD69 JUMPI DUP1 PUSH4 0x8DA5CB5B EQ PUSH2 0xD40 JUMPI DUP1 PUSH4 0x923BE108 EQ PUSH2 0xBD2 JUMPI DUP1 PUSH4 0x94C50B71 EQ PUSH2 0xB94 JUMPI DUP1 PUSH4 0x95D89B41 EQ PUSH2 0xA91 JUMPI DUP1 PUSH4 0x9BC7C8C0 EQ PUSH2 0xA21 JUMPI DUP1 PUSH4 0xA0EB24B5 EQ PUSH2 0x9E3 JUMPI DUP1 PUSH4 0xA457C2D7 EQ PUSH2 0x93F JUMPI DUP1 PUSH4 0xA89AE4BA EQ PUSH2 0x916 JUMPI DUP1 PUSH4 0xA9059CBB EQ PUSH2 0x898 JUMPI DUP1 PUSH4 0xBA7ED2FF EQ PUSH2 0x877 JUMPI DUP1 PUSH4 0xC692516A EQ PUSH2 0x6EA JUMPI DUP1 PUSH4 0xCBF3F861 EQ PUSH2 0x623 JUMPI DUP1 PUSH4 0xD3B9E7DC EQ PUSH2 0x4D2 JUMPI DUP1 PUSH4 0xDD62ED3E EQ PUSH2 0x47E JUMPI DUP1 PUSH4 0xE46638E6 EQ PUSH2 0x462 JUMPI DUP1 PUSH4 0xEA512CBD EQ PUSH2 0x443 JUMPI DUP1 PUSH4 0xF2FDE38B EQ PUSH2 0x376 JUMPI DUP1 PUSH4 0xF63AC762 EQ PUSH2 0x347 JUMPI DUP1 PUSH4 0xF8981789 EQ PUSH2 0x291 JUMPI PUSH4 0xFCB40FD4 EQ PUSH2 0x213 JUMPI PUSH1 0x0 DUP1 REVERT JUMPDEST CALLVALUE PUSH2 0x28D JUMPI PUSH1 0x20 CALLDATASIZE PUSH1 0x3 NOT ADD SLT PUSH2 0x28D JUMPI CALLDATALOAD DUP2 MSTORE PUSH1 0x9 PUSH1 0x20 MSTORE DUP2 DUP2 KECCAK256 DUP1 SLOAD SWAP1 DUP3 JUMPDEST DUP3 DUP2 LT PUSH2 0x245 JUMPI PUSH1 0x20 DUP5 DUP7 MLOAD SWAP1 DUP2 MSTORE RETURN JUMPDEST PUSH1 0xFF PUSH1 0x2 PUSH2 0x253 DUP4 DUP6 PUSH2 0x1B8F JUMP JUMPDEST POP ADD SLOAD AND ISZERO PUSH2 0x26B JUMPI JUMPDEST PUSH2 0x266 SWAP1 PUSH2 0x1E0D JUMP JUMPDEST PUSH2 0x234 JUMP JUMPDEST SWAP3 PUSH2 0x285 PUSH2 0x266 SWAP2 PUSH2 0x27D DUP7 DUP6 PUSH2 0x1B8F JUMP JUMPDEST POP SLOAD SWAP1 PUSH2 0x1CE8 JUMP JUMPDEST SWAP4 SWAP1 POP PUSH2 0x25D JUMP JUMPDEST POP DUP1 REVERT JUMPDEST POP DUP3 SWAP1 CALLVALUE PUSH2 0x343 JUMPI PUSH1 0x20 CALLDATASIZE PUSH1 0x3 NOT ADD SLT PUSH2 0x343 JUMPI PUSH2 0x2AD PUSH2 0x1B3F JUMP JUMPDEST PUSH2 0x2B5 PUSH2 0x1C20 JUMP JUMPDEST PUSH1 0x1 PUSH1 0x1 PUSH1 0xA0 SHL SUB AND SWAP2 DUP3 ISZERO PUSH2 0x300 JUMPI POP POP PUSH1 0x8 DUP1 SLOAD PUSH1 0x1 PUSH1 0x1 PUSH1 0xA0 SHL SUB NOT AND DUP3 OR SWAP1 SSTORE PUSH32 0xA970409706553ACBB8C86C1BC79621A1E9DECFE2E5F083D3EE9DC215D07CEA39 DUP3 DUP1 LOG2 DUP1 RETURN JUMPDEST SWAP1 PUSH1 0x20 PUSH1 0x64 SWAP3 MLOAD SWAP2 PUSH3 0x461BCD PUSH1 0xE5 SHL DUP4 MSTORE DUP3 ADD MSTORE PUSH1 0x1A PUSH1 0x24 DUP3 ADD MSTORE PUSH32 0x496E76616C696420636F6D706C69616E63652061646472657373000000000000 PUSH1 0x44 DUP3 ADD MSTORE REVERT JUMPDEST DUP3 DUP1 REVERT JUMPDEST DUP3 DUP5 CALLVALUE PUSH2 0x28D JUMPI PUSH1 0x20 CALLDATASIZE PUSH1 0x3 NOT ADD SLT PUSH2 0x28D JUMPI PUSH1 0x20 SWAP1 PUSH2 0x36D PUSH2 0x368 PUSH2 0x1B3F JUMP JUMPDEST PUSH2 0x1E5A JUMP JUMPDEST SWAP1 MLOAD SWAP1 ISZERO ISZERO DUP2 MSTORE RETURN JUMPDEST POP DUP3 SWAP1 CALLVALUE PUSH2 0x343 JUMPI PUSH1 0x20 CALLDATASIZE PUSH1 0x3 NOT ADD SLT PUSH2 0x343 JUMPI PUSH2 0x392 PUSH2 0x1B3F JUMP JUMPDEST SWAP1 PUSH2 0x39B PUSH2 0x1C20 JUMP JUMPDEST PUSH1 0x1 PUSH1 0x1 PUSH1 0xA0 SHL SUB SWAP2 DUP3 AND SWAP3 DUP4 ISZERO PUSH2 0x3F1 JUMPI POP POP PUSH1 0x5 SLOAD DUP3 PUSH12 0xFFFFFFFFFFFFFFFFFFFFFFFF PUSH1 0xA0 SHL DUP3 AND OR PUSH1 0x5 SSTORE AND PUSH32 0x8BE0079C531659141344CD1FD0A4F28419497F9722A3DAAFE3B4186F6B6457E0 DUP4 DUP1 LOG3 DUP1 RETURN JUMPDEST SWAP1 PUSH1 0x20 PUSH1 0x84 SWAP3 MLOAD SWAP2 PUSH3 0x461BCD PUSH1 0xE5 SHL DUP4 MSTORE DUP3 ADD MSTORE PUSH1 0x26 PUSH1 0x24 DUP3 ADD MSTORE PUSH32 0x4F776E61626C653A206E6577206F776E657220697320746865207A65726F2061 PUSH1 0x44 DUP3 ADD MSTORE PUSH6 0x646472657373 PUSH1 0xD0 SHL PUSH1 0x64 DUP3 ADD MSTORE REVERT JUMPDEST DUP3 DUP5 CALLVALUE PUSH2 0x28D JUMPI DUP2 PUSH1 0x3 NOT CALLDATASIZE ADD SLT PUSH2 0x28D JUMPI PUSH1 0x20 SWAP1 PUSH1 0xE SLOAD SWAP1 MLOAD SWAP1 DUP2 MSTORE RETURN JUMPDEST DUP3 DUP5 CALLVALUE PUSH2 0x28D JUMPI PUSH1 0x20 SWAP1 PUSH2 0x36D PUSH2 0x478 CALLDATASIZE PUSH2 0x1B5A JUMP JUMPDEST SWAP2 PUSH2 0x1EEE JUMP JUMPDEST DUP3 DUP5 CALLVALUE PUSH2 0x28D JUMPI DUP1 PUSH1 0x3 NOT CALLDATASIZE ADD SLT PUSH2 0x28D JUMPI PUSH2 0x498 PUSH2 0x1B3F JUMP JUMPDEST PUSH1 0x1 PUSH1 0x1 PUSH1 0xA0 SHL SUB PUSH1 0x24 CALLDATALOAD DUP2 DUP2 AND SWAP3 SWAP1 DUP4 SWAP1 SUB PUSH2 0x4CE JUMPI SWAP2 PUSH1 0x20 SWAP5 SWAP2 DUP5 SWAP4 AND DUP3 MSTORE PUSH1 0x1 DUP6 MSTORE DUP3 DUP3 KECCAK256 SWAP1 DUP3 MSTORE DUP5 MSTORE KECCAK256 SLOAD SWAP1 MLOAD SWAP1 DUP2 MSTORE RETURN JUMPDEST DUP5 DUP1 REVERT JUMPDEST POP SWAP2 CALLVALUE PUSH2 0x28D JUMPI DUP1 PUSH1 0x3 NOT CALLDATASIZE ADD SLT PUSH2 0x28D JUMPI PUSH8 0xFFFFFFFFFFFFFFFF SWAP3 DUP1 CALLDATALOAD DUP5 DUP2 GT PUSH2 0x61F JUMPI PUSH2 0x504 SWAP1 CALLDATASIZE SWAP1 DUP4 ADD PUSH2 0x1BEF JUMP JUMPDEST SWAP2 SWAP1 SWAP5 PUSH1 0x24 CALLDATALOAD SWAP1 DUP2 GT PUSH2 0x4CE JUMPI PUSH2 0x51E SWAP1 CALLDATASIZE SWAP1 DUP4 ADD PUSH2 0x1BEF JUMP JUMPDEST SWAP2 PUSH2 0x527 PUSH2 0x1C20 JUMP JUMPDEST DUP3 DUP5 SUB PUSH2 0x5E4 JUMPI POP DUP5 JUMPDEST DUP4 DUP2 LT PUSH2 0x53C JUMPI DUP6 DUP1 RETURN JUMPDEST DUP1 DUP6 PUSH32 0x18FDFD36FB509F2CCED57DADA676AF65D4138954BF356B40880D3A1B30443AE4 DUP9 PUSH2 0x5C0 PUSH2 0x59A DUP6 DUP11 DUP15 PUSH2 0x5BB PUSH2 0x582 PUSH2 0x57D PUSH2 0x5DF SWAP13 DUP16 DUP16 PUSH2 0x1E1C JUMP JUMPDEST PUSH2 0x1E2C JUMP JUMPDEST PUSH1 0x1 PUSH1 0x1 PUSH1 0xA0 SHL SUB SWAP10 DUP11 PUSH2 0x59F PUSH2 0x59A DUP9 DUP9 DUP9 PUSH2 0x1E1C JUMP JUMPDEST PUSH2 0x1E39 JUMP JUMPDEST AND DUP10 MSTORE PUSH1 0x20 SWAP9 PUSH1 0xB DUP11 MSTORE KECCAK256 SWAP1 PUSH1 0xFF DUP1 NOT DUP4 SLOAD AND SWAP2 ISZERO ISZERO AND OR SWAP1 SSTORE JUMP JUMPDEST PUSH2 0x1E1C JUMP JUMPDEST SWAP3 PUSH2 0x5CF PUSH2 0x57D DUP7 DUP11 DUP11 PUSH2 0x1E1C JUMP JUMPDEST SWAP4 DUP11 MLOAD SWAP5 ISZERO ISZERO DUP6 MSTORE AND SWAP3 LOG2 PUSH2 0x1E0D JUMP JUMPDEST PUSH2 0x531 JUMP JUMPDEST PUSH1 0x64 SWAP1 PUSH1 0x20 DUP7 MLOAD SWAP2 PUSH3 0x461BCD PUSH1 0xE5 SHL DUP4 MSTORE DUP3 ADD MSTORE PUSH1 0x15 PUSH1 0x24 DUP3 ADD MSTORE PUSH21 0x82E4E4C2F240D8CADCCEE8D040DAD2E6DAC2E8C6D PUSH1 0x5B SHL PUSH1 0x44 DUP3 ADD MSTORE REVERT JUMPDEST DUP4 DUP1 REVERT JUMPDEST POP DUP3 SWAP1 CALLVALUE PUSH2 0x343 JUMPI PUSH1 0x20 CALLDATASIZE PUSH1 0x3 NOT ADD SLT PUSH2 0x343 JUMPI PUSH2 0x63F PUSH2 0x1B3F JUMP JUMPDEST SWAP1 PUSH2 0x648 PUSH2 0x1C20 JUMP JUMPDEST PUSH1 0x1 PUSH1 0x1 PUSH1 0xA0 SHL SUB DUP3 AND SWAP3 DUP4 ISZERO PUSH2 0x6A7 JUMPI POP POP PUSH1 0x7 DUP1 SLOAD PUSH2 0x100 PUSH1 0x1 PUSH1 0xA8 SHL SUB NOT AND PUSH1 0x8 SWAP3 SWAP1 SWAP3 SHL PUSH2 0x100 PUSH1 0x1 PUSH1 0xA8 SHL SUB AND SWAP2 SWAP1 SWAP2 OR SWAP1 SSTORE PUSH32 0x8AA6172B9DCBE4F05892121059BC535D4743D706BA3AC6CBABF4A40DE229E388 DUP3 DUP1 LOG2 DUP1 RETURN JUMPDEST SWAP1 PUSH1 0x20 PUSH1 0x64 SWAP3 MLOAD SWAP2 PUSH3 0x461BCD PUSH1 0xE5 SHL DUP4 MSTORE DUP3 ADD MSTORE PUSH1 0x18 PUSH1 0x24 DUP3 ADD MSTORE PUSH32 0x496E76616C696420726567697374727920616464726573730000000000000000 PUSH1 0x44 DUP3 ADD MSTORE REVERT JUMPDEST POP SWAP2 CALLVALUE PUSH2 0x28D JUMPI PUSH1 0x60 CALLDATASIZE PUSH1 0x3 NOT ADD SLT PUSH2 0x28D JUMPI DUP3 CALLDATALOAD SWAP1 PUSH1 0x24 CALLDATALOAD PUSH1 0x44 CALLDATALOAD PUSH8 0xFFFFFFFFFFFFFFFF DUP2 GT PUSH2 0x4CE JUMPI PUSH2 0x722 SWAP1 CALLDATASIZE SWAP1 DUP8 ADD PUSH2 0x1BC1 JUMP JUMPDEST PUSH2 0x72A PUSH2 0x1C20 JUMP JUMPDEST PUSH2 0x732 PUSH2 0x20B8 JUMP JUMPDEST DUP5 DUP7 MSTORE PUSH1 0x9 PUSH1 0x20 MSTORE DUP4 DUP7 KECCAK256 DUP1 SLOAD DUP5 LT ISZERO PUSH2 0x83C JUMPI DUP4 PUSH2 0x750 SWAP2 PUSH2 0x1B8F JUMP JUMPDEST POP SWAP2 PUSH1 0x2 DUP4 ADD SWAP2 PUSH1 0xFF DUP4 SLOAD AND PUSH2 0x820 JUMPI PUSH2 0x770 SWAP1 PUSH1 0x1 DUP6 ADD SLOAD SWAP3 DUP4 PUSH2 0x231F JUMP JUMPDEST ISZERO PUSH2 0x810 JUMPI SWAP7 PUSH2 0x7FC SWAP2 PUSH1 0x1 DUP10 DUP10 SWAP11 PUSH32 0xF2C471E2EB8D5A61CEA66AB82BAB6DC0234916165C56D4D3953DA6531976D8C5 SWAP10 SWAP11 MSTORE PUSH1 0xA PUSH1 0x20 MSTORE DUP8 DUP12 KECCAK256 SWAP1 PUSH1 0xFF NOT SWAP2 DUP4 DUP4 DUP3 SLOAD AND OR SWAP1 SSTORE PUSH32 0xDFAB6D57CA95FAA91C42574906D1D4C6F78EB5CC2F846C1F898A08A8DD73EE32 PUSH1 0x20 DUP11 MLOAD TIMESTAMP DUP2 MSTORE LOG2 DUP3 SLOAD AND OR SWAP1 SSTORE DUP3 ADD SLOAD DUP3 SLOAD SWAP1 PUSH1 0x1 PUSH1 0x1 PUSH1 0xA0 SHL SUB AND ADDRESS PUSH2 0x21B1 JUMP JUMPDEST SLOAD DUP3 MLOAD SWAP2 DUP3 MSTORE PUSH1 0x20 DUP3 ADD MSTORE LOG2 PUSH1 0x1 PUSH1 0x6 SSTORE DUP1 RETURN JUMPDEST DUP5 MLOAD PUSH4 0x1060F161 PUSH1 0xE0 SHL DUP2 MSTORE DUP9 SWAP1 REVERT JUMPDEST PUSH1 0x44 DUP10 DUP7 DUP10 DUP10 MLOAD SWAP3 PUSH4 0x21C9D919 PUSH1 0xE1 SHL DUP5 MSTORE DUP4 ADD MSTORE PUSH1 0x24 DUP3 ADD MSTORE REVERT JUMPDEST DUP5 MLOAD PUSH3 0x461BCD PUSH1 0xE5 SHL DUP2 MSTORE PUSH1 0x20 DUP2 DUP11 ADD MSTORE PUSH1 0x15 PUSH1 0x24 DUP3 ADD MSTORE PUSH21 0x92DCECC2D8D2C840E8E4C2DCC6D0CA40D2DCC8CAF PUSH1 0x5B SHL PUSH1 0x44 DUP3 ADD MSTORE PUSH1 0x64 SWAP1 REVERT JUMPDEST POP CALLVALUE PUSH2 0x28D JUMPI PUSH1 0x20 CALLDATASIZE PUSH1 0x3 NOT ADD SLT PUSH2 0x28D JUMPI PUSH2 0x891 PUSH2 0x1C20 JUMP JUMPDEST CALLDATALOAD PUSH1 0xF SSTORE DUP1 RETURN JUMPDEST POP SWAP2 SWAP1 CALLVALUE PUSH2 0x913 JUMPI DUP2 PUSH1 0x3 NOT CALLDATASIZE ADD SLT PUSH2 0x913 JUMPI POP PUSH2 0x8B4 PUSH2 0x1B3F JUMP JUMPDEST SWAP2 PUSH1 0x24 CALLDATALOAD SWAP1 PUSH2 0x8C1 PUSH2 0x2461 JUMP JUMPDEST PUSH2 0x8CC DUP3 DUP6 CALLER PUSH2 0x1EEE JUMP JUMPDEST ISZERO PUSH2 0x8E6 JUMPI POP PUSH2 0x8DF SWAP1 PUSH1 0x20 SWAP4 CALLER PUSH2 0x21B1 JUMP JUMPDEST MLOAD PUSH1 0x1 DUP2 MSTORE RETURN JUMPDEST SWAP2 MLOAD PUSH4 0x79F913BB PUSH1 0xE1 SHL DUP2 MSTORE CALLER SWAP3 DUP2 ADD SWAP3 DUP4 MSTORE PUSH1 0x1 PUSH1 0x1 PUSH1 0xA0 SHL SUB SWAP1 SWAP4 AND PUSH1 0x20 DUP4 ADD MSTORE POP DUP2 SWAP1 PUSH1 0x40 ADD SUB SWAP1 REVERT JUMPDEST DUP1 REVERT JUMPDEST DUP3 DUP5 CALLVALUE PUSH2 0x28D JUMPI DUP2 PUSH1 0x3 NOT CALLDATASIZE ADD SLT PUSH2 0x28D JUMPI PUSH1 0xC SLOAD SWAP1 MLOAD PUSH1 0x1 PUSH1 0x1 PUSH1 0xA0 SHL SUB SWAP1 SWAP2 AND DUP2 MSTORE PUSH1 0x20 SWAP1 RETURN JUMPDEST POP SWAP1 CALLVALUE PUSH2 0x913 JUMPI DUP3 PUSH1 0x3 NOT CALLDATASIZE ADD SLT PUSH2 0x913 JUMPI PUSH2 0x959 PUSH2 0x1B3F JUMP JUMPDEST SWAP2 DUP4 PUSH1 0x24 CALLDATALOAD SWAP3 CALLER DUP2 MSTORE PUSH1 0x1 PUSH1 0x20 MSTORE DUP2 DUP2 KECCAK256 PUSH1 0x1 DUP1 PUSH1 0xA0 SHL SUB DUP7 AND DUP3 MSTORE PUSH1 0x20 MSTORE KECCAK256 SLOAD SWAP1 DUP3 DUP3 LT PUSH2 0x992 JUMPI PUSH1 0x20 DUP6 PUSH2 0x8DF DUP6 DUP6 SUB DUP8 CALLER PUSH2 0x1D0B JUMP JUMPDEST PUSH1 0x84 SWAP1 PUSH1 0x20 DUP7 MLOAD SWAP2 PUSH3 0x461BCD PUSH1 0xE5 SHL DUP4 MSTORE DUP3 ADD MSTORE PUSH1 0x25 PUSH1 0x24 DUP3 ADD MSTORE PUSH32 0x45524332303A2064656372656173656420616C6C6F77616E63652062656C6F77 PUSH1 0x44 DUP3 ADD MSTORE PUSH5 0x207A65726F PUSH1 0xD8 SHL PUSH1 0x64 DUP3 ADD MSTORE REVERT JUMPDEST DUP3 DUP5 CALLVALUE PUSH2 0x28D JUMPI PUSH1 0x20 CALLDATASIZE PUSH1 0x3 NOT ADD SLT PUSH2 0x28D JUMPI PUSH1 0x20 SWAP2 PUSH1 0xFF SWAP1 DUP3 SWAP1 PUSH1 0x1 PUSH1 0x1 PUSH1 0xA0 SHL SUB PUSH2 0xA0E PUSH2 0x1B3F JUMP JUMPDEST AND DUP2 MSTORE PUSH1 0xB DUP6 MSTORE KECCAK256 SLOAD AND SWAP1 MLOAD SWAP1 ISZERO ISZERO DUP2 MSTORE RETURN JUMPDEST POP DUP3 SWAP1 CALLVALUE PUSH2 0x343 JUMPI PUSH1 0x20 CALLDATASIZE PUSH1 0x3 NOT ADD SLT PUSH2 0x343 JUMPI DUP1 CALLDATALOAD SWAP2 PUSH2 0xA40 PUSH2 0x1C20 JUMP JUMPDEST DUP3 ISZERO PUSH2 0xA4E JUMPI POP POP PUSH1 0xE SSTORE DUP1 RETURN JUMPDEST SWAP1 PUSH1 0x20 PUSH1 0x64 SWAP3 MLOAD SWAP2 PUSH3 0x461BCD PUSH1 0xE5 SHL DUP4 MSTORE DUP3 ADD MSTORE PUSH1 0x1C PUSH1 0x24 DUP3 ADD MSTORE PUSH32 0x4D617820686F6C64696E67206D75737420626520706F73697469766500000000 PUSH1 0x44 DUP3 ADD MSTORE REVERT JUMPDEST POP SWAP2 CALLVALUE PUSH2 0x28D JUMPI DUP2 PUSH1 0x3 NOT CALLDATASIZE ADD SLT PUSH2 0x28D JUMPI DUP1 MLOAD SWAP2 DUP1 SWAP4 DUP1 SLOAD SWAP2 PUSH1 0x1 SWAP1 DUP4 DUP3 SHR SWAP3 DUP3 DUP6 AND SWAP5 DUP6 ISZERO PUSH2 0xB8A JUMPI JUMPDEST PUSH1 0x20 SWAP6 DUP7 DUP7 LT DUP2 EQ PUSH2 0xB77 JUMPI DUP6 DUP10 MSTORE SWAP1 DUP2 ISZERO PUSH2 0xB53 JUMPI POP PUSH1 0x1 EQ PUSH2 0xAFB JUMPI JUMPDEST PUSH2 0xAF7 DUP8 DUP8 PUSH2 0xAED DUP3 DUP13 SUB DUP4 PUSH2 0x1CC6 JUMP JUMPDEST MLOAD SWAP2 DUP3 SWAP2 DUP3 PUSH2 0x1B13 JUMP JUMPDEST SUB SWAP1 RETURN JUMPDEST DUP2 MSTORE SWAP3 SWAP6 POP PUSH32 0x8A35ACFBC15FF81A39AE7D344FD709F28E8600B4AA8C65C6B64BFE7FE36BD19B JUMPDEST DUP3 DUP5 LT PUSH2 0xB40 JUMPI POP POP POP DUP3 PUSH2 0xAF7 SWAP5 PUSH2 0xAED SWAP3 DUP3 ADD ADD SWAP5 CODESIZE DUP1 PUSH2 0xADC JUMP JUMPDEST DUP1 SLOAD DUP7 DUP6 ADD DUP9 ADD MSTORE SWAP3 DUP7 ADD SWAP3 DUP2 ADD PUSH2 0xB22 JUMP JUMPDEST PUSH1 0xFF NOT AND DUP9 DUP8 ADD MSTORE POP POP POP POP ISZERO ISZERO PUSH1 0x5 SHL DUP4 ADD ADD SWAP3 POP PUSH2 0xAED DUP3 PUSH2 0xAF7 CODESIZE DUP1 PUSH2 0xADC JUMP JUMPDEST PUSH4 0x4E487B71 PUSH1 0xE0 SHL DUP5 MSTORE PUSH1 0x22 DUP4 MSTORE PUSH1 0x24 DUP5 REVERT JUMPDEST SWAP4 PUSH1 0x7F AND SWAP4 PUSH2 0xABD JUMP JUMPDEST DUP3 DUP5 CALLVALUE PUSH2 0x28D JUMPI PUSH1 0x20 CALLDATASIZE PUSH1 0x3 NOT ADD SLT PUSH2 0x28D JUMPI PUSH1 0x20 SWAP2 PUSH1 0xFF SWAP1 DUP3 SWAP1 PUSH1 0x1 PUSH1 0x1 PUSH1 0xA0 SHL SUB PUSH2 0xBBF PUSH2 0x1B3F JUMP JUMPDEST AND DUP2 MSTORE PUSH1 0xD DUP6 MSTORE KECCAK256 SLOAD AND SWAP1 MLOAD SWAP1 ISZERO ISZERO DUP2 MSTORE RETURN JUMPDEST POP DUP3 CALLVALUE PUSH2 0x343 JUMPI DUP1 PUSH1 0x3 NOT CALLDATASIZE ADD SLT PUSH2 0x343 JUMPI PUSH2 0xBEC PUSH2 0x1B3F JUMP JUMPDEST SWAP1 PUSH1 0x24 CALLDATALOAD PUSH8 0xFFFFFFFFFFFFFFFF DUP2 GT PUSH2 0x4CE JUMPI PUSH2 0xC0C SWAP1 CALLDATASIZE SWAP1 DUP6 ADD PUSH2 0x1BC1 JUMP JUMPDEST PUSH1 0xC SLOAD SWAP1 SWAP4 PUSH1 0x1 PUSH1 0x1 PUSH1 0xA0 SHL SUB SWAP2 DUP3 AND CALLER EQ DUP1 ISZERO PUSH2 0xD33 JUMPI JUMPDEST ISZERO PUSH2 0xCE1 JUMPI AND SWAP4 DUP5 ISZERO PUSH2 0xC9E JUMPI POP DUP3 SWAP2 DUP3 PUSH32 0x3B1C53AF6D7FE56C23B93C48665FC2CD845AA4C8B085041CB928F8E47C8AB969 SWAP5 PUSH1 0x60 SWAP4 DUP8 DUP10 MSTORE PUSH1 0xD PUSH1 0x20 MSTORE DUP4 DUP10 KECCAK256 PUSH1 0x1 PUSH1 0xFF NOT DUP3 SLOAD AND OR SWAP1 SSTORE DUP4 MLOAD SWAP6 DUP5 DUP8 SWAP6 DUP7 MSTORE DUP6 ADD MSTORE DUP5 DUP5 ADD CALLDATACOPY DUP2 DUP2 ADD DUP4 ADD DUP8 SWAP1 MSTORE TIMESTAMP PUSH1 0x20 DUP4 ADD MSTORE PUSH1 0x1F ADD PUSH1 0x1F NOT AND DUP2 ADD SUB ADD SWAP1 LOG2 DUP1 RETURN JUMPDEST PUSH1 0x64 SWAP1 PUSH1 0x20 DUP5 MLOAD SWAP2 PUSH3 0x461BCD PUSH1 0xE5 SHL DUP4 MSTORE DUP3 ADD MSTORE PUSH1 0x1D PUSH1 0x24 DUP3 ADD MSTORE PUSH32 0x496E76616C6964207374617274757020746F6B656E2061646472657373000000 PUSH1 0x44 DUP3 ADD MSTORE REVERT JUMPDEST DUP4 MLOAD PUSH3 0x461BCD PUSH1 0xE5 SHL DUP2 MSTORE PUSH1 0x20 DUP2 DUP9 ADD MSTORE PUSH1 0x26 PUSH1 0x24 DUP3 ADD MSTORE PUSH32 0x496E74656C6C695374616B65546F6B656E3A206E6F74206F7261636C65206F72 PUSH1 0x44 DUP3 ADD MSTORE PUSH6 0x1037BBB732B9 PUSH1 0xD1 SHL PUSH1 0x64 DUP3 ADD MSTORE PUSH1 0x84 SWAP1 REVERT JUMPDEST POP DUP2 PUSH1 0x5 SLOAD AND CALLER EQ PUSH2 0xC25 JUMP JUMPDEST DUP3 DUP5 CALLVALUE PUSH2 0x28D JUMPI DUP2 PUSH1 0x3 NOT CALLDATASIZE ADD SLT PUSH2 0x28D JUMPI PUSH1 0x5 SLOAD SWAP1 MLOAD PUSH1 0x1 PUSH1 0x1 PUSH1 0xA0 SHL SUB SWAP1 SWAP2 AND DUP2 MSTORE PUSH1 0x20 SWAP1 RETURN JUMPDEST DUP3 DUP5 CALLVALUE PUSH2 0x28D JUMPI DUP2 PUSH1 0x3 NOT CALLDATASIZE ADD SLT PUSH2 0x28D JUMPI PUSH1 0x20 PUSH32 0x62E78CEA01BEE320CD4E420270B5EA74000D11B0C9F74754EBDBFC544B05A258 SWAP2 PUSH2 0xDA7 PUSH2 0x1C20 JUMP JUMPDEST PUSH2 0xDAF PUSH2 0x2461 JUMP JUMPDEST PUSH1 0x1 PUSH1 0xFF NOT PUSH1 0x7 SLOAD AND OR PUSH1 0x7 SSTORE MLOAD CALLER DUP2 MSTORE LOG1 DUP1 RETURN JUMPDEST POP DUP3 SWAP1 CALLVALUE PUSH2 0x343 JUMPI DUP2 PUSH1 0x3 NOT CALLDATASIZE ADD SLT PUSH2 0x343 JUMPI PUSH1 0x24 CALLDATALOAD SWAP3 DUP2 CALLDATALOAD DUP2 MSTORE PUSH1 0x9 PUSH1 0x20 MSTORE DUP3 DUP2 KECCAK256 SWAP1 DUP2 SLOAD DUP6 LT ISZERO PUSH2 0x913 JUMPI POP PUSH1 0xA0 SWAP4 PUSH2 0xDFE SWAP2 PUSH2 0x1B8F JUMP JUMPDEST POP SWAP1 DUP2 SLOAD SWAP3 PUSH1 0x1 DUP4 ADD SLOAD SWAP3 PUSH1 0xFF PUSH1 0x2 DUP3 ADD SLOAD AND SWAP1 PUSH1 0x3 DUP2 ADD SLOAD SWAP4 PUSH1 0x1 DUP1 DUP10 SHL SUB SWAP2 ADD SLOAD AND SWAP4 DUP3 MLOAD SWAP6 DUP7 MSTORE PUSH1 0x20 DUP7 ADD MSTORE ISZERO ISZERO SWAP1 DUP5 ADD MSTORE PUSH1 0x60 DUP4 ADD MSTORE PUSH1 0x80 DUP3 ADD MSTORE RETURN JUMPDEST DUP3 CALLVALUE PUSH2 0x913 JUMPI DUP1 PUSH1 0x3 NOT CALLDATASIZE ADD SLT PUSH2 0x913 JUMPI PUSH2 0xE58 PUSH2 0x1C20 JUMP JUMPDEST PUSH1 0x5 DUP1 SLOAD PUSH1 0x1 PUSH1 0x1 PUSH1 0xA0 SHL SUB NOT DUP2 AND SWAP1 SWAP2 SSTORE DUP2 SWAP1 PUSH1 0x1 PUSH1 0x1 PUSH1 0xA0 SHL SUB AND PUSH32 0x8BE0079C531659141344CD1FD0A4F28419497F9722A3DAAFE3B4186F6B6457E0 DUP3 DUP1 LOG3 DUP1 RETURN JUMPDEST DUP3 DUP5 CALLVALUE PUSH2 0x28D JUMPI PUSH1 0x20 CALLDATASIZE PUSH1 0x3 NOT ADD SLT PUSH2 0x28D JUMPI PUSH1 0x20 SWAP2 DUP2 SWAP1 PUSH1 0x1 PUSH1 0x1 PUSH1 0xA0 SHL SUB PUSH2 0xEC4 PUSH2 0x1B3F JUMP JUMPDEST AND DUP2 MSTORE DUP1 DUP5 MSTORE KECCAK256 SLOAD SWAP1 MLOAD SWAP1 DUP2 MSTORE RETURN JUMPDEST DUP3 DUP5 CALLVALUE PUSH2 0x28D JUMPI DUP2 PUSH1 0x3 NOT CALLDATASIZE ADD SLT PUSH2 0x28D JUMPI PUSH1 0x8 SLOAD SWAP1 MLOAD PUSH1 0x1 PUSH1 0x1 PUSH1 0xA0 SHL SUB SWAP1 SWAP2 AND DUP2 MSTORE PUSH1 0x20 SWAP1 RETURN JUMPDEST DUP3 DUP5 CALLVALUE PUSH2 0x28D JUMPI DUP2 PUSH1 0x3 NOT CALLDATASIZE ADD SLT PUSH2 0x28D JUMPI PUSH1 0x20 SWAP1 PUSH1 0xFF PUSH1 0x7 SLOAD AND SWAP1 MLOAD SWAP1 ISZERO ISZERO DUP2 MSTORE RETURN JUMPDEST DUP3 DUP5 CALLVALUE PUSH2 0x28D JUMPI DUP1 PUSH1 0x3 NOT CALLDATASIZE ADD SLT PUSH2 0x28D JUMPI PUSH2 0xF3A PUSH2 0x1B3F JUMP JUMPDEST SWAP1 PUSH1 0x24 CALLDATALOAD SWAP2 DUP3 ISZERO ISZERO DUP1 DUP5 SUB PUSH2 0x4CE JUMPI PUSH32 0x18FDFD36FB509F2CCED57DADA676AF65D4138954BF356B40880D3A1B30443AE4 SWAP3 PUSH2 0xF9D PUSH1 0x20 SWAP4 PUSH2 0xF79 PUSH2 0x1C20 JUMP JUMPDEST PUSH1 0x1 DUP1 PUSH1 0xA0 SHL SUB AND SWAP6 DUP7 DUP9 MSTORE PUSH1 0xB DUP6 MSTORE DUP3 DUP9 KECCAK256 SWAP1 PUSH1 0xFF DUP1 NOT DUP4 SLOAD AND SWAP2 ISZERO ISZERO AND OR SWAP1 SSTORE JUMP JUMPDEST MLOAD SWAP1 DUP2 MSTORE LOG2 DUP1 RETURN JUMPDEST DUP3 DUP5 CALLVALUE PUSH2 0x28D JUMPI DUP2 PUSH1 0x3 NOT CALLDATASIZE ADD SLT PUSH2 0x28D JUMPI PUSH1 0x20 SWAP1 PUSH1 0xF SLOAD SWAP1 MLOAD SWAP1 DUP2 MSTORE RETURN JUMPDEST POP DUP3 SWAP1 CALLVALUE PUSH2 0x343 JUMPI PUSH1 0x20 CALLDATASIZE PUSH1 0x3 NOT ADD SLT PUSH2 0x343 JUMPI PUSH2 0xFE0 PUSH2 0x1B3F JUMP JUMPDEST PUSH2 0xFE8 PUSH2 0x1C20 JUMP JUMPDEST PUSH1 0x1 PUSH1 0x1 PUSH1 0xA0 SHL SUB AND SWAP2 DUP3 ISZERO PUSH2 0x1033 JUMPI POP POP PUSH1 0xC DUP1 SLOAD PUSH1 0x1 PUSH1 0x1 PUSH1 0xA0 SHL SUB NOT AND DUP3 OR SWAP1 SSTORE PUSH32 0xDD82BDFC28FCC826C53263DC2A2B6083E27E92699EBFEE617227E08E21C202F0 DUP3 DUP1 LOG2 DUP1 RETURN JUMPDEST SWAP1 PUSH1 0x20 PUSH1 0x64 SWAP3 MLOAD SWAP2 PUSH3 0x461BCD PUSH1 0xE5 SHL DUP4 MSTORE DUP3 ADD MSTORE PUSH1 0x16 PUSH1 0x24 DUP3 ADD MSTORE PUSH22 0x496E76616C6964206F7261636C652061646472657373 PUSH1 0x50 SHL PUSH1 0x44 DUP3 ADD MSTORE REVERT JUMPDEST POP DUP3 CALLVALUE PUSH2 0x343 JUMPI PUSH1 0x20 SWAP1 DUP2 PUSH1 0x3 NOT CALLDATASIZE ADD SLT PUSH2 0x61F JUMPI DUP3 CALLDATALOAD SWAP3 CALLER ISZERO PUSH2 0x1132 JUMPI CALLER DUP6 MSTORE DUP5 DUP4 MSTORE DUP2 DUP6 KECCAK256 SLOAD SWAP1 DUP5 DUP3 LT PUSH2 0x10E4 JUMPI POP SWAP2 PUSH32 0xDDF252AD1BE2C89B69C2B068FC378DAA952BA7F163C4A11628F55A4DF523B3EF SWAP2 DUP5 DUP7 SWAP6 SWAP5 CALLER DUP8 MSTORE DUP7 DUP5 MSTORE SUB DUP2 DUP7 KECCAK256 SSTORE DUP4 PUSH1 0x2 SLOAD SUB PUSH1 0x2 SSTORE MLOAD SWAP3 DUP4 MSTORE CALLER SWAP3 LOG3 DUP1 RETURN JUMPDEST DUP3 MLOAD PUSH3 0x461BCD PUSH1 0xE5 SHL DUP2 MSTORE SWAP1 DUP2 ADD DUP5 SWAP1 MSTORE PUSH1 0x22 PUSH1 0x24 DUP3 ADD MSTORE PUSH32 0x45524332303A206275726E20616D6F756E7420657863656564732062616C616E PUSH1 0x44 DUP3 ADD MSTORE PUSH2 0x6365 PUSH1 0xF0 SHL PUSH1 0x64 DUP3 ADD MSTORE PUSH1 0x84 SWAP1 REVERT JUMPDEST DUP3 PUSH1 0x84 SWAP3 MLOAD SWAP2 PUSH3 0x461BCD PUSH1 0xE5 SHL DUP4 MSTORE DUP3 ADD MSTORE PUSH1 0x21 PUSH1 0x24 DUP3 ADD MSTORE PUSH32 0x45524332303A206275726E2066726F6D20746865207A65726F20616464726573 PUSH1 0x44 DUP3 ADD MSTORE PUSH1 0x73 PUSH1 0xF8 SHL PUSH1 0x64 DUP3 ADD MSTORE REVERT JUMPDEST POP CALLVALUE PUSH2 0x28D JUMPI DUP3 PUSH1 0x3 NOT CALLDATASIZE ADD SLT PUSH2 0x28D JUMPI PUSH2 0x1196 PUSH2 0x1B3F JUMP JUMPDEST PUSH1 0x24 CALLDATALOAD SWAP2 PUSH2 0x11A2 PUSH2 0x1C20 JUMP JUMPDEST PUSH2 0x11AA PUSH2 0x2461 JUMP JUMPDEST PUSH2 0x11B3 DUP3 PUSH2 0x1E5A JUMP JUMPDEST ISZERO PUSH2 0x127B JUMPI PUSH1 0x1 PUSH1 0x1 PUSH1 0xA0 SHL SUB DUP3 AND DUP1 DUP6 MSTORE PUSH1 0xB PUSH1 0x20 MSTORE DUP6 DUP6 KECCAK256 SLOAD PUSH1 0xFF AND ISZERO PUSH2 0x1265 JUMPI DUP1 DUP6 MSTORE DUP5 PUSH1 0x20 MSTORE PUSH2 0x11EA DUP5 DUP8 DUP8 KECCAK256 SLOAD PUSH2 0x1CE8 JUMP JUMPDEST PUSH1 0xE SLOAD LT PUSH2 0x1237 JUMPI DUP5 MSTORE DUP4 PUSH1 0x20 MSTORE DUP5 DUP5 KECCAK256 SLOAD ISZERO DUP1 PUSH2 0x122C JUMPI JUMPDEST PUSH2 0x1215 JUMPI POP SWAP1 PUSH2 0x1212 SWAP2 PUSH2 0x210E JUMP JUMPDEST DUP1 RETURN JUMPDEST DUP5 MLOAD PUSH4 0xF39C9DA5 PUSH1 0xE0 SHL DUP2 MSTORE SWAP1 DUP2 ADD DUP4 SWAP1 MSTORE PUSH1 0x24 SWAP1 REVERT JUMPDEST POP PUSH1 0xF SLOAD DUP4 LT PUSH2 0x1203 JUMP JUMPDEST POP DUP5 MLOAD PUSH4 0x2DD7F6F7 PUSH1 0xE2 SHL DUP2 MSTORE PUSH1 0x1 PUSH1 0x1 PUSH1 0xA0 SHL SUB SWAP1 SWAP3 AND SWAP1 DUP3 ADD SWAP1 DUP2 MSTORE PUSH1 0x20 DUP2 ADD DUP4 SWAP1 MSTORE DUP2 SWAP1 PUSH1 0x40 ADD SUB SWAP1 REVERT JUMPDEST DUP6 MLOAD PUSH4 0x22B9A43 PUSH1 0xE4 SHL DUP2 MSTORE SWAP2 DUP3 ADD MSTORE PUSH1 0x24 SWAP2 POP REVERT JUMPDEST DUP5 MLOAD PUSH4 0xC4382681 PUSH1 0xE0 SHL DUP2 MSTORE PUSH1 0x1 PUSH1 0x1 PUSH1 0xA0 SHL SUB SWAP1 SWAP3 AND SWAP1 DUP3 ADD MSTORE PUSH1 0x24 SWAP2 POP REVERT JUMPDEST POP DUP3 SWAP1 CALLVALUE PUSH2 0x343 JUMPI DUP3 PUSH1 0x3 NOT CALLDATASIZE ADD SLT PUSH2 0x343 JUMPI PUSH2 0x12B7 PUSH2 0x1C20 JUMP JUMPDEST PUSH1 0x7 SLOAD SWAP1 PUSH1 0xFF DUP3 AND ISZERO PUSH2 0x12F9 JUMPI POP PUSH1 0xFF NOT AND PUSH1 0x7 SSTORE MLOAD CALLER DUP2 MSTORE PUSH32 0x5DB9EE0A495BF2E6FF9C91A7834C1BA4FDD244A5E8AA4E537BD38AEAE4B073AA SWAP1 PUSH1 0x20 SWAP1 LOG1 DUP1 RETURN JUMPDEST PUSH1 0x64 SWAP1 PUSH1 0x20 DUP5 MLOAD SWAP2 PUSH3 0x461BCD PUSH1 0xE5 SHL DUP4 MSTORE DUP3 ADD MSTORE PUSH1 0x14 PUSH1 0x24 DUP3 ADD MSTORE PUSH20 0x14185D5CD8589B194E881B9BDD081C185D5CD959 PUSH1 0x62 SHL PUSH1 0x44 DUP3 ADD MSTORE REVERT JUMPDEST DUP3 DUP5 CALLVALUE PUSH2 0x28D JUMPI DUP1 PUSH1 0x3 NOT CALLDATASIZE ADD SLT PUSH2 0x28D JUMPI PUSH2 0x8DF PUSH1 0x20 SWAP3 PUSH2 0x137C PUSH2 0x1356 PUSH2 0x1B3F JUMP JUMPDEST CALLER DUP4 MSTORE PUSH1 0x1 DUP7 MSTORE DUP5 DUP4 KECCAK256 PUSH1 0x1 PUSH1 0x1 PUSH1 0xA0 SHL SUB DUP3 AND DUP5 MSTORE DUP7 MSTORE SWAP2 DUP5 SWAP1 KECCAK256 SLOAD PUSH1 0x24 CALLDATALOAD SWAP1 PUSH2 0x1CE8 JUMP JUMPDEST SWAP1 CALLER PUSH2 0x1D0B JUMP JUMPDEST DUP3 DUP5 CALLVALUE PUSH2 0x28D JUMPI DUP2 PUSH1 0x3 NOT CALLDATASIZE ADD SLT PUSH2 0x28D JUMPI PUSH1 0x20 SWAP1 MLOAD PUSH1 0x12 DUP2 MSTORE RETURN JUMPDEST POP DUP3 SWAP1 CALLVALUE PUSH2 0x343 JUMPI PUSH1 0x20 CALLDATASIZE PUSH1 0x3 NOT ADD SLT PUSH2 0x343 JUMPI DUP2 PUSH1 0x20 SWAP4 PUSH1 0xFF SWAP3 CALLDATALOAD DUP2 MSTORE PUSH1 0xA DUP6 MSTORE KECCAK256 SLOAD AND SWAP1 MLOAD SWAP1 ISZERO ISZERO DUP2 MSTORE RETURN JUMPDEST POP CALLVALUE PUSH2 0x28D JUMPI PUSH1 0x20 SWAP1 DUP2 PUSH1 0x3 NOT CALLDATASIZE ADD SLT PUSH2 0x343 JUMPI DUP1 CALLDATALOAD DUP4 MSTORE PUSH1 0x9 DUP3 MSTORE DUP4 DUP4 KECCAK256 SWAP2 DUP3 SLOAD PUSH8 0xFFFFFFFFFFFFFFFF DUP2 GT PUSH2 0x14F7 JUMPI DUP6 MLOAD SWAP2 SWAP5 SWAP3 PUSH1 0x5 SWAP1 PUSH2 0x1414 DUP4 DUP4 SHL DUP9 ADD DUP6 PUSH2 0x1CC6 JUMP JUMPDEST DUP3 DUP5 MSTORE DUP7 DUP5 ADD SWAP1 DUP2 SWAP7 DUP7 MSTORE DUP8 DUP7 KECCAK256 SWAP1 DUP7 SWAP3 JUMPDEST DUP6 DUP5 LT PUSH2 0x149B JUMPI POP POP POP POP POP POP DUP5 MLOAD SWAP4 DUP1 DUP6 ADD SWAP2 DUP2 DUP7 MSTORE MLOAD DUP1 SWAP3 MSTORE DUP6 DUP6 ADD SWAP4 SWAP3 JUMPDEST DUP3 DUP2 LT PUSH2 0x1454 JUMPI DUP6 DUP6 SUB DUP7 RETURN JUMPDEST DUP4 MLOAD DUP1 MLOAD DUP7 MSTORE DUP1 DUP4 ADD MLOAD DUP7 DUP5 ADD MSTORE DUP8 DUP2 ADD MLOAD ISZERO ISZERO DUP9 DUP8 ADD MSTORE PUSH1 0x60 DUP1 DUP3 ADD MLOAD SWAP1 DUP8 ADD MSTORE PUSH1 0x80 SWAP1 DUP2 ADD MLOAD PUSH1 0x1 PUSH1 0x1 PUSH1 0xA0 SHL SUB AND SWAP1 DUP7 ADD MSTORE PUSH1 0xA0 SWAP1 SWAP5 ADD SWAP4 SWAP3 DUP2 ADD SWAP3 PUSH1 0x1 ADD PUSH2 0x1447 JUMP JUMPDEST DUP5 DUP11 PUSH1 0x1 SWAP3 DUP14 DUP1 SWAP14 SWAP11 SWAP12 SWAP14 MLOAD SWAP1 PUSH2 0x14B1 DUP3 PUSH2 0x1C78 JUMP JUMPDEST DUP8 SLOAD DUP3 MSTORE DUP6 DUP9 ADD SLOAD DUP5 DUP4 ADD MSTORE PUSH1 0xFF PUSH1 0x2 DUP10 ADD SLOAD AND ISZERO ISZERO SWAP1 DUP3 ADD MSTORE PUSH1 0x3 DUP8 ADD SLOAD PUSH1 0x60 DUP3 ADD MSTORE DUP5 DUP1 PUSH1 0xA0 SHL SUB DUP7 DUP9 ADD SLOAD AND PUSH1 0x80 DUP3 ADD MSTORE DUP2 MSTORE ADD SWAP4 ADD SWAP4 ADD SWAP3 SWAP2 SWAP9 SWAP7 SWAP6 SWAP9 PUSH2 0x1426 JUMP JUMPDEST PUSH4 0x4E487B71 PUSH1 0xE0 SHL DUP6 MSTORE PUSH1 0x41 DUP4 MSTORE PUSH1 0x24 DUP6 REVERT JUMPDEST POP SWAP1 CALLVALUE PUSH2 0x913 JUMPI PUSH2 0x151A CALLDATASIZE PUSH2 0x1B5A JUMP JUMPDEST SWAP4 SWAP1 SWAP3 PUSH2 0x1525 PUSH2 0x2461 JUMP JUMPDEST PUSH2 0x1530 DUP6 DUP6 DUP6 PUSH2 0x1EEE JUMP JUMPDEST ISZERO PUSH2 0x15D8 JUMPI PUSH1 0x1 PUSH1 0x1 PUSH1 0xA0 SHL SUB DUP4 AND DUP2 MSTORE PUSH1 0x1 PUSH1 0x20 DUP2 DUP2 MSTORE DUP8 DUP4 KECCAK256 CALLER DUP5 MSTORE SWAP1 MSTORE SWAP1 DUP7 SWAP1 KECCAK256 SLOAD SWAP2 SWAP1 DUP3 ADD PUSH2 0x156C JUMPI JUMPDEST PUSH1 0x20 DUP7 PUSH2 0x8DF DUP8 DUP8 DUP8 PUSH2 0x21B1 JUMP JUMPDEST DUP5 DUP3 LT PUSH2 0x1595 JUMPI POP SWAP2 DUP4 SWAP2 PUSH2 0x158A PUSH1 0x20 SWAP7 SWAP6 PUSH2 0x8DF SWAP6 SUB CALLER DUP4 PUSH2 0x1D0B JUMP JUMPDEST SWAP2 SWAP4 SWAP5 DUP2 SWAP4 POP PUSH2 0x155E JUMP JUMPDEST PUSH1 0x64 SWAP1 PUSH1 0x20 DUP8 MLOAD SWAP2 PUSH3 0x461BCD PUSH1 0xE5 SHL DUP4 MSTORE DUP3 ADD MSTORE PUSH1 0x1D PUSH1 0x24 DUP3 ADD MSTORE PUSH32 0x45524332303A20696E73756666696369656E7420616C6C6F77616E6365000000 PUSH1 0x44 DUP3 ADD MSTORE REVERT JUMPDEST POP DUP5 MLOAD PUSH4 0x79F913BB PUSH1 0xE1 SHL DUP2 MSTORE PUSH1 0x1 PUSH1 0x1 PUSH1 0xA0 SHL SUB SWAP3 DUP4 AND SWAP2 DUP2 ADD SWAP2 DUP3 MSTORE SWAP2 DUP4 AND PUSH1 0x20 DUP3 ADD MSTORE DUP2 SWAP1 PUSH1 0x40 ADD SUB SWAP1 REVERT JUMPDEST DUP3 DUP5 CALLVALUE PUSH2 0x28D JUMPI PUSH1 0x20 CALLDATASIZE PUSH1 0x3 NOT ADD SLT PUSH2 0x28D JUMPI PUSH32 0x94609236B230C5F26E301665CAA39A97283D2866B100454916A3FF95D2CB0A18 PUSH1 0x20 PUSH2 0x1645 PUSH2 0x1B3F JUMP JUMPDEST PUSH2 0x164D PUSH2 0x1C20 JUMP JUMPDEST PUSH1 0x1 PUSH1 0x1 PUSH1 0xA0 SHL SUB AND DUP1 DUP6 MSTORE PUSH1 0xD DUP3 MSTORE DUP4 DUP6 KECCAK256 DUP1 SLOAD PUSH1 0xFF NOT AND SWAP1 SSTORE SWAP3 MLOAD TIMESTAMP DUP2 MSTORE LOG2 DUP1 RETURN JUMPDEST DUP3 DUP5 CALLVALUE PUSH2 0x28D JUMPI DUP2 PUSH1 0x3 NOT CALLDATASIZE ADD SLT PUSH2 0x28D JUMPI PUSH1 0x20 SWAP1 PUSH1 0x2 SLOAD SWAP1 MLOAD SWAP1 DUP2 MSTORE RETURN JUMPDEST DUP3 DUP5 CALLVALUE PUSH2 0x28D JUMPI DUP2 PUSH1 0x3 NOT CALLDATASIZE ADD SLT PUSH2 0x28D JUMPI PUSH1 0x7 SLOAD SWAP1 MLOAD PUSH1 0x8 SWAP2 SWAP1 SWAP2 SHR PUSH1 0x1 PUSH1 0x1 PUSH1 0xA0 SHL SUB AND DUP2 MSTORE PUSH1 0x20 SWAP1 RETURN JUMPDEST POP CALLVALUE PUSH2 0x28D JUMPI PUSH2 0x16CC CALLDATASIZE PUSH2 0x1B5A JUMP JUMPDEST SWAP3 SWAP2 PUSH2 0x16D6 PUSH2 0x1C20 JUMP JUMPDEST PUSH1 0x1 PUSH1 0x1 PUSH1 0xA0 SHL SUB AND SWAP2 ADDRESS DUP4 EQ PUSH2 0x1771 JUMPI DUP6 MLOAD PUSH4 0xA9059CBB PUSH1 0xE0 SHL DUP2 MSTORE PUSH1 0x1 PUSH1 0x1 PUSH1 0xA0 SHL SUB SWAP1 SWAP3 AND SWAP1 DUP3 ADD SWAP1 DUP2 MSTORE PUSH1 0x20 DUP2 DUP2 ADD SWAP5 SWAP1 SWAP5 MSTORE SWAP1 SWAP3 DUP6 SWAP3 SWAP1 SWAP2 DUP5 SWAP2 SWAP1 DUP3 SWAP1 DUP8 SWAP1 DUP3 SWAP1 PUSH1 0x40 ADD SUB SWAP3 GAS CALL SWAP1 DUP2 ISZERO PUSH2 0x1768 JUMPI POP PUSH2 0x1733 JUMPI POP DUP1 RETURN JUMPDEST PUSH1 0x20 DUP2 RETURNDATASIZE DUP3 GT PUSH2 0x1760 JUMPI JUMPDEST DUP2 PUSH2 0x174B PUSH1 0x20 SWAP4 DUP4 PUSH2 0x1CC6 JUMP JUMPDEST DUP2 ADD SUB SLT PUSH2 0x28D JUMPI PUSH2 0x175C SWAP1 PUSH2 0x1E4D JUMP JUMPDEST POP DUP1 RETURN JUMPDEST RETURNDATASIZE SWAP2 POP PUSH2 0x173E JUMP JUMPDEST MLOAD RETURNDATASIZE DUP5 DUP3 RETURNDATACOPY RETURNDATASIZE SWAP1 REVERT JUMPDEST PUSH1 0x64 SWAP1 PUSH1 0x20 DUP8 MLOAD SWAP2 PUSH3 0x461BCD PUSH1 0xE5 SHL DUP4 MSTORE DUP3 ADD MSTORE PUSH1 0x1B PUSH1 0x24 DUP3 ADD MSTORE PUSH32 0x43616E6E6F74207265636F766572206E617469766520746F6B656E0000000000 PUSH1 0x44 DUP3 ADD MSTORE REVERT JUMPDEST DUP3 DUP5 CALLVALUE PUSH2 0x28D JUMPI DUP1 PUSH1 0x3 NOT CALLDATASIZE ADD SLT PUSH2 0x28D JUMPI PUSH1 0x20 SWAP1 PUSH2 0x8DF PUSH2 0x17D4 PUSH2 0x1B3F JUMP JUMPDEST PUSH1 0x24 CALLDATALOAD SWAP1 CALLER PUSH2 0x1D0B JUMP JUMPDEST POP SWAP2 CALLVALUE PUSH2 0x28D JUMPI PUSH1 0x80 CALLDATASIZE PUSH1 0x3 NOT ADD SLT PUSH2 0x28D JUMPI PUSH1 0x24 SWAP3 DUP1 CALLDATALOAD SWAP2 SWAP1 DUP5 CALLDATALOAD SWAP1 PUSH1 0x44 CALLDATALOAD SWAP1 PUSH1 0x1 PUSH1 0x1 PUSH1 0xA0 SHL SUB PUSH1 0x64 CALLDATALOAD DUP2 DUP2 AND SWAP3 SWAP1 DUP4 SWAP1 SUB PUSH2 0x19FA JUMPI PUSH2 0x181E PUSH2 0x1C20 JUMP JUMPDEST PUSH2 0x1826 PUSH2 0x20B8 JUMP JUMPDEST DUP3 ISZERO PUSH2 0x19C2 JUMPI DUP5 ISZERO PUSH2 0x1980 JUMPI DUP4 ISZERO PUSH2 0x1945 JUMPI DUP6 MLOAD SWAP9 PUSH2 0x1844 DUP11 PUSH2 0x1C78 JUMP JUMPDEST DUP6 DUP11 MSTORE PUSH1 0x20 DUP11 ADD SWAP10 DUP6 DUP12 MSTORE DUP8 DUP2 ADD SWAP11 DUP11 DUP13 MSTORE PUSH1 0x60 DUP3 ADD SWAP2 TIMESTAMP DUP4 MSTORE PUSH1 0x80 DUP2 ADD SWAP7 DUP8 MSTORE DUP11 DUP13 MSTORE PUSH1 0x9 PUSH1 0x20 MSTORE DUP10 DUP13 KECCAK256 DUP1 SLOAD SWAP1 PUSH9 0x10000000000000000 DUP3 LT ISZERO PUSH2 0x1933 JUMPI SWAP1 PUSH2 0x1894 SWAP2 PUSH1 0x1 DUP3 ADD DUP2 SSTORE PUSH2 0x1B8F JUMP JUMPDEST SWAP5 SWAP1 SWAP5 PUSH2 0x1923 JUMPI POP SWAP12 PUSH2 0x18E6 SWAP2 PUSH32 0x5ECD00B8EA6BC6AAE67AC5E2A4D33823434E76868E912A4B0F88B8C5CCA63F6C SWAP12 SWAP13 SWAP14 MLOAD DUP6 SSTORE MLOAD PUSH1 0x1 DUP6 ADD SSTORE MLOAD ISZERO ISZERO PUSH1 0x2 DUP5 ADD SWAP1 PUSH1 0xFF DUP1 NOT DUP4 SLOAD AND SWAP2 ISZERO ISZERO AND OR SWAP1 SSTORE JUMP JUMPDEST MLOAD PUSH1 0x3 DUP3 ADD SSTORE ADD SWAP2 MLOAD AND PUSH12 0xFFFFFFFFFFFFFFFFFFFFFFFF PUSH1 0xA0 SHL DUP3 SLOAD AND OR SWAP1 SSTORE PUSH2 0x1910 DUP3 ADDRESS PUSH2 0x210E JUMP JUMPDEST DUP3 MLOAD SWAP2 DUP3 MSTORE PUSH1 0x20 DUP3 ADD MSTORE LOG2 PUSH1 0x1 PUSH1 0x6 SSTORE DUP1 RETURN JUMPDEST PUSH4 0x4E487B71 PUSH1 0xE0 SHL DUP14 MSTORE DUP13 DUP7 MSTORE DUP13 REVERT JUMPDEST PUSH4 0x4E487B71 PUSH1 0xE0 SHL DUP15 MSTORE PUSH1 0x41 DUP8 MSTORE DUP6 DUP15 REVERT JUMPDEST PUSH1 0x64 SWAP1 PUSH1 0x16 DUP11 PUSH1 0x20 DUP10 MLOAD SWAP4 PUSH3 0x461BCD PUSH1 0xE5 SHL DUP6 MSTORE DUP5 ADD MSTORE DUP3 ADD MSTORE PUSH22 0x92DCECC2D8D2C840DAD2D8CAE6E8DEDCCA40D0C2E6D PUSH1 0x53 SHL PUSH1 0x44 DUP3 ADD MSTORE REVERT JUMPDEST PUSH1 0x64 SWAP1 PUSH1 0x17 DUP11 PUSH1 0x20 DUP10 MLOAD SWAP4 PUSH3 0x461BCD PUSH1 0xE5 SHL DUP6 MSTORE DUP5 ADD MSTORE DUP3 ADD MSTORE PUSH32 0x416D6F756E74206D75737420626520706F736974697665000000000000000000 PUSH1 0x44 DUP3 ADD MSTORE REVERT JUMPDEST PUSH1 0x64 SWAP1 PUSH1 0x13 DUP11 PUSH1 0x20 DUP10 MLOAD SWAP4 PUSH3 0x461BCD PUSH1 0xE5 SHL DUP6 MSTORE DUP5 ADD MSTORE DUP3 ADD MSTORE PUSH19 0x496E76616C69642062656E6566696369617279 PUSH1 0x68 SHL PUSH1 0x44 DUP3 ADD MSTORE REVERT JUMPDEST DUP8 DUP1 REVERT JUMPDEST SWAP2 DUP5 SWAP2 POP CALLVALUE PUSH2 0x61F JUMPI DUP4 PUSH1 0x3 NOT CALLDATASIZE ADD SLT PUSH2 0x61F JUMPI PUSH1 0x3 SLOAD PUSH1 0x1 DUP2 DUP2 SHR SWAP2 DUP7 SWAP1 DUP3 DUP2 AND DUP1 ISZERO PUSH2 0x1AE6 JUMPI JUMPDEST PUSH1 0x20 SWAP6 DUP7 DUP7 LT DUP3 EQ PUSH2 0x1AD3 JUMPI POP DUP5 DUP9 MSTORE SWAP1 DUP2 ISZERO PUSH2 0x1AB1 JUMPI POP PUSH1 0x1 EQ PUSH2 0x1A58 JUMPI JUMPDEST PUSH2 0xAF7 DUP7 DUP7 PUSH2 0xAED DUP3 DUP12 SUB DUP4 PUSH2 0x1CC6 JUMP JUMPDEST SWAP3 SWAP6 POP PUSH1 0x3 DUP4 MSTORE PUSH32 0xC2575A0E9E593C00F959F8C92F12DB2869C3395A3B0502D05E2516446F71F85B JUMPDEST DUP3 DUP5 LT PUSH2 0x1A9E JUMPI POP POP POP DUP3 PUSH2 0xAF7 SWAP5 PUSH2 0xAED SWAP3 DUP3 ADD ADD SWAP5 DUP7 PUSH2 0x1A47 JUMP JUMPDEST DUP1 SLOAD DUP7 DUP6 ADD DUP9 ADD MSTORE SWAP3 DUP7 ADD SWAP3 DUP2 ADD PUSH2 0x1A81 JUMP JUMPDEST PUSH1 0xFF NOT AND DUP8 DUP7 ADD MSTORE POP POP POP ISZERO ISZERO PUSH1 0x5 SHL DUP4 ADD ADD SWAP3 POP PUSH2 0xAED DUP3 PUSH2 0xAF7 DUP7 PUSH2 0x1A47 JUMP JUMPDEST PUSH4 0x4E487B71 PUSH1 0xE0 SHL DUP5 MSTORE PUSH1 0x22 SWAP1 MSTORE PUSH1 0x24 DUP4 REVERT JUMPDEST SWAP4 PUSH1 0x7F AND SWAP4 PUSH2 0x1A27 JUMP JUMPDEST PUSH1 0x0 JUMPDEST DUP4 DUP2 LT PUSH2 0x1B03 JUMPI POP POP PUSH1 0x0 SWAP2 ADD MSTORE JUMP JUMPDEST DUP2 DUP2 ADD MLOAD DUP4 DUP3 ADD MSTORE PUSH1 0x20 ADD PUSH2 0x1AF3 JUMP JUMPDEST PUSH1 0x40 SWAP2 PUSH1 0x20 DUP3 MSTORE PUSH2 0x1B33 DUP2 MLOAD DUP1 SWAP3 DUP2 PUSH1 0x20 DUP7 ADD MSTORE PUSH1 0x20 DUP7 DUP7 ADD SWAP2 ADD PUSH2 0x1AF0 JUMP JUMPDEST PUSH1 0x1F ADD PUSH1 0x1F NOT AND ADD ADD SWAP1 JUMP JUMPDEST PUSH1 0x4 CALLDATALOAD SWAP1 PUSH1 0x1 PUSH1 0x1 PUSH1 0xA0 SHL SUB DUP3 AND DUP3 SUB PUSH2 0x1B55 JUMPI JUMP JUMPDEST PUSH1 0x0 DUP1 REVERT JUMPDEST PUSH1 0x60 SWAP1 PUSH1 0x3 NOT ADD SLT PUSH2 0x1B55 JUMPI PUSH1 0x1 PUSH1 0x1 PUSH1 0xA0 SHL SUB SWAP1 PUSH1 0x4 CALLDATALOAD DUP3 DUP2 AND DUP2 SUB PUSH2 0x1B55 JUMPI SWAP2 PUSH1 0x24 CALLDATALOAD SWAP1 DUP2 AND DUP2 SUB PUSH2 0x1B55 JUMPI SWAP1 PUSH1 0x44 CALLDATALOAD SWAP1 JUMP JUMPDEST DUP1 SLOAD DUP3 LT ISZERO PUSH2 0x1BAB JUMPI PUSH1 0x0 MSTORE PUSH1 0x5 PUSH1 0x20 PUSH1 0x0 KECCAK256 SWAP2 MUL ADD SWAP1 PUSH1 0x0 SWAP1 JUMP JUMPDEST PUSH4 0x4E487B71 PUSH1 0xE0 SHL PUSH1 0x0 MSTORE PUSH1 0x32 PUSH1 0x4 MSTORE PUSH1 0x24 PUSH1 0x0 REVERT JUMPDEST SWAP2 DUP2 PUSH1 0x1F DUP5 ADD SLT ISZERO PUSH2 0x1B55 JUMPI DUP3 CALLDATALOAD SWAP2 PUSH8 0xFFFFFFFFFFFFFFFF DUP4 GT PUSH2 0x1B55 JUMPI PUSH1 0x20 DUP4 DUP2 DUP7 ADD SWAP6 ADD ADD GT PUSH2 0x1B55 JUMPI JUMP JUMPDEST SWAP2 DUP2 PUSH1 0x1F DUP5 ADD SLT ISZERO PUSH2 0x1B55 JUMPI DUP3 CALLDATALOAD SWAP2 PUSH8 0xFFFFFFFFFFFFFFFF DUP4 GT PUSH2 0x1B55 JUMPI PUSH1 0x20 DUP1 DUP6 ADD SWAP5 DUP5 PUSH1 0x5 SHL ADD ADD GT PUSH2 0x1B55 JUMPI JUMP JUMPDEST PUSH1 0x5 SLOAD PUSH1 0x1 PUSH1 0x1 PUSH1 0xA0 SHL SUB AND CALLER SUB PUSH2 0x1C34 JUMPI JUMP JUMPDEST PUSH1 0x64 PUSH1 0x40 MLOAD PUSH3 0x461BCD PUSH1 0xE5 SHL DUP2 MSTORE PUSH1 0x20 PUSH1 0x4 DUP3 ADD MSTORE PUSH1 0x20 PUSH1 0x24 DUP3 ADD MSTORE PUSH32 0x4F776E61626C653A2063616C6C6572206973206E6F7420746865206F776E6572 PUSH1 0x44 DUP3 ADD MSTORE REVERT JUMPDEST PUSH1 0xA0 DUP2 ADD SWAP1 DUP2 LT PUSH8 0xFFFFFFFFFFFFFFFF DUP3 GT OR PUSH2 0x1C94 JUMPI PUSH1 0x40 MSTORE JUMP JUMPDEST PUSH4 0x4E487B71 PUSH1 0xE0 SHL PUSH1 0x0 MSTORE PUSH1 0x41 PUSH1 0x4 MSTORE PUSH1 0x24 PUSH1 0x0 REVERT JUMPDEST PUSH1 0x60 DUP2 ADD SWAP1 DUP2 LT PUSH8 0xFFFFFFFFFFFFFFFF DUP3 GT OR PUSH2 0x1C94 JUMPI PUSH1 0x40 MSTORE JUMP JUMPDEST SWAP1 PUSH1 0x1F DUP1 NOT SWAP2 ADD AND DUP2 ADD SWAP1 DUP2 LT PUSH8 0xFFFFFFFFFFFFFFFF DUP3 GT OR PUSH2 0x1C94 JUMPI PUSH1 0x40 MSTORE JUMP JUMPDEST SWAP2 SWAP1 DUP3 ADD DUP1 SWAP3 GT PUSH2 0x1CF5 JUMPI JUMP JUMPDEST PUSH4 0x4E487B71 PUSH1 0xE0 SHL PUSH1 0x0 MSTORE PUSH1 0x11 PUSH1 0x4 MSTORE PUSH1 0x24 PUSH1 0x0 REVERT JUMPDEST PUSH1 0x1 PUSH1 0x1 PUSH1 0xA0 SHL SUB SWAP1 DUP2 AND SWAP2 DUP3 ISZERO PUSH2 0x1DBC JUMPI AND SWAP2 DUP3 ISZERO PUSH2 0x1D6C JUMPI PUSH1 0x20 PUSH32 0x8C5BE1E5EBEC7D5BD14F71427D1E84F3DD0314C0F7B2291E5B200AC8C7C3B925 SWAP2 DUP4 PUSH1 0x0 MSTORE PUSH1 0x1 DUP3 MSTORE PUSH1 0x40 PUSH1 0x0 KECCAK256 DUP6 PUSH1 0x0 MSTORE DUP3 MSTORE DUP1 PUSH1 0x40 PUSH1 0x0 KECCAK256 SSTORE PUSH1 0x40 MLOAD SWAP1 DUP2 MSTORE LOG3 JUMP JUMPDEST PUSH1 0x40 MLOAD PUSH3 0x461BCD PUSH1 0xE5 SHL DUP2 MSTORE PUSH1 0x20 PUSH1 0x4 DUP3 ADD MSTORE PUSH1 0x22 PUSH1 0x24 DUP3 ADD MSTORE PUSH32 0x45524332303A20617070726F766520746F20746865207A65726F206164647265 PUSH1 0x44 DUP3 ADD MSTORE PUSH2 0x7373 PUSH1 0xF0 SHL PUSH1 0x64 DUP3 ADD MSTORE PUSH1 0x84 SWAP1 REVERT JUMPDEST PUSH1 0x40 MLOAD PUSH3 0x461BCD PUSH1 0xE5 SHL DUP2 MSTORE PUSH1 0x20 PUSH1 0x4 DUP3 ADD MSTORE PUSH1 0x24 DUP1 DUP3 ADD MSTORE PUSH32 0x45524332303A20617070726F76652066726F6D20746865207A65726F20616464 PUSH1 0x44 DUP3 ADD MSTORE PUSH4 0x72657373 PUSH1 0xE0 SHL PUSH1 0x64 DUP3 ADD MSTORE PUSH1 0x84 SWAP1 REVERT JUMPDEST PUSH1 0x0 NOT DUP2 EQ PUSH2 0x1CF5 JUMPI PUSH1 0x1 ADD SWAP1 JUMP JUMPDEST SWAP2 SWAP1 DUP2 LT ISZERO PUSH2 0x1BAB JUMPI PUSH1 0x5 SHL ADD SWAP1 JUMP JUMPDEST CALLDATALOAD DUP1 ISZERO ISZERO DUP2 SUB PUSH2 0x1B55 JUMPI SWAP1 JUMP JUMPDEST CALLDATALOAD PUSH1 0x1 PUSH1 0x1 PUSH1 0xA0 SHL SUB DUP2 AND DUP2 SUB PUSH2 0x1B55 JUMPI SWAP1 JUMP JUMPDEST MLOAD SWAP1 DUP2 ISZERO ISZERO DUP3 SUB PUSH2 0x1B55 JUMPI JUMP JUMPDEST PUSH1 0x7 SLOAD PUSH1 0x8 SHR PUSH1 0x1 PUSH1 0x1 PUSH1 0xA0 SHL SUB SWAP1 DUP2 AND SWAP2 SWAP1 DUP3 ISZERO PUSH2 0x1EE6 JUMPI PUSH1 0x24 PUSH1 0x20 SWAP3 PUSH1 0x40 MLOAD SWAP5 DUP6 SWAP4 DUP5 SWAP3 PUSH4 0xB9209E33 PUSH1 0xE0 SHL DUP5 MSTORE AND PUSH1 0x4 DUP4 ADD MSTORE GAS STATICCALL SWAP1 DUP2 ISZERO PUSH2 0x1EDA JUMPI PUSH1 0x0 SWAP2 PUSH2 0x1EA4 JUMPI POP SWAP1 JUMP JUMPDEST SWAP1 PUSH1 0x20 DUP3 RETURNDATASIZE DUP3 GT PUSH2 0x1ED2 JUMPI JUMPDEST DUP2 PUSH2 0x1EBD PUSH1 0x20 SWAP4 DUP4 PUSH2 0x1CC6 JUMP JUMPDEST DUP2 ADD SUB SLT PUSH2 0x913 JUMPI POP PUSH2 0x1ECF SWAP1 PUSH2 0x1E4D JUMP JUMPDEST SWAP1 JUMP JUMPDEST RETURNDATASIZE SWAP2 POP PUSH2 0x1EB0 JUMP JUMPDEST PUSH1 0x40 MLOAD RETURNDATASIZE PUSH1 0x0 DUP3 RETURNDATACOPY RETURNDATASIZE SWAP1 REVERT JUMPDEST POP POP POP PUSH1 0x1 SWAP1 JUMP JUMPDEST SWAP2 SWAP1 PUSH2 0x1EF9 DUP4 PUSH2 0x1E5A JUMP JUMPDEST ISZERO PUSH2 0x20B0 JUMPI PUSH2 0x1F07 DUP2 PUSH2 0x1E5A JUMP JUMPDEST ISZERO PUSH2 0x20B0 JUMPI PUSH1 0x1 PUSH1 0x1 PUSH1 0xA0 SHL SUB SWAP3 DUP4 AND SWAP1 DUP4 SWAP1 DUP3 ISZERO PUSH2 0x2087 JUMPI JUMPDEST AND SWAP2 PUSH1 0x0 SWAP2 DUP4 DUP4 MSTORE PUSH1 0x20 SWAP4 DUP4 DUP6 MSTORE PUSH1 0x40 SWAP6 PUSH2 0x1F3F DUP5 DUP9 DUP8 KECCAK256 SLOAD PUSH2 0x1CE8 JUMP JUMPDEST PUSH1 0xE SLOAD LT PUSH2 0x2072 JUMPI DUP2 DUP6 MSTORE DUP5 DUP7 MSTORE DUP7 DUP6 KECCAK256 SLOAD ISZERO DUP1 PUSH2 0x207C JUMPI JUMPDEST PUSH2 0x2072 JUMPI PUSH1 0xD DUP7 MSTORE PUSH1 0xFF DUP8 DUP7 KECCAK256 SLOAD AND PUSH2 0x2072 JUMPI PUSH1 0x8 SLOAD AND DUP1 PUSH2 0x1F80 JUMPI POP POP POP POP POP POP POP PUSH1 0x1 SWAP1 JUMP JUMPDEST DUP5 SWAP3 PUSH1 0x84 SWAP2 DUP9 MLOAD SWAP6 DUP7 SWAP5 DUP6 SWAP4 PUSH4 0xDBBC841F PUSH1 0xE0 SHL DUP6 MSTORE PUSH1 0x4 DUP6 ADD MSTORE PUSH1 0x24 DUP5 ADD MSTORE PUSH1 0x44 DUP4 ADD MSTORE ADDRESS PUSH1 0x64 DUP4 ADD MSTORE GAS STATICCALL SWAP4 DUP5 ISZERO PUSH2 0x2067 JUMPI DUP3 SWAP5 PUSH2 0x1FC2 JUMPI JUMPDEST POP POP POP POP SWAP1 JUMP JUMPDEST SWAP1 SWAP2 SWAP3 SWAP5 SWAP4 POP RETURNDATASIZE DUP1 DUP5 DUP5 RETURNDATACOPY PUSH2 0x1FD7 DUP2 DUP5 PUSH2 0x1CC6 JUMP JUMPDEST DUP3 ADD SWAP5 DUP2 DUP4 DUP8 SUB SLT PUSH2 0x61F JUMPI PUSH2 0x1FEC DUP4 PUSH2 0x1E4D JUMP JUMPDEST SWAP4 DUP2 DUP5 ADD MLOAD PUSH8 0xFFFFFFFFFFFFFFFF SWAP5 DUP6 DUP3 GT PUSH2 0x343 JUMPI ADD SWAP3 DUP8 PUSH1 0x1F DUP6 ADD SLT ISZERO PUSH2 0x28D JUMPI DUP4 MLOAD SWAP5 DUP6 GT PUSH2 0x2053 JUMPI MLOAD SWAP7 PUSH2 0x202D PUSH1 0x1F DUP7 ADD PUSH1 0x1F NOT AND DUP5 ADD DUP10 PUSH2 0x1CC6 JUMP JUMPDEST DUP5 DUP9 MSTORE DUP3 DUP6 DUP6 ADD ADD GT PUSH2 0x913 JUMPI POP DUP1 PUSH2 0x204A SWAP5 SWAP6 SWAP7 ADD SWAP2 ADD PUSH2 0x1AF0 JUMP JUMPDEST CODESIZE DUP1 DUP1 DUP1 PUSH2 0x1FBB JUMP JUMPDEST PUSH4 0x4E487B71 PUSH1 0xE0 SHL DUP3 MSTORE PUSH1 0x41 PUSH1 0x4 MSTORE PUSH1 0x24 DUP3 REVERT JUMPDEST MLOAD SWAP2 RETURNDATASIZE SWAP2 POP DUP3 RETURNDATACOPY RETURNDATASIZE SWAP1 REVERT JUMPDEST POP POP POP POP SWAP2 POP POP SWAP1 JUMP JUMPDEST POP PUSH1 0xF SLOAD DUP5 LT PUSH2 0x1F58 JUMP JUMPDEST SWAP1 DUP2 AND PUSH1 0x0 MSTORE PUSH1 0xB PUSH1 0x20 MSTORE PUSH1 0xFF PUSH1 0x40 PUSH1 0x0 KECCAK256 SLOAD AND ISZERO PUSH2 0x20A7 JUMPI DUP4 SWAP1 PUSH2 0x1F21 JUMP JUMPDEST POP POP POP POP PUSH1 0x0 SWAP1 JUMP JUMPDEST POP POP POP PUSH1 0x0 SWAP1 JUMP JUMPDEST PUSH1 0x2 PUSH1 0x6 SLOAD EQ PUSH2 0x20C9 JUMPI PUSH1 0x2 PUSH1 0x6 SSTORE JUMP JUMPDEST PUSH1 0x40 MLOAD PUSH3 0x461BCD PUSH1 0xE5 SHL DUP2 MSTORE PUSH1 0x20 PUSH1 0x4 DUP3 ADD MSTORE PUSH1 0x1F PUSH1 0x24 DUP3 ADD MSTORE PUSH32 0x5265656E7472616E637947756172643A207265656E7472616E742063616C6C00 PUSH1 0x44 DUP3 ADD MSTORE PUSH1 0x64 SWAP1 REVERT JUMPDEST PUSH1 0x1 PUSH1 0x1 PUSH1 0xA0 SHL SUB AND SWAP1 DUP2 ISZERO PUSH2 0x216C JUMPI PUSH32 0xDDF252AD1BE2C89B69C2B068FC378DAA952BA7F163C4A11628F55A4DF523B3EF PUSH1 0x20 DUP3 PUSH2 0x2150 PUSH1 0x0 SWAP5 PUSH1 0x2 SLOAD PUSH2 0x1CE8 JUMP JUMPDEST PUSH1 0x2 SSTORE DUP5 DUP5 MSTORE DUP4 DUP3 MSTORE PUSH1 0x40 DUP5 KECCAK256 DUP2 DUP2 SLOAD ADD SWAP1 SSTORE PUSH1 0x40 MLOAD SWAP1 DUP2 MSTORE LOG3 JUMP JUMPDEST PUSH1 0x40 MLOAD PUSH3 0x461BCD PUSH1 0xE5 SHL DUP2 MSTORE PUSH1 0x20 PUSH1 0x4 DUP3 ADD MSTORE PUSH1 0x1F PUSH1 0x24 DUP3 ADD MSTORE PUSH32 0x45524332303A206D696E7420746F20746865207A65726F206164647265737300 PUSH1 0x44 DUP3 ADD MSTORE PUSH1 0x64 SWAP1 REVERT JUMPDEST PUSH1 0x1 PUSH1 0x1 PUSH1 0xA0 SHL SUB SWAP1 DUP2 AND SWAP2 DUP3 ISZERO PUSH2 0x22CC JUMPI AND SWAP2 DUP3 ISZERO PUSH2 0x227B JUMPI PUSH1 0x0 DUP3 DUP2 MSTORE DUP1 PUSH1 0x20 MSTORE PUSH1 0x40 DUP2 KECCAK256 SLOAD SWAP2 DUP1 DUP4 LT PUSH2 0x2227 JUMPI PUSH1 0x40 DUP3 DUP3 PUSH32 0xDDF252AD1BE2C89B69C2B068FC378DAA952BA7F163C4A11628F55A4DF523B3EF SWAP6 DUP8 PUSH1 0x20 SWAP7 MSTORE DUP3 DUP7 MSTORE SUB DUP3 DUP3 KECCAK256 SSTORE DUP7 DUP2 MSTORE KECCAK256 DUP2 DUP2 SLOAD ADD SWAP1 SSTORE PUSH1 0x40 MLOAD SWAP1 DUP2 MSTORE LOG3 JUMP JUMPDEST PUSH1 0x40 MLOAD PUSH3 0x461BCD PUSH1 0xE5 SHL DUP2 MSTORE PUSH1 0x20 PUSH1 0x4 DUP3 ADD MSTORE PUSH1 0x26 PUSH1 0x24 DUP3 ADD MSTORE PUSH32 0x45524332303A207472616E7366657220616D6F756E7420657863656564732062 PUSH1 0x44 DUP3 ADD MSTORE PUSH6 0x616C616E6365 PUSH1 0xD0 SHL PUSH1 0x64 DUP3 ADD MSTORE PUSH1 0x84 SWAP1 REVERT JUMPDEST PUSH1 0x40 MLOAD PUSH3 0x461BCD PUSH1 0xE5 SHL DUP2 MSTORE PUSH1 0x20 PUSH1 0x4 DUP3 ADD MSTORE PUSH1 0x23 PUSH1 0x24 DUP3 ADD MSTORE PUSH32 0x45524332303A207472616E7366657220746F20746865207A65726F2061646472 PUSH1 0x44 DUP3 ADD MSTORE PUSH3 0x657373 PUSH1 0xE8 SHL PUSH1 0x64 DUP3 ADD MSTORE PUSH1 0x84 SWAP1 REVERT JUMPDEST PUSH1 0x40 MLOAD PUSH3 0x461BCD PUSH1 0xE5 SHL DUP2 MSTORE PUSH1 0x20 PUSH1 0x4 DUP3 ADD MSTORE PUSH1 0x25 PUSH1 0x24 DUP3 ADD MSTORE PUSH32 0x45524332303A207472616E736665722066726F6D20746865207A65726F206164 PUSH1 0x44 DUP3 ADD MSTORE PUSH5 0x6472657373 PUSH1 0xD8 SHL PUSH1 0x64 DUP3 ADD MSTORE PUSH1 0x84 SWAP1 REVERT JUMPDEST SWAP1 SWAP2 PUSH1 0x41 SUB PUSH2 0x245A JUMPI DUP1 ISZERO PUSH2 0x245A JUMPI PUSH1 0xC SLOAD PUSH1 0x1 PUSH1 0x1 PUSH1 0xA0 SHL SUB SWAP1 DUP2 AND SWAP3 SWAP1 SWAP2 SWAP1 DUP4 ISZERO PUSH2 0x2451 JUMPI PUSH1 0x40 SWAP2 DUP3 MLOAD PUSH1 0x20 DUP2 ADD SWAP2 DUP3 MSTORE CHAINID DUP5 DUP3 ADD MSTORE DUP4 DUP2 MSTORE PUSH2 0x2363 DUP2 PUSH2 0x1CAA JUMP JUMPDEST MLOAD SWAP1 KECCAK256 DUP3 MLOAD PUSH1 0x20 DUP2 ADD SWAP2 PUSH32 0x19457468657265756D205369676E6564204D6573736167653A0A333200000000 DUP4 MSTORE PUSH1 0x3C DUP3 ADD MSTORE PUSH1 0x3C DUP2 MSTORE PUSH2 0x23A2 DUP2 PUSH2 0x1CAA JUMP JUMPDEST MLOAD SWAP1 KECCAK256 SWAP1 DUP3 DUP2 ADD CALLDATALOAD PUSH1 0x0 BYTE PUSH1 0x1B DUP2 LT PUSH2 0x242F JUMPI JUMPDEST PUSH1 0xFF AND SWAP1 PUSH1 0x1B DUP3 EQ ISZERO DUP1 PUSH2 0x2424 JUMPI JUMPDEST PUSH2 0x2419 JUMPI PUSH1 0x20 SWAP3 DUP4 PUSH1 0x80 SWAP3 PUSH1 0x0 SWAP5 DUP8 MLOAD SWAP4 DUP5 MSTORE DUP3 DUP5 ADD MSTORE DUP1 CALLDATALOAD DUP8 DUP5 ADD MSTORE ADD CALLDATALOAD PUSH1 0x60 DUP3 ADD MSTORE DUP3 DUP1 MSTORE PUSH1 0x1 GAS STATICCALL ISZERO PUSH2 0x240F JUMPI POP PUSH1 0x0 MLOAD AND SWAP1 DUP2 ISZERO ISZERO SWAP2 DUP3 PUSH2 0x2409 JUMPI POP POP SWAP1 JUMP JUMPDEST EQ SWAP2 SWAP1 POP JUMP JUMPDEST MLOAD RETURNDATASIZE PUSH1 0x0 DUP3 RETURNDATACOPY RETURNDATASIZE SWAP1 REVERT JUMPDEST POP POP POP POP POP POP PUSH1 0x0 SWAP1 JUMP JUMPDEST POP PUSH1 0x1C DUP3 EQ ISZERO PUSH2 0x23C5 JUMP JUMPDEST PUSH1 0x1B ADD PUSH1 0xFF DUP2 GT ISZERO PUSH2 0x23B6 JUMPI PUSH4 0x4E487B71 PUSH1 0xE0 SHL PUSH1 0x0 MSTORE PUSH1 0x11 PUSH1 0x4 MSTORE PUSH1 0x24 PUSH1 0x0 REVERT JUMPDEST POP POP POP POP PUSH1 0x1 SWAP1 JUMP JUMPDEST POP POP PUSH1 0x0 SWAP1 JUMP JUMPDEST PUSH1 0xFF PUSH1 0x7 SLOAD AND PUSH2 0x246D JUMPI JUMP JUMPDEST PUSH1 0x40 MLOAD PUSH3 0x461BCD PUSH1 0xE5 SHL DUP2 MSTORE PUSH1 0x20 PUSH1 0x4 DUP3 ADD MSTORE PUSH1 0x10 PUSH1 0x24 DUP3 ADD MSTORE PUSH16 0x14185D5CD8589B194E881C185D5CD959 PUSH1 0x82 SHL PUSH1 0x44 DUP3 ADD MSTORE PUSH1 0x64 SWAP1 REVERT INVALID LOG2 PUSH5 0x6970667358 0x22 SLT KECCAK256 0xD8 SIGNEXTEND 0x1E SWAP12 SWAP16 0x26 PUSH26 0xA9C23716F41D6C206B87AE9C97C711C7D3D57392F13448EA6164 PUSH20 0x6F6C634300081300330000000000000000000000 "},"methodIdentifiers":{"accreditedInvestors(address)":"a0eb24b5","allowance(address,address)":"dd62ed3e","approve(address,uint256)":"095ea7b3","balanceOf(address)":"70a08231","batchSetAccreditedInvestors(address[],bool[])":"d3b9e7dc","burn(uint256)":"42966c68","canTransfer(address,address,uint256)":"e46638e6","compliance()":"6290865d","decimals()":"313ce567","decreaseAllowance(address,uint256)":"a457c2d7","freezeMilestoneFunding(address,string)":"923be108","getLockedAmount(uint256)":"fcb40fd4","getMilestoneStatus(address)":"21afda2d","getStartupTranches(uint256)":"266bf935","identityRegistry()":"134e18f4","increaseAllowance(address,uint256)":"39509351","isIdentityVerified(address)":"f63ac762","lockTranche(uint256,uint256,bytes32,address)":"0936c3d3","maxHoldingPerAddress()":"ea512cbd","milestoneFrozen(address)":"94c50b71","minInvestmentAmount()":"4d298a07","mint(address,uint256)":"40c10f19","name()":"06fdde03","oracleAddress()":"a89ae4ba","owner()":"8da5cb5b","pause()":"8456cb59","paused()":"5c975abb","recoverERC20(address,address,uint256)":"1171bda9","releaseTranche(uint256,uint256,bytes)":"c692516a","renounceOwnership()":"715018a6","restoreMilestoneFunding(address)":"196513d2","setAccreditedInvestor(address,bool)":"591aa483","setCompliance(address)":"f8981789","setIdentityRegistry(address)":"cbf3f861","setMaxHolding(uint256)":"9bc7c8c0","setMinInvestment(uint256)":"ba7ed2ff","setOracleAddress(address)":"4c69c00f","startupTranches(uint256,uint256)":"72110f71","symbol()":"95d89b41","totalSupply()":"18160ddd","transfer(address,uint256)":"a9059cbb","transferFrom(address,address,uint256)":"23b872dd","transferOwnership(address)":"f2fde38b","unpause()":"3f4ba83a","verifiedMilestones(bytes32)":"2db4c598"}}}}}