{
  "_format": "hh-sol-artifact-1",
  "contractName": "AgentVault",
  "sourceName": "contracts/AgentVault.sol",
  "abi": [
    {
      "inputs": [
        {
          "internalType": "address",
          "name": "_operator",
          "type": "address"
        },
        {
          "internalType": "address",
          "name": "_oracle",
          "type": "address"
        },
        {
          "internalType": "address",
          "name": "_identityRegistry",
          "type": "address"
        },
        {
          "internalType": "address",
          "name": "_milestoneEscrow",
          "type": "address"
        },
        {
          "internalType": "uint256",
          "name": "_minCIS",
          "type": "uint256"
        },
        {
          "internalType": "uint256",
          "name": "_maxAllocationBps",
          "type": "uint256"
        }
      ],
      "stateMutability": "nonpayable",
      "type": "constructor"
    },
    {
      "anonymous": false,
      "inputs": [
        {
          "indexed": false,
          "internalType": "bool",
          "name": "active",
          "type": "bool"
        },
        {
          "indexed": false,
          "internalType": "address",
          "name": "by",
          "type": "address"
        }
      ],
      "name": "AgentToggled",
      "type": "event"
    },
    {
      "anonymous": false,
      "inputs": [
        {
          "indexed": true,
          "internalType": "address",
          "name": "user",
          "type": "address"
        },
        {
          "indexed": false,
          "internalType": "uint256",
          "name": "amount",
          "type": "uint256"
        },
        {
          "indexed": false,
          "internalType": "uint256",
          "name": "newTotal",
          "type": "uint256"
        }
      ],
      "name": "Deposited",
      "type": "event"
    },
    {
      "anonymous": false,
      "inputs": [
        {
          "indexed": true,
          "internalType": "address",
          "name": "owner",
          "type": "address"
        },
        {
          "indexed": false,
          "internalType": "uint256",
          "name": "amount",
          "type": "uint256"
        },
        {
          "indexed": false,
          "internalType": "uint256",
          "name": "blockNumber",
          "type": "uint256"
        }
      ],
      "name": "EmergencyWithdrawal",
      "type": "event"
    },
    {
      "anonymous": false,
      "inputs": [
        {
          "indexed": true,
          "internalType": "bytes32",
          "name": "investmentId",
          "type": "bytes32"
        },
        {
          "indexed": true,
          "internalType": "address",
          "name": "startup",
          "type": "address"
        },
        {
          "indexed": false,
          "internalType": "uint256",
          "name": "amount",
          "type": "uint256"
        },
        {
          "indexed": false,
          "internalType": "uint256",
          "name": "cisScore",
          "type": "uint256"
        },
        {
          "indexed": false,
          "internalType": "string",
          "name": "investmentType",
          "type": "string"
        },
        {
          "indexed": false,
          "internalType": "string",
          "name": "reason",
          "type": "string"
        }
      ],
      "name": "InvestmentExecuted",
      "type": "event"
    },
    {
      "anonymous": false,
      "inputs": [
        {
          "indexed": false,
          "internalType": "uint256",
          "name": "newMinCIS",
          "type": "uint256"
        },
        {
          "indexed": false,
          "internalType": "uint256",
          "name": "newMaxAllocationBps",
          "type": "uint256"
        }
      ],
      "name": "ParametersUpdated",
      "type": "event"
    },
    {
      "anonymous": false,
      "inputs": [
        {
          "indexed": true,
          "internalType": "address",
          "name": "startup",
          "type": "address"
        },
        {
          "indexed": false,
          "internalType": "uint256",
          "name": "amountRecovered",
          "type": "uint256"
        },
        {
          "indexed": false,
          "internalType": "uint256",
          "name": "riskScore",
          "type": "uint256"
        }
      ],
      "name": "RiskTriggeredWithdrawal",
      "type": "event"
    },
    {
      "inputs": [],
      "name": "agentActive",
      "outputs": [
        {
          "internalType": "bool",
          "name": "",
          "type": "bool"
        }
      ],
      "stateMutability": "view",
      "type": "function"
    },
    {
      "inputs": [],
      "name": "available",
      "outputs": [
        {
          "internalType": "uint256",
          "name": "",
          "type": "uint256"
        }
      ],
      "stateMutability": "view",
      "type": "function"
    },
    {
      "inputs": [],
      "name": "deposit",
      "outputs": [],
      "stateMutability": "payable",
      "type": "function"
    },
    {
      "inputs": [],
      "name": "emergencyFreezeBlock",
      "outputs": [
        {
          "internalType": "uint256",
          "name": "",
          "type": "uint256"
        }
      ],
      "stateMutability": "view",
      "type": "function"
    },
    {
      "inputs": [],
      "name": "emergencyWithdraw",
      "outputs": [],
      "stateMutability": "nonpayable",
      "type": "function"
    },
    {
      "inputs": [
        {
          "internalType": "bytes32",
          "name": "id",
          "type": "bytes32"
        }
      ],
      "name": "getInvestment",
      "outputs": [
        {
          "components": [
            {
              "internalType": "bytes32",
              "name": "investmentId",
              "type": "bytes32"
            },
            {
              "internalType": "address",
              "name": "startupWallet",
              "type": "address"
            },
            {
              "internalType": "uint256",
              "name": "amount",
              "type": "uint256"
            },
            {
              "internalType": "uint256",
              "name": "cisScore",
              "type": "uint256"
            },
            {
              "internalType": "string",
              "name": "investmentType",
              "type": "string"
            },
            {
              "internalType": "string",
              "name": "aiReason",
              "type": "string"
            },
            {
              "internalType": "uint256",
              "name": "timestamp",
              "type": "uint256"
            },
            {
              "internalType": "bool",
              "name": "withdrawn",
              "type": "bool"
            }
          ],
          "internalType": "struct AgentVault.Investment",
          "name": "",
          "type": "tuple"
        }
      ],
      "stateMutability": "view",
      "type": "function"
    },
    {
      "inputs": [],
      "name": "getInvestmentIds",
      "outputs": [
        {
          "internalType": "bytes32[]",
          "name": "",
          "type": "bytes32[]"
        }
      ],
      "stateMutability": "view",
      "type": "function"
    },
    {
      "inputs": [],
      "name": "identityRegistry",
      "outputs": [
        {
          "internalType": "address",
          "name": "",
          "type": "address"
        }
      ],
      "stateMutability": "view",
      "type": "function"
    },
    {
      "inputs": [
        {
          "internalType": "address",
          "name": "startupWallet",
          "type": "address"
        },
        {
          "internalType": "bytes32",
          "name": "startupId",
          "type": "bytes32"
        },
        {
          "internalType": "uint256",
          "name": "amount",
          "type": "uint256"
        },
        {
          "internalType": "uint256",
          "name": "cisScore",
          "type": "uint256"
        },
        {
          "internalType": "string",
          "name": "investmentType",
          "type": "string"
        },
        {
          "internalType": "string",
          "name": "aiReason",
          "type": "string"
        }
      ],
      "name": "investTranche",
      "outputs": [],
      "stateMutability": "nonpayable",
      "type": "function"
    },
    {
      "inputs": [
        {
          "internalType": "address",
          "name": "",
          "type": "address"
        }
      ],
      "name": "investedPerStartup",
      "outputs": [
        {
          "internalType": "uint256",
          "name": "",
          "type": "uint256"
        }
      ],
      "stateMutability": "view",
      "type": "function"
    },
    {
      "inputs": [],
      "name": "investmentCount",
      "outputs": [
        {
          "internalType": "uint256",
          "name": "",
          "type": "uint256"
        }
      ],
      "stateMutability": "view",
      "type": "function"
    },
    {
      "inputs": [
        {
          "internalType": "uint256",
          "name": "",
          "type": "uint256"
        }
      ],
      "name": "investmentIds",
      "outputs": [
        {
          "internalType": "bytes32",
          "name": "",
          "type": "bytes32"
        }
      ],
      "stateMutability": "view",
      "type": "function"
    },
    {
      "inputs": [
        {
          "internalType": "bytes32",
          "name": "",
          "type": "bytes32"
        }
      ],
      "name": "investments",
      "outputs": [
        {
          "internalType": "bytes32",
          "name": "investmentId",
          "type": "bytes32"
        },
        {
          "internalType": "address",
          "name": "startupWallet",
          "type": "address"
        },
        {
          "internalType": "uint256",
          "name": "amount",
          "type": "uint256"
        },
        {
          "internalType": "uint256",
          "name": "cisScore",
          "type": "uint256"
        },
        {
          "internalType": "string",
          "name": "investmentType",
          "type": "string"
        },
        {
          "internalType": "string",
          "name": "aiReason",
          "type": "string"
        },
        {
          "internalType": "uint256",
          "name": "timestamp",
          "type": "uint256"
        },
        {
          "internalType": "bool",
          "name": "withdrawn",
          "type": "bool"
        }
      ],
      "stateMutability": "view",
      "type": "function"
    },
    {
      "inputs": [],
      "name": "maxAllocationBps",
      "outputs": [
        {
          "internalType": "uint256",
          "name": "",
          "type": "uint256"
        }
      ],
      "stateMutability": "view",
      "type": "function"
    },
    {
      "inputs": [],
      "name": "milestoneEscrow",
      "outputs": [
        {
          "internalType": "address",
          "name": "",
          "type": "address"
        }
      ],
      "stateMutability": "view",
      "type": "function"
    },
    {
      "inputs": [],
      "name": "minCIS",
      "outputs": [
        {
          "internalType": "uint256",
          "name": "",
          "type": "uint256"
        }
      ],
      "stateMutability": "view",
      "type": "function"
    },
    {
      "inputs": [],
      "name": "operator",
      "outputs": [
        {
          "internalType": "address",
          "name": "",
          "type": "address"
        }
      ],
      "stateMutability": "view",
      "type": "function"
    },
    {
      "inputs": [],
      "name": "oracle",
      "outputs": [
        {
          "internalType": "address",
          "name": "",
          "type": "address"
        }
      ],
      "stateMutability": "view",
      "type": "function"
    },
    {
      "inputs": [],
      "name": "owner",
      "outputs": [
        {
          "internalType": "address",
          "name": "",
          "type": "address"
        }
      ],
      "stateMutability": "view",
      "type": "function"
    },
    {
      "inputs": [],
      "name": "resetEmergencyFreeze",
      "outputs": [],
      "stateMutability": "nonpayable",
      "type": "function"
    },
    {
      "inputs": [
        {
          "internalType": "address",
          "name": "startupWallet",
          "type": "address"
        },
        {
          "internalType": "uint256",
          "name": "riskScore",
          "type": "uint256"
        }
      ],
      "name": "riskTriggeredWithdraw",
      "outputs": [],
      "stateMutability": "nonpayable",
      "type": "function"
    },
    {
      "inputs": [
        {
          "internalType": "address",
          "name": "_operator",
          "type": "address"
        }
      ],
      "name": "setOperator",
      "outputs": [],
      "stateMutability": "nonpayable",
      "type": "function"
    },
    {
      "inputs": [
        {
          "internalType": "address",
          "name": "_oracle",
          "type": "address"
        }
      ],
      "name": "setOracle",
      "outputs": [],
      "stateMutability": "nonpayable",
      "type": "function"
    },
    {
      "inputs": [
        {
          "internalType": "uint256",
          "name": "_minCIS",
          "type": "uint256"
        },
        {
          "internalType": "uint256",
          "name": "_maxAllocationBps",
          "type": "uint256"
        }
      ],
      "name": "setParameters",
      "outputs": [],
      "stateMutability": "nonpayable",
      "type": "function"
    },
    {
      "inputs": [
        {
          "internalType": "bool",
          "name": "active",
          "type": "bool"
        }
      ],
      "name": "toggleAgent",
      "outputs": [],
      "stateMutability": "nonpayable",
      "type": "function"
    },
    {
      "inputs": [],
      "name": "totalDeposited",
      "outputs": [
        {
          "internalType": "uint256",
          "name": "",
          "type": "uint256"
        }
      ],
      "stateMutability": "view",
      "type": "function"
    },
    {
      "inputs": [],
      "name": "totalInvested",
      "outputs": [
        {
          "internalType": "uint256",
          "name": "",
          "type": "uint256"
        }
      ],
      "stateMutability": "view",
      "type": "function"
    },
    {
      "inputs": [],
      "name": "vaultBalance",
      "outputs": [
        {
          "internalType": "uint256",
          "name": "",
          "type": "uint256"
        }
      ],
      "stateMutability": "view",
      "type": "function"
    },
    {
      "inputs": [],
      "name": "vaultSummary",
      "outputs": [
        {
          "internalType": "uint256",
          "name": "balance",
          "type": "uint256"
        },
        {
          "internalType": "uint256",
          "name": "_totalDeposited",
          "type": "uint256"
        },
        {
          "internalType": "uint256",
          "name": "_totalInvested",
          "type": "uint256"
        },
        {
          "internalType": "uint256",
          "name": "count",
          "type": "uint256"
        },
        {
          "internalType": "bool",
          "name": "active",
          "type": "bool"
        },
        {
          "internalType": "uint256",
          "name": "_minCIS",
          "type": "uint256"
        },
        {
          "internalType": "uint256",
          "name": "_maxBps",
          "type": "uint256"
        }
      ],
      "stateMutability": "view",
      "type": "function"
    },
    {
      "stateMutability": "payable",
      "type": "receive"
    }
  ],
  "bytecode": "0x60a0346200013057601f62001c3938819003918201601f19168301916001600160401b03831184841017620001355780849260c09460405283398101031262000130576200004d816200014b565b906200005c602082016200014b565b916200006b604083016200014b565b62000079606084016200014b565b60a06080850151940151943360805260018060a01b03928380928160018060a01b03199716876000541617600055168560015416176001551683600254161760025516906003541617600355600455600555600160ff196006541617600655604051611ad8908162000161823960805181818161036d015281816103e10152818161060b0152818161066d0152818161075401528181610895015281816108e201528181610b860152818161154801526115950152f35b600080fd5b634e487b7160e01b600052604160045260246000fd5b51906001600160a01b0382168203620001305756fe608080604052600436101561005f575b50361561001b57600080fd5b6100273460075461198f565b600755476040519034825260208201527f73a19dd210f1a7f902193214c0ee91dd35ee5b4d920cba8d519eca65a7b488ca60403392a2005b600090813560e01c90816303bbecde14611708575080630bf6cc0814611699578063134e18f4146116df578063246b0e5c146116c15780632e411a101461169e57806348a0d754146116995780634f03bd6014611645578063518a95441461161c5780635216aeec146115fe578063570ca735146115d75780636c4f05661461157e57806376b58a0214610bc45780637adbf97314610b5d5780637dc0d1d014610b3457806384425f7d146109f2578063884870c7146108c45780638da5cb5b1461087f578063918eb4ce146107cb5780639babf21c14610792578063b3ab15fb1461072b578063d0e30db01461065b578063d2e1639c146105c1578063d7eb937914610513578063db2e21bc146103b2578063e4ad2f0514610394578063e4e09ecd1461021e578063e83a25c5146101e5578063f1c267b9146101c75763ff50abdc0361000f57346101c457806003193601126101c4576020600754604051908152f35b80fd5b50346101c457806003193601126101c4576020600554604051908152f35b50346101c45760203660031901126101c45760043590600a548210156101c4576020610210836118fe565b90546040519160031b1c8152f35b50346101c45760403660031901126101c457610238611745565b6001805490916001600160a01b0391821633148015610369575b1561032b578116919083825b6102a6575b505050808252600c6020527f26e1c85f91352ecefe2dc30df96c5f3987dba184c4ba80b47be7d3a5324d461660408084205481519081526024356020820152a280f35b600a54811015610326576102b9816118fe565b90549060031b1c8552600b60205260408520848385830154161480610317575b610304575b5060001981146102f05782018261025e565b634e487b7160e01b85526011600452602485fd5b600701805460ff191684179055386102de565b5060ff600782015416156102d9565b610263565b60405162461bcd60e51b81526020600482015260166024820152754167656e745661756c743a206e6f74206f7261636c6560501b6044820152606490fd5b50817f0000000000000000000000000000000000000000000000000000000000000000163314610252565b50346101c457806003193601126101c4576020600454604051908152f35b50346101c457806003193601126101c457600d546103d360ff8216156119b2565b60ff19908116600117600d557f0000000000000000000000000000000000000000000000000000000000000000610414336001600160a01b0383161461194b565b479081156104ce578380809381934360095586600654166006556040518281524360208201527f56da9a5ae0bcf6e7c3fdd78a10550e7d0458de1c39bfb7f6e96a3e92dd344a6860403392a25af161046a611a72565b501561047a57600d5416600d5580f35b60405162461bcd60e51b815260206004820152602660248201527f4167656e745661756c743a207769746864726177616c207472616e736665722060448201526519985a5b195960d21b6064820152608490fd5b60405162461bcd60e51b815260206004820152601760248201527f4167656e745661756c743a207661756c7420656d7074790000000000000000006044820152606490fd5b50346101c45760203660031901126101c4576040906004358152600b60205220805460018060a01b036001830154169160028101546105b060038301546105a261055f60048601611858565b61056b60058701611858565b9260ff600760068901549801541695604051998a998a5260208a015260408901526060880152610100806080890152870190611789565b9085820360a0870152611789565b9160c0840152151560e08301520390f35b50346101c45760203660031901126101c457600435801515809103610657577f2c5d7d87f4f12fcc4fed0227ecbff1d02b0c61b346beb9de58547d868dcb347c90604090610639337f00000000000000000000000000000000000000000000000000000000000000006001600160a01b03161461194b565b60ff196006541660ff8216176006558151908152336020820152a180f35b5080fd5b50806003193601126101c45761069b337f00000000000000000000000000000000000000000000000000000000000000006001600160a01b03161461194b565b34156106e6576106ad3460075461198f565b600755476040519034825260208201527f73a19dd210f1a7f902193214c0ee91dd35ee5b4d920cba8d519eca65a7b488ca60403392a280f35b60405162461bcd60e51b815260206004820152601860248201527f4167656e745661756c743a207a65726f206465706f73697400000000000000006044820152606490fd5b50346101c45760203660031901126101c457610745611745565b6001600160a01b039061077b337f000000000000000000000000000000000000000000000000000000000000000084161461194b565b166001600160601b0360a01b600054161760005580f35b50346101c45760203660031901126101c4576020906040906001600160a01b036107ba611745565b168152600c83522054604051908152f35b50346101c457806003193601126101c4576040518091600a549081835260208093018092600a83527fc65a7bb8d6351c1cf70c95a316cc6a92839c986682d98bc35f958f4883f9d2a890835b81811061086b575050508461082d910385611836565b60405193838594850191818652518092526040850193925b82811061085457505050500390f35b835185528695509381019392810192600101610845565b825484529286019260019283019201610817565b50346101c457806003193601126101c4576040517f00000000000000000000000000000000000000000000000000000000000000006001600160a01b03168152602090f35b50346101c45760403660031901126101c457600435602435610910337f00000000000000000000000000000000000000000000000000000000000000006001600160a01b03161461194b565b61271082116109ad57611388811161095d57816040917ffaccb0639ff7851e0e24f3b2d9ab03cd62ffb63f5b4d90aaeff85bb078c1fa48936004558060055582519182526020820152a180f35b60405162461bcd60e51b815260206004820152602260248201527f4167656e745661756c743a206d6178203530252070657220696e766573746d656044820152611b9d60f21b6064820152608490fd5b60405162461bcd60e51b815260206004820152601f60248201527f4167656e745661756c743a20434953206d75737420626520302d3130303030006044820152606490fd5b50346101c457602090816003193601126101c4578060409160e08351610a1781611803565b8281528286820152828582015282606082015260606080820152606060a08201528260c082015201526004358152600b83522060405190610a5782611803565b8054825260018101546001600160a01b03908116848401908152600283015460408501908152600384015460608601908152610b229190610a9a60048701611858565b9160808801928352610aae60058801611858565b9560a0890196875260ff600760068a01549960c08c019a8b520154169560e08a0196151587526040519a8b9a818c5251908b0152511660408901525160608801525160808701525192610b0f610100948560a0890152610120880190611789565b9051868203601f190160c0880152611789565b925160e0850152511515908301520390f35b50346101c457806003193601126101c4576001546040516001600160a01b039091168152602090f35b50346101c45760203660031901126101c457610b77611745565b6001600160a01b0390610bad337f000000000000000000000000000000000000000000000000000000000000000084161461194b565b166001600160601b0360a01b600154161760015580f35b50346101c45760c03660031901126101c457610bde611745565b60843567ffffffffffffffff811161157a57610bfe90369060040161175b565b9060a43567ffffffffffffffff811161157657610c1f90369060040161175b565b9190926001600d54610c3460ff8216156119b2565b60ff191617600d5585546001600160a01b031633148015611544575b156114ff576009546114ae5760ff600654161561146957604435156114245747604435116113e0576004546064351061139b576005544781810291811591830414171561138757612710900460443511611337576002546001600160a01b031680611252575b50604051926001600160601b03198660601b16602085015260443560348501526064356054850152426074850152436094850152609484528360c081011067ffffffffffffffff60c08601111761123e5760c084016040528351602085012093610d2260c08201611803565b60c081018590526001600160a01b03871660e0820152604435610100820152606435610120820152610d55368486611a1a565b610140820152610d66368388611a1a565b61016082015242610180820152876101a0820152848852600b6020526040882060c082015181556001810160018060a01b0360e0840151166001600160601b0360a01b8254161790556101008201516002820155610120820151600382015561014082015180519067ffffffffffffffff821161115e578190610dec60048501546117c9565b601f81116111ec575b50602090601f831160011461117d578c92611172575b50508160011b916000199060031b1c19161760048201555b61016082015180519067ffffffffffffffff821161115e57610e4860058401546117c9565b601f8111611119575b506020908b601f84116001146110a557926101a0949281926007959261109a575b50508160011b916000199060031b1c19161760058201555b610180840151600682015501910151151560ff80198354169116179055600a5468010000000000000000811015611086577f5a3cce0073d4529675a3d14916c8f307f63dd4f52bc082a67dbac257e48fd23f939291610ef2826001610f829401600a556118fe565b815460001960039290921b91821b19169088901b1790556001600160a01b0388168952600c602052604089208054610f2d906044359061198f565b9055610f3d60443560085461198f565b600855610f6760405194859460443586526064356020870152608060408701526080860191611a51565b83810360608501526001600160a01b03891697909190611a51565b0390a360035482906001600160a01b03161561102a576003546001600160a01b031691823b15610657576044604051809481936334ca690560e11b8352602435600484015260018060a01b031660248301528235905af1801561101f57610ff3575b505b60ff19600d5416600d5580f35b67ffffffffffffffff811161100b5760405238610fe4565b634e487b7160e01b82526041600452602482fd5b6040513d84823e3d90fd5b80808093604435905af161103c611a72565b50610fe65760405162461bcd60e51b815260206004820152601b60248201527f4167656e745661756c743a207472616e73666572206661696c656400000000006044820152606490fd5b634e487b7160e01b88526041600452602488fd5b015190503880610e72565b5090600584018c5260208c20918c5b601f19851681106111015750926101a0949260019260079583601f198116106110e8575b505050811b016005820155610e8a565b015160001960f88460031b161c191690553880806110d8565b919260206001819286850151815501940192016110b4565b600584018c5260208c20601f840160051c810160208510611157575b8d601f840160051c8301821061114d57505050610e51565b8155600101611135565b5080611135565b634e487b7160e01b8b52604160045260248bfd5b015190503880610e0b565b9250600484018c5260208c20908c935b601f19841685106111d1576001945083601f198116106111b8575b505050811b016004820155610e23565b015160001960f88460031b161c191690553880806111a8565b8181015183556020948501946001909301929091019061118d565b909150600484018c5260208c20601f840160051c810160208510611237575b84939291908e5b601f840160051c8301821061122957505050610df5565b81558594506001018e611212565b508061120b565b634e487b7160e01b87526041600452602487fd5b60405163b9209e3360e01b81526001600160a01b038716600482015290602090829060249082905afa90811561132c5787916112ee575b50156112955738610cb6565b60405162461bcd60e51b815260206004820152602b60248201527f4167656e745661756c743a20737461727475702077616c6c6574206e6f74204b60448201526a1650cb5d995c9a599a595960aa1b6064820152608490fd5b90506020813d8211611324575b8161130860209383611836565b81010312611320575180151581036113205738611289565b8680fd5b3d91506112fb565b6040513d89823e3d90fd5b60405162461bcd60e51b815260206004820152602260248201527f4167656e745661756c743a2065786365656473206d617820616c6c6f6361746960448201526137b760f11b6064820152608490fd5b634e487b7160e01b87526011600452602487fd5b60405162461bcd60e51b815260206004820152601f60248201527f4167656e745661756c743a204349532062656c6f77207468726573686f6c64006044820152606490fd5b606460405162461bcd60e51b815260206004820152602060248201527f4167656e745661756c743a20696e73756666696369656e742062616c616e63656044820152fd5b60405162461bcd60e51b815260206004820152601760248201527f4167656e745661756c743a207a65726f20616d6f756e740000000000000000006044820152606490fd5b60405162461bcd60e51b815260206004820152601b60248201527f4167656e745661756c743a206167656e742069732070617573656400000000006044820152606490fd5b60405162461bcd60e51b815260206004820152602360248201527f4167656e745661756c743a20656d657267656e637920667265657a652061637460448201526269766560e81b6064820152608490fd5b60405162461bcd60e51b815260206004820152601860248201527f4167656e745661756c743a206e6f74206f70657261746f7200000000000000006044820152606490fd5b50337f00000000000000000000000000000000000000000000000000000000000000006001600160a01b031614610c50565b8480fd5b8280fd5b50346101c457806003193601126101c4576115c3337f00000000000000000000000000000000000000000000000000000000000000006001600160a01b03161461194b565b80600955600160ff19600654161760065580f35b50346101c457806003193601126101c457546040516001600160a01b039091168152602090f35b50346101c457806003193601126101c4576020600854604051908152f35b50346101c457806003193601126101c4576003546040516001600160a01b039091168152602090f35b50346101c457806003193601126101c45760e047600754600854600a5460ff600654169060045492600554946040519687526020870152604086015260608501521515608084015260a083015260c0820152f35b611724565b50346101c457806003193601126101c457602060ff600654166040519015158152f35b50346101c457806003193601126101c4576020600a54604051908152f35b50346101c457806003193601126101c4576002546040516001600160a01b039091168152602090f35b9050346106575781600319360112610657576020906009548152f35b3461174057600036600319011261174057602047604051908152f35b600080fd5b600435906001600160a01b038216820361174057565b9181601f840112156117405782359167ffffffffffffffff8311611740576020838186019501011161174057565b919082519283825260005b8481106117b5575050826000602080949584010152601f8019910116010190565b602081830181015184830182015201611794565b90600182811c921680156117f9575b60208310146117e357565b634e487b7160e01b600052602260045260246000fd5b91607f16916117d8565b610100810190811067ffffffffffffffff82111761182057604052565b634e487b7160e01b600052604160045260246000fd5b90601f8019910116810190811067ffffffffffffffff82111761182057604052565b906040519182600082549261186c846117c9565b9081845260019485811690816000146118db5750600114611898575b505061189692500383611836565b565b9093915060005260209081600020936000915b8183106118c357505061189693508201013880611888565b855488840185015294850194879450918301916118ab565b91505061189694506020925060ff191682840152151560051b8201013880611888565b600a5481101561193557600a6000527fc65a7bb8d6351c1cf70c95a316cc6a92839c986682d98bc35f958f4883f9d2a80190600090565b634e487b7160e01b600052603260045260246000fd5b1561195257565b60405162461bcd60e51b815260206004820152601560248201527420b3b2b73a2b30bab63a1d103737ba1037bbb732b960591b6044820152606490fd5b9190820180921161199c57565b634e487b7160e01b600052601160045260246000fd5b156119b957565b60405162461bcd60e51b815260206004820152601a60248201527f4167656e745661756c743a207265656e7472616e742063616c6c0000000000006044820152606490fd5b67ffffffffffffffff811161182057601f01601f191660200190565b929192611a26826119fe565b91611a346040519384611836565b829481845281830111611740578281602093846000960137010152565b908060209392818452848401376000828201840152601f01601f1916010190565b3d15611a9d573d90611a83826119fe565b91611a916040519384611836565b82523d6000602084013e565b60609056fea26469706673582212208d37e2928a808b7991f7367a351534e9a90d5dc0b5f1f01091e24ea4283db1bc64736f6c63430008130033",
  "linkReferences": {},
  "deployedLinkReferences": {}
}